{
	"contracts/MembershipRights.sol": {
		"MembershipRights": {
			"abi": [
				{
					"inputs": [],
					"stateMutability": "nonpayable",
					"type": "constructor"
				},
				{
					"inputs": [
						{
							"internalType": "address",
							"name": "usr",
							"type": "address"
						},
						{
							"internalType": "uint48",
							"name": "role",
							"type": "uint48"
						}
					],
					"name": "hasRights",
					"outputs": [
						{
							"internalType": "bool",
							"name": "",
							"type": "bool"
						}
					],
					"stateMutability": "view",
					"type": "function"
				},
				{
					"inputs": [
						{
							"internalType": "address",
							"name": "usr",
							"type": "address"
						},
						{
							"internalType": "uint48",
							"name": "role",
							"type": "uint48"
						}
					],
					"name": "updateMember",
					"outputs": [],
					"stateMutability": "nonpayable",
					"type": "function"
				}
			],
			"devdoc": {
				"kind": "dev",
				"methods": {},
				"version": 1
			},
			"evm": {
				"assembly": "    /* \"contracts/MembershipRights.sol\":155:531  contract MembershipRights {... */\n  mstore(0x40, 0x80)\n    /* \"contracts/MembershipRights.sol\":232:292  constructor() {... */\n  callvalue\n  dup1\n  iszero\n  tag_1\n  jumpi\n  0x00\n  dup1\n  revert\ntag_1:\n  pop\n    /* \"contracts/MembershipRights.sol\":147:150  0x4 */\n  0x04\n    /* \"contracts/MembershipRights.sol\":257:264  members */\n  0x00\n    /* \"contracts/MembershipRights.sol\":257:276  members[msg.sender] */\n  dup1\n    /* \"contracts/MembershipRights.sol\":265:275  msg.sender */\n  caller\n    /* \"contracts/MembershipRights.sol\":257:276  members[msg.sender] */\n  0xffffffffffffffffffffffffffffffffffffffff\n  and\n  0xffffffffffffffffffffffffffffffffffffffff\n  and\n  dup2\n  mstore\n  0x20\n  add\n  swap1\n  dup2\n  mstore\n  0x20\n  add\n  0x00\n  keccak256\n  0x00\n    /* \"contracts/MembershipRights.sol\":257:284  members[msg.sender] = ADMIN */\n  0x0100\n  exp\n  dup2\n  sload\n  dup2\n  0xffffffffffff\n  mul\n  not\n  and\n  swap1\n  dup4\n  0xffffffffffff\n  and\n  mul\n  or\n  swap1\n  sstore\n  pop\n    /* \"contracts/MembershipRights.sol\":155:531  contract MembershipRights {... */\n  dataSize(sub_0)\n  dup1\n  dataOffset(sub_0)\n  0x00\n  codecopy\n  0x00\n  return\nstop\n\nsub_0: assembly {\n        /* \"contracts/MembershipRights.sol\":155:531  contract MembershipRights {... */\n      mstore(0x40, 0x80)\n      callvalue\n      dup1\n      iszero\n      tag_1\n      jumpi\n      0x00\n      dup1\n      revert\n    tag_1:\n      pop\n      jumpi(tag_2, lt(calldatasize, 0x04))\n      shr(0xe0, calldataload(0x00))\n      dup1\n      0x6ea25467\n      eq\n      tag_3\n      jumpi\n      dup1\n      0xf35f0f74\n      eq\n      tag_4\n      jumpi\n    tag_2:\n      0x00\n      dup1\n      revert\n        /* \"contracts/MembershipRights.sol\":298:391  function updateMember(address usr, uint48 role) public {... */\n    tag_3:\n      tag_5\n      0x04\n      dup1\n      calldatasize\n      sub\n      dup2\n      add\n      swap1\n      tag_6\n      swap2\n      swap1\n      tag_7\n      jump\t// in\n    tag_6:\n      tag_8\n      jump\t// in\n    tag_5:\n      stop\n        /* \"contracts/MembershipRights.sol\":401:524  function hasRights(address usr, uint48 role) public view returns(bool){... */\n    tag_4:\n      tag_9\n      0x04\n      dup1\n      calldatasize\n      sub\n      dup2\n      add\n      swap1\n      tag_10\n      swap2\n      swap1\n      tag_7\n      jump\t// in\n    tag_10:\n      tag_11\n      jump\t// in\n    tag_9:\n      mload(0x40)\n      tag_12\n      swap2\n      swap1\n      tag_13\n      jump\t// in\n    tag_12:\n      mload(0x40)\n      dup1\n      swap2\n      sub\n      swap1\n      return\n        /* \"contracts/MembershipRights.sol\":298:391  function updateMember(address usr, uint48 role) public {... */\n    tag_8:\n        /* \"contracts/MembershipRights.sol\":379:383  role */\n      dup1\n        /* \"contracts/MembershipRights.sol\":364:371  members */\n      0x00\n        /* \"contracts/MembershipRights.sol\":364:376  members[usr] */\n      dup1\n        /* \"contracts/MembershipRights.sol\":372:375  usr */\n      dup5\n        /* \"contracts/MembershipRights.sol\":364:376  members[usr] */\n      0xffffffffffffffffffffffffffffffffffffffff\n      and\n      0xffffffffffffffffffffffffffffffffffffffff\n      and\n      dup2\n      mstore\n      0x20\n      add\n      swap1\n      dup2\n      mstore\n      0x20\n      add\n      0x00\n      keccak256\n      0x00\n        /* \"contracts/MembershipRights.sol\":364:383  members[usr] = role */\n      0x0100\n      exp\n      dup2\n      sload\n      dup2\n      0xffffffffffff\n      mul\n      not\n      and\n      swap1\n      dup4\n      0xffffffffffff\n      and\n      mul\n      or\n      swap1\n      sstore\n      pop\n        /* \"contracts/MembershipRights.sol\":298:391  function updateMember(address usr, uint48 role) public {... */\n      pop\n      pop\n      jump\t// out\n        /* \"contracts/MembershipRights.sol\":401:524  function hasRights(address usr, uint48 role) public view returns(bool){... */\n    tag_11:\n        /* \"contracts/MembershipRights.sol\":466:470  bool */\n      0x00\n        /* \"contracts/MembershipRights.sol\":512:516  role */\n      dup2\n        /* \"contracts/MembershipRights.sol\":489:516  members[usr] & role == role */\n      0xffffffffffff\n      and\n        /* \"contracts/MembershipRights.sol\":504:508  role */\n      dup3\n        /* \"contracts/MembershipRights.sol\":489:496  members */\n      0x00\n        /* \"contracts/MembershipRights.sol\":489:501  members[usr] */\n      dup1\n        /* \"contracts/MembershipRights.sol\":497:500  usr */\n      dup7\n        /* \"contracts/MembershipRights.sol\":489:501  members[usr] */\n      0xffffffffffffffffffffffffffffffffffffffff\n      and\n      0xffffffffffffffffffffffffffffffffffffffff\n      and\n      dup2\n      mstore\n      0x20\n      add\n      swap1\n      dup2\n      mstore\n      0x20\n      add\n      0x00\n      keccak256\n      0x00\n      swap1\n      sload\n      swap1\n      0x0100\n      exp\n      swap1\n      div\n      0xffffffffffff\n      and\n        /* \"contracts/MembershipRights.sol\":489:508  members[usr] & role */\n      and\n        /* \"contracts/MembershipRights.sol\":489:516  members[usr] & role == role */\n      0xffffffffffff\n      and\n      eq\n        /* \"contracts/MembershipRights.sol\":482:516  return members[usr] & role == role */\n      swap1\n      pop\n        /* \"contracts/MembershipRights.sol\":401:524  function hasRights(address usr, uint48 role) public view returns(bool){... */\n      swap3\n      swap2\n      pop\n      pop\n      jump\t// out\n        /* \"#utility.yul\":88:205   */\n    tag_17:\n        /* \"#utility.yul\":197:198   */\n      0x00\n        /* \"#utility.yul\":194:195   */\n      dup1\n        /* \"#utility.yul\":187:199   */\n      revert\n        /* \"#utility.yul\":334:460   */\n    tag_19:\n        /* \"#utility.yul\":371:378   */\n      0x00\n        /* \"#utility.yul\":411:453   */\n      0xffffffffffffffffffffffffffffffffffffffff\n        /* \"#utility.yul\":404:409   */\n      dup3\n        /* \"#utility.yul\":400:454   */\n      and\n        /* \"#utility.yul\":389:454   */\n      swap1\n      pop\n        /* \"#utility.yul\":334:460   */\n      swap2\n      swap1\n      pop\n      jump\t// out\n        /* \"#utility.yul\":466:562   */\n    tag_20:\n        /* \"#utility.yul\":503:510   */\n      0x00\n        /* \"#utility.yul\":532:556   */\n      tag_34\n        /* \"#utility.yul\":550:555   */\n      dup3\n        /* \"#utility.yul\":532:556   */\n      tag_19\n      jump\t// in\n    tag_34:\n        /* \"#utility.yul\":521:556   */\n      swap1\n      pop\n        /* \"#utility.yul\":466:562   */\n      swap2\n      swap1\n      pop\n      jump\t// out\n        /* \"#utility.yul\":568:690   */\n    tag_21:\n        /* \"#utility.yul\":641:665   */\n      tag_36\n        /* \"#utility.yul\":659:664   */\n      dup2\n        /* \"#utility.yul\":641:665   */\n      tag_20\n      jump\t// in\n    tag_36:\n        /* \"#utility.yul\":634:639   */\n      dup2\n        /* \"#utility.yul\":631:666   */\n      eq\n        /* \"#utility.yul\":621:684   */\n      tag_37\n      jumpi\n        /* \"#utility.yul\":680:681   */\n      0x00\n        /* \"#utility.yul\":677:678   */\n      dup1\n        /* \"#utility.yul\":670:682   */\n      revert\n        /* \"#utility.yul\":621:684   */\n    tag_37:\n        /* \"#utility.yul\":568:690   */\n      pop\n      jump\t// out\n        /* \"#utility.yul\":696:835   */\n    tag_22:\n        /* \"#utility.yul\":742:747   */\n      0x00\n        /* \"#utility.yul\":780:786   */\n      dup2\n        /* \"#utility.yul\":767:787   */\n      calldataload\n        /* \"#utility.yul\":758:787   */\n      swap1\n      pop\n        /* \"#utility.yul\":796:829   */\n      tag_39\n        /* \"#utility.yul\":823:828   */\n      dup2\n        /* \"#utility.yul\":796:829   */\n      tag_21\n      jump\t// in\n    tag_39:\n        /* \"#utility.yul\":696:835   */\n      swap3\n      swap2\n      pop\n      pop\n      jump\t// out\n        /* \"#utility.yul\":841:938   */\n    tag_23:\n        /* \"#utility.yul\":877:884   */\n      0x00\n        /* \"#utility.yul\":917:931   */\n      0xffffffffffff\n        /* \"#utility.yul\":910:915   */\n      dup3\n        /* \"#utility.yul\":906:932   */\n      and\n        /* \"#utility.yul\":895:932   */\n      swap1\n      pop\n        /* \"#utility.yul\":841:938   */\n      swap2\n      swap1\n      pop\n      jump\t// out\n        /* \"#utility.yul\":944:1064   */\n    tag_24:\n        /* \"#utility.yul\":1016:1039   */\n      tag_42\n        /* \"#utility.yul\":1033:1038   */\n      dup2\n        /* \"#utility.yul\":1016:1039   */\n      tag_23\n      jump\t// in\n    tag_42:\n        /* \"#utility.yul\":1009:1014   */\n      dup2\n        /* \"#utility.yul\":1006:1040   */\n      eq\n        /* \"#utility.yul\":996:1058   */\n      tag_43\n      jumpi\n        /* \"#utility.yul\":1054:1055   */\n      0x00\n        /* \"#utility.yul\":1051:1052   */\n      dup1\n        /* \"#utility.yul\":1044:1056   */\n      revert\n        /* \"#utility.yul\":996:1058   */\n    tag_43:\n        /* \"#utility.yul\":944:1064   */\n      pop\n      jump\t// out\n        /* \"#utility.yul\":1070:1207   */\n    tag_25:\n        /* \"#utility.yul\":1115:1120   */\n      0x00\n        /* \"#utility.yul\":1153:1159   */\n      dup2\n        /* \"#utility.yul\":1140:1160   */\n      calldataload\n        /* \"#utility.yul\":1131:1160   */\n      swap1\n      pop\n        /* \"#utility.yul\":1169:1201   */\n      tag_45\n        /* \"#utility.yul\":1195:1200   */\n      dup2\n        /* \"#utility.yul\":1169:1201   */\n      tag_24\n      jump\t// in\n    tag_45:\n        /* \"#utility.yul\":1070:1207   */\n      swap3\n      swap2\n      pop\n      pop\n      jump\t// out\n        /* \"#utility.yul\":1213:1685   */\n    tag_7:\n        /* \"#utility.yul\":1280:1286   */\n      0x00\n        /* \"#utility.yul\":1288:1294   */\n      dup1\n        /* \"#utility.yul\":1337:1339   */\n      0x40\n        /* \"#utility.yul\":1325:1334   */\n      dup4\n        /* \"#utility.yul\":1316:1323   */\n      dup6\n        /* \"#utility.yul\":1312:1335   */\n      sub\n        /* \"#utility.yul\":1308:1340   */\n      slt\n        /* \"#utility.yul\":1305:1424   */\n      iszero\n      tag_47\n      jumpi\n        /* \"#utility.yul\":1343:1422   */\n      tag_48\n      tag_17\n      jump\t// in\n    tag_48:\n        /* \"#utility.yul\":1305:1424   */\n    tag_47:\n        /* \"#utility.yul\":1463:1464   */\n      0x00\n        /* \"#utility.yul\":1488:1541   */\n      tag_49\n        /* \"#utility.yul\":1533:1540   */\n      dup6\n        /* \"#utility.yul\":1524:1530   */\n      dup3\n        /* \"#utility.yul\":1513:1522   */\n      dup7\n        /* \"#utility.yul\":1509:1531   */\n      add\n        /* \"#utility.yul\":1488:1541   */\n      tag_22\n      jump\t// in\n    tag_49:\n        /* \"#utility.yul\":1478:1541   */\n      swap3\n      pop\n        /* \"#utility.yul\":1434:1551   */\n      pop\n        /* \"#utility.yul\":1590:1592   */\n      0x20\n        /* \"#utility.yul\":1616:1668   */\n      tag_50\n        /* \"#utility.yul\":1660:1667   */\n      dup6\n        /* \"#utility.yul\":1651:1657   */\n      dup3\n        /* \"#utility.yul\":1640:1649   */\n      dup7\n        /* \"#utility.yul\":1636:1658   */\n      add\n        /* \"#utility.yul\":1616:1668   */\n      tag_25\n      jump\t// in\n    tag_50:\n        /* \"#utility.yul\":1606:1668   */\n      swap2\n      pop\n        /* \"#utility.yul\":1561:1678   */\n      pop\n        /* \"#utility.yul\":1213:1685   */\n      swap3\n      pop\n      swap3\n      swap1\n      pop\n      jump\t// out\n        /* \"#utility.yul\":1691:1781   */\n    tag_26:\n        /* \"#utility.yul\":1725:1732   */\n      0x00\n        /* \"#utility.yul\":1768:1773   */\n      dup2\n        /* \"#utility.yul\":1761:1774   */\n      iszero\n        /* \"#utility.yul\":1754:1775   */\n      iszero\n        /* \"#utility.yul\":1743:1775   */\n      swap1\n      pop\n        /* \"#utility.yul\":1691:1781   */\n      swap2\n      swap1\n      pop\n      jump\t// out\n        /* \"#utility.yul\":1787:1896   */\n    tag_27:\n        /* \"#utility.yul\":1868:1889   */\n      tag_53\n        /* \"#utility.yul\":1883:1888   */\n      dup2\n        /* \"#utility.yul\":1868:1889   */\n      tag_26\n      jump\t// in\n    tag_53:\n        /* \"#utility.yul\":1863:1866   */\n      dup3\n        /* \"#utility.yul\":1856:1890   */\n      mstore\n        /* \"#utility.yul\":1787:1896   */\n      pop\n      pop\n      jump\t// out\n        /* \"#utility.yul\":1902:2112   */\n    tag_13:\n        /* \"#utility.yul\":1989:1993   */\n      0x00\n        /* \"#utility.yul\":2027:2029   */\n      0x20\n        /* \"#utility.yul\":2016:2025   */\n      dup3\n        /* \"#utility.yul\":2012:2030   */\n      add\n        /* \"#utility.yul\":2004:2030   */\n      swap1\n      pop\n        /* \"#utility.yul\":2040:2105   */\n      tag_55\n        /* \"#utility.yul\":2102:2103   */\n      0x00\n        /* \"#utility.yul\":2091:2100   */\n      dup4\n        /* \"#utility.yul\":2087:2104   */\n      add\n        /* \"#utility.yul\":2078:2084   */\n      dup5\n        /* \"#utility.yul\":2040:2105   */\n      tag_27\n      jump\t// in\n    tag_55:\n        /* \"#utility.yul\":1902:2112   */\n      swap3\n      swap2\n      pop\n      pop\n      jump\t// out\n\n    auxdata: 0xa26469706673582212207857926099bce66b0c59cd0854776d1d6b9e429f6f0e2aa11ef2f28e3c06ee4b64736f6c63430008090033\n}\n",
				"bytecode": {
					"linkReferences": {},
					"object": "608060405234801561001057600080fd5b5060046000803373ffffffffffffffffffffffffffffffffffffffff1673ffffffffffffffffffffffffffffffffffffffff16815260200190815260200160002060006101000a81548165ffffffffffff021916908365ffffffffffff1602179055506102a8806100826000396000f3fe608060405234801561001057600080fd5b50600436106100365760003560e01c80636ea254671461003b578063f35f0f7414610057575b600080fd5b610055600480360381019061005091906101fc565b610087565b005b610071600480360381019061006c91906101fc565b6100ec565b60405161007e9190610257565b60405180910390f35b806000808473ffffffffffffffffffffffffffffffffffffffff1673ffffffffffffffffffffffffffffffffffffffff16815260200190815260200160002060006101000a81548165ffffffffffff021916908365ffffffffffff1602179055505050565b60008165ffffffffffff16826000808673ffffffffffffffffffffffffffffffffffffffff1673ffffffffffffffffffffffffffffffffffffffff16815260200190815260200160002060009054906101000a900465ffffffffffff161665ffffffffffff1614905092915050565b600080fd5b600073ffffffffffffffffffffffffffffffffffffffff82169050919050565b600061018b82610160565b9050919050565b61019b81610180565b81146101a657600080fd5b50565b6000813590506101b881610192565b92915050565b600065ffffffffffff82169050919050565b6101d9816101be565b81146101e457600080fd5b50565b6000813590506101f6816101d0565b92915050565b600080604083850312156102135761021261015b565b5b6000610221858286016101a9565b9250506020610232858286016101e7565b9150509250929050565b60008115159050919050565b6102518161023c565b82525050565b600060208201905061026c6000830184610248565b9291505056fea26469706673582212207857926099bce66b0c59cd0854776d1d6b9e429f6f0e2aa11ef2f28e3c06ee4b64736f6c63430008090033",
					"opcodes": "PUSH1 0x80 PUSH1 0x40 MSTORE CALLVALUE DUP1 ISZERO PUSH2 0x10 JUMPI PUSH1 0x0 DUP1 REVERT JUMPDEST POP PUSH1 0x4 PUSH1 0x0 DUP1 CALLER PUSH20 0xFFFFFFFFFFFFFFFFFFFFFFFFFFFFFFFFFFFFFFFF AND PUSH20 0xFFFFFFFFFFFFFFFFFFFFFFFFFFFFFFFFFFFFFFFF AND DUP2 MSTORE PUSH1 0x20 ADD SWAP1 DUP2 MSTORE PUSH1 0x20 ADD PUSH1 0x0 KECCAK256 PUSH1 0x0 PUSH2 0x100 EXP DUP2 SLOAD DUP2 PUSH6 0xFFFFFFFFFFFF MUL NOT AND SWAP1 DUP4 PUSH6 0xFFFFFFFFFFFF AND MUL OR SWAP1 SSTORE POP PUSH2 0x2A8 DUP1 PUSH2 0x82 PUSH1 0x0 CODECOPY PUSH1 0x0 RETURN INVALID PUSH1 0x80 PUSH1 0x40 MSTORE CALLVALUE DUP1 ISZERO PUSH2 0x10 JUMPI PUSH1 0x0 DUP1 REVERT JUMPDEST POP PUSH1 0x4 CALLDATASIZE LT PUSH2 0x36 JUMPI PUSH1 0x0 CALLDATALOAD PUSH1 0xE0 SHR DUP1 PUSH4 0x6EA25467 EQ PUSH2 0x3B JUMPI DUP1 PUSH4 0xF35F0F74 EQ PUSH2 0x57 JUMPI JUMPDEST PUSH1 0x0 DUP1 REVERT JUMPDEST PUSH2 0x55 PUSH1 0x4 DUP1 CALLDATASIZE SUB DUP2 ADD SWAP1 PUSH2 0x50 SWAP2 SWAP1 PUSH2 0x1FC JUMP JUMPDEST PUSH2 0x87 JUMP JUMPDEST STOP JUMPDEST PUSH2 0x71 PUSH1 0x4 DUP1 CALLDATASIZE SUB DUP2 ADD SWAP1 PUSH2 0x6C SWAP2 SWAP1 PUSH2 0x1FC JUMP JUMPDEST PUSH2 0xEC JUMP JUMPDEST PUSH1 0x40 MLOAD PUSH2 0x7E SWAP2 SWAP1 PUSH2 0x257 JUMP JUMPDEST PUSH1 0x40 MLOAD DUP1 SWAP2 SUB SWAP1 RETURN JUMPDEST DUP1 PUSH1 0x0 DUP1 DUP5 PUSH20 0xFFFFFFFFFFFFFFFFFFFFFFFFFFFFFFFFFFFFFFFF AND PUSH20 0xFFFFFFFFFFFFFFFFFFFFFFFFFFFFFFFFFFFFFFFF AND DUP2 MSTORE PUSH1 0x20 ADD SWAP1 DUP2 MSTORE PUSH1 0x20 ADD PUSH1 0x0 KECCAK256 PUSH1 0x0 PUSH2 0x100 EXP DUP2 SLOAD DUP2 PUSH6 0xFFFFFFFFFFFF MUL NOT AND SWAP1 DUP4 PUSH6 0xFFFFFFFFFFFF AND MUL OR SWAP1 SSTORE POP POP POP JUMP JUMPDEST PUSH1 0x0 DUP2 PUSH6 0xFFFFFFFFFFFF AND DUP3 PUSH1 0x0 DUP1 DUP7 PUSH20 0xFFFFFFFFFFFFFFFFFFFFFFFFFFFFFFFFFFFFFFFF AND PUSH20 0xFFFFFFFFFFFFFFFFFFFFFFFFFFFFFFFFFFFFFFFF AND DUP2 MSTORE PUSH1 0x20 ADD SWAP1 DUP2 MSTORE PUSH1 0x20 ADD PUSH1 0x0 KECCAK256 PUSH1 0x0 SWAP1 SLOAD SWAP1 PUSH2 0x100 EXP SWAP1 DIV PUSH6 0xFFFFFFFFFFFF AND AND PUSH6 0xFFFFFFFFFFFF AND EQ SWAP1 POP SWAP3 SWAP2 POP POP JUMP JUMPDEST PUSH1 0x0 DUP1 REVERT JUMPDEST PUSH1 0x0 PUSH20 0xFFFFFFFFFFFFFFFFFFFFFFFFFFFFFFFFFFFFFFFF DUP3 AND SWAP1 POP SWAP2 SWAP1 POP JUMP JUMPDEST PUSH1 0x0 PUSH2 0x18B DUP3 PUSH2 0x160 JUMP JUMPDEST SWAP1 POP SWAP2 SWAP1 POP JUMP JUMPDEST PUSH2 0x19B DUP2 PUSH2 0x180 JUMP JUMPDEST DUP2 EQ PUSH2 0x1A6 JUMPI PUSH1 0x0 DUP1 REVERT JUMPDEST POP JUMP JUMPDEST PUSH1 0x0 DUP2 CALLDATALOAD SWAP1 POP PUSH2 0x1B8 DUP2 PUSH2 0x192 JUMP JUMPDEST SWAP3 SWAP2 POP POP JUMP JUMPDEST PUSH1 0x0 PUSH6 0xFFFFFFFFFFFF DUP3 AND SWAP1 POP SWAP2 SWAP1 POP JUMP JUMPDEST PUSH2 0x1D9 DUP2 PUSH2 0x1BE JUMP JUMPDEST DUP2 EQ PUSH2 0x1E4 JUMPI PUSH1 0x0 DUP1 REVERT JUMPDEST POP JUMP JUMPDEST PUSH1 0x0 DUP2 CALLDATALOAD SWAP1 POP PUSH2 0x1F6 DUP2 PUSH2 0x1D0 JUMP JUMPDEST SWAP3 SWAP2 POP POP JUMP JUMPDEST PUSH1 0x0 DUP1 PUSH1 0x40 DUP4 DUP6 SUB SLT ISZERO PUSH2 0x213 JUMPI PUSH2 0x212 PUSH2 0x15B JUMP JUMPDEST JUMPDEST PUSH1 0x0 PUSH2 0x221 DUP6 DUP3 DUP7 ADD PUSH2 0x1A9 JUMP JUMPDEST SWAP3 POP POP PUSH1 0x20 PUSH2 0x232 DUP6 DUP3 DUP7 ADD PUSH2 0x1E7 JUMP JUMPDEST SWAP2 POP POP SWAP3 POP SWAP3 SWAP1 POP JUMP JUMPDEST PUSH1 0x0 DUP2 ISZERO ISZERO SWAP1 POP SWAP2 SWAP1 POP JUMP JUMPDEST PUSH2 0x251 DUP2 PUSH2 0x23C JUMP JUMPDEST DUP3 MSTORE POP POP JUMP JUMPDEST PUSH1 0x0 PUSH1 0x20 DUP3 ADD SWAP1 POP PUSH2 0x26C PUSH1 0x0 DUP4 ADD DUP5 PUSH2 0x248 JUMP JUMPDEST SWAP3 SWAP2 POP POP JUMP INVALID LOG2 PUSH5 0x6970667358 0x22 SLT KECCAK256 PUSH25 0x57926099BCE66B0C59CD0854776D1D6B9E429F6F0E2AA11EF2 CALLCODE DUP15 EXTCODECOPY MOD 0xEE 0x4B PUSH5 0x736F6C6343 STOP ADDMOD MULMOD STOP CALLER "
				},
				"gasEstimates": {
					"creation": {
						"codeDepositCost": "136000",
						"executionCost": "24539",
						"totalCost": "160539"
					},
					"external": {
						"hasRights(address,uint48)": "3086",
						"updateMember(address,uint48)": "24969"
					}
				},
				"methodIdentifiers": {
					"hasRights(address,uint48)": "f35f0f74",
					"updateMember(address,uint48)": "6ea25467"
				}
			},
			"storageLayout": {
				"storage": [
					{
						"astId": 991,
						"contract": "contracts/MembershipRights.sol:MembershipRights",
						"label": "members",
						"offset": 0,
						"slot": "0",
						"type": "t_mapping(t_address,t_uint48)"
					}
				],
				"types": {
					"t_address": {
						"encoding": "inplace",
						"label": "address",
						"numberOfBytes": "20"
					},
					"t_mapping(t_address,t_uint48)": {
						"encoding": "mapping",
						"key": "t_address",
						"label": "mapping(address => uint48)",
						"numberOfBytes": "32",
						"value": "t_uint48"
					},
					"t_uint48": {
						"encoding": "inplace",
						"label": "uint48",
						"numberOfBytes": "6"
					}
				}
			},
			"userdoc": {
				"kind": "user",
				"methods": {},
				"version": 1
			}
		}
	}
}