{
	"contracts/MyBond.sol": {
		"MyBond": {
			"abi": [
				{
					"inputs": [
						{
							"internalType": "address",
							"name": "_rights",
							"type": "address"
						},
						{
							"internalType": "address",
							"name": "_money",
							"type": "address"
						},
						{
							"internalType": "uint256",
							"name": "_maxSupplay",
							"type": "uint256"
						}
					],
					"stateMutability": "nonpayable",
					"type": "constructor"
				},
				{
					"anonymous": false,
					"inputs": [
						{
							"indexed": true,
							"internalType": "address",
							"name": "owner",
							"type": "address"
						},
						{
							"indexed": true,
							"internalType": "address",
							"name": "spender",
							"type": "address"
						},
						{
							"indexed": false,
							"internalType": "uint256",
							"name": "value",
							"type": "uint256"
						}
					],
					"name": "Approval",
					"type": "event"
				},
				{
					"anonymous": false,
					"inputs": [
						{
							"indexed": true,
							"internalType": "address",
							"name": "previousOwner",
							"type": "address"
						},
						{
							"indexed": true,
							"internalType": "address",
							"name": "newOwner",
							"type": "address"
						}
					],
					"name": "OwnershipTransferred",
					"type": "event"
				},
				{
					"anonymous": false,
					"inputs": [
						{
							"indexed": false,
							"internalType": "address",
							"name": "account",
							"type": "address"
						}
					],
					"name": "Paused",
					"type": "event"
				},
				{
					"anonymous": false,
					"inputs": [
						{
							"indexed": true,
							"internalType": "address",
							"name": "from",
							"type": "address"
						},
						{
							"indexed": true,
							"internalType": "address",
							"name": "to",
							"type": "address"
						},
						{
							"indexed": false,
							"internalType": "uint256",
							"name": "value",
							"type": "uint256"
						}
					],
					"name": "Transfer",
					"type": "event"
				},
				{
					"anonymous": false,
					"inputs": [
						{
							"indexed": false,
							"internalType": "address",
							"name": "account",
							"type": "address"
						}
					],
					"name": "Unpaused",
					"type": "event"
				},
				{
					"inputs": [
						{
							"internalType": "address",
							"name": "owner",
							"type": "address"
						},
						{
							"internalType": "address",
							"name": "spender",
							"type": "address"
						}
					],
					"name": "allowance",
					"outputs": [
						{
							"internalType": "uint256",
							"name": "",
							"type": "uint256"
						}
					],
					"stateMutability": "view",
					"type": "function"
				},
				{
					"inputs": [
						{
							"internalType": "address",
							"name": "spender",
							"type": "address"
						},
						{
							"internalType": "uint256",
							"name": "amount",
							"type": "uint256"
						}
					],
					"name": "approve",
					"outputs": [
						{
							"internalType": "bool",
							"name": "",
							"type": "bool"
						}
					],
					"stateMutability": "nonpayable",
					"type": "function"
				},
				{
					"inputs": [
						{
							"internalType": "address",
							"name": "account",
							"type": "address"
						}
					],
					"name": "balanceOf",
					"outputs": [
						{
							"internalType": "uint256",
							"name": "",
							"type": "uint256"
						}
					],
					"stateMutability": "view",
					"type": "function"
				},
				{
					"inputs": [
						{
							"internalType": "uint256",
							"name": "amount",
							"type": "uint256"
						}
					],
					"name": "burn",
					"outputs": [],
					"stateMutability": "nonpayable",
					"type": "function"
				},
				{
					"inputs": [
						{
							"internalType": "address",
							"name": "account",
							"type": "address"
						},
						{
							"internalType": "uint256",
							"name": "amount",
							"type": "uint256"
						}
					],
					"name": "burnFrom",
					"outputs": [],
					"stateMutability": "nonpayable",
					"type": "function"
				},
				{
					"inputs": [],
					"name": "decimals",
					"outputs": [
						{
							"internalType": "uint8",
							"name": "",
							"type": "uint8"
						}
					],
					"stateMutability": "view",
					"type": "function"
				},
				{
					"inputs": [
						{
							"internalType": "address",
							"name": "spender",
							"type": "address"
						},
						{
							"internalType": "uint256",
							"name": "subtractedValue",
							"type": "uint256"
						}
					],
					"name": "decreaseAllowance",
					"outputs": [
						{
							"internalType": "bool",
							"name": "",
							"type": "bool"
						}
					],
					"stateMutability": "nonpayable",
					"type": "function"
				},
				{
					"inputs": [
						{
							"internalType": "address",
							"name": "spender",
							"type": "address"
						},
						{
							"internalType": "uint256",
							"name": "addedValue",
							"type": "uint256"
						}
					],
					"name": "increaseAllowance",
					"outputs": [
						{
							"internalType": "bool",
							"name": "",
							"type": "bool"
						}
					],
					"stateMutability": "nonpayable",
					"type": "function"
				},
				{
					"inputs": [
						{
							"internalType": "uint256",
							"name": "amount",
							"type": "uint256"
						}
					],
					"name": "issue",
					"outputs": [],
					"stateMutability": "nonpayable",
					"type": "function"
				},
				{
					"inputs": [],
					"name": "name",
					"outputs": [
						{
							"internalType": "string",
							"name": "",
							"type": "string"
						}
					],
					"stateMutability": "view",
					"type": "function"
				},
				{
					"inputs": [],
					"name": "owner",
					"outputs": [
						{
							"internalType": "address",
							"name": "",
							"type": "address"
						}
					],
					"stateMutability": "view",
					"type": "function"
				},
				{
					"inputs": [],
					"name": "pause",
					"outputs": [],
					"stateMutability": "nonpayable",
					"type": "function"
				},
				{
					"inputs": [],
					"name": "paused",
					"outputs": [
						{
							"internalType": "bool",
							"name": "",
							"type": "bool"
						}
					],
					"stateMutability": "view",
					"type": "function"
				},
				{
					"inputs": [
						{
							"internalType": "uint256",
							"name": "amount",
							"type": "uint256"
						}
					],
					"name": "redem",
					"outputs": [],
					"stateMutability": "nonpayable",
					"type": "function"
				},
				{
					"inputs": [],
					"name": "renounceOwnership",
					"outputs": [],
					"stateMutability": "nonpayable",
					"type": "function"
				},
				{
					"inputs": [],
					"name": "symbol",
					"outputs": [
						{
							"internalType": "string",
							"name": "",
							"type": "string"
						}
					],
					"stateMutability": "view",
					"type": "function"
				},
				{
					"inputs": [],
					"name": "totalSupply",
					"outputs": [
						{
							"internalType": "uint256",
							"name": "",
							"type": "uint256"
						}
					],
					"stateMutability": "view",
					"type": "function"
				},
				{
					"inputs": [
						{
							"internalType": "address",
							"name": "to",
							"type": "address"
						},
						{
							"internalType": "uint256",
							"name": "amount",
							"type": "uint256"
						}
					],
					"name": "transfer",
					"outputs": [
						{
							"internalType": "bool",
							"name": "",
							"type": "bool"
						}
					],
					"stateMutability": "nonpayable",
					"type": "function"
				},
				{
					"inputs": [
						{
							"internalType": "address",
							"name": "from",
							"type": "address"
						},
						{
							"internalType": "address",
							"name": "to",
							"type": "address"
						},
						{
							"internalType": "uint256",
							"name": "amount",
							"type": "uint256"
						}
					],
					"name": "transferFrom",
					"outputs": [
						{
							"internalType": "bool",
							"name": "",
							"type": "bool"
						}
					],
					"stateMutability": "nonpayable",
					"type": "function"
				},
				{
					"inputs": [
						{
							"internalType": "address",
							"name": "newOwner",
							"type": "address"
						}
					],
					"name": "transferOwnership",
					"outputs": [],
					"stateMutability": "nonpayable",
					"type": "function"
				},
				{
					"inputs": [],
					"name": "unpause",
					"outputs": [],
					"stateMutability": "nonpayable",
					"type": "function"
				}
			],
			"devdoc": {
				"events": {
					"Approval(address,address,uint256)": {
						"details": "Emitted when the allowance of a `spender` for an `owner` is set by a call to {approve}. `value` is the new allowance."
					},
					"Paused(address)": {
						"details": "Emitted when the pause is triggered by `account`."
					},
					"Transfer(address,address,uint256)": {
						"details": "Emitted when `value` tokens are moved from one account (`from`) to another (`to`). Note that `value` may be zero."
					},
					"Unpaused(address)": {
						"details": "Emitted when the pause is lifted by `account`."
					}
				},
				"kind": "dev",
				"methods": {
					"allowance(address,address)": {
						"details": "See {IERC20-allowance}."
					},
					"approve(address,uint256)": {
						"details": "See {IERC20-approve}. NOTE: If `amount` is the maximum `uint256`, the allowance is not updated on `transferFrom`. This is semantically equivalent to an infinite approval. Requirements: - `spender` cannot be the zero address."
					},
					"balanceOf(address)": {
						"details": "See {IERC20-balanceOf}."
					},
					"burn(uint256)": {
						"details": "Destroys `amount` tokens from the caller. See {ERC20-_burn}."
					},
					"burnFrom(address,uint256)": {
						"details": "Destroys `amount` tokens from `account`, deducting from the caller's allowance. See {ERC20-_burn} and {ERC20-allowance}. Requirements: - the caller must have allowance for ``accounts``'s tokens of at least `amount`."
					},
					"decimals()": {
						"details": "Returns the number of decimals used to get its user representation. For example, if `decimals` equals `2`, a balance of `505` tokens should be displayed to a user as `5.05` (`505 / 10 ** 2`). Tokens usually opt for a value of 18, imitating the relationship between Ether and Wei. This is the value {ERC20} uses, unless this function is overridden; NOTE: This information is only used for _display_ purposes: it in no way affects any of the arithmetic of the contract, including {IERC20-balanceOf} and {IERC20-transfer}."
					},
					"decreaseAllowance(address,uint256)": {
						"details": "Atomically decreases the allowance granted to `spender` by the caller. This is an alternative to {approve} that can be used as a mitigation for problems described in {IERC20-approve}. Emits an {Approval} event indicating the updated allowance. Requirements: - `spender` cannot be the zero address. - `spender` must have allowance for the caller of at least `subtractedValue`."
					},
					"increaseAllowance(address,uint256)": {
						"details": "Atomically increases the allowance granted to `spender` by the caller. This is an alternative to {approve} that can be used as a mitigation for problems described in {IERC20-approve}. Emits an {Approval} event indicating the updated allowance. Requirements: - `spender` cannot be the zero address."
					},
					"name()": {
						"details": "Returns the name of the token."
					},
					"owner()": {
						"details": "Returns the address of the current owner."
					},
					"paused()": {
						"details": "Returns true if the contract is paused, and false otherwise."
					},
					"renounceOwnership()": {
						"details": "Leaves the contract without owner. It will not be possible to call `onlyOwner` functions anymore. Can only be called by the current owner. NOTE: Renouncing ownership will leave the contract without an owner, thereby removing any functionality that is only available to the owner."
					},
					"symbol()": {
						"details": "Returns the symbol of the token, usually a shorter version of the name."
					},
					"totalSupply()": {
						"details": "See {IERC20-totalSupply}."
					},
					"transfer(address,uint256)": {
						"details": "See {IERC20-transfer}. Requirements: - `to` cannot be the zero address. - the caller must have a balance of at least `amount`."
					},
					"transferFrom(address,address,uint256)": {
						"details": "See {IERC20-transferFrom}. Emits an {Approval} event indicating the updated allowance. This is not required by the EIP. See the note at the beginning of {ERC20}. NOTE: Does not update the allowance if the current allowance is the maximum `uint256`. Requirements: - `from` and `to` cannot be the zero address. - `from` must have a balance of at least `amount`. - the caller must have allowance for ``from``'s tokens of at least `amount`."
					},
					"transferOwnership(address)": {
						"details": "Transfers ownership of the contract to a new account (`newOwner`). Can only be called by the current owner."
					}
				},
				"version": 1
			},
			"evm": {
				"assembly": "    /* \"contracts/MyBond.sol\":331:2269  contract MyBond is ERC20, ERC20Burnable, Pausable, Ownable {... */\n  mstore(0x40, 0x80)\n    /* \"contracts/MyBond.sol\":491:722  constructor(address _rights, address _money, uint256 _maxSupplay) ERC20(\"Bond\", \"eBond\") {... */\n  callvalue\n  dup1\n  iszero\n  tag_1\n  jumpi\n  0x00\n  dup1\n  revert\ntag_1:\n  pop\n  mload(0x40)\n  sub(codesize, bytecodeSize)\n  dup1\n  bytecodeSize\n  dup4\n  codecopy\n  dup2\n  dup2\n  add\n  0x40\n  mstore\n  dup2\n  add\n  swap1\n  tag_2\n  swap2\n  swap1\n  tag_3\n  jump\t// in\ntag_2:\n    /* \"@openzeppelin/contracts/token/ERC20/ERC20.sol\":1976:2089  constructor(string memory name_, string memory symbol_) {... */\n  mload(0x40)\n  dup1\n  0x40\n  add\n  0x40\n  mstore\n  dup1\n  0x04\n  dup2\n  mstore\n  0x20\n  add\n  0x426f6e6400000000000000000000000000000000000000000000000000000000\n  dup2\n  mstore\n  pop\n  mload(0x40)\n  dup1\n  0x40\n  add\n  0x40\n  mstore\n  dup1\n  0x05\n  dup2\n  mstore\n  0x20\n  add\n  0x65426f6e64000000000000000000000000000000000000000000000000000000\n  dup2\n  mstore\n  pop\n    /* \"@openzeppelin/contracts/token/ERC20/ERC20.sol\":2050:2055  name_ */\n  dup2\n    /* \"@openzeppelin/contracts/token/ERC20/ERC20.sol\":2042:2047  _name */\n  0x03\n    /* \"@openzeppelin/contracts/token/ERC20/ERC20.sol\":2042:2055  _name = name_ */\n  swap1\n  dup2\n  tag_9\n  swap2\n  swap1\n  tag_10\n  jump\t// in\ntag_9:\n  pop\n    /* \"@openzeppelin/contracts/token/ERC20/ERC20.sol\":2075:2082  symbol_ */\n  dup1\n    /* \"@openzeppelin/contracts/token/ERC20/ERC20.sol\":2065:2072  _symbol */\n  0x04\n    /* \"@openzeppelin/contracts/token/ERC20/ERC20.sol\":2065:2082  _symbol = symbol_ */\n  swap1\n  dup2\n  tag_11\n  swap2\n  swap1\n  tag_10\n  jump\t// in\ntag_11:\n  pop\n    /* \"@openzeppelin/contracts/token/ERC20/ERC20.sol\":1976:2089  constructor(string memory name_, string memory symbol_) {... */\n  pop\n  pop\n    /* \"@openzeppelin/contracts/security/Pausable.sol\":1006:1011  false */\n  0x00\n    /* \"@openzeppelin/contracts/security/Pausable.sol\":996:1003  _paused */\n  0x05\n  0x00\n    /* \"@openzeppelin/contracts/security/Pausable.sol\":996:1011  _paused = false */\n  0x0100\n  exp\n  dup2\n  sload\n  dup2\n  0xff\n  mul\n  not\n  and\n  swap1\n  dup4\n  iszero\n  iszero\n  mul\n  or\n  swap1\n  sstore\n  pop\n    /* \"@openzeppelin/contracts/access/Ownable.sol\":936:968  _transferOwnership(_msgSender()) */\n  tag_14\n    /* \"@openzeppelin/contracts/access/Ownable.sol\":955:967  _msgSender() */\n  tag_15\n    /* \"@openzeppelin/contracts/access/Ownable.sol\":955:965  _msgSender */\n  shl(0x20, tag_16)\n    /* \"@openzeppelin/contracts/access/Ownable.sol\":955:967  _msgSender() */\n  0x20\n  shr\n  jump\t// in\ntag_15:\n    /* \"@openzeppelin/contracts/access/Ownable.sol\":936:954  _transferOwnership */\n  shl(0x20, tag_17)\n    /* \"@openzeppelin/contracts/access/Ownable.sol\":936:968  _transferOwnership(_msgSender()) */\n  0x20\n  shr\n  jump\t// in\ntag_14:\n    /* \"contracts/MyBond.sol\":616:623  _rights */\n  dup3\n    /* \"contracts/MyBond.sol\":590:596  rights */\n  0x06\n  0x00\n    /* \"contracts/MyBond.sol\":590:624  rights = MembershipRights(_rights) */\n  0x0100\n  exp\n  dup2\n  sload\n  dup2\n  0xffffffffffffffffffffffffffffffffffffffff\n  mul\n  not\n  and\n  swap1\n  dup4\n  0xffffffffffffffffffffffffffffffffffffffff\n  and\n  mul\n  or\n  swap1\n  sstore\n  pop\n    /* \"contracts/MyBond.sol\":648:654  _money */\n  dup2\n    /* \"contracts/MyBond.sol\":634:639  money */\n  0x07\n  0x00\n    /* \"contracts/MyBond.sol\":634:655  money = ERC20(_money) */\n  0x0100\n  exp\n  dup2\n  sload\n  dup2\n  0xffffffffffffffffffffffffffffffffffffffff\n  mul\n  not\n  and\n  swap1\n  dup4\n  0xffffffffffffffffffffffffffffffffffffffff\n  and\n  mul\n  or\n  swap1\n  sstore\n  pop\n    /* \"contracts/MyBond.sol\":678:689  _maxSupplay */\n  dup1\n    /* \"contracts/MyBond.sol\":665:675  maxSupplay */\n  0x08\n    /* \"contracts/MyBond.sol\":665:689  maxSupplay = _maxSupplay */\n  dup2\n  swap1\n  sstore\n  pop\n    /* \"contracts/MyBond.sol\":712:715  100 */\n  0x64\n    /* \"contracts/MyBond.sol\":699:709  multiplier */\n  0x09\n    /* \"contracts/MyBond.sol\":699:715  multiplier = 100 */\n  dup2\n  swap1\n  sstore\n  pop\n    /* \"contracts/MyBond.sol\":491:722  constructor(address _rights, address _money, uint256 _maxSupplay) ERC20(\"Bond\", \"eBond\") {... */\n  pop\n  pop\n  pop\n    /* \"contracts/MyBond.sol\":331:2269  contract MyBond is ERC20, ERC20Burnable, Pausable, Ownable {... */\n  jump(tag_19)\n    /* \"@openzeppelin/contracts/utils/Context.sol\":640:736  function _msgSender() internal view virtual returns (address) {... */\ntag_16:\n    /* \"@openzeppelin/contracts/utils/Context.sol\":693:700  address */\n  0x00\n    /* \"@openzeppelin/contracts/utils/Context.sol\":719:729  msg.sender */\n  caller\n    /* \"@openzeppelin/contracts/utils/Context.sol\":712:729  return msg.sender */\n  swap1\n  pop\n    /* \"@openzeppelin/contracts/utils/Context.sol\":640:736  function _msgSender() internal view virtual returns (address) {... */\n  swap1\n  jump\t// out\n    /* \"@openzeppelin/contracts/access/Ownable.sol\":2433:2620  function _transferOwnership(address newOwner) internal virtual {... */\ntag_17:\n    /* \"@openzeppelin/contracts/access/Ownable.sol\":2506:2522  address oldOwner */\n  0x00\n    /* \"@openzeppelin/contracts/access/Ownable.sol\":2525:2531  _owner */\n  0x05\n  0x01\n  swap1\n  sload\n  swap1\n  0x0100\n  exp\n  swap1\n  div\n  0xffffffffffffffffffffffffffffffffffffffff\n  and\n    /* \"@openzeppelin/contracts/access/Ownable.sol\":2506:2531  address oldOwner = _owner */\n  swap1\n  pop\n    /* \"@openzeppelin/contracts/access/Ownable.sol\":2550:2558  newOwner */\n  dup2\n    /* \"@openzeppelin/contracts/access/Ownable.sol\":2541:2547  _owner */\n  0x05\n  0x01\n    /* \"@openzeppelin/contracts/access/Ownable.sol\":2541:2558  _owner = newOwner */\n  0x0100\n  exp\n  dup2\n  sload\n  dup2\n  0xffffffffffffffffffffffffffffffffffffffff\n  mul\n  not\n  and\n  swap1\n  dup4\n  0xffffffffffffffffffffffffffffffffffffffff\n  and\n  mul\n  or\n  swap1\n  sstore\n  pop\n    /* \"@openzeppelin/contracts/access/Ownable.sol\":2604:2612  newOwner */\n  dup2\n    /* \"@openzeppelin/contracts/access/Ownable.sol\":2573:2613  OwnershipTransferred(oldOwner, newOwner) */\n  0xffffffffffffffffffffffffffffffffffffffff\n  and\n    /* \"@openzeppelin/contracts/access/Ownable.sol\":2594:2602  oldOwner */\n  dup2\n    /* \"@openzeppelin/contracts/access/Ownable.sol\":2573:2613  OwnershipTransferred(oldOwner, newOwner) */\n  0xffffffffffffffffffffffffffffffffffffffff\n  and\n  0x8be0079c531659141344cd1fd0a4f28419497f9722a3daafe3b4186f6b6457e0\n  mload(0x40)\n  mload(0x40)\n  dup1\n  swap2\n  sub\n  swap1\n  log3\n    /* \"@openzeppelin/contracts/access/Ownable.sol\":2496:2620  {... */\n  pop\n    /* \"@openzeppelin/contracts/access/Ownable.sol\":2433:2620  function _transferOwnership(address newOwner) internal virtual {... */\n  pop\n  jump\t// out\n    /* \"#utility.yul\":88:205   */\ntag_23:\n    /* \"#utility.yul\":197:198   */\n  0x00\n    /* \"#utility.yul\":194:195   */\n  dup1\n    /* \"#utility.yul\":187:199   */\n  revert\n    /* \"#utility.yul\":334:460   */\ntag_25:\n    /* \"#utility.yul\":371:378   */\n  0x00\n    /* \"#utility.yul\":411:453   */\n  0xffffffffffffffffffffffffffffffffffffffff\n    /* \"#utility.yul\":404:409   */\n  dup3\n    /* \"#utility.yul\":400:454   */\n  and\n    /* \"#utility.yul\":389:454   */\n  swap1\n  pop\n    /* \"#utility.yul\":334:460   */\n  swap2\n  swap1\n  pop\n  jump\t// out\n    /* \"#utility.yul\":466:562   */\ntag_26:\n    /* \"#utility.yul\":503:510   */\n  0x00\n    /* \"#utility.yul\":532:556   */\n  tag_57\n    /* \"#utility.yul\":550:555   */\n  dup3\n    /* \"#utility.yul\":532:556   */\n  tag_25\n  jump\t// in\ntag_57:\n    /* \"#utility.yul\":521:556   */\n  swap1\n  pop\n    /* \"#utility.yul\":466:562   */\n  swap2\n  swap1\n  pop\n  jump\t// out\n    /* \"#utility.yul\":568:690   */\ntag_27:\n    /* \"#utility.yul\":641:665   */\n  tag_59\n    /* \"#utility.yul\":659:664   */\n  dup2\n    /* \"#utility.yul\":641:665   */\n  tag_26\n  jump\t// in\ntag_59:\n    /* \"#utility.yul\":634:639   */\n  dup2\n    /* \"#utility.yul\":631:666   */\n  eq\n    /* \"#utility.yul\":621:684   */\n  tag_60\n  jumpi\n    /* \"#utility.yul\":680:681   */\n  0x00\n    /* \"#utility.yul\":677:678   */\n  dup1\n    /* \"#utility.yul\":670:682   */\n  revert\n    /* \"#utility.yul\":621:684   */\ntag_60:\n    /* \"#utility.yul\":568:690   */\n  pop\n  jump\t// out\n    /* \"#utility.yul\":696:839   */\ntag_28:\n    /* \"#utility.yul\":753:758   */\n  0x00\n    /* \"#utility.yul\":784:790   */\n  dup2\n    /* \"#utility.yul\":778:791   */\n  mload\n    /* \"#utility.yul\":769:791   */\n  swap1\n  pop\n    /* \"#utility.yul\":800:833   */\n  tag_62\n    /* \"#utility.yul\":827:832   */\n  dup2\n    /* \"#utility.yul\":800:833   */\n  tag_27\n  jump\t// in\ntag_62:\n    /* \"#utility.yul\":696:839   */\n  swap3\n  swap2\n  pop\n  pop\n  jump\t// out\n    /* \"#utility.yul\":845:922   */\ntag_29:\n    /* \"#utility.yul\":882:889   */\n  0x00\n    /* \"#utility.yul\":911:916   */\n  dup2\n    /* \"#utility.yul\":900:916   */\n  swap1\n  pop\n    /* \"#utility.yul\":845:922   */\n  swap2\n  swap1\n  pop\n  jump\t// out\n    /* \"#utility.yul\":928:1050   */\ntag_30:\n    /* \"#utility.yul\":1001:1025   */\n  tag_65\n    /* \"#utility.yul\":1019:1024   */\n  dup2\n    /* \"#utility.yul\":1001:1025   */\n  tag_29\n  jump\t// in\ntag_65:\n    /* \"#utility.yul\":994:999   */\n  dup2\n    /* \"#utility.yul\":991:1026   */\n  eq\n    /* \"#utility.yul\":981:1044   */\n  tag_66\n  jumpi\n    /* \"#utility.yul\":1040:1041   */\n  0x00\n    /* \"#utility.yul\":1037:1038   */\n  dup1\n    /* \"#utility.yul\":1030:1042   */\n  revert\n    /* \"#utility.yul\":981:1044   */\ntag_66:\n    /* \"#utility.yul\":928:1050   */\n  pop\n  jump\t// out\n    /* \"#utility.yul\":1056:1199   */\ntag_31:\n    /* \"#utility.yul\":1113:1118   */\n  0x00\n    /* \"#utility.yul\":1144:1150   */\n  dup2\n    /* \"#utility.yul\":1138:1151   */\n  mload\n    /* \"#utility.yul\":1129:1151   */\n  swap1\n  pop\n    /* \"#utility.yul\":1160:1193   */\n  tag_68\n    /* \"#utility.yul\":1187:1192   */\n  dup2\n    /* \"#utility.yul\":1160:1193   */\n  tag_30\n  jump\t// in\ntag_68:\n    /* \"#utility.yul\":1056:1199   */\n  swap3\n  swap2\n  pop\n  pop\n  jump\t// out\n    /* \"#utility.yul\":1205:1868   */\ntag_3:\n    /* \"#utility.yul\":1293:1299   */\n  0x00\n    /* \"#utility.yul\":1301:1307   */\n  dup1\n    /* \"#utility.yul\":1309:1315   */\n  0x00\n    /* \"#utility.yul\":1358:1360   */\n  0x60\n    /* \"#utility.yul\":1346:1355   */\n  dup5\n    /* \"#utility.yul\":1337:1344   */\n  dup7\n    /* \"#utility.yul\":1333:1356   */\n  sub\n    /* \"#utility.yul\":1329:1361   */\n  slt\n    /* \"#utility.yul\":1326:1445   */\n  iszero\n  tag_70\n  jumpi\n    /* \"#utility.yul\":1364:1443   */\n  tag_71\n  tag_23\n  jump\t// in\ntag_71:\n    /* \"#utility.yul\":1326:1445   */\ntag_70:\n    /* \"#utility.yul\":1484:1485   */\n  0x00\n    /* \"#utility.yul\":1509:1573   */\n  tag_72\n    /* \"#utility.yul\":1565:1572   */\n  dup7\n    /* \"#utility.yul\":1556:1562   */\n  dup3\n    /* \"#utility.yul\":1545:1554   */\n  dup8\n    /* \"#utility.yul\":1541:1563   */\n  add\n    /* \"#utility.yul\":1509:1573   */\n  tag_28\n  jump\t// in\ntag_72:\n    /* \"#utility.yul\":1499:1573   */\n  swap4\n  pop\n    /* \"#utility.yul\":1455:1583   */\n  pop\n    /* \"#utility.yul\":1622:1624   */\n  0x20\n    /* \"#utility.yul\":1648:1712   */\n  tag_73\n    /* \"#utility.yul\":1704:1711   */\n  dup7\n    /* \"#utility.yul\":1695:1701   */\n  dup3\n    /* \"#utility.yul\":1684:1693   */\n  dup8\n    /* \"#utility.yul\":1680:1702   */\n  add\n    /* \"#utility.yul\":1648:1712   */\n  tag_28\n  jump\t// in\ntag_73:\n    /* \"#utility.yul\":1638:1712   */\n  swap3\n  pop\n    /* \"#utility.yul\":1593:1722   */\n  pop\n    /* \"#utility.yul\":1761:1763   */\n  0x40\n    /* \"#utility.yul\":1787:1851   */\n  tag_74\n    /* \"#utility.yul\":1843:1850   */\n  dup7\n    /* \"#utility.yul\":1834:1840   */\n  dup3\n    /* \"#utility.yul\":1823:1832   */\n  dup8\n    /* \"#utility.yul\":1819:1841   */\n  add\n    /* \"#utility.yul\":1787:1851   */\n  tag_31\n  jump\t// in\ntag_74:\n    /* \"#utility.yul\":1777:1851   */\n  swap2\n  pop\n    /* \"#utility.yul\":1732:1861   */\n  pop\n    /* \"#utility.yul\":1205:1868   */\n  swap3\n  pop\n  swap3\n  pop\n  swap3\n  jump\t// out\n    /* \"#utility.yul\":1874:1973   */\ntag_32:\n    /* \"#utility.yul\":1926:1932   */\n  0x00\n    /* \"#utility.yul\":1960:1965   */\n  dup2\n    /* \"#utility.yul\":1954:1966   */\n  mload\n    /* \"#utility.yul\":1944:1966   */\n  swap1\n  pop\n    /* \"#utility.yul\":1874:1973   */\n  swap2\n  swap1\n  pop\n  jump\t// out\n    /* \"#utility.yul\":1979:2159   */\ntag_33:\n    /* \"#utility.yul\":2027:2104   */\n  0x4e487b7100000000000000000000000000000000000000000000000000000000\n    /* \"#utility.yul\":2024:2025   */\n  0x00\n    /* \"#utility.yul\":2017:2105   */\n  mstore\n    /* \"#utility.yul\":2124:2128   */\n  0x41\n    /* \"#utility.yul\":2121:2122   */\n  0x04\n    /* \"#utility.yul\":2114:2129   */\n  mstore\n    /* \"#utility.yul\":2148:2152   */\n  0x24\n    /* \"#utility.yul\":2145:2146   */\n  0x00\n    /* \"#utility.yul\":2138:2153   */\n  revert\n    /* \"#utility.yul\":2165:2345   */\ntag_34:\n    /* \"#utility.yul\":2213:2290   */\n  0x4e487b7100000000000000000000000000000000000000000000000000000000\n    /* \"#utility.yul\":2210:2211   */\n  0x00\n    /* \"#utility.yul\":2203:2291   */\n  mstore\n    /* \"#utility.yul\":2310:2314   */\n  0x22\n    /* \"#utility.yul\":2307:2308   */\n  0x04\n    /* \"#utility.yul\":2300:2315   */\n  mstore\n    /* \"#utility.yul\":2334:2338   */\n  0x24\n    /* \"#utility.yul\":2331:2332   */\n  0x00\n    /* \"#utility.yul\":2324:2339   */\n  revert\n    /* \"#utility.yul\":2351:2671   */\ntag_35:\n    /* \"#utility.yul\":2395:2401   */\n  0x00\n    /* \"#utility.yul\":2432:2433   */\n  0x02\n    /* \"#utility.yul\":2426:2430   */\n  dup3\n    /* \"#utility.yul\":2422:2434   */\n  div\n    /* \"#utility.yul\":2412:2434   */\n  swap1\n  pop\n    /* \"#utility.yul\":2479:2480   */\n  0x01\n    /* \"#utility.yul\":2473:2477   */\n  dup3\n    /* \"#utility.yul\":2469:2481   */\n  and\n    /* \"#utility.yul\":2500:2518   */\n  dup1\n    /* \"#utility.yul\":2490:2571   */\n  tag_79\n  jumpi\n    /* \"#utility.yul\":2556:2560   */\n  0x7f\n    /* \"#utility.yul\":2548:2554   */\n  dup3\n    /* \"#utility.yul\":2544:2561   */\n  and\n    /* \"#utility.yul\":2534:2561   */\n  swap2\n  pop\n    /* \"#utility.yul\":2490:2571   */\ntag_79:\n    /* \"#utility.yul\":2618:2620   */\n  0x20\n    /* \"#utility.yul\":2610:2616   */\n  dup3\n    /* \"#utility.yul\":2607:2621   */\n  lt\n    /* \"#utility.yul\":2587:2605   */\n  dup2\n    /* \"#utility.yul\":2584:2622   */\n  sub\n    /* \"#utility.yul\":2581:2665   */\n  tag_80\n  jumpi\n    /* \"#utility.yul\":2637:2655   */\n  tag_81\n  tag_34\n  jump\t// in\ntag_81:\n    /* \"#utility.yul\":2581:2665   */\ntag_80:\n    /* \"#utility.yul\":2402:2671   */\n  pop\n    /* \"#utility.yul\":2351:2671   */\n  swap2\n  swap1\n  pop\n  jump\t// out\n    /* \"#utility.yul\":2677:2818   */\ntag_36:\n    /* \"#utility.yul\":2726:2730   */\n  0x00\n    /* \"#utility.yul\":2749:2752   */\n  dup2\n    /* \"#utility.yul\":2741:2752   */\n  swap1\n  pop\n    /* \"#utility.yul\":2772:2775   */\n  dup2\n    /* \"#utility.yul\":2769:2770   */\n  0x00\n    /* \"#utility.yul\":2762:2776   */\n  mstore\n    /* \"#utility.yul\":2806:2810   */\n  0x20\n    /* \"#utility.yul\":2803:2804   */\n  0x00\n    /* \"#utility.yul\":2793:2811   */\n  keccak256\n    /* \"#utility.yul\":2785:2811   */\n  swap1\n  pop\n    /* \"#utility.yul\":2677:2818   */\n  swap2\n  swap1\n  pop\n  jump\t// out\n    /* \"#utility.yul\":2824:2917   */\ntag_37:\n    /* \"#utility.yul\":2861:2867   */\n  0x00\n    /* \"#utility.yul\":2908:2910   */\n  0x20\n    /* \"#utility.yul\":2903:2905   */\n  0x1f\n    /* \"#utility.yul\":2896:2901   */\n  dup4\n    /* \"#utility.yul\":2892:2906   */\n  add\n    /* \"#utility.yul\":2888:2911   */\n  div\n    /* \"#utility.yul\":2878:2911   */\n  swap1\n  pop\n    /* \"#utility.yul\":2824:2917   */\n  swap2\n  swap1\n  pop\n  jump\t// out\n    /* \"#utility.yul\":2923:3030   */\ntag_38:\n    /* \"#utility.yul\":2967:2975   */\n  0x00\n    /* \"#utility.yul\":3017:3022   */\n  dup3\n    /* \"#utility.yul\":3011:3015   */\n  dup3\n    /* \"#utility.yul\":3007:3023   */\n  shl\n    /* \"#utility.yul\":2986:3023   */\n  swap1\n  pop\n    /* \"#utility.yul\":2923:3030   */\n  swap3\n  swap2\n  pop\n  pop\n  jump\t// out\n    /* \"#utility.yul\":3036:3429   */\ntag_39:\n    /* \"#utility.yul\":3105:3111   */\n  0x00\n    /* \"#utility.yul\":3155:3156   */\n  0x08\n    /* \"#utility.yul\":3143:3153   */\n  dup4\n    /* \"#utility.yul\":3139:3157   */\n  mul\n    /* \"#utility.yul\":3178:3275   */\n  tag_86\n    /* \"#utility.yul\":3208:3274   */\n  0xffffffffffffffffffffffffffffffffffffffffffffffffffffffffffffffff\n    /* \"#utility.yul\":3197:3206   */\n  dup3\n    /* \"#utility.yul\":3178:3275   */\n  tag_38\n  jump\t// in\ntag_86:\n    /* \"#utility.yul\":3296:3335   */\n  tag_87\n    /* \"#utility.yul\":3326:3334   */\n  dup7\n    /* \"#utility.yul\":3315:3324   */\n  dup4\n    /* \"#utility.yul\":3296:3335   */\n  tag_38\n  jump\t// in\ntag_87:\n    /* \"#utility.yul\":3284:3335   */\n  swap6\n  pop\n    /* \"#utility.yul\":3368:3372   */\n  dup1\n    /* \"#utility.yul\":3364:3373   */\n  not\n    /* \"#utility.yul\":3357:3362   */\n  dup5\n    /* \"#utility.yul\":3353:3374   */\n  and\n    /* \"#utility.yul\":3344:3374   */\n  swap4\n  pop\n    /* \"#utility.yul\":3417:3421   */\n  dup1\n    /* \"#utility.yul\":3407:3415   */\n  dup7\n    /* \"#utility.yul\":3403:3422   */\n  and\n    /* \"#utility.yul\":3396:3401   */\n  dup5\n    /* \"#utility.yul\":3393:3423   */\n  or\n    /* \"#utility.yul\":3383:3423   */\n  swap3\n  pop\n    /* \"#utility.yul\":3112:3429   */\n  pop\n  pop\n    /* \"#utility.yul\":3036:3429   */\n  swap4\n  swap3\n  pop\n  pop\n  pop\n  jump\t// out\n    /* \"#utility.yul\":3435:3495   */\ntag_40:\n    /* \"#utility.yul\":3463:3466   */\n  0x00\n    /* \"#utility.yul\":3484:3489   */\n  dup2\n    /* \"#utility.yul\":3477:3489   */\n  swap1\n  pop\n    /* \"#utility.yul\":3435:3495   */\n  swap2\n  swap1\n  pop\n  jump\t// out\n    /* \"#utility.yul\":3501:3643   */\ntag_41:\n    /* \"#utility.yul\":3551:3560   */\n  0x00\n    /* \"#utility.yul\":3584:3637   */\n  tag_90\n    /* \"#utility.yul\":3602:3636   */\n  tag_91\n    /* \"#utility.yul\":3611:3635   */\n  tag_92\n    /* \"#utility.yul\":3629:3634   */\n  dup5\n    /* \"#utility.yul\":3611:3635   */\n  tag_29\n  jump\t// in\ntag_92:\n    /* \"#utility.yul\":3602:3636   */\n  tag_40\n  jump\t// in\ntag_91:\n    /* \"#utility.yul\":3584:3637   */\n  tag_29\n  jump\t// in\ntag_90:\n    /* \"#utility.yul\":3571:3637   */\n  swap1\n  pop\n    /* \"#utility.yul\":3501:3643   */\n  swap2\n  swap1\n  pop\n  jump\t// out\n    /* \"#utility.yul\":3649:3724   */\ntag_42:\n    /* \"#utility.yul\":3692:3695   */\n  0x00\n    /* \"#utility.yul\":3713:3718   */\n  dup2\n    /* \"#utility.yul\":3706:3718   */\n  swap1\n  pop\n    /* \"#utility.yul\":3649:3724   */\n  swap2\n  swap1\n  pop\n  jump\t// out\n    /* \"#utility.yul\":3730:3999   */\ntag_43:\n    /* \"#utility.yul\":3840:3879   */\n  tag_95\n    /* \"#utility.yul\":3871:3878   */\n  dup4\n    /* \"#utility.yul\":3840:3879   */\n  tag_41\n  jump\t// in\ntag_95:\n    /* \"#utility.yul\":3901:3992   */\n  tag_96\n    /* \"#utility.yul\":3950:3991   */\n  tag_97\n    /* \"#utility.yul\":3974:3990   */\n  dup3\n    /* \"#utility.yul\":3950:3991   */\n  tag_42\n  jump\t// in\ntag_97:\n    /* \"#utility.yul\":3942:3948   */\n  dup5\n    /* \"#utility.yul\":3935:3939   */\n  dup5\n    /* \"#utility.yul\":3929:3940   */\n  sload\n    /* \"#utility.yul\":3901:3992   */\n  tag_39\n  jump\t// in\ntag_96:\n    /* \"#utility.yul\":3895:3899   */\n  dup3\n    /* \"#utility.yul\":3888:3993   */\n  sstore\n    /* \"#utility.yul\":3806:3999   */\n  pop\n    /* \"#utility.yul\":3730:3999   */\n  pop\n  pop\n  pop\n  jump\t// out\n    /* \"#utility.yul\":4005:4078   */\ntag_44:\n    /* \"#utility.yul\":4050:4053   */\n  0x00\n    /* \"#utility.yul\":4005:4078   */\n  swap1\n  jump\t// out\n    /* \"#utility.yul\":4084:4273   */\ntag_45:\n    /* \"#utility.yul\":4161:4193   */\n  tag_100\n  tag_44\n  jump\t// in\ntag_100:\n    /* \"#utility.yul\":4202:4267   */\n  tag_101\n    /* \"#utility.yul\":4260:4266   */\n  dup2\n    /* \"#utility.yul\":4252:4258   */\n  dup5\n    /* \"#utility.yul\":4246:4250   */\n  dup5\n    /* \"#utility.yul\":4202:4267   */\n  tag_43\n  jump\t// in\ntag_101:\n    /* \"#utility.yul\":4137:4273   */\n  pop\n    /* \"#utility.yul\":4084:4273   */\n  pop\n  pop\n  jump\t// out\n    /* \"#utility.yul\":4279:4465   */\ntag_46:\n    /* \"#utility.yul\":4339:4459   */\ntag_103:\n    /* \"#utility.yul\":4356:4359   */\n  dup2\n    /* \"#utility.yul\":4349:4354   */\n  dup2\n    /* \"#utility.yul\":4346:4360   */\n  lt\n    /* \"#utility.yul\":4339:4459   */\n  iszero\n  tag_105\n  jumpi\n    /* \"#utility.yul\":4410:4449   */\n  tag_106\n    /* \"#utility.yul\":4447:4448   */\n  0x00\n    /* \"#utility.yul\":4440:4445   */\n  dup3\n    /* \"#utility.yul\":4410:4449   */\n  tag_45\n  jump\t// in\ntag_106:\n    /* \"#utility.yul\":4383:4384   */\n  0x01\n    /* \"#utility.yul\":4376:4381   */\n  dup2\n    /* \"#utility.yul\":4372:4385   */\n  add\n    /* \"#utility.yul\":4363:4385   */\n  swap1\n  pop\n    /* \"#utility.yul\":4339:4459   */\n  jump(tag_103)\ntag_105:\n    /* \"#utility.yul\":4279:4465   */\n  pop\n  pop\n  jump\t// out\n    /* \"#utility.yul\":4471:5014   */\ntag_47:\n    /* \"#utility.yul\":4572:4574   */\n  0x1f\n    /* \"#utility.yul\":4567:4570   */\n  dup3\n    /* \"#utility.yul\":4564:4575   */\n  gt\n    /* \"#utility.yul\":4561:5007   */\n  iszero\n  tag_108\n  jumpi\n    /* \"#utility.yul\":4606:4644   */\n  tag_109\n    /* \"#utility.yul\":4638:4643   */\n  dup2\n    /* \"#utility.yul\":4606:4644   */\n  tag_36\n  jump\t// in\ntag_109:\n    /* \"#utility.yul\":4690:4719   */\n  tag_110\n    /* \"#utility.yul\":4708:4718   */\n  dup5\n    /* \"#utility.yul\":4690:4719   */\n  tag_37\n  jump\t// in\ntag_110:\n    /* \"#utility.yul\":4680:4688   */\n  dup2\n    /* \"#utility.yul\":4676:4720   */\n  add\n    /* \"#utility.yul\":4873:4875   */\n  0x20\n    /* \"#utility.yul\":4861:4871   */\n  dup6\n    /* \"#utility.yul\":4858:4876   */\n  lt\n    /* \"#utility.yul\":4855:4904   */\n  iszero\n  tag_111\n  jumpi\n    /* \"#utility.yul\":4894:4902   */\n  dup2\n    /* \"#utility.yul\":4879:4902   */\n  swap1\n  pop\n    /* \"#utility.yul\":4855:4904   */\ntag_111:\n    /* \"#utility.yul\":4917:4997   */\n  tag_112\n    /* \"#utility.yul\":4973:4995   */\n  tag_113\n    /* \"#utility.yul\":4991:4994   */\n  dup6\n    /* \"#utility.yul\":4973:4995   */\n  tag_37\n  jump\t// in\ntag_113:\n    /* \"#utility.yul\":4963:4971   */\n  dup4\n    /* \"#utility.yul\":4959:4996   */\n  add\n    /* \"#utility.yul\":4946:4957   */\n  dup3\n    /* \"#utility.yul\":4917:4997   */\n  tag_46\n  jump\t// in\ntag_112:\n    /* \"#utility.yul\":4576:5007   */\n  pop\n  pop\n    /* \"#utility.yul\":4561:5007   */\ntag_108:\n    /* \"#utility.yul\":4471:5014   */\n  pop\n  pop\n  pop\n  jump\t// out\n    /* \"#utility.yul\":5020:5137   */\ntag_48:\n    /* \"#utility.yul\":5074:5082   */\n  0x00\n    /* \"#utility.yul\":5124:5129   */\n  dup3\n    /* \"#utility.yul\":5118:5122   */\n  dup3\n    /* \"#utility.yul\":5114:5130   */\n  shr\n    /* \"#utility.yul\":5093:5130   */\n  swap1\n  pop\n    /* \"#utility.yul\":5020:5137   */\n  swap3\n  swap2\n  pop\n  pop\n  jump\t// out\n    /* \"#utility.yul\":5143:5312   */\ntag_49:\n    /* \"#utility.yul\":5187:5193   */\n  0x00\n    /* \"#utility.yul\":5220:5271   */\n  tag_116\n    /* \"#utility.yul\":5268:5269   */\n  0x00\n    /* \"#utility.yul\":5264:5270   */\n  not\n    /* \"#utility.yul\":5256:5261   */\n  dup5\n    /* \"#utility.yul\":5253:5254   */\n  0x08\n    /* \"#utility.yul\":5249:5262   */\n  mul\n    /* \"#utility.yul\":5220:5271   */\n  tag_48\n  jump\t// in\ntag_116:\n    /* \"#utility.yul\":5216:5272   */\n  not\n    /* \"#utility.yul\":5301:5305   */\n  dup1\n    /* \"#utility.yul\":5295:5299   */\n  dup4\n    /* \"#utility.yul\":5291:5306   */\n  and\n    /* \"#utility.yul\":5281:5306   */\n  swap2\n  pop\n    /* \"#utility.yul\":5194:5312   */\n  pop\n    /* \"#utility.yul\":5143:5312   */\n  swap3\n  swap2\n  pop\n  pop\n  jump\t// out\n    /* \"#utility.yul\":5317:5612   */\ntag_50:\n    /* \"#utility.yul\":5393:5397   */\n  0x00\n    /* \"#utility.yul\":5539:5568   */\n  tag_118\n    /* \"#utility.yul\":5564:5567   */\n  dup4\n    /* \"#utility.yul\":5558:5562   */\n  dup4\n    /* \"#utility.yul\":5539:5568   */\n  tag_49\n  jump\t// in\ntag_118:\n    /* \"#utility.yul\":5531:5568   */\n  swap2\n  pop\n    /* \"#utility.yul\":5601:5604   */\n  dup3\n    /* \"#utility.yul\":5598:5599   */\n  0x02\n    /* \"#utility.yul\":5594:5605   */\n  mul\n    /* \"#utility.yul\":5588:5592   */\n  dup3\n    /* \"#utility.yul\":5585:5606   */\n  or\n    /* \"#utility.yul\":5577:5606   */\n  swap1\n  pop\n    /* \"#utility.yul\":5317:5612   */\n  swap3\n  swap2\n  pop\n  pop\n  jump\t// out\n    /* \"#utility.yul\":5617:7012   */\ntag_10:\n    /* \"#utility.yul\":5734:5771   */\n  tag_120\n    /* \"#utility.yul\":5767:5770   */\n  dup3\n    /* \"#utility.yul\":5734:5771   */\n  tag_32\n  jump\t// in\ntag_120:\n    /* \"#utility.yul\":5836:5854   */\n  0xffffffffffffffff\n    /* \"#utility.yul\":5828:5834   */\n  dup2\n    /* \"#utility.yul\":5825:5855   */\n  gt\n    /* \"#utility.yul\":5822:5878   */\n  iszero\n  tag_121\n  jumpi\n    /* \"#utility.yul\":5858:5876   */\n  tag_122\n  tag_33\n  jump\t// in\ntag_122:\n    /* \"#utility.yul\":5822:5878   */\ntag_121:\n    /* \"#utility.yul\":5902:5940   */\n  tag_123\n    /* \"#utility.yul\":5934:5938   */\n  dup3\n    /* \"#utility.yul\":5928:5939   */\n  sload\n    /* \"#utility.yul\":5902:5940   */\n  tag_35\n  jump\t// in\ntag_123:\n    /* \"#utility.yul\":5987:6054   */\n  tag_124\n    /* \"#utility.yul\":6047:6053   */\n  dup3\n    /* \"#utility.yul\":6039:6045   */\n  dup3\n    /* \"#utility.yul\":6033:6037   */\n  dup6\n    /* \"#utility.yul\":5987:6054   */\n  tag_47\n  jump\t// in\ntag_124:\n    /* \"#utility.yul\":6081:6082   */\n  0x00\n    /* \"#utility.yul\":6105:6109   */\n  0x20\n    /* \"#utility.yul\":6092:6109   */\n  swap1\n  pop\n    /* \"#utility.yul\":6137:6139   */\n  0x1f\n    /* \"#utility.yul\":6129:6135   */\n  dup4\n    /* \"#utility.yul\":6126:6140   */\n  gt\n    /* \"#utility.yul\":6154:6155   */\n  0x01\n    /* \"#utility.yul\":6149:6767   */\n  dup2\n  eq\n  tag_126\n  jumpi\n    /* \"#utility.yul\":6811:6812   */\n  0x00\n    /* \"#utility.yul\":6828:6834   */\n  dup5\n    /* \"#utility.yul\":6825:6902   */\n  iszero\n  tag_127\n  jumpi\n    /* \"#utility.yul\":6877:6886   */\n  dup3\n    /* \"#utility.yul\":6872:6875   */\n  dup8\n    /* \"#utility.yul\":6868:6887   */\n  add\n    /* \"#utility.yul\":6862:6888   */\n  mload\n    /* \"#utility.yul\":6853:6888   */\n  swap1\n  pop\n    /* \"#utility.yul\":6825:6902   */\ntag_127:\n    /* \"#utility.yul\":6928:6995   */\n  tag_128\n    /* \"#utility.yul\":6988:6994   */\n  dup6\n    /* \"#utility.yul\":6981:6986   */\n  dup3\n    /* \"#utility.yul\":6928:6995   */\n  tag_50\n  jump\t// in\ntag_128:\n    /* \"#utility.yul\":6922:6926   */\n  dup7\n    /* \"#utility.yul\":6915:6996   */\n  sstore\n    /* \"#utility.yul\":6784:7006   */\n  pop\n    /* \"#utility.yul\":6119:7006   */\n  jump(tag_125)\n    /* \"#utility.yul\":6149:6767   */\ntag_126:\n    /* \"#utility.yul\":6201:6205   */\n  0x1f\n    /* \"#utility.yul\":6197:6206   */\n  not\n    /* \"#utility.yul\":6189:6195   */\n  dup5\n    /* \"#utility.yul\":6185:6207   */\n  and\n    /* \"#utility.yul\":6235:6272   */\n  tag_129\n    /* \"#utility.yul\":6267:6271   */\n  dup7\n    /* \"#utility.yul\":6235:6272   */\n  tag_36\n  jump\t// in\ntag_129:\n    /* \"#utility.yul\":6294:6295   */\n  0x00\n    /* \"#utility.yul\":6308:6516   */\ntag_130:\n    /* \"#utility.yul\":6322:6329   */\n  dup3\n    /* \"#utility.yul\":6319:6320   */\n  dup2\n    /* \"#utility.yul\":6316:6330   */\n  lt\n    /* \"#utility.yul\":6308:6516   */\n  iszero\n  tag_132\n  jumpi\n    /* \"#utility.yul\":6401:6410   */\n  dup5\n    /* \"#utility.yul\":6396:6399   */\n  dup10\n    /* \"#utility.yul\":6392:6411   */\n  add\n    /* \"#utility.yul\":6386:6412   */\n  mload\n    /* \"#utility.yul\":6378:6384   */\n  dup3\n    /* \"#utility.yul\":6371:6413   */\n  sstore\n    /* \"#utility.yul\":6452:6453   */\n  0x01\n    /* \"#utility.yul\":6444:6450   */\n  dup3\n    /* \"#utility.yul\":6440:6454   */\n  add\n    /* \"#utility.yul\":6430:6454   */\n  swap2\n  pop\n    /* \"#utility.yul\":6499:6501   */\n  0x20\n    /* \"#utility.yul\":6488:6497   */\n  dup6\n    /* \"#utility.yul\":6484:6502   */\n  add\n    /* \"#utility.yul\":6471:6502   */\n  swap5\n  pop\n    /* \"#utility.yul\":6345:6349   */\n  0x20\n    /* \"#utility.yul\":6342:6343   */\n  dup2\n    /* \"#utility.yul\":6338:6350   */\n  add\n    /* \"#utility.yul\":6333:6350   */\n  swap1\n  pop\n    /* \"#utility.yul\":6308:6516   */\n  jump(tag_130)\ntag_132:\n    /* \"#utility.yul\":6544:6550   */\n  dup7\n    /* \"#utility.yul\":6535:6542   */\n  dup4\n    /* \"#utility.yul\":6532:6551   */\n  lt\n    /* \"#utility.yul\":6529:6708   */\n  iszero\n  tag_133\n  jumpi\n    /* \"#utility.yul\":6602:6611   */\n  dup5\n    /* \"#utility.yul\":6597:6600   */\n  dup10\n    /* \"#utility.yul\":6593:6612   */\n  add\n    /* \"#utility.yul\":6587:6613   */\n  mload\n    /* \"#utility.yul\":6645:6693   */\n  tag_134\n    /* \"#utility.yul\":6687:6691   */\n  0x1f\n    /* \"#utility.yul\":6679:6685   */\n  dup10\n    /* \"#utility.yul\":6675:6692   */\n  and\n    /* \"#utility.yul\":6664:6673   */\n  dup3\n    /* \"#utility.yul\":6645:6693   */\n  tag_49\n  jump\t// in\ntag_134:\n    /* \"#utility.yul\":6637:6643   */\n  dup4\n    /* \"#utility.yul\":6630:6694   */\n  sstore\n    /* \"#utility.yul\":6552:6708   */\n  pop\n    /* \"#utility.yul\":6529:6708   */\ntag_133:\n    /* \"#utility.yul\":6754:6755   */\n  0x01\n    /* \"#utility.yul\":6750:6751   */\n  0x02\n    /* \"#utility.yul\":6742:6748   */\n  dup9\n    /* \"#utility.yul\":6738:6752   */\n  mul\n    /* \"#utility.yul\":6734:6756   */\n  add\n    /* \"#utility.yul\":6728:6732   */\n  dup9\n    /* \"#utility.yul\":6721:6757   */\n  sstore\n    /* \"#utility.yul\":6156:6767   */\n  pop\n  pop\n  pop\n    /* \"#utility.yul\":6119:7006   */\ntag_125:\n  pop\n    /* \"#utility.yul\":5709:7012   */\n  pop\n  pop\n  pop\n    /* \"#utility.yul\":5617:7012   */\n  pop\n  pop\n  jump\t// out\n    /* \"contracts/MyBond.sol\":331:2269  contract MyBond is ERC20, ERC20Burnable, Pausable, Ownable {... */\ntag_19:\n  dataSize(sub_0)\n  dup1\n  dataOffset(sub_0)\n  0x00\n  codecopy\n  0x00\n  return\nstop\n\nsub_0: assembly {\n        /* \"contracts/MyBond.sol\":331:2269  contract MyBond is ERC20, ERC20Burnable, Pausable, Ownable {... */\n      mstore(0x40, 0x80)\n      callvalue\n      dup1\n      iszero\n      tag_1\n      jumpi\n      0x00\n      dup1\n      revert\n    tag_1:\n      pop\n      jumpi(tag_2, lt(calldatasize, 0x04))\n      shr(0xe0, calldataload(0x00))\n      dup1\n      0x70a08231\n      gt\n      tag_24\n      jumpi\n      dup1\n      0x95d89b41\n      gt\n      tag_25\n      jumpi\n      dup1\n      0x95d89b41\n      eq\n      tag_18\n      jumpi\n      dup1\n      0xa457c2d7\n      eq\n      tag_19\n      jumpi\n      dup1\n      0xa9059cbb\n      eq\n      tag_20\n      jumpi\n      dup1\n      0xcc872b66\n      eq\n      tag_21\n      jumpi\n      dup1\n      0xdd62ed3e\n      eq\n      tag_22\n      jumpi\n      dup1\n      0xf2fde38b\n      eq\n      tag_23\n      jumpi\n      jump(tag_2)\n    tag_25:\n      dup1\n      0x70a08231\n      eq\n      tag_13\n      jumpi\n      dup1\n      0x715018a6\n      eq\n      tag_14\n      jumpi\n      dup1\n      0x79cc6790\n      eq\n      tag_15\n      jumpi\n      dup1\n      0x8456cb59\n      eq\n      tag_16\n      jumpi\n      dup1\n      0x8da5cb5b\n      eq\n      tag_17\n      jumpi\n      jump(tag_2)\n    tag_24:\n      dup1\n      0x313ce567\n      gt\n      tag_26\n      jumpi\n      dup1\n      0x313ce567\n      eq\n      tag_8\n      jumpi\n      dup1\n      0x39509351\n      eq\n      tag_9\n      jumpi\n      dup1\n      0x3f4ba83a\n      eq\n      tag_10\n      jumpi\n      dup1\n      0x42966c68\n      eq\n      tag_11\n      jumpi\n      dup1\n      0x5c975abb\n      eq\n      tag_12\n      jumpi\n      jump(tag_2)\n    tag_26:\n      dup1\n      0x06fdde03\n      eq\n      tag_3\n      jumpi\n      dup1\n      0x095ea7b3\n      eq\n      tag_4\n      jumpi\n      dup1\n      0x14ca579a\n      eq\n      tag_5\n      jumpi\n      dup1\n      0x18160ddd\n      eq\n      tag_6\n      jumpi\n      dup1\n      0x23b872dd\n      eq\n      tag_7\n      jumpi\n    tag_2:\n      0x00\n      dup1\n      revert\n        /* \"@openzeppelin/contracts/token/ERC20/ERC20.sol\":2154:2252  function name() public view virtual override returns (string memory) {... */\n    tag_3:\n      tag_27\n      tag_28\n      jump\t// in\n    tag_27:\n      mload(0x40)\n      tag_29\n      swap2\n      swap1\n      tag_30\n      jump\t// in\n    tag_29:\n      mload(0x40)\n      dup1\n      swap2\n      sub\n      swap1\n      return\n        /* \"@openzeppelin/contracts/token/ERC20/ERC20.sol\":4431:4628  function approve(address spender, uint256 amount) public virtual override returns (bool) {... */\n    tag_4:\n      tag_31\n      0x04\n      dup1\n      calldatasize\n      sub\n      dup2\n      add\n      swap1\n      tag_32\n      swap2\n      swap1\n      tag_33\n      jump\t// in\n    tag_32:\n      tag_34\n      jump\t// in\n    tag_31:\n      mload(0x40)\n      tag_35\n      swap2\n      swap1\n      tag_36\n      jump\t// in\n    tag_35:\n      mload(0x40)\n      dup1\n      swap2\n      sub\n      swap1\n      return\n        /* \"contracts/MyBond.sol\":1484:2005  function redem(uint256 amount) public {... */\n    tag_5:\n      tag_37\n      0x04\n      dup1\n      calldatasize\n      sub\n      dup2\n      add\n      swap1\n      tag_38\n      swap2\n      swap1\n      tag_39\n      jump\t// in\n    tag_38:\n      tag_40\n      jump\t// in\n    tag_37:\n      stop\n        /* \"@openzeppelin/contracts/token/ERC20/ERC20.sol\":3242:3348  function totalSupply() public view virtual override returns (uint256) {... */\n    tag_6:\n      tag_41\n      tag_42\n      jump\t// in\n    tag_41:\n      mload(0x40)\n      tag_43\n      swap2\n      swap1\n      tag_44\n      jump\t// in\n    tag_43:\n      mload(0x40)\n      dup1\n      swap2\n      sub\n      swap1\n      return\n        /* \"@openzeppelin/contracts/token/ERC20/ERC20.sol\":5190:5476  function transferFrom(... */\n    tag_7:\n      tag_45\n      0x04\n      dup1\n      calldatasize\n      sub\n      dup2\n      add\n      swap1\n      tag_46\n      swap2\n      swap1\n      tag_47\n      jump\t// in\n    tag_46:\n      tag_48\n      jump\t// in\n    tag_45:\n      mload(0x40)\n      tag_49\n      swap2\n      swap1\n      tag_36\n      jump\t// in\n    tag_49:\n      mload(0x40)\n      dup1\n      swap2\n      sub\n      swap1\n      return\n        /* \"contracts/MyBond.sol\":728:818  function decimals() public view virtual override returns (uint8) {... */\n    tag_8:\n      tag_50\n      tag_51\n      jump\t// in\n    tag_50:\n      mload(0x40)\n      tag_52\n      swap2\n      swap1\n      tag_53\n      jump\t// in\n    tag_52:\n      mload(0x40)\n      dup1\n      swap2\n      sub\n      swap1\n      return\n        /* \"@openzeppelin/contracts/token/ERC20/ERC20.sol\":5871:6105  function increaseAllowance(address spender, uint256 addedValue) public virtual returns (bool) {... */\n    tag_9:\n      tag_54\n      0x04\n      dup1\n      calldatasize\n      sub\n      dup2\n      add\n      swap1\n      tag_55\n      swap2\n      swap1\n      tag_33\n      jump\t// in\n    tag_55:\n      tag_56\n      jump\t// in\n    tag_54:\n      mload(0x40)\n      tag_57\n      swap2\n      swap1\n      tag_36\n      jump\t// in\n    tag_57:\n      mload(0x40)\n      dup1\n      swap2\n      sub\n      swap1\n      return\n        /* \"contracts/MyBond.sol\":893:956  function unpause() public onlyOwner {... */\n    tag_10:\n      tag_58\n      tag_59\n      jump\t// in\n    tag_58:\n      stop\n        /* \"@openzeppelin/contracts/token/ERC20/extensions/ERC20Burnable.sol\":578:667  function burn(uint256 amount) public virtual {... */\n    tag_11:\n      tag_60\n      0x04\n      dup1\n      calldatasize\n      sub\n      dup2\n      add\n      swap1\n      tag_61\n      swap2\n      swap1\n      tag_39\n      jump\t// in\n    tag_61:\n      tag_62\n      jump\t// in\n    tag_60:\n      stop\n        /* \"@openzeppelin/contracts/security/Pausable.sol\":1615:1699  function paused() public view virtual returns (bool) {... */\n    tag_12:\n      tag_63\n      tag_64\n      jump\t// in\n    tag_63:\n      mload(0x40)\n      tag_65\n      swap2\n      swap1\n      tag_36\n      jump\t// in\n    tag_65:\n      mload(0x40)\n      dup1\n      swap2\n      sub\n      swap1\n      return\n        /* \"@openzeppelin/contracts/token/ERC20/ERC20.sol\":3406:3531  function balanceOf(address account) public view virtual override returns (uint256) {... */\n    tag_13:\n      tag_66\n      0x04\n      dup1\n      calldatasize\n      sub\n      dup2\n      add\n      swap1\n      tag_67\n      swap2\n      swap1\n      tag_68\n      jump\t// in\n    tag_67:\n      tag_69\n      jump\t// in\n    tag_66:\n      mload(0x40)\n      tag_70\n      swap2\n      swap1\n      tag_44\n      jump\t// in\n    tag_70:\n      mload(0x40)\n      dup1\n      swap2\n      sub\n      swap1\n      return\n        /* \"@openzeppelin/contracts/access/Ownable.sol\":1831:1932  function renounceOwnership() public virtual onlyOwner {... */\n    tag_14:\n      tag_71\n      tag_72\n      jump\t// in\n    tag_71:\n      stop\n        /* \"@openzeppelin/contracts/token/ERC20/extensions/ERC20Burnable.sol\":973:1134  function burnFrom(address account, uint256 amount) public virtual {... */\n    tag_15:\n      tag_73\n      0x04\n      dup1\n      calldatasize\n      sub\n      dup2\n      add\n      swap1\n      tag_74\n      swap2\n      swap1\n      tag_33\n      jump\t// in\n    tag_74:\n      tag_75\n      jump\t// in\n    tag_73:\n      stop\n        /* \"contracts/MyBond.sol\":828:887  function pause() public onlyOwner {... */\n    tag_16:\n      tag_76\n      tag_77\n      jump\t// in\n    tag_76:\n      stop\n        /* \"@openzeppelin/contracts/access/Ownable.sol\":1201:1286  function owner() public view virtual returns (address) {... */\n    tag_17:\n      tag_78\n      tag_79\n      jump\t// in\n    tag_78:\n      mload(0x40)\n      tag_80\n      swap2\n      swap1\n      tag_81\n      jump\t// in\n    tag_80:\n      mload(0x40)\n      dup1\n      swap2\n      sub\n      swap1\n      return\n        /* \"@openzeppelin/contracts/token/ERC20/ERC20.sol\":2365:2467  function symbol() public view virtual override returns (string memory) {... */\n    tag_18:\n      tag_82\n      tag_83\n      jump\t// in\n    tag_82:\n      mload(0x40)\n      tag_84\n      swap2\n      swap1\n      tag_30\n      jump\t// in\n    tag_84:\n      mload(0x40)\n      dup1\n      swap2\n      sub\n      swap1\n      return\n        /* \"@openzeppelin/contracts/token/ERC20/ERC20.sol\":6592:7019  function decreaseAllowance(address spender, uint256 subtractedValue) public virtual returns (bool) {... */\n    tag_19:\n      tag_85\n      0x04\n      dup1\n      calldatasize\n      sub\n      dup2\n      add\n      swap1\n      tag_86\n      swap2\n      swap1\n      tag_33\n      jump\t// in\n    tag_86:\n      tag_87\n      jump\t// in\n    tag_85:\n      mload(0x40)\n      tag_88\n      swap2\n      swap1\n      tag_36\n      jump\t// in\n    tag_88:\n      mload(0x40)\n      dup1\n      swap2\n      sub\n      swap1\n      return\n        /* \"@openzeppelin/contracts/token/ERC20/ERC20.sol\":3727:3916  function transfer(address to, uint256 amount) public virtual override returns (bool) {... */\n    tag_20:\n      tag_89\n      0x04\n      dup1\n      calldatasize\n      sub\n      dup2\n      add\n      swap1\n      tag_90\n      swap2\n      swap1\n      tag_33\n      jump\t// in\n    tag_90:\n      tag_91\n      jump\t// in\n    tag_89:\n      mload(0x40)\n      tag_92\n      swap2\n      swap1\n      tag_36\n      jump\t// in\n    tag_92:\n      mload(0x40)\n      dup1\n      swap2\n      sub\n      swap1\n      return\n        /* \"contracts/MyBond.sol\":962:1478  function issue(uint256 amount) public {... */\n    tag_21:\n      tag_93\n      0x04\n      dup1\n      calldatasize\n      sub\n      dup2\n      add\n      swap1\n      tag_94\n      swap2\n      swap1\n      tag_39\n      jump\t// in\n    tag_94:\n      tag_95\n      jump\t// in\n    tag_93:\n      stop\n        /* \"@openzeppelin/contracts/token/ERC20/ERC20.sol\":3974:4123  function allowance(address owner, address spender) public view virtual override returns (uint256) {... */\n    tag_22:\n      tag_96\n      0x04\n      dup1\n      calldatasize\n      sub\n      dup2\n      add\n      swap1\n      tag_97\n      swap2\n      swap1\n      tag_98\n      jump\t// in\n    tag_97:\n      tag_99\n      jump\t// in\n    tag_96:\n      mload(0x40)\n      tag_100\n      swap2\n      swap1\n      tag_44\n      jump\t// in\n    tag_100:\n      mload(0x40)\n      dup1\n      swap2\n      sub\n      swap1\n      return\n        /* \"@openzeppelin/contracts/access/Ownable.sol\":2081:2279  function transferOwnership(address newOwner) public virtual onlyOwner {... */\n    tag_23:\n      tag_101\n      0x04\n      dup1\n      calldatasize\n      sub\n      dup2\n      add\n      swap1\n      tag_102\n      swap2\n      swap1\n      tag_68\n      jump\t// in\n    tag_102:\n      tag_103\n      jump\t// in\n    tag_101:\n      stop\n        /* \"@openzeppelin/contracts/token/ERC20/ERC20.sol\":2154:2252  function name() public view virtual override returns (string memory) {... */\n    tag_28:\n        /* \"@openzeppelin/contracts/token/ERC20/ERC20.sol\":2208:2221  string memory */\n      0x60\n        /* \"@openzeppelin/contracts/token/ERC20/ERC20.sol\":2240:2245  _name */\n      0x03\n        /* \"@openzeppelin/contracts/token/ERC20/ERC20.sol\":2233:2245  return _name */\n      dup1\n      sload\n      tag_105\n      swap1\n      tag_106\n      jump\t// in\n    tag_105:\n      dup1\n      0x1f\n      add\n      0x20\n      dup1\n      swap2\n      div\n      mul\n      0x20\n      add\n      mload(0x40)\n      swap1\n      dup2\n      add\n      0x40\n      mstore\n      dup1\n      swap3\n      swap2\n      swap1\n      dup2\n      dup2\n      mstore\n      0x20\n      add\n      dup3\n      dup1\n      sload\n      tag_107\n      swap1\n      tag_106\n      jump\t// in\n    tag_107:\n      dup1\n      iszero\n      tag_108\n      jumpi\n      dup1\n      0x1f\n      lt\n      tag_109\n      jumpi\n      0x0100\n      dup1\n      dup4\n      sload\n      div\n      mul\n      dup4\n      mstore\n      swap2\n      0x20\n      add\n      swap2\n      jump(tag_108)\n    tag_109:\n      dup3\n      add\n      swap2\n      swap1\n      0x00\n      mstore\n      keccak256(0x00, 0x20)\n      swap1\n    tag_110:\n      dup2\n      sload\n      dup2\n      mstore\n      swap1\n      0x01\n      add\n      swap1\n      0x20\n      add\n      dup1\n      dup4\n      gt\n      tag_110\n      jumpi\n      dup3\n      swap1\n      sub\n      0x1f\n      and\n      dup3\n      add\n      swap2\n    tag_108:\n      pop\n      pop\n      pop\n      pop\n      pop\n      swap1\n      pop\n        /* \"@openzeppelin/contracts/token/ERC20/ERC20.sol\":2154:2252  function name() public view virtual override returns (string memory) {... */\n      swap1\n      jump\t// out\n        /* \"@openzeppelin/contracts/token/ERC20/ERC20.sol\":4431:4628  function approve(address spender, uint256 amount) public virtual override returns (bool) {... */\n    tag_34:\n        /* \"@openzeppelin/contracts/token/ERC20/ERC20.sol\":4514:4518  bool */\n      0x00\n        /* \"@openzeppelin/contracts/token/ERC20/ERC20.sol\":4530:4543  address owner */\n      dup1\n        /* \"@openzeppelin/contracts/token/ERC20/ERC20.sol\":4546:4558  _msgSender() */\n      tag_112\n        /* \"@openzeppelin/contracts/token/ERC20/ERC20.sol\":4546:4556  _msgSender */\n      tag_113\n        /* \"@openzeppelin/contracts/token/ERC20/ERC20.sol\":4546:4558  _msgSender() */\n      jump\t// in\n    tag_112:\n        /* \"@openzeppelin/contracts/token/ERC20/ERC20.sol\":4530:4558  address owner = _msgSender() */\n      swap1\n      pop\n        /* \"@openzeppelin/contracts/token/ERC20/ERC20.sol\":4568:4600  _approve(owner, spender, amount) */\n      tag_114\n        /* \"@openzeppelin/contracts/token/ERC20/ERC20.sol\":4577:4582  owner */\n      dup2\n        /* \"@openzeppelin/contracts/token/ERC20/ERC20.sol\":4584:4591  spender */\n      dup6\n        /* \"@openzeppelin/contracts/token/ERC20/ERC20.sol\":4593:4599  amount */\n      dup6\n        /* \"@openzeppelin/contracts/token/ERC20/ERC20.sol\":4568:4576  _approve */\n      tag_115\n        /* \"@openzeppelin/contracts/token/ERC20/ERC20.sol\":4568:4600  _approve(owner, spender, amount) */\n      jump\t// in\n    tag_114:\n        /* \"@openzeppelin/contracts/token/ERC20/ERC20.sol\":4617:4621  true */\n      0x01\n        /* \"@openzeppelin/contracts/token/ERC20/ERC20.sol\":4610:4621  return true */\n      swap2\n      pop\n      pop\n        /* \"@openzeppelin/contracts/token/ERC20/ERC20.sol\":4431:4628  function approve(address spender, uint256 amount) public virtual override returns (bool) {... */\n      swap3\n      swap2\n      pop\n      pop\n      jump\t// out\n        /* \"contracts/MyBond.sol\":1484:2005  function redem(uint256 amount) public {... */\n    tag_40:\n        /* \"contracts/MyBond.sol\":1557:1563  amount */\n      dup1\n        /* \"contracts/MyBond.sol\":1540:1553  totalSupply() */\n      tag_117\n        /* \"contracts/MyBond.sol\":1540:1551  totalSupply */\n      tag_42\n        /* \"contracts/MyBond.sol\":1540:1553  totalSupply() */\n      jump\t// in\n    tag_117:\n        /* \"contracts/MyBond.sol\":1540:1563  totalSupply() <= amount */\n      gt\n      iszero\n        /* \"contracts/MyBond.sol\":1532:1591  require(totalSupply() <= amount, \"Not enough bonds issued\") */\n      tag_118\n      jumpi\n      mload(0x40)\n      0x08c379a000000000000000000000000000000000000000000000000000000000\n      dup2\n      mstore\n      0x04\n      add\n      tag_119\n      swap1\n      tag_120\n      jump\t// in\n    tag_119:\n      mload(0x40)\n      dup1\n      swap2\n      sub\n      swap1\n      revert\n    tag_118:\n        /* \"contracts/MyBond.sol\":1609:1615  rights */\n      0x06\n      0x00\n      swap1\n      sload\n      swap1\n      0x0100\n      exp\n      swap1\n      div\n      0xffffffffffffffffffffffffffffffffffffffff\n      and\n        /* \"contracts/MyBond.sol\":1609:1625  rights.hasRights */\n      0xffffffffffffffffffffffffffffffffffffffff\n      and\n      0xf35f0f74\n        /* \"contracts/MyBond.sol\":1626:1636  msg.sender */\n      caller\n        /* \"contracts/MembershipRights.sol\":116:119  0x2 */\n      0x02\n        /* \"contracts/MyBond.sol\":1609:1646  rights.hasRights(msg.sender,  HOLDER) */\n      mload(0x40)\n      dup4\n      0xffffffff\n      and\n      0xe0\n      shl\n      dup2\n      mstore\n      0x04\n      add\n      tag_121\n      swap3\n      swap2\n      swap1\n      tag_122\n      jump\t// in\n    tag_121:\n      0x20\n      mload(0x40)\n      dup1\n      dup4\n      sub\n      dup2\n      dup7\n      gas\n      staticcall\n      iszero\n      dup1\n      iszero\n      tag_124\n      jumpi\n      returndatasize\n      0x00\n      dup1\n      returndatacopy\n      revert(0x00, returndatasize)\n    tag_124:\n      pop\n      pop\n      pop\n      pop\n      mload(0x40)\n      returndatasize\n      not(0x1f)\n      0x1f\n      dup3\n      add\n      and\n      dup3\n      add\n      dup1\n      0x40\n      mstore\n      pop\n      dup2\n      add\n      swap1\n      tag_125\n      swap2\n      swap1\n      tag_126\n      jump\t// in\n    tag_125:\n        /* \"contracts/MyBond.sol\":1601:1663  require(rights.hasRights(msg.sender,  HOLDER), \"Not a holder\") */\n      tag_127\n      jumpi\n      mload(0x40)\n      0x08c379a000000000000000000000000000000000000000000000000000000000\n      dup2\n      mstore\n      0x04\n      add\n      tag_128\n      swap1\n      tag_129\n      jump\t// in\n    tag_128:\n      mload(0x40)\n      dup1\n      swap2\n      sub\n      swap1\n      revert\n    tag_127:\n        /* \"contracts/MyBond.sol\":1690:1691  0 */\n      0x00\n        /* \"contracts/MyBond.sol\":1681:1687  amount */\n      dup2\n        /* \"contracts/MyBond.sol\":1681:1691  amount > 0 */\n      gt\n        /* \"contracts/MyBond.sol\":1673:1707  require(amount > 0 , \"Ammount> 0\") */\n      tag_130\n      jumpi\n      mload(0x40)\n      0x08c379a000000000000000000000000000000000000000000000000000000000\n      dup2\n      mstore\n      0x04\n      add\n      tag_131\n      swap1\n      tag_132\n      jump\t// in\n    tag_131:\n      mload(0x40)\n      dup1\n      swap2\n      sub\n      swap1\n      revert\n    tag_130:\n        /* \"contracts/MyBond.sol\":1768:1778  multiplier */\n      sload(0x09)\n        /* \"contracts/MyBond.sol\":1759:1765  amount */\n      dup2\n        /* \"contracts/MyBond.sol\":1759:1778  amount * multiplier */\n      tag_133\n      swap2\n      swap1\n      tag_134\n      jump\t// in\n    tag_133:\n        /* \"contracts/MyBond.sol\":1725:1730  money */\n      0x07\n      0x00\n      swap1\n      sload\n      swap1\n      0x0100\n      exp\n      swap1\n      div\n      0xffffffffffffffffffffffffffffffffffffffff\n      and\n        /* \"contracts/MyBond.sol\":1725:1740  money.balanceOf */\n      0xffffffffffffffffffffffffffffffffffffffff\n      and\n      0x70a08231\n        /* \"contracts/MyBond.sol\":1749:1753  this */\n      address\n        /* \"contracts/MyBond.sol\":1725:1755  money.balanceOf(address(this)) */\n      mload(0x40)\n      dup3\n      0xffffffff\n      and\n      0xe0\n      shl\n      dup2\n      mstore\n      0x04\n      add\n      tag_135\n      swap2\n      swap1\n      tag_81\n      jump\t// in\n    tag_135:\n      0x20\n      mload(0x40)\n      dup1\n      dup4\n      sub\n      dup2\n      dup7\n      gas\n      staticcall\n      iszero\n      dup1\n      iszero\n      tag_137\n      jumpi\n      returndatasize\n      0x00\n      dup1\n      returndatacopy\n      revert(0x00, returndatasize)\n    tag_137:\n      pop\n      pop\n      pop\n      pop\n      mload(0x40)\n      returndatasize\n      not(0x1f)\n      0x1f\n      dup3\n      add\n      and\n      dup3\n      add\n      dup1\n      0x40\n      mstore\n      pop\n      dup2\n      add\n      swap1\n      tag_138\n      swap2\n      swap1\n      tag_139\n      jump\t// in\n    tag_138:\n        /* \"contracts/MyBond.sol\":1725:1778  money.balanceOf(address(this)) >= amount * multiplier */\n      lt\n      iszero\n        /* \"contracts/MyBond.sol\":1717:1779  require(money.balanceOf(address(this)) >= amount * multiplier) */\n      tag_140\n      jumpi\n      0x00\n      dup1\n      revert\n    tag_140:\n        /* \"contracts/MyBond.sol\":1896:1921  _burn(msg.sender, amount) */\n      tag_141\n        /* \"contracts/MyBond.sol\":1902:1912  msg.sender */\n      caller\n        /* \"contracts/MyBond.sol\":1914:1920  amount */\n      dup3\n        /* \"contracts/MyBond.sol\":1896:1901  _burn */\n      tag_142\n        /* \"contracts/MyBond.sol\":1896:1921  _burn(msg.sender, amount) */\n      jump\t// in\n    tag_141:\n        /* \"contracts/MyBond.sol\":1931:1936  money */\n      0x07\n      0x00\n      swap1\n      sload\n      swap1\n      0x0100\n      exp\n      swap1\n      div\n      0xffffffffffffffffffffffffffffffffffffffff\n      and\n        /* \"contracts/MyBond.sol\":1931:1949  money.transferFrom */\n      0xffffffffffffffffffffffffffffffffffffffff\n      and\n      0x23b872dd\n        /* \"contracts/MyBond.sol\":1958:1962  this */\n      address\n        /* \"contracts/MyBond.sol\":1965:1975  msg.sender */\n      caller\n        /* \"contracts/MyBond.sol\":1986:1996  multiplier */\n      sload(0x09)\n        /* \"contracts/MyBond.sol\":1977:1983  amount */\n      dup6\n        /* \"contracts/MyBond.sol\":1977:1996  amount * multiplier */\n      tag_143\n      swap2\n      swap1\n      tag_134\n      jump\t// in\n    tag_143:\n        /* \"contracts/MyBond.sol\":1931:1997  money.transferFrom(address(this), msg.sender, amount * multiplier) */\n      mload(0x40)\n      dup5\n      0xffffffff\n      and\n      0xe0\n      shl\n      dup2\n      mstore\n      0x04\n      add\n      tag_144\n      swap4\n      swap3\n      swap2\n      swap1\n      tag_145\n      jump\t// in\n    tag_144:\n      0x20\n      mload(0x40)\n      dup1\n      dup4\n      sub\n      dup2\n      0x00\n      dup8\n      gas\n      call\n      iszero\n      dup1\n      iszero\n      tag_147\n      jumpi\n      returndatasize\n      0x00\n      dup1\n      returndatacopy\n      revert(0x00, returndatasize)\n    tag_147:\n      pop\n      pop\n      pop\n      pop\n      mload(0x40)\n      returndatasize\n      not(0x1f)\n      0x1f\n      dup3\n      add\n      and\n      dup3\n      add\n      dup1\n      0x40\n      mstore\n      pop\n      dup2\n      add\n      swap1\n      tag_148\n      swap2\n      swap1\n      tag_126\n      jump\t// in\n    tag_148:\n      pop\n        /* \"contracts/MyBond.sol\":1484:2005  function redem(uint256 amount) public {... */\n      pop\n      jump\t// out\n        /* \"@openzeppelin/contracts/token/ERC20/ERC20.sol\":3242:3348  function totalSupply() public view virtual override returns (uint256) {... */\n    tag_42:\n        /* \"@openzeppelin/contracts/token/ERC20/ERC20.sol\":3303:3310  uint256 */\n      0x00\n        /* \"@openzeppelin/contracts/token/ERC20/ERC20.sol\":3329:3341  _totalSupply */\n      sload(0x02)\n        /* \"@openzeppelin/contracts/token/ERC20/ERC20.sol\":3322:3341  return _totalSupply */\n      swap1\n      pop\n        /* \"@openzeppelin/contracts/token/ERC20/ERC20.sol\":3242:3348  function totalSupply() public view virtual override returns (uint256) {... */\n      swap1\n      jump\t// out\n        /* \"@openzeppelin/contracts/token/ERC20/ERC20.sol\":5190:5476  function transferFrom(... */\n    tag_48:\n        /* \"@openzeppelin/contracts/token/ERC20/ERC20.sol\":5317:5321  bool */\n      0x00\n        /* \"@openzeppelin/contracts/token/ERC20/ERC20.sol\":5333:5348  address spender */\n      dup1\n        /* \"@openzeppelin/contracts/token/ERC20/ERC20.sol\":5351:5363  _msgSender() */\n      tag_151\n        /* \"@openzeppelin/contracts/token/ERC20/ERC20.sol\":5351:5361  _msgSender */\n      tag_113\n        /* \"@openzeppelin/contracts/token/ERC20/ERC20.sol\":5351:5363  _msgSender() */\n      jump\t// in\n    tag_151:\n        /* \"@openzeppelin/contracts/token/ERC20/ERC20.sol\":5333:5363  address spender = _msgSender() */\n      swap1\n      pop\n        /* \"@openzeppelin/contracts/token/ERC20/ERC20.sol\":5373:5411  _spendAllowance(from, spender, amount) */\n      tag_152\n        /* \"@openzeppelin/contracts/token/ERC20/ERC20.sol\":5389:5393  from */\n      dup6\n        /* \"@openzeppelin/contracts/token/ERC20/ERC20.sol\":5395:5402  spender */\n      dup3\n        /* \"@openzeppelin/contracts/token/ERC20/ERC20.sol\":5404:5410  amount */\n      dup6\n        /* \"@openzeppelin/contracts/token/ERC20/ERC20.sol\":5373:5388  _spendAllowance */\n      tag_153\n        /* \"@openzeppelin/contracts/token/ERC20/ERC20.sol\":5373:5411  _spendAllowance(from, spender, amount) */\n      jump\t// in\n    tag_152:\n        /* \"@openzeppelin/contracts/token/ERC20/ERC20.sol\":5421:5448  _transfer(from, to, amount) */\n      tag_154\n        /* \"@openzeppelin/contracts/token/ERC20/ERC20.sol\":5431:5435  from */\n      dup6\n        /* \"@openzeppelin/contracts/token/ERC20/ERC20.sol\":5437:5439  to */\n      dup6\n        /* \"@openzeppelin/contracts/token/ERC20/ERC20.sol\":5441:5447  amount */\n      dup6\n        /* \"@openzeppelin/contracts/token/ERC20/ERC20.sol\":5421:5430  _transfer */\n      tag_155\n        /* \"@openzeppelin/contracts/token/ERC20/ERC20.sol\":5421:5448  _transfer(from, to, amount) */\n      jump\t// in\n    tag_154:\n        /* \"@openzeppelin/contracts/token/ERC20/ERC20.sol\":5465:5469  true */\n      0x01\n        /* \"@openzeppelin/contracts/token/ERC20/ERC20.sol\":5458:5469  return true */\n      swap2\n      pop\n      pop\n        /* \"@openzeppelin/contracts/token/ERC20/ERC20.sol\":5190:5476  function transferFrom(... */\n      swap4\n      swap3\n      pop\n      pop\n      pop\n      jump\t// out\n        /* \"contracts/MyBond.sol\":728:818  function decimals() public view virtual override returns (uint8) {... */\n    tag_51:\n        /* \"contracts/MyBond.sol\":786:791  uint8 */\n      0x00\n        /* \"contracts/MyBond.sol\":728:818  function decimals() public view virtual override returns (uint8) {... */\n      swap1\n      jump\t// out\n        /* \"@openzeppelin/contracts/token/ERC20/ERC20.sol\":5871:6105  function increaseAllowance(address spender, uint256 addedValue) public virtual returns (bool) {... */\n    tag_56:\n        /* \"@openzeppelin/contracts/token/ERC20/ERC20.sol\":5959:5963  bool */\n      0x00\n        /* \"@openzeppelin/contracts/token/ERC20/ERC20.sol\":5975:5988  address owner */\n      dup1\n        /* \"@openzeppelin/contracts/token/ERC20/ERC20.sol\":5991:6003  _msgSender() */\n      tag_158\n        /* \"@openzeppelin/contracts/token/ERC20/ERC20.sol\":5991:6001  _msgSender */\n      tag_113\n        /* \"@openzeppelin/contracts/token/ERC20/ERC20.sol\":5991:6003  _msgSender() */\n      jump\t// in\n    tag_158:\n        /* \"@openzeppelin/contracts/token/ERC20/ERC20.sol\":5975:6003  address owner = _msgSender() */\n      swap1\n      pop\n        /* \"@openzeppelin/contracts/token/ERC20/ERC20.sol\":6013:6077  _approve(owner, spender, allowance(owner, spender) + addedValue) */\n      tag_159\n        /* \"@openzeppelin/contracts/token/ERC20/ERC20.sol\":6022:6027  owner */\n      dup2\n        /* \"@openzeppelin/contracts/token/ERC20/ERC20.sol\":6029:6036  spender */\n      dup6\n        /* \"@openzeppelin/contracts/token/ERC20/ERC20.sol\":6066:6076  addedValue */\n      dup6\n        /* \"@openzeppelin/contracts/token/ERC20/ERC20.sol\":6038:6063  allowance(owner, spender) */\n      tag_160\n        /* \"@openzeppelin/contracts/token/ERC20/ERC20.sol\":6048:6053  owner */\n      dup6\n        /* \"@openzeppelin/contracts/token/ERC20/ERC20.sol\":6055:6062  spender */\n      dup10\n        /* \"@openzeppelin/contracts/token/ERC20/ERC20.sol\":6038:6047  allowance */\n      tag_99\n        /* \"@openzeppelin/contracts/token/ERC20/ERC20.sol\":6038:6063  allowance(owner, spender) */\n      jump\t// in\n    tag_160:\n        /* \"@openzeppelin/contracts/token/ERC20/ERC20.sol\":6038:6076  allowance(owner, spender) + addedValue */\n      tag_161\n      swap2\n      swap1\n      tag_162\n      jump\t// in\n    tag_161:\n        /* \"@openzeppelin/contracts/token/ERC20/ERC20.sol\":6013:6021  _approve */\n      tag_115\n        /* \"@openzeppelin/contracts/token/ERC20/ERC20.sol\":6013:6077  _approve(owner, spender, allowance(owner, spender) + addedValue) */\n      jump\t// in\n    tag_159:\n        /* \"@openzeppelin/contracts/token/ERC20/ERC20.sol\":6094:6098  true */\n      0x01\n        /* \"@openzeppelin/contracts/token/ERC20/ERC20.sol\":6087:6098  return true */\n      swap2\n      pop\n      pop\n        /* \"@openzeppelin/contracts/token/ERC20/ERC20.sol\":5871:6105  function increaseAllowance(address spender, uint256 addedValue) public virtual returns (bool) {... */\n      swap3\n      swap2\n      pop\n      pop\n      jump\t// out\n        /* \"contracts/MyBond.sol\":893:956  function unpause() public onlyOwner {... */\n    tag_59:\n        /* \"@openzeppelin/contracts/access/Ownable.sol\":1094:1107  _checkOwner() */\n      tag_164\n        /* \"@openzeppelin/contracts/access/Ownable.sol\":1094:1105  _checkOwner */\n      tag_165\n        /* \"@openzeppelin/contracts/access/Ownable.sol\":1094:1107  _checkOwner() */\n      jump\t// in\n    tag_164:\n        /* \"contracts/MyBond.sol\":939:949  _unpause() */\n      tag_167\n        /* \"contracts/MyBond.sol\":939:947  _unpause */\n      tag_168\n        /* \"contracts/MyBond.sol\":939:949  _unpause() */\n      jump\t// in\n    tag_167:\n        /* \"contracts/MyBond.sol\":893:956  function unpause() public onlyOwner {... */\n      jump\t// out\n        /* \"@openzeppelin/contracts/token/ERC20/extensions/ERC20Burnable.sol\":578:667  function burn(uint256 amount) public virtual {... */\n    tag_62:\n        /* \"@openzeppelin/contracts/token/ERC20/extensions/ERC20Burnable.sol\":633:660  _burn(_msgSender(), amount) */\n      tag_170\n        /* \"@openzeppelin/contracts/token/ERC20/extensions/ERC20Burnable.sol\":639:651  _msgSender() */\n      tag_171\n        /* \"@openzeppelin/contracts/token/ERC20/extensions/ERC20Burnable.sol\":639:649  _msgSender */\n      tag_113\n        /* \"@openzeppelin/contracts/token/ERC20/extensions/ERC20Burnable.sol\":639:651  _msgSender() */\n      jump\t// in\n    tag_171:\n        /* \"@openzeppelin/contracts/token/ERC20/extensions/ERC20Burnable.sol\":653:659  amount */\n      dup3\n        /* \"@openzeppelin/contracts/token/ERC20/extensions/ERC20Burnable.sol\":633:638  _burn */\n      tag_142\n        /* \"@openzeppelin/contracts/token/ERC20/extensions/ERC20Burnable.sol\":633:660  _burn(_msgSender(), amount) */\n      jump\t// in\n    tag_170:\n        /* \"@openzeppelin/contracts/token/ERC20/extensions/ERC20Burnable.sol\":578:667  function burn(uint256 amount) public virtual {... */\n      pop\n      jump\t// out\n        /* \"@openzeppelin/contracts/security/Pausable.sol\":1615:1699  function paused() public view virtual returns (bool) {... */\n    tag_64:\n        /* \"@openzeppelin/contracts/security/Pausable.sol\":1662:1666  bool */\n      0x00\n        /* \"@openzeppelin/contracts/security/Pausable.sol\":1685:1692  _paused */\n      0x05\n      0x00\n      swap1\n      sload\n      swap1\n      0x0100\n      exp\n      swap1\n      div\n      0xff\n      and\n        /* \"@openzeppelin/contracts/security/Pausable.sol\":1678:1692  return _paused */\n      swap1\n      pop\n        /* \"@openzeppelin/contracts/security/Pausable.sol\":1615:1699  function paused() public view virtual returns (bool) {... */\n      swap1\n      jump\t// out\n        /* \"@openzeppelin/contracts/token/ERC20/ERC20.sol\":3406:3531  function balanceOf(address account) public view virtual override returns (uint256) {... */\n    tag_69:\n        /* \"@openzeppelin/contracts/token/ERC20/ERC20.sol\":3480:3487  uint256 */\n      0x00\n        /* \"@openzeppelin/contracts/token/ERC20/ERC20.sol\":3506:3515  _balances */\n      dup1\n        /* \"@openzeppelin/contracts/token/ERC20/ERC20.sol\":3506:3524  _balances[account] */\n      0x00\n        /* \"@openzeppelin/contracts/token/ERC20/ERC20.sol\":3516:3523  account */\n      dup4\n        /* \"@openzeppelin/contracts/token/ERC20/ERC20.sol\":3506:3524  _balances[account] */\n      0xffffffffffffffffffffffffffffffffffffffff\n      and\n      0xffffffffffffffffffffffffffffffffffffffff\n      and\n      dup2\n      mstore\n      0x20\n      add\n      swap1\n      dup2\n      mstore\n      0x20\n      add\n      0x00\n      keccak256\n      sload\n        /* \"@openzeppelin/contracts/token/ERC20/ERC20.sol\":3499:3524  return _balances[account] */\n      swap1\n      pop\n        /* \"@openzeppelin/contracts/token/ERC20/ERC20.sol\":3406:3531  function balanceOf(address account) public view virtual override returns (uint256) {... */\n      swap2\n      swap1\n      pop\n      jump\t// out\n        /* \"@openzeppelin/contracts/access/Ownable.sol\":1831:1932  function renounceOwnership() public virtual onlyOwner {... */\n    tag_72:\n        /* \"@openzeppelin/contracts/access/Ownable.sol\":1094:1107  _checkOwner() */\n      tag_175\n        /* \"@openzeppelin/contracts/access/Ownable.sol\":1094:1105  _checkOwner */\n      tag_165\n        /* \"@openzeppelin/contracts/access/Ownable.sol\":1094:1107  _checkOwner() */\n      jump\t// in\n    tag_175:\n        /* \"@openzeppelin/contracts/access/Ownable.sol\":1895:1925  _transferOwnership(address(0)) */\n      tag_177\n        /* \"@openzeppelin/contracts/access/Ownable.sol\":1922:1923  0 */\n      0x00\n        /* \"@openzeppelin/contracts/access/Ownable.sol\":1895:1913  _transferOwnership */\n      tag_178\n        /* \"@openzeppelin/contracts/access/Ownable.sol\":1895:1925  _transferOwnership(address(0)) */\n      jump\t// in\n    tag_177:\n        /* \"@openzeppelin/contracts/access/Ownable.sol\":1831:1932  function renounceOwnership() public virtual onlyOwner {... */\n      jump\t// out\n        /* \"@openzeppelin/contracts/token/ERC20/extensions/ERC20Burnable.sol\":973:1134  function burnFrom(address account, uint256 amount) public virtual {... */\n    tag_75:\n        /* \"@openzeppelin/contracts/token/ERC20/extensions/ERC20Burnable.sol\":1049:1095  _spendAllowance(account, _msgSender(), amount) */\n      tag_180\n        /* \"@openzeppelin/contracts/token/ERC20/extensions/ERC20Burnable.sol\":1065:1072  account */\n      dup3\n        /* \"@openzeppelin/contracts/token/ERC20/extensions/ERC20Burnable.sol\":1074:1086  _msgSender() */\n      tag_181\n        /* \"@openzeppelin/contracts/token/ERC20/extensions/ERC20Burnable.sol\":1074:1084  _msgSender */\n      tag_113\n        /* \"@openzeppelin/contracts/token/ERC20/extensions/ERC20Burnable.sol\":1074:1086  _msgSender() */\n      jump\t// in\n    tag_181:\n        /* \"@openzeppelin/contracts/token/ERC20/extensions/ERC20Burnable.sol\":1088:1094  amount */\n      dup4\n        /* \"@openzeppelin/contracts/token/ERC20/extensions/ERC20Burnable.sol\":1049:1064  _spendAllowance */\n      tag_153\n        /* \"@openzeppelin/contracts/token/ERC20/extensions/ERC20Burnable.sol\":1049:1095  _spendAllowance(account, _msgSender(), amount) */\n      jump\t// in\n    tag_180:\n        /* \"@openzeppelin/contracts/token/ERC20/extensions/ERC20Burnable.sol\":1105:1127  _burn(account, amount) */\n      tag_182\n        /* \"@openzeppelin/contracts/token/ERC20/extensions/ERC20Burnable.sol\":1111:1118  account */\n      dup3\n        /* \"@openzeppelin/contracts/token/ERC20/extensions/ERC20Burnable.sol\":1120:1126  amount */\n      dup3\n        /* \"@openzeppelin/contracts/token/ERC20/extensions/ERC20Burnable.sol\":1105:1110  _burn */\n      tag_142\n        /* \"@openzeppelin/contracts/token/ERC20/extensions/ERC20Burnable.sol\":1105:1127  _burn(account, amount) */\n      jump\t// in\n    tag_182:\n        /* \"@openzeppelin/contracts/token/ERC20/extensions/ERC20Burnable.sol\":973:1134  function burnFrom(address account, uint256 amount) public virtual {... */\n      pop\n      pop\n      jump\t// out\n        /* \"contracts/MyBond.sol\":828:887  function pause() public onlyOwner {... */\n    tag_77:\n        /* \"@openzeppelin/contracts/access/Ownable.sol\":1094:1107  _checkOwner() */\n      tag_184\n        /* \"@openzeppelin/contracts/access/Ownable.sol\":1094:1105  _checkOwner */\n      tag_165\n        /* \"@openzeppelin/contracts/access/Ownable.sol\":1094:1107  _checkOwner() */\n      jump\t// in\n    tag_184:\n        /* \"contracts/MyBond.sol\":872:880  _pause() */\n      tag_186\n        /* \"contracts/MyBond.sol\":872:878  _pause */\n      tag_187\n        /* \"contracts/MyBond.sol\":872:880  _pause() */\n      jump\t// in\n    tag_186:\n        /* \"contracts/MyBond.sol\":828:887  function pause() public onlyOwner {... */\n      jump\t// out\n        /* \"@openzeppelin/contracts/access/Ownable.sol\":1201:1286  function owner() public view virtual returns (address) {... */\n    tag_79:\n        /* \"@openzeppelin/contracts/access/Ownable.sol\":1247:1254  address */\n      0x00\n        /* \"@openzeppelin/contracts/access/Ownable.sol\":1273:1279  _owner */\n      0x05\n      0x01\n      swap1\n      sload\n      swap1\n      0x0100\n      exp\n      swap1\n      div\n      0xffffffffffffffffffffffffffffffffffffffff\n      and\n        /* \"@openzeppelin/contracts/access/Ownable.sol\":1266:1279  return _owner */\n      swap1\n      pop\n        /* \"@openzeppelin/contracts/access/Ownable.sol\":1201:1286  function owner() public view virtual returns (address) {... */\n      swap1\n      jump\t// out\n        /* \"@openzeppelin/contracts/token/ERC20/ERC20.sol\":2365:2467  function symbol() public view virtual override returns (string memory) {... */\n    tag_83:\n        /* \"@openzeppelin/contracts/token/ERC20/ERC20.sol\":2421:2434  string memory */\n      0x60\n        /* \"@openzeppelin/contracts/token/ERC20/ERC20.sol\":2453:2460  _symbol */\n      0x04\n        /* \"@openzeppelin/contracts/token/ERC20/ERC20.sol\":2446:2460  return _symbol */\n      dup1\n      sload\n      tag_190\n      swap1\n      tag_106\n      jump\t// in\n    tag_190:\n      dup1\n      0x1f\n      add\n      0x20\n      dup1\n      swap2\n      div\n      mul\n      0x20\n      add\n      mload(0x40)\n      swap1\n      dup2\n      add\n      0x40\n      mstore\n      dup1\n      swap3\n      swap2\n      swap1\n      dup2\n      dup2\n      mstore\n      0x20\n      add\n      dup3\n      dup1\n      sload\n      tag_191\n      swap1\n      tag_106\n      jump\t// in\n    tag_191:\n      dup1\n      iszero\n      tag_192\n      jumpi\n      dup1\n      0x1f\n      lt\n      tag_193\n      jumpi\n      0x0100\n      dup1\n      dup4\n      sload\n      div\n      mul\n      dup4\n      mstore\n      swap2\n      0x20\n      add\n      swap2\n      jump(tag_192)\n    tag_193:\n      dup3\n      add\n      swap2\n      swap1\n      0x00\n      mstore\n      keccak256(0x00, 0x20)\n      swap1\n    tag_194:\n      dup2\n      sload\n      dup2\n      mstore\n      swap1\n      0x01\n      add\n      swap1\n      0x20\n      add\n      dup1\n      dup4\n      gt\n      tag_194\n      jumpi\n      dup3\n      swap1\n      sub\n      0x1f\n      and\n      dup3\n      add\n      swap2\n    tag_192:\n      pop\n      pop\n      pop\n      pop\n      pop\n      swap1\n      pop\n        /* \"@openzeppelin/contracts/token/ERC20/ERC20.sol\":2365:2467  function symbol() public view virtual override returns (string memory) {... */\n      swap1\n      jump\t// out\n        /* \"@openzeppelin/contracts/token/ERC20/ERC20.sol\":6592:7019  function decreaseAllowance(address spender, uint256 subtractedValue) public virtual returns (bool) {... */\n    tag_87:\n        /* \"@openzeppelin/contracts/token/ERC20/ERC20.sol\":6685:6689  bool */\n      0x00\n        /* \"@openzeppelin/contracts/token/ERC20/ERC20.sol\":6701:6714  address owner */\n      dup1\n        /* \"@openzeppelin/contracts/token/ERC20/ERC20.sol\":6717:6729  _msgSender() */\n      tag_196\n        /* \"@openzeppelin/contracts/token/ERC20/ERC20.sol\":6717:6727  _msgSender */\n      tag_113\n        /* \"@openzeppelin/contracts/token/ERC20/ERC20.sol\":6717:6729  _msgSender() */\n      jump\t// in\n    tag_196:\n        /* \"@openzeppelin/contracts/token/ERC20/ERC20.sol\":6701:6729  address owner = _msgSender() */\n      swap1\n      pop\n        /* \"@openzeppelin/contracts/token/ERC20/ERC20.sol\":6739:6763  uint256 currentAllowance */\n      0x00\n        /* \"@openzeppelin/contracts/token/ERC20/ERC20.sol\":6766:6791  allowance(owner, spender) */\n      tag_197\n        /* \"@openzeppelin/contracts/token/ERC20/ERC20.sol\":6776:6781  owner */\n      dup3\n        /* \"@openzeppelin/contracts/token/ERC20/ERC20.sol\":6783:6790  spender */\n      dup7\n        /* \"@openzeppelin/contracts/token/ERC20/ERC20.sol\":6766:6775  allowance */\n      tag_99\n        /* \"@openzeppelin/contracts/token/ERC20/ERC20.sol\":6766:6791  allowance(owner, spender) */\n      jump\t// in\n    tag_197:\n        /* \"@openzeppelin/contracts/token/ERC20/ERC20.sol\":6739:6791  uint256 currentAllowance = allowance(owner, spender) */\n      swap1\n      pop\n        /* \"@openzeppelin/contracts/token/ERC20/ERC20.sol\":6829:6844  subtractedValue */\n      dup4\n        /* \"@openzeppelin/contracts/token/ERC20/ERC20.sol\":6809:6825  currentAllowance */\n      dup2\n        /* \"@openzeppelin/contracts/token/ERC20/ERC20.sol\":6809:6844  currentAllowance >= subtractedValue */\n      lt\n      iszero\n        /* \"@openzeppelin/contracts/token/ERC20/ERC20.sol\":6801:6886  require(currentAllowance >= subtractedValue, \"ERC20: decreased allowance below zero\") */\n      tag_198\n      jumpi\n      mload(0x40)\n      0x08c379a000000000000000000000000000000000000000000000000000000000\n      dup2\n      mstore\n      0x04\n      add\n      tag_199\n      swap1\n      tag_200\n      jump\t// in\n    tag_199:\n      mload(0x40)\n      dup1\n      swap2\n      sub\n      swap1\n      revert\n    tag_198:\n        /* \"@openzeppelin/contracts/token/ERC20/ERC20.sol\":6920:6980  _approve(owner, spender, currentAllowance - subtractedValue) */\n      tag_201\n        /* \"@openzeppelin/contracts/token/ERC20/ERC20.sol\":6929:6934  owner */\n      dup3\n        /* \"@openzeppelin/contracts/token/ERC20/ERC20.sol\":6936:6943  spender */\n      dup7\n        /* \"@openzeppelin/contracts/token/ERC20/ERC20.sol\":6964:6979  subtractedValue */\n      dup7\n        /* \"@openzeppelin/contracts/token/ERC20/ERC20.sol\":6945:6961  currentAllowance */\n      dup5\n        /* \"@openzeppelin/contracts/token/ERC20/ERC20.sol\":6945:6979  currentAllowance - subtractedValue */\n      sub\n        /* \"@openzeppelin/contracts/token/ERC20/ERC20.sol\":6920:6928  _approve */\n      tag_115\n        /* \"@openzeppelin/contracts/token/ERC20/ERC20.sol\":6920:6980  _approve(owner, spender, currentAllowance - subtractedValue) */\n      jump\t// in\n    tag_201:\n        /* \"@openzeppelin/contracts/token/ERC20/ERC20.sol\":7008:7012  true */\n      0x01\n        /* \"@openzeppelin/contracts/token/ERC20/ERC20.sol\":7001:7012  return true */\n      swap3\n      pop\n      pop\n      pop\n        /* \"@openzeppelin/contracts/token/ERC20/ERC20.sol\":6592:7019  function decreaseAllowance(address spender, uint256 subtractedValue) public virtual returns (bool) {... */\n      swap3\n      swap2\n      pop\n      pop\n      jump\t// out\n        /* \"@openzeppelin/contracts/token/ERC20/ERC20.sol\":3727:3916  function transfer(address to, uint256 amount) public virtual override returns (bool) {... */\n    tag_91:\n        /* \"@openzeppelin/contracts/token/ERC20/ERC20.sol\":3806:3810  bool */\n      0x00\n        /* \"@openzeppelin/contracts/token/ERC20/ERC20.sol\":3822:3835  address owner */\n      dup1\n        /* \"@openzeppelin/contracts/token/ERC20/ERC20.sol\":3838:3850  _msgSender() */\n      tag_203\n        /* \"@openzeppelin/contracts/token/ERC20/ERC20.sol\":3838:3848  _msgSender */\n      tag_113\n        /* \"@openzeppelin/contracts/token/ERC20/ERC20.sol\":3838:3850  _msgSender() */\n      jump\t// in\n    tag_203:\n        /* \"@openzeppelin/contracts/token/ERC20/ERC20.sol\":3822:3850  address owner = _msgSender() */\n      swap1\n      pop\n        /* \"@openzeppelin/contracts/token/ERC20/ERC20.sol\":3860:3888  _transfer(owner, to, amount) */\n      tag_204\n        /* \"@openzeppelin/contracts/token/ERC20/ERC20.sol\":3870:3875  owner */\n      dup2\n        /* \"@openzeppelin/contracts/token/ERC20/ERC20.sol\":3877:3879  to */\n      dup6\n        /* \"@openzeppelin/contracts/token/ERC20/ERC20.sol\":3881:3887  amount */\n      dup6\n        /* \"@openzeppelin/contracts/token/ERC20/ERC20.sol\":3860:3869  _transfer */\n      tag_155\n        /* \"@openzeppelin/contracts/token/ERC20/ERC20.sol\":3860:3888  _transfer(owner, to, amount) */\n      jump\t// in\n    tag_204:\n        /* \"@openzeppelin/contracts/token/ERC20/ERC20.sol\":3905:3909  true */\n      0x01\n        /* \"@openzeppelin/contracts/token/ERC20/ERC20.sol\":3898:3909  return true */\n      swap2\n      pop\n      pop\n        /* \"@openzeppelin/contracts/token/ERC20/ERC20.sol\":3727:3916  function transfer(address to, uint256 amount) public virtual override returns (bool) {... */\n      swap3\n      swap2\n      pop\n      pop\n      jump\t// out\n        /* \"contracts/MyBond.sol\":962:1478  function issue(uint256 amount) public {... */\n    tag_95:\n        /* \"contracts/MyBond.sol\":1044:1054  maxSupplay */\n      sload(0x08)\n        /* \"contracts/MyBond.sol\":1034:1040  amount */\n      dup2\n        /* \"contracts/MyBond.sol\":1018:1031  totalSupply() */\n      tag_206\n        /* \"contracts/MyBond.sol\":1018:1029  totalSupply */\n      tag_42\n        /* \"contracts/MyBond.sol\":1018:1031  totalSupply() */\n      jump\t// in\n    tag_206:\n        /* \"contracts/MyBond.sol\":1018:1040  totalSupply() + amount */\n      tag_207\n      swap2\n      swap1\n      tag_162\n      jump\t// in\n    tag_207:\n        /* \"contracts/MyBond.sol\":1018:1054  totalSupply() + amount <= maxSupplay */\n      gt\n      iszero\n        /* \"contracts/MyBond.sol\":1010:1069  require(totalSupply() + amount <= maxSupplay, \"Not enough\") */\n      tag_208\n      jumpi\n      mload(0x40)\n      0x08c379a000000000000000000000000000000000000000000000000000000000\n      dup2\n      mstore\n      0x04\n      add\n      tag_209\n      swap1\n      tag_210\n      jump\t// in\n    tag_209:\n      mload(0x40)\n      dup1\n      swap2\n      sub\n      swap1\n      revert\n    tag_208:\n        /* \"contracts/MyBond.sol\":1087:1093  rights */\n      0x06\n      0x00\n      swap1\n      sload\n      swap1\n      0x0100\n      exp\n      swap1\n      div\n      0xffffffffffffffffffffffffffffffffffffffff\n      and\n        /* \"contracts/MyBond.sol\":1087:1103  rights.hasRights */\n      0xffffffffffffffffffffffffffffffffffffffff\n      and\n      0xf35f0f74\n        /* \"contracts/MyBond.sol\":1104:1114  msg.sender */\n      caller\n        /* \"contracts/MembershipRights.sol\":116:119  0x2 */\n      0x02\n        /* \"contracts/MyBond.sol\":1087:1124  rights.hasRights(msg.sender,  HOLDER) */\n      mload(0x40)\n      dup4\n      0xffffffff\n      and\n      0xe0\n      shl\n      dup2\n      mstore\n      0x04\n      add\n      tag_211\n      swap3\n      swap2\n      swap1\n      tag_122\n      jump\t// in\n    tag_211:\n      0x20\n      mload(0x40)\n      dup1\n      dup4\n      sub\n      dup2\n      dup7\n      gas\n      staticcall\n      iszero\n      dup1\n      iszero\n      tag_213\n      jumpi\n      returndatasize\n      0x00\n      dup1\n      returndatacopy\n      revert(0x00, returndatasize)\n    tag_213:\n      pop\n      pop\n      pop\n      pop\n      mload(0x40)\n      returndatasize\n      not(0x1f)\n      0x1f\n      dup3\n      add\n      and\n      dup3\n      add\n      dup1\n      0x40\n      mstore\n      pop\n      dup2\n      add\n      swap1\n      tag_214\n      swap2\n      swap1\n      tag_126\n      jump\t// in\n    tag_214:\n        /* \"contracts/MyBond.sol\":1079:1141  require(rights.hasRights(msg.sender,  HOLDER), \"Not a holder\") */\n      tag_215\n      jumpi\n      mload(0x40)\n      0x08c379a000000000000000000000000000000000000000000000000000000000\n      dup2\n      mstore\n      0x04\n      add\n      tag_216\n      swap1\n      tag_129\n      jump\t// in\n    tag_216:\n      mload(0x40)\n      dup1\n      swap2\n      sub\n      swap1\n      revert\n    tag_215:\n        /* \"contracts/MyBond.sol\":1168:1169  0 */\n      0x00\n        /* \"contracts/MyBond.sol\":1159:1165  amount */\n      dup2\n        /* \"contracts/MyBond.sol\":1159:1169  amount > 0 */\n      gt\n        /* \"contracts/MyBond.sol\":1151:1185  require(amount > 0 , \"Ammount> 0\") */\n      tag_217\n      jumpi\n      mload(0x40)\n      0x08c379a000000000000000000000000000000000000000000000000000000000\n      dup2\n      mstore\n      0x04\n      add\n      tag_218\n      swap1\n      tag_132\n      jump\t// in\n    tag_218:\n      mload(0x40)\n      dup1\n      swap2\n      sub\n      swap1\n      revert\n    tag_217:\n        /* \"contracts/MyBond.sol\":1243:1253  multiplier */\n      sload(0x09)\n        /* \"contracts/MyBond.sol\":1234:1240  amount */\n      dup2\n        /* \"contracts/MyBond.sol\":1234:1253  amount * multiplier */\n      tag_219\n      swap2\n      swap1\n      tag_134\n      jump\t// in\n    tag_219:\n        /* \"contracts/MyBond.sol\":1203:1208  money */\n      0x07\n      0x00\n      swap1\n      sload\n      swap1\n      0x0100\n      exp\n      swap1\n      div\n      0xffffffffffffffffffffffffffffffffffffffff\n      and\n        /* \"contracts/MyBond.sol\":1203:1218  money.balanceOf */\n      0xffffffffffffffffffffffffffffffffffffffff\n      and\n      0x70a08231\n        /* \"contracts/MyBond.sol\":1219:1229  msg.sender */\n      caller\n        /* \"contracts/MyBond.sol\":1203:1230  money.balanceOf(msg.sender) */\n      mload(0x40)\n      dup3\n      0xffffffff\n      and\n      0xe0\n      shl\n      dup2\n      mstore\n      0x04\n      add\n      tag_220\n      swap2\n      swap1\n      tag_81\n      jump\t// in\n    tag_220:\n      0x20\n      mload(0x40)\n      dup1\n      dup4\n      sub\n      dup2\n      dup7\n      gas\n      staticcall\n      iszero\n      dup1\n      iszero\n      tag_222\n      jumpi\n      returndatasize\n      0x00\n      dup1\n      returndatacopy\n      revert(0x00, returndatasize)\n    tag_222:\n      pop\n      pop\n      pop\n      pop\n      mload(0x40)\n      returndatasize\n      not(0x1f)\n      0x1f\n      dup3\n      add\n      and\n      dup3\n      add\n      dup1\n      0x40\n      mstore\n      pop\n      dup2\n      add\n      swap1\n      tag_223\n      swap2\n      swap1\n      tag_139\n      jump\t// in\n    tag_223:\n        /* \"contracts/MyBond.sol\":1203:1253  money.balanceOf(msg.sender) >= amount * multiplier */\n      lt\n      iszero\n        /* \"contracts/MyBond.sol\":1195:1254  require(money.balanceOf(msg.sender) >= amount * multiplier) */\n      tag_224\n      jumpi\n      0x00\n      dup1\n      revert\n    tag_224:\n        /* \"contracts/MyBond.sol\":1327:1337  multiplier */\n      sload(0x09)\n        /* \"contracts/MyBond.sol\":1318:1324  amount */\n      dup2\n        /* \"contracts/MyBond.sol\":1318:1337  amount * multiplier */\n      tag_225\n      swap2\n      swap1\n      tag_134\n      jump\t// in\n    tag_225:\n        /* \"contracts/MyBond.sol\":1272:1277  money */\n      0x07\n      0x00\n      swap1\n      sload\n      swap1\n      0x0100\n      exp\n      swap1\n      div\n      0xffffffffffffffffffffffffffffffffffffffff\n      and\n        /* \"contracts/MyBond.sol\":1272:1287  money.allowance */\n      0xffffffffffffffffffffffffffffffffffffffff\n      and\n      0xdd62ed3e\n        /* \"contracts/MyBond.sol\":1288:1298  msg.sender */\n      caller\n        /* \"contracts/MyBond.sol\":1308:1312  this */\n      address\n        /* \"contracts/MyBond.sol\":1272:1314  money.allowance(msg.sender, address(this)) */\n      mload(0x40)\n      dup4\n      0xffffffff\n      and\n      0xe0\n      shl\n      dup2\n      mstore\n      0x04\n      add\n      tag_226\n      swap3\n      swap2\n      swap1\n      tag_227\n      jump\t// in\n    tag_226:\n      0x20\n      mload(0x40)\n      dup1\n      dup4\n      sub\n      dup2\n      dup7\n      gas\n      staticcall\n      iszero\n      dup1\n      iszero\n      tag_229\n      jumpi\n      returndatasize\n      0x00\n      dup1\n      returndatacopy\n      revert(0x00, returndatasize)\n    tag_229:\n      pop\n      pop\n      pop\n      pop\n      mload(0x40)\n      returndatasize\n      not(0x1f)\n      0x1f\n      dup3\n      add\n      and\n      dup3\n      add\n      dup1\n      0x40\n      mstore\n      pop\n      dup2\n      add\n      swap1\n      tag_230\n      swap2\n      swap1\n      tag_139\n      jump\t// in\n    tag_230:\n        /* \"contracts/MyBond.sol\":1272:1337  money.allowance(msg.sender, address(this)) >= amount * multiplier */\n      lt\n      iszero\n        /* \"contracts/MyBond.sol\":1264:1359  require(money.allowance(msg.sender, address(this)) >= amount * multiplier, \"Allowance too low\") */\n      tag_231\n      jumpi\n      mload(0x40)\n      0x08c379a000000000000000000000000000000000000000000000000000000000\n      dup2\n      mstore\n      0x04\n      add\n      tag_232\n      swap1\n      tag_233\n      jump\t// in\n    tag_232:\n      mload(0x40)\n      dup1\n      swap2\n      sub\n      swap1\n      revert\n    tag_231:\n        /* \"contracts/MyBond.sol\":1369:1394  _mint(msg.sender, amount) */\n      tag_234\n        /* \"contracts/MyBond.sol\":1375:1385  msg.sender */\n      caller\n        /* \"contracts/MyBond.sol\":1387:1393  amount */\n      dup3\n        /* \"contracts/MyBond.sol\":1369:1374  _mint */\n      tag_235\n        /* \"contracts/MyBond.sol\":1369:1394  _mint(msg.sender, amount) */\n      jump\t// in\n    tag_234:\n        /* \"contracts/MyBond.sol\":1404:1409  money */\n      0x07\n      0x00\n      swap1\n      sload\n      swap1\n      0x0100\n      exp\n      swap1\n      div\n      0xffffffffffffffffffffffffffffffffffffffff\n      and\n        /* \"contracts/MyBond.sol\":1404:1422  money.transferFrom */\n      0xffffffffffffffffffffffffffffffffffffffff\n      and\n      0x23b872dd\n        /* \"contracts/MyBond.sol\":1423:1433  msg.sender */\n      caller\n        /* \"contracts/MyBond.sol\":1443:1447  this */\n      address\n        /* \"contracts/MyBond.sol\":1459:1469  multiplier */\n      sload(0x09)\n        /* \"contracts/MyBond.sol\":1450:1456  amount */\n      dup6\n        /* \"contracts/MyBond.sol\":1450:1469  amount * multiplier */\n      tag_236\n      swap2\n      swap1\n      tag_134\n      jump\t// in\n    tag_236:\n        /* \"contracts/MyBond.sol\":1404:1470  money.transferFrom(msg.sender, address(this), amount * multiplier) */\n      mload(0x40)\n      dup5\n      0xffffffff\n      and\n      0xe0\n      shl\n      dup2\n      mstore\n      0x04\n      add\n      tag_237\n      swap4\n      swap3\n      swap2\n      swap1\n      tag_145\n      jump\t// in\n    tag_237:\n      0x20\n      mload(0x40)\n      dup1\n      dup4\n      sub\n      dup2\n      0x00\n      dup8\n      gas\n      call\n      iszero\n      dup1\n      iszero\n      tag_239\n      jumpi\n      returndatasize\n      0x00\n      dup1\n      returndatacopy\n      revert(0x00, returndatasize)\n    tag_239:\n      pop\n      pop\n      pop\n      pop\n      mload(0x40)\n      returndatasize\n      not(0x1f)\n      0x1f\n      dup3\n      add\n      and\n      dup3\n      add\n      dup1\n      0x40\n      mstore\n      pop\n      dup2\n      add\n      swap1\n      tag_240\n      swap2\n      swap1\n      tag_126\n      jump\t// in\n    tag_240:\n      pop\n        /* \"contracts/MyBond.sol\":962:1478  function issue(uint256 amount) public {... */\n      pop\n      jump\t// out\n        /* \"@openzeppelin/contracts/token/ERC20/ERC20.sol\":3974:4123  function allowance(address owner, address spender) public view virtual override returns (uint256) {... */\n    tag_99:\n        /* \"@openzeppelin/contracts/token/ERC20/ERC20.sol\":4063:4070  uint256 */\n      0x00\n        /* \"@openzeppelin/contracts/token/ERC20/ERC20.sol\":4089:4100  _allowances */\n      0x01\n        /* \"@openzeppelin/contracts/token/ERC20/ERC20.sol\":4089:4107  _allowances[owner] */\n      0x00\n        /* \"@openzeppelin/contracts/token/ERC20/ERC20.sol\":4101:4106  owner */\n      dup5\n        /* \"@openzeppelin/contracts/token/ERC20/ERC20.sol\":4089:4107  _allowances[owner] */\n      0xffffffffffffffffffffffffffffffffffffffff\n      and\n      0xffffffffffffffffffffffffffffffffffffffff\n      and\n      dup2\n      mstore\n      0x20\n      add\n      swap1\n      dup2\n      mstore\n      0x20\n      add\n      0x00\n      keccak256\n        /* \"@openzeppelin/contracts/token/ERC20/ERC20.sol\":4089:4116  _allowances[owner][spender] */\n      0x00\n        /* \"@openzeppelin/contracts/token/ERC20/ERC20.sol\":4108:4115  spender */\n      dup4\n        /* \"@openzeppelin/contracts/token/ERC20/ERC20.sol\":4089:4116  _allowances[owner][spender] */\n      0xffffffffffffffffffffffffffffffffffffffff\n      and\n      0xffffffffffffffffffffffffffffffffffffffff\n      and\n      dup2\n      mstore\n      0x20\n      add\n      swap1\n      dup2\n      mstore\n      0x20\n      add\n      0x00\n      keccak256\n      sload\n        /* \"@openzeppelin/contracts/token/ERC20/ERC20.sol\":4082:4116  return _allowances[owner][spender] */\n      swap1\n      pop\n        /* \"@openzeppelin/contracts/token/ERC20/ERC20.sol\":3974:4123  function allowance(address owner, address spender) public view virtual override returns (uint256) {... */\n      swap3\n      swap2\n      pop\n      pop\n      jump\t// out\n        /* \"@openzeppelin/contracts/access/Ownable.sol\":2081:2279  function transferOwnership(address newOwner) public virtual onlyOwner {... */\n    tag_103:\n        /* \"@openzeppelin/contracts/access/Ownable.sol\":1094:1107  _checkOwner() */\n      tag_243\n        /* \"@openzeppelin/contracts/access/Ownable.sol\":1094:1105  _checkOwner */\n      tag_165\n        /* \"@openzeppelin/contracts/access/Ownable.sol\":1094:1107  _checkOwner() */\n      jump\t// in\n    tag_243:\n        /* \"@openzeppelin/contracts/access/Ownable.sol\":2189:2190  0 */\n      0x00\n        /* \"@openzeppelin/contracts/access/Ownable.sol\":2169:2191  newOwner != address(0) */\n      0xffffffffffffffffffffffffffffffffffffffff\n      and\n        /* \"@openzeppelin/contracts/access/Ownable.sol\":2169:2177  newOwner */\n      dup2\n        /* \"@openzeppelin/contracts/access/Ownable.sol\":2169:2191  newOwner != address(0) */\n      0xffffffffffffffffffffffffffffffffffffffff\n      and\n      sub\n        /* \"@openzeppelin/contracts/access/Ownable.sol\":2161:2234  require(newOwner != address(0), \"Ownable: new owner is the zero address\") */\n      tag_245\n      jumpi\n      mload(0x40)\n      0x08c379a000000000000000000000000000000000000000000000000000000000\n      dup2\n      mstore\n      0x04\n      add\n      tag_246\n      swap1\n      tag_247\n      jump\t// in\n    tag_246:\n      mload(0x40)\n      dup1\n      swap2\n      sub\n      swap1\n      revert\n    tag_245:\n        /* \"@openzeppelin/contracts/access/Ownable.sol\":2244:2272  _transferOwnership(newOwner) */\n      tag_248\n        /* \"@openzeppelin/contracts/access/Ownable.sol\":2263:2271  newOwner */\n      dup2\n        /* \"@openzeppelin/contracts/access/Ownable.sol\":2244:2262  _transferOwnership */\n      tag_178\n        /* \"@openzeppelin/contracts/access/Ownable.sol\":2244:2272  _transferOwnership(newOwner) */\n      jump\t// in\n    tag_248:\n        /* \"@openzeppelin/contracts/access/Ownable.sol\":2081:2279  function transferOwnership(address newOwner) public virtual onlyOwner {... */\n      pop\n      jump\t// out\n        /* \"@openzeppelin/contracts/utils/Context.sol\":640:736  function _msgSender() internal view virtual returns (address) {... */\n    tag_113:\n        /* \"@openzeppelin/contracts/utils/Context.sol\":693:700  address */\n      0x00\n        /* \"@openzeppelin/contracts/utils/Context.sol\":719:729  msg.sender */\n      caller\n        /* \"@openzeppelin/contracts/utils/Context.sol\":712:729  return msg.sender */\n      swap1\n      pop\n        /* \"@openzeppelin/contracts/utils/Context.sol\":640:736  function _msgSender() internal view virtual returns (address) {... */\n      swap1\n      jump\t// out\n        /* \"@openzeppelin/contracts/token/ERC20/ERC20.sol\":10504:10874  function _approve(... */\n    tag_115:\n        /* \"@openzeppelin/contracts/token/ERC20/ERC20.sol\":10652:10653  0 */\n      0x00\n        /* \"@openzeppelin/contracts/token/ERC20/ERC20.sol\":10635:10654  owner != address(0) */\n      0xffffffffffffffffffffffffffffffffffffffff\n      and\n        /* \"@openzeppelin/contracts/token/ERC20/ERC20.sol\":10635:10640  owner */\n      dup4\n        /* \"@openzeppelin/contracts/token/ERC20/ERC20.sol\":10635:10654  owner != address(0) */\n      0xffffffffffffffffffffffffffffffffffffffff\n      and\n      sub\n        /* \"@openzeppelin/contracts/token/ERC20/ERC20.sol\":10627:10695  require(owner != address(0), \"ERC20: approve from the zero address\") */\n      tag_251\n      jumpi\n      mload(0x40)\n      0x08c379a000000000000000000000000000000000000000000000000000000000\n      dup2\n      mstore\n      0x04\n      add\n      tag_252\n      swap1\n      tag_253\n      jump\t// in\n    tag_252:\n      mload(0x40)\n      dup1\n      swap2\n      sub\n      swap1\n      revert\n    tag_251:\n        /* \"@openzeppelin/contracts/token/ERC20/ERC20.sol\":10732:10733  0 */\n      0x00\n        /* \"@openzeppelin/contracts/token/ERC20/ERC20.sol\":10713:10734  spender != address(0) */\n      0xffffffffffffffffffffffffffffffffffffffff\n      and\n        /* \"@openzeppelin/contracts/token/ERC20/ERC20.sol\":10713:10720  spender */\n      dup3\n        /* \"@openzeppelin/contracts/token/ERC20/ERC20.sol\":10713:10734  spender != address(0) */\n      0xffffffffffffffffffffffffffffffffffffffff\n      and\n      sub\n        /* \"@openzeppelin/contracts/token/ERC20/ERC20.sol\":10705:10773  require(spender != address(0), \"ERC20: approve to the zero address\") */\n      tag_254\n      jumpi\n      mload(0x40)\n      0x08c379a000000000000000000000000000000000000000000000000000000000\n      dup2\n      mstore\n      0x04\n      add\n      tag_255\n      swap1\n      tag_256\n      jump\t// in\n    tag_255:\n      mload(0x40)\n      dup1\n      swap2\n      sub\n      swap1\n      revert\n    tag_254:\n        /* \"@openzeppelin/contracts/token/ERC20/ERC20.sol\":10814:10820  amount */\n      dup1\n        /* \"@openzeppelin/contracts/token/ERC20/ERC20.sol\":10784:10795  _allowances */\n      0x01\n        /* \"@openzeppelin/contracts/token/ERC20/ERC20.sol\":10784:10802  _allowances[owner] */\n      0x00\n        /* \"@openzeppelin/contracts/token/ERC20/ERC20.sol\":10796:10801  owner */\n      dup6\n        /* \"@openzeppelin/contracts/token/ERC20/ERC20.sol\":10784:10802  _allowances[owner] */\n      0xffffffffffffffffffffffffffffffffffffffff\n      and\n      0xffffffffffffffffffffffffffffffffffffffff\n      and\n      dup2\n      mstore\n      0x20\n      add\n      swap1\n      dup2\n      mstore\n      0x20\n      add\n      0x00\n      keccak256\n        /* \"@openzeppelin/contracts/token/ERC20/ERC20.sol\":10784:10811  _allowances[owner][spender] */\n      0x00\n        /* \"@openzeppelin/contracts/token/ERC20/ERC20.sol\":10803:10810  spender */\n      dup5\n        /* \"@openzeppelin/contracts/token/ERC20/ERC20.sol\":10784:10811  _allowances[owner][spender] */\n      0xffffffffffffffffffffffffffffffffffffffff\n      and\n      0xffffffffffffffffffffffffffffffffffffffff\n      and\n      dup2\n      mstore\n      0x20\n      add\n      swap1\n      dup2\n      mstore\n      0x20\n      add\n      0x00\n      keccak256\n        /* \"@openzeppelin/contracts/token/ERC20/ERC20.sol\":10784:10820  _allowances[owner][spender] = amount */\n      dup2\n      swap1\n      sstore\n      pop\n        /* \"@openzeppelin/contracts/token/ERC20/ERC20.sol\":10851:10858  spender */\n      dup2\n        /* \"@openzeppelin/contracts/token/ERC20/ERC20.sol\":10835:10867  Approval(owner, spender, amount) */\n      0xffffffffffffffffffffffffffffffffffffffff\n      and\n        /* \"@openzeppelin/contracts/token/ERC20/ERC20.sol\":10844:10849  owner */\n      dup4\n        /* \"@openzeppelin/contracts/token/ERC20/ERC20.sol\":10835:10867  Approval(owner, spender, amount) */\n      0xffffffffffffffffffffffffffffffffffffffff\n      and\n      0x8c5be1e5ebec7d5bd14f71427d1e84f3dd0314c0f7b2291e5b200ac8c7c3b925\n        /* \"@openzeppelin/contracts/token/ERC20/ERC20.sol\":10860:10866  amount */\n      dup4\n        /* \"@openzeppelin/contracts/token/ERC20/ERC20.sol\":10835:10867  Approval(owner, spender, amount) */\n      mload(0x40)\n      tag_257\n      swap2\n      swap1\n      tag_44\n      jump\t// in\n    tag_257:\n      mload(0x40)\n      dup1\n      swap2\n      sub\n      swap1\n      log3\n        /* \"@openzeppelin/contracts/token/ERC20/ERC20.sol\":10504:10874  function _approve(... */\n      pop\n      pop\n      pop\n      jump\t// out\n        /* \"@openzeppelin/contracts/token/ERC20/ERC20.sol\":9422:10081  function _burn(address account, uint256 amount) internal virtual {... */\n    tag_142:\n        /* \"@openzeppelin/contracts/token/ERC20/ERC20.sol\":9524:9525  0 */\n      0x00\n        /* \"@openzeppelin/contracts/token/ERC20/ERC20.sol\":9505:9526  account != address(0) */\n      0xffffffffffffffffffffffffffffffffffffffff\n      and\n        /* \"@openzeppelin/contracts/token/ERC20/ERC20.sol\":9505:9512  account */\n      dup3\n        /* \"@openzeppelin/contracts/token/ERC20/ERC20.sol\":9505:9526  account != address(0) */\n      0xffffffffffffffffffffffffffffffffffffffff\n      and\n      sub\n        /* \"@openzeppelin/contracts/token/ERC20/ERC20.sol\":9497:9564  require(account != address(0), \"ERC20: burn from the zero address\") */\n      tag_259\n      jumpi\n      mload(0x40)\n      0x08c379a000000000000000000000000000000000000000000000000000000000\n      dup2\n      mstore\n      0x04\n      add\n      tag_260\n      swap1\n      tag_261\n      jump\t// in\n    tag_260:\n      mload(0x40)\n      dup1\n      swap2\n      sub\n      swap1\n      revert\n    tag_259:\n        /* \"@openzeppelin/contracts/token/ERC20/ERC20.sol\":9575:9624  _beforeTokenTransfer(account, address(0), amount) */\n      tag_262\n        /* \"@openzeppelin/contracts/token/ERC20/ERC20.sol\":9596:9603  account */\n      dup3\n        /* \"@openzeppelin/contracts/token/ERC20/ERC20.sol\":9613:9614  0 */\n      0x00\n        /* \"@openzeppelin/contracts/token/ERC20/ERC20.sol\":9617:9623  amount */\n      dup4\n        /* \"@openzeppelin/contracts/token/ERC20/ERC20.sol\":9575:9595  _beforeTokenTransfer */\n      tag_263\n        /* \"@openzeppelin/contracts/token/ERC20/ERC20.sol\":9575:9624  _beforeTokenTransfer(account, address(0), amount) */\n      jump\t// in\n    tag_262:\n        /* \"@openzeppelin/contracts/token/ERC20/ERC20.sol\":9635:9657  uint256 accountBalance */\n      0x00\n        /* \"@openzeppelin/contracts/token/ERC20/ERC20.sol\":9660:9669  _balances */\n      dup1\n        /* \"@openzeppelin/contracts/token/ERC20/ERC20.sol\":9660:9678  _balances[account] */\n      0x00\n        /* \"@openzeppelin/contracts/token/ERC20/ERC20.sol\":9670:9677  account */\n      dup5\n        /* \"@openzeppelin/contracts/token/ERC20/ERC20.sol\":9660:9678  _balances[account] */\n      0xffffffffffffffffffffffffffffffffffffffff\n      and\n      0xffffffffffffffffffffffffffffffffffffffff\n      and\n      dup2\n      mstore\n      0x20\n      add\n      swap1\n      dup2\n      mstore\n      0x20\n      add\n      0x00\n      keccak256\n      sload\n        /* \"@openzeppelin/contracts/token/ERC20/ERC20.sol\":9635:9678  uint256 accountBalance = _balances[account] */\n      swap1\n      pop\n        /* \"@openzeppelin/contracts/token/ERC20/ERC20.sol\":9714:9720  amount */\n      dup2\n        /* \"@openzeppelin/contracts/token/ERC20/ERC20.sol\":9696:9710  accountBalance */\n      dup2\n        /* \"@openzeppelin/contracts/token/ERC20/ERC20.sol\":9696:9720  accountBalance >= amount */\n      lt\n      iszero\n        /* \"@openzeppelin/contracts/token/ERC20/ERC20.sol\":9688:9759  require(accountBalance >= amount, \"ERC20: burn amount exceeds balance\") */\n      tag_264\n      jumpi\n      mload(0x40)\n      0x08c379a000000000000000000000000000000000000000000000000000000000\n      dup2\n      mstore\n      0x04\n      add\n      tag_265\n      swap1\n      tag_266\n      jump\t// in\n    tag_265:\n      mload(0x40)\n      dup1\n      swap2\n      sub\n      swap1\n      revert\n    tag_264:\n        /* \"@openzeppelin/contracts/token/ERC20/ERC20.sol\":9831:9837  amount */\n      dup2\n        /* \"@openzeppelin/contracts/token/ERC20/ERC20.sol\":9814:9828  accountBalance */\n      dup2\n        /* \"@openzeppelin/contracts/token/ERC20/ERC20.sol\":9814:9837  accountBalance - amount */\n      sub\n        /* \"@openzeppelin/contracts/token/ERC20/ERC20.sol\":9793:9802  _balances */\n      0x00\n        /* \"@openzeppelin/contracts/token/ERC20/ERC20.sol\":9793:9811  _balances[account] */\n      dup1\n        /* \"@openzeppelin/contracts/token/ERC20/ERC20.sol\":9803:9810  account */\n      dup6\n        /* \"@openzeppelin/contracts/token/ERC20/ERC20.sol\":9793:9811  _balances[account] */\n      0xffffffffffffffffffffffffffffffffffffffff\n      and\n      0xffffffffffffffffffffffffffffffffffffffff\n      and\n      dup2\n      mstore\n      0x20\n      add\n      swap1\n      dup2\n      mstore\n      0x20\n      add\n      0x00\n      keccak256\n        /* \"@openzeppelin/contracts/token/ERC20/ERC20.sol\":9793:9837  _balances[account] = accountBalance - amount */\n      dup2\n      swap1\n      sstore\n      pop\n        /* \"@openzeppelin/contracts/token/ERC20/ERC20.sol\":9946:9952  amount */\n      dup2\n        /* \"@openzeppelin/contracts/token/ERC20/ERC20.sol\":9930:9942  _totalSupply */\n      0x02\n      0x00\n        /* \"@openzeppelin/contracts/token/ERC20/ERC20.sol\":9930:9952  _totalSupply -= amount */\n      dup3\n      dup3\n      sload\n      sub\n      swap3\n      pop\n      pop\n      dup2\n      swap1\n      sstore\n      pop\n        /* \"@openzeppelin/contracts/token/ERC20/ERC20.sol\":10004:10005  0 */\n      0x00\n        /* \"@openzeppelin/contracts/token/ERC20/ERC20.sol\":9978:10015  Transfer(account, address(0), amount) */\n      0xffffffffffffffffffffffffffffffffffffffff\n      and\n        /* \"@openzeppelin/contracts/token/ERC20/ERC20.sol\":9987:9994  account */\n      dup4\n        /* \"@openzeppelin/contracts/token/ERC20/ERC20.sol\":9978:10015  Transfer(account, address(0), amount) */\n      0xffffffffffffffffffffffffffffffffffffffff\n      and\n      0xddf252ad1be2c89b69c2b068fc378daa952ba7f163c4a11628f55a4df523b3ef\n        /* \"@openzeppelin/contracts/token/ERC20/ERC20.sol\":10008:10014  amount */\n      dup5\n        /* \"@openzeppelin/contracts/token/ERC20/ERC20.sol\":9978:10015  Transfer(account, address(0), amount) */\n      mload(0x40)\n      tag_267\n      swap2\n      swap1\n      tag_44\n      jump\t// in\n    tag_267:\n      mload(0x40)\n      dup1\n      swap2\n      sub\n      swap1\n      log3\n        /* \"@openzeppelin/contracts/token/ERC20/ERC20.sol\":10026:10074  _afterTokenTransfer(account, address(0), amount) */\n      tag_268\n        /* \"@openzeppelin/contracts/token/ERC20/ERC20.sol\":10046:10053  account */\n      dup4\n        /* \"@openzeppelin/contracts/token/ERC20/ERC20.sol\":10063:10064  0 */\n      0x00\n        /* \"@openzeppelin/contracts/token/ERC20/ERC20.sol\":10067:10073  amount */\n      dup5\n        /* \"@openzeppelin/contracts/token/ERC20/ERC20.sol\":10026:10045  _afterTokenTransfer */\n      tag_269\n        /* \"@openzeppelin/contracts/token/ERC20/ERC20.sol\":10026:10074  _afterTokenTransfer(account, address(0), amount) */\n      jump\t// in\n    tag_268:\n        /* \"@openzeppelin/contracts/token/ERC20/ERC20.sol\":9487:10081  {... */\n      pop\n        /* \"@openzeppelin/contracts/token/ERC20/ERC20.sol\":9422:10081  function _burn(address account, uint256 amount) internal virtual {... */\n      pop\n      pop\n      jump\t// out\n        /* \"@openzeppelin/contracts/token/ERC20/ERC20.sol\":11155:11596  function _spendAllowance(... */\n    tag_153:\n        /* \"@openzeppelin/contracts/token/ERC20/ERC20.sol\":11285:11309  uint256 currentAllowance */\n      0x00\n        /* \"@openzeppelin/contracts/token/ERC20/ERC20.sol\":11312:11337  allowance(owner, spender) */\n      tag_271\n        /* \"@openzeppelin/contracts/token/ERC20/ERC20.sol\":11322:11327  owner */\n      dup5\n        /* \"@openzeppelin/contracts/token/ERC20/ERC20.sol\":11329:11336  spender */\n      dup5\n        /* \"@openzeppelin/contracts/token/ERC20/ERC20.sol\":11312:11321  allowance */\n      tag_99\n        /* \"@openzeppelin/contracts/token/ERC20/ERC20.sol\":11312:11337  allowance(owner, spender) */\n      jump\t// in\n    tag_271:\n        /* \"@openzeppelin/contracts/token/ERC20/ERC20.sol\":11285:11337  uint256 currentAllowance = allowance(owner, spender) */\n      swap1\n      pop\n        /* \"@openzeppelin/contracts/token/ERC20/ERC20.sol\":11371:11388  type(uint256).max */\n      0xffffffffffffffffffffffffffffffffffffffffffffffffffffffffffffffff\n        /* \"@openzeppelin/contracts/token/ERC20/ERC20.sol\":11351:11367  currentAllowance */\n      dup2\n        /* \"@openzeppelin/contracts/token/ERC20/ERC20.sol\":11351:11388  currentAllowance != type(uint256).max */\n      eq\n        /* \"@openzeppelin/contracts/token/ERC20/ERC20.sol\":11347:11590  if (currentAllowance != type(uint256).max) {... */\n      tag_272\n      jumpi\n        /* \"@openzeppelin/contracts/token/ERC20/ERC20.sol\":11432:11438  amount */\n      dup2\n        /* \"@openzeppelin/contracts/token/ERC20/ERC20.sol\":11412:11428  currentAllowance */\n      dup2\n        /* \"@openzeppelin/contracts/token/ERC20/ERC20.sol\":11412:11438  currentAllowance >= amount */\n      lt\n      iszero\n        /* \"@openzeppelin/contracts/token/ERC20/ERC20.sol\":11404:11472  require(currentAllowance >= amount, \"ERC20: insufficient allowance\") */\n      tag_273\n      jumpi\n      mload(0x40)\n      0x08c379a000000000000000000000000000000000000000000000000000000000\n      dup2\n      mstore\n      0x04\n      add\n      tag_274\n      swap1\n      tag_275\n      jump\t// in\n    tag_274:\n      mload(0x40)\n      dup1\n      swap2\n      sub\n      swap1\n      revert\n    tag_273:\n        /* \"@openzeppelin/contracts/token/ERC20/ERC20.sol\":11514:11565  _approve(owner, spender, currentAllowance - amount) */\n      tag_276\n        /* \"@openzeppelin/contracts/token/ERC20/ERC20.sol\":11523:11528  owner */\n      dup5\n        /* \"@openzeppelin/contracts/token/ERC20/ERC20.sol\":11530:11537  spender */\n      dup5\n        /* \"@openzeppelin/contracts/token/ERC20/ERC20.sol\":11558:11564  amount */\n      dup5\n        /* \"@openzeppelin/contracts/token/ERC20/ERC20.sol\":11539:11555  currentAllowance */\n      dup5\n        /* \"@openzeppelin/contracts/token/ERC20/ERC20.sol\":11539:11564  currentAllowance - amount */\n      sub\n        /* \"@openzeppelin/contracts/token/ERC20/ERC20.sol\":11514:11522  _approve */\n      tag_115\n        /* \"@openzeppelin/contracts/token/ERC20/ERC20.sol\":11514:11565  _approve(owner, spender, currentAllowance - amount) */\n      jump\t// in\n    tag_276:\n        /* \"@openzeppelin/contracts/token/ERC20/ERC20.sol\":11347:11590  if (currentAllowance != type(uint256).max) {... */\n    tag_272:\n        /* \"@openzeppelin/contracts/token/ERC20/ERC20.sol\":11275:11596  {... */\n      pop\n        /* \"@openzeppelin/contracts/token/ERC20/ERC20.sol\":11155:11596  function _spendAllowance(... */\n      pop\n      pop\n      pop\n      jump\t// out\n        /* \"@openzeppelin/contracts/token/ERC20/ERC20.sol\":7473:8291  function _transfer(... */\n    tag_155:\n        /* \"@openzeppelin/contracts/token/ERC20/ERC20.sol\":7615:7616  0 */\n      0x00\n        /* \"@openzeppelin/contracts/token/ERC20/ERC20.sol\":7599:7617  from != address(0) */\n      0xffffffffffffffffffffffffffffffffffffffff\n      and\n        /* \"@openzeppelin/contracts/token/ERC20/ERC20.sol\":7599:7603  from */\n      dup4\n        /* \"@openzeppelin/contracts/token/ERC20/ERC20.sol\":7599:7617  from != address(0) */\n      0xffffffffffffffffffffffffffffffffffffffff\n      and\n      sub\n        /* \"@openzeppelin/contracts/token/ERC20/ERC20.sol\":7591:7659  require(from != address(0), \"ERC20: transfer from the zero address\") */\n      tag_278\n      jumpi\n      mload(0x40)\n      0x08c379a000000000000000000000000000000000000000000000000000000000\n      dup2\n      mstore\n      0x04\n      add\n      tag_279\n      swap1\n      tag_280\n      jump\t// in\n    tag_279:\n      mload(0x40)\n      dup1\n      swap2\n      sub\n      swap1\n      revert\n    tag_278:\n        /* \"@openzeppelin/contracts/token/ERC20/ERC20.sol\":7691:7692  0 */\n      0x00\n        /* \"@openzeppelin/contracts/token/ERC20/ERC20.sol\":7677:7693  to != address(0) */\n      0xffffffffffffffffffffffffffffffffffffffff\n      and\n        /* \"@openzeppelin/contracts/token/ERC20/ERC20.sol\":7677:7679  to */\n      dup3\n        /* \"@openzeppelin/contracts/token/ERC20/ERC20.sol\":7677:7693  to != address(0) */\n      0xffffffffffffffffffffffffffffffffffffffff\n      and\n      sub\n        /* \"@openzeppelin/contracts/token/ERC20/ERC20.sol\":7669:7733  require(to != address(0), \"ERC20: transfer to the zero address\") */\n      tag_281\n      jumpi\n      mload(0x40)\n      0x08c379a000000000000000000000000000000000000000000000000000000000\n      dup2\n      mstore\n      0x04\n      add\n      tag_282\n      swap1\n      tag_283\n      jump\t// in\n    tag_282:\n      mload(0x40)\n      dup1\n      swap2\n      sub\n      swap1\n      revert\n    tag_281:\n        /* \"@openzeppelin/contracts/token/ERC20/ERC20.sol\":7744:7782  _beforeTokenTransfer(from, to, amount) */\n      tag_284\n        /* \"@openzeppelin/contracts/token/ERC20/ERC20.sol\":7765:7769  from */\n      dup4\n        /* \"@openzeppelin/contracts/token/ERC20/ERC20.sol\":7771:7773  to */\n      dup4\n        /* \"@openzeppelin/contracts/token/ERC20/ERC20.sol\":7775:7781  amount */\n      dup4\n        /* \"@openzeppelin/contracts/token/ERC20/ERC20.sol\":7744:7764  _beforeTokenTransfer */\n      tag_263\n        /* \"@openzeppelin/contracts/token/ERC20/ERC20.sol\":7744:7782  _beforeTokenTransfer(from, to, amount) */\n      jump\t// in\n    tag_284:\n        /* \"@openzeppelin/contracts/token/ERC20/ERC20.sol\":7793:7812  uint256 fromBalance */\n      0x00\n        /* \"@openzeppelin/contracts/token/ERC20/ERC20.sol\":7815:7824  _balances */\n      dup1\n        /* \"@openzeppelin/contracts/token/ERC20/ERC20.sol\":7815:7830  _balances[from] */\n      0x00\n        /* \"@openzeppelin/contracts/token/ERC20/ERC20.sol\":7825:7829  from */\n      dup6\n        /* \"@openzeppelin/contracts/token/ERC20/ERC20.sol\":7815:7830  _balances[from] */\n      0xffffffffffffffffffffffffffffffffffffffff\n      and\n      0xffffffffffffffffffffffffffffffffffffffff\n      and\n      dup2\n      mstore\n      0x20\n      add\n      swap1\n      dup2\n      mstore\n      0x20\n      add\n      0x00\n      keccak256\n      sload\n        /* \"@openzeppelin/contracts/token/ERC20/ERC20.sol\":7793:7830  uint256 fromBalance = _balances[from] */\n      swap1\n      pop\n        /* \"@openzeppelin/contracts/token/ERC20/ERC20.sol\":7863:7869  amount */\n      dup2\n        /* \"@openzeppelin/contracts/token/ERC20/ERC20.sol\":7848:7859  fromBalance */\n      dup2\n        /* \"@openzeppelin/contracts/token/ERC20/ERC20.sol\":7848:7869  fromBalance >= amount */\n      lt\n      iszero\n        /* \"@openzeppelin/contracts/token/ERC20/ERC20.sol\":7840:7912  require(fromBalance >= amount, \"ERC20: transfer amount exceeds balance\") */\n      tag_285\n      jumpi\n      mload(0x40)\n      0x08c379a000000000000000000000000000000000000000000000000000000000\n      dup2\n      mstore\n      0x04\n      add\n      tag_286\n      swap1\n      tag_287\n      jump\t// in\n    tag_286:\n      mload(0x40)\n      dup1\n      swap2\n      sub\n      swap1\n      revert\n    tag_285:\n        /* \"@openzeppelin/contracts/token/ERC20/ERC20.sol\":7978:7984  amount */\n      dup2\n        /* \"@openzeppelin/contracts/token/ERC20/ERC20.sol\":7964:7975  fromBalance */\n      dup2\n        /* \"@openzeppelin/contracts/token/ERC20/ERC20.sol\":7964:7984  fromBalance - amount */\n      sub\n        /* \"@openzeppelin/contracts/token/ERC20/ERC20.sol\":7946:7955  _balances */\n      0x00\n        /* \"@openzeppelin/contracts/token/ERC20/ERC20.sol\":7946:7961  _balances[from] */\n      dup1\n        /* \"@openzeppelin/contracts/token/ERC20/ERC20.sol\":7956:7960  from */\n      dup7\n        /* \"@openzeppelin/contracts/token/ERC20/ERC20.sol\":7946:7961  _balances[from] */\n      0xffffffffffffffffffffffffffffffffffffffff\n      and\n      0xffffffffffffffffffffffffffffffffffffffff\n      and\n      dup2\n      mstore\n      0x20\n      add\n      swap1\n      dup2\n      mstore\n      0x20\n      add\n      0x00\n      keccak256\n        /* \"@openzeppelin/contracts/token/ERC20/ERC20.sol\":7946:7984  _balances[from] = fromBalance - amount */\n      dup2\n      swap1\n      sstore\n      pop\n        /* \"@openzeppelin/contracts/token/ERC20/ERC20.sol\":8178:8184  amount */\n      dup2\n        /* \"@openzeppelin/contracts/token/ERC20/ERC20.sol\":8161:8170  _balances */\n      0x00\n        /* \"@openzeppelin/contracts/token/ERC20/ERC20.sol\":8161:8174  _balances[to] */\n      dup1\n        /* \"@openzeppelin/contracts/token/ERC20/ERC20.sol\":8171:8173  to */\n      dup6\n        /* \"@openzeppelin/contracts/token/ERC20/ERC20.sol\":8161:8174  _balances[to] */\n      0xffffffffffffffffffffffffffffffffffffffff\n      and\n      0xffffffffffffffffffffffffffffffffffffffff\n      and\n      dup2\n      mstore\n      0x20\n      add\n      swap1\n      dup2\n      mstore\n      0x20\n      add\n      0x00\n      keccak256\n      0x00\n        /* \"@openzeppelin/contracts/token/ERC20/ERC20.sol\":8161:8184  _balances[to] += amount */\n      dup3\n      dup3\n      sload\n      add\n      swap3\n      pop\n      pop\n      dup2\n      swap1\n      sstore\n      pop\n        /* \"@openzeppelin/contracts/token/ERC20/ERC20.sol\":8225:8227  to */\n      dup3\n        /* \"@openzeppelin/contracts/token/ERC20/ERC20.sol\":8210:8236  Transfer(from, to, amount) */\n      0xffffffffffffffffffffffffffffffffffffffff\n      and\n        /* \"@openzeppelin/contracts/token/ERC20/ERC20.sol\":8219:8223  from */\n      dup5\n        /* \"@openzeppelin/contracts/token/ERC20/ERC20.sol\":8210:8236  Transfer(from, to, amount) */\n      0xffffffffffffffffffffffffffffffffffffffff\n      and\n      0xddf252ad1be2c89b69c2b068fc378daa952ba7f163c4a11628f55a4df523b3ef\n        /* \"@openzeppelin/contracts/token/ERC20/ERC20.sol\":8229:8235  amount */\n      dup5\n        /* \"@openzeppelin/contracts/token/ERC20/ERC20.sol\":8210:8236  Transfer(from, to, amount) */\n      mload(0x40)\n      tag_288\n      swap2\n      swap1\n      tag_44\n      jump\t// in\n    tag_288:\n      mload(0x40)\n      dup1\n      swap2\n      sub\n      swap1\n      log3\n        /* \"@openzeppelin/contracts/token/ERC20/ERC20.sol\":8247:8284  _afterTokenTransfer(from, to, amount) */\n      tag_289\n        /* \"@openzeppelin/contracts/token/ERC20/ERC20.sol\":8267:8271  from */\n      dup5\n        /* \"@openzeppelin/contracts/token/ERC20/ERC20.sol\":8273:8275  to */\n      dup5\n        /* \"@openzeppelin/contracts/token/ERC20/ERC20.sol\":8277:8283  amount */\n      dup5\n        /* \"@openzeppelin/contracts/token/ERC20/ERC20.sol\":8247:8266  _afterTokenTransfer */\n      tag_269\n        /* \"@openzeppelin/contracts/token/ERC20/ERC20.sol\":8247:8284  _afterTokenTransfer(from, to, amount) */\n      jump\t// in\n    tag_289:\n        /* \"@openzeppelin/contracts/token/ERC20/ERC20.sol\":7581:8291  {... */\n      pop\n        /* \"@openzeppelin/contracts/token/ERC20/ERC20.sol\":7473:8291  function _transfer(... */\n      pop\n      pop\n      pop\n      jump\t// out\n        /* \"@openzeppelin/contracts/access/Ownable.sol\":1359:1489  function _checkOwner() internal view virtual {... */\n    tag_165:\n        /* \"@openzeppelin/contracts/access/Ownable.sol\":1433:1445  _msgSender() */\n      tag_291\n        /* \"@openzeppelin/contracts/access/Ownable.sol\":1433:1443  _msgSender */\n      tag_113\n        /* \"@openzeppelin/contracts/access/Ownable.sol\":1433:1445  _msgSender() */\n      jump\t// in\n    tag_291:\n        /* \"@openzeppelin/contracts/access/Ownable.sol\":1422:1445  owner() == _msgSender() */\n      0xffffffffffffffffffffffffffffffffffffffff\n      and\n        /* \"@openzeppelin/contracts/access/Ownable.sol\":1422:1429  owner() */\n      tag_292\n        /* \"@openzeppelin/contracts/access/Ownable.sol\":1422:1427  owner */\n      tag_79\n        /* \"@openzeppelin/contracts/access/Ownable.sol\":1422:1429  owner() */\n      jump\t// in\n    tag_292:\n        /* \"@openzeppelin/contracts/access/Ownable.sol\":1422:1445  owner() == _msgSender() */\n      0xffffffffffffffffffffffffffffffffffffffff\n      and\n      eq\n        /* \"@openzeppelin/contracts/access/Ownable.sol\":1414:1482  require(owner() == _msgSender(), \"Ownable: caller is not the owner\") */\n      tag_293\n      jumpi\n      mload(0x40)\n      0x08c379a000000000000000000000000000000000000000000000000000000000\n      dup2\n      mstore\n      0x04\n      add\n      tag_294\n      swap1\n      tag_295\n      jump\t// in\n    tag_294:\n      mload(0x40)\n      dup1\n      swap2\n      sub\n      swap1\n      revert\n    tag_293:\n        /* \"@openzeppelin/contracts/access/Ownable.sol\":1359:1489  function _checkOwner() internal view virtual {... */\n      jump\t// out\n        /* \"@openzeppelin/contracts/security/Pausable.sol\":2433:2550  function _unpause() internal virtual whenPaused {... */\n    tag_168:\n        /* \"@openzeppelin/contracts/security/Pausable.sol\":1486:1502  _requirePaused() */\n      tag_297\n        /* \"@openzeppelin/contracts/security/Pausable.sol\":1486:1500  _requirePaused */\n      tag_298\n        /* \"@openzeppelin/contracts/security/Pausable.sol\":1486:1502  _requirePaused() */\n      jump\t// in\n    tag_297:\n        /* \"@openzeppelin/contracts/security/Pausable.sol\":2501:2506  false */\n      0x00\n        /* \"@openzeppelin/contracts/security/Pausable.sol\":2491:2498  _paused */\n      0x05\n      0x00\n        /* \"@openzeppelin/contracts/security/Pausable.sol\":2491:2506  _paused = false */\n      0x0100\n      exp\n      dup2\n      sload\n      dup2\n      0xff\n      mul\n      not\n      and\n      swap1\n      dup4\n      iszero\n      iszero\n      mul\n      or\n      swap1\n      sstore\n      pop\n        /* \"@openzeppelin/contracts/security/Pausable.sol\":2521:2543  Unpaused(_msgSender()) */\n      0x5db9ee0a495bf2e6ff9c91a7834c1ba4fdd244a5e8aa4e537bd38aeae4b073aa\n        /* \"@openzeppelin/contracts/security/Pausable.sol\":2530:2542  _msgSender() */\n      tag_300\n        /* \"@openzeppelin/contracts/security/Pausable.sol\":2530:2540  _msgSender */\n      tag_113\n        /* \"@openzeppelin/contracts/security/Pausable.sol\":2530:2542  _msgSender() */\n      jump\t// in\n    tag_300:\n        /* \"@openzeppelin/contracts/security/Pausable.sol\":2521:2543  Unpaused(_msgSender()) */\n      mload(0x40)\n      tag_301\n      swap2\n      swap1\n      tag_81\n      jump\t// in\n    tag_301:\n      mload(0x40)\n      dup1\n      swap2\n      sub\n      swap1\n      log1\n        /* \"@openzeppelin/contracts/security/Pausable.sol\":2433:2550  function _unpause() internal virtual whenPaused {... */\n      jump\t// out\n        /* \"@openzeppelin/contracts/access/Ownable.sol\":2433:2620  function _transferOwnership(address newOwner) internal virtual {... */\n    tag_178:\n        /* \"@openzeppelin/contracts/access/Ownable.sol\":2506:2522  address oldOwner */\n      0x00\n        /* \"@openzeppelin/contracts/access/Ownable.sol\":2525:2531  _owner */\n      0x05\n      0x01\n      swap1\n      sload\n      swap1\n      0x0100\n      exp\n      swap1\n      div\n      0xffffffffffffffffffffffffffffffffffffffff\n      and\n        /* \"@openzeppelin/contracts/access/Ownable.sol\":2506:2531  address oldOwner = _owner */\n      swap1\n      pop\n        /* \"@openzeppelin/contracts/access/Ownable.sol\":2550:2558  newOwner */\n      dup2\n        /* \"@openzeppelin/contracts/access/Ownable.sol\":2541:2547  _owner */\n      0x05\n      0x01\n        /* \"@openzeppelin/contracts/access/Ownable.sol\":2541:2558  _owner = newOwner */\n      0x0100\n      exp\n      dup2\n      sload\n      dup2\n      0xffffffffffffffffffffffffffffffffffffffff\n      mul\n      not\n      and\n      swap1\n      dup4\n      0xffffffffffffffffffffffffffffffffffffffff\n      and\n      mul\n      or\n      swap1\n      sstore\n      pop\n        /* \"@openzeppelin/contracts/access/Ownable.sol\":2604:2612  newOwner */\n      dup2\n        /* \"@openzeppelin/contracts/access/Ownable.sol\":2573:2613  OwnershipTransferred(oldOwner, newOwner) */\n      0xffffffffffffffffffffffffffffffffffffffff\n      and\n        /* \"@openzeppelin/contracts/access/Ownable.sol\":2594:2602  oldOwner */\n      dup2\n        /* \"@openzeppelin/contracts/access/Ownable.sol\":2573:2613  OwnershipTransferred(oldOwner, newOwner) */\n      0xffffffffffffffffffffffffffffffffffffffff\n      and\n      0x8be0079c531659141344cd1fd0a4f28419497f9722a3daafe3b4186f6b6457e0\n      mload(0x40)\n      mload(0x40)\n      dup1\n      swap2\n      sub\n      swap1\n      log3\n        /* \"@openzeppelin/contracts/access/Ownable.sol\":2496:2620  {... */\n      pop\n        /* \"@openzeppelin/contracts/access/Ownable.sol\":2433:2620  function _transferOwnership(address newOwner) internal virtual {... */\n      pop\n      jump\t// out\n        /* \"@openzeppelin/contracts/security/Pausable.sol\":2186:2301  function _pause() internal virtual whenNotPaused {... */\n    tag_187:\n        /* \"@openzeppelin/contracts/security/Pausable.sol\":1239:1258  _requireNotPaused() */\n      tag_304\n        /* \"@openzeppelin/contracts/security/Pausable.sol\":1239:1256  _requireNotPaused */\n      tag_305\n        /* \"@openzeppelin/contracts/security/Pausable.sol\":1239:1258  _requireNotPaused() */\n      jump\t// in\n    tag_304:\n        /* \"@openzeppelin/contracts/security/Pausable.sol\":2255:2259  true */\n      0x01\n        /* \"@openzeppelin/contracts/security/Pausable.sol\":2245:2252  _paused */\n      0x05\n      0x00\n        /* \"@openzeppelin/contracts/security/Pausable.sol\":2245:2259  _paused = true */\n      0x0100\n      exp\n      dup2\n      sload\n      dup2\n      0xff\n      mul\n      not\n      and\n      swap1\n      dup4\n      iszero\n      iszero\n      mul\n      or\n      swap1\n      sstore\n      pop\n        /* \"@openzeppelin/contracts/security/Pausable.sol\":2274:2294  Paused(_msgSender()) */\n      0x62e78cea01bee320cd4e420270b5ea74000d11b0c9f74754ebdbfc544b05a258\n        /* \"@openzeppelin/contracts/security/Pausable.sol\":2281:2293  _msgSender() */\n      tag_307\n        /* \"@openzeppelin/contracts/security/Pausable.sol\":2281:2291  _msgSender */\n      tag_113\n        /* \"@openzeppelin/contracts/security/Pausable.sol\":2281:2293  _msgSender() */\n      jump\t// in\n    tag_307:\n        /* \"@openzeppelin/contracts/security/Pausable.sol\":2274:2294  Paused(_msgSender()) */\n      mload(0x40)\n      tag_308\n      swap2\n      swap1\n      tag_81\n      jump\t// in\n    tag_308:\n      mload(0x40)\n      dup1\n      swap2\n      sub\n      swap1\n      log1\n        /* \"@openzeppelin/contracts/security/Pausable.sol\":2186:2301  function _pause() internal virtual whenNotPaused {... */\n      jump\t// out\n        /* \"@openzeppelin/contracts/token/ERC20/ERC20.sol\":8567:9102  function _mint(address account, uint256 amount) internal virtual {... */\n    tag_235:\n        /* \"@openzeppelin/contracts/token/ERC20/ERC20.sol\":8669:8670  0 */\n      0x00\n        /* \"@openzeppelin/contracts/token/ERC20/ERC20.sol\":8650:8671  account != address(0) */\n      0xffffffffffffffffffffffffffffffffffffffff\n      and\n        /* \"@openzeppelin/contracts/token/ERC20/ERC20.sol\":8650:8657  account */\n      dup3\n        /* \"@openzeppelin/contracts/token/ERC20/ERC20.sol\":8650:8671  account != address(0) */\n      0xffffffffffffffffffffffffffffffffffffffff\n      and\n      sub\n        /* \"@openzeppelin/contracts/token/ERC20/ERC20.sol\":8642:8707  require(account != address(0), \"ERC20: mint to the zero address\") */\n      tag_310\n      jumpi\n      mload(0x40)\n      0x08c379a000000000000000000000000000000000000000000000000000000000\n      dup2\n      mstore\n      0x04\n      add\n      tag_311\n      swap1\n      tag_312\n      jump\t// in\n    tag_311:\n      mload(0x40)\n      dup1\n      swap2\n      sub\n      swap1\n      revert\n    tag_310:\n        /* \"@openzeppelin/contracts/token/ERC20/ERC20.sol\":8718:8767  _beforeTokenTransfer(address(0), account, amount) */\n      tag_313\n        /* \"@openzeppelin/contracts/token/ERC20/ERC20.sol\":8747:8748  0 */\n      0x00\n        /* \"@openzeppelin/contracts/token/ERC20/ERC20.sol\":8751:8758  account */\n      dup4\n        /* \"@openzeppelin/contracts/token/ERC20/ERC20.sol\":8760:8766  amount */\n      dup4\n        /* \"@openzeppelin/contracts/token/ERC20/ERC20.sol\":8718:8738  _beforeTokenTransfer */\n      tag_263\n        /* \"@openzeppelin/contracts/token/ERC20/ERC20.sol\":8718:8767  _beforeTokenTransfer(address(0), account, amount) */\n      jump\t// in\n    tag_313:\n        /* \"@openzeppelin/contracts/token/ERC20/ERC20.sol\":8794:8800  amount */\n      dup1\n        /* \"@openzeppelin/contracts/token/ERC20/ERC20.sol\":8778:8790  _totalSupply */\n      0x02\n      0x00\n        /* \"@openzeppelin/contracts/token/ERC20/ERC20.sol\":8778:8800  _totalSupply += amount */\n      dup3\n      dup3\n      sload\n      tag_314\n      swap2\n      swap1\n      tag_162\n      jump\t// in\n    tag_314:\n      swap3\n      pop\n      pop\n      dup2\n      swap1\n      sstore\n      pop\n        /* \"@openzeppelin/contracts/token/ERC20/ERC20.sol\":8968:8974  amount */\n      dup1\n        /* \"@openzeppelin/contracts/token/ERC20/ERC20.sol\":8946:8955  _balances */\n      0x00\n        /* \"@openzeppelin/contracts/token/ERC20/ERC20.sol\":8946:8964  _balances[account] */\n      dup1\n        /* \"@openzeppelin/contracts/token/ERC20/ERC20.sol\":8956:8963  account */\n      dup5\n        /* \"@openzeppelin/contracts/token/ERC20/ERC20.sol\":8946:8964  _balances[account] */\n      0xffffffffffffffffffffffffffffffffffffffff\n      and\n      0xffffffffffffffffffffffffffffffffffffffff\n      and\n      dup2\n      mstore\n      0x20\n      add\n      swap1\n      dup2\n      mstore\n      0x20\n      add\n      0x00\n      keccak256\n      0x00\n        /* \"@openzeppelin/contracts/token/ERC20/ERC20.sol\":8946:8974  _balances[account] += amount */\n      dup3\n      dup3\n      sload\n      add\n      swap3\n      pop\n      pop\n      dup2\n      swap1\n      sstore\n      pop\n        /* \"@openzeppelin/contracts/token/ERC20/ERC20.sol\":9020:9027  account */\n      dup2\n        /* \"@openzeppelin/contracts/token/ERC20/ERC20.sol\":8999:9036  Transfer(address(0), account, amount) */\n      0xffffffffffffffffffffffffffffffffffffffff\n      and\n        /* \"@openzeppelin/contracts/token/ERC20/ERC20.sol\":9016:9017  0 */\n      0x00\n        /* \"@openzeppelin/contracts/token/ERC20/ERC20.sol\":8999:9036  Transfer(address(0), account, amount) */\n      0xffffffffffffffffffffffffffffffffffffffff\n      and\n      0xddf252ad1be2c89b69c2b068fc378daa952ba7f163c4a11628f55a4df523b3ef\n        /* \"@openzeppelin/contracts/token/ERC20/ERC20.sol\":9029:9035  amount */\n      dup4\n        /* \"@openzeppelin/contracts/token/ERC20/ERC20.sol\":8999:9036  Transfer(address(0), account, amount) */\n      mload(0x40)\n      tag_315\n      swap2\n      swap1\n      tag_44\n      jump\t// in\n    tag_315:\n      mload(0x40)\n      dup1\n      swap2\n      sub\n      swap1\n      log3\n        /* \"@openzeppelin/contracts/token/ERC20/ERC20.sol\":9047:9095  _afterTokenTransfer(address(0), account, amount) */\n      tag_316\n        /* \"@openzeppelin/contracts/token/ERC20/ERC20.sol\":9075:9076  0 */\n      0x00\n        /* \"@openzeppelin/contracts/token/ERC20/ERC20.sol\":9079:9086  account */\n      dup4\n        /* \"@openzeppelin/contracts/token/ERC20/ERC20.sol\":9088:9094  amount */\n      dup4\n        /* \"@openzeppelin/contracts/token/ERC20/ERC20.sol\":9047:9066  _afterTokenTransfer */\n      tag_269\n        /* \"@openzeppelin/contracts/token/ERC20/ERC20.sol\":9047:9095  _afterTokenTransfer(address(0), account, amount) */\n      jump\t// in\n    tag_316:\n        /* \"@openzeppelin/contracts/token/ERC20/ERC20.sol\":8567:9102  function _mint(address account, uint256 amount) internal virtual {... */\n      pop\n      pop\n      jump\t// out\n        /* \"contracts/MyBond.sol\":2010:2267  function _beforeTokenTransfer(address from, address to, uint256 amount)... */\n    tag_263:\n        /* \"@openzeppelin/contracts/security/Pausable.sol\":1239:1258  _requireNotPaused() */\n      tag_318\n        /* \"@openzeppelin/contracts/security/Pausable.sol\":1239:1256  _requireNotPaused */\n      tag_305\n        /* \"@openzeppelin/contracts/security/Pausable.sol\":1239:1258  _requireNotPaused() */\n      jump\t// in\n    tag_318:\n        /* \"contracts/MyBond.sol\":2160:2166  rights */\n      0x06\n      0x00\n      swap1\n      sload\n      swap1\n      0x0100\n      exp\n      swap1\n      div\n      0xffffffffffffffffffffffffffffffffffffffff\n      and\n        /* \"contracts/MyBond.sol\":2160:2176  rights.hasRights */\n      0xffffffffffffffffffffffffffffffffffffffff\n      and\n      0xf35f0f74\n        /* \"contracts/MyBond.sol\":2177:2179  to */\n      dup4\n        /* \"contracts/MembershipRights.sol\":116:119  0x2 */\n      0x02\n        /* \"contracts/MyBond.sol\":2160:2189  rights.hasRights(to,  HOLDER) */\n      mload(0x40)\n      dup4\n      0xffffffff\n      and\n      0xe0\n      shl\n      dup2\n      mstore\n      0x04\n      add\n      tag_320\n      swap3\n      swap2\n      swap1\n      tag_122\n      jump\t// in\n    tag_320:\n      0x20\n      mload(0x40)\n      dup1\n      dup4\n      sub\n      dup2\n      dup7\n      gas\n      staticcall\n      iszero\n      dup1\n      iszero\n      tag_322\n      jumpi\n      returndatasize\n      0x00\n      dup1\n      returndatacopy\n      revert(0x00, returndatasize)\n    tag_322:\n      pop\n      pop\n      pop\n      pop\n      mload(0x40)\n      returndatasize\n      not(0x1f)\n      0x1f\n      dup3\n      add\n      and\n      dup3\n      add\n      dup1\n      0x40\n      mstore\n      pop\n      dup2\n      add\n      swap1\n      tag_323\n      swap2\n      swap1\n      tag_126\n      jump\t// in\n    tag_323:\n        /* \"contracts/MyBond.sol\":2152:2206  require(rights.hasRights(to,  HOLDER), \"Not a holder\") */\n      tag_324\n      jumpi\n      mload(0x40)\n      0x08c379a000000000000000000000000000000000000000000000000000000000\n      dup2\n      mstore\n      0x04\n      add\n      tag_325\n      swap1\n      tag_129\n      jump\t// in\n    tag_325:\n      mload(0x40)\n      dup1\n      swap2\n      sub\n      swap1\n      revert\n    tag_324:\n        /* \"contracts/MyBond.sol\":2216:2260  super._beforeTokenTransfer(from, to, amount) */\n      tag_326\n        /* \"contracts/MyBond.sol\":2243:2247  from */\n      dup4\n        /* \"contracts/MyBond.sol\":2249:2251  to */\n      dup4\n        /* \"contracts/MyBond.sol\":2253:2259  amount */\n      dup4\n        /* \"contracts/MyBond.sol\":2216:2242  super._beforeTokenTransfer */\n      tag_327\n        /* \"contracts/MyBond.sol\":2216:2260  super._beforeTokenTransfer(from, to, amount) */\n      jump\t// in\n    tag_326:\n        /* \"contracts/MyBond.sol\":2010:2267  function _beforeTokenTransfer(address from, address to, uint256 amount)... */\n      pop\n      pop\n      pop\n      jump\t// out\n        /* \"@openzeppelin/contracts/token/ERC20/ERC20.sol\":12889:13009  function _afterTokenTransfer(... */\n    tag_269:\n      pop\n      pop\n      pop\n      jump\t// out\n        /* \"@openzeppelin/contracts/security/Pausable.sol\":1945:2051  function _requirePaused() internal view virtual {... */\n    tag_298:\n        /* \"@openzeppelin/contracts/security/Pausable.sol\":2011:2019  paused() */\n      tag_330\n        /* \"@openzeppelin/contracts/security/Pausable.sol\":2011:2017  paused */\n      tag_64\n        /* \"@openzeppelin/contracts/security/Pausable.sol\":2011:2019  paused() */\n      jump\t// in\n    tag_330:\n        /* \"@openzeppelin/contracts/security/Pausable.sol\":2003:2044  require(paused(), \"Pausable: not paused\") */\n      tag_331\n      jumpi\n      mload(0x40)\n      0x08c379a000000000000000000000000000000000000000000000000000000000\n      dup2\n      mstore\n      0x04\n      add\n      tag_332\n      swap1\n      tag_333\n      jump\t// in\n    tag_332:\n      mload(0x40)\n      dup1\n      swap2\n      sub\n      swap1\n      revert\n    tag_331:\n        /* \"@openzeppelin/contracts/security/Pausable.sol\":1945:2051  function _requirePaused() internal view virtual {... */\n      jump\t// out\n        /* \"@openzeppelin/contracts/security/Pausable.sol\":1767:1873  function _requireNotPaused() internal view virtual {... */\n    tag_305:\n        /* \"@openzeppelin/contracts/security/Pausable.sol\":1837:1845  paused() */\n      tag_335\n        /* \"@openzeppelin/contracts/security/Pausable.sol\":1837:1843  paused */\n      tag_64\n        /* \"@openzeppelin/contracts/security/Pausable.sol\":1837:1845  paused() */\n      jump\t// in\n    tag_335:\n        /* \"@openzeppelin/contracts/security/Pausable.sol\":1836:1845  !paused() */\n      iszero\n        /* \"@openzeppelin/contracts/security/Pausable.sol\":1828:1866  require(!paused(), \"Pausable: paused\") */\n      tag_336\n      jumpi\n      mload(0x40)\n      0x08c379a000000000000000000000000000000000000000000000000000000000\n      dup2\n      mstore\n      0x04\n      add\n      tag_337\n      swap1\n      tag_338\n      jump\t// in\n    tag_337:\n      mload(0x40)\n      dup1\n      swap2\n      sub\n      swap1\n      revert\n    tag_336:\n        /* \"@openzeppelin/contracts/security/Pausable.sol\":1767:1873  function _requireNotPaused() internal view virtual {... */\n      jump\t// out\n        /* \"@openzeppelin/contracts/token/ERC20/ERC20.sol\":12180:12301  function _beforeTokenTransfer(... */\n    tag_327:\n      pop\n      pop\n      pop\n      jump\t// out\n        /* \"#utility.yul\":7:106   */\n    tag_340:\n        /* \"#utility.yul\":59:65   */\n      0x00\n        /* \"#utility.yul\":93:98   */\n      dup2\n        /* \"#utility.yul\":87:99   */\n      mload\n        /* \"#utility.yul\":77:99   */\n      swap1\n      pop\n        /* \"#utility.yul\":7:106   */\n      swap2\n      swap1\n      pop\n      jump\t// out\n        /* \"#utility.yul\":112:281   */\n    tag_341:\n        /* \"#utility.yul\":196:207   */\n      0x00\n        /* \"#utility.yul\":230:236   */\n      dup3\n        /* \"#utility.yul\":225:228   */\n      dup3\n        /* \"#utility.yul\":218:237   */\n      mstore\n        /* \"#utility.yul\":270:274   */\n      0x20\n        /* \"#utility.yul\":265:268   */\n      dup3\n        /* \"#utility.yul\":261:275   */\n      add\n        /* \"#utility.yul\":246:275   */\n      swap1\n      pop\n        /* \"#utility.yul\":112:281   */\n      swap3\n      swap2\n      pop\n      pop\n      jump\t// out\n        /* \"#utility.yul\":287:533   */\n    tag_342:\n        /* \"#utility.yul\":368:369   */\n      0x00\n        /* \"#utility.yul\":378:491   */\n    tag_410:\n        /* \"#utility.yul\":392:398   */\n      dup4\n        /* \"#utility.yul\":389:390   */\n      dup2\n        /* \"#utility.yul\":386:399   */\n      lt\n        /* \"#utility.yul\":378:491   */\n      iszero\n      tag_412\n      jumpi\n        /* \"#utility.yul\":477:478   */\n      dup1\n        /* \"#utility.yul\":472:475   */\n      dup3\n        /* \"#utility.yul\":468:479   */\n      add\n        /* \"#utility.yul\":462:480   */\n      mload\n        /* \"#utility.yul\":458:459   */\n      dup2\n        /* \"#utility.yul\":453:456   */\n      dup5\n        /* \"#utility.yul\":449:460   */\n      add\n        /* \"#utility.yul\":442:481   */\n      mstore\n        /* \"#utility.yul\":414:416   */\n      0x20\n        /* \"#utility.yul\":411:412   */\n      dup2\n        /* \"#utility.yul\":407:417   */\n      add\n        /* \"#utility.yul\":402:417   */\n      swap1\n      pop\n        /* \"#utility.yul\":378:491   */\n      jump(tag_410)\n    tag_412:\n        /* \"#utility.yul\":525:526   */\n      0x00\n        /* \"#utility.yul\":516:522   */\n      dup5\n        /* \"#utility.yul\":511:514   */\n      dup5\n        /* \"#utility.yul\":507:523   */\n      add\n        /* \"#utility.yul\":500:527   */\n      mstore\n        /* \"#utility.yul\":349:533   */\n      pop\n        /* \"#utility.yul\":287:533   */\n      pop\n      pop\n      pop\n      jump\t// out\n        /* \"#utility.yul\":539:641   */\n    tag_343:\n        /* \"#utility.yul\":580:586   */\n      0x00\n        /* \"#utility.yul\":631:633   */\n      0x1f\n        /* \"#utility.yul\":627:634   */\n      not\n        /* \"#utility.yul\":622:624   */\n      0x1f\n        /* \"#utility.yul\":615:620   */\n      dup4\n        /* \"#utility.yul\":611:625   */\n      add\n        /* \"#utility.yul\":607:635   */\n      and\n        /* \"#utility.yul\":597:635   */\n      swap1\n      pop\n        /* \"#utility.yul\":539:641   */\n      swap2\n      swap1\n      pop\n      jump\t// out\n        /* \"#utility.yul\":647:1024   */\n    tag_344:\n        /* \"#utility.yul\":735:738   */\n      0x00\n        /* \"#utility.yul\":763:802   */\n      tag_415\n        /* \"#utility.yul\":796:801   */\n      dup3\n        /* \"#utility.yul\":763:802   */\n      tag_340\n      jump\t// in\n    tag_415:\n        /* \"#utility.yul\":818:889   */\n      tag_416\n        /* \"#utility.yul\":882:888   */\n      dup2\n        /* \"#utility.yul\":877:880   */\n      dup6\n        /* \"#utility.yul\":818:889   */\n      tag_341\n      jump\t// in\n    tag_416:\n        /* \"#utility.yul\":811:889   */\n      swap4\n      pop\n        /* \"#utility.yul\":898:963   */\n      tag_417\n        /* \"#utility.yul\":956:962   */\n      dup2\n        /* \"#utility.yul\":951:954   */\n      dup6\n        /* \"#utility.yul\":944:948   */\n      0x20\n        /* \"#utility.yul\":937:942   */\n      dup7\n        /* \"#utility.yul\":933:949   */\n      add\n        /* \"#utility.yul\":898:963   */\n      tag_342\n      jump\t// in\n    tag_417:\n        /* \"#utility.yul\":988:1017   */\n      tag_418\n        /* \"#utility.yul\":1010:1016   */\n      dup2\n        /* \"#utility.yul\":988:1017   */\n      tag_343\n      jump\t// in\n    tag_418:\n        /* \"#utility.yul\":983:986   */\n      dup5\n        /* \"#utility.yul\":979:1018   */\n      add\n        /* \"#utility.yul\":972:1018   */\n      swap2\n      pop\n        /* \"#utility.yul\":739:1024   */\n      pop\n        /* \"#utility.yul\":647:1024   */\n      swap3\n      swap2\n      pop\n      pop\n      jump\t// out\n        /* \"#utility.yul\":1030:1343   */\n    tag_30:\n        /* \"#utility.yul\":1143:1147   */\n      0x00\n        /* \"#utility.yul\":1181:1183   */\n      0x20\n        /* \"#utility.yul\":1170:1179   */\n      dup3\n        /* \"#utility.yul\":1166:1184   */\n      add\n        /* \"#utility.yul\":1158:1184   */\n      swap1\n      pop\n        /* \"#utility.yul\":1230:1239   */\n      dup2\n        /* \"#utility.yul\":1224:1228   */\n      dup2\n        /* \"#utility.yul\":1220:1240   */\n      sub\n        /* \"#utility.yul\":1216:1217   */\n      0x00\n        /* \"#utility.yul\":1205:1214   */\n      dup4\n        /* \"#utility.yul\":1201:1218   */\n      add\n        /* \"#utility.yul\":1194:1241   */\n      mstore\n        /* \"#utility.yul\":1258:1336   */\n      tag_420\n        /* \"#utility.yul\":1331:1335   */\n      dup2\n        /* \"#utility.yul\":1322:1328   */\n      dup5\n        /* \"#utility.yul\":1258:1336   */\n      tag_344\n      jump\t// in\n    tag_420:\n        /* \"#utility.yul\":1250:1336   */\n      swap1\n      pop\n        /* \"#utility.yul\":1030:1343   */\n      swap3\n      swap2\n      pop\n      pop\n      jump\t// out\n        /* \"#utility.yul\":1430:1547   */\n    tag_346:\n        /* \"#utility.yul\":1539:1540   */\n      0x00\n        /* \"#utility.yul\":1536:1537   */\n      dup1\n        /* \"#utility.yul\":1529:1541   */\n      revert\n        /* \"#utility.yul\":1676:1802   */\n    tag_348:\n        /* \"#utility.yul\":1713:1720   */\n      0x00\n        /* \"#utility.yul\":1753:1795   */\n      0xffffffffffffffffffffffffffffffffffffffff\n        /* \"#utility.yul\":1746:1751   */\n      dup3\n        /* \"#utility.yul\":1742:1796   */\n      and\n        /* \"#utility.yul\":1731:1796   */\n      swap1\n      pop\n        /* \"#utility.yul\":1676:1802   */\n      swap2\n      swap1\n      pop\n      jump\t// out\n        /* \"#utility.yul\":1808:1904   */\n    tag_349:\n        /* \"#utility.yul\":1845:1852   */\n      0x00\n        /* \"#utility.yul\":1874:1898   */\n      tag_426\n        /* \"#utility.yul\":1892:1897   */\n      dup3\n        /* \"#utility.yul\":1874:1898   */\n      tag_348\n      jump\t// in\n    tag_426:\n        /* \"#utility.yul\":1863:1898   */\n      swap1\n      pop\n        /* \"#utility.yul\":1808:1904   */\n      swap2\n      swap1\n      pop\n      jump\t// out\n        /* \"#utility.yul\":1910:2032   */\n    tag_350:\n        /* \"#utility.yul\":1983:2007   */\n      tag_428\n        /* \"#utility.yul\":2001:2006   */\n      dup2\n        /* \"#utility.yul\":1983:2007   */\n      tag_349\n      jump\t// in\n    tag_428:\n        /* \"#utility.yul\":1976:1981   */\n      dup2\n        /* \"#utility.yul\":1973:2008   */\n      eq\n        /* \"#utility.yul\":1963:2026   */\n      tag_429\n      jumpi\n        /* \"#utility.yul\":2022:2023   */\n      0x00\n        /* \"#utility.yul\":2019:2020   */\n      dup1\n        /* \"#utility.yul\":2012:2024   */\n      revert\n        /* \"#utility.yul\":1963:2026   */\n    tag_429:\n        /* \"#utility.yul\":1910:2032   */\n      pop\n      jump\t// out\n        /* \"#utility.yul\":2038:2177   */\n    tag_351:\n        /* \"#utility.yul\":2084:2089   */\n      0x00\n        /* \"#utility.yul\":2122:2128   */\n      dup2\n        /* \"#utility.yul\":2109:2129   */\n      calldataload\n        /* \"#utility.yul\":2100:2129   */\n      swap1\n      pop\n        /* \"#utility.yul\":2138:2171   */\n      tag_431\n        /* \"#utility.yul\":2165:2170   */\n      dup2\n        /* \"#utility.yul\":2138:2171   */\n      tag_350\n      jump\t// in\n    tag_431:\n        /* \"#utility.yul\":2038:2177   */\n      swap3\n      swap2\n      pop\n      pop\n      jump\t// out\n        /* \"#utility.yul\":2183:2260   */\n    tag_352:\n        /* \"#utility.yul\":2220:2227   */\n      0x00\n        /* \"#utility.yul\":2249:2254   */\n      dup2\n        /* \"#utility.yul\":2238:2254   */\n      swap1\n      pop\n        /* \"#utility.yul\":2183:2260   */\n      swap2\n      swap1\n      pop\n      jump\t// out\n        /* \"#utility.yul\":2266:2388   */\n    tag_353:\n        /* \"#utility.yul\":2339:2363   */\n      tag_434\n        /* \"#utility.yul\":2357:2362   */\n      dup2\n        /* \"#utility.yul\":2339:2363   */\n      tag_352\n      jump\t// in\n    tag_434:\n        /* \"#utility.yul\":2332:2337   */\n      dup2\n        /* \"#utility.yul\":2329:2364   */\n      eq\n        /* \"#utility.yul\":2319:2382   */\n      tag_435\n      jumpi\n        /* \"#utility.yul\":2378:2379   */\n      0x00\n        /* \"#utility.yul\":2375:2376   */\n      dup1\n        /* \"#utility.yul\":2368:2380   */\n      revert\n        /* \"#utility.yul\":2319:2382   */\n    tag_435:\n        /* \"#utility.yul\":2266:2388   */\n      pop\n      jump\t// out\n        /* \"#utility.yul\":2394:2533   */\n    tag_354:\n        /* \"#utility.yul\":2440:2445   */\n      0x00\n        /* \"#utility.yul\":2478:2484   */\n      dup2\n        /* \"#utility.yul\":2465:2485   */\n      calldataload\n        /* \"#utility.yul\":2456:2485   */\n      swap1\n      pop\n        /* \"#utility.yul\":2494:2527   */\n      tag_437\n        /* \"#utility.yul\":2521:2526   */\n      dup2\n        /* \"#utility.yul\":2494:2527   */\n      tag_353\n      jump\t// in\n    tag_437:\n        /* \"#utility.yul\":2394:2533   */\n      swap3\n      swap2\n      pop\n      pop\n      jump\t// out\n        /* \"#utility.yul\":2539:3013   */\n    tag_33:\n        /* \"#utility.yul\":2607:2613   */\n      0x00\n        /* \"#utility.yul\":2615:2621   */\n      dup1\n        /* \"#utility.yul\":2664:2666   */\n      0x40\n        /* \"#utility.yul\":2652:2661   */\n      dup4\n        /* \"#utility.yul\":2643:2650   */\n      dup6\n        /* \"#utility.yul\":2639:2662   */\n      sub\n        /* \"#utility.yul\":2635:2667   */\n      slt\n        /* \"#utility.yul\":2632:2751   */\n      iszero\n      tag_439\n      jumpi\n        /* \"#utility.yul\":2670:2749   */\n      tag_440\n      tag_346\n      jump\t// in\n    tag_440:\n        /* \"#utility.yul\":2632:2751   */\n    tag_439:\n        /* \"#utility.yul\":2790:2791   */\n      0x00\n        /* \"#utility.yul\":2815:2868   */\n      tag_441\n        /* \"#utility.yul\":2860:2867   */\n      dup6\n        /* \"#utility.yul\":2851:2857   */\n      dup3\n        /* \"#utility.yul\":2840:2849   */\n      dup7\n        /* \"#utility.yul\":2836:2858   */\n      add\n        /* \"#utility.yul\":2815:2868   */\n      tag_351\n      jump\t// in\n    tag_441:\n        /* \"#utility.yul\":2805:2868   */\n      swap3\n      pop\n        /* \"#utility.yul\":2761:2878   */\n      pop\n        /* \"#utility.yul\":2917:2919   */\n      0x20\n        /* \"#utility.yul\":2943:2996   */\n      tag_442\n        /* \"#utility.yul\":2988:2995   */\n      dup6\n        /* \"#utility.yul\":2979:2985   */\n      dup3\n        /* \"#utility.yul\":2968:2977   */\n      dup7\n        /* \"#utility.yul\":2964:2986   */\n      add\n        /* \"#utility.yul\":2943:2996   */\n      tag_354\n      jump\t// in\n    tag_442:\n        /* \"#utility.yul\":2933:2996   */\n      swap2\n      pop\n        /* \"#utility.yul\":2888:3006   */\n      pop\n        /* \"#utility.yul\":2539:3013   */\n      swap3\n      pop\n      swap3\n      swap1\n      pop\n      jump\t// out\n        /* \"#utility.yul\":3019:3109   */\n    tag_355:\n        /* \"#utility.yul\":3053:3060   */\n      0x00\n        /* \"#utility.yul\":3096:3101   */\n      dup2\n        /* \"#utility.yul\":3089:3102   */\n      iszero\n        /* \"#utility.yul\":3082:3103   */\n      iszero\n        /* \"#utility.yul\":3071:3103   */\n      swap1\n      pop\n        /* \"#utility.yul\":3019:3109   */\n      swap2\n      swap1\n      pop\n      jump\t// out\n        /* \"#utility.yul\":3115:3224   */\n    tag_356:\n        /* \"#utility.yul\":3196:3217   */\n      tag_445\n        /* \"#utility.yul\":3211:3216   */\n      dup2\n        /* \"#utility.yul\":3196:3217   */\n      tag_355\n      jump\t// in\n    tag_445:\n        /* \"#utility.yul\":3191:3194   */\n      dup3\n        /* \"#utility.yul\":3184:3218   */\n      mstore\n        /* \"#utility.yul\":3115:3224   */\n      pop\n      pop\n      jump\t// out\n        /* \"#utility.yul\":3230:3440   */\n    tag_36:\n        /* \"#utility.yul\":3317:3321   */\n      0x00\n        /* \"#utility.yul\":3355:3357   */\n      0x20\n        /* \"#utility.yul\":3344:3353   */\n      dup3\n        /* \"#utility.yul\":3340:3358   */\n      add\n        /* \"#utility.yul\":3332:3358   */\n      swap1\n      pop\n        /* \"#utility.yul\":3368:3433   */\n      tag_447\n        /* \"#utility.yul\":3430:3431   */\n      0x00\n        /* \"#utility.yul\":3419:3428   */\n      dup4\n        /* \"#utility.yul\":3415:3432   */\n      add\n        /* \"#utility.yul\":3406:3412   */\n      dup5\n        /* \"#utility.yul\":3368:3433   */\n      tag_356\n      jump\t// in\n    tag_447:\n        /* \"#utility.yul\":3230:3440   */\n      swap3\n      swap2\n      pop\n      pop\n      jump\t// out\n        /* \"#utility.yul\":3446:3775   */\n    tag_39:\n        /* \"#utility.yul\":3505:3511   */\n      0x00\n        /* \"#utility.yul\":3554:3556   */\n      0x20\n        /* \"#utility.yul\":3542:3551   */\n      dup3\n        /* \"#utility.yul\":3533:3540   */\n      dup5\n        /* \"#utility.yul\":3529:3552   */\n      sub\n        /* \"#utility.yul\":3525:3557   */\n      slt\n        /* \"#utility.yul\":3522:3641   */\n      iszero\n      tag_449\n      jumpi\n        /* \"#utility.yul\":3560:3639   */\n      tag_450\n      tag_346\n      jump\t// in\n    tag_450:\n        /* \"#utility.yul\":3522:3641   */\n    tag_449:\n        /* \"#utility.yul\":3680:3681   */\n      0x00\n        /* \"#utility.yul\":3705:3758   */\n      tag_451\n        /* \"#utility.yul\":3750:3757   */\n      dup5\n        /* \"#utility.yul\":3741:3747   */\n      dup3\n        /* \"#utility.yul\":3730:3739   */\n      dup6\n        /* \"#utility.yul\":3726:3748   */\n      add\n        /* \"#utility.yul\":3705:3758   */\n      tag_354\n      jump\t// in\n    tag_451:\n        /* \"#utility.yul\":3695:3758   */\n      swap2\n      pop\n        /* \"#utility.yul\":3651:3768   */\n      pop\n        /* \"#utility.yul\":3446:3775   */\n      swap3\n      swap2\n      pop\n      pop\n      jump\t// out\n        /* \"#utility.yul\":3781:3899   */\n    tag_357:\n        /* \"#utility.yul\":3868:3892   */\n      tag_453\n        /* \"#utility.yul\":3886:3891   */\n      dup2\n        /* \"#utility.yul\":3868:3892   */\n      tag_352\n      jump\t// in\n    tag_453:\n        /* \"#utility.yul\":3863:3866   */\n      dup3\n        /* \"#utility.yul\":3856:3893   */\n      mstore\n        /* \"#utility.yul\":3781:3899   */\n      pop\n      pop\n      jump\t// out\n        /* \"#utility.yul\":3905:4127   */\n    tag_44:\n        /* \"#utility.yul\":3998:4002   */\n      0x00\n        /* \"#utility.yul\":4036:4038   */\n      0x20\n        /* \"#utility.yul\":4025:4034   */\n      dup3\n        /* \"#utility.yul\":4021:4039   */\n      add\n        /* \"#utility.yul\":4013:4039   */\n      swap1\n      pop\n        /* \"#utility.yul\":4049:4120   */\n      tag_455\n        /* \"#utility.yul\":4117:4118   */\n      0x00\n        /* \"#utility.yul\":4106:4115   */\n      dup4\n        /* \"#utility.yul\":4102:4119   */\n      add\n        /* \"#utility.yul\":4093:4099   */\n      dup5\n        /* \"#utility.yul\":4049:4120   */\n      tag_357\n      jump\t// in\n    tag_455:\n        /* \"#utility.yul\":3905:4127   */\n      swap3\n      swap2\n      pop\n      pop\n      jump\t// out\n        /* \"#utility.yul\":4133:4752   */\n    tag_47:\n        /* \"#utility.yul\":4210:4216   */\n      0x00\n        /* \"#utility.yul\":4218:4224   */\n      dup1\n        /* \"#utility.yul\":4226:4232   */\n      0x00\n        /* \"#utility.yul\":4275:4277   */\n      0x60\n        /* \"#utility.yul\":4263:4272   */\n      dup5\n        /* \"#utility.yul\":4254:4261   */\n      dup7\n        /* \"#utility.yul\":4250:4273   */\n      sub\n        /* \"#utility.yul\":4246:4278   */\n      slt\n        /* \"#utility.yul\":4243:4362   */\n      iszero\n      tag_457\n      jumpi\n        /* \"#utility.yul\":4281:4360   */\n      tag_458\n      tag_346\n      jump\t// in\n    tag_458:\n        /* \"#utility.yul\":4243:4362   */\n    tag_457:\n        /* \"#utility.yul\":4401:4402   */\n      0x00\n        /* \"#utility.yul\":4426:4479   */\n      tag_459\n        /* \"#utility.yul\":4471:4478   */\n      dup7\n        /* \"#utility.yul\":4462:4468   */\n      dup3\n        /* \"#utility.yul\":4451:4460   */\n      dup8\n        /* \"#utility.yul\":4447:4469   */\n      add\n        /* \"#utility.yul\":4426:4479   */\n      tag_351\n      jump\t// in\n    tag_459:\n        /* \"#utility.yul\":4416:4479   */\n      swap4\n      pop\n        /* \"#utility.yul\":4372:4489   */\n      pop\n        /* \"#utility.yul\":4528:4530   */\n      0x20\n        /* \"#utility.yul\":4554:4607   */\n      tag_460\n        /* \"#utility.yul\":4599:4606   */\n      dup7\n        /* \"#utility.yul\":4590:4596   */\n      dup3\n        /* \"#utility.yul\":4579:4588   */\n      dup8\n        /* \"#utility.yul\":4575:4597   */\n      add\n        /* \"#utility.yul\":4554:4607   */\n      tag_351\n      jump\t// in\n    tag_460:\n        /* \"#utility.yul\":4544:4607   */\n      swap3\n      pop\n        /* \"#utility.yul\":4499:4617   */\n      pop\n        /* \"#utility.yul\":4656:4658   */\n      0x40\n        /* \"#utility.yul\":4682:4735   */\n      tag_461\n        /* \"#utility.yul\":4727:4734   */\n      dup7\n        /* \"#utility.yul\":4718:4724   */\n      dup3\n        /* \"#utility.yul\":4707:4716   */\n      dup8\n        /* \"#utility.yul\":4703:4725   */\n      add\n        /* \"#utility.yul\":4682:4735   */\n      tag_354\n      jump\t// in\n    tag_461:\n        /* \"#utility.yul\":4672:4735   */\n      swap2\n      pop\n        /* \"#utility.yul\":4627:4745   */\n      pop\n        /* \"#utility.yul\":4133:4752   */\n      swap3\n      pop\n      swap3\n      pop\n      swap3\n      jump\t// out\n        /* \"#utility.yul\":4758:4844   */\n    tag_358:\n        /* \"#utility.yul\":4793:4800   */\n      0x00\n        /* \"#utility.yul\":4833:4837   */\n      0xff\n        /* \"#utility.yul\":4826:4831   */\n      dup3\n        /* \"#utility.yul\":4822:4838   */\n      and\n        /* \"#utility.yul\":4811:4838   */\n      swap1\n      pop\n        /* \"#utility.yul\":4758:4844   */\n      swap2\n      swap1\n      pop\n      jump\t// out\n        /* \"#utility.yul\":4850:4962   */\n    tag_359:\n        /* \"#utility.yul\":4933:4955   */\n      tag_464\n        /* \"#utility.yul\":4949:4954   */\n      dup2\n        /* \"#utility.yul\":4933:4955   */\n      tag_358\n      jump\t// in\n    tag_464:\n        /* \"#utility.yul\":4928:4931   */\n      dup3\n        /* \"#utility.yul\":4921:4956   */\n      mstore\n        /* \"#utility.yul\":4850:4962   */\n      pop\n      pop\n      jump\t// out\n        /* \"#utility.yul\":4968:5182   */\n    tag_53:\n        /* \"#utility.yul\":5057:5061   */\n      0x00\n        /* \"#utility.yul\":5095:5097   */\n      0x20\n        /* \"#utility.yul\":5084:5093   */\n      dup3\n        /* \"#utility.yul\":5080:5098   */\n      add\n        /* \"#utility.yul\":5072:5098   */\n      swap1\n      pop\n        /* \"#utility.yul\":5108:5175   */\n      tag_466\n        /* \"#utility.yul\":5172:5173   */\n      0x00\n        /* \"#utility.yul\":5161:5170   */\n      dup4\n        /* \"#utility.yul\":5157:5174   */\n      add\n        /* \"#utility.yul\":5148:5154   */\n      dup5\n        /* \"#utility.yul\":5108:5175   */\n      tag_359\n      jump\t// in\n    tag_466:\n        /* \"#utility.yul\":4968:5182   */\n      swap3\n      swap2\n      pop\n      pop\n      jump\t// out\n        /* \"#utility.yul\":5188:5517   */\n    tag_68:\n        /* \"#utility.yul\":5247:5253   */\n      0x00\n        /* \"#utility.yul\":5296:5298   */\n      0x20\n        /* \"#utility.yul\":5284:5293   */\n      dup3\n        /* \"#utility.yul\":5275:5282   */\n      dup5\n        /* \"#utility.yul\":5271:5294   */\n      sub\n        /* \"#utility.yul\":5267:5299   */\n      slt\n        /* \"#utility.yul\":5264:5383   */\n      iszero\n      tag_468\n      jumpi\n        /* \"#utility.yul\":5302:5381   */\n      tag_469\n      tag_346\n      jump\t// in\n    tag_469:\n        /* \"#utility.yul\":5264:5383   */\n    tag_468:\n        /* \"#utility.yul\":5422:5423   */\n      0x00\n        /* \"#utility.yul\":5447:5500   */\n      tag_470\n        /* \"#utility.yul\":5492:5499   */\n      dup5\n        /* \"#utility.yul\":5483:5489   */\n      dup3\n        /* \"#utility.yul\":5472:5481   */\n      dup6\n        /* \"#utility.yul\":5468:5490   */\n      add\n        /* \"#utility.yul\":5447:5500   */\n      tag_351\n      jump\t// in\n    tag_470:\n        /* \"#utility.yul\":5437:5500   */\n      swap2\n      pop\n        /* \"#utility.yul\":5393:5510   */\n      pop\n        /* \"#utility.yul\":5188:5517   */\n      swap3\n      swap2\n      pop\n      pop\n      jump\t// out\n        /* \"#utility.yul\":5523:5641   */\n    tag_360:\n        /* \"#utility.yul\":5610:5634   */\n      tag_472\n        /* \"#utility.yul\":5628:5633   */\n      dup2\n        /* \"#utility.yul\":5610:5634   */\n      tag_349\n      jump\t// in\n    tag_472:\n        /* \"#utility.yul\":5605:5608   */\n      dup3\n        /* \"#utility.yul\":5598:5635   */\n      mstore\n        /* \"#utility.yul\":5523:5641   */\n      pop\n      pop\n      jump\t// out\n        /* \"#utility.yul\":5647:5869   */\n    tag_81:\n        /* \"#utility.yul\":5740:5744   */\n      0x00\n        /* \"#utility.yul\":5778:5780   */\n      0x20\n        /* \"#utility.yul\":5767:5776   */\n      dup3\n        /* \"#utility.yul\":5763:5781   */\n      add\n        /* \"#utility.yul\":5755:5781   */\n      swap1\n      pop\n        /* \"#utility.yul\":5791:5862   */\n      tag_474\n        /* \"#utility.yul\":5859:5860   */\n      0x00\n        /* \"#utility.yul\":5848:5857   */\n      dup4\n        /* \"#utility.yul\":5844:5861   */\n      add\n        /* \"#utility.yul\":5835:5841   */\n      dup5\n        /* \"#utility.yul\":5791:5862   */\n      tag_360\n      jump\t// in\n    tag_474:\n        /* \"#utility.yul\":5647:5869   */\n      swap3\n      swap2\n      pop\n      pop\n      jump\t// out\n        /* \"#utility.yul\":5875:6349   */\n    tag_98:\n        /* \"#utility.yul\":5943:5949   */\n      0x00\n        /* \"#utility.yul\":5951:5957   */\n      dup1\n        /* \"#utility.yul\":6000:6002   */\n      0x40\n        /* \"#utility.yul\":5988:5997   */\n      dup4\n        /* \"#utility.yul\":5979:5986   */\n      dup6\n        /* \"#utility.yul\":5975:5998   */\n      sub\n        /* \"#utility.yul\":5971:6003   */\n      slt\n        /* \"#utility.yul\":5968:6087   */\n      iszero\n      tag_476\n      jumpi\n        /* \"#utility.yul\":6006:6085   */\n      tag_477\n      tag_346\n      jump\t// in\n    tag_477:\n        /* \"#utility.yul\":5968:6087   */\n    tag_476:\n        /* \"#utility.yul\":6126:6127   */\n      0x00\n        /* \"#utility.yul\":6151:6204   */\n      tag_478\n        /* \"#utility.yul\":6196:6203   */\n      dup6\n        /* \"#utility.yul\":6187:6193   */\n      dup3\n        /* \"#utility.yul\":6176:6185   */\n      dup7\n        /* \"#utility.yul\":6172:6194   */\n      add\n        /* \"#utility.yul\":6151:6204   */\n      tag_351\n      jump\t// in\n    tag_478:\n        /* \"#utility.yul\":6141:6204   */\n      swap3\n      pop\n        /* \"#utility.yul\":6097:6214   */\n      pop\n        /* \"#utility.yul\":6253:6255   */\n      0x20\n        /* \"#utility.yul\":6279:6332   */\n      tag_479\n        /* \"#utility.yul\":6324:6331   */\n      dup6\n        /* \"#utility.yul\":6315:6321   */\n      dup3\n        /* \"#utility.yul\":6304:6313   */\n      dup7\n        /* \"#utility.yul\":6300:6322   */\n      add\n        /* \"#utility.yul\":6279:6332   */\n      tag_351\n      jump\t// in\n    tag_479:\n        /* \"#utility.yul\":6269:6332   */\n      swap2\n      pop\n        /* \"#utility.yul\":6224:6342   */\n      pop\n        /* \"#utility.yul\":5875:6349   */\n      swap3\n      pop\n      swap3\n      swap1\n      pop\n      jump\t// out\n        /* \"#utility.yul\":6355:6535   */\n    tag_361:\n        /* \"#utility.yul\":6403:6480   */\n      0x4e487b7100000000000000000000000000000000000000000000000000000000\n        /* \"#utility.yul\":6400:6401   */\n      0x00\n        /* \"#utility.yul\":6393:6481   */\n      mstore\n        /* \"#utility.yul\":6500:6504   */\n      0x22\n        /* \"#utility.yul\":6497:6498   */\n      0x04\n        /* \"#utility.yul\":6490:6505   */\n      mstore\n        /* \"#utility.yul\":6524:6528   */\n      0x24\n        /* \"#utility.yul\":6521:6522   */\n      0x00\n        /* \"#utility.yul\":6514:6529   */\n      revert\n        /* \"#utility.yul\":6541:6861   */\n    tag_106:\n        /* \"#utility.yul\":6585:6591   */\n      0x00\n        /* \"#utility.yul\":6622:6623   */\n      0x02\n        /* \"#utility.yul\":6616:6620   */\n      dup3\n        /* \"#utility.yul\":6612:6624   */\n      div\n        /* \"#utility.yul\":6602:6624   */\n      swap1\n      pop\n        /* \"#utility.yul\":6669:6670   */\n      0x01\n        /* \"#utility.yul\":6663:6667   */\n      dup3\n        /* \"#utility.yul\":6659:6671   */\n      and\n        /* \"#utility.yul\":6690:6708   */\n      dup1\n        /* \"#utility.yul\":6680:6761   */\n      tag_482\n      jumpi\n        /* \"#utility.yul\":6746:6750   */\n      0x7f\n        /* \"#utility.yul\":6738:6744   */\n      dup3\n        /* \"#utility.yul\":6734:6751   */\n      and\n        /* \"#utility.yul\":6724:6751   */\n      swap2\n      pop\n        /* \"#utility.yul\":6680:6761   */\n    tag_482:\n        /* \"#utility.yul\":6808:6810   */\n      0x20\n        /* \"#utility.yul\":6800:6806   */\n      dup3\n        /* \"#utility.yul\":6797:6811   */\n      lt\n        /* \"#utility.yul\":6777:6795   */\n      dup2\n        /* \"#utility.yul\":6774:6812   */\n      sub\n        /* \"#utility.yul\":6771:6855   */\n      tag_483\n      jumpi\n        /* \"#utility.yul\":6827:6845   */\n      tag_484\n      tag_361\n      jump\t// in\n    tag_484:\n        /* \"#utility.yul\":6771:6855   */\n    tag_483:\n        /* \"#utility.yul\":6592:6861   */\n      pop\n        /* \"#utility.yul\":6541:6861   */\n      swap2\n      swap1\n      pop\n      jump\t// out\n        /* \"#utility.yul\":6867:7040   */\n    tag_362:\n        /* \"#utility.yul\":7007:7032   */\n      0x4e6f7420656e6f75676820626f6e647320697373756564000000000000000000\n        /* \"#utility.yul\":7003:7004   */\n      0x00\n        /* \"#utility.yul\":6995:7001   */\n      dup3\n        /* \"#utility.yul\":6991:7005   */\n      add\n        /* \"#utility.yul\":6984:7033   */\n      mstore\n        /* \"#utility.yul\":6867:7040   */\n      pop\n      jump\t// out\n        /* \"#utility.yul\":7046:7412   */\n    tag_363:\n        /* \"#utility.yul\":7188:7191   */\n      0x00\n        /* \"#utility.yul\":7209:7276   */\n      tag_487\n        /* \"#utility.yul\":7273:7275   */\n      0x17\n        /* \"#utility.yul\":7268:7271   */\n      dup4\n        /* \"#utility.yul\":7209:7276   */\n      tag_341\n      jump\t// in\n    tag_487:\n        /* \"#utility.yul\":7202:7276   */\n      swap2\n      pop\n        /* \"#utility.yul\":7285:7378   */\n      tag_488\n        /* \"#utility.yul\":7374:7377   */\n      dup3\n        /* \"#utility.yul\":7285:7378   */\n      tag_362\n      jump\t// in\n    tag_488:\n        /* \"#utility.yul\":7403:7405   */\n      0x20\n        /* \"#utility.yul\":7398:7401   */\n      dup3\n        /* \"#utility.yul\":7394:7406   */\n      add\n        /* \"#utility.yul\":7387:7406   */\n      swap1\n      pop\n        /* \"#utility.yul\":7046:7412   */\n      swap2\n      swap1\n      pop\n      jump\t// out\n        /* \"#utility.yul\":7418:7837   */\n    tag_120:\n        /* \"#utility.yul\":7584:7588   */\n      0x00\n        /* \"#utility.yul\":7622:7624   */\n      0x20\n        /* \"#utility.yul\":7611:7620   */\n      dup3\n        /* \"#utility.yul\":7607:7625   */\n      add\n        /* \"#utility.yul\":7599:7625   */\n      swap1\n      pop\n        /* \"#utility.yul\":7671:7680   */\n      dup2\n        /* \"#utility.yul\":7665:7669   */\n      dup2\n        /* \"#utility.yul\":7661:7681   */\n      sub\n        /* \"#utility.yul\":7657:7658   */\n      0x00\n        /* \"#utility.yul\":7646:7655   */\n      dup4\n        /* \"#utility.yul\":7642:7659   */\n      add\n        /* \"#utility.yul\":7635:7682   */\n      mstore\n        /* \"#utility.yul\":7699:7830   */\n      tag_490\n        /* \"#utility.yul\":7825:7829   */\n      dup2\n        /* \"#utility.yul\":7699:7830   */\n      tag_363\n      jump\t// in\n    tag_490:\n        /* \"#utility.yul\":7691:7830   */\n      swap1\n      pop\n        /* \"#utility.yul\":7418:7837   */\n      swap2\n      swap1\n      pop\n      jump\t// out\n        /* \"#utility.yul\":7843:7940   */\n    tag_364:\n        /* \"#utility.yul\":7879:7886   */\n      0x00\n        /* \"#utility.yul\":7919:7933   */\n      0xffffffffffff\n        /* \"#utility.yul\":7912:7917   */\n      dup3\n        /* \"#utility.yul\":7908:7934   */\n      and\n        /* \"#utility.yul\":7897:7934   */\n      swap1\n      pop\n        /* \"#utility.yul\":7843:7940   */\n      swap2\n      swap1\n      pop\n      jump\t// out\n        /* \"#utility.yul\":7946:8061   */\n    tag_365:\n        /* \"#utility.yul\":8031:8054   */\n      tag_493\n        /* \"#utility.yul\":8048:8053   */\n      dup2\n        /* \"#utility.yul\":8031:8054   */\n      tag_364\n      jump\t// in\n    tag_493:\n        /* \"#utility.yul\":8026:8029   */\n      dup3\n        /* \"#utility.yul\":8019:8055   */\n      mstore\n        /* \"#utility.yul\":7946:8061   */\n      pop\n      pop\n      jump\t// out\n        /* \"#utility.yul\":8067:8395   */\n    tag_122:\n        /* \"#utility.yul\":8186:8190   */\n      0x00\n        /* \"#utility.yul\":8224:8226   */\n      0x40\n        /* \"#utility.yul\":8213:8222   */\n      dup3\n        /* \"#utility.yul\":8209:8227   */\n      add\n        /* \"#utility.yul\":8201:8227   */\n      swap1\n      pop\n        /* \"#utility.yul\":8237:8308   */\n      tag_495\n        /* \"#utility.yul\":8305:8306   */\n      0x00\n        /* \"#utility.yul\":8294:8303   */\n      dup4\n        /* \"#utility.yul\":8290:8307   */\n      add\n        /* \"#utility.yul\":8281:8287   */\n      dup6\n        /* \"#utility.yul\":8237:8308   */\n      tag_360\n      jump\t// in\n    tag_495:\n        /* \"#utility.yul\":8318:8388   */\n      tag_496\n        /* \"#utility.yul\":8384:8386   */\n      0x20\n        /* \"#utility.yul\":8373:8382   */\n      dup4\n        /* \"#utility.yul\":8369:8387   */\n      add\n        /* \"#utility.yul\":8360:8366   */\n      dup5\n        /* \"#utility.yul\":8318:8388   */\n      tag_365\n      jump\t// in\n    tag_496:\n        /* \"#utility.yul\":8067:8395   */\n      swap4\n      swap3\n      pop\n      pop\n      pop\n      jump\t// out\n        /* \"#utility.yul\":8401:8517   */\n    tag_366:\n        /* \"#utility.yul\":8471:8492   */\n      tag_498\n        /* \"#utility.yul\":8486:8491   */\n      dup2\n        /* \"#utility.yul\":8471:8492   */\n      tag_355\n      jump\t// in\n    tag_498:\n        /* \"#utility.yul\":8464:8469   */\n      dup2\n        /* \"#utility.yul\":8461:8493   */\n      eq\n        /* \"#utility.yul\":8451:8511   */\n      tag_499\n      jumpi\n        /* \"#utility.yul\":8507:8508   */\n      0x00\n        /* \"#utility.yul\":8504:8505   */\n      dup1\n        /* \"#utility.yul\":8497:8509   */\n      revert\n        /* \"#utility.yul\":8451:8511   */\n    tag_499:\n        /* \"#utility.yul\":8401:8517   */\n      pop\n      jump\t// out\n        /* \"#utility.yul\":8523:8660   */\n    tag_367:\n        /* \"#utility.yul\":8577:8582   */\n      0x00\n        /* \"#utility.yul\":8608:8614   */\n      dup2\n        /* \"#utility.yul\":8602:8615   */\n      mload\n        /* \"#utility.yul\":8593:8615   */\n      swap1\n      pop\n        /* \"#utility.yul\":8624:8654   */\n      tag_501\n        /* \"#utility.yul\":8648:8653   */\n      dup2\n        /* \"#utility.yul\":8624:8654   */\n      tag_366\n      jump\t// in\n    tag_501:\n        /* \"#utility.yul\":8523:8660   */\n      swap3\n      swap2\n      pop\n      pop\n      jump\t// out\n        /* \"#utility.yul\":8666:9011   */\n    tag_126:\n        /* \"#utility.yul\":8733:8739   */\n      0x00\n        /* \"#utility.yul\":8782:8784   */\n      0x20\n        /* \"#utility.yul\":8770:8779   */\n      dup3\n        /* \"#utility.yul\":8761:8768   */\n      dup5\n        /* \"#utility.yul\":8757:8780   */\n      sub\n        /* \"#utility.yul\":8753:8785   */\n      slt\n        /* \"#utility.yul\":8750:8869   */\n      iszero\n      tag_503\n      jumpi\n        /* \"#utility.yul\":8788:8867   */\n      tag_504\n      tag_346\n      jump\t// in\n    tag_504:\n        /* \"#utility.yul\":8750:8869   */\n    tag_503:\n        /* \"#utility.yul\":8908:8909   */\n      0x00\n        /* \"#utility.yul\":8933:8994   */\n      tag_505\n        /* \"#utility.yul\":8986:8993   */\n      dup5\n        /* \"#utility.yul\":8977:8983   */\n      dup3\n        /* \"#utility.yul\":8966:8975   */\n      dup6\n        /* \"#utility.yul\":8962:8984   */\n      add\n        /* \"#utility.yul\":8933:8994   */\n      tag_367\n      jump\t// in\n    tag_505:\n        /* \"#utility.yul\":8923:8994   */\n      swap2\n      pop\n        /* \"#utility.yul\":8879:9004   */\n      pop\n        /* \"#utility.yul\":8666:9011   */\n      swap3\n      swap2\n      pop\n      pop\n      jump\t// out\n        /* \"#utility.yul\":9017:9179   */\n    tag_368:\n        /* \"#utility.yul\":9157:9171   */\n      0x4e6f74206120686f6c6465720000000000000000000000000000000000000000\n        /* \"#utility.yul\":9153:9154   */\n      0x00\n        /* \"#utility.yul\":9145:9151   */\n      dup3\n        /* \"#utility.yul\":9141:9155   */\n      add\n        /* \"#utility.yul\":9134:9172   */\n      mstore\n        /* \"#utility.yul\":9017:9179   */\n      pop\n      jump\t// out\n        /* \"#utility.yul\":9185:9551   */\n    tag_369:\n        /* \"#utility.yul\":9327:9330   */\n      0x00\n        /* \"#utility.yul\":9348:9415   */\n      tag_508\n        /* \"#utility.yul\":9412:9414   */\n      0x0c\n        /* \"#utility.yul\":9407:9410   */\n      dup4\n        /* \"#utility.yul\":9348:9415   */\n      tag_341\n      jump\t// in\n    tag_508:\n        /* \"#utility.yul\":9341:9415   */\n      swap2\n      pop\n        /* \"#utility.yul\":9424:9517   */\n      tag_509\n        /* \"#utility.yul\":9513:9516   */\n      dup3\n        /* \"#utility.yul\":9424:9517   */\n      tag_368\n      jump\t// in\n    tag_509:\n        /* \"#utility.yul\":9542:9544   */\n      0x20\n        /* \"#utility.yul\":9537:9540   */\n      dup3\n        /* \"#utility.yul\":9533:9545   */\n      add\n        /* \"#utility.yul\":9526:9545   */\n      swap1\n      pop\n        /* \"#utility.yul\":9185:9551   */\n      swap2\n      swap1\n      pop\n      jump\t// out\n        /* \"#utility.yul\":9557:9976   */\n    tag_129:\n        /* \"#utility.yul\":9723:9727   */\n      0x00\n        /* \"#utility.yul\":9761:9763   */\n      0x20\n        /* \"#utility.yul\":9750:9759   */\n      dup3\n        /* \"#utility.yul\":9746:9764   */\n      add\n        /* \"#utility.yul\":9738:9764   */\n      swap1\n      pop\n        /* \"#utility.yul\":9810:9819   */\n      dup2\n        /* \"#utility.yul\":9804:9808   */\n      dup2\n        /* \"#utility.yul\":9800:9820   */\n      sub\n        /* \"#utility.yul\":9796:9797   */\n      0x00\n        /* \"#utility.yul\":9785:9794   */\n      dup4\n        /* \"#utility.yul\":9781:9798   */\n      add\n        /* \"#utility.yul\":9774:9821   */\n      mstore\n        /* \"#utility.yul\":9838:9969   */\n      tag_511\n        /* \"#utility.yul\":9964:9968   */\n      dup2\n        /* \"#utility.yul\":9838:9969   */\n      tag_369\n      jump\t// in\n    tag_511:\n        /* \"#utility.yul\":9830:9969   */\n      swap1\n      pop\n        /* \"#utility.yul\":9557:9976   */\n      swap2\n      swap1\n      pop\n      jump\t// out\n        /* \"#utility.yul\":9982:10142   */\n    tag_370:\n        /* \"#utility.yul\":10122:10134   */\n      0x416d6d6f756e743e203000000000000000000000000000000000000000000000\n        /* \"#utility.yul\":10118:10119   */\n      0x00\n        /* \"#utility.yul\":10110:10116   */\n      dup3\n        /* \"#utility.yul\":10106:10120   */\n      add\n        /* \"#utility.yul\":10099:10135   */\n      mstore\n        /* \"#utility.yul\":9982:10142   */\n      pop\n      jump\t// out\n        /* \"#utility.yul\":10148:10514   */\n    tag_371:\n        /* \"#utility.yul\":10290:10293   */\n      0x00\n        /* \"#utility.yul\":10311:10378   */\n      tag_514\n        /* \"#utility.yul\":10375:10377   */\n      0x0a\n        /* \"#utility.yul\":10370:10373   */\n      dup4\n        /* \"#utility.yul\":10311:10378   */\n      tag_341\n      jump\t// in\n    tag_514:\n        /* \"#utility.yul\":10304:10378   */\n      swap2\n      pop\n        /* \"#utility.yul\":10387:10480   */\n      tag_515\n        /* \"#utility.yul\":10476:10479   */\n      dup3\n        /* \"#utility.yul\":10387:10480   */\n      tag_370\n      jump\t// in\n    tag_515:\n        /* \"#utility.yul\":10505:10507   */\n      0x20\n        /* \"#utility.yul\":10500:10503   */\n      dup3\n        /* \"#utility.yul\":10496:10508   */\n      add\n        /* \"#utility.yul\":10489:10508   */\n      swap1\n      pop\n        /* \"#utility.yul\":10148:10514   */\n      swap2\n      swap1\n      pop\n      jump\t// out\n        /* \"#utility.yul\":10520:10939   */\n    tag_132:\n        /* \"#utility.yul\":10686:10690   */\n      0x00\n        /* \"#utility.yul\":10724:10726   */\n      0x20\n        /* \"#utility.yul\":10713:10722   */\n      dup3\n        /* \"#utility.yul\":10709:10727   */\n      add\n        /* \"#utility.yul\":10701:10727   */\n      swap1\n      pop\n        /* \"#utility.yul\":10773:10782   */\n      dup2\n        /* \"#utility.yul\":10767:10771   */\n      dup2\n        /* \"#utility.yul\":10763:10783   */\n      sub\n        /* \"#utility.yul\":10759:10760   */\n      0x00\n        /* \"#utility.yul\":10748:10757   */\n      dup4\n        /* \"#utility.yul\":10744:10761   */\n      add\n        /* \"#utility.yul\":10737:10784   */\n      mstore\n        /* \"#utility.yul\":10801:10932   */\n      tag_517\n        /* \"#utility.yul\":10927:10931   */\n      dup2\n        /* \"#utility.yul\":10801:10932   */\n      tag_371\n      jump\t// in\n    tag_517:\n        /* \"#utility.yul\":10793:10932   */\n      swap1\n      pop\n        /* \"#utility.yul\":10520:10939   */\n      swap2\n      swap1\n      pop\n      jump\t// out\n        /* \"#utility.yul\":10945:11125   */\n    tag_372:\n        /* \"#utility.yul\":10993:11070   */\n      0x4e487b7100000000000000000000000000000000000000000000000000000000\n        /* \"#utility.yul\":10990:10991   */\n      0x00\n        /* \"#utility.yul\":10983:11071   */\n      mstore\n        /* \"#utility.yul\":11090:11094   */\n      0x11\n        /* \"#utility.yul\":11087:11088   */\n      0x04\n        /* \"#utility.yul\":11080:11095   */\n      mstore\n        /* \"#utility.yul\":11114:11118   */\n      0x24\n        /* \"#utility.yul\":11111:11112   */\n      0x00\n        /* \"#utility.yul\":11104:11119   */\n      revert\n        /* \"#utility.yul\":11131:11541   */\n    tag_134:\n        /* \"#utility.yul\":11171:11178   */\n      0x00\n        /* \"#utility.yul\":11194:11214   */\n      tag_520\n        /* \"#utility.yul\":11212:11213   */\n      dup3\n        /* \"#utility.yul\":11194:11214   */\n      tag_352\n      jump\t// in\n    tag_520:\n        /* \"#utility.yul\":11189:11214   */\n      swap2\n      pop\n        /* \"#utility.yul\":11228:11248   */\n      tag_521\n        /* \"#utility.yul\":11246:11247   */\n      dup4\n        /* \"#utility.yul\":11228:11248   */\n      tag_352\n      jump\t// in\n    tag_521:\n        /* \"#utility.yul\":11223:11248   */\n      swap3\n      pop\n        /* \"#utility.yul\":11283:11284   */\n      dup3\n        /* \"#utility.yul\":11280:11281   */\n      dup3\n        /* \"#utility.yul\":11276:11285   */\n      mul\n        /* \"#utility.yul\":11305:11335   */\n      tag_522\n        /* \"#utility.yul\":11323:11334   */\n      dup2\n        /* \"#utility.yul\":11305:11335   */\n      tag_352\n      jump\t// in\n    tag_522:\n        /* \"#utility.yul\":11294:11335   */\n      swap2\n      pop\n        /* \"#utility.yul\":11484:11485   */\n      dup3\n        /* \"#utility.yul\":11475:11482   */\n      dup3\n        /* \"#utility.yul\":11471:11486   */\n      div\n        /* \"#utility.yul\":11468:11469   */\n      dup5\n        /* \"#utility.yul\":11465:11487   */\n      eq\n        /* \"#utility.yul\":11445:11446   */\n      dup4\n        /* \"#utility.yul\":11438:11447   */\n      iszero\n        /* \"#utility.yul\":11418:11501   */\n      or\n        /* \"#utility.yul\":11395:11534   */\n      tag_523\n      jumpi\n        /* \"#utility.yul\":11514:11532   */\n      tag_524\n      tag_372\n      jump\t// in\n    tag_524:\n        /* \"#utility.yul\":11395:11534   */\n    tag_523:\n        /* \"#utility.yul\":11179:11541   */\n      pop\n        /* \"#utility.yul\":11131:11541   */\n      swap3\n      swap2\n      pop\n      pop\n      jump\t// out\n        /* \"#utility.yul\":11547:11690   */\n    tag_373:\n        /* \"#utility.yul\":11604:11609   */\n      0x00\n        /* \"#utility.yul\":11635:11641   */\n      dup2\n        /* \"#utility.yul\":11629:11642   */\n      mload\n        /* \"#utility.yul\":11620:11642   */\n      swap1\n      pop\n        /* \"#utility.yul\":11651:11684   */\n      tag_526\n        /* \"#utility.yul\":11678:11683   */\n      dup2\n        /* \"#utility.yul\":11651:11684   */\n      tag_353\n      jump\t// in\n    tag_526:\n        /* \"#utility.yul\":11547:11690   */\n      swap3\n      swap2\n      pop\n      pop\n      jump\t// out\n        /* \"#utility.yul\":11696:12047   */\n    tag_139:\n        /* \"#utility.yul\":11766:11772   */\n      0x00\n        /* \"#utility.yul\":11815:11817   */\n      0x20\n        /* \"#utility.yul\":11803:11812   */\n      dup3\n        /* \"#utility.yul\":11794:11801   */\n      dup5\n        /* \"#utility.yul\":11790:11813   */\n      sub\n        /* \"#utility.yul\":11786:11818   */\n      slt\n        /* \"#utility.yul\":11783:11902   */\n      iszero\n      tag_528\n      jumpi\n        /* \"#utility.yul\":11821:11900   */\n      tag_529\n      tag_346\n      jump\t// in\n    tag_529:\n        /* \"#utility.yul\":11783:11902   */\n    tag_528:\n        /* \"#utility.yul\":11941:11942   */\n      0x00\n        /* \"#utility.yul\":11966:12030   */\n      tag_530\n        /* \"#utility.yul\":12022:12029   */\n      dup5\n        /* \"#utility.yul\":12013:12019   */\n      dup3\n        /* \"#utility.yul\":12002:12011   */\n      dup6\n        /* \"#utility.yul\":11998:12020   */\n      add\n        /* \"#utility.yul\":11966:12030   */\n      tag_373\n      jump\t// in\n    tag_530:\n        /* \"#utility.yul\":11956:12030   */\n      swap2\n      pop\n        /* \"#utility.yul\":11912:12040   */\n      pop\n        /* \"#utility.yul\":11696:12047   */\n      swap3\n      swap2\n      pop\n      pop\n      jump\t// out\n        /* \"#utility.yul\":12053:12495   */\n    tag_145:\n        /* \"#utility.yul\":12202:12206   */\n      0x00\n        /* \"#utility.yul\":12240:12242   */\n      0x60\n        /* \"#utility.yul\":12229:12238   */\n      dup3\n        /* \"#utility.yul\":12225:12243   */\n      add\n        /* \"#utility.yul\":12217:12243   */\n      swap1\n      pop\n        /* \"#utility.yul\":12253:12324   */\n      tag_532\n        /* \"#utility.yul\":12321:12322   */\n      0x00\n        /* \"#utility.yul\":12310:12319   */\n      dup4\n        /* \"#utility.yul\":12306:12323   */\n      add\n        /* \"#utility.yul\":12297:12303   */\n      dup7\n        /* \"#utility.yul\":12253:12324   */\n      tag_360\n      jump\t// in\n    tag_532:\n        /* \"#utility.yul\":12334:12406   */\n      tag_533\n        /* \"#utility.yul\":12402:12404   */\n      0x20\n        /* \"#utility.yul\":12391:12400   */\n      dup4\n        /* \"#utility.yul\":12387:12405   */\n      add\n        /* \"#utility.yul\":12378:12384   */\n      dup6\n        /* \"#utility.yul\":12334:12406   */\n      tag_360\n      jump\t// in\n    tag_533:\n        /* \"#utility.yul\":12416:12488   */\n      tag_534\n        /* \"#utility.yul\":12484:12486   */\n      0x40\n        /* \"#utility.yul\":12473:12482   */\n      dup4\n        /* \"#utility.yul\":12469:12487   */\n      add\n        /* \"#utility.yul\":12460:12466   */\n      dup5\n        /* \"#utility.yul\":12416:12488   */\n      tag_357\n      jump\t// in\n    tag_534:\n        /* \"#utility.yul\":12053:12495   */\n      swap5\n      swap4\n      pop\n      pop\n      pop\n      pop\n      jump\t// out\n        /* \"#utility.yul\":12501:12692   */\n    tag_162:\n        /* \"#utility.yul\":12541:12544   */\n      0x00\n        /* \"#utility.yul\":12560:12580   */\n      tag_536\n        /* \"#utility.yul\":12578:12579   */\n      dup3\n        /* \"#utility.yul\":12560:12580   */\n      tag_352\n      jump\t// in\n    tag_536:\n        /* \"#utility.yul\":12555:12580   */\n      swap2\n      pop\n        /* \"#utility.yul\":12594:12614   */\n      tag_537\n        /* \"#utility.yul\":12612:12613   */\n      dup4\n        /* \"#utility.yul\":12594:12614   */\n      tag_352\n      jump\t// in\n    tag_537:\n        /* \"#utility.yul\":12589:12614   */\n      swap3\n      pop\n        /* \"#utility.yul\":12637:12638   */\n      dup3\n        /* \"#utility.yul\":12634:12635   */\n      dup3\n        /* \"#utility.yul\":12630:12639   */\n      add\n        /* \"#utility.yul\":12623:12639   */\n      swap1\n      pop\n        /* \"#utility.yul\":12658:12661   */\n      dup1\n        /* \"#utility.yul\":12655:12656   */\n      dup3\n        /* \"#utility.yul\":12652:12662   */\n      gt\n        /* \"#utility.yul\":12649:12685   */\n      iszero\n      tag_538\n      jumpi\n        /* \"#utility.yul\":12665:12683   */\n      tag_539\n      tag_372\n      jump\t// in\n    tag_539:\n        /* \"#utility.yul\":12649:12685   */\n    tag_538:\n        /* \"#utility.yul\":12501:12692   */\n      swap3\n      swap2\n      pop\n      pop\n      jump\t// out\n        /* \"#utility.yul\":12698:12922   */\n    tag_374:\n        /* \"#utility.yul\":12838:12872   */\n      0x45524332303a2064656372656173656420616c6c6f77616e63652062656c6f77\n        /* \"#utility.yul\":12834:12835   */\n      0x00\n        /* \"#utility.yul\":12826:12832   */\n      dup3\n        /* \"#utility.yul\":12822:12836   */\n      add\n        /* \"#utility.yul\":12815:12873   */\n      mstore\n        /* \"#utility.yul\":12907:12914   */\n      0x207a65726f000000000000000000000000000000000000000000000000000000\n        /* \"#utility.yul\":12902:12904   */\n      0x20\n        /* \"#utility.yul\":12894:12900   */\n      dup3\n        /* \"#utility.yul\":12890:12905   */\n      add\n        /* \"#utility.yul\":12883:12915   */\n      mstore\n        /* \"#utility.yul\":12698:12922   */\n      pop\n      jump\t// out\n        /* \"#utility.yul\":12928:13294   */\n    tag_375:\n        /* \"#utility.yul\":13070:13073   */\n      0x00\n        /* \"#utility.yul\":13091:13158   */\n      tag_542\n        /* \"#utility.yul\":13155:13157   */\n      0x25\n        /* \"#utility.yul\":13150:13153   */\n      dup4\n        /* \"#utility.yul\":13091:13158   */\n      tag_341\n      jump\t// in\n    tag_542:\n        /* \"#utility.yul\":13084:13158   */\n      swap2\n      pop\n        /* \"#utility.yul\":13167:13260   */\n      tag_543\n        /* \"#utility.yul\":13256:13259   */\n      dup3\n        /* \"#utility.yul\":13167:13260   */\n      tag_374\n      jump\t// in\n    tag_543:\n        /* \"#utility.yul\":13285:13287   */\n      0x40\n        /* \"#utility.yul\":13280:13283   */\n      dup3\n        /* \"#utility.yul\":13276:13288   */\n      add\n        /* \"#utility.yul\":13269:13288   */\n      swap1\n      pop\n        /* \"#utility.yul\":12928:13294   */\n      swap2\n      swap1\n      pop\n      jump\t// out\n        /* \"#utility.yul\":13300:13719   */\n    tag_200:\n        /* \"#utility.yul\":13466:13470   */\n      0x00\n        /* \"#utility.yul\":13504:13506   */\n      0x20\n        /* \"#utility.yul\":13493:13502   */\n      dup3\n        /* \"#utility.yul\":13489:13507   */\n      add\n        /* \"#utility.yul\":13481:13507   */\n      swap1\n      pop\n        /* \"#utility.yul\":13553:13562   */\n      dup2\n        /* \"#utility.yul\":13547:13551   */\n      dup2\n        /* \"#utility.yul\":13543:13563   */\n      sub\n        /* \"#utility.yul\":13539:13540   */\n      0x00\n        /* \"#utility.yul\":13528:13537   */\n      dup4\n        /* \"#utility.yul\":13524:13541   */\n      add\n        /* \"#utility.yul\":13517:13564   */\n      mstore\n        /* \"#utility.yul\":13581:13712   */\n      tag_545\n        /* \"#utility.yul\":13707:13711   */\n      dup2\n        /* \"#utility.yul\":13581:13712   */\n      tag_375\n      jump\t// in\n    tag_545:\n        /* \"#utility.yul\":13573:13712   */\n      swap1\n      pop\n        /* \"#utility.yul\":13300:13719   */\n      swap2\n      swap1\n      pop\n      jump\t// out\n        /* \"#utility.yul\":13725:13885   */\n    tag_376:\n        /* \"#utility.yul\":13865:13877   */\n      0x4e6f7420656e6f75676800000000000000000000000000000000000000000000\n        /* \"#utility.yul\":13861:13862   */\n      0x00\n        /* \"#utility.yul\":13853:13859   */\n      dup3\n        /* \"#utility.yul\":13849:13863   */\n      add\n        /* \"#utility.yul\":13842:13878   */\n      mstore\n        /* \"#utility.yul\":13725:13885   */\n      pop\n      jump\t// out\n        /* \"#utility.yul\":13891:14257   */\n    tag_377:\n        /* \"#utility.yul\":14033:14036   */\n      0x00\n        /* \"#utility.yul\":14054:14121   */\n      tag_548\n        /* \"#utility.yul\":14118:14120   */\n      0x0a\n        /* \"#utility.yul\":14113:14116   */\n      dup4\n        /* \"#utility.yul\":14054:14121   */\n      tag_341\n      jump\t// in\n    tag_548:\n        /* \"#utility.yul\":14047:14121   */\n      swap2\n      pop\n        /* \"#utility.yul\":14130:14223   */\n      tag_549\n        /* \"#utility.yul\":14219:14222   */\n      dup3\n        /* \"#utility.yul\":14130:14223   */\n      tag_376\n      jump\t// in\n    tag_549:\n        /* \"#utility.yul\":14248:14250   */\n      0x20\n        /* \"#utility.yul\":14243:14246   */\n      dup3\n        /* \"#utility.yul\":14239:14251   */\n      add\n        /* \"#utility.yul\":14232:14251   */\n      swap1\n      pop\n        /* \"#utility.yul\":13891:14257   */\n      swap2\n      swap1\n      pop\n      jump\t// out\n        /* \"#utility.yul\":14263:14682   */\n    tag_210:\n        /* \"#utility.yul\":14429:14433   */\n      0x00\n        /* \"#utility.yul\":14467:14469   */\n      0x20\n        /* \"#utility.yul\":14456:14465   */\n      dup3\n        /* \"#utility.yul\":14452:14470   */\n      add\n        /* \"#utility.yul\":14444:14470   */\n      swap1\n      pop\n        /* \"#utility.yul\":14516:14525   */\n      dup2\n        /* \"#utility.yul\":14510:14514   */\n      dup2\n        /* \"#utility.yul\":14506:14526   */\n      sub\n        /* \"#utility.yul\":14502:14503   */\n      0x00\n        /* \"#utility.yul\":14491:14500   */\n      dup4\n        /* \"#utility.yul\":14487:14504   */\n      add\n        /* \"#utility.yul\":14480:14527   */\n      mstore\n        /* \"#utility.yul\":14544:14675   */\n      tag_551\n        /* \"#utility.yul\":14670:14674   */\n      dup2\n        /* \"#utility.yul\":14544:14675   */\n      tag_377\n      jump\t// in\n    tag_551:\n        /* \"#utility.yul\":14536:14675   */\n      swap1\n      pop\n        /* \"#utility.yul\":14263:14682   */\n      swap2\n      swap1\n      pop\n      jump\t// out\n        /* \"#utility.yul\":14688:15020   */\n    tag_227:\n        /* \"#utility.yul\":14809:14813   */\n      0x00\n        /* \"#utility.yul\":14847:14849   */\n      0x40\n        /* \"#utility.yul\":14836:14845   */\n      dup3\n        /* \"#utility.yul\":14832:14850   */\n      add\n        /* \"#utility.yul\":14824:14850   */\n      swap1\n      pop\n        /* \"#utility.yul\":14860:14931   */\n      tag_553\n        /* \"#utility.yul\":14928:14929   */\n      0x00\n        /* \"#utility.yul\":14917:14926   */\n      dup4\n        /* \"#utility.yul\":14913:14930   */\n      add\n        /* \"#utility.yul\":14904:14910   */\n      dup6\n        /* \"#utility.yul\":14860:14931   */\n      tag_360\n      jump\t// in\n    tag_553:\n        /* \"#utility.yul\":14941:15013   */\n      tag_554\n        /* \"#utility.yul\":15009:15011   */\n      0x20\n        /* \"#utility.yul\":14998:15007   */\n      dup4\n        /* \"#utility.yul\":14994:15012   */\n      add\n        /* \"#utility.yul\":14985:14991   */\n      dup5\n        /* \"#utility.yul\":14941:15013   */\n      tag_360\n      jump\t// in\n    tag_554:\n        /* \"#utility.yul\":14688:15020   */\n      swap4\n      swap3\n      pop\n      pop\n      pop\n      jump\t// out\n        /* \"#utility.yul\":15026:15193   */\n    tag_378:\n        /* \"#utility.yul\":15166:15185   */\n      0x416c6c6f77616e636520746f6f206c6f77000000000000000000000000000000\n        /* \"#utility.yul\":15162:15163   */\n      0x00\n        /* \"#utility.yul\":15154:15160   */\n      dup3\n        /* \"#utility.yul\":15150:15164   */\n      add\n        /* \"#utility.yul\":15143:15186   */\n      mstore\n        /* \"#utility.yul\":15026:15193   */\n      pop\n      jump\t// out\n        /* \"#utility.yul\":15199:15565   */\n    tag_379:\n        /* \"#utility.yul\":15341:15344   */\n      0x00\n        /* \"#utility.yul\":15362:15429   */\n      tag_557\n        /* \"#utility.yul\":15426:15428   */\n      0x11\n        /* \"#utility.yul\":15421:15424   */\n      dup4\n        /* \"#utility.yul\":15362:15429   */\n      tag_341\n      jump\t// in\n    tag_557:\n        /* \"#utility.yul\":15355:15429   */\n      swap2\n      pop\n        /* \"#utility.yul\":15438:15531   */\n      tag_558\n        /* \"#utility.yul\":15527:15530   */\n      dup3\n        /* \"#utility.yul\":15438:15531   */\n      tag_378\n      jump\t// in\n    tag_558:\n        /* \"#utility.yul\":15556:15558   */\n      0x20\n        /* \"#utility.yul\":15551:15554   */\n      dup3\n        /* \"#utility.yul\":15547:15559   */\n      add\n        /* \"#utility.yul\":15540:15559   */\n      swap1\n      pop\n        /* \"#utility.yul\":15199:15565   */\n      swap2\n      swap1\n      pop\n      jump\t// out\n        /* \"#utility.yul\":15571:15990   */\n    tag_233:\n        /* \"#utility.yul\":15737:15741   */\n      0x00\n        /* \"#utility.yul\":15775:15777   */\n      0x20\n        /* \"#utility.yul\":15764:15773   */\n      dup3\n        /* \"#utility.yul\":15760:15778   */\n      add\n        /* \"#utility.yul\":15752:15778   */\n      swap1\n      pop\n        /* \"#utility.yul\":15824:15833   */\n      dup2\n        /* \"#utility.yul\":15818:15822   */\n      dup2\n        /* \"#utility.yul\":15814:15834   */\n      sub\n        /* \"#utility.yul\":15810:15811   */\n      0x00\n        /* \"#utility.yul\":15799:15808   */\n      dup4\n        /* \"#utility.yul\":15795:15812   */\n      add\n        /* \"#utility.yul\":15788:15835   */\n      mstore\n        /* \"#utility.yul\":15852:15983   */\n      tag_560\n        /* \"#utility.yul\":15978:15982   */\n      dup2\n        /* \"#utility.yul\":15852:15983   */\n      tag_379\n      jump\t// in\n    tag_560:\n        /* \"#utility.yul\":15844:15983   */\n      swap1\n      pop\n        /* \"#utility.yul\":15571:15990   */\n      swap2\n      swap1\n      pop\n      jump\t// out\n        /* \"#utility.yul\":15996:16221   */\n    tag_380:\n        /* \"#utility.yul\":16136:16170   */\n      0x4f776e61626c653a206e6577206f776e657220697320746865207a65726f2061\n        /* \"#utility.yul\":16132:16133   */\n      0x00\n        /* \"#utility.yul\":16124:16130   */\n      dup3\n        /* \"#utility.yul\":16120:16134   */\n      add\n        /* \"#utility.yul\":16113:16171   */\n      mstore\n        /* \"#utility.yul\":16205:16213   */\n      0x6464726573730000000000000000000000000000000000000000000000000000\n        /* \"#utility.yul\":16200:16202   */\n      0x20\n        /* \"#utility.yul\":16192:16198   */\n      dup3\n        /* \"#utility.yul\":16188:16203   */\n      add\n        /* \"#utility.yul\":16181:16214   */\n      mstore\n        /* \"#utility.yul\":15996:16221   */\n      pop\n      jump\t// out\n        /* \"#utility.yul\":16227:16593   */\n    tag_381:\n        /* \"#utility.yul\":16369:16372   */\n      0x00\n        /* \"#utility.yul\":16390:16457   */\n      tag_563\n        /* \"#utility.yul\":16454:16456   */\n      0x26\n        /* \"#utility.yul\":16449:16452   */\n      dup4\n        /* \"#utility.yul\":16390:16457   */\n      tag_341\n      jump\t// in\n    tag_563:\n        /* \"#utility.yul\":16383:16457   */\n      swap2\n      pop\n        /* \"#utility.yul\":16466:16559   */\n      tag_564\n        /* \"#utility.yul\":16555:16558   */\n      dup3\n        /* \"#utility.yul\":16466:16559   */\n      tag_380\n      jump\t// in\n    tag_564:\n        /* \"#utility.yul\":16584:16586   */\n      0x40\n        /* \"#utility.yul\":16579:16582   */\n      dup3\n        /* \"#utility.yul\":16575:16587   */\n      add\n        /* \"#utility.yul\":16568:16587   */\n      swap1\n      pop\n        /* \"#utility.yul\":16227:16593   */\n      swap2\n      swap1\n      pop\n      jump\t// out\n        /* \"#utility.yul\":16599:17018   */\n    tag_247:\n        /* \"#utility.yul\":16765:16769   */\n      0x00\n        /* \"#utility.yul\":16803:16805   */\n      0x20\n        /* \"#utility.yul\":16792:16801   */\n      dup3\n        /* \"#utility.yul\":16788:16806   */\n      add\n        /* \"#utility.yul\":16780:16806   */\n      swap1\n      pop\n        /* \"#utility.yul\":16852:16861   */\n      dup2\n        /* \"#utility.yul\":16846:16850   */\n      dup2\n        /* \"#utility.yul\":16842:16862   */\n      sub\n        /* \"#utility.yul\":16838:16839   */\n      0x00\n        /* \"#utility.yul\":16827:16836   */\n      dup4\n        /* \"#utility.yul\":16823:16840   */\n      add\n        /* \"#utility.yul\":16816:16863   */\n      mstore\n        /* \"#utility.yul\":16880:17011   */\n      tag_566\n        /* \"#utility.yul\":17006:17010   */\n      dup2\n        /* \"#utility.yul\":16880:17011   */\n      tag_381\n      jump\t// in\n    tag_566:\n        /* \"#utility.yul\":16872:17011   */\n      swap1\n      pop\n        /* \"#utility.yul\":16599:17018   */\n      swap2\n      swap1\n      pop\n      jump\t// out\n        /* \"#utility.yul\":17024:17247   */\n    tag_382:\n        /* \"#utility.yul\":17164:17198   */\n      0x45524332303a20617070726f76652066726f6d20746865207a65726f20616464\n        /* \"#utility.yul\":17160:17161   */\n      0x00\n        /* \"#utility.yul\":17152:17158   */\n      dup3\n        /* \"#utility.yul\":17148:17162   */\n      add\n        /* \"#utility.yul\":17141:17199   */\n      mstore\n        /* \"#utility.yul\":17233:17239   */\n      0x7265737300000000000000000000000000000000000000000000000000000000\n        /* \"#utility.yul\":17228:17230   */\n      0x20\n        /* \"#utility.yul\":17220:17226   */\n      dup3\n        /* \"#utility.yul\":17216:17231   */\n      add\n        /* \"#utility.yul\":17209:17240   */\n      mstore\n        /* \"#utility.yul\":17024:17247   */\n      pop\n      jump\t// out\n        /* \"#utility.yul\":17253:17619   */\n    tag_383:\n        /* \"#utility.yul\":17395:17398   */\n      0x00\n        /* \"#utility.yul\":17416:17483   */\n      tag_569\n        /* \"#utility.yul\":17480:17482   */\n      0x24\n        /* \"#utility.yul\":17475:17478   */\n      dup4\n        /* \"#utility.yul\":17416:17483   */\n      tag_341\n      jump\t// in\n    tag_569:\n        /* \"#utility.yul\":17409:17483   */\n      swap2\n      pop\n        /* \"#utility.yul\":17492:17585   */\n      tag_570\n        /* \"#utility.yul\":17581:17584   */\n      dup3\n        /* \"#utility.yul\":17492:17585   */\n      tag_382\n      jump\t// in\n    tag_570:\n        /* \"#utility.yul\":17610:17612   */\n      0x40\n        /* \"#utility.yul\":17605:17608   */\n      dup3\n        /* \"#utility.yul\":17601:17613   */\n      add\n        /* \"#utility.yul\":17594:17613   */\n      swap1\n      pop\n        /* \"#utility.yul\":17253:17619   */\n      swap2\n      swap1\n      pop\n      jump\t// out\n        /* \"#utility.yul\":17625:18044   */\n    tag_253:\n        /* \"#utility.yul\":17791:17795   */\n      0x00\n        /* \"#utility.yul\":17829:17831   */\n      0x20\n        /* \"#utility.yul\":17818:17827   */\n      dup3\n        /* \"#utility.yul\":17814:17832   */\n      add\n        /* \"#utility.yul\":17806:17832   */\n      swap1\n      pop\n        /* \"#utility.yul\":17878:17887   */\n      dup2\n        /* \"#utility.yul\":17872:17876   */\n      dup2\n        /* \"#utility.yul\":17868:17888   */\n      sub\n        /* \"#utility.yul\":17864:17865   */\n      0x00\n        /* \"#utility.yul\":17853:17862   */\n      dup4\n        /* \"#utility.yul\":17849:17866   */\n      add\n        /* \"#utility.yul\":17842:17889   */\n      mstore\n        /* \"#utility.yul\":17906:18037   */\n      tag_572\n        /* \"#utility.yul\":18032:18036   */\n      dup2\n        /* \"#utility.yul\":17906:18037   */\n      tag_383\n      jump\t// in\n    tag_572:\n        /* \"#utility.yul\":17898:18037   */\n      swap1\n      pop\n        /* \"#utility.yul\":17625:18044   */\n      swap2\n      swap1\n      pop\n      jump\t// out\n        /* \"#utility.yul\":18050:18271   */\n    tag_384:\n        /* \"#utility.yul\":18190:18224   */\n      0x45524332303a20617070726f766520746f20746865207a65726f206164647265\n        /* \"#utility.yul\":18186:18187   */\n      0x00\n        /* \"#utility.yul\":18178:18184   */\n      dup3\n        /* \"#utility.yul\":18174:18188   */\n      add\n        /* \"#utility.yul\":18167:18225   */\n      mstore\n        /* \"#utility.yul\":18259:18263   */\n      0x7373000000000000000000000000000000000000000000000000000000000000\n        /* \"#utility.yul\":18254:18256   */\n      0x20\n        /* \"#utility.yul\":18246:18252   */\n      dup3\n        /* \"#utility.yul\":18242:18257   */\n      add\n        /* \"#utility.yul\":18235:18264   */\n      mstore\n        /* \"#utility.yul\":18050:18271   */\n      pop\n      jump\t// out\n        /* \"#utility.yul\":18277:18643   */\n    tag_385:\n        /* \"#utility.yul\":18419:18422   */\n      0x00\n        /* \"#utility.yul\":18440:18507   */\n      tag_575\n        /* \"#utility.yul\":18504:18506   */\n      0x22\n        /* \"#utility.yul\":18499:18502   */\n      dup4\n        /* \"#utility.yul\":18440:18507   */\n      tag_341\n      jump\t// in\n    tag_575:\n        /* \"#utility.yul\":18433:18507   */\n      swap2\n      pop\n        /* \"#utility.yul\":18516:18609   */\n      tag_576\n        /* \"#utility.yul\":18605:18608   */\n      dup3\n        /* \"#utility.yul\":18516:18609   */\n      tag_384\n      jump\t// in\n    tag_576:\n        /* \"#utility.yul\":18634:18636   */\n      0x40\n        /* \"#utility.yul\":18629:18632   */\n      dup3\n        /* \"#utility.yul\":18625:18637   */\n      add\n        /* \"#utility.yul\":18618:18637   */\n      swap1\n      pop\n        /* \"#utility.yul\":18277:18643   */\n      swap2\n      swap1\n      pop\n      jump\t// out\n        /* \"#utility.yul\":18649:19068   */\n    tag_256:\n        /* \"#utility.yul\":18815:18819   */\n      0x00\n        /* \"#utility.yul\":18853:18855   */\n      0x20\n        /* \"#utility.yul\":18842:18851   */\n      dup3\n        /* \"#utility.yul\":18838:18856   */\n      add\n        /* \"#utility.yul\":18830:18856   */\n      swap1\n      pop\n        /* \"#utility.yul\":18902:18911   */\n      dup2\n        /* \"#utility.yul\":18896:18900   */\n      dup2\n        /* \"#utility.yul\":18892:18912   */\n      sub\n        /* \"#utility.yul\":18888:18889   */\n      0x00\n        /* \"#utility.yul\":18877:18886   */\n      dup4\n        /* \"#utility.yul\":18873:18890   */\n      add\n        /* \"#utility.yul\":18866:18913   */\n      mstore\n        /* \"#utility.yul\":18930:19061   */\n      tag_578\n        /* \"#utility.yul\":19056:19060   */\n      dup2\n        /* \"#utility.yul\":18930:19061   */\n      tag_385\n      jump\t// in\n    tag_578:\n        /* \"#utility.yul\":18922:19061   */\n      swap1\n      pop\n        /* \"#utility.yul\":18649:19068   */\n      swap2\n      swap1\n      pop\n      jump\t// out\n        /* \"#utility.yul\":19074:19294   */\n    tag_386:\n        /* \"#utility.yul\":19214:19248   */\n      0x45524332303a206275726e2066726f6d20746865207a65726f20616464726573\n        /* \"#utility.yul\":19210:19211   */\n      0x00\n        /* \"#utility.yul\":19202:19208   */\n      dup3\n        /* \"#utility.yul\":19198:19212   */\n      add\n        /* \"#utility.yul\":19191:19249   */\n      mstore\n        /* \"#utility.yul\":19283:19286   */\n      0x7300000000000000000000000000000000000000000000000000000000000000\n        /* \"#utility.yul\":19278:19280   */\n      0x20\n        /* \"#utility.yul\":19270:19276   */\n      dup3\n        /* \"#utility.yul\":19266:19281   */\n      add\n        /* \"#utility.yul\":19259:19287   */\n      mstore\n        /* \"#utility.yul\":19074:19294   */\n      pop\n      jump\t// out\n        /* \"#utility.yul\":19300:19666   */\n    tag_387:\n        /* \"#utility.yul\":19442:19445   */\n      0x00\n        /* \"#utility.yul\":19463:19530   */\n      tag_581\n        /* \"#utility.yul\":19527:19529   */\n      0x21\n        /* \"#utility.yul\":19522:19525   */\n      dup4\n        /* \"#utility.yul\":19463:19530   */\n      tag_341\n      jump\t// in\n    tag_581:\n        /* \"#utility.yul\":19456:19530   */\n      swap2\n      pop\n        /* \"#utility.yul\":19539:19632   */\n      tag_582\n        /* \"#utility.yul\":19628:19631   */\n      dup3\n        /* \"#utility.yul\":19539:19632   */\n      tag_386\n      jump\t// in\n    tag_582:\n        /* \"#utility.yul\":19657:19659   */\n      0x40\n        /* \"#utility.yul\":19652:19655   */\n      dup3\n        /* \"#utility.yul\":19648:19660   */\n      add\n        /* \"#utility.yul\":19641:19660   */\n      swap1\n      pop\n        /* \"#utility.yul\":19300:19666   */\n      swap2\n      swap1\n      pop\n      jump\t// out\n        /* \"#utility.yul\":19672:20091   */\n    tag_261:\n        /* \"#utility.yul\":19838:19842   */\n      0x00\n        /* \"#utility.yul\":19876:19878   */\n      0x20\n        /* \"#utility.yul\":19865:19874   */\n      dup3\n        /* \"#utility.yul\":19861:19879   */\n      add\n        /* \"#utility.yul\":19853:19879   */\n      swap1\n      pop\n        /* \"#utility.yul\":19925:19934   */\n      dup2\n        /* \"#utility.yul\":19919:19923   */\n      dup2\n        /* \"#utility.yul\":19915:19935   */\n      sub\n        /* \"#utility.yul\":19911:19912   */\n      0x00\n        /* \"#utility.yul\":19900:19909   */\n      dup4\n        /* \"#utility.yul\":19896:19913   */\n      add\n        /* \"#utility.yul\":19889:19936   */\n      mstore\n        /* \"#utility.yul\":19953:20084   */\n      tag_584\n        /* \"#utility.yul\":20079:20083   */\n      dup2\n        /* \"#utility.yul\":19953:20084   */\n      tag_387\n      jump\t// in\n    tag_584:\n        /* \"#utility.yul\":19945:20084   */\n      swap1\n      pop\n        /* \"#utility.yul\":19672:20091   */\n      swap2\n      swap1\n      pop\n      jump\t// out\n        /* \"#utility.yul\":20097:20318   */\n    tag_388:\n        /* \"#utility.yul\":20237:20271   */\n      0x45524332303a206275726e20616d6f756e7420657863656564732062616c616e\n        /* \"#utility.yul\":20233:20234   */\n      0x00\n        /* \"#utility.yul\":20225:20231   */\n      dup3\n        /* \"#utility.yul\":20221:20235   */\n      add\n        /* \"#utility.yul\":20214:20272   */\n      mstore\n        /* \"#utility.yul\":20306:20310   */\n      0x6365000000000000000000000000000000000000000000000000000000000000\n        /* \"#utility.yul\":20301:20303   */\n      0x20\n        /* \"#utility.yul\":20293:20299   */\n      dup3\n        /* \"#utility.yul\":20289:20304   */\n      add\n        /* \"#utility.yul\":20282:20311   */\n      mstore\n        /* \"#utility.yul\":20097:20318   */\n      pop\n      jump\t// out\n        /* \"#utility.yul\":20324:20690   */\n    tag_389:\n        /* \"#utility.yul\":20466:20469   */\n      0x00\n        /* \"#utility.yul\":20487:20554   */\n      tag_587\n        /* \"#utility.yul\":20551:20553   */\n      0x22\n        /* \"#utility.yul\":20546:20549   */\n      dup4\n        /* \"#utility.yul\":20487:20554   */\n      tag_341\n      jump\t// in\n    tag_587:\n        /* \"#utility.yul\":20480:20554   */\n      swap2\n      pop\n        /* \"#utility.yul\":20563:20656   */\n      tag_588\n        /* \"#utility.yul\":20652:20655   */\n      dup3\n        /* \"#utility.yul\":20563:20656   */\n      tag_388\n      jump\t// in\n    tag_588:\n        /* \"#utility.yul\":20681:20683   */\n      0x40\n        /* \"#utility.yul\":20676:20679   */\n      dup3\n        /* \"#utility.yul\":20672:20684   */\n      add\n        /* \"#utility.yul\":20665:20684   */\n      swap1\n      pop\n        /* \"#utility.yul\":20324:20690   */\n      swap2\n      swap1\n      pop\n      jump\t// out\n        /* \"#utility.yul\":20696:21115   */\n    tag_266:\n        /* \"#utility.yul\":20862:20866   */\n      0x00\n        /* \"#utility.yul\":20900:20902   */\n      0x20\n        /* \"#utility.yul\":20889:20898   */\n      dup3\n        /* \"#utility.yul\":20885:20903   */\n      add\n        /* \"#utility.yul\":20877:20903   */\n      swap1\n      pop\n        /* \"#utility.yul\":20949:20958   */\n      dup2\n        /* \"#utility.yul\":20943:20947   */\n      dup2\n        /* \"#utility.yul\":20939:20959   */\n      sub\n        /* \"#utility.yul\":20935:20936   */\n      0x00\n        /* \"#utility.yul\":20924:20933   */\n      dup4\n        /* \"#utility.yul\":20920:20937   */\n      add\n        /* \"#utility.yul\":20913:20960   */\n      mstore\n        /* \"#utility.yul\":20977:21108   */\n      tag_590\n        /* \"#utility.yul\":21103:21107   */\n      dup2\n        /* \"#utility.yul\":20977:21108   */\n      tag_389\n      jump\t// in\n    tag_590:\n        /* \"#utility.yul\":20969:21108   */\n      swap1\n      pop\n        /* \"#utility.yul\":20696:21115   */\n      swap2\n      swap1\n      pop\n      jump\t// out\n        /* \"#utility.yul\":21121:21300   */\n    tag_390:\n        /* \"#utility.yul\":21261:21292   */\n      0x45524332303a20696e73756666696369656e7420616c6c6f77616e6365000000\n        /* \"#utility.yul\":21257:21258   */\n      0x00\n        /* \"#utility.yul\":21249:21255   */\n      dup3\n        /* \"#utility.yul\":21245:21259   */\n      add\n        /* \"#utility.yul\":21238:21293   */\n      mstore\n        /* \"#utility.yul\":21121:21300   */\n      pop\n      jump\t// out\n        /* \"#utility.yul\":21306:21672   */\n    tag_391:\n        /* \"#utility.yul\":21448:21451   */\n      0x00\n        /* \"#utility.yul\":21469:21536   */\n      tag_593\n        /* \"#utility.yul\":21533:21535   */\n      0x1d\n        /* \"#utility.yul\":21528:21531   */\n      dup4\n        /* \"#utility.yul\":21469:21536   */\n      tag_341\n      jump\t// in\n    tag_593:\n        /* \"#utility.yul\":21462:21536   */\n      swap2\n      pop\n        /* \"#utility.yul\":21545:21638   */\n      tag_594\n        /* \"#utility.yul\":21634:21637   */\n      dup3\n        /* \"#utility.yul\":21545:21638   */\n      tag_390\n      jump\t// in\n    tag_594:\n        /* \"#utility.yul\":21663:21665   */\n      0x20\n        /* \"#utility.yul\":21658:21661   */\n      dup3\n        /* \"#utility.yul\":21654:21666   */\n      add\n        /* \"#utility.yul\":21647:21666   */\n      swap1\n      pop\n        /* \"#utility.yul\":21306:21672   */\n      swap2\n      swap1\n      pop\n      jump\t// out\n        /* \"#utility.yul\":21678:22097   */\n    tag_275:\n        /* \"#utility.yul\":21844:21848   */\n      0x00\n        /* \"#utility.yul\":21882:21884   */\n      0x20\n        /* \"#utility.yul\":21871:21880   */\n      dup3\n        /* \"#utility.yul\":21867:21885   */\n      add\n        /* \"#utility.yul\":21859:21885   */\n      swap1\n      pop\n        /* \"#utility.yul\":21931:21940   */\n      dup2\n        /* \"#utility.yul\":21925:21929   */\n      dup2\n        /* \"#utility.yul\":21921:21941   */\n      sub\n        /* \"#utility.yul\":21917:21918   */\n      0x00\n        /* \"#utility.yul\":21906:21915   */\n      dup4\n        /* \"#utility.yul\":21902:21919   */\n      add\n        /* \"#utility.yul\":21895:21942   */\n      mstore\n        /* \"#utility.yul\":21959:22090   */\n      tag_596\n        /* \"#utility.yul\":22085:22089   */\n      dup2\n        /* \"#utility.yul\":21959:22090   */\n      tag_391\n      jump\t// in\n    tag_596:\n        /* \"#utility.yul\":21951:22090   */\n      swap1\n      pop\n        /* \"#utility.yul\":21678:22097   */\n      swap2\n      swap1\n      pop\n      jump\t// out\n        /* \"#utility.yul\":22103:22327   */\n    tag_392:\n        /* \"#utility.yul\":22243:22277   */\n      0x45524332303a207472616e736665722066726f6d20746865207a65726f206164\n        /* \"#utility.yul\":22239:22240   */\n      0x00\n        /* \"#utility.yul\":22231:22237   */\n      dup3\n        /* \"#utility.yul\":22227:22241   */\n      add\n        /* \"#utility.yul\":22220:22278   */\n      mstore\n        /* \"#utility.yul\":22312:22319   */\n      0x6472657373000000000000000000000000000000000000000000000000000000\n        /* \"#utility.yul\":22307:22309   */\n      0x20\n        /* \"#utility.yul\":22299:22305   */\n      dup3\n        /* \"#utility.yul\":22295:22310   */\n      add\n        /* \"#utility.yul\":22288:22320   */\n      mstore\n        /* \"#utility.yul\":22103:22327   */\n      pop\n      jump\t// out\n        /* \"#utility.yul\":22333:22699   */\n    tag_393:\n        /* \"#utility.yul\":22475:22478   */\n      0x00\n        /* \"#utility.yul\":22496:22563   */\n      tag_599\n        /* \"#utility.yul\":22560:22562   */\n      0x25\n        /* \"#utility.yul\":22555:22558   */\n      dup4\n        /* \"#utility.yul\":22496:22563   */\n      tag_341\n      jump\t// in\n    tag_599:\n        /* \"#utility.yul\":22489:22563   */\n      swap2\n      pop\n        /* \"#utility.yul\":22572:22665   */\n      tag_600\n        /* \"#utility.yul\":22661:22664   */\n      dup3\n        /* \"#utility.yul\":22572:22665   */\n      tag_392\n      jump\t// in\n    tag_600:\n        /* \"#utility.yul\":22690:22692   */\n      0x40\n        /* \"#utility.yul\":22685:22688   */\n      dup3\n        /* \"#utility.yul\":22681:22693   */\n      add\n        /* \"#utility.yul\":22674:22693   */\n      swap1\n      pop\n        /* \"#utility.yul\":22333:22699   */\n      swap2\n      swap1\n      pop\n      jump\t// out\n        /* \"#utility.yul\":22705:23124   */\n    tag_280:\n        /* \"#utility.yul\":22871:22875   */\n      0x00\n        /* \"#utility.yul\":22909:22911   */\n      0x20\n        /* \"#utility.yul\":22898:22907   */\n      dup3\n        /* \"#utility.yul\":22894:22912   */\n      add\n        /* \"#utility.yul\":22886:22912   */\n      swap1\n      pop\n        /* \"#utility.yul\":22958:22967   */\n      dup2\n        /* \"#utility.yul\":22952:22956   */\n      dup2\n        /* \"#utility.yul\":22948:22968   */\n      sub\n        /* \"#utility.yul\":22944:22945   */\n      0x00\n        /* \"#utility.yul\":22933:22942   */\n      dup4\n        /* \"#utility.yul\":22929:22946   */\n      add\n        /* \"#utility.yul\":22922:22969   */\n      mstore\n        /* \"#utility.yul\":22986:23117   */\n      tag_602\n        /* \"#utility.yul\":23112:23116   */\n      dup2\n        /* \"#utility.yul\":22986:23117   */\n      tag_393\n      jump\t// in\n    tag_602:\n        /* \"#utility.yul\":22978:23117   */\n      swap1\n      pop\n        /* \"#utility.yul\":22705:23124   */\n      swap2\n      swap1\n      pop\n      jump\t// out\n        /* \"#utility.yul\":23130:23352   */\n    tag_394:\n        /* \"#utility.yul\":23270:23304   */\n      0x45524332303a207472616e7366657220746f20746865207a65726f2061646472\n        /* \"#utility.yul\":23266:23267   */\n      0x00\n        /* \"#utility.yul\":23258:23264   */\n      dup3\n        /* \"#utility.yul\":23254:23268   */\n      add\n        /* \"#utility.yul\":23247:23305   */\n      mstore\n        /* \"#utility.yul\":23339:23344   */\n      0x6573730000000000000000000000000000000000000000000000000000000000\n        /* \"#utility.yul\":23334:23336   */\n      0x20\n        /* \"#utility.yul\":23326:23332   */\n      dup3\n        /* \"#utility.yul\":23322:23337   */\n      add\n        /* \"#utility.yul\":23315:23345   */\n      mstore\n        /* \"#utility.yul\":23130:23352   */\n      pop\n      jump\t// out\n        /* \"#utility.yul\":23358:23724   */\n    tag_395:\n        /* \"#utility.yul\":23500:23503   */\n      0x00\n        /* \"#utility.yul\":23521:23588   */\n      tag_605\n        /* \"#utility.yul\":23585:23587   */\n      0x23\n        /* \"#utility.yul\":23580:23583   */\n      dup4\n        /* \"#utility.yul\":23521:23588   */\n      tag_341\n      jump\t// in\n    tag_605:\n        /* \"#utility.yul\":23514:23588   */\n      swap2\n      pop\n        /* \"#utility.yul\":23597:23690   */\n      tag_606\n        /* \"#utility.yul\":23686:23689   */\n      dup3\n        /* \"#utility.yul\":23597:23690   */\n      tag_394\n      jump\t// in\n    tag_606:\n        /* \"#utility.yul\":23715:23717   */\n      0x40\n        /* \"#utility.yul\":23710:23713   */\n      dup3\n        /* \"#utility.yul\":23706:23718   */\n      add\n        /* \"#utility.yul\":23699:23718   */\n      swap1\n      pop\n        /* \"#utility.yul\":23358:23724   */\n      swap2\n      swap1\n      pop\n      jump\t// out\n        /* \"#utility.yul\":23730:24149   */\n    tag_283:\n        /* \"#utility.yul\":23896:23900   */\n      0x00\n        /* \"#utility.yul\":23934:23936   */\n      0x20\n        /* \"#utility.yul\":23923:23932   */\n      dup3\n        /* \"#utility.yul\":23919:23937   */\n      add\n        /* \"#utility.yul\":23911:23937   */\n      swap1\n      pop\n        /* \"#utility.yul\":23983:23992   */\n      dup2\n        /* \"#utility.yul\":23977:23981   */\n      dup2\n        /* \"#utility.yul\":23973:23993   */\n      sub\n        /* \"#utility.yul\":23969:23970   */\n      0x00\n        /* \"#utility.yul\":23958:23967   */\n      dup4\n        /* \"#utility.yul\":23954:23971   */\n      add\n        /* \"#utility.yul\":23947:23994   */\n      mstore\n        /* \"#utility.yul\":24011:24142   */\n      tag_608\n        /* \"#utility.yul\":24137:24141   */\n      dup2\n        /* \"#utility.yul\":24011:24142   */\n      tag_395\n      jump\t// in\n    tag_608:\n        /* \"#utility.yul\":24003:24142   */\n      swap1\n      pop\n        /* \"#utility.yul\":23730:24149   */\n      swap2\n      swap1\n      pop\n      jump\t// out\n        /* \"#utility.yul\":24155:24380   */\n    tag_396:\n        /* \"#utility.yul\":24295:24329   */\n      0x45524332303a207472616e7366657220616d6f756e7420657863656564732062\n        /* \"#utility.yul\":24291:24292   */\n      0x00\n        /* \"#utility.yul\":24283:24289   */\n      dup3\n        /* \"#utility.yul\":24279:24293   */\n      add\n        /* \"#utility.yul\":24272:24330   */\n      mstore\n        /* \"#utility.yul\":24364:24372   */\n      0x616c616e63650000000000000000000000000000000000000000000000000000\n        /* \"#utility.yul\":24359:24361   */\n      0x20\n        /* \"#utility.yul\":24351:24357   */\n      dup3\n        /* \"#utility.yul\":24347:24362   */\n      add\n        /* \"#utility.yul\":24340:24373   */\n      mstore\n        /* \"#utility.yul\":24155:24380   */\n      pop\n      jump\t// out\n        /* \"#utility.yul\":24386:24752   */\n    tag_397:\n        /* \"#utility.yul\":24528:24531   */\n      0x00\n        /* \"#utility.yul\":24549:24616   */\n      tag_611\n        /* \"#utility.yul\":24613:24615   */\n      0x26\n        /* \"#utility.yul\":24608:24611   */\n      dup4\n        /* \"#utility.yul\":24549:24616   */\n      tag_341\n      jump\t// in\n    tag_611:\n        /* \"#utility.yul\":24542:24616   */\n      swap2\n      pop\n        /* \"#utility.yul\":24625:24718   */\n      tag_612\n        /* \"#utility.yul\":24714:24717   */\n      dup3\n        /* \"#utility.yul\":24625:24718   */\n      tag_396\n      jump\t// in\n    tag_612:\n        /* \"#utility.yul\":24743:24745   */\n      0x40\n        /* \"#utility.yul\":24738:24741   */\n      dup3\n        /* \"#utility.yul\":24734:24746   */\n      add\n        /* \"#utility.yul\":24727:24746   */\n      swap1\n      pop\n        /* \"#utility.yul\":24386:24752   */\n      swap2\n      swap1\n      pop\n      jump\t// out\n        /* \"#utility.yul\":24758:25177   */\n    tag_287:\n        /* \"#utility.yul\":24924:24928   */\n      0x00\n        /* \"#utility.yul\":24962:24964   */\n      0x20\n        /* \"#utility.yul\":24951:24960   */\n      dup3\n        /* \"#utility.yul\":24947:24965   */\n      add\n        /* \"#utility.yul\":24939:24965   */\n      swap1\n      pop\n        /* \"#utility.yul\":25011:25020   */\n      dup2\n        /* \"#utility.yul\":25005:25009   */\n      dup2\n        /* \"#utility.yul\":25001:25021   */\n      sub\n        /* \"#utility.yul\":24997:24998   */\n      0x00\n        /* \"#utility.yul\":24986:24995   */\n      dup4\n        /* \"#utility.yul\":24982:24999   */\n      add\n        /* \"#utility.yul\":24975:25022   */\n      mstore\n        /* \"#utility.yul\":25039:25170   */\n      tag_614\n        /* \"#utility.yul\":25165:25169   */\n      dup2\n        /* \"#utility.yul\":25039:25170   */\n      tag_397\n      jump\t// in\n    tag_614:\n        /* \"#utility.yul\":25031:25170   */\n      swap1\n      pop\n        /* \"#utility.yul\":24758:25177   */\n      swap2\n      swap1\n      pop\n      jump\t// out\n        /* \"#utility.yul\":25183:25365   */\n    tag_398:\n        /* \"#utility.yul\":25323:25357   */\n      0x4f776e61626c653a2063616c6c6572206973206e6f7420746865206f776e6572\n        /* \"#utility.yul\":25319:25320   */\n      0x00\n        /* \"#utility.yul\":25311:25317   */\n      dup3\n        /* \"#utility.yul\":25307:25321   */\n      add\n        /* \"#utility.yul\":25300:25358   */\n      mstore\n        /* \"#utility.yul\":25183:25365   */\n      pop\n      jump\t// out\n        /* \"#utility.yul\":25371:25737   */\n    tag_399:\n        /* \"#utility.yul\":25513:25516   */\n      0x00\n        /* \"#utility.yul\":25534:25601   */\n      tag_617\n        /* \"#utility.yul\":25598:25600   */\n      0x20\n        /* \"#utility.yul\":25593:25596   */\n      dup4\n        /* \"#utility.yul\":25534:25601   */\n      tag_341\n      jump\t// in\n    tag_617:\n        /* \"#utility.yul\":25527:25601   */\n      swap2\n      pop\n        /* \"#utility.yul\":25610:25703   */\n      tag_618\n        /* \"#utility.yul\":25699:25702   */\n      dup3\n        /* \"#utility.yul\":25610:25703   */\n      tag_398\n      jump\t// in\n    tag_618:\n        /* \"#utility.yul\":25728:25730   */\n      0x20\n        /* \"#utility.yul\":25723:25726   */\n      dup3\n        /* \"#utility.yul\":25719:25731   */\n      add\n        /* \"#utility.yul\":25712:25731   */\n      swap1\n      pop\n        /* \"#utility.yul\":25371:25737   */\n      swap2\n      swap1\n      pop\n      jump\t// out\n        /* \"#utility.yul\":25743:26162   */\n    tag_295:\n        /* \"#utility.yul\":25909:25913   */\n      0x00\n        /* \"#utility.yul\":25947:25949   */\n      0x20\n        /* \"#utility.yul\":25936:25945   */\n      dup3\n        /* \"#utility.yul\":25932:25950   */\n      add\n        /* \"#utility.yul\":25924:25950   */\n      swap1\n      pop\n        /* \"#utility.yul\":25996:26005   */\n      dup2\n        /* \"#utility.yul\":25990:25994   */\n      dup2\n        /* \"#utility.yul\":25986:26006   */\n      sub\n        /* \"#utility.yul\":25982:25983   */\n      0x00\n        /* \"#utility.yul\":25971:25980   */\n      dup4\n        /* \"#utility.yul\":25967:25984   */\n      add\n        /* \"#utility.yul\":25960:26007   */\n      mstore\n        /* \"#utility.yul\":26024:26155   */\n      tag_620\n        /* \"#utility.yul\":26150:26154   */\n      dup2\n        /* \"#utility.yul\":26024:26155   */\n      tag_399\n      jump\t// in\n    tag_620:\n        /* \"#utility.yul\":26016:26155   */\n      swap1\n      pop\n        /* \"#utility.yul\":25743:26162   */\n      swap2\n      swap1\n      pop\n      jump\t// out\n        /* \"#utility.yul\":26168:26349   */\n    tag_400:\n        /* \"#utility.yul\":26308:26341   */\n      0x45524332303a206d696e7420746f20746865207a65726f206164647265737300\n        /* \"#utility.yul\":26304:26305   */\n      0x00\n        /* \"#utility.yul\":26296:26302   */\n      dup3\n        /* \"#utility.yul\":26292:26306   */\n      add\n        /* \"#utility.yul\":26285:26342   */\n      mstore\n        /* \"#utility.yul\":26168:26349   */\n      pop\n      jump\t// out\n        /* \"#utility.yul\":26355:26721   */\n    tag_401:\n        /* \"#utility.yul\":26497:26500   */\n      0x00\n        /* \"#utility.yul\":26518:26585   */\n      tag_623\n        /* \"#utility.yul\":26582:26584   */\n      0x1f\n        /* \"#utility.yul\":26577:26580   */\n      dup4\n        /* \"#utility.yul\":26518:26585   */\n      tag_341\n      jump\t// in\n    tag_623:\n        /* \"#utility.yul\":26511:26585   */\n      swap2\n      pop\n        /* \"#utility.yul\":26594:26687   */\n      tag_624\n        /* \"#utility.yul\":26683:26686   */\n      dup3\n        /* \"#utility.yul\":26594:26687   */\n      tag_400\n      jump\t// in\n    tag_624:\n        /* \"#utility.yul\":26712:26714   */\n      0x20\n        /* \"#utility.yul\":26707:26710   */\n      dup3\n        /* \"#utility.yul\":26703:26715   */\n      add\n        /* \"#utility.yul\":26696:26715   */\n      swap1\n      pop\n        /* \"#utility.yul\":26355:26721   */\n      swap2\n      swap1\n      pop\n      jump\t// out\n        /* \"#utility.yul\":26727:27146   */\n    tag_312:\n        /* \"#utility.yul\":26893:26897   */\n      0x00\n        /* \"#utility.yul\":26931:26933   */\n      0x20\n        /* \"#utility.yul\":26920:26929   */\n      dup3\n        /* \"#utility.yul\":26916:26934   */\n      add\n        /* \"#utility.yul\":26908:26934   */\n      swap1\n      pop\n        /* \"#utility.yul\":26980:26989   */\n      dup2\n        /* \"#utility.yul\":26974:26978   */\n      dup2\n        /* \"#utility.yul\":26970:26990   */\n      sub\n        /* \"#utility.yul\":26966:26967   */\n      0x00\n        /* \"#utility.yul\":26955:26964   */\n      dup4\n        /* \"#utility.yul\":26951:26968   */\n      add\n        /* \"#utility.yul\":26944:26991   */\n      mstore\n        /* \"#utility.yul\":27008:27139   */\n      tag_626\n        /* \"#utility.yul\":27134:27138   */\n      dup2\n        /* \"#utility.yul\":27008:27139   */\n      tag_401\n      jump\t// in\n    tag_626:\n        /* \"#utility.yul\":27000:27139   */\n      swap1\n      pop\n        /* \"#utility.yul\":26727:27146   */\n      swap2\n      swap1\n      pop\n      jump\t// out\n        /* \"#utility.yul\":27152:27322   */\n    tag_402:\n        /* \"#utility.yul\":27292:27314   */\n      0x5061757361626c653a206e6f7420706175736564000000000000000000000000\n        /* \"#utility.yul\":27288:27289   */\n      0x00\n        /* \"#utility.yul\":27280:27286   */\n      dup3\n        /* \"#utility.yul\":27276:27290   */\n      add\n        /* \"#utility.yul\":27269:27315   */\n      mstore\n        /* \"#utility.yul\":27152:27322   */\n      pop\n      jump\t// out\n        /* \"#utility.yul\":27328:27694   */\n    tag_403:\n        /* \"#utility.yul\":27470:27473   */\n      0x00\n        /* \"#utility.yul\":27491:27558   */\n      tag_629\n        /* \"#utility.yul\":27555:27557   */\n      0x14\n        /* \"#utility.yul\":27550:27553   */\n      dup4\n        /* \"#utility.yul\":27491:27558   */\n      tag_341\n      jump\t// in\n    tag_629:\n        /* \"#utility.yul\":27484:27558   */\n      swap2\n      pop\n        /* \"#utility.yul\":27567:27660   */\n      tag_630\n        /* \"#utility.yul\":27656:27659   */\n      dup3\n        /* \"#utility.yul\":27567:27660   */\n      tag_402\n      jump\t// in\n    tag_630:\n        /* \"#utility.yul\":27685:27687   */\n      0x20\n        /* \"#utility.yul\":27680:27683   */\n      dup3\n        /* \"#utility.yul\":27676:27688   */\n      add\n        /* \"#utility.yul\":27669:27688   */\n      swap1\n      pop\n        /* \"#utility.yul\":27328:27694   */\n      swap2\n      swap1\n      pop\n      jump\t// out\n        /* \"#utility.yul\":27700:28119   */\n    tag_333:\n        /* \"#utility.yul\":27866:27870   */\n      0x00\n        /* \"#utility.yul\":27904:27906   */\n      0x20\n        /* \"#utility.yul\":27893:27902   */\n      dup3\n        /* \"#utility.yul\":27889:27907   */\n      add\n        /* \"#utility.yul\":27881:27907   */\n      swap1\n      pop\n        /* \"#utility.yul\":27953:27962   */\n      dup2\n        /* \"#utility.yul\":27947:27951   */\n      dup2\n        /* \"#utility.yul\":27943:27963   */\n      sub\n        /* \"#utility.yul\":27939:27940   */\n      0x00\n        /* \"#utility.yul\":27928:27937   */\n      dup4\n        /* \"#utility.yul\":27924:27941   */\n      add\n        /* \"#utility.yul\":27917:27964   */\n      mstore\n        /* \"#utility.yul\":27981:28112   */\n      tag_632\n        /* \"#utility.yul\":28107:28111   */\n      dup2\n        /* \"#utility.yul\":27981:28112   */\n      tag_403\n      jump\t// in\n    tag_632:\n        /* \"#utility.yul\":27973:28112   */\n      swap1\n      pop\n        /* \"#utility.yul\":27700:28119   */\n      swap2\n      swap1\n      pop\n      jump\t// out\n        /* \"#utility.yul\":28125:28291   */\n    tag_404:\n        /* \"#utility.yul\":28265:28283   */\n      0x5061757361626c653a2070617573656400000000000000000000000000000000\n        /* \"#utility.yul\":28261:28262   */\n      0x00\n        /* \"#utility.yul\":28253:28259   */\n      dup3\n        /* \"#utility.yul\":28249:28263   */\n      add\n        /* \"#utility.yul\":28242:28284   */\n      mstore\n        /* \"#utility.yul\":28125:28291   */\n      pop\n      jump\t// out\n        /* \"#utility.yul\":28297:28663   */\n    tag_405:\n        /* \"#utility.yul\":28439:28442   */\n      0x00\n        /* \"#utility.yul\":28460:28527   */\n      tag_635\n        /* \"#utility.yul\":28524:28526   */\n      0x10\n        /* \"#utility.yul\":28519:28522   */\n      dup4\n        /* \"#utility.yul\":28460:28527   */\n      tag_341\n      jump\t// in\n    tag_635:\n        /* \"#utility.yul\":28453:28527   */\n      swap2\n      pop\n        /* \"#utility.yul\":28536:28629   */\n      tag_636\n        /* \"#utility.yul\":28625:28628   */\n      dup3\n        /* \"#utility.yul\":28536:28629   */\n      tag_404\n      jump\t// in\n    tag_636:\n        /* \"#utility.yul\":28654:28656   */\n      0x20\n        /* \"#utility.yul\":28649:28652   */\n      dup3\n        /* \"#utility.yul\":28645:28657   */\n      add\n        /* \"#utility.yul\":28638:28657   */\n      swap1\n      pop\n        /* \"#utility.yul\":28297:28663   */\n      swap2\n      swap1\n      pop\n      jump\t// out\n        /* \"#utility.yul\":28669:29088   */\n    tag_338:\n        /* \"#utility.yul\":28835:28839   */\n      0x00\n        /* \"#utility.yul\":28873:28875   */\n      0x20\n        /* \"#utility.yul\":28862:28871   */\n      dup3\n        /* \"#utility.yul\":28858:28876   */\n      add\n        /* \"#utility.yul\":28850:28876   */\n      swap1\n      pop\n        /* \"#utility.yul\":28922:28931   */\n      dup2\n        /* \"#utility.yul\":28916:28920   */\n      dup2\n        /* \"#utility.yul\":28912:28932   */\n      sub\n        /* \"#utility.yul\":28908:28909   */\n      0x00\n        /* \"#utility.yul\":28897:28906   */\n      dup4\n        /* \"#utility.yul\":28893:28910   */\n      add\n        /* \"#utility.yul\":28886:28933   */\n      mstore\n        /* \"#utility.yul\":28950:29081   */\n      tag_638\n        /* \"#utility.yul\":29076:29080   */\n      dup2\n        /* \"#utility.yul\":28950:29081   */\n      tag_405\n      jump\t// in\n    tag_638:\n        /* \"#utility.yul\":28942:29081   */\n      swap1\n      pop\n        /* \"#utility.yul\":28669:29088   */\n      swap2\n      swap1\n      pop\n      jump\t// out\n\n    auxdata: 0xa2646970667358221220a4034f970fb002e6b1a77237ebc2ddc7cd14f4dff9767cbd2950485f845fae3e64736f6c63430008120033\n}\n",
				"bytecode": {
					"linkReferences": {},
					"object": "60806040523480156200001157600080fd5b506040516200306d3803806200306d833981810160405281019062000037919062000311565b6040518060400160405280600481526020017f426f6e64000000000000000000000000000000000000000000000000000000008152506040518060400160405280600581526020017f65426f6e640000000000000000000000000000000000000000000000000000008152508160039081620000b49190620005dd565b508060049081620000c69190620005dd565b5050506000600560006101000a81548160ff02191690831515021790555062000104620000f86200019e60201b60201c565b620001a660201b60201c565b82600660006101000a81548173ffffffffffffffffffffffffffffffffffffffff021916908373ffffffffffffffffffffffffffffffffffffffff16021790555081600760006101000a81548173ffffffffffffffffffffffffffffffffffffffff021916908373ffffffffffffffffffffffffffffffffffffffff160217905550806008819055506064600981905550505050620006c4565b600033905090565b6000600560019054906101000a900473ffffffffffffffffffffffffffffffffffffffff16905081600560016101000a81548173ffffffffffffffffffffffffffffffffffffffff021916908373ffffffffffffffffffffffffffffffffffffffff1602179055508173ffffffffffffffffffffffffffffffffffffffff168173ffffffffffffffffffffffffffffffffffffffff167f8be0079c531659141344cd1fd0a4f28419497f9722a3daafe3b4186f6b6457e060405160405180910390a35050565b600080fd5b600073ffffffffffffffffffffffffffffffffffffffff82169050919050565b60006200029e8262000271565b9050919050565b620002b08162000291565b8114620002bc57600080fd5b50565b600081519050620002d081620002a5565b92915050565b6000819050919050565b620002eb81620002d6565b8114620002f757600080fd5b50565b6000815190506200030b81620002e0565b92915050565b6000806000606084860312156200032d576200032c6200026c565b5b60006200033d86828701620002bf565b93505060206200035086828701620002bf565b92505060406200036386828701620002fa565b9150509250925092565b600081519050919050565b7f4e487b7100000000000000000000000000000000000000000000000000000000600052604160045260246000fd5b7f4e487b7100000000000000000000000000000000000000000000000000000000600052602260045260246000fd5b60006002820490506001821680620003ef57607f821691505b602082108103620004055762000404620003a7565b5b50919050565b60008190508160005260206000209050919050565b60006020601f8301049050919050565b600082821b905092915050565b6000600883026200046f7fffffffffffffffffffffffffffffffffffffffffffffffffffffffffffffffff8262000430565b6200047b868362000430565b95508019841693508086168417925050509392505050565b6000819050919050565b6000620004be620004b8620004b284620002d6565b62000493565b620002d6565b9050919050565b6000819050919050565b620004da836200049d565b620004f2620004e982620004c5565b8484546200043d565b825550505050565b600090565b62000509620004fa565b62000516818484620004cf565b505050565b5b818110156200053e5762000532600082620004ff565b6001810190506200051c565b5050565b601f8211156200058d5762000557816200040b565b620005628462000420565b8101602085101562000572578190505b6200058a620005818562000420565b8301826200051b565b50505b505050565b600082821c905092915050565b6000620005b26000198460080262000592565b1980831691505092915050565b6000620005cd83836200059f565b9150826002028217905092915050565b620005e8826200036d565b67ffffffffffffffff81111562000604576200060362000378565b5b620006108254620003d6565b6200061d82828562000542565b600060209050601f83116001811462000655576000841562000640578287015190505b6200064c8582620005bf565b865550620006bc565b601f19841662000665866200040b565b60005b828110156200068f5784890151825560018201915060208501945060208101905062000668565b86831015620006af5784890151620006ab601f8916826200059f565b8355505b6001600288020188555050505b505050505050565b61299980620006d46000396000f3fe608060405234801561001057600080fd5b50600436106101375760003560e01c806370a08231116100b857806395d89b411161007c57806395d89b4114610304578063a457c2d714610322578063a9059cbb14610352578063cc872b6614610382578063dd62ed3e1461039e578063f2fde38b146103ce57610137565b806370a0823114610286578063715018a6146102b657806379cc6790146102c05780638456cb59146102dc5780638da5cb5b146102e657610137565b8063313ce567116100ff578063313ce567146101f457806339509351146102125780633f4ba83a1461024257806342966c681461024c5780635c975abb1461026857610137565b806306fdde031461013c578063095ea7b31461015a57806314ca579a1461018a57806318160ddd146101a657806323b872dd146101c4575b600080fd5b6101446103ea565b6040516101519190611b16565b60405180910390f35b610174600480360381019061016f9190611bd1565b61047c565b6040516101819190611c2c565b60405180910390f35b6101a4600480360381019061019f9190611c47565b61049f565b005b6101ae61077c565b6040516101bb9190611c83565b60405180910390f35b6101de60048036038101906101d99190611c9e565b610786565b6040516101eb9190611c2c565b60405180910390f35b6101fc6107b5565b6040516102099190611d0d565b60405180910390f35b61022c60048036038101906102279190611bd1565b6107ba565b6040516102399190611c2c565b60405180910390f35b61024a6107f1565b005b61026660048036038101906102619190611c47565b610803565b005b610270610817565b60405161027d9190611c2c565b60405180910390f35b6102a0600480360381019061029b9190611d28565b61082e565b6040516102ad9190611c83565b60405180910390f35b6102be610876565b005b6102da60048036038101906102d59190611bd1565b61088a565b005b6102e46108aa565b005b6102ee6108bc565b6040516102fb9190611d64565b60405180910390f35b61030c6108e6565b6040516103199190611b16565b60405180910390f35b61033c60048036038101906103379190611bd1565b610978565b6040516103499190611c2c565b60405180910390f35b61036c60048036038101906103679190611bd1565b6109ef565b6040516103799190611c2c565b60405180910390f35b61039c60048036038101906103979190611c47565b610a12565b005b6103b860048036038101906103b39190611d7f565b610de9565b6040516103c59190611c83565b60405180910390f35b6103e860048036038101906103e39190611d28565b610e70565b005b6060600380546103f990611dee565b80601f016020809104026020016040519081016040528092919081815260200182805461042590611dee565b80156104725780601f1061044757610100808354040283529160200191610472565b820191906000526020600020905b81548152906001019060200180831161045557829003601f168201915b5050505050905090565b600080610487610ef3565b9050610494818585610efb565b600191505092915050565b806104a861077c565b11156104e9576040517f08c379a00000000000000000000000000000000000000000000000000000000081526004016104e090611e6b565b60405180910390fd5b600660009054906101000a900473ffffffffffffffffffffffffffffffffffffffff1673ffffffffffffffffffffffffffffffffffffffff1663f35f0f743360026040518363ffffffff1660e01b8152600401610547929190611eac565b602060405180830381865afa158015610564573d6000803e3d6000fd5b505050506040513d601f19601f820116820180604052508101906105889190611f01565b6105c7576040517f08c379a00000000000000000000000000000000000000000000000000000000081526004016105be90611f7a565b60405180910390fd5b6000811161060a576040517f08c379a000000000000000000000000000000000000000000000000000000000815260040161060190611fe6565b60405180910390fd5b600954816106189190612035565b600760009054906101000a900473ffffffffffffffffffffffffffffffffffffffff1673ffffffffffffffffffffffffffffffffffffffff166370a08231306040518263ffffffff1660e01b81526004016106739190611d64565b602060405180830381865afa158015610690573d6000803e3d6000fd5b505050506040513d601f19601f820116820180604052508101906106b4919061208c565b10156106bf57600080fd5b6106c933826110c4565b600760009054906101000a900473ffffffffffffffffffffffffffffffffffffffff1673ffffffffffffffffffffffffffffffffffffffff166323b872dd3033600954856107179190612035565b6040518463ffffffff1660e01b8152600401610735939291906120b9565b6020604051808303816000875af1158015610754573d6000803e3d6000fd5b505050506040513d601f19601f820116820180604052508101906107789190611f01565b5050565b6000600254905090565b600080610791610ef3565b905061079e858285611291565b6107a985858561131d565b60019150509392505050565b600090565b6000806107c5610ef3565b90506107e68185856107d78589610de9565b6107e191906120f0565b610efb565b600191505092915050565b6107f9611593565b610801611611565b565b61081461080e610ef3565b826110c4565b50565b6000600560009054906101000a900460ff16905090565b60008060008373ffffffffffffffffffffffffffffffffffffffff1673ffffffffffffffffffffffffffffffffffffffff168152602001908152602001600020549050919050565b61087e611593565b6108886000611674565b565b61089c82610896610ef3565b83611291565b6108a682826110c4565b5050565b6108b2611593565b6108ba61173a565b565b6000600560019054906101000a900473ffffffffffffffffffffffffffffffffffffffff16905090565b6060600480546108f590611dee565b80601f016020809104026020016040519081016040528092919081815260200182805461092190611dee565b801561096e5780601f106109435761010080835404028352916020019161096e565b820191906000526020600020905b81548152906001019060200180831161095157829003601f168201915b5050505050905090565b600080610983610ef3565b905060006109918286610de9565b9050838110156109d6576040517f08c379a00000000000000000000000000000000000000000000000000000000081526004016109cd90612196565b60405180910390fd5b6109e38286868403610efb565b60019250505092915050565b6000806109fa610ef3565b9050610a0781858561131d565b600191505092915050565b60085481610a1e61077c565b610a2891906120f0565b1115610a69576040517f08c379a0000000000000000000000000000000000000000000000000000000008152600401610a6090612202565b60405180910390fd5b600660009054906101000a900473ffffffffffffffffffffffffffffffffffffffff1673ffffffffffffffffffffffffffffffffffffffff1663f35f0f743360026040518363ffffffff1660e01b8152600401610ac7929190611eac565b602060405180830381865afa158015610ae4573d6000803e3d6000fd5b505050506040513d601f19601f82011682018060405250810190610b089190611f01565b610b47576040517f08c379a0000000000000000000000000000000000000000000000000000000008152600401610b3e90611f7a565b60405180910390fd5b60008111610b8a576040517f08c379a0000000000000000000000000000000000000000000000000000000008152600401610b8190611fe6565b60405180910390fd5b60095481610b989190612035565b600760009054906101000a900473ffffffffffffffffffffffffffffffffffffffff1673ffffffffffffffffffffffffffffffffffffffff166370a08231336040518263ffffffff1660e01b8152600401610bf39190611d64565b602060405180830381865afa158015610c10573d6000803e3d6000fd5b505050506040513d601f19601f82011682018060405250810190610c34919061208c565b1015610c3f57600080fd5b60095481610c4d9190612035565b600760009054906101000a900473ffffffffffffffffffffffffffffffffffffffff1673ffffffffffffffffffffffffffffffffffffffff1663dd62ed3e33306040518363ffffffff1660e01b8152600401610caa929190612222565b602060405180830381865afa158015610cc7573d6000803e3d6000fd5b505050506040513d601f19601f82011682018060405250810190610ceb919061208c565b1015610d2c576040517f08c379a0000000000000000000000000000000000000000000000000000000008152600401610d2390612297565b60405180910390fd5b610d36338261179d565b600760009054906101000a900473ffffffffffffffffffffffffffffffffffffffff1673ffffffffffffffffffffffffffffffffffffffff166323b872dd333060095485610d849190612035565b6040518463ffffffff1660e01b8152600401610da2939291906120b9565b6020604051808303816000875af1158015610dc1573d6000803e3d6000fd5b505050506040513d601f19601f82011682018060405250810190610de59190611f01565b5050565b6000600160008473ffffffffffffffffffffffffffffffffffffffff1673ffffffffffffffffffffffffffffffffffffffff16815260200190815260200160002060008373ffffffffffffffffffffffffffffffffffffffff1673ffffffffffffffffffffffffffffffffffffffff16815260200190815260200160002054905092915050565b610e78611593565b600073ffffffffffffffffffffffffffffffffffffffff168173ffffffffffffffffffffffffffffffffffffffff1603610ee7576040517f08c379a0000000000000000000000000000000000000000000000000000000008152600401610ede90612329565b60405180910390fd5b610ef081611674565b50565b600033905090565b600073ffffffffffffffffffffffffffffffffffffffff168373ffffffffffffffffffffffffffffffffffffffff1603610f6a576040517f08c379a0000000000000000000000000000000000000000000000000000000008152600401610f61906123bb565b60405180910390fd5b600073ffffffffffffffffffffffffffffffffffffffff168273ffffffffffffffffffffffffffffffffffffffff1603610fd9576040517f08c379a0000000000000000000000000000000000000000000000000000000008152600401610fd09061244d565b60405180910390fd5b80600160008573ffffffffffffffffffffffffffffffffffffffff1673ffffffffffffffffffffffffffffffffffffffff16815260200190815260200160002060008473ffffffffffffffffffffffffffffffffffffffff1673ffffffffffffffffffffffffffffffffffffffff168152602001908152602001600020819055508173ffffffffffffffffffffffffffffffffffffffff168373ffffffffffffffffffffffffffffffffffffffff167f8c5be1e5ebec7d5bd14f71427d1e84f3dd0314c0f7b2291e5b200ac8c7c3b925836040516110b79190611c83565b60405180910390a3505050565b600073ffffffffffffffffffffffffffffffffffffffff168273ffffffffffffffffffffffffffffffffffffffff1603611133576040517f08c379a000000000000000000000000000000000000000000000000000000000815260040161112a906124df565b60405180910390fd5b61113f826000836118f3565b60008060008473ffffffffffffffffffffffffffffffffffffffff1673ffffffffffffffffffffffffffffffffffffffff168152602001908152602001600020549050818110156111c5576040517f08c379a00000000000000000000000000000000000000000000000000000000081526004016111bc90612571565b60405180910390fd5b8181036000808573ffffffffffffffffffffffffffffffffffffffff1673ffffffffffffffffffffffffffffffffffffffff1681526020019081526020016000208190555081600260008282540392505081905550600073ffffffffffffffffffffffffffffffffffffffff168373ffffffffffffffffffffffffffffffffffffffff167fddf252ad1be2c89b69c2b068fc378daa952ba7f163c4a11628f55a4df523b3ef846040516112789190611c83565b60405180910390a361128c836000846119e9565b505050565b600061129d8484610de9565b90507fffffffffffffffffffffffffffffffffffffffffffffffffffffffffffffffff81146113175781811015611309576040517f08c379a0000000000000000000000000000000000000000000000000000000008152600401611300906125dd565b60405180910390fd5b6113168484848403610efb565b5b50505050565b600073ffffffffffffffffffffffffffffffffffffffff168373ffffffffffffffffffffffffffffffffffffffff160361138c576040517f08c379a00000000000000000000000000000000000000000000000000000000081526004016113839061266f565b60405180910390fd5b600073ffffffffffffffffffffffffffffffffffffffff168273ffffffffffffffffffffffffffffffffffffffff16036113fb576040517f08c379a00000000000000000000000000000000000000000000000000000000081526004016113f290612701565b60405180910390fd5b6114068383836118f3565b60008060008573ffffffffffffffffffffffffffffffffffffffff1673ffffffffffffffffffffffffffffffffffffffff1681526020019081526020016000205490508181101561148c576040517f08c379a000000000000000000000000000000000000000000000000000000000815260040161148390612793565b60405180910390fd5b8181036000808673ffffffffffffffffffffffffffffffffffffffff1673ffffffffffffffffffffffffffffffffffffffff16815260200190815260200160002081905550816000808573ffffffffffffffffffffffffffffffffffffffff1673ffffffffffffffffffffffffffffffffffffffff168152602001908152602001600020600082825401925050819055508273ffffffffffffffffffffffffffffffffffffffff168473ffffffffffffffffffffffffffffffffffffffff167fddf252ad1be2c89b69c2b068fc378daa952ba7f163c4a11628f55a4df523b3ef8460405161157a9190611c83565b60405180910390a361158d8484846119e9565b50505050565b61159b610ef3565b73ffffffffffffffffffffffffffffffffffffffff166115b96108bc565b73ffffffffffffffffffffffffffffffffffffffff161461160f576040517f08c379a0000000000000000000000000000000000000000000000000000000008152600401611606906127ff565b60405180910390fd5b565b6116196119ee565b6000600560006101000a81548160ff0219169083151502179055507f5db9ee0a495bf2e6ff9c91a7834c1ba4fdd244a5e8aa4e537bd38aeae4b073aa61165d610ef3565b60405161166a9190611d64565b60405180910390a1565b6000600560019054906101000a900473ffffffffffffffffffffffffffffffffffffffff16905081600560016101000a81548173ffffffffffffffffffffffffffffffffffffffff021916908373ffffffffffffffffffffffffffffffffffffffff1602179055508173ffffffffffffffffffffffffffffffffffffffff168173ffffffffffffffffffffffffffffffffffffffff167f8be0079c531659141344cd1fd0a4f28419497f9722a3daafe3b4186f6b6457e060405160405180910390a35050565b611742611a37565b6001600560006101000a81548160ff0219169083151502179055507f62e78cea01bee320cd4e420270b5ea74000d11b0c9f74754ebdbfc544b05a258611786610ef3565b6040516117939190611d64565b60405180910390a1565b600073ffffffffffffffffffffffffffffffffffffffff168273ffffffffffffffffffffffffffffffffffffffff160361180c576040517f08c379a00000000000000000000000000000000000000000000000000000000081526004016118039061286b565b60405180910390fd5b611818600083836118f3565b806002600082825461182a91906120f0565b92505081905550806000808473ffffffffffffffffffffffffffffffffffffffff1673ffffffffffffffffffffffffffffffffffffffff168152602001908152602001600020600082825401925050819055508173ffffffffffffffffffffffffffffffffffffffff16600073ffffffffffffffffffffffffffffffffffffffff167fddf252ad1be2c89b69c2b068fc378daa952ba7f163c4a11628f55a4df523b3ef836040516118db9190611c83565b60405180910390a36118ef600083836119e9565b5050565b6118fb611a37565b600660009054906101000a900473ffffffffffffffffffffffffffffffffffffffff1673ffffffffffffffffffffffffffffffffffffffff1663f35f0f748360026040518363ffffffff1660e01b8152600401611959929190611eac565b602060405180830381865afa158015611976573d6000803e3d6000fd5b505050506040513d601f19601f8201168201806040525081019061199a9190611f01565b6119d9576040517f08c379a00000000000000000000000000000000000000000000000000000000081526004016119d090611f7a565b60405180910390fd5b6119e4838383611a81565b505050565b505050565b6119f6610817565b611a35576040517f08c379a0000000000000000000000000000000000000000000000000000000008152600401611a2c906128d7565b60405180910390fd5b565b611a3f610817565b15611a7f576040517f08c379a0000000000000000000000000000000000000000000000000000000008152600401611a7690612943565b60405180910390fd5b565b505050565b600081519050919050565b600082825260208201905092915050565b60005b83811015611ac0578082015181840152602081019050611aa5565b60008484015250505050565b6000601f19601f8301169050919050565b6000611ae882611a86565b611af28185611a91565b9350611b02818560208601611aa2565b611b0b81611acc565b840191505092915050565b60006020820190508181036000830152611b308184611add565b905092915050565b600080fd5b600073ffffffffffffffffffffffffffffffffffffffff82169050919050565b6000611b6882611b3d565b9050919050565b611b7881611b5d565b8114611b8357600080fd5b50565b600081359050611b9581611b6f565b92915050565b6000819050919050565b611bae81611b9b565b8114611bb957600080fd5b50565b600081359050611bcb81611ba5565b92915050565b60008060408385031215611be857611be7611b38565b5b6000611bf685828601611b86565b9250506020611c0785828601611bbc565b9150509250929050565b60008115159050919050565b611c2681611c11565b82525050565b6000602082019050611c416000830184611c1d565b92915050565b600060208284031215611c5d57611c5c611b38565b5b6000611c6b84828501611bbc565b91505092915050565b611c7d81611b9b565b82525050565b6000602082019050611c986000830184611c74565b92915050565b600080600060608486031215611cb757611cb6611b38565b5b6000611cc586828701611b86565b9350506020611cd686828701611b86565b9250506040611ce786828701611bbc565b9150509250925092565b600060ff82169050919050565b611d0781611cf1565b82525050565b6000602082019050611d226000830184611cfe565b92915050565b600060208284031215611d3e57611d3d611b38565b5b6000611d4c84828501611b86565b91505092915050565b611d5e81611b5d565b82525050565b6000602082019050611d796000830184611d55565b92915050565b60008060408385031215611d9657611d95611b38565b5b6000611da485828601611b86565b9250506020611db585828601611b86565b9150509250929050565b7f4e487b7100000000000000000000000000000000000000000000000000000000600052602260045260246000fd5b60006002820490506001821680611e0657607f821691505b602082108103611e1957611e18611dbf565b5b50919050565b7f4e6f7420656e6f75676820626f6e647320697373756564000000000000000000600082015250565b6000611e55601783611a91565b9150611e6082611e1f565b602082019050919050565b60006020820190508181036000830152611e8481611e48565b9050919050565b600065ffffffffffff82169050919050565b611ea681611e8b565b82525050565b6000604082019050611ec16000830185611d55565b611ece6020830184611e9d565b9392505050565b611ede81611c11565b8114611ee957600080fd5b50565b600081519050611efb81611ed5565b92915050565b600060208284031215611f1757611f16611b38565b5b6000611f2584828501611eec565b91505092915050565b7f4e6f74206120686f6c6465720000000000000000000000000000000000000000600082015250565b6000611f64600c83611a91565b9150611f6f82611f2e565b602082019050919050565b60006020820190508181036000830152611f9381611f57565b9050919050565b7f416d6d6f756e743e203000000000000000000000000000000000000000000000600082015250565b6000611fd0600a83611a91565b9150611fdb82611f9a565b602082019050919050565b60006020820190508181036000830152611fff81611fc3565b9050919050565b7f4e487b7100000000000000000000000000000000000000000000000000000000600052601160045260246000fd5b600061204082611b9b565b915061204b83611b9b565b925082820261205981611b9b565b915082820484148315176120705761206f612006565b5b5092915050565b60008151905061208681611ba5565b92915050565b6000602082840312156120a2576120a1611b38565b5b60006120b084828501612077565b91505092915050565b60006060820190506120ce6000830186611d55565b6120db6020830185611d55565b6120e86040830184611c74565b949350505050565b60006120fb82611b9b565b915061210683611b9b565b925082820190508082111561211e5761211d612006565b5b92915050565b7f45524332303a2064656372656173656420616c6c6f77616e63652062656c6f7760008201527f207a65726f000000000000000000000000000000000000000000000000000000602082015250565b6000612180602583611a91565b915061218b82612124565b604082019050919050565b600060208201905081810360008301526121af81612173565b9050919050565b7f4e6f7420656e6f75676800000000000000000000000000000000000000000000600082015250565b60006121ec600a83611a91565b91506121f7826121b6565b602082019050919050565b6000602082019050818103600083015261221b816121df565b9050919050565b60006040820190506122376000830185611d55565b6122446020830184611d55565b9392505050565b7f416c6c6f77616e636520746f6f206c6f77000000000000000000000000000000600082015250565b6000612281601183611a91565b915061228c8261224b565b602082019050919050565b600060208201905081810360008301526122b081612274565b9050919050565b7f4f776e61626c653a206e6577206f776e657220697320746865207a65726f206160008201527f6464726573730000000000000000000000000000000000000000000000000000602082015250565b6000612313602683611a91565b915061231e826122b7565b604082019050919050565b6000602082019050818103600083015261234281612306565b9050919050565b7f45524332303a20617070726f76652066726f6d20746865207a65726f2061646460008201527f7265737300000000000000000000000000000000000000000000000000000000602082015250565b60006123a5602483611a91565b91506123b082612349565b604082019050919050565b600060208201905081810360008301526123d481612398565b9050919050565b7f45524332303a20617070726f766520746f20746865207a65726f20616464726560008201527f7373000000000000000000000000000000000000000000000000000000000000602082015250565b6000612437602283611a91565b9150612442826123db565b604082019050919050565b600060208201905081810360008301526124668161242a565b9050919050565b7f45524332303a206275726e2066726f6d20746865207a65726f2061646472657360008201527f7300000000000000000000000000000000000000000000000000000000000000602082015250565b60006124c9602183611a91565b91506124d48261246d565b604082019050919050565b600060208201905081810360008301526124f8816124bc565b9050919050565b7f45524332303a206275726e20616d6f756e7420657863656564732062616c616e60008201527f6365000000000000000000000000000000000000000000000000000000000000602082015250565b600061255b602283611a91565b9150612566826124ff565b604082019050919050565b6000602082019050818103600083015261258a8161254e565b9050919050565b7f45524332303a20696e73756666696369656e7420616c6c6f77616e6365000000600082015250565b60006125c7601d83611a91565b91506125d282612591565b602082019050919050565b600060208201905081810360008301526125f6816125ba565b9050919050565b7f45524332303a207472616e736665722066726f6d20746865207a65726f20616460008201527f6472657373000000000000000000000000000000000000000000000000000000602082015250565b6000612659602583611a91565b9150612664826125fd565b604082019050919050565b600060208201905081810360008301526126888161264c565b9050919050565b7f45524332303a207472616e7366657220746f20746865207a65726f206164647260008201527f6573730000000000000000000000000000000000000000000000000000000000602082015250565b60006126eb602383611a91565b91506126f68261268f565b604082019050919050565b6000602082019050818103600083015261271a816126de565b9050919050565b7f45524332303a207472616e7366657220616d6f756e742065786365656473206260008201527f616c616e63650000000000000000000000000000000000000000000000000000602082015250565b600061277d602683611a91565b915061278882612721565b604082019050919050565b600060208201905081810360008301526127ac81612770565b9050919050565b7f4f776e61626c653a2063616c6c6572206973206e6f7420746865206f776e6572600082015250565b60006127e9602083611a91565b91506127f4826127b3565b602082019050919050565b60006020820190508181036000830152612818816127dc565b9050919050565b7f45524332303a206d696e7420746f20746865207a65726f206164647265737300600082015250565b6000612855601f83611a91565b91506128608261281f565b602082019050919050565b6000602082019050818103600083015261288481612848565b9050919050565b7f5061757361626c653a206e6f7420706175736564000000000000000000000000600082015250565b60006128c1601483611a91565b91506128cc8261288b565b602082019050919050565b600060208201905081810360008301526128f0816128b4565b9050919050565b7f5061757361626c653a2070617573656400000000000000000000000000000000600082015250565b600061292d601083611a91565b9150612938826128f7565b602082019050919050565b6000602082019050818103600083015261295c81612920565b905091905056fea2646970667358221220a4034f970fb002e6b1a77237ebc2ddc7cd14f4dff9767cbd2950485f845fae3e64736f6c63430008120033",
					"opcodes": "PUSH1 0x80 PUSH1 0x40 MSTORE CALLVALUE DUP1 ISZERO PUSH3 0x11 JUMPI PUSH1 0x0 DUP1 REVERT JUMPDEST POP PUSH1 0x40 MLOAD PUSH3 0x306D CODESIZE SUB DUP1 PUSH3 0x306D DUP4 CODECOPY DUP2 DUP2 ADD PUSH1 0x40 MSTORE DUP2 ADD SWAP1 PUSH3 0x37 SWAP2 SWAP1 PUSH3 0x311 JUMP JUMPDEST PUSH1 0x40 MLOAD DUP1 PUSH1 0x40 ADD PUSH1 0x40 MSTORE DUP1 PUSH1 0x4 DUP2 MSTORE PUSH1 0x20 ADD PUSH32 0x426F6E6400000000000000000000000000000000000000000000000000000000 DUP2 MSTORE POP PUSH1 0x40 MLOAD DUP1 PUSH1 0x40 ADD PUSH1 0x40 MSTORE DUP1 PUSH1 0x5 DUP2 MSTORE PUSH1 0x20 ADD PUSH32 0x65426F6E64000000000000000000000000000000000000000000000000000000 DUP2 MSTORE POP DUP2 PUSH1 0x3 SWAP1 DUP2 PUSH3 0xB4 SWAP2 SWAP1 PUSH3 0x5DD JUMP JUMPDEST POP DUP1 PUSH1 0x4 SWAP1 DUP2 PUSH3 0xC6 SWAP2 SWAP1 PUSH3 0x5DD JUMP JUMPDEST POP POP POP PUSH1 0x0 PUSH1 0x5 PUSH1 0x0 PUSH2 0x100 EXP DUP2 SLOAD DUP2 PUSH1 0xFF MUL NOT AND SWAP1 DUP4 ISZERO ISZERO MUL OR SWAP1 SSTORE POP PUSH3 0x104 PUSH3 0xF8 PUSH3 0x19E PUSH1 0x20 SHL PUSH1 0x20 SHR JUMP JUMPDEST PUSH3 0x1A6 PUSH1 0x20 SHL PUSH1 0x20 SHR JUMP JUMPDEST DUP3 PUSH1 0x6 PUSH1 0x0 PUSH2 0x100 EXP DUP2 SLOAD DUP2 PUSH20 0xFFFFFFFFFFFFFFFFFFFFFFFFFFFFFFFFFFFFFFFF MUL NOT AND SWAP1 DUP4 PUSH20 0xFFFFFFFFFFFFFFFFFFFFFFFFFFFFFFFFFFFFFFFF AND MUL OR SWAP1 SSTORE POP DUP2 PUSH1 0x7 PUSH1 0x0 PUSH2 0x100 EXP DUP2 SLOAD DUP2 PUSH20 0xFFFFFFFFFFFFFFFFFFFFFFFFFFFFFFFFFFFFFFFF MUL NOT AND SWAP1 DUP4 PUSH20 0xFFFFFFFFFFFFFFFFFFFFFFFFFFFFFFFFFFFFFFFF AND MUL OR SWAP1 SSTORE POP DUP1 PUSH1 0x8 DUP2 SWAP1 SSTORE POP PUSH1 0x64 PUSH1 0x9 DUP2 SWAP1 SSTORE POP POP POP POP PUSH3 0x6C4 JUMP JUMPDEST PUSH1 0x0 CALLER SWAP1 POP SWAP1 JUMP JUMPDEST PUSH1 0x0 PUSH1 0x5 PUSH1 0x1 SWAP1 SLOAD SWAP1 PUSH2 0x100 EXP SWAP1 DIV PUSH20 0xFFFFFFFFFFFFFFFFFFFFFFFFFFFFFFFFFFFFFFFF AND SWAP1 POP DUP2 PUSH1 0x5 PUSH1 0x1 PUSH2 0x100 EXP DUP2 SLOAD DUP2 PUSH20 0xFFFFFFFFFFFFFFFFFFFFFFFFFFFFFFFFFFFFFFFF MUL NOT AND SWAP1 DUP4 PUSH20 0xFFFFFFFFFFFFFFFFFFFFFFFFFFFFFFFFFFFFFFFF AND MUL OR SWAP1 SSTORE POP DUP2 PUSH20 0xFFFFFFFFFFFFFFFFFFFFFFFFFFFFFFFFFFFFFFFF AND DUP2 PUSH20 0xFFFFFFFFFFFFFFFFFFFFFFFFFFFFFFFFFFFFFFFF AND PUSH32 0x8BE0079C531659141344CD1FD0A4F28419497F9722A3DAAFE3B4186F6B6457E0 PUSH1 0x40 MLOAD PUSH1 0x40 MLOAD DUP1 SWAP2 SUB SWAP1 LOG3 POP POP JUMP JUMPDEST PUSH1 0x0 DUP1 REVERT JUMPDEST PUSH1 0x0 PUSH20 0xFFFFFFFFFFFFFFFFFFFFFFFFFFFFFFFFFFFFFFFF DUP3 AND SWAP1 POP SWAP2 SWAP1 POP JUMP JUMPDEST PUSH1 0x0 PUSH3 0x29E DUP3 PUSH3 0x271 JUMP JUMPDEST SWAP1 POP SWAP2 SWAP1 POP JUMP JUMPDEST PUSH3 0x2B0 DUP2 PUSH3 0x291 JUMP JUMPDEST DUP2 EQ PUSH3 0x2BC JUMPI PUSH1 0x0 DUP1 REVERT JUMPDEST POP JUMP JUMPDEST PUSH1 0x0 DUP2 MLOAD SWAP1 POP PUSH3 0x2D0 DUP2 PUSH3 0x2A5 JUMP JUMPDEST SWAP3 SWAP2 POP POP JUMP JUMPDEST PUSH1 0x0 DUP2 SWAP1 POP SWAP2 SWAP1 POP JUMP JUMPDEST PUSH3 0x2EB DUP2 PUSH3 0x2D6 JUMP JUMPDEST DUP2 EQ PUSH3 0x2F7 JUMPI PUSH1 0x0 DUP1 REVERT JUMPDEST POP JUMP JUMPDEST PUSH1 0x0 DUP2 MLOAD SWAP1 POP PUSH3 0x30B DUP2 PUSH3 0x2E0 JUMP JUMPDEST SWAP3 SWAP2 POP POP JUMP JUMPDEST PUSH1 0x0 DUP1 PUSH1 0x0 PUSH1 0x60 DUP5 DUP7 SUB SLT ISZERO PUSH3 0x32D JUMPI PUSH3 0x32C PUSH3 0x26C JUMP JUMPDEST JUMPDEST PUSH1 0x0 PUSH3 0x33D DUP7 DUP3 DUP8 ADD PUSH3 0x2BF JUMP JUMPDEST SWAP4 POP POP PUSH1 0x20 PUSH3 0x350 DUP7 DUP3 DUP8 ADD PUSH3 0x2BF JUMP JUMPDEST SWAP3 POP POP PUSH1 0x40 PUSH3 0x363 DUP7 DUP3 DUP8 ADD PUSH3 0x2FA JUMP JUMPDEST SWAP2 POP POP SWAP3 POP SWAP3 POP SWAP3 JUMP JUMPDEST PUSH1 0x0 DUP2 MLOAD SWAP1 POP SWAP2 SWAP1 POP JUMP JUMPDEST PUSH32 0x4E487B7100000000000000000000000000000000000000000000000000000000 PUSH1 0x0 MSTORE PUSH1 0x41 PUSH1 0x4 MSTORE PUSH1 0x24 PUSH1 0x0 REVERT JUMPDEST PUSH32 0x4E487B7100000000000000000000000000000000000000000000000000000000 PUSH1 0x0 MSTORE PUSH1 0x22 PUSH1 0x4 MSTORE PUSH1 0x24 PUSH1 0x0 REVERT JUMPDEST PUSH1 0x0 PUSH1 0x2 DUP3 DIV SWAP1 POP PUSH1 0x1 DUP3 AND DUP1 PUSH3 0x3EF JUMPI PUSH1 0x7F DUP3 AND SWAP2 POP JUMPDEST PUSH1 0x20 DUP3 LT DUP2 SUB PUSH3 0x405 JUMPI PUSH3 0x404 PUSH3 0x3A7 JUMP JUMPDEST JUMPDEST POP SWAP2 SWAP1 POP JUMP JUMPDEST PUSH1 0x0 DUP2 SWAP1 POP DUP2 PUSH1 0x0 MSTORE PUSH1 0x20 PUSH1 0x0 KECCAK256 SWAP1 POP SWAP2 SWAP1 POP JUMP JUMPDEST PUSH1 0x0 PUSH1 0x20 PUSH1 0x1F DUP4 ADD DIV SWAP1 POP SWAP2 SWAP1 POP JUMP JUMPDEST PUSH1 0x0 DUP3 DUP3 SHL SWAP1 POP SWAP3 SWAP2 POP POP JUMP JUMPDEST PUSH1 0x0 PUSH1 0x8 DUP4 MUL PUSH3 0x46F PUSH32 0xFFFFFFFFFFFFFFFFFFFFFFFFFFFFFFFFFFFFFFFFFFFFFFFFFFFFFFFFFFFFFFFF DUP3 PUSH3 0x430 JUMP JUMPDEST PUSH3 0x47B DUP7 DUP4 PUSH3 0x430 JUMP JUMPDEST SWAP6 POP DUP1 NOT DUP5 AND SWAP4 POP DUP1 DUP7 AND DUP5 OR SWAP3 POP POP POP SWAP4 SWAP3 POP POP POP JUMP JUMPDEST PUSH1 0x0 DUP2 SWAP1 POP SWAP2 SWAP1 POP JUMP JUMPDEST PUSH1 0x0 PUSH3 0x4BE PUSH3 0x4B8 PUSH3 0x4B2 DUP5 PUSH3 0x2D6 JUMP JUMPDEST PUSH3 0x493 JUMP JUMPDEST PUSH3 0x2D6 JUMP JUMPDEST SWAP1 POP SWAP2 SWAP1 POP JUMP JUMPDEST PUSH1 0x0 DUP2 SWAP1 POP SWAP2 SWAP1 POP JUMP JUMPDEST PUSH3 0x4DA DUP4 PUSH3 0x49D JUMP JUMPDEST PUSH3 0x4F2 PUSH3 0x4E9 DUP3 PUSH3 0x4C5 JUMP JUMPDEST DUP5 DUP5 SLOAD PUSH3 0x43D JUMP JUMPDEST DUP3 SSTORE POP POP POP POP JUMP JUMPDEST PUSH1 0x0 SWAP1 JUMP JUMPDEST PUSH3 0x509 PUSH3 0x4FA JUMP JUMPDEST PUSH3 0x516 DUP2 DUP5 DUP5 PUSH3 0x4CF JUMP JUMPDEST POP POP POP JUMP JUMPDEST JUMPDEST DUP2 DUP2 LT ISZERO PUSH3 0x53E JUMPI PUSH3 0x532 PUSH1 0x0 DUP3 PUSH3 0x4FF JUMP JUMPDEST PUSH1 0x1 DUP2 ADD SWAP1 POP PUSH3 0x51C JUMP JUMPDEST POP POP JUMP JUMPDEST PUSH1 0x1F DUP3 GT ISZERO PUSH3 0x58D JUMPI PUSH3 0x557 DUP2 PUSH3 0x40B JUMP JUMPDEST PUSH3 0x562 DUP5 PUSH3 0x420 JUMP JUMPDEST DUP2 ADD PUSH1 0x20 DUP6 LT ISZERO PUSH3 0x572 JUMPI DUP2 SWAP1 POP JUMPDEST PUSH3 0x58A PUSH3 0x581 DUP6 PUSH3 0x420 JUMP JUMPDEST DUP4 ADD DUP3 PUSH3 0x51B JUMP JUMPDEST POP POP JUMPDEST POP POP POP JUMP JUMPDEST PUSH1 0x0 DUP3 DUP3 SHR SWAP1 POP SWAP3 SWAP2 POP POP JUMP JUMPDEST PUSH1 0x0 PUSH3 0x5B2 PUSH1 0x0 NOT DUP5 PUSH1 0x8 MUL PUSH3 0x592 JUMP JUMPDEST NOT DUP1 DUP4 AND SWAP2 POP POP SWAP3 SWAP2 POP POP JUMP JUMPDEST PUSH1 0x0 PUSH3 0x5CD DUP4 DUP4 PUSH3 0x59F JUMP JUMPDEST SWAP2 POP DUP3 PUSH1 0x2 MUL DUP3 OR SWAP1 POP SWAP3 SWAP2 POP POP JUMP JUMPDEST PUSH3 0x5E8 DUP3 PUSH3 0x36D JUMP JUMPDEST PUSH8 0xFFFFFFFFFFFFFFFF DUP2 GT ISZERO PUSH3 0x604 JUMPI PUSH3 0x603 PUSH3 0x378 JUMP JUMPDEST JUMPDEST PUSH3 0x610 DUP3 SLOAD PUSH3 0x3D6 JUMP JUMPDEST PUSH3 0x61D DUP3 DUP3 DUP6 PUSH3 0x542 JUMP JUMPDEST PUSH1 0x0 PUSH1 0x20 SWAP1 POP PUSH1 0x1F DUP4 GT PUSH1 0x1 DUP2 EQ PUSH3 0x655 JUMPI PUSH1 0x0 DUP5 ISZERO PUSH3 0x640 JUMPI DUP3 DUP8 ADD MLOAD SWAP1 POP JUMPDEST PUSH3 0x64C DUP6 DUP3 PUSH3 0x5BF JUMP JUMPDEST DUP7 SSTORE POP PUSH3 0x6BC JUMP JUMPDEST PUSH1 0x1F NOT DUP5 AND PUSH3 0x665 DUP7 PUSH3 0x40B JUMP JUMPDEST PUSH1 0x0 JUMPDEST DUP3 DUP2 LT ISZERO PUSH3 0x68F JUMPI DUP5 DUP10 ADD MLOAD DUP3 SSTORE PUSH1 0x1 DUP3 ADD SWAP2 POP PUSH1 0x20 DUP6 ADD SWAP5 POP PUSH1 0x20 DUP2 ADD SWAP1 POP PUSH3 0x668 JUMP JUMPDEST DUP7 DUP4 LT ISZERO PUSH3 0x6AF JUMPI DUP5 DUP10 ADD MLOAD PUSH3 0x6AB PUSH1 0x1F DUP10 AND DUP3 PUSH3 0x59F JUMP JUMPDEST DUP4 SSTORE POP JUMPDEST PUSH1 0x1 PUSH1 0x2 DUP9 MUL ADD DUP9 SSTORE POP POP POP JUMPDEST POP POP POP POP POP POP JUMP JUMPDEST PUSH2 0x2999 DUP1 PUSH3 0x6D4 PUSH1 0x0 CODECOPY PUSH1 0x0 RETURN INVALID PUSH1 0x80 PUSH1 0x40 MSTORE CALLVALUE DUP1 ISZERO PUSH2 0x10 JUMPI PUSH1 0x0 DUP1 REVERT JUMPDEST POP PUSH1 0x4 CALLDATASIZE LT PUSH2 0x137 JUMPI PUSH1 0x0 CALLDATALOAD PUSH1 0xE0 SHR DUP1 PUSH4 0x70A08231 GT PUSH2 0xB8 JUMPI DUP1 PUSH4 0x95D89B41 GT PUSH2 0x7C JUMPI DUP1 PUSH4 0x95D89B41 EQ PUSH2 0x304 JUMPI DUP1 PUSH4 0xA457C2D7 EQ PUSH2 0x322 JUMPI DUP1 PUSH4 0xA9059CBB EQ PUSH2 0x352 JUMPI DUP1 PUSH4 0xCC872B66 EQ PUSH2 0x382 JUMPI DUP1 PUSH4 0xDD62ED3E EQ PUSH2 0x39E JUMPI DUP1 PUSH4 0xF2FDE38B EQ PUSH2 0x3CE JUMPI PUSH2 0x137 JUMP JUMPDEST DUP1 PUSH4 0x70A08231 EQ PUSH2 0x286 JUMPI DUP1 PUSH4 0x715018A6 EQ PUSH2 0x2B6 JUMPI DUP1 PUSH4 0x79CC6790 EQ PUSH2 0x2C0 JUMPI DUP1 PUSH4 0x8456CB59 EQ PUSH2 0x2DC JUMPI DUP1 PUSH4 0x8DA5CB5B EQ PUSH2 0x2E6 JUMPI PUSH2 0x137 JUMP JUMPDEST DUP1 PUSH4 0x313CE567 GT PUSH2 0xFF JUMPI DUP1 PUSH4 0x313CE567 EQ PUSH2 0x1F4 JUMPI DUP1 PUSH4 0x39509351 EQ PUSH2 0x212 JUMPI DUP1 PUSH4 0x3F4BA83A EQ PUSH2 0x242 JUMPI DUP1 PUSH4 0x42966C68 EQ PUSH2 0x24C JUMPI DUP1 PUSH4 0x5C975ABB EQ PUSH2 0x268 JUMPI PUSH2 0x137 JUMP JUMPDEST DUP1 PUSH4 0x6FDDE03 EQ PUSH2 0x13C JUMPI DUP1 PUSH4 0x95EA7B3 EQ PUSH2 0x15A JUMPI DUP1 PUSH4 0x14CA579A EQ PUSH2 0x18A JUMPI DUP1 PUSH4 0x18160DDD EQ PUSH2 0x1A6 JUMPI DUP1 PUSH4 0x23B872DD EQ PUSH2 0x1C4 JUMPI JUMPDEST PUSH1 0x0 DUP1 REVERT JUMPDEST PUSH2 0x144 PUSH2 0x3EA JUMP JUMPDEST PUSH1 0x40 MLOAD PUSH2 0x151 SWAP2 SWAP1 PUSH2 0x1B16 JUMP JUMPDEST PUSH1 0x40 MLOAD DUP1 SWAP2 SUB SWAP1 RETURN JUMPDEST PUSH2 0x174 PUSH1 0x4 DUP1 CALLDATASIZE SUB DUP2 ADD SWAP1 PUSH2 0x16F SWAP2 SWAP1 PUSH2 0x1BD1 JUMP JUMPDEST PUSH2 0x47C JUMP JUMPDEST PUSH1 0x40 MLOAD PUSH2 0x181 SWAP2 SWAP1 PUSH2 0x1C2C JUMP JUMPDEST PUSH1 0x40 MLOAD DUP1 SWAP2 SUB SWAP1 RETURN JUMPDEST PUSH2 0x1A4 PUSH1 0x4 DUP1 CALLDATASIZE SUB DUP2 ADD SWAP1 PUSH2 0x19F SWAP2 SWAP1 PUSH2 0x1C47 JUMP JUMPDEST PUSH2 0x49F JUMP JUMPDEST STOP JUMPDEST PUSH2 0x1AE PUSH2 0x77C JUMP JUMPDEST PUSH1 0x40 MLOAD PUSH2 0x1BB SWAP2 SWAP1 PUSH2 0x1C83 JUMP JUMPDEST PUSH1 0x40 MLOAD DUP1 SWAP2 SUB SWAP1 RETURN JUMPDEST PUSH2 0x1DE PUSH1 0x4 DUP1 CALLDATASIZE SUB DUP2 ADD SWAP1 PUSH2 0x1D9 SWAP2 SWAP1 PUSH2 0x1C9E JUMP JUMPDEST PUSH2 0x786 JUMP JUMPDEST PUSH1 0x40 MLOAD PUSH2 0x1EB SWAP2 SWAP1 PUSH2 0x1C2C JUMP JUMPDEST PUSH1 0x40 MLOAD DUP1 SWAP2 SUB SWAP1 RETURN JUMPDEST PUSH2 0x1FC PUSH2 0x7B5 JUMP JUMPDEST PUSH1 0x40 MLOAD PUSH2 0x209 SWAP2 SWAP1 PUSH2 0x1D0D JUMP JUMPDEST PUSH1 0x40 MLOAD DUP1 SWAP2 SUB SWAP1 RETURN JUMPDEST PUSH2 0x22C PUSH1 0x4 DUP1 CALLDATASIZE SUB DUP2 ADD SWAP1 PUSH2 0x227 SWAP2 SWAP1 PUSH2 0x1BD1 JUMP JUMPDEST PUSH2 0x7BA JUMP JUMPDEST PUSH1 0x40 MLOAD PUSH2 0x239 SWAP2 SWAP1 PUSH2 0x1C2C JUMP JUMPDEST PUSH1 0x40 MLOAD DUP1 SWAP2 SUB SWAP1 RETURN JUMPDEST PUSH2 0x24A PUSH2 0x7F1 JUMP JUMPDEST STOP JUMPDEST PUSH2 0x266 PUSH1 0x4 DUP1 CALLDATASIZE SUB DUP2 ADD SWAP1 PUSH2 0x261 SWAP2 SWAP1 PUSH2 0x1C47 JUMP JUMPDEST PUSH2 0x803 JUMP JUMPDEST STOP JUMPDEST PUSH2 0x270 PUSH2 0x817 JUMP JUMPDEST PUSH1 0x40 MLOAD PUSH2 0x27D SWAP2 SWAP1 PUSH2 0x1C2C JUMP JUMPDEST PUSH1 0x40 MLOAD DUP1 SWAP2 SUB SWAP1 RETURN JUMPDEST PUSH2 0x2A0 PUSH1 0x4 DUP1 CALLDATASIZE SUB DUP2 ADD SWAP1 PUSH2 0x29B SWAP2 SWAP1 PUSH2 0x1D28 JUMP JUMPDEST PUSH2 0x82E JUMP JUMPDEST PUSH1 0x40 MLOAD PUSH2 0x2AD SWAP2 SWAP1 PUSH2 0x1C83 JUMP JUMPDEST PUSH1 0x40 MLOAD DUP1 SWAP2 SUB SWAP1 RETURN JUMPDEST PUSH2 0x2BE PUSH2 0x876 JUMP JUMPDEST STOP JUMPDEST PUSH2 0x2DA PUSH1 0x4 DUP1 CALLDATASIZE SUB DUP2 ADD SWAP1 PUSH2 0x2D5 SWAP2 SWAP1 PUSH2 0x1BD1 JUMP JUMPDEST PUSH2 0x88A JUMP JUMPDEST STOP JUMPDEST PUSH2 0x2E4 PUSH2 0x8AA JUMP JUMPDEST STOP JUMPDEST PUSH2 0x2EE PUSH2 0x8BC JUMP JUMPDEST PUSH1 0x40 MLOAD PUSH2 0x2FB SWAP2 SWAP1 PUSH2 0x1D64 JUMP JUMPDEST PUSH1 0x40 MLOAD DUP1 SWAP2 SUB SWAP1 RETURN JUMPDEST PUSH2 0x30C PUSH2 0x8E6 JUMP JUMPDEST PUSH1 0x40 MLOAD PUSH2 0x319 SWAP2 SWAP1 PUSH2 0x1B16 JUMP JUMPDEST PUSH1 0x40 MLOAD DUP1 SWAP2 SUB SWAP1 RETURN JUMPDEST PUSH2 0x33C PUSH1 0x4 DUP1 CALLDATASIZE SUB DUP2 ADD SWAP1 PUSH2 0x337 SWAP2 SWAP1 PUSH2 0x1BD1 JUMP JUMPDEST PUSH2 0x978 JUMP JUMPDEST PUSH1 0x40 MLOAD PUSH2 0x349 SWAP2 SWAP1 PUSH2 0x1C2C JUMP JUMPDEST PUSH1 0x40 MLOAD DUP1 SWAP2 SUB SWAP1 RETURN JUMPDEST PUSH2 0x36C PUSH1 0x4 DUP1 CALLDATASIZE SUB DUP2 ADD SWAP1 PUSH2 0x367 SWAP2 SWAP1 PUSH2 0x1BD1 JUMP JUMPDEST PUSH2 0x9EF JUMP JUMPDEST PUSH1 0x40 MLOAD PUSH2 0x379 SWAP2 SWAP1 PUSH2 0x1C2C JUMP JUMPDEST PUSH1 0x40 MLOAD DUP1 SWAP2 SUB SWAP1 RETURN JUMPDEST PUSH2 0x39C PUSH1 0x4 DUP1 CALLDATASIZE SUB DUP2 ADD SWAP1 PUSH2 0x397 SWAP2 SWAP1 PUSH2 0x1C47 JUMP JUMPDEST PUSH2 0xA12 JUMP JUMPDEST STOP JUMPDEST PUSH2 0x3B8 PUSH1 0x4 DUP1 CALLDATASIZE SUB DUP2 ADD SWAP1 PUSH2 0x3B3 SWAP2 SWAP1 PUSH2 0x1D7F JUMP JUMPDEST PUSH2 0xDE9 JUMP JUMPDEST PUSH1 0x40 MLOAD PUSH2 0x3C5 SWAP2 SWAP1 PUSH2 0x1C83 JUMP JUMPDEST PUSH1 0x40 MLOAD DUP1 SWAP2 SUB SWAP1 RETURN JUMPDEST PUSH2 0x3E8 PUSH1 0x4 DUP1 CALLDATASIZE SUB DUP2 ADD SWAP1 PUSH2 0x3E3 SWAP2 SWAP1 PUSH2 0x1D28 JUMP JUMPDEST PUSH2 0xE70 JUMP JUMPDEST STOP JUMPDEST PUSH1 0x60 PUSH1 0x3 DUP1 SLOAD PUSH2 0x3F9 SWAP1 PUSH2 0x1DEE JUMP JUMPDEST DUP1 PUSH1 0x1F ADD PUSH1 0x20 DUP1 SWAP2 DIV MUL PUSH1 0x20 ADD PUSH1 0x40 MLOAD SWAP1 DUP2 ADD PUSH1 0x40 MSTORE DUP1 SWAP3 SWAP2 SWAP1 DUP2 DUP2 MSTORE PUSH1 0x20 ADD DUP3 DUP1 SLOAD PUSH2 0x425 SWAP1 PUSH2 0x1DEE JUMP JUMPDEST DUP1 ISZERO PUSH2 0x472 JUMPI DUP1 PUSH1 0x1F LT PUSH2 0x447 JUMPI PUSH2 0x100 DUP1 DUP4 SLOAD DIV MUL DUP4 MSTORE SWAP2 PUSH1 0x20 ADD SWAP2 PUSH2 0x472 JUMP JUMPDEST DUP3 ADD SWAP2 SWAP1 PUSH1 0x0 MSTORE PUSH1 0x20 PUSH1 0x0 KECCAK256 SWAP1 JUMPDEST DUP2 SLOAD DUP2 MSTORE SWAP1 PUSH1 0x1 ADD SWAP1 PUSH1 0x20 ADD DUP1 DUP4 GT PUSH2 0x455 JUMPI DUP3 SWAP1 SUB PUSH1 0x1F AND DUP3 ADD SWAP2 JUMPDEST POP POP POP POP POP SWAP1 POP SWAP1 JUMP JUMPDEST PUSH1 0x0 DUP1 PUSH2 0x487 PUSH2 0xEF3 JUMP JUMPDEST SWAP1 POP PUSH2 0x494 DUP2 DUP6 DUP6 PUSH2 0xEFB JUMP JUMPDEST PUSH1 0x1 SWAP2 POP POP SWAP3 SWAP2 POP POP JUMP JUMPDEST DUP1 PUSH2 0x4A8 PUSH2 0x77C JUMP JUMPDEST GT ISZERO PUSH2 0x4E9 JUMPI PUSH1 0x40 MLOAD PUSH32 0x8C379A000000000000000000000000000000000000000000000000000000000 DUP2 MSTORE PUSH1 0x4 ADD PUSH2 0x4E0 SWAP1 PUSH2 0x1E6B JUMP JUMPDEST PUSH1 0x40 MLOAD DUP1 SWAP2 SUB SWAP1 REVERT JUMPDEST PUSH1 0x6 PUSH1 0x0 SWAP1 SLOAD SWAP1 PUSH2 0x100 EXP SWAP1 DIV PUSH20 0xFFFFFFFFFFFFFFFFFFFFFFFFFFFFFFFFFFFFFFFF AND PUSH20 0xFFFFFFFFFFFFFFFFFFFFFFFFFFFFFFFFFFFFFFFF AND PUSH4 0xF35F0F74 CALLER PUSH1 0x2 PUSH1 0x40 MLOAD DUP4 PUSH4 0xFFFFFFFF AND PUSH1 0xE0 SHL DUP2 MSTORE PUSH1 0x4 ADD PUSH2 0x547 SWAP3 SWAP2 SWAP1 PUSH2 0x1EAC JUMP JUMPDEST PUSH1 0x20 PUSH1 0x40 MLOAD DUP1 DUP4 SUB DUP2 DUP7 GAS STATICCALL ISZERO DUP1 ISZERO PUSH2 0x564 JUMPI RETURNDATASIZE PUSH1 0x0 DUP1 RETURNDATACOPY RETURNDATASIZE PUSH1 0x0 REVERT JUMPDEST POP POP POP POP PUSH1 0x40 MLOAD RETURNDATASIZE PUSH1 0x1F NOT PUSH1 0x1F DUP3 ADD AND DUP3 ADD DUP1 PUSH1 0x40 MSTORE POP DUP2 ADD SWAP1 PUSH2 0x588 SWAP2 SWAP1 PUSH2 0x1F01 JUMP JUMPDEST PUSH2 0x5C7 JUMPI PUSH1 0x40 MLOAD PUSH32 0x8C379A000000000000000000000000000000000000000000000000000000000 DUP2 MSTORE PUSH1 0x4 ADD PUSH2 0x5BE SWAP1 PUSH2 0x1F7A JUMP JUMPDEST PUSH1 0x40 MLOAD DUP1 SWAP2 SUB SWAP1 REVERT JUMPDEST PUSH1 0x0 DUP2 GT PUSH2 0x60A JUMPI PUSH1 0x40 MLOAD PUSH32 0x8C379A000000000000000000000000000000000000000000000000000000000 DUP2 MSTORE PUSH1 0x4 ADD PUSH2 0x601 SWAP1 PUSH2 0x1FE6 JUMP JUMPDEST PUSH1 0x40 MLOAD DUP1 SWAP2 SUB SWAP1 REVERT JUMPDEST PUSH1 0x9 SLOAD DUP2 PUSH2 0x618 SWAP2 SWAP1 PUSH2 0x2035 JUMP JUMPDEST PUSH1 0x7 PUSH1 0x0 SWAP1 SLOAD SWAP1 PUSH2 0x100 EXP SWAP1 DIV PUSH20 0xFFFFFFFFFFFFFFFFFFFFFFFFFFFFFFFFFFFFFFFF AND PUSH20 0xFFFFFFFFFFFFFFFFFFFFFFFFFFFFFFFFFFFFFFFF AND PUSH4 0x70A08231 ADDRESS PUSH1 0x40 MLOAD DUP3 PUSH4 0xFFFFFFFF AND PUSH1 0xE0 SHL DUP2 MSTORE PUSH1 0x4 ADD PUSH2 0x673 SWAP2 SWAP1 PUSH2 0x1D64 JUMP JUMPDEST PUSH1 0x20 PUSH1 0x40 MLOAD DUP1 DUP4 SUB DUP2 DUP7 GAS STATICCALL ISZERO DUP1 ISZERO PUSH2 0x690 JUMPI RETURNDATASIZE PUSH1 0x0 DUP1 RETURNDATACOPY RETURNDATASIZE PUSH1 0x0 REVERT JUMPDEST POP POP POP POP PUSH1 0x40 MLOAD RETURNDATASIZE PUSH1 0x1F NOT PUSH1 0x1F DUP3 ADD AND DUP3 ADD DUP1 PUSH1 0x40 MSTORE POP DUP2 ADD SWAP1 PUSH2 0x6B4 SWAP2 SWAP1 PUSH2 0x208C JUMP JUMPDEST LT ISZERO PUSH2 0x6BF JUMPI PUSH1 0x0 DUP1 REVERT JUMPDEST PUSH2 0x6C9 CALLER DUP3 PUSH2 0x10C4 JUMP JUMPDEST PUSH1 0x7 PUSH1 0x0 SWAP1 SLOAD SWAP1 PUSH2 0x100 EXP SWAP1 DIV PUSH20 0xFFFFFFFFFFFFFFFFFFFFFFFFFFFFFFFFFFFFFFFF AND PUSH20 0xFFFFFFFFFFFFFFFFFFFFFFFFFFFFFFFFFFFFFFFF AND PUSH4 0x23B872DD ADDRESS CALLER PUSH1 0x9 SLOAD DUP6 PUSH2 0x717 SWAP2 SWAP1 PUSH2 0x2035 JUMP JUMPDEST PUSH1 0x40 MLOAD DUP5 PUSH4 0xFFFFFFFF AND PUSH1 0xE0 SHL DUP2 MSTORE PUSH1 0x4 ADD PUSH2 0x735 SWAP4 SWAP3 SWAP2 SWAP1 PUSH2 0x20B9 JUMP JUMPDEST PUSH1 0x20 PUSH1 0x40 MLOAD DUP1 DUP4 SUB DUP2 PUSH1 0x0 DUP8 GAS CALL ISZERO DUP1 ISZERO PUSH2 0x754 JUMPI RETURNDATASIZE PUSH1 0x0 DUP1 RETURNDATACOPY RETURNDATASIZE PUSH1 0x0 REVERT JUMPDEST POP POP POP POP PUSH1 0x40 MLOAD RETURNDATASIZE PUSH1 0x1F NOT PUSH1 0x1F DUP3 ADD AND DUP3 ADD DUP1 PUSH1 0x40 MSTORE POP DUP2 ADD SWAP1 PUSH2 0x778 SWAP2 SWAP1 PUSH2 0x1F01 JUMP JUMPDEST POP POP JUMP JUMPDEST PUSH1 0x0 PUSH1 0x2 SLOAD SWAP1 POP SWAP1 JUMP JUMPDEST PUSH1 0x0 DUP1 PUSH2 0x791 PUSH2 0xEF3 JUMP JUMPDEST SWAP1 POP PUSH2 0x79E DUP6 DUP3 DUP6 PUSH2 0x1291 JUMP JUMPDEST PUSH2 0x7A9 DUP6 DUP6 DUP6 PUSH2 0x131D JUMP JUMPDEST PUSH1 0x1 SWAP2 POP POP SWAP4 SWAP3 POP POP POP JUMP JUMPDEST PUSH1 0x0 SWAP1 JUMP JUMPDEST PUSH1 0x0 DUP1 PUSH2 0x7C5 PUSH2 0xEF3 JUMP JUMPDEST SWAP1 POP PUSH2 0x7E6 DUP2 DUP6 DUP6 PUSH2 0x7D7 DUP6 DUP10 PUSH2 0xDE9 JUMP JUMPDEST PUSH2 0x7E1 SWAP2 SWAP1 PUSH2 0x20F0 JUMP JUMPDEST PUSH2 0xEFB JUMP JUMPDEST PUSH1 0x1 SWAP2 POP POP SWAP3 SWAP2 POP POP JUMP JUMPDEST PUSH2 0x7F9 PUSH2 0x1593 JUMP JUMPDEST PUSH2 0x801 PUSH2 0x1611 JUMP JUMPDEST JUMP JUMPDEST PUSH2 0x814 PUSH2 0x80E PUSH2 0xEF3 JUMP JUMPDEST DUP3 PUSH2 0x10C4 JUMP JUMPDEST POP JUMP JUMPDEST PUSH1 0x0 PUSH1 0x5 PUSH1 0x0 SWAP1 SLOAD SWAP1 PUSH2 0x100 EXP SWAP1 DIV PUSH1 0xFF AND SWAP1 POP SWAP1 JUMP JUMPDEST PUSH1 0x0 DUP1 PUSH1 0x0 DUP4 PUSH20 0xFFFFFFFFFFFFFFFFFFFFFFFFFFFFFFFFFFFFFFFF AND PUSH20 0xFFFFFFFFFFFFFFFFFFFFFFFFFFFFFFFFFFFFFFFF AND DUP2 MSTORE PUSH1 0x20 ADD SWAP1 DUP2 MSTORE PUSH1 0x20 ADD PUSH1 0x0 KECCAK256 SLOAD SWAP1 POP SWAP2 SWAP1 POP JUMP JUMPDEST PUSH2 0x87E PUSH2 0x1593 JUMP JUMPDEST PUSH2 0x888 PUSH1 0x0 PUSH2 0x1674 JUMP JUMPDEST JUMP JUMPDEST PUSH2 0x89C DUP3 PUSH2 0x896 PUSH2 0xEF3 JUMP JUMPDEST DUP4 PUSH2 0x1291 JUMP JUMPDEST PUSH2 0x8A6 DUP3 DUP3 PUSH2 0x10C4 JUMP JUMPDEST POP POP JUMP JUMPDEST PUSH2 0x8B2 PUSH2 0x1593 JUMP JUMPDEST PUSH2 0x8BA PUSH2 0x173A JUMP JUMPDEST JUMP JUMPDEST PUSH1 0x0 PUSH1 0x5 PUSH1 0x1 SWAP1 SLOAD SWAP1 PUSH2 0x100 EXP SWAP1 DIV PUSH20 0xFFFFFFFFFFFFFFFFFFFFFFFFFFFFFFFFFFFFFFFF AND SWAP1 POP SWAP1 JUMP JUMPDEST PUSH1 0x60 PUSH1 0x4 DUP1 SLOAD PUSH2 0x8F5 SWAP1 PUSH2 0x1DEE JUMP JUMPDEST DUP1 PUSH1 0x1F ADD PUSH1 0x20 DUP1 SWAP2 DIV MUL PUSH1 0x20 ADD PUSH1 0x40 MLOAD SWAP1 DUP2 ADD PUSH1 0x40 MSTORE DUP1 SWAP3 SWAP2 SWAP1 DUP2 DUP2 MSTORE PUSH1 0x20 ADD DUP3 DUP1 SLOAD PUSH2 0x921 SWAP1 PUSH2 0x1DEE JUMP JUMPDEST DUP1 ISZERO PUSH2 0x96E JUMPI DUP1 PUSH1 0x1F LT PUSH2 0x943 JUMPI PUSH2 0x100 DUP1 DUP4 SLOAD DIV MUL DUP4 MSTORE SWAP2 PUSH1 0x20 ADD SWAP2 PUSH2 0x96E JUMP JUMPDEST DUP3 ADD SWAP2 SWAP1 PUSH1 0x0 MSTORE PUSH1 0x20 PUSH1 0x0 KECCAK256 SWAP1 JUMPDEST DUP2 SLOAD DUP2 MSTORE SWAP1 PUSH1 0x1 ADD SWAP1 PUSH1 0x20 ADD DUP1 DUP4 GT PUSH2 0x951 JUMPI DUP3 SWAP1 SUB PUSH1 0x1F AND DUP3 ADD SWAP2 JUMPDEST POP POP POP POP POP SWAP1 POP SWAP1 JUMP JUMPDEST PUSH1 0x0 DUP1 PUSH2 0x983 PUSH2 0xEF3 JUMP JUMPDEST SWAP1 POP PUSH1 0x0 PUSH2 0x991 DUP3 DUP7 PUSH2 0xDE9 JUMP JUMPDEST SWAP1 POP DUP4 DUP2 LT ISZERO PUSH2 0x9D6 JUMPI PUSH1 0x40 MLOAD PUSH32 0x8C379A000000000000000000000000000000000000000000000000000000000 DUP2 MSTORE PUSH1 0x4 ADD PUSH2 0x9CD SWAP1 PUSH2 0x2196 JUMP JUMPDEST PUSH1 0x40 MLOAD DUP1 SWAP2 SUB SWAP1 REVERT JUMPDEST PUSH2 0x9E3 DUP3 DUP7 DUP7 DUP5 SUB PUSH2 0xEFB JUMP JUMPDEST PUSH1 0x1 SWAP3 POP POP POP SWAP3 SWAP2 POP POP JUMP JUMPDEST PUSH1 0x0 DUP1 PUSH2 0x9FA PUSH2 0xEF3 JUMP JUMPDEST SWAP1 POP PUSH2 0xA07 DUP2 DUP6 DUP6 PUSH2 0x131D JUMP JUMPDEST PUSH1 0x1 SWAP2 POP POP SWAP3 SWAP2 POP POP JUMP JUMPDEST PUSH1 0x8 SLOAD DUP2 PUSH2 0xA1E PUSH2 0x77C JUMP JUMPDEST PUSH2 0xA28 SWAP2 SWAP1 PUSH2 0x20F0 JUMP JUMPDEST GT ISZERO PUSH2 0xA69 JUMPI PUSH1 0x40 MLOAD PUSH32 0x8C379A000000000000000000000000000000000000000000000000000000000 DUP2 MSTORE PUSH1 0x4 ADD PUSH2 0xA60 SWAP1 PUSH2 0x2202 JUMP JUMPDEST PUSH1 0x40 MLOAD DUP1 SWAP2 SUB SWAP1 REVERT JUMPDEST PUSH1 0x6 PUSH1 0x0 SWAP1 SLOAD SWAP1 PUSH2 0x100 EXP SWAP1 DIV PUSH20 0xFFFFFFFFFFFFFFFFFFFFFFFFFFFFFFFFFFFFFFFF AND PUSH20 0xFFFFFFFFFFFFFFFFFFFFFFFFFFFFFFFFFFFFFFFF AND PUSH4 0xF35F0F74 CALLER PUSH1 0x2 PUSH1 0x40 MLOAD DUP4 PUSH4 0xFFFFFFFF AND PUSH1 0xE0 SHL DUP2 MSTORE PUSH1 0x4 ADD PUSH2 0xAC7 SWAP3 SWAP2 SWAP1 PUSH2 0x1EAC JUMP JUMPDEST PUSH1 0x20 PUSH1 0x40 MLOAD DUP1 DUP4 SUB DUP2 DUP7 GAS STATICCALL ISZERO DUP1 ISZERO PUSH2 0xAE4 JUMPI RETURNDATASIZE PUSH1 0x0 DUP1 RETURNDATACOPY RETURNDATASIZE PUSH1 0x0 REVERT JUMPDEST POP POP POP POP PUSH1 0x40 MLOAD RETURNDATASIZE PUSH1 0x1F NOT PUSH1 0x1F DUP3 ADD AND DUP3 ADD DUP1 PUSH1 0x40 MSTORE POP DUP2 ADD SWAP1 PUSH2 0xB08 SWAP2 SWAP1 PUSH2 0x1F01 JUMP JUMPDEST PUSH2 0xB47 JUMPI PUSH1 0x40 MLOAD PUSH32 0x8C379A000000000000000000000000000000000000000000000000000000000 DUP2 MSTORE PUSH1 0x4 ADD PUSH2 0xB3E SWAP1 PUSH2 0x1F7A JUMP JUMPDEST PUSH1 0x40 MLOAD DUP1 SWAP2 SUB SWAP1 REVERT JUMPDEST PUSH1 0x0 DUP2 GT PUSH2 0xB8A JUMPI PUSH1 0x40 MLOAD PUSH32 0x8C379A000000000000000000000000000000000000000000000000000000000 DUP2 MSTORE PUSH1 0x4 ADD PUSH2 0xB81 SWAP1 PUSH2 0x1FE6 JUMP JUMPDEST PUSH1 0x40 MLOAD DUP1 SWAP2 SUB SWAP1 REVERT JUMPDEST PUSH1 0x9 SLOAD DUP2 PUSH2 0xB98 SWAP2 SWAP1 PUSH2 0x2035 JUMP JUMPDEST PUSH1 0x7 PUSH1 0x0 SWAP1 SLOAD SWAP1 PUSH2 0x100 EXP SWAP1 DIV PUSH20 0xFFFFFFFFFFFFFFFFFFFFFFFFFFFFFFFFFFFFFFFF AND PUSH20 0xFFFFFFFFFFFFFFFFFFFFFFFFFFFFFFFFFFFFFFFF AND PUSH4 0x70A08231 CALLER PUSH1 0x40 MLOAD DUP3 PUSH4 0xFFFFFFFF AND PUSH1 0xE0 SHL DUP2 MSTORE PUSH1 0x4 ADD PUSH2 0xBF3 SWAP2 SWAP1 PUSH2 0x1D64 JUMP JUMPDEST PUSH1 0x20 PUSH1 0x40 MLOAD DUP1 DUP4 SUB DUP2 DUP7 GAS STATICCALL ISZERO DUP1 ISZERO PUSH2 0xC10 JUMPI RETURNDATASIZE PUSH1 0x0 DUP1 RETURNDATACOPY RETURNDATASIZE PUSH1 0x0 REVERT JUMPDEST POP POP POP POP PUSH1 0x40 MLOAD RETURNDATASIZE PUSH1 0x1F NOT PUSH1 0x1F DUP3 ADD AND DUP3 ADD DUP1 PUSH1 0x40 MSTORE POP DUP2 ADD SWAP1 PUSH2 0xC34 SWAP2 SWAP1 PUSH2 0x208C JUMP JUMPDEST LT ISZERO PUSH2 0xC3F JUMPI PUSH1 0x0 DUP1 REVERT JUMPDEST PUSH1 0x9 SLOAD DUP2 PUSH2 0xC4D SWAP2 SWAP1 PUSH2 0x2035 JUMP JUMPDEST PUSH1 0x7 PUSH1 0x0 SWAP1 SLOAD SWAP1 PUSH2 0x100 EXP SWAP1 DIV PUSH20 0xFFFFFFFFFFFFFFFFFFFFFFFFFFFFFFFFFFFFFFFF AND PUSH20 0xFFFFFFFFFFFFFFFFFFFFFFFFFFFFFFFFFFFFFFFF AND PUSH4 0xDD62ED3E CALLER ADDRESS PUSH1 0x40 MLOAD DUP4 PUSH4 0xFFFFFFFF AND PUSH1 0xE0 SHL DUP2 MSTORE PUSH1 0x4 ADD PUSH2 0xCAA SWAP3 SWAP2 SWAP1 PUSH2 0x2222 JUMP JUMPDEST PUSH1 0x20 PUSH1 0x40 MLOAD DUP1 DUP4 SUB DUP2 DUP7 GAS STATICCALL ISZERO DUP1 ISZERO PUSH2 0xCC7 JUMPI RETURNDATASIZE PUSH1 0x0 DUP1 RETURNDATACOPY RETURNDATASIZE PUSH1 0x0 REVERT JUMPDEST POP POP POP POP PUSH1 0x40 MLOAD RETURNDATASIZE PUSH1 0x1F NOT PUSH1 0x1F DUP3 ADD AND DUP3 ADD DUP1 PUSH1 0x40 MSTORE POP DUP2 ADD SWAP1 PUSH2 0xCEB SWAP2 SWAP1 PUSH2 0x208C JUMP JUMPDEST LT ISZERO PUSH2 0xD2C JUMPI PUSH1 0x40 MLOAD PUSH32 0x8C379A000000000000000000000000000000000000000000000000000000000 DUP2 MSTORE PUSH1 0x4 ADD PUSH2 0xD23 SWAP1 PUSH2 0x2297 JUMP JUMPDEST PUSH1 0x40 MLOAD DUP1 SWAP2 SUB SWAP1 REVERT JUMPDEST PUSH2 0xD36 CALLER DUP3 PUSH2 0x179D JUMP JUMPDEST PUSH1 0x7 PUSH1 0x0 SWAP1 SLOAD SWAP1 PUSH2 0x100 EXP SWAP1 DIV PUSH20 0xFFFFFFFFFFFFFFFFFFFFFFFFFFFFFFFFFFFFFFFF AND PUSH20 0xFFFFFFFFFFFFFFFFFFFFFFFFFFFFFFFFFFFFFFFF AND PUSH4 0x23B872DD CALLER ADDRESS PUSH1 0x9 SLOAD DUP6 PUSH2 0xD84 SWAP2 SWAP1 PUSH2 0x2035 JUMP JUMPDEST PUSH1 0x40 MLOAD DUP5 PUSH4 0xFFFFFFFF AND PUSH1 0xE0 SHL DUP2 MSTORE PUSH1 0x4 ADD PUSH2 0xDA2 SWAP4 SWAP3 SWAP2 SWAP1 PUSH2 0x20B9 JUMP JUMPDEST PUSH1 0x20 PUSH1 0x40 MLOAD DUP1 DUP4 SUB DUP2 PUSH1 0x0 DUP8 GAS CALL ISZERO DUP1 ISZERO PUSH2 0xDC1 JUMPI RETURNDATASIZE PUSH1 0x0 DUP1 RETURNDATACOPY RETURNDATASIZE PUSH1 0x0 REVERT JUMPDEST POP POP POP POP PUSH1 0x40 MLOAD RETURNDATASIZE PUSH1 0x1F NOT PUSH1 0x1F DUP3 ADD AND DUP3 ADD DUP1 PUSH1 0x40 MSTORE POP DUP2 ADD SWAP1 PUSH2 0xDE5 SWAP2 SWAP1 PUSH2 0x1F01 JUMP JUMPDEST POP POP JUMP JUMPDEST PUSH1 0x0 PUSH1 0x1 PUSH1 0x0 DUP5 PUSH20 0xFFFFFFFFFFFFFFFFFFFFFFFFFFFFFFFFFFFFFFFF AND PUSH20 0xFFFFFFFFFFFFFFFFFFFFFFFFFFFFFFFFFFFFFFFF AND DUP2 MSTORE PUSH1 0x20 ADD SWAP1 DUP2 MSTORE PUSH1 0x20 ADD PUSH1 0x0 KECCAK256 PUSH1 0x0 DUP4 PUSH20 0xFFFFFFFFFFFFFFFFFFFFFFFFFFFFFFFFFFFFFFFF AND PUSH20 0xFFFFFFFFFFFFFFFFFFFFFFFFFFFFFFFFFFFFFFFF AND DUP2 MSTORE PUSH1 0x20 ADD SWAP1 DUP2 MSTORE PUSH1 0x20 ADD PUSH1 0x0 KECCAK256 SLOAD SWAP1 POP SWAP3 SWAP2 POP POP JUMP JUMPDEST PUSH2 0xE78 PUSH2 0x1593 JUMP JUMPDEST PUSH1 0x0 PUSH20 0xFFFFFFFFFFFFFFFFFFFFFFFFFFFFFFFFFFFFFFFF AND DUP2 PUSH20 0xFFFFFFFFFFFFFFFFFFFFFFFFFFFFFFFFFFFFFFFF AND SUB PUSH2 0xEE7 JUMPI PUSH1 0x40 MLOAD PUSH32 0x8C379A000000000000000000000000000000000000000000000000000000000 DUP2 MSTORE PUSH1 0x4 ADD PUSH2 0xEDE SWAP1 PUSH2 0x2329 JUMP JUMPDEST PUSH1 0x40 MLOAD DUP1 SWAP2 SUB SWAP1 REVERT JUMPDEST PUSH2 0xEF0 DUP2 PUSH2 0x1674 JUMP JUMPDEST POP JUMP JUMPDEST PUSH1 0x0 CALLER SWAP1 POP SWAP1 JUMP JUMPDEST PUSH1 0x0 PUSH20 0xFFFFFFFFFFFFFFFFFFFFFFFFFFFFFFFFFFFFFFFF AND DUP4 PUSH20 0xFFFFFFFFFFFFFFFFFFFFFFFFFFFFFFFFFFFFFFFF AND SUB PUSH2 0xF6A JUMPI PUSH1 0x40 MLOAD PUSH32 0x8C379A000000000000000000000000000000000000000000000000000000000 DUP2 MSTORE PUSH1 0x4 ADD PUSH2 0xF61 SWAP1 PUSH2 0x23BB JUMP JUMPDEST PUSH1 0x40 MLOAD DUP1 SWAP2 SUB SWAP1 REVERT JUMPDEST PUSH1 0x0 PUSH20 0xFFFFFFFFFFFFFFFFFFFFFFFFFFFFFFFFFFFFFFFF AND DUP3 PUSH20 0xFFFFFFFFFFFFFFFFFFFFFFFFFFFFFFFFFFFFFFFF AND SUB PUSH2 0xFD9 JUMPI PUSH1 0x40 MLOAD PUSH32 0x8C379A000000000000000000000000000000000000000000000000000000000 DUP2 MSTORE PUSH1 0x4 ADD PUSH2 0xFD0 SWAP1 PUSH2 0x244D JUMP JUMPDEST PUSH1 0x40 MLOAD DUP1 SWAP2 SUB SWAP1 REVERT JUMPDEST DUP1 PUSH1 0x1 PUSH1 0x0 DUP6 PUSH20 0xFFFFFFFFFFFFFFFFFFFFFFFFFFFFFFFFFFFFFFFF AND PUSH20 0xFFFFFFFFFFFFFFFFFFFFFFFFFFFFFFFFFFFFFFFF AND DUP2 MSTORE PUSH1 0x20 ADD SWAP1 DUP2 MSTORE PUSH1 0x20 ADD PUSH1 0x0 KECCAK256 PUSH1 0x0 DUP5 PUSH20 0xFFFFFFFFFFFFFFFFFFFFFFFFFFFFFFFFFFFFFFFF AND PUSH20 0xFFFFFFFFFFFFFFFFFFFFFFFFFFFFFFFFFFFFFFFF AND DUP2 MSTORE PUSH1 0x20 ADD SWAP1 DUP2 MSTORE PUSH1 0x20 ADD PUSH1 0x0 KECCAK256 DUP2 SWAP1 SSTORE POP DUP2 PUSH20 0xFFFFFFFFFFFFFFFFFFFFFFFFFFFFFFFFFFFFFFFF AND DUP4 PUSH20 0xFFFFFFFFFFFFFFFFFFFFFFFFFFFFFFFFFFFFFFFF AND PUSH32 0x8C5BE1E5EBEC7D5BD14F71427D1E84F3DD0314C0F7B2291E5B200AC8C7C3B925 DUP4 PUSH1 0x40 MLOAD PUSH2 0x10B7 SWAP2 SWAP1 PUSH2 0x1C83 JUMP JUMPDEST PUSH1 0x40 MLOAD DUP1 SWAP2 SUB SWAP1 LOG3 POP POP POP JUMP JUMPDEST PUSH1 0x0 PUSH20 0xFFFFFFFFFFFFFFFFFFFFFFFFFFFFFFFFFFFFFFFF AND DUP3 PUSH20 0xFFFFFFFFFFFFFFFFFFFFFFFFFFFFFFFFFFFFFFFF AND SUB PUSH2 0x1133 JUMPI PUSH1 0x40 MLOAD PUSH32 0x8C379A000000000000000000000000000000000000000000000000000000000 DUP2 MSTORE PUSH1 0x4 ADD PUSH2 0x112A SWAP1 PUSH2 0x24DF JUMP JUMPDEST PUSH1 0x40 MLOAD DUP1 SWAP2 SUB SWAP1 REVERT JUMPDEST PUSH2 0x113F DUP3 PUSH1 0x0 DUP4 PUSH2 0x18F3 JUMP JUMPDEST PUSH1 0x0 DUP1 PUSH1 0x0 DUP5 PUSH20 0xFFFFFFFFFFFFFFFFFFFFFFFFFFFFFFFFFFFFFFFF AND PUSH20 0xFFFFFFFFFFFFFFFFFFFFFFFFFFFFFFFFFFFFFFFF AND DUP2 MSTORE PUSH1 0x20 ADD SWAP1 DUP2 MSTORE PUSH1 0x20 ADD PUSH1 0x0 KECCAK256 SLOAD SWAP1 POP DUP2 DUP2 LT ISZERO PUSH2 0x11C5 JUMPI PUSH1 0x40 MLOAD PUSH32 0x8C379A000000000000000000000000000000000000000000000000000000000 DUP2 MSTORE PUSH1 0x4 ADD PUSH2 0x11BC SWAP1 PUSH2 0x2571 JUMP JUMPDEST PUSH1 0x40 MLOAD DUP1 SWAP2 SUB SWAP1 REVERT JUMPDEST DUP2 DUP2 SUB PUSH1 0x0 DUP1 DUP6 PUSH20 0xFFFFFFFFFFFFFFFFFFFFFFFFFFFFFFFFFFFFFFFF AND PUSH20 0xFFFFFFFFFFFFFFFFFFFFFFFFFFFFFFFFFFFFFFFF AND DUP2 MSTORE PUSH1 0x20 ADD SWAP1 DUP2 MSTORE PUSH1 0x20 ADD PUSH1 0x0 KECCAK256 DUP2 SWAP1 SSTORE POP DUP2 PUSH1 0x2 PUSH1 0x0 DUP3 DUP3 SLOAD SUB SWAP3 POP POP DUP2 SWAP1 SSTORE POP PUSH1 0x0 PUSH20 0xFFFFFFFFFFFFFFFFFFFFFFFFFFFFFFFFFFFFFFFF AND DUP4 PUSH20 0xFFFFFFFFFFFFFFFFFFFFFFFFFFFFFFFFFFFFFFFF AND PUSH32 0xDDF252AD1BE2C89B69C2B068FC378DAA952BA7F163C4A11628F55A4DF523B3EF DUP5 PUSH1 0x40 MLOAD PUSH2 0x1278 SWAP2 SWAP1 PUSH2 0x1C83 JUMP JUMPDEST PUSH1 0x40 MLOAD DUP1 SWAP2 SUB SWAP1 LOG3 PUSH2 0x128C DUP4 PUSH1 0x0 DUP5 PUSH2 0x19E9 JUMP JUMPDEST POP POP POP JUMP JUMPDEST PUSH1 0x0 PUSH2 0x129D DUP5 DUP5 PUSH2 0xDE9 JUMP JUMPDEST SWAP1 POP PUSH32 0xFFFFFFFFFFFFFFFFFFFFFFFFFFFFFFFFFFFFFFFFFFFFFFFFFFFFFFFFFFFFFFFF DUP2 EQ PUSH2 0x1317 JUMPI DUP2 DUP2 LT ISZERO PUSH2 0x1309 JUMPI PUSH1 0x40 MLOAD PUSH32 0x8C379A000000000000000000000000000000000000000000000000000000000 DUP2 MSTORE PUSH1 0x4 ADD PUSH2 0x1300 SWAP1 PUSH2 0x25DD JUMP JUMPDEST PUSH1 0x40 MLOAD DUP1 SWAP2 SUB SWAP1 REVERT JUMPDEST PUSH2 0x1316 DUP5 DUP5 DUP5 DUP5 SUB PUSH2 0xEFB JUMP JUMPDEST JUMPDEST POP POP POP POP JUMP JUMPDEST PUSH1 0x0 PUSH20 0xFFFFFFFFFFFFFFFFFFFFFFFFFFFFFFFFFFFFFFFF AND DUP4 PUSH20 0xFFFFFFFFFFFFFFFFFFFFFFFFFFFFFFFFFFFFFFFF AND SUB PUSH2 0x138C JUMPI PUSH1 0x40 MLOAD PUSH32 0x8C379A000000000000000000000000000000000000000000000000000000000 DUP2 MSTORE PUSH1 0x4 ADD PUSH2 0x1383 SWAP1 PUSH2 0x266F JUMP JUMPDEST PUSH1 0x40 MLOAD DUP1 SWAP2 SUB SWAP1 REVERT JUMPDEST PUSH1 0x0 PUSH20 0xFFFFFFFFFFFFFFFFFFFFFFFFFFFFFFFFFFFFFFFF AND DUP3 PUSH20 0xFFFFFFFFFFFFFFFFFFFFFFFFFFFFFFFFFFFFFFFF AND SUB PUSH2 0x13FB JUMPI PUSH1 0x40 MLOAD PUSH32 0x8C379A000000000000000000000000000000000000000000000000000000000 DUP2 MSTORE PUSH1 0x4 ADD PUSH2 0x13F2 SWAP1 PUSH2 0x2701 JUMP JUMPDEST PUSH1 0x40 MLOAD DUP1 SWAP2 SUB SWAP1 REVERT JUMPDEST PUSH2 0x1406 DUP4 DUP4 DUP4 PUSH2 0x18F3 JUMP JUMPDEST PUSH1 0x0 DUP1 PUSH1 0x0 DUP6 PUSH20 0xFFFFFFFFFFFFFFFFFFFFFFFFFFFFFFFFFFFFFFFF AND PUSH20 0xFFFFFFFFFFFFFFFFFFFFFFFFFFFFFFFFFFFFFFFF AND DUP2 MSTORE PUSH1 0x20 ADD SWAP1 DUP2 MSTORE PUSH1 0x20 ADD PUSH1 0x0 KECCAK256 SLOAD SWAP1 POP DUP2 DUP2 LT ISZERO PUSH2 0x148C JUMPI PUSH1 0x40 MLOAD PUSH32 0x8C379A000000000000000000000000000000000000000000000000000000000 DUP2 MSTORE PUSH1 0x4 ADD PUSH2 0x1483 SWAP1 PUSH2 0x2793 JUMP JUMPDEST PUSH1 0x40 MLOAD DUP1 SWAP2 SUB SWAP1 REVERT JUMPDEST DUP2 DUP2 SUB PUSH1 0x0 DUP1 DUP7 PUSH20 0xFFFFFFFFFFFFFFFFFFFFFFFFFFFFFFFFFFFFFFFF AND PUSH20 0xFFFFFFFFFFFFFFFFFFFFFFFFFFFFFFFFFFFFFFFF AND DUP2 MSTORE PUSH1 0x20 ADD SWAP1 DUP2 MSTORE PUSH1 0x20 ADD PUSH1 0x0 KECCAK256 DUP2 SWAP1 SSTORE POP DUP2 PUSH1 0x0 DUP1 DUP6 PUSH20 0xFFFFFFFFFFFFFFFFFFFFFFFFFFFFFFFFFFFFFFFF AND PUSH20 0xFFFFFFFFFFFFFFFFFFFFFFFFFFFFFFFFFFFFFFFF AND DUP2 MSTORE PUSH1 0x20 ADD SWAP1 DUP2 MSTORE PUSH1 0x20 ADD PUSH1 0x0 KECCAK256 PUSH1 0x0 DUP3 DUP3 SLOAD ADD SWAP3 POP POP DUP2 SWAP1 SSTORE POP DUP3 PUSH20 0xFFFFFFFFFFFFFFFFFFFFFFFFFFFFFFFFFFFFFFFF AND DUP5 PUSH20 0xFFFFFFFFFFFFFFFFFFFFFFFFFFFFFFFFFFFFFFFF AND PUSH32 0xDDF252AD1BE2C89B69C2B068FC378DAA952BA7F163C4A11628F55A4DF523B3EF DUP5 PUSH1 0x40 MLOAD PUSH2 0x157A SWAP2 SWAP1 PUSH2 0x1C83 JUMP JUMPDEST PUSH1 0x40 MLOAD DUP1 SWAP2 SUB SWAP1 LOG3 PUSH2 0x158D DUP5 DUP5 DUP5 PUSH2 0x19E9 JUMP JUMPDEST POP POP POP POP JUMP JUMPDEST PUSH2 0x159B PUSH2 0xEF3 JUMP JUMPDEST PUSH20 0xFFFFFFFFFFFFFFFFFFFFFFFFFFFFFFFFFFFFFFFF AND PUSH2 0x15B9 PUSH2 0x8BC JUMP JUMPDEST PUSH20 0xFFFFFFFFFFFFFFFFFFFFFFFFFFFFFFFFFFFFFFFF AND EQ PUSH2 0x160F JUMPI PUSH1 0x40 MLOAD PUSH32 0x8C379A000000000000000000000000000000000000000000000000000000000 DUP2 MSTORE PUSH1 0x4 ADD PUSH2 0x1606 SWAP1 PUSH2 0x27FF JUMP JUMPDEST PUSH1 0x40 MLOAD DUP1 SWAP2 SUB SWAP1 REVERT JUMPDEST JUMP JUMPDEST PUSH2 0x1619 PUSH2 0x19EE JUMP JUMPDEST PUSH1 0x0 PUSH1 0x5 PUSH1 0x0 PUSH2 0x100 EXP DUP2 SLOAD DUP2 PUSH1 0xFF MUL NOT AND SWAP1 DUP4 ISZERO ISZERO MUL OR SWAP1 SSTORE POP PUSH32 0x5DB9EE0A495BF2E6FF9C91A7834C1BA4FDD244A5E8AA4E537BD38AEAE4B073AA PUSH2 0x165D PUSH2 0xEF3 JUMP JUMPDEST PUSH1 0x40 MLOAD PUSH2 0x166A SWAP2 SWAP1 PUSH2 0x1D64 JUMP JUMPDEST PUSH1 0x40 MLOAD DUP1 SWAP2 SUB SWAP1 LOG1 JUMP JUMPDEST PUSH1 0x0 PUSH1 0x5 PUSH1 0x1 SWAP1 SLOAD SWAP1 PUSH2 0x100 EXP SWAP1 DIV PUSH20 0xFFFFFFFFFFFFFFFFFFFFFFFFFFFFFFFFFFFFFFFF AND SWAP1 POP DUP2 PUSH1 0x5 PUSH1 0x1 PUSH2 0x100 EXP DUP2 SLOAD DUP2 PUSH20 0xFFFFFFFFFFFFFFFFFFFFFFFFFFFFFFFFFFFFFFFF MUL NOT AND SWAP1 DUP4 PUSH20 0xFFFFFFFFFFFFFFFFFFFFFFFFFFFFFFFFFFFFFFFF AND MUL OR SWAP1 SSTORE POP DUP2 PUSH20 0xFFFFFFFFFFFFFFFFFFFFFFFFFFFFFFFFFFFFFFFF AND DUP2 PUSH20 0xFFFFFFFFFFFFFFFFFFFFFFFFFFFFFFFFFFFFFFFF AND PUSH32 0x8BE0079C531659141344CD1FD0A4F28419497F9722A3DAAFE3B4186F6B6457E0 PUSH1 0x40 MLOAD PUSH1 0x40 MLOAD DUP1 SWAP2 SUB SWAP1 LOG3 POP POP JUMP JUMPDEST PUSH2 0x1742 PUSH2 0x1A37 JUMP JUMPDEST PUSH1 0x1 PUSH1 0x5 PUSH1 0x0 PUSH2 0x100 EXP DUP2 SLOAD DUP2 PUSH1 0xFF MUL NOT AND SWAP1 DUP4 ISZERO ISZERO MUL OR SWAP1 SSTORE POP PUSH32 0x62E78CEA01BEE320CD4E420270B5EA74000D11B0C9F74754EBDBFC544B05A258 PUSH2 0x1786 PUSH2 0xEF3 JUMP JUMPDEST PUSH1 0x40 MLOAD PUSH2 0x1793 SWAP2 SWAP1 PUSH2 0x1D64 JUMP JUMPDEST PUSH1 0x40 MLOAD DUP1 SWAP2 SUB SWAP1 LOG1 JUMP JUMPDEST PUSH1 0x0 PUSH20 0xFFFFFFFFFFFFFFFFFFFFFFFFFFFFFFFFFFFFFFFF AND DUP3 PUSH20 0xFFFFFFFFFFFFFFFFFFFFFFFFFFFFFFFFFFFFFFFF AND SUB PUSH2 0x180C JUMPI PUSH1 0x40 MLOAD PUSH32 0x8C379A000000000000000000000000000000000000000000000000000000000 DUP2 MSTORE PUSH1 0x4 ADD PUSH2 0x1803 SWAP1 PUSH2 0x286B JUMP JUMPDEST PUSH1 0x40 MLOAD DUP1 SWAP2 SUB SWAP1 REVERT JUMPDEST PUSH2 0x1818 PUSH1 0x0 DUP4 DUP4 PUSH2 0x18F3 JUMP JUMPDEST DUP1 PUSH1 0x2 PUSH1 0x0 DUP3 DUP3 SLOAD PUSH2 0x182A SWAP2 SWAP1 PUSH2 0x20F0 JUMP JUMPDEST SWAP3 POP POP DUP2 SWAP1 SSTORE POP DUP1 PUSH1 0x0 DUP1 DUP5 PUSH20 0xFFFFFFFFFFFFFFFFFFFFFFFFFFFFFFFFFFFFFFFF AND PUSH20 0xFFFFFFFFFFFFFFFFFFFFFFFFFFFFFFFFFFFFFFFF AND DUP2 MSTORE PUSH1 0x20 ADD SWAP1 DUP2 MSTORE PUSH1 0x20 ADD PUSH1 0x0 KECCAK256 PUSH1 0x0 DUP3 DUP3 SLOAD ADD SWAP3 POP POP DUP2 SWAP1 SSTORE POP DUP2 PUSH20 0xFFFFFFFFFFFFFFFFFFFFFFFFFFFFFFFFFFFFFFFF AND PUSH1 0x0 PUSH20 0xFFFFFFFFFFFFFFFFFFFFFFFFFFFFFFFFFFFFFFFF AND PUSH32 0xDDF252AD1BE2C89B69C2B068FC378DAA952BA7F163C4A11628F55A4DF523B3EF DUP4 PUSH1 0x40 MLOAD PUSH2 0x18DB SWAP2 SWAP1 PUSH2 0x1C83 JUMP JUMPDEST PUSH1 0x40 MLOAD DUP1 SWAP2 SUB SWAP1 LOG3 PUSH2 0x18EF PUSH1 0x0 DUP4 DUP4 PUSH2 0x19E9 JUMP JUMPDEST POP POP JUMP JUMPDEST PUSH2 0x18FB PUSH2 0x1A37 JUMP JUMPDEST PUSH1 0x6 PUSH1 0x0 SWAP1 SLOAD SWAP1 PUSH2 0x100 EXP SWAP1 DIV PUSH20 0xFFFFFFFFFFFFFFFFFFFFFFFFFFFFFFFFFFFFFFFF AND PUSH20 0xFFFFFFFFFFFFFFFFFFFFFFFFFFFFFFFFFFFFFFFF AND PUSH4 0xF35F0F74 DUP4 PUSH1 0x2 PUSH1 0x40 MLOAD DUP4 PUSH4 0xFFFFFFFF AND PUSH1 0xE0 SHL DUP2 MSTORE PUSH1 0x4 ADD PUSH2 0x1959 SWAP3 SWAP2 SWAP1 PUSH2 0x1EAC JUMP JUMPDEST PUSH1 0x20 PUSH1 0x40 MLOAD DUP1 DUP4 SUB DUP2 DUP7 GAS STATICCALL ISZERO DUP1 ISZERO PUSH2 0x1976 JUMPI RETURNDATASIZE PUSH1 0x0 DUP1 RETURNDATACOPY RETURNDATASIZE PUSH1 0x0 REVERT JUMPDEST POP POP POP POP PUSH1 0x40 MLOAD RETURNDATASIZE PUSH1 0x1F NOT PUSH1 0x1F DUP3 ADD AND DUP3 ADD DUP1 PUSH1 0x40 MSTORE POP DUP2 ADD SWAP1 PUSH2 0x199A SWAP2 SWAP1 PUSH2 0x1F01 JUMP JUMPDEST PUSH2 0x19D9 JUMPI PUSH1 0x40 MLOAD PUSH32 0x8C379A000000000000000000000000000000000000000000000000000000000 DUP2 MSTORE PUSH1 0x4 ADD PUSH2 0x19D0 SWAP1 PUSH2 0x1F7A JUMP JUMPDEST PUSH1 0x40 MLOAD DUP1 SWAP2 SUB SWAP1 REVERT JUMPDEST PUSH2 0x19E4 DUP4 DUP4 DUP4 PUSH2 0x1A81 JUMP JUMPDEST POP POP POP JUMP JUMPDEST POP POP POP JUMP JUMPDEST PUSH2 0x19F6 PUSH2 0x817 JUMP JUMPDEST PUSH2 0x1A35 JUMPI PUSH1 0x40 MLOAD PUSH32 0x8C379A000000000000000000000000000000000000000000000000000000000 DUP2 MSTORE PUSH1 0x4 ADD PUSH2 0x1A2C SWAP1 PUSH2 0x28D7 JUMP JUMPDEST PUSH1 0x40 MLOAD DUP1 SWAP2 SUB SWAP1 REVERT JUMPDEST JUMP JUMPDEST PUSH2 0x1A3F PUSH2 0x817 JUMP JUMPDEST ISZERO PUSH2 0x1A7F JUMPI PUSH1 0x40 MLOAD PUSH32 0x8C379A000000000000000000000000000000000000000000000000000000000 DUP2 MSTORE PUSH1 0x4 ADD PUSH2 0x1A76 SWAP1 PUSH2 0x2943 JUMP JUMPDEST PUSH1 0x40 MLOAD DUP1 SWAP2 SUB SWAP1 REVERT JUMPDEST JUMP JUMPDEST POP POP POP JUMP JUMPDEST PUSH1 0x0 DUP2 MLOAD SWAP1 POP SWAP2 SWAP1 POP JUMP JUMPDEST PUSH1 0x0 DUP3 DUP3 MSTORE PUSH1 0x20 DUP3 ADD SWAP1 POP SWAP3 SWAP2 POP POP JUMP JUMPDEST PUSH1 0x0 JUMPDEST DUP4 DUP2 LT ISZERO PUSH2 0x1AC0 JUMPI DUP1 DUP3 ADD MLOAD DUP2 DUP5 ADD MSTORE PUSH1 0x20 DUP2 ADD SWAP1 POP PUSH2 0x1AA5 JUMP JUMPDEST PUSH1 0x0 DUP5 DUP5 ADD MSTORE POP POP POP POP JUMP JUMPDEST PUSH1 0x0 PUSH1 0x1F NOT PUSH1 0x1F DUP4 ADD AND SWAP1 POP SWAP2 SWAP1 POP JUMP JUMPDEST PUSH1 0x0 PUSH2 0x1AE8 DUP3 PUSH2 0x1A86 JUMP JUMPDEST PUSH2 0x1AF2 DUP2 DUP6 PUSH2 0x1A91 JUMP JUMPDEST SWAP4 POP PUSH2 0x1B02 DUP2 DUP6 PUSH1 0x20 DUP7 ADD PUSH2 0x1AA2 JUMP JUMPDEST PUSH2 0x1B0B DUP2 PUSH2 0x1ACC JUMP JUMPDEST DUP5 ADD SWAP2 POP POP SWAP3 SWAP2 POP POP JUMP JUMPDEST PUSH1 0x0 PUSH1 0x20 DUP3 ADD SWAP1 POP DUP2 DUP2 SUB PUSH1 0x0 DUP4 ADD MSTORE PUSH2 0x1B30 DUP2 DUP5 PUSH2 0x1ADD JUMP JUMPDEST SWAP1 POP SWAP3 SWAP2 POP POP JUMP JUMPDEST PUSH1 0x0 DUP1 REVERT JUMPDEST PUSH1 0x0 PUSH20 0xFFFFFFFFFFFFFFFFFFFFFFFFFFFFFFFFFFFFFFFF DUP3 AND SWAP1 POP SWAP2 SWAP1 POP JUMP JUMPDEST PUSH1 0x0 PUSH2 0x1B68 DUP3 PUSH2 0x1B3D JUMP JUMPDEST SWAP1 POP SWAP2 SWAP1 POP JUMP JUMPDEST PUSH2 0x1B78 DUP2 PUSH2 0x1B5D JUMP JUMPDEST DUP2 EQ PUSH2 0x1B83 JUMPI PUSH1 0x0 DUP1 REVERT JUMPDEST POP JUMP JUMPDEST PUSH1 0x0 DUP2 CALLDATALOAD SWAP1 POP PUSH2 0x1B95 DUP2 PUSH2 0x1B6F JUMP JUMPDEST SWAP3 SWAP2 POP POP JUMP JUMPDEST PUSH1 0x0 DUP2 SWAP1 POP SWAP2 SWAP1 POP JUMP JUMPDEST PUSH2 0x1BAE DUP2 PUSH2 0x1B9B JUMP JUMPDEST DUP2 EQ PUSH2 0x1BB9 JUMPI PUSH1 0x0 DUP1 REVERT JUMPDEST POP JUMP JUMPDEST PUSH1 0x0 DUP2 CALLDATALOAD SWAP1 POP PUSH2 0x1BCB DUP2 PUSH2 0x1BA5 JUMP JUMPDEST SWAP3 SWAP2 POP POP JUMP JUMPDEST PUSH1 0x0 DUP1 PUSH1 0x40 DUP4 DUP6 SUB SLT ISZERO PUSH2 0x1BE8 JUMPI PUSH2 0x1BE7 PUSH2 0x1B38 JUMP JUMPDEST JUMPDEST PUSH1 0x0 PUSH2 0x1BF6 DUP6 DUP3 DUP7 ADD PUSH2 0x1B86 JUMP JUMPDEST SWAP3 POP POP PUSH1 0x20 PUSH2 0x1C07 DUP6 DUP3 DUP7 ADD PUSH2 0x1BBC JUMP JUMPDEST SWAP2 POP POP SWAP3 POP SWAP3 SWAP1 POP JUMP JUMPDEST PUSH1 0x0 DUP2 ISZERO ISZERO SWAP1 POP SWAP2 SWAP1 POP JUMP JUMPDEST PUSH2 0x1C26 DUP2 PUSH2 0x1C11 JUMP JUMPDEST DUP3 MSTORE POP POP JUMP JUMPDEST PUSH1 0x0 PUSH1 0x20 DUP3 ADD SWAP1 POP PUSH2 0x1C41 PUSH1 0x0 DUP4 ADD DUP5 PUSH2 0x1C1D JUMP JUMPDEST SWAP3 SWAP2 POP POP JUMP JUMPDEST PUSH1 0x0 PUSH1 0x20 DUP3 DUP5 SUB SLT ISZERO PUSH2 0x1C5D JUMPI PUSH2 0x1C5C PUSH2 0x1B38 JUMP JUMPDEST JUMPDEST PUSH1 0x0 PUSH2 0x1C6B DUP5 DUP3 DUP6 ADD PUSH2 0x1BBC JUMP JUMPDEST SWAP2 POP POP SWAP3 SWAP2 POP POP JUMP JUMPDEST PUSH2 0x1C7D DUP2 PUSH2 0x1B9B JUMP JUMPDEST DUP3 MSTORE POP POP JUMP JUMPDEST PUSH1 0x0 PUSH1 0x20 DUP3 ADD SWAP1 POP PUSH2 0x1C98 PUSH1 0x0 DUP4 ADD DUP5 PUSH2 0x1C74 JUMP JUMPDEST SWAP3 SWAP2 POP POP JUMP JUMPDEST PUSH1 0x0 DUP1 PUSH1 0x0 PUSH1 0x60 DUP5 DUP7 SUB SLT ISZERO PUSH2 0x1CB7 JUMPI PUSH2 0x1CB6 PUSH2 0x1B38 JUMP JUMPDEST JUMPDEST PUSH1 0x0 PUSH2 0x1CC5 DUP7 DUP3 DUP8 ADD PUSH2 0x1B86 JUMP JUMPDEST SWAP4 POP POP PUSH1 0x20 PUSH2 0x1CD6 DUP7 DUP3 DUP8 ADD PUSH2 0x1B86 JUMP JUMPDEST SWAP3 POP POP PUSH1 0x40 PUSH2 0x1CE7 DUP7 DUP3 DUP8 ADD PUSH2 0x1BBC JUMP JUMPDEST SWAP2 POP POP SWAP3 POP SWAP3 POP SWAP3 JUMP JUMPDEST PUSH1 0x0 PUSH1 0xFF DUP3 AND SWAP1 POP SWAP2 SWAP1 POP JUMP JUMPDEST PUSH2 0x1D07 DUP2 PUSH2 0x1CF1 JUMP JUMPDEST DUP3 MSTORE POP POP JUMP JUMPDEST PUSH1 0x0 PUSH1 0x20 DUP3 ADD SWAP1 POP PUSH2 0x1D22 PUSH1 0x0 DUP4 ADD DUP5 PUSH2 0x1CFE JUMP JUMPDEST SWAP3 SWAP2 POP POP JUMP JUMPDEST PUSH1 0x0 PUSH1 0x20 DUP3 DUP5 SUB SLT ISZERO PUSH2 0x1D3E JUMPI PUSH2 0x1D3D PUSH2 0x1B38 JUMP JUMPDEST JUMPDEST PUSH1 0x0 PUSH2 0x1D4C DUP5 DUP3 DUP6 ADD PUSH2 0x1B86 JUMP JUMPDEST SWAP2 POP POP SWAP3 SWAP2 POP POP JUMP JUMPDEST PUSH2 0x1D5E DUP2 PUSH2 0x1B5D JUMP JUMPDEST DUP3 MSTORE POP POP JUMP JUMPDEST PUSH1 0x0 PUSH1 0x20 DUP3 ADD SWAP1 POP PUSH2 0x1D79 PUSH1 0x0 DUP4 ADD DUP5 PUSH2 0x1D55 JUMP JUMPDEST SWAP3 SWAP2 POP POP JUMP JUMPDEST PUSH1 0x0 DUP1 PUSH1 0x40 DUP4 DUP6 SUB SLT ISZERO PUSH2 0x1D96 JUMPI PUSH2 0x1D95 PUSH2 0x1B38 JUMP JUMPDEST JUMPDEST PUSH1 0x0 PUSH2 0x1DA4 DUP6 DUP3 DUP7 ADD PUSH2 0x1B86 JUMP JUMPDEST SWAP3 POP POP PUSH1 0x20 PUSH2 0x1DB5 DUP6 DUP3 DUP7 ADD PUSH2 0x1B86 JUMP JUMPDEST SWAP2 POP POP SWAP3 POP SWAP3 SWAP1 POP JUMP JUMPDEST PUSH32 0x4E487B7100000000000000000000000000000000000000000000000000000000 PUSH1 0x0 MSTORE PUSH1 0x22 PUSH1 0x4 MSTORE PUSH1 0x24 PUSH1 0x0 REVERT JUMPDEST PUSH1 0x0 PUSH1 0x2 DUP3 DIV SWAP1 POP PUSH1 0x1 DUP3 AND DUP1 PUSH2 0x1E06 JUMPI PUSH1 0x7F DUP3 AND SWAP2 POP JUMPDEST PUSH1 0x20 DUP3 LT DUP2 SUB PUSH2 0x1E19 JUMPI PUSH2 0x1E18 PUSH2 0x1DBF JUMP JUMPDEST JUMPDEST POP SWAP2 SWAP1 POP JUMP JUMPDEST PUSH32 0x4E6F7420656E6F75676820626F6E647320697373756564000000000000000000 PUSH1 0x0 DUP3 ADD MSTORE POP JUMP JUMPDEST PUSH1 0x0 PUSH2 0x1E55 PUSH1 0x17 DUP4 PUSH2 0x1A91 JUMP JUMPDEST SWAP2 POP PUSH2 0x1E60 DUP3 PUSH2 0x1E1F JUMP JUMPDEST PUSH1 0x20 DUP3 ADD SWAP1 POP SWAP2 SWAP1 POP JUMP JUMPDEST PUSH1 0x0 PUSH1 0x20 DUP3 ADD SWAP1 POP DUP2 DUP2 SUB PUSH1 0x0 DUP4 ADD MSTORE PUSH2 0x1E84 DUP2 PUSH2 0x1E48 JUMP JUMPDEST SWAP1 POP SWAP2 SWAP1 POP JUMP JUMPDEST PUSH1 0x0 PUSH6 0xFFFFFFFFFFFF DUP3 AND SWAP1 POP SWAP2 SWAP1 POP JUMP JUMPDEST PUSH2 0x1EA6 DUP2 PUSH2 0x1E8B JUMP JUMPDEST DUP3 MSTORE POP POP JUMP JUMPDEST PUSH1 0x0 PUSH1 0x40 DUP3 ADD SWAP1 POP PUSH2 0x1EC1 PUSH1 0x0 DUP4 ADD DUP6 PUSH2 0x1D55 JUMP JUMPDEST PUSH2 0x1ECE PUSH1 0x20 DUP4 ADD DUP5 PUSH2 0x1E9D JUMP JUMPDEST SWAP4 SWAP3 POP POP POP JUMP JUMPDEST PUSH2 0x1EDE DUP2 PUSH2 0x1C11 JUMP JUMPDEST DUP2 EQ PUSH2 0x1EE9 JUMPI PUSH1 0x0 DUP1 REVERT JUMPDEST POP JUMP JUMPDEST PUSH1 0x0 DUP2 MLOAD SWAP1 POP PUSH2 0x1EFB DUP2 PUSH2 0x1ED5 JUMP JUMPDEST SWAP3 SWAP2 POP POP JUMP JUMPDEST PUSH1 0x0 PUSH1 0x20 DUP3 DUP5 SUB SLT ISZERO PUSH2 0x1F17 JUMPI PUSH2 0x1F16 PUSH2 0x1B38 JUMP JUMPDEST JUMPDEST PUSH1 0x0 PUSH2 0x1F25 DUP5 DUP3 DUP6 ADD PUSH2 0x1EEC JUMP JUMPDEST SWAP2 POP POP SWAP3 SWAP2 POP POP JUMP JUMPDEST PUSH32 0x4E6F74206120686F6C6465720000000000000000000000000000000000000000 PUSH1 0x0 DUP3 ADD MSTORE POP JUMP JUMPDEST PUSH1 0x0 PUSH2 0x1F64 PUSH1 0xC DUP4 PUSH2 0x1A91 JUMP JUMPDEST SWAP2 POP PUSH2 0x1F6F DUP3 PUSH2 0x1F2E JUMP JUMPDEST PUSH1 0x20 DUP3 ADD SWAP1 POP SWAP2 SWAP1 POP JUMP JUMPDEST PUSH1 0x0 PUSH1 0x20 DUP3 ADD SWAP1 POP DUP2 DUP2 SUB PUSH1 0x0 DUP4 ADD MSTORE PUSH2 0x1F93 DUP2 PUSH2 0x1F57 JUMP JUMPDEST SWAP1 POP SWAP2 SWAP1 POP JUMP JUMPDEST PUSH32 0x416D6D6F756E743E203000000000000000000000000000000000000000000000 PUSH1 0x0 DUP3 ADD MSTORE POP JUMP JUMPDEST PUSH1 0x0 PUSH2 0x1FD0 PUSH1 0xA DUP4 PUSH2 0x1A91 JUMP JUMPDEST SWAP2 POP PUSH2 0x1FDB DUP3 PUSH2 0x1F9A JUMP JUMPDEST PUSH1 0x20 DUP3 ADD SWAP1 POP SWAP2 SWAP1 POP JUMP JUMPDEST PUSH1 0x0 PUSH1 0x20 DUP3 ADD SWAP1 POP DUP2 DUP2 SUB PUSH1 0x0 DUP4 ADD MSTORE PUSH2 0x1FFF DUP2 PUSH2 0x1FC3 JUMP JUMPDEST SWAP1 POP SWAP2 SWAP1 POP JUMP JUMPDEST PUSH32 0x4E487B7100000000000000000000000000000000000000000000000000000000 PUSH1 0x0 MSTORE PUSH1 0x11 PUSH1 0x4 MSTORE PUSH1 0x24 PUSH1 0x0 REVERT JUMPDEST PUSH1 0x0 PUSH2 0x2040 DUP3 PUSH2 0x1B9B JUMP JUMPDEST SWAP2 POP PUSH2 0x204B DUP4 PUSH2 0x1B9B JUMP JUMPDEST SWAP3 POP DUP3 DUP3 MUL PUSH2 0x2059 DUP2 PUSH2 0x1B9B JUMP JUMPDEST SWAP2 POP DUP3 DUP3 DIV DUP5 EQ DUP4 ISZERO OR PUSH2 0x2070 JUMPI PUSH2 0x206F PUSH2 0x2006 JUMP JUMPDEST JUMPDEST POP SWAP3 SWAP2 POP POP JUMP JUMPDEST PUSH1 0x0 DUP2 MLOAD SWAP1 POP PUSH2 0x2086 DUP2 PUSH2 0x1BA5 JUMP JUMPDEST SWAP3 SWAP2 POP POP JUMP JUMPDEST PUSH1 0x0 PUSH1 0x20 DUP3 DUP5 SUB SLT ISZERO PUSH2 0x20A2 JUMPI PUSH2 0x20A1 PUSH2 0x1B38 JUMP JUMPDEST JUMPDEST PUSH1 0x0 PUSH2 0x20B0 DUP5 DUP3 DUP6 ADD PUSH2 0x2077 JUMP JUMPDEST SWAP2 POP POP SWAP3 SWAP2 POP POP JUMP JUMPDEST PUSH1 0x0 PUSH1 0x60 DUP3 ADD SWAP1 POP PUSH2 0x20CE PUSH1 0x0 DUP4 ADD DUP7 PUSH2 0x1D55 JUMP JUMPDEST PUSH2 0x20DB PUSH1 0x20 DUP4 ADD DUP6 PUSH2 0x1D55 JUMP JUMPDEST PUSH2 0x20E8 PUSH1 0x40 DUP4 ADD DUP5 PUSH2 0x1C74 JUMP JUMPDEST SWAP5 SWAP4 POP POP POP POP JUMP JUMPDEST PUSH1 0x0 PUSH2 0x20FB DUP3 PUSH2 0x1B9B JUMP JUMPDEST SWAP2 POP PUSH2 0x2106 DUP4 PUSH2 0x1B9B JUMP JUMPDEST SWAP3 POP DUP3 DUP3 ADD SWAP1 POP DUP1 DUP3 GT ISZERO PUSH2 0x211E JUMPI PUSH2 0x211D PUSH2 0x2006 JUMP JUMPDEST JUMPDEST SWAP3 SWAP2 POP POP JUMP JUMPDEST PUSH32 0x45524332303A2064656372656173656420616C6C6F77616E63652062656C6F77 PUSH1 0x0 DUP3 ADD MSTORE PUSH32 0x207A65726F000000000000000000000000000000000000000000000000000000 PUSH1 0x20 DUP3 ADD MSTORE POP JUMP JUMPDEST PUSH1 0x0 PUSH2 0x2180 PUSH1 0x25 DUP4 PUSH2 0x1A91 JUMP JUMPDEST SWAP2 POP PUSH2 0x218B DUP3 PUSH2 0x2124 JUMP JUMPDEST PUSH1 0x40 DUP3 ADD SWAP1 POP SWAP2 SWAP1 POP JUMP JUMPDEST PUSH1 0x0 PUSH1 0x20 DUP3 ADD SWAP1 POP DUP2 DUP2 SUB PUSH1 0x0 DUP4 ADD MSTORE PUSH2 0x21AF DUP2 PUSH2 0x2173 JUMP JUMPDEST SWAP1 POP SWAP2 SWAP1 POP JUMP JUMPDEST PUSH32 0x4E6F7420656E6F75676800000000000000000000000000000000000000000000 PUSH1 0x0 DUP3 ADD MSTORE POP JUMP JUMPDEST PUSH1 0x0 PUSH2 0x21EC PUSH1 0xA DUP4 PUSH2 0x1A91 JUMP JUMPDEST SWAP2 POP PUSH2 0x21F7 DUP3 PUSH2 0x21B6 JUMP JUMPDEST PUSH1 0x20 DUP3 ADD SWAP1 POP SWAP2 SWAP1 POP JUMP JUMPDEST PUSH1 0x0 PUSH1 0x20 DUP3 ADD SWAP1 POP DUP2 DUP2 SUB PUSH1 0x0 DUP4 ADD MSTORE PUSH2 0x221B DUP2 PUSH2 0x21DF JUMP JUMPDEST SWAP1 POP SWAP2 SWAP1 POP JUMP JUMPDEST PUSH1 0x0 PUSH1 0x40 DUP3 ADD SWAP1 POP PUSH2 0x2237 PUSH1 0x0 DUP4 ADD DUP6 PUSH2 0x1D55 JUMP JUMPDEST PUSH2 0x2244 PUSH1 0x20 DUP4 ADD DUP5 PUSH2 0x1D55 JUMP JUMPDEST SWAP4 SWAP3 POP POP POP JUMP JUMPDEST PUSH32 0x416C6C6F77616E636520746F6F206C6F77000000000000000000000000000000 PUSH1 0x0 DUP3 ADD MSTORE POP JUMP JUMPDEST PUSH1 0x0 PUSH2 0x2281 PUSH1 0x11 DUP4 PUSH2 0x1A91 JUMP JUMPDEST SWAP2 POP PUSH2 0x228C DUP3 PUSH2 0x224B JUMP JUMPDEST PUSH1 0x20 DUP3 ADD SWAP1 POP SWAP2 SWAP1 POP JUMP JUMPDEST PUSH1 0x0 PUSH1 0x20 DUP3 ADD SWAP1 POP DUP2 DUP2 SUB PUSH1 0x0 DUP4 ADD MSTORE PUSH2 0x22B0 DUP2 PUSH2 0x2274 JUMP JUMPDEST SWAP1 POP SWAP2 SWAP1 POP JUMP JUMPDEST PUSH32 0x4F776E61626C653A206E6577206F776E657220697320746865207A65726F2061 PUSH1 0x0 DUP3 ADD MSTORE PUSH32 0x6464726573730000000000000000000000000000000000000000000000000000 PUSH1 0x20 DUP3 ADD MSTORE POP JUMP JUMPDEST PUSH1 0x0 PUSH2 0x2313 PUSH1 0x26 DUP4 PUSH2 0x1A91 JUMP JUMPDEST SWAP2 POP PUSH2 0x231E DUP3 PUSH2 0x22B7 JUMP JUMPDEST PUSH1 0x40 DUP3 ADD SWAP1 POP SWAP2 SWAP1 POP JUMP JUMPDEST PUSH1 0x0 PUSH1 0x20 DUP3 ADD SWAP1 POP DUP2 DUP2 SUB PUSH1 0x0 DUP4 ADD MSTORE PUSH2 0x2342 DUP2 PUSH2 0x2306 JUMP JUMPDEST SWAP1 POP SWAP2 SWAP1 POP JUMP JUMPDEST PUSH32 0x45524332303A20617070726F76652066726F6D20746865207A65726F20616464 PUSH1 0x0 DUP3 ADD MSTORE PUSH32 0x7265737300000000000000000000000000000000000000000000000000000000 PUSH1 0x20 DUP3 ADD MSTORE POP JUMP JUMPDEST PUSH1 0x0 PUSH2 0x23A5 PUSH1 0x24 DUP4 PUSH2 0x1A91 JUMP JUMPDEST SWAP2 POP PUSH2 0x23B0 DUP3 PUSH2 0x2349 JUMP JUMPDEST PUSH1 0x40 DUP3 ADD SWAP1 POP SWAP2 SWAP1 POP JUMP JUMPDEST PUSH1 0x0 PUSH1 0x20 DUP3 ADD SWAP1 POP DUP2 DUP2 SUB PUSH1 0x0 DUP4 ADD MSTORE PUSH2 0x23D4 DUP2 PUSH2 0x2398 JUMP JUMPDEST SWAP1 POP SWAP2 SWAP1 POP JUMP JUMPDEST PUSH32 0x45524332303A20617070726F766520746F20746865207A65726F206164647265 PUSH1 0x0 DUP3 ADD MSTORE PUSH32 0x7373000000000000000000000000000000000000000000000000000000000000 PUSH1 0x20 DUP3 ADD MSTORE POP JUMP JUMPDEST PUSH1 0x0 PUSH2 0x2437 PUSH1 0x22 DUP4 PUSH2 0x1A91 JUMP JUMPDEST SWAP2 POP PUSH2 0x2442 DUP3 PUSH2 0x23DB JUMP JUMPDEST PUSH1 0x40 DUP3 ADD SWAP1 POP SWAP2 SWAP1 POP JUMP JUMPDEST PUSH1 0x0 PUSH1 0x20 DUP3 ADD SWAP1 POP DUP2 DUP2 SUB PUSH1 0x0 DUP4 ADD MSTORE PUSH2 0x2466 DUP2 PUSH2 0x242A JUMP JUMPDEST SWAP1 POP SWAP2 SWAP1 POP JUMP JUMPDEST PUSH32 0x45524332303A206275726E2066726F6D20746865207A65726F20616464726573 PUSH1 0x0 DUP3 ADD MSTORE PUSH32 0x7300000000000000000000000000000000000000000000000000000000000000 PUSH1 0x20 DUP3 ADD MSTORE POP JUMP JUMPDEST PUSH1 0x0 PUSH2 0x24C9 PUSH1 0x21 DUP4 PUSH2 0x1A91 JUMP JUMPDEST SWAP2 POP PUSH2 0x24D4 DUP3 PUSH2 0x246D JUMP JUMPDEST PUSH1 0x40 DUP3 ADD SWAP1 POP SWAP2 SWAP1 POP JUMP JUMPDEST PUSH1 0x0 PUSH1 0x20 DUP3 ADD SWAP1 POP DUP2 DUP2 SUB PUSH1 0x0 DUP4 ADD MSTORE PUSH2 0x24F8 DUP2 PUSH2 0x24BC JUMP JUMPDEST SWAP1 POP SWAP2 SWAP1 POP JUMP JUMPDEST PUSH32 0x45524332303A206275726E20616D6F756E7420657863656564732062616C616E PUSH1 0x0 DUP3 ADD MSTORE PUSH32 0x6365000000000000000000000000000000000000000000000000000000000000 PUSH1 0x20 DUP3 ADD MSTORE POP JUMP JUMPDEST PUSH1 0x0 PUSH2 0x255B PUSH1 0x22 DUP4 PUSH2 0x1A91 JUMP JUMPDEST SWAP2 POP PUSH2 0x2566 DUP3 PUSH2 0x24FF JUMP JUMPDEST PUSH1 0x40 DUP3 ADD SWAP1 POP SWAP2 SWAP1 POP JUMP JUMPDEST PUSH1 0x0 PUSH1 0x20 DUP3 ADD SWAP1 POP DUP2 DUP2 SUB PUSH1 0x0 DUP4 ADD MSTORE PUSH2 0x258A DUP2 PUSH2 0x254E JUMP JUMPDEST SWAP1 POP SWAP2 SWAP1 POP JUMP JUMPDEST PUSH32 0x45524332303A20696E73756666696369656E7420616C6C6F77616E6365000000 PUSH1 0x0 DUP3 ADD MSTORE POP JUMP JUMPDEST PUSH1 0x0 PUSH2 0x25C7 PUSH1 0x1D DUP4 PUSH2 0x1A91 JUMP JUMPDEST SWAP2 POP PUSH2 0x25D2 DUP3 PUSH2 0x2591 JUMP JUMPDEST PUSH1 0x20 DUP3 ADD SWAP1 POP SWAP2 SWAP1 POP JUMP JUMPDEST PUSH1 0x0 PUSH1 0x20 DUP3 ADD SWAP1 POP DUP2 DUP2 SUB PUSH1 0x0 DUP4 ADD MSTORE PUSH2 0x25F6 DUP2 PUSH2 0x25BA JUMP JUMPDEST SWAP1 POP SWAP2 SWAP1 POP JUMP JUMPDEST PUSH32 0x45524332303A207472616E736665722066726F6D20746865207A65726F206164 PUSH1 0x0 DUP3 ADD MSTORE PUSH32 0x6472657373000000000000000000000000000000000000000000000000000000 PUSH1 0x20 DUP3 ADD MSTORE POP JUMP JUMPDEST PUSH1 0x0 PUSH2 0x2659 PUSH1 0x25 DUP4 PUSH2 0x1A91 JUMP JUMPDEST SWAP2 POP PUSH2 0x2664 DUP3 PUSH2 0x25FD JUMP JUMPDEST PUSH1 0x40 DUP3 ADD SWAP1 POP SWAP2 SWAP1 POP JUMP JUMPDEST PUSH1 0x0 PUSH1 0x20 DUP3 ADD SWAP1 POP DUP2 DUP2 SUB PUSH1 0x0 DUP4 ADD MSTORE PUSH2 0x2688 DUP2 PUSH2 0x264C JUMP JUMPDEST SWAP1 POP SWAP2 SWAP1 POP JUMP JUMPDEST PUSH32 0x45524332303A207472616E7366657220746F20746865207A65726F2061646472 PUSH1 0x0 DUP3 ADD MSTORE PUSH32 0x6573730000000000000000000000000000000000000000000000000000000000 PUSH1 0x20 DUP3 ADD MSTORE POP JUMP JUMPDEST PUSH1 0x0 PUSH2 0x26EB PUSH1 0x23 DUP4 PUSH2 0x1A91 JUMP JUMPDEST SWAP2 POP PUSH2 0x26F6 DUP3 PUSH2 0x268F JUMP JUMPDEST PUSH1 0x40 DUP3 ADD SWAP1 POP SWAP2 SWAP1 POP JUMP JUMPDEST PUSH1 0x0 PUSH1 0x20 DUP3 ADD SWAP1 POP DUP2 DUP2 SUB PUSH1 0x0 DUP4 ADD MSTORE PUSH2 0x271A DUP2 PUSH2 0x26DE JUMP JUMPDEST SWAP1 POP SWAP2 SWAP1 POP JUMP JUMPDEST PUSH32 0x45524332303A207472616E7366657220616D6F756E7420657863656564732062 PUSH1 0x0 DUP3 ADD MSTORE PUSH32 0x616C616E63650000000000000000000000000000000000000000000000000000 PUSH1 0x20 DUP3 ADD MSTORE POP JUMP JUMPDEST PUSH1 0x0 PUSH2 0x277D PUSH1 0x26 DUP4 PUSH2 0x1A91 JUMP JUMPDEST SWAP2 POP PUSH2 0x2788 DUP3 PUSH2 0x2721 JUMP JUMPDEST PUSH1 0x40 DUP3 ADD SWAP1 POP SWAP2 SWAP1 POP JUMP JUMPDEST PUSH1 0x0 PUSH1 0x20 DUP3 ADD SWAP1 POP DUP2 DUP2 SUB PUSH1 0x0 DUP4 ADD MSTORE PUSH2 0x27AC DUP2 PUSH2 0x2770 JUMP JUMPDEST SWAP1 POP SWAP2 SWAP1 POP JUMP JUMPDEST PUSH32 0x4F776E61626C653A2063616C6C6572206973206E6F7420746865206F776E6572 PUSH1 0x0 DUP3 ADD MSTORE POP JUMP JUMPDEST PUSH1 0x0 PUSH2 0x27E9 PUSH1 0x20 DUP4 PUSH2 0x1A91 JUMP JUMPDEST SWAP2 POP PUSH2 0x27F4 DUP3 PUSH2 0x27B3 JUMP JUMPDEST PUSH1 0x20 DUP3 ADD SWAP1 POP SWAP2 SWAP1 POP JUMP JUMPDEST PUSH1 0x0 PUSH1 0x20 DUP3 ADD SWAP1 POP DUP2 DUP2 SUB PUSH1 0x0 DUP4 ADD MSTORE PUSH2 0x2818 DUP2 PUSH2 0x27DC JUMP JUMPDEST SWAP1 POP SWAP2 SWAP1 POP JUMP JUMPDEST PUSH32 0x45524332303A206D696E7420746F20746865207A65726F206164647265737300 PUSH1 0x0 DUP3 ADD MSTORE POP JUMP JUMPDEST PUSH1 0x0 PUSH2 0x2855 PUSH1 0x1F DUP4 PUSH2 0x1A91 JUMP JUMPDEST SWAP2 POP PUSH2 0x2860 DUP3 PUSH2 0x281F JUMP JUMPDEST PUSH1 0x20 DUP3 ADD SWAP1 POP SWAP2 SWAP1 POP JUMP JUMPDEST PUSH1 0x0 PUSH1 0x20 DUP3 ADD SWAP1 POP DUP2 DUP2 SUB PUSH1 0x0 DUP4 ADD MSTORE PUSH2 0x2884 DUP2 PUSH2 0x2848 JUMP JUMPDEST SWAP1 POP SWAP2 SWAP1 POP JUMP JUMPDEST PUSH32 0x5061757361626C653A206E6F7420706175736564000000000000000000000000 PUSH1 0x0 DUP3 ADD MSTORE POP JUMP JUMPDEST PUSH1 0x0 PUSH2 0x28C1 PUSH1 0x14 DUP4 PUSH2 0x1A91 JUMP JUMPDEST SWAP2 POP PUSH2 0x28CC DUP3 PUSH2 0x288B JUMP JUMPDEST PUSH1 0x20 DUP3 ADD SWAP1 POP SWAP2 SWAP1 POP JUMP JUMPDEST PUSH1 0x0 PUSH1 0x20 DUP3 ADD SWAP1 POP DUP2 DUP2 SUB PUSH1 0x0 DUP4 ADD MSTORE PUSH2 0x28F0 DUP2 PUSH2 0x28B4 JUMP JUMPDEST SWAP1 POP SWAP2 SWAP1 POP JUMP JUMPDEST PUSH32 0x5061757361626C653A2070617573656400000000000000000000000000000000 PUSH1 0x0 DUP3 ADD MSTORE POP JUMP JUMPDEST PUSH1 0x0 PUSH2 0x292D PUSH1 0x10 DUP4 PUSH2 0x1A91 JUMP JUMPDEST SWAP2 POP PUSH2 0x2938 DUP3 PUSH2 0x28F7 JUMP JUMPDEST PUSH1 0x20 DUP3 ADD SWAP1 POP SWAP2 SWAP1 POP JUMP JUMPDEST PUSH1 0x0 PUSH1 0x20 DUP3 ADD SWAP1 POP DUP2 DUP2 SUB PUSH1 0x0 DUP4 ADD MSTORE PUSH2 0x295C DUP2 PUSH2 0x2920 JUMP JUMPDEST SWAP1 POP SWAP2 SWAP1 POP JUMP INVALID LOG2 PUSH5 0x6970667358 0x22 SLT KECCAK256 LOG4 SUB 0x4F SWAP8 0xF 0xB0 MUL 0xE6 0xB1 0xA7 PUSH19 0x37EBC2DDC7CD14F4DFF9767CBD2950485F845F 0xAE RETURNDATACOPY PUSH5 0x736F6C6343 STOP ADDMOD SLT STOP CALLER "
				},
				"gasEstimates": {
					"creation": {
						"codeDepositCost": "2129800",
						"executionCost": "infinite",
						"totalCost": "infinite"
					},
					"external": {
						"allowance(address,address)": "infinite",
						"approve(address,uint256)": "infinite",
						"balanceOf(address)": "2864",
						"burn(uint256)": "infinite",
						"burnFrom(address,uint256)": "infinite",
						"decimals()": "358",
						"decreaseAllowance(address,uint256)": "infinite",
						"increaseAllowance(address,uint256)": "infinite",
						"issue(uint256)": "infinite",
						"name()": "infinite",
						"owner()": "2683",
						"pause()": "infinite",
						"paused()": "2590",
						"redem(uint256)": "infinite",
						"renounceOwnership()": "30593",
						"symbol()": "infinite",
						"totalSupply()": "2527",
						"transfer(address,uint256)": "infinite",
						"transferFrom(address,address,uint256)": "infinite",
						"transferOwnership(address)": "31026",
						"unpause()": "infinite"
					},
					"internal": {
						"_beforeTokenTransfer(address,address,uint256)": "infinite"
					}
				},
				"methodIdentifiers": {
					"allowance(address,address)": "dd62ed3e",
					"approve(address,uint256)": "095ea7b3",
					"balanceOf(address)": "70a08231",
					"burn(uint256)": "42966c68",
					"burnFrom(address,uint256)": "79cc6790",
					"decimals()": "313ce567",
					"decreaseAllowance(address,uint256)": "a457c2d7",
					"increaseAllowance(address,uint256)": "39509351",
					"issue(uint256)": "cc872b66",
					"name()": "06fdde03",
					"owner()": "8da5cb5b",
					"pause()": "8456cb59",
					"paused()": "5c975abb",
					"redem(uint256)": "14ca579a",
					"renounceOwnership()": "715018a6",
					"symbol()": "95d89b41",
					"totalSupply()": "18160ddd",
					"transfer(address,uint256)": "a9059cbb",
					"transferFrom(address,address,uint256)": "23b872dd",
					"transferOwnership(address)": "f2fde38b",
					"unpause()": "3f4ba83a"
				}
			},
			"storageLayout": {
				"storage": [
					{
						"astId": 236,
						"contract": "contracts/MyBond.sol:MyBond",
						"label": "_balances",
						"offset": 0,
						"slot": "0",
						"type": "t_mapping(t_address,t_uint256)"
					},
					{
						"astId": 242,
						"contract": "contracts/MyBond.sol:MyBond",
						"label": "_allowances",
						"offset": 0,
						"slot": "1",
						"type": "t_mapping(t_address,t_mapping(t_address,t_uint256))"
					},
					{
						"astId": 244,
						"contract": "contracts/MyBond.sol:MyBond",
						"label": "_totalSupply",
						"offset": 0,
						"slot": "2",
						"type": "t_uint256"
					},
					{
						"astId": 246,
						"contract": "contracts/MyBond.sol:MyBond",
						"label": "_name",
						"offset": 0,
						"slot": "3",
						"type": "t_string_storage"
					},
					{
						"astId": 248,
						"contract": "contracts/MyBond.sol:MyBond",
						"label": "_symbol",
						"offset": 0,
						"slot": "4",
						"type": "t_string_storage"
					},
					{
						"astId": 130,
						"contract": "contracts/MyBond.sol:MyBond",
						"label": "_paused",
						"offset": 0,
						"slot": "5",
						"type": "t_bool"
					},
					{
						"astId": 7,
						"contract": "contracts/MyBond.sol:MyBond",
						"label": "_owner",
						"offset": 1,
						"slot": "5",
						"type": "t_address"
					},
					{
						"astId": 1053,
						"contract": "contracts/MyBond.sol:MyBond",
						"label": "rights",
						"offset": 0,
						"slot": "6",
						"type": "t_contract(MembershipRights)1035"
					},
					{
						"astId": 1056,
						"contract": "contracts/MyBond.sol:MyBond",
						"label": "money",
						"offset": 0,
						"slot": "7",
						"type": "t_contract(ERC20)807"
					},
					{
						"astId": 1058,
						"contract": "contracts/MyBond.sol:MyBond",
						"label": "maxSupplay",
						"offset": 0,
						"slot": "8",
						"type": "t_uint256"
					},
					{
						"astId": 1060,
						"contract": "contracts/MyBond.sol:MyBond",
						"label": "multiplier",
						"offset": 0,
						"slot": "9",
						"type": "t_uint256"
					}
				],
				"types": {
					"t_address": {
						"encoding": "inplace",
						"label": "address",
						"numberOfBytes": "20"
					},
					"t_bool": {
						"encoding": "inplace",
						"label": "bool",
						"numberOfBytes": "1"
					},
					"t_contract(ERC20)807": {
						"encoding": "inplace",
						"label": "contract ERC20",
						"numberOfBytes": "20"
					},
					"t_contract(MembershipRights)1035": {
						"encoding": "inplace",
						"label": "contract MembershipRights",
						"numberOfBytes": "20"
					},
					"t_mapping(t_address,t_mapping(t_address,t_uint256))": {
						"encoding": "mapping",
						"key": "t_address",
						"label": "mapping(address => mapping(address => uint256))",
						"numberOfBytes": "32",
						"value": "t_mapping(t_address,t_uint256)"
					},
					"t_mapping(t_address,t_uint256)": {
						"encoding": "mapping",
						"key": "t_address",
						"label": "mapping(address => uint256)",
						"numberOfBytes": "32",
						"value": "t_uint256"
					},
					"t_string_storage": {
						"encoding": "bytes",
						"label": "string",
						"numberOfBytes": "32"
					},
					"t_uint256": {
						"encoding": "inplace",
						"label": "uint256",
						"numberOfBytes": "32"
					}
				}
			},
			"userdoc": {
				"kind": "user",
				"methods": {},
				"version": 1
			}
		}
	}
}