{
	"contracts/EnvironmentConfig.sol": {
		"EnvironmentConfig": {
			"abi": [
				{
					"inputs": [],
					"stateMutability": "nonpayable",
					"type": "constructor"
				},
				{
					"anonymous": false,
					"inputs": [
						{
							"indexed": true,
							"internalType": "address",
							"name": "previousOwner",
							"type": "address"
						},
						{
							"indexed": true,
							"internalType": "address",
							"name": "newOwner",
							"type": "address"
						}
					],
					"name": "OwnershipTransferred",
					"type": "event"
				},
				{
					"inputs": [
						{
							"internalType": "address",
							"name": "usr",
							"type": "address"
						}
					],
					"name": "getRights",
					"outputs": [
						{
							"internalType": "uint48",
							"name": "",
							"type": "uint48"
						}
					],
					"stateMutability": "view",
					"type": "function"
				},
				{
					"inputs": [
						{
							"internalType": "address",
							"name": "usr",
							"type": "address"
						},
						{
							"internalType": "uint48",
							"name": "role",
							"type": "uint48"
						}
					],
					"name": "hasRights",
					"outputs": [
						{
							"internalType": "bool",
							"name": "",
							"type": "bool"
						}
					],
					"stateMutability": "view",
					"type": "function"
				},
				{
					"inputs": [],
					"name": "owner",
					"outputs": [
						{
							"internalType": "address",
							"name": "",
							"type": "address"
						}
					],
					"stateMutability": "view",
					"type": "function"
				},
				{
					"inputs": [],
					"name": "renounceOwnership",
					"outputs": [],
					"stateMutability": "nonpayable",
					"type": "function"
				},
				{
					"inputs": [
						{
							"internalType": "address",
							"name": "usr",
							"type": "address"
						},
						{
							"internalType": "uint48",
							"name": "role",
							"type": "uint48"
						}
					],
					"name": "setMemberRights",
					"outputs": [],
					"stateMutability": "nonpayable",
					"type": "function"
				},
				{
					"inputs": [
						{
							"internalType": "address[]",
							"name": "usr",
							"type": "address[]"
						},
						{
							"internalType": "uint48",
							"name": "role",
							"type": "uint48"
						}
					],
					"name": "setMembersRights",
					"outputs": [],
					"stateMutability": "nonpayable",
					"type": "function"
				},
				{
					"inputs": [
						{
							"internalType": "address",
							"name": "newOwner",
							"type": "address"
						}
					],
					"name": "transferOwnership",
					"outputs": [],
					"stateMutability": "nonpayable",
					"type": "function"
				},
				{
					"inputs": [
						{
							"internalType": "address",
							"name": "usr",
							"type": "address"
						},
						{
							"internalType": "uint48",
							"name": "role",
							"type": "uint48"
						}
					],
					"name": "updateMemberRights",
					"outputs": [],
					"stateMutability": "nonpayable",
					"type": "function"
				},
				{
					"inputs": [
						{
							"internalType": "address[]",
							"name": "usr",
							"type": "address[]"
						},
						{
							"internalType": "uint48",
							"name": "role",
							"type": "uint48"
						}
					],
					"name": "updateMembersRights",
					"outputs": [],
					"stateMutability": "nonpayable",
					"type": "function"
				}
			],
			"devdoc": {
				"kind": "dev",
				"methods": {
					"owner()": {
						"details": "Returns the address of the current owner."
					},
					"renounceOwnership()": {
						"details": "Leaves the contract without owner. It will not be possible to call `onlyOwner` functions anymore. Can only be called by the current owner. NOTE: Renouncing ownership will leave the contract without an owner, thereby removing any functionality that is only available to the owner."
					},
					"transferOwnership(address)": {
						"details": "Transfers ownership of the contract to a new account (`newOwner`). Can only be called by the current owner."
					}
				},
				"version": 1
			},
			"evm": {
				"assembly": "    /* \"contracts/EnvironmentConfig.sol\":321:1534  contract EnvironmentConfig is Ownable {... */\n  mstore(0x40, 0x80)\n    /* \"contracts/EnvironmentConfig.sol\":588:654  constructor() {... */\n  callvalue\n  dup1\n  iszero\n  tag_1\n  jumpi\n  0x00\n  dup1\n  revert\ntag_1:\n  pop\n    /* \"@openzeppelin/contracts/access/Ownable.sol\":936:968  _transferOwnership(_msgSender()) */\n  tag_5\n    /* \"@openzeppelin/contracts/access/Ownable.sol\":955:967  _msgSender() */\n  tag_6\n    /* \"@openzeppelin/contracts/access/Ownable.sol\":955:965  _msgSender */\n  shl(0x20, tag_7)\n    /* \"@openzeppelin/contracts/access/Ownable.sol\":955:967  _msgSender() */\n  0x20\n  shr\n  jump\t// in\ntag_6:\n    /* \"@openzeppelin/contracts/access/Ownable.sol\":936:954  _transferOwnership */\n  shl(0x20, tag_8)\n    /* \"@openzeppelin/contracts/access/Ownable.sol\":936:968  _transferOwnership(_msgSender()) */\n  0x20\n  shr\n  jump\t// in\ntag_5:\n    /* \"contracts/EnvironmentConfig.sol\":271:275  0x04 */\n  0x04\n    /* \"contracts/EnvironmentConfig.sol\":613:621  _members */\n  0x01\n    /* \"contracts/EnvironmentConfig.sol\":613:633  _members[msg.sender] */\n  0x00\n    /* \"contracts/EnvironmentConfig.sol\":622:632  msg.sender */\n  caller\n    /* \"contracts/EnvironmentConfig.sol\":613:633  _members[msg.sender] */\n  0xffffffffffffffffffffffffffffffffffffffff\n  and\n  0xffffffffffffffffffffffffffffffffffffffff\n  and\n  dup2\n  mstore\n  0x20\n  add\n  swap1\n  dup2\n  mstore\n  0x20\n  add\n  0x00\n  keccak256\n  0x00\n    /* \"contracts/EnvironmentConfig.sol\":613:646  _members[msg.sender] = LIST_ADMIN */\n  0x0100\n  exp\n  dup2\n  sload\n  dup2\n  0xffffffffffff\n  mul\n  not\n  and\n  swap1\n  dup4\n  0xffffffffffff\n  and\n  mul\n  or\n  swap1\n  sstore\n  pop\n    /* \"contracts/EnvironmentConfig.sol\":321:1534  contract EnvironmentConfig is Ownable {... */\n  jump(tag_10)\n    /* \"@openzeppelin/contracts/utils/Context.sol\":640:736  function _msgSender() internal view virtual returns (address) {... */\ntag_7:\n    /* \"@openzeppelin/contracts/utils/Context.sol\":693:700  address */\n  0x00\n    /* \"@openzeppelin/contracts/utils/Context.sol\":719:729  msg.sender */\n  caller\n    /* \"@openzeppelin/contracts/utils/Context.sol\":712:729  return msg.sender */\n  swap1\n  pop\n    /* \"@openzeppelin/contracts/utils/Context.sol\":640:736  function _msgSender() internal view virtual returns (address) {... */\n  swap1\n  jump\t// out\n    /* \"@openzeppelin/contracts/access/Ownable.sol\":2433:2620  function _transferOwnership(address newOwner) internal virtual {... */\ntag_8:\n    /* \"@openzeppelin/contracts/access/Ownable.sol\":2506:2522  address oldOwner */\n  0x00\n    /* \"@openzeppelin/contracts/access/Ownable.sol\":2525:2531  _owner */\n  dup1\n  0x00\n  swap1\n  sload\n  swap1\n  0x0100\n  exp\n  swap1\n  div\n  0xffffffffffffffffffffffffffffffffffffffff\n  and\n    /* \"@openzeppelin/contracts/access/Ownable.sol\":2506:2531  address oldOwner = _owner */\n  swap1\n  pop\n    /* \"@openzeppelin/contracts/access/Ownable.sol\":2550:2558  newOwner */\n  dup2\n    /* \"@openzeppelin/contracts/access/Ownable.sol\":2541:2547  _owner */\n  0x00\n  dup1\n    /* \"@openzeppelin/contracts/access/Ownable.sol\":2541:2558  _owner = newOwner */\n  0x0100\n  exp\n  dup2\n  sload\n  dup2\n  0xffffffffffffffffffffffffffffffffffffffff\n  mul\n  not\n  and\n  swap1\n  dup4\n  0xffffffffffffffffffffffffffffffffffffffff\n  and\n  mul\n  or\n  swap1\n  sstore\n  pop\n    /* \"@openzeppelin/contracts/access/Ownable.sol\":2604:2612  newOwner */\n  dup2\n    /* \"@openzeppelin/contracts/access/Ownable.sol\":2573:2613  OwnershipTransferred(oldOwner, newOwner) */\n  0xffffffffffffffffffffffffffffffffffffffff\n  and\n    /* \"@openzeppelin/contracts/access/Ownable.sol\":2594:2602  oldOwner */\n  dup2\n    /* \"@openzeppelin/contracts/access/Ownable.sol\":2573:2613  OwnershipTransferred(oldOwner, newOwner) */\n  0xffffffffffffffffffffffffffffffffffffffff\n  and\n  0x8be0079c531659141344cd1fd0a4f28419497f9722a3daafe3b4186f6b6457e0\n  mload(0x40)\n  mload(0x40)\n  dup1\n  swap2\n  sub\n  swap1\n  log3\n    /* \"@openzeppelin/contracts/access/Ownable.sol\":2496:2620  {... */\n  pop\n    /* \"@openzeppelin/contracts/access/Ownable.sol\":2433:2620  function _transferOwnership(address newOwner) internal virtual {... */\n  pop\n  jump\t// out\n    /* \"contracts/EnvironmentConfig.sol\":321:1534  contract EnvironmentConfig is Ownable {... */\ntag_10:\n  dataSize(sub_0)\n  dup1\n  dataOffset(sub_0)\n  0x00\n  codecopy\n  0x00\n  return\nstop\n\nsub_0: assembly {\n        /* \"contracts/EnvironmentConfig.sol\":321:1534  contract EnvironmentConfig is Ownable {... */\n      mstore(0x40, 0x80)\n      callvalue\n      dup1\n      iszero\n      tag_1\n      jumpi\n      0x00\n      dup1\n      revert\n    tag_1:\n      pop\n      jumpi(tag_2, lt(calldatasize, 0x04))\n      shr(0xe0, calldataload(0x00))\n      dup1\n      0xc76cb0f2\n      gt\n      tag_12\n      jumpi\n      dup1\n      0xc76cb0f2\n      eq\n      tag_7\n      jumpi\n      dup1\n      0xdee2bdd4\n      eq\n      tag_8\n      jumpi\n      dup1\n      0xe79f0e96\n      eq\n      tag_9\n      jumpi\n      dup1\n      0xf2fde38b\n      eq\n      tag_10\n      jumpi\n      dup1\n      0xf35f0f74\n      eq\n      tag_11\n      jumpi\n      jump(tag_2)\n    tag_12:\n      dup1\n      0x5a9452f7\n      eq\n      tag_3\n      jumpi\n      dup1\n      0x715018a6\n      eq\n      tag_4\n      jumpi\n      dup1\n      0x8da5cb5b\n      eq\n      tag_5\n      jumpi\n      dup1\n      0x9c365024\n      eq\n      tag_6\n      jumpi\n    tag_2:\n      0x00\n      dup1\n      revert\n        /* \"contracts/EnvironmentConfig.sol\":974:1087  function updateMemberRights(address usr, uint48 role) public manageable() {... */\n    tag_3:\n      tag_13\n      0x04\n      dup1\n      calldatasize\n      sub\n      dup2\n      add\n      swap1\n      tag_14\n      swap2\n      swap1\n      tag_15\n      jump\t// in\n    tag_14:\n      tag_16\n      jump\t// in\n    tag_13:\n      stop\n        /* \"@openzeppelin/contracts/access/Ownable.sol\":1831:1932  function renounceOwnership() public virtual onlyOwner {... */\n    tag_4:\n      tag_17\n      tag_18\n      jump\t// in\n    tag_17:\n      stop\n        /* \"@openzeppelin/contracts/access/Ownable.sol\":1201:1286  function owner() public view virtual returns (address) {... */\n    tag_5:\n      tag_19\n      tag_20\n      jump\t// in\n    tag_19:\n      mload(0x40)\n      tag_21\n      swap2\n      swap1\n      tag_22\n      jump\t// in\n    tag_21:\n      mload(0x40)\n      dup1\n      swap2\n      sub\n      swap1\n      return\n        /* \"contracts/EnvironmentConfig.sol\":780:964  function setMembersRights(address[] memory usr, uint48 role) public manageable() {... */\n    tag_6:\n      tag_23\n      0x04\n      dup1\n      calldatasize\n      sub\n      dup2\n      add\n      swap1\n      tag_24\n      swap2\n      swap1\n      tag_25\n      jump\t// in\n    tag_24:\n      tag_26\n      jump\t// in\n    tag_23:\n      stop\n        /* \"contracts/EnvironmentConfig.sol\":1097:1285  function updateMembersRights(address[] memory usr, uint48 role) public manageable() {... */\n    tag_7:\n      tag_27\n      0x04\n      dup1\n      calldatasize\n      sub\n      dup2\n      add\n      swap1\n      tag_28\n      swap2\n      swap1\n      tag_25\n      jump\t// in\n    tag_28:\n      tag_29\n      jump\t// in\n    tag_27:\n      stop\n        /* \"contracts/EnvironmentConfig.sol\":660:770  function setMemberRights(address usr, uint48 role) public manageable() {... */\n    tag_8:\n      tag_30\n      0x04\n      dup1\n      calldatasize\n      sub\n      dup2\n      add\n      swap1\n      tag_31\n      swap2\n      swap1\n      tag_15\n      jump\t// in\n    tag_31:\n      tag_32\n      jump\t// in\n    tag_30:\n      stop\n        /* \"contracts/EnvironmentConfig.sol\":1429:1527  function getRights(address usr) public view returns(uint48){... */\n    tag_9:\n      tag_33\n      0x04\n      dup1\n      calldatasize\n      sub\n      dup2\n      add\n      swap1\n      tag_34\n      swap2\n      swap1\n      tag_35\n      jump\t// in\n    tag_34:\n      tag_36\n      jump\t// in\n    tag_33:\n      mload(0x40)\n      tag_37\n      swap2\n      swap1\n      tag_38\n      jump\t// in\n    tag_37:\n      mload(0x40)\n      dup1\n      swap2\n      sub\n      swap1\n      return\n        /* \"@openzeppelin/contracts/access/Ownable.sol\":2081:2279  function transferOwnership(address newOwner) public virtual onlyOwner {... */\n    tag_10:\n      tag_39\n      0x04\n      dup1\n      calldatasize\n      sub\n      dup2\n      add\n      swap1\n      tag_40\n      swap2\n      swap1\n      tag_35\n      jump\t// in\n    tag_40:\n      tag_41\n      jump\t// in\n    tag_39:\n      stop\n        /* \"contracts/EnvironmentConfig.sol\":1295:1419  function hasRights(address usr, uint48 role) public view returns(bool){... */\n    tag_11:\n      tag_42\n      0x04\n      dup1\n      calldatasize\n      sub\n      dup2\n      add\n      swap1\n      tag_43\n      swap2\n      swap1\n      tag_15\n      jump\t// in\n    tag_43:\n      tag_44\n      jump\t// in\n    tag_42:\n      mload(0x40)\n      tag_45\n      swap2\n      swap1\n      tag_46\n      jump\t// in\n    tag_45:\n      mload(0x40)\n      dup1\n      swap2\n      sub\n      swap1\n      return\n        /* \"contracts/EnvironmentConfig.sol\":974:1087  function updateMemberRights(address usr, uint48 role) public manageable() {... */\n    tag_16:\n        /* \"contracts/EnvironmentConfig.sol\":474:481  owner() */\n      tag_48\n        /* \"contracts/EnvironmentConfig.sol\":474:479  owner */\n      tag_20\n        /* \"contracts/EnvironmentConfig.sol\":474:481  owner() */\n      jump\t// in\n    tag_48:\n        /* \"contracts/EnvironmentConfig.sol\":460:481  msg.sender == owner() */\n      0xffffffffffffffffffffffffffffffffffffffff\n      and\n        /* \"contracts/EnvironmentConfig.sol\":460:470  msg.sender */\n      caller\n        /* \"contracts/EnvironmentConfig.sol\":460:481  msg.sender == owner() */\n      0xffffffffffffffffffffffffffffffffffffffff\n      and\n      eq\n        /* \"contracts/EnvironmentConfig.sol\":460:518  msg.sender == owner() || hasRights(msg.sender, LIST_ADMIN) */\n      dup1\n      tag_49\n      jumpi\n      pop\n        /* \"contracts/EnvironmentConfig.sol\":485:518  hasRights(msg.sender, LIST_ADMIN) */\n      tag_50\n        /* \"contracts/EnvironmentConfig.sol\":495:505  msg.sender */\n      caller\n        /* \"contracts/EnvironmentConfig.sol\":271:275  0x04 */\n      0x04\n        /* \"contracts/EnvironmentConfig.sol\":485:494  hasRights */\n      tag_44\n        /* \"contracts/EnvironmentConfig.sol\":485:518  hasRights(msg.sender, LIST_ADMIN) */\n      jump\t// in\n    tag_50:\n        /* \"contracts/EnvironmentConfig.sol\":460:518  msg.sender == owner() || hasRights(msg.sender, LIST_ADMIN) */\n    tag_49:\n        /* \"contracts/EnvironmentConfig.sol\":452:555  require(msg.sender == owner() || hasRights(msg.sender, LIST_ADMIN), \"User isn't a list administrator.\") */\n      tag_51\n      jumpi\n      mload(0x40)\n      0x08c379a000000000000000000000000000000000000000000000000000000000\n      dup2\n      mstore\n      0x04\n      add\n      tag_52\n      swap1\n      tag_53\n      jump\t// in\n    tag_52:\n      mload(0x40)\n      dup1\n      swap2\n      sub\n      swap1\n      revert\n    tag_51:\n        /* \"contracts/EnvironmentConfig.sol\":1075:1079  role */\n      dup1\n        /* \"contracts/EnvironmentConfig.sol\":1059:1067  _members */\n      0x01\n        /* \"contracts/EnvironmentConfig.sol\":1059:1072  _members[usr] */\n      0x00\n        /* \"contracts/EnvironmentConfig.sol\":1068:1071  usr */\n      dup5\n        /* \"contracts/EnvironmentConfig.sol\":1059:1072  _members[usr] */\n      0xffffffffffffffffffffffffffffffffffffffff\n      and\n      0xffffffffffffffffffffffffffffffffffffffff\n      and\n      dup2\n      mstore\n      0x20\n      add\n      swap1\n      dup2\n      mstore\n      0x20\n      add\n      0x00\n      keccak256\n      0x00\n        /* \"contracts/EnvironmentConfig.sol\":1059:1079  _members[usr] = role */\n      0x0100\n      exp\n      dup2\n      sload\n      dup2\n      0xffffffffffff\n      mul\n      not\n      and\n      swap1\n      dup4\n      0xffffffffffff\n      and\n      mul\n      or\n      swap1\n      sstore\n      pop\n        /* \"contracts/EnvironmentConfig.sol\":974:1087  function updateMemberRights(address usr, uint48 role) public manageable() {... */\n      pop\n      pop\n      jump\t// out\n        /* \"@openzeppelin/contracts/access/Ownable.sol\":1831:1932  function renounceOwnership() public virtual onlyOwner {... */\n    tag_18:\n        /* \"@openzeppelin/contracts/access/Ownable.sol\":1094:1107  _checkOwner() */\n      tag_56\n        /* \"@openzeppelin/contracts/access/Ownable.sol\":1094:1105  _checkOwner */\n      tag_57\n        /* \"@openzeppelin/contracts/access/Ownable.sol\":1094:1107  _checkOwner() */\n      jump\t// in\n    tag_56:\n        /* \"@openzeppelin/contracts/access/Ownable.sol\":1895:1925  _transferOwnership(address(0)) */\n      tag_59\n        /* \"@openzeppelin/contracts/access/Ownable.sol\":1922:1923  0 */\n      0x00\n        /* \"@openzeppelin/contracts/access/Ownable.sol\":1895:1913  _transferOwnership */\n      tag_60\n        /* \"@openzeppelin/contracts/access/Ownable.sol\":1895:1925  _transferOwnership(address(0)) */\n      jump\t// in\n    tag_59:\n        /* \"@openzeppelin/contracts/access/Ownable.sol\":1831:1932  function renounceOwnership() public virtual onlyOwner {... */\n      jump\t// out\n        /* \"@openzeppelin/contracts/access/Ownable.sol\":1201:1286  function owner() public view virtual returns (address) {... */\n    tag_20:\n        /* \"@openzeppelin/contracts/access/Ownable.sol\":1247:1254  address */\n      0x00\n        /* \"@openzeppelin/contracts/access/Ownable.sol\":1273:1279  _owner */\n      dup1\n      0x00\n      swap1\n      sload\n      swap1\n      0x0100\n      exp\n      swap1\n      div\n      0xffffffffffffffffffffffffffffffffffffffff\n      and\n        /* \"@openzeppelin/contracts/access/Ownable.sol\":1266:1279  return _owner */\n      swap1\n      pop\n        /* \"@openzeppelin/contracts/access/Ownable.sol\":1201:1286  function owner() public view virtual returns (address) {... */\n      swap1\n      jump\t// out\n        /* \"contracts/EnvironmentConfig.sol\":780:964  function setMembersRights(address[] memory usr, uint48 role) public manageable() {... */\n    tag_26:\n        /* \"contracts/EnvironmentConfig.sol\":474:481  owner() */\n      tag_63\n        /* \"contracts/EnvironmentConfig.sol\":474:479  owner */\n      tag_20\n        /* \"contracts/EnvironmentConfig.sol\":474:481  owner() */\n      jump\t// in\n    tag_63:\n        /* \"contracts/EnvironmentConfig.sol\":460:481  msg.sender == owner() */\n      0xffffffffffffffffffffffffffffffffffffffff\n      and\n        /* \"contracts/EnvironmentConfig.sol\":460:470  msg.sender */\n      caller\n        /* \"contracts/EnvironmentConfig.sol\":460:481  msg.sender == owner() */\n      0xffffffffffffffffffffffffffffffffffffffff\n      and\n      eq\n        /* \"contracts/EnvironmentConfig.sol\":460:518  msg.sender == owner() || hasRights(msg.sender, LIST_ADMIN) */\n      dup1\n      tag_64\n      jumpi\n      pop\n        /* \"contracts/EnvironmentConfig.sol\":485:518  hasRights(msg.sender, LIST_ADMIN) */\n      tag_65\n        /* \"contracts/EnvironmentConfig.sol\":495:505  msg.sender */\n      caller\n        /* \"contracts/EnvironmentConfig.sol\":271:275  0x04 */\n      0x04\n        /* \"contracts/EnvironmentConfig.sol\":485:494  hasRights */\n      tag_44\n        /* \"contracts/EnvironmentConfig.sol\":485:518  hasRights(msg.sender, LIST_ADMIN) */\n      jump\t// in\n    tag_65:\n        /* \"contracts/EnvironmentConfig.sol\":460:518  msg.sender == owner() || hasRights(msg.sender, LIST_ADMIN) */\n    tag_64:\n        /* \"contracts/EnvironmentConfig.sol\":452:555  require(msg.sender == owner() || hasRights(msg.sender, LIST_ADMIN), \"User isn't a list administrator.\") */\n      tag_66\n      jumpi\n      mload(0x40)\n      0x08c379a000000000000000000000000000000000000000000000000000000000\n      dup2\n      mstore\n      0x04\n      add\n      tag_67\n      swap1\n      tag_53\n      jump\t// in\n    tag_67:\n      mload(0x40)\n      dup1\n      swap2\n      sub\n      swap1\n      revert\n    tag_66:\n        /* \"contracts/EnvironmentConfig.sol\":876:882  uint i */\n      0x00\n        /* \"contracts/EnvironmentConfig.sol\":872:957  for(uint i=0; i < usr.length; i++) {... */\n    tag_69:\n        /* \"contracts/EnvironmentConfig.sol\":890:893  usr */\n      dup3\n        /* \"contracts/EnvironmentConfig.sol\":890:900  usr.length */\n      mload\n        /* \"contracts/EnvironmentConfig.sol\":886:887  i */\n      dup2\n        /* \"contracts/EnvironmentConfig.sol\":886:900  i < usr.length */\n      lt\n        /* \"contracts/EnvironmentConfig.sol\":872:957  for(uint i=0; i < usr.length; i++) {... */\n      iszero\n      tag_70\n      jumpi\n        /* \"contracts/EnvironmentConfig.sol\":941:945  role */\n      dup2\n        /* \"contracts/EnvironmentConfig.sol\":922:930  _members */\n      0x01\n        /* \"contracts/EnvironmentConfig.sol\":922:938  _members[usr[i]] */\n      0x00\n        /* \"contracts/EnvironmentConfig.sol\":931:934  usr */\n      dup6\n        /* \"contracts/EnvironmentConfig.sol\":935:936  i */\n      dup5\n        /* \"contracts/EnvironmentConfig.sol\":931:937  usr[i] */\n      dup2\n      mload\n      dup2\n      lt\n      tag_72\n      jumpi\n      tag_73\n      tag_74\n      jump\t// in\n    tag_73:\n    tag_72:\n      0x20\n      mul\n      0x20\n      add\n      add\n      mload\n        /* \"contracts/EnvironmentConfig.sol\":922:938  _members[usr[i]] */\n      0xffffffffffffffffffffffffffffffffffffffff\n      and\n      0xffffffffffffffffffffffffffffffffffffffff\n      and\n      dup2\n      mstore\n      0x20\n      add\n      swap1\n      dup2\n      mstore\n      0x20\n      add\n      0x00\n      keccak256\n      0x00\n        /* \"contracts/EnvironmentConfig.sol\":922:945  _members[usr[i]] = role */\n      0x0100\n      exp\n      dup2\n      sload\n      dup2\n      0xffffffffffff\n      mul\n      not\n      and\n      swap1\n      dup4\n      0xffffffffffff\n      and\n      mul\n      or\n      swap1\n      sstore\n      pop\n        /* \"contracts/EnvironmentConfig.sol\":902:905  i++ */\n      dup1\n      dup1\n      tag_75\n      swap1\n      tag_76\n      jump\t// in\n    tag_75:\n      swap2\n      pop\n      pop\n        /* \"contracts/EnvironmentConfig.sol\":872:957  for(uint i=0; i < usr.length; i++) {... */\n      jump(tag_69)\n    tag_70:\n      pop\n        /* \"contracts/EnvironmentConfig.sol\":780:964  function setMembersRights(address[] memory usr, uint48 role) public manageable() {... */\n      pop\n      pop\n      jump\t// out\n        /* \"contracts/EnvironmentConfig.sol\":1097:1285  function updateMembersRights(address[] memory usr, uint48 role) public manageable() {... */\n    tag_29:\n        /* \"contracts/EnvironmentConfig.sol\":474:481  owner() */\n      tag_78\n        /* \"contracts/EnvironmentConfig.sol\":474:479  owner */\n      tag_20\n        /* \"contracts/EnvironmentConfig.sol\":474:481  owner() */\n      jump\t// in\n    tag_78:\n        /* \"contracts/EnvironmentConfig.sol\":460:481  msg.sender == owner() */\n      0xffffffffffffffffffffffffffffffffffffffff\n      and\n        /* \"contracts/EnvironmentConfig.sol\":460:470  msg.sender */\n      caller\n        /* \"contracts/EnvironmentConfig.sol\":460:481  msg.sender == owner() */\n      0xffffffffffffffffffffffffffffffffffffffff\n      and\n      eq\n        /* \"contracts/EnvironmentConfig.sol\":460:518  msg.sender == owner() || hasRights(msg.sender, LIST_ADMIN) */\n      dup1\n      tag_79\n      jumpi\n      pop\n        /* \"contracts/EnvironmentConfig.sol\":485:518  hasRights(msg.sender, LIST_ADMIN) */\n      tag_80\n        /* \"contracts/EnvironmentConfig.sol\":495:505  msg.sender */\n      caller\n        /* \"contracts/EnvironmentConfig.sol\":271:275  0x04 */\n      0x04\n        /* \"contracts/EnvironmentConfig.sol\":485:494  hasRights */\n      tag_44\n        /* \"contracts/EnvironmentConfig.sol\":485:518  hasRights(msg.sender, LIST_ADMIN) */\n      jump\t// in\n    tag_80:\n        /* \"contracts/EnvironmentConfig.sol\":460:518  msg.sender == owner() || hasRights(msg.sender, LIST_ADMIN) */\n    tag_79:\n        /* \"contracts/EnvironmentConfig.sol\":452:555  require(msg.sender == owner() || hasRights(msg.sender, LIST_ADMIN), \"User isn't a list administrator.\") */\n      tag_81\n      jumpi\n      mload(0x40)\n      0x08c379a000000000000000000000000000000000000000000000000000000000\n      dup2\n      mstore\n      0x04\n      add\n      tag_82\n      swap1\n      tag_53\n      jump\t// in\n    tag_82:\n      mload(0x40)\n      dup1\n      swap2\n      sub\n      swap1\n      revert\n    tag_81:\n        /* \"contracts/EnvironmentConfig.sol\":1196:1202  uint i */\n      0x00\n        /* \"contracts/EnvironmentConfig.sol\":1192:1278  for(uint i=0; i < usr.length; i++) {... */\n    tag_84:\n        /* \"contracts/EnvironmentConfig.sol\":1210:1213  usr */\n      dup3\n        /* \"contracts/EnvironmentConfig.sol\":1210:1220  usr.length */\n      mload\n        /* \"contracts/EnvironmentConfig.sol\":1206:1207  i */\n      dup2\n        /* \"contracts/EnvironmentConfig.sol\":1206:1220  i < usr.length */\n      lt\n        /* \"contracts/EnvironmentConfig.sol\":1192:1278  for(uint i=0; i < usr.length; i++) {... */\n      iszero\n      tag_85\n      jumpi\n        /* \"contracts/EnvironmentConfig.sol\":1262:1266  role */\n      dup2\n        /* \"contracts/EnvironmentConfig.sol\":1242:1250  _members */\n      0x01\n        /* \"contracts/EnvironmentConfig.sol\":1242:1258  _members[usr[i]] */\n      0x00\n        /* \"contracts/EnvironmentConfig.sol\":1251:1254  usr */\n      dup6\n        /* \"contracts/EnvironmentConfig.sol\":1255:1256  i */\n      dup5\n        /* \"contracts/EnvironmentConfig.sol\":1251:1257  usr[i] */\n      dup2\n      mload\n      dup2\n      lt\n      tag_87\n      jumpi\n      tag_88\n      tag_74\n      jump\t// in\n    tag_88:\n    tag_87:\n      0x20\n      mul\n      0x20\n      add\n      add\n      mload\n        /* \"contracts/EnvironmentConfig.sol\":1242:1258  _members[usr[i]] */\n      0xffffffffffffffffffffffffffffffffffffffff\n      and\n      0xffffffffffffffffffffffffffffffffffffffff\n      and\n      dup2\n      mstore\n      0x20\n      add\n      swap1\n      dup2\n      mstore\n      0x20\n      add\n      0x00\n      keccak256\n      0x00\n        /* \"contracts/EnvironmentConfig.sol\":1242:1266  _members[usr[i]] |= role */\n      dup3\n      dup3\n      dup3\n      swap1\n      sload\n      swap1\n      0x0100\n      exp\n      swap1\n      div\n      0xffffffffffff\n      and\n      or\n      swap3\n      pop\n      0x0100\n      exp\n      dup2\n      sload\n      dup2\n      0xffffffffffff\n      mul\n      not\n      and\n      swap1\n      dup4\n      0xffffffffffff\n      and\n      mul\n      or\n      swap1\n      sstore\n      pop\n        /* \"contracts/EnvironmentConfig.sol\":1222:1225  i++ */\n      dup1\n      dup1\n      tag_89\n      swap1\n      tag_76\n      jump\t// in\n    tag_89:\n      swap2\n      pop\n      pop\n        /* \"contracts/EnvironmentConfig.sol\":1192:1278  for(uint i=0; i < usr.length; i++) {... */\n      jump(tag_84)\n    tag_85:\n      pop\n        /* \"contracts/EnvironmentConfig.sol\":1097:1285  function updateMembersRights(address[] memory usr, uint48 role) public manageable() {... */\n      pop\n      pop\n      jump\t// out\n        /* \"contracts/EnvironmentConfig.sol\":660:770  function setMemberRights(address usr, uint48 role) public manageable() {... */\n    tag_32:\n        /* \"contracts/EnvironmentConfig.sol\":474:481  owner() */\n      tag_91\n        /* \"contracts/EnvironmentConfig.sol\":474:479  owner */\n      tag_20\n        /* \"contracts/EnvironmentConfig.sol\":474:481  owner() */\n      jump\t// in\n    tag_91:\n        /* \"contracts/EnvironmentConfig.sol\":460:481  msg.sender == owner() */\n      0xffffffffffffffffffffffffffffffffffffffff\n      and\n        /* \"contracts/EnvironmentConfig.sol\":460:470  msg.sender */\n      caller\n        /* \"contracts/EnvironmentConfig.sol\":460:481  msg.sender == owner() */\n      0xffffffffffffffffffffffffffffffffffffffff\n      and\n      eq\n        /* \"contracts/EnvironmentConfig.sol\":460:518  msg.sender == owner() || hasRights(msg.sender, LIST_ADMIN) */\n      dup1\n      tag_92\n      jumpi\n      pop\n        /* \"contracts/EnvironmentConfig.sol\":485:518  hasRights(msg.sender, LIST_ADMIN) */\n      tag_93\n        /* \"contracts/EnvironmentConfig.sol\":495:505  msg.sender */\n      caller\n        /* \"contracts/EnvironmentConfig.sol\":271:275  0x04 */\n      0x04\n        /* \"contracts/EnvironmentConfig.sol\":485:494  hasRights */\n      tag_44\n        /* \"contracts/EnvironmentConfig.sol\":485:518  hasRights(msg.sender, LIST_ADMIN) */\n      jump\t// in\n    tag_93:\n        /* \"contracts/EnvironmentConfig.sol\":460:518  msg.sender == owner() || hasRights(msg.sender, LIST_ADMIN) */\n    tag_92:\n        /* \"contracts/EnvironmentConfig.sol\":452:555  require(msg.sender == owner() || hasRights(msg.sender, LIST_ADMIN), \"User isn't a list administrator.\") */\n      tag_94\n      jumpi\n      mload(0x40)\n      0x08c379a000000000000000000000000000000000000000000000000000000000\n      dup2\n      mstore\n      0x04\n      add\n      tag_95\n      swap1\n      tag_53\n      jump\t// in\n    tag_95:\n      mload(0x40)\n      dup1\n      swap2\n      sub\n      swap1\n      revert\n    tag_94:\n        /* \"contracts/EnvironmentConfig.sol\":758:762  role */\n      dup1\n        /* \"contracts/EnvironmentConfig.sol\":742:750  _members */\n      0x01\n        /* \"contracts/EnvironmentConfig.sol\":742:755  _members[usr] */\n      0x00\n        /* \"contracts/EnvironmentConfig.sol\":751:754  usr */\n      dup5\n        /* \"contracts/EnvironmentConfig.sol\":742:755  _members[usr] */\n      0xffffffffffffffffffffffffffffffffffffffff\n      and\n      0xffffffffffffffffffffffffffffffffffffffff\n      and\n      dup2\n      mstore\n      0x20\n      add\n      swap1\n      dup2\n      mstore\n      0x20\n      add\n      0x00\n      keccak256\n      0x00\n        /* \"contracts/EnvironmentConfig.sol\":742:762  _members[usr] = role */\n      0x0100\n      exp\n      dup2\n      sload\n      dup2\n      0xffffffffffff\n      mul\n      not\n      and\n      swap1\n      dup4\n      0xffffffffffff\n      and\n      mul\n      or\n      swap1\n      sstore\n      pop\n        /* \"contracts/EnvironmentConfig.sol\":660:770  function setMemberRights(address usr, uint48 role) public manageable() {... */\n      pop\n      pop\n      jump\t// out\n        /* \"contracts/EnvironmentConfig.sol\":1429:1527  function getRights(address usr) public view returns(uint48){... */\n    tag_36:\n        /* \"contracts/EnvironmentConfig.sol\":1481:1487  uint48 */\n      0x00\n        /* \"contracts/EnvironmentConfig.sol\":1506:1514  _members */\n      0x01\n        /* \"contracts/EnvironmentConfig.sol\":1506:1519  _members[usr] */\n      0x00\n        /* \"contracts/EnvironmentConfig.sol\":1515:1518  usr */\n      dup4\n        /* \"contracts/EnvironmentConfig.sol\":1506:1519  _members[usr] */\n      0xffffffffffffffffffffffffffffffffffffffff\n      and\n      0xffffffffffffffffffffffffffffffffffffffff\n      and\n      dup2\n      mstore\n      0x20\n      add\n      swap1\n      dup2\n      mstore\n      0x20\n      add\n      0x00\n      keccak256\n      0x00\n      swap1\n      sload\n      swap1\n      0x0100\n      exp\n      swap1\n      div\n      0xffffffffffff\n      and\n        /* \"contracts/EnvironmentConfig.sol\":1499:1519  return _members[usr] */\n      swap1\n      pop\n        /* \"contracts/EnvironmentConfig.sol\":1429:1527  function getRights(address usr) public view returns(uint48){... */\n      swap2\n      swap1\n      pop\n      jump\t// out\n        /* \"@openzeppelin/contracts/access/Ownable.sol\":2081:2279  function transferOwnership(address newOwner) public virtual onlyOwner {... */\n    tag_41:\n        /* \"@openzeppelin/contracts/access/Ownable.sol\":1094:1107  _checkOwner() */\n      tag_99\n        /* \"@openzeppelin/contracts/access/Ownable.sol\":1094:1105  _checkOwner */\n      tag_57\n        /* \"@openzeppelin/contracts/access/Ownable.sol\":1094:1107  _checkOwner() */\n      jump\t// in\n    tag_99:\n        /* \"@openzeppelin/contracts/access/Ownable.sol\":2189:2190  0 */\n      0x00\n        /* \"@openzeppelin/contracts/access/Ownable.sol\":2169:2191  newOwner != address(0) */\n      0xffffffffffffffffffffffffffffffffffffffff\n      and\n        /* \"@openzeppelin/contracts/access/Ownable.sol\":2169:2177  newOwner */\n      dup2\n        /* \"@openzeppelin/contracts/access/Ownable.sol\":2169:2191  newOwner != address(0) */\n      0xffffffffffffffffffffffffffffffffffffffff\n      and\n      sub\n        /* \"@openzeppelin/contracts/access/Ownable.sol\":2161:2234  require(newOwner != address(0), \"Ownable: new owner is the zero address\") */\n      tag_101\n      jumpi\n      mload(0x40)\n      0x08c379a000000000000000000000000000000000000000000000000000000000\n      dup2\n      mstore\n      0x04\n      add\n      tag_102\n      swap1\n      tag_103\n      jump\t// in\n    tag_102:\n      mload(0x40)\n      dup1\n      swap2\n      sub\n      swap1\n      revert\n    tag_101:\n        /* \"@openzeppelin/contracts/access/Ownable.sol\":2244:2272  _transferOwnership(newOwner) */\n      tag_104\n        /* \"@openzeppelin/contracts/access/Ownable.sol\":2263:2271  newOwner */\n      dup2\n        /* \"@openzeppelin/contracts/access/Ownable.sol\":2244:2262  _transferOwnership */\n      tag_60\n        /* \"@openzeppelin/contracts/access/Ownable.sol\":2244:2272  _transferOwnership(newOwner) */\n      jump\t// in\n    tag_104:\n        /* \"@openzeppelin/contracts/access/Ownable.sol\":2081:2279  function transferOwnership(address newOwner) public virtual onlyOwner {... */\n      pop\n      jump\t// out\n        /* \"contracts/EnvironmentConfig.sol\":1295:1419  function hasRights(address usr, uint48 role) public view returns(bool){... */\n    tag_44:\n        /* \"contracts/EnvironmentConfig.sol\":1360:1364  bool */\n      0x00\n        /* \"contracts/EnvironmentConfig.sol\":1407:1411  role */\n      dup2\n        /* \"contracts/EnvironmentConfig.sol\":1383:1411  _members[usr] & role == role */\n      0xffffffffffff\n      and\n        /* \"contracts/EnvironmentConfig.sol\":1399:1403  role */\n      dup3\n        /* \"contracts/EnvironmentConfig.sol\":1383:1391  _members */\n      0x01\n        /* \"contracts/EnvironmentConfig.sol\":1383:1396  _members[usr] */\n      0x00\n        /* \"contracts/EnvironmentConfig.sol\":1392:1395  usr */\n      dup7\n        /* \"contracts/EnvironmentConfig.sol\":1383:1396  _members[usr] */\n      0xffffffffffffffffffffffffffffffffffffffff\n      and\n      0xffffffffffffffffffffffffffffffffffffffff\n      and\n      dup2\n      mstore\n      0x20\n      add\n      swap1\n      dup2\n      mstore\n      0x20\n      add\n      0x00\n      keccak256\n      0x00\n      swap1\n      sload\n      swap1\n      0x0100\n      exp\n      swap1\n      div\n      0xffffffffffff\n      and\n        /* \"contracts/EnvironmentConfig.sol\":1383:1403  _members[usr] & role */\n      and\n        /* \"contracts/EnvironmentConfig.sol\":1383:1411  _members[usr] & role == role */\n      0xffffffffffff\n      and\n      eq\n        /* \"contracts/EnvironmentConfig.sol\":1376:1411  return _members[usr] & role == role */\n      swap1\n      pop\n        /* \"contracts/EnvironmentConfig.sol\":1295:1419  function hasRights(address usr, uint48 role) public view returns(bool){... */\n      swap3\n      swap2\n      pop\n      pop\n      jump\t// out\n        /* \"@openzeppelin/contracts/access/Ownable.sol\":1359:1489  function _checkOwner() internal view virtual {... */\n    tag_57:\n        /* \"@openzeppelin/contracts/access/Ownable.sol\":1433:1445  _msgSender() */\n      tag_107\n        /* \"@openzeppelin/contracts/access/Ownable.sol\":1433:1443  _msgSender */\n      tag_108\n        /* \"@openzeppelin/contracts/access/Ownable.sol\":1433:1445  _msgSender() */\n      jump\t// in\n    tag_107:\n        /* \"@openzeppelin/contracts/access/Ownable.sol\":1422:1445  owner() == _msgSender() */\n      0xffffffffffffffffffffffffffffffffffffffff\n      and\n        /* \"@openzeppelin/contracts/access/Ownable.sol\":1422:1429  owner() */\n      tag_109\n        /* \"@openzeppelin/contracts/access/Ownable.sol\":1422:1427  owner */\n      tag_20\n        /* \"@openzeppelin/contracts/access/Ownable.sol\":1422:1429  owner() */\n      jump\t// in\n    tag_109:\n        /* \"@openzeppelin/contracts/access/Ownable.sol\":1422:1445  owner() == _msgSender() */\n      0xffffffffffffffffffffffffffffffffffffffff\n      and\n      eq\n        /* \"@openzeppelin/contracts/access/Ownable.sol\":1414:1482  require(owner() == _msgSender(), \"Ownable: caller is not the owner\") */\n      tag_110\n      jumpi\n      mload(0x40)\n      0x08c379a000000000000000000000000000000000000000000000000000000000\n      dup2\n      mstore\n      0x04\n      add\n      tag_111\n      swap1\n      tag_112\n      jump\t// in\n    tag_111:\n      mload(0x40)\n      dup1\n      swap2\n      sub\n      swap1\n      revert\n    tag_110:\n        /* \"@openzeppelin/contracts/access/Ownable.sol\":1359:1489  function _checkOwner() internal view virtual {... */\n      jump\t// out\n        /* \"@openzeppelin/contracts/access/Ownable.sol\":2433:2620  function _transferOwnership(address newOwner) internal virtual {... */\n    tag_60:\n        /* \"@openzeppelin/contracts/access/Ownable.sol\":2506:2522  address oldOwner */\n      0x00\n        /* \"@openzeppelin/contracts/access/Ownable.sol\":2525:2531  _owner */\n      dup1\n      0x00\n      swap1\n      sload\n      swap1\n      0x0100\n      exp\n      swap1\n      div\n      0xffffffffffffffffffffffffffffffffffffffff\n      and\n        /* \"@openzeppelin/contracts/access/Ownable.sol\":2506:2531  address oldOwner = _owner */\n      swap1\n      pop\n        /* \"@openzeppelin/contracts/access/Ownable.sol\":2550:2558  newOwner */\n      dup2\n        /* \"@openzeppelin/contracts/access/Ownable.sol\":2541:2547  _owner */\n      0x00\n      dup1\n        /* \"@openzeppelin/contracts/access/Ownable.sol\":2541:2558  _owner = newOwner */\n      0x0100\n      exp\n      dup2\n      sload\n      dup2\n      0xffffffffffffffffffffffffffffffffffffffff\n      mul\n      not\n      and\n      swap1\n      dup4\n      0xffffffffffffffffffffffffffffffffffffffff\n      and\n      mul\n      or\n      swap1\n      sstore\n      pop\n        /* \"@openzeppelin/contracts/access/Ownable.sol\":2604:2612  newOwner */\n      dup2\n        /* \"@openzeppelin/contracts/access/Ownable.sol\":2573:2613  OwnershipTransferred(oldOwner, newOwner) */\n      0xffffffffffffffffffffffffffffffffffffffff\n      and\n        /* \"@openzeppelin/contracts/access/Ownable.sol\":2594:2602  oldOwner */\n      dup2\n        /* \"@openzeppelin/contracts/access/Ownable.sol\":2573:2613  OwnershipTransferred(oldOwner, newOwner) */\n      0xffffffffffffffffffffffffffffffffffffffff\n      and\n      0x8be0079c531659141344cd1fd0a4f28419497f9722a3daafe3b4186f6b6457e0\n      mload(0x40)\n      mload(0x40)\n      dup1\n      swap2\n      sub\n      swap1\n      log3\n        /* \"@openzeppelin/contracts/access/Ownable.sol\":2496:2620  {... */\n      pop\n        /* \"@openzeppelin/contracts/access/Ownable.sol\":2433:2620  function _transferOwnership(address newOwner) internal virtual {... */\n      pop\n      jump\t// out\n        /* \"@openzeppelin/contracts/utils/Context.sol\":640:736  function _msgSender() internal view virtual returns (address) {... */\n    tag_108:\n        /* \"@openzeppelin/contracts/utils/Context.sol\":693:700  address */\n      0x00\n        /* \"@openzeppelin/contracts/utils/Context.sol\":719:729  msg.sender */\n      caller\n        /* \"@openzeppelin/contracts/utils/Context.sol\":712:729  return msg.sender */\n      swap1\n      pop\n        /* \"@openzeppelin/contracts/utils/Context.sol\":640:736  function _msgSender() internal view virtual returns (address) {... */\n      swap1\n      jump\t// out\n        /* \"#utility.yul\":7:82   */\n    tag_115:\n        /* \"#utility.yul\":40:46   */\n      0x00\n        /* \"#utility.yul\":73:75   */\n      0x40\n        /* \"#utility.yul\":67:76   */\n      mload\n        /* \"#utility.yul\":57:76   */\n      swap1\n      pop\n        /* \"#utility.yul\":7:82   */\n      swap1\n      jump\t// out\n        /* \"#utility.yul\":88:205   */\n    tag_116:\n        /* \"#utility.yul\":197:198   */\n      0x00\n        /* \"#utility.yul\":194:195   */\n      dup1\n        /* \"#utility.yul\":187:199   */\n      revert\n        /* \"#utility.yul\":211:328   */\n    tag_117:\n        /* \"#utility.yul\":320:321   */\n      0x00\n        /* \"#utility.yul\":317:318   */\n      dup1\n        /* \"#utility.yul\":310:322   */\n      revert\n        /* \"#utility.yul\":334:460   */\n    tag_118:\n        /* \"#utility.yul\":371:378   */\n      0x00\n        /* \"#utility.yul\":411:453   */\n      0xffffffffffffffffffffffffffffffffffffffff\n        /* \"#utility.yul\":404:409   */\n      dup3\n        /* \"#utility.yul\":400:454   */\n      and\n        /* \"#utility.yul\":389:454   */\n      swap1\n      pop\n        /* \"#utility.yul\":334:460   */\n      swap2\n      swap1\n      pop\n      jump\t// out\n        /* \"#utility.yul\":466:562   */\n    tag_119:\n        /* \"#utility.yul\":503:510   */\n      0x00\n        /* \"#utility.yul\":532:556   */\n      tag_153\n        /* \"#utility.yul\":550:555   */\n      dup3\n        /* \"#utility.yul\":532:556   */\n      tag_118\n      jump\t// in\n    tag_153:\n        /* \"#utility.yul\":521:556   */\n      swap1\n      pop\n        /* \"#utility.yul\":466:562   */\n      swap2\n      swap1\n      pop\n      jump\t// out\n        /* \"#utility.yul\":568:690   */\n    tag_120:\n        /* \"#utility.yul\":641:665   */\n      tag_155\n        /* \"#utility.yul\":659:664   */\n      dup2\n        /* \"#utility.yul\":641:665   */\n      tag_119\n      jump\t// in\n    tag_155:\n        /* \"#utility.yul\":634:639   */\n      dup2\n        /* \"#utility.yul\":631:666   */\n      eq\n        /* \"#utility.yul\":621:684   */\n      tag_156\n      jumpi\n        /* \"#utility.yul\":680:681   */\n      0x00\n        /* \"#utility.yul\":677:678   */\n      dup1\n        /* \"#utility.yul\":670:682   */\n      revert\n        /* \"#utility.yul\":621:684   */\n    tag_156:\n        /* \"#utility.yul\":568:690   */\n      pop\n      jump\t// out\n        /* \"#utility.yul\":696:835   */\n    tag_121:\n        /* \"#utility.yul\":742:747   */\n      0x00\n        /* \"#utility.yul\":780:786   */\n      dup2\n        /* \"#utility.yul\":767:787   */\n      calldataload\n        /* \"#utility.yul\":758:787   */\n      swap1\n      pop\n        /* \"#utility.yul\":796:829   */\n      tag_158\n        /* \"#utility.yul\":823:828   */\n      dup2\n        /* \"#utility.yul\":796:829   */\n      tag_120\n      jump\t// in\n    tag_158:\n        /* \"#utility.yul\":696:835   */\n      swap3\n      swap2\n      pop\n      pop\n      jump\t// out\n        /* \"#utility.yul\":841:938   */\n    tag_122:\n        /* \"#utility.yul\":877:884   */\n      0x00\n        /* \"#utility.yul\":917:931   */\n      0xffffffffffff\n        /* \"#utility.yul\":910:915   */\n      dup3\n        /* \"#utility.yul\":906:932   */\n      and\n        /* \"#utility.yul\":895:932   */\n      swap1\n      pop\n        /* \"#utility.yul\":841:938   */\n      swap2\n      swap1\n      pop\n      jump\t// out\n        /* \"#utility.yul\":944:1064   */\n    tag_123:\n        /* \"#utility.yul\":1016:1039   */\n      tag_161\n        /* \"#utility.yul\":1033:1038   */\n      dup2\n        /* \"#utility.yul\":1016:1039   */\n      tag_122\n      jump\t// in\n    tag_161:\n        /* \"#utility.yul\":1009:1014   */\n      dup2\n        /* \"#utility.yul\":1006:1040   */\n      eq\n        /* \"#utility.yul\":996:1058   */\n      tag_162\n      jumpi\n        /* \"#utility.yul\":1054:1055   */\n      0x00\n        /* \"#utility.yul\":1051:1052   */\n      dup1\n        /* \"#utility.yul\":1044:1056   */\n      revert\n        /* \"#utility.yul\":996:1058   */\n    tag_162:\n        /* \"#utility.yul\":944:1064   */\n      pop\n      jump\t// out\n        /* \"#utility.yul\":1070:1207   */\n    tag_124:\n        /* \"#utility.yul\":1115:1120   */\n      0x00\n        /* \"#utility.yul\":1153:1159   */\n      dup2\n        /* \"#utility.yul\":1140:1160   */\n      calldataload\n        /* \"#utility.yul\":1131:1160   */\n      swap1\n      pop\n        /* \"#utility.yul\":1169:1201   */\n      tag_164\n        /* \"#utility.yul\":1195:1200   */\n      dup2\n        /* \"#utility.yul\":1169:1201   */\n      tag_123\n      jump\t// in\n    tag_164:\n        /* \"#utility.yul\":1070:1207   */\n      swap3\n      swap2\n      pop\n      pop\n      jump\t// out\n        /* \"#utility.yul\":1213:1685   */\n    tag_15:\n        /* \"#utility.yul\":1280:1286   */\n      0x00\n        /* \"#utility.yul\":1288:1294   */\n      dup1\n        /* \"#utility.yul\":1337:1339   */\n      0x40\n        /* \"#utility.yul\":1325:1334   */\n      dup4\n        /* \"#utility.yul\":1316:1323   */\n      dup6\n        /* \"#utility.yul\":1312:1335   */\n      sub\n        /* \"#utility.yul\":1308:1340   */\n      slt\n        /* \"#utility.yul\":1305:1424   */\n      iszero\n      tag_166\n      jumpi\n        /* \"#utility.yul\":1343:1422   */\n      tag_167\n      tag_116\n      jump\t// in\n    tag_167:\n        /* \"#utility.yul\":1305:1424   */\n    tag_166:\n        /* \"#utility.yul\":1463:1464   */\n      0x00\n        /* \"#utility.yul\":1488:1541   */\n      tag_168\n        /* \"#utility.yul\":1533:1540   */\n      dup6\n        /* \"#utility.yul\":1524:1530   */\n      dup3\n        /* \"#utility.yul\":1513:1522   */\n      dup7\n        /* \"#utility.yul\":1509:1531   */\n      add\n        /* \"#utility.yul\":1488:1541   */\n      tag_121\n      jump\t// in\n    tag_168:\n        /* \"#utility.yul\":1478:1541   */\n      swap3\n      pop\n        /* \"#utility.yul\":1434:1551   */\n      pop\n        /* \"#utility.yul\":1590:1592   */\n      0x20\n        /* \"#utility.yul\":1616:1668   */\n      tag_169\n        /* \"#utility.yul\":1660:1667   */\n      dup6\n        /* \"#utility.yul\":1651:1657   */\n      dup3\n        /* \"#utility.yul\":1640:1649   */\n      dup7\n        /* \"#utility.yul\":1636:1658   */\n      add\n        /* \"#utility.yul\":1616:1668   */\n      tag_124\n      jump\t// in\n    tag_169:\n        /* \"#utility.yul\":1606:1668   */\n      swap2\n      pop\n        /* \"#utility.yul\":1561:1678   */\n      pop\n        /* \"#utility.yul\":1213:1685   */\n      swap3\n      pop\n      swap3\n      swap1\n      pop\n      jump\t// out\n        /* \"#utility.yul\":1691:1809   */\n    tag_125:\n        /* \"#utility.yul\":1778:1802   */\n      tag_171\n        /* \"#utility.yul\":1796:1801   */\n      dup2\n        /* \"#utility.yul\":1778:1802   */\n      tag_119\n      jump\t// in\n    tag_171:\n        /* \"#utility.yul\":1773:1776   */\n      dup3\n        /* \"#utility.yul\":1766:1803   */\n      mstore\n        /* \"#utility.yul\":1691:1809   */\n      pop\n      pop\n      jump\t// out\n        /* \"#utility.yul\":1815:2037   */\n    tag_22:\n        /* \"#utility.yul\":1908:1912   */\n      0x00\n        /* \"#utility.yul\":1946:1948   */\n      0x20\n        /* \"#utility.yul\":1935:1944   */\n      dup3\n        /* \"#utility.yul\":1931:1949   */\n      add\n        /* \"#utility.yul\":1923:1949   */\n      swap1\n      pop\n        /* \"#utility.yul\":1959:2030   */\n      tag_173\n        /* \"#utility.yul\":2027:2028   */\n      0x00\n        /* \"#utility.yul\":2016:2025   */\n      dup4\n        /* \"#utility.yul\":2012:2029   */\n      add\n        /* \"#utility.yul\":2003:2009   */\n      dup5\n        /* \"#utility.yul\":1959:2030   */\n      tag_125\n      jump\t// in\n    tag_173:\n        /* \"#utility.yul\":1815:2037   */\n      swap3\n      swap2\n      pop\n      pop\n      jump\t// out\n        /* \"#utility.yul\":2043:2160   */\n    tag_126:\n        /* \"#utility.yul\":2152:2153   */\n      0x00\n        /* \"#utility.yul\":2149:2150   */\n      dup1\n        /* \"#utility.yul\":2142:2154   */\n      revert\n        /* \"#utility.yul\":2166:2268   */\n    tag_127:\n        /* \"#utility.yul\":2207:2213   */\n      0x00\n        /* \"#utility.yul\":2258:2260   */\n      0x1f\n        /* \"#utility.yul\":2254:2261   */\n      not\n        /* \"#utility.yul\":2249:2251   */\n      0x1f\n        /* \"#utility.yul\":2242:2247   */\n      dup4\n        /* \"#utility.yul\":2238:2252   */\n      add\n        /* \"#utility.yul\":2234:2262   */\n      and\n        /* \"#utility.yul\":2224:2262   */\n      swap1\n      pop\n        /* \"#utility.yul\":2166:2268   */\n      swap2\n      swap1\n      pop\n      jump\t// out\n        /* \"#utility.yul\":2274:2454   */\n    tag_128:\n        /* \"#utility.yul\":2322:2399   */\n      0x4e487b7100000000000000000000000000000000000000000000000000000000\n        /* \"#utility.yul\":2319:2320   */\n      0x00\n        /* \"#utility.yul\":2312:2400   */\n      mstore\n        /* \"#utility.yul\":2419:2423   */\n      0x41\n        /* \"#utility.yul\":2416:2417   */\n      0x04\n        /* \"#utility.yul\":2409:2424   */\n      mstore\n        /* \"#utility.yul\":2443:2447   */\n      0x24\n        /* \"#utility.yul\":2440:2441   */\n      0x00\n        /* \"#utility.yul\":2433:2448   */\n      revert\n        /* \"#utility.yul\":2460:2741   */\n    tag_129:\n        /* \"#utility.yul\":2543:2570   */\n      tag_178\n        /* \"#utility.yul\":2565:2569   */\n      dup3\n        /* \"#utility.yul\":2543:2570   */\n      tag_127\n      jump\t// in\n    tag_178:\n        /* \"#utility.yul\":2535:2541   */\n      dup2\n        /* \"#utility.yul\":2531:2571   */\n      add\n        /* \"#utility.yul\":2673:2679   */\n      dup2\n        /* \"#utility.yul\":2661:2671   */\n      dup2\n        /* \"#utility.yul\":2658:2680   */\n      lt\n        /* \"#utility.yul\":2637:2655   */\n      0xffffffffffffffff\n        /* \"#utility.yul\":2625:2635   */\n      dup3\n        /* \"#utility.yul\":2622:2656   */\n      gt\n        /* \"#utility.yul\":2619:2681   */\n      or\n        /* \"#utility.yul\":2616:2704   */\n      iszero\n      tag_179\n      jumpi\n        /* \"#utility.yul\":2684:2702   */\n      tag_180\n      tag_128\n      jump\t// in\n    tag_180:\n        /* \"#utility.yul\":2616:2704   */\n    tag_179:\n        /* \"#utility.yul\":2724:2734   */\n      dup1\n        /* \"#utility.yul\":2720:2722   */\n      0x40\n        /* \"#utility.yul\":2713:2735   */\n      mstore\n        /* \"#utility.yul\":2503:2741   */\n      pop\n        /* \"#utility.yul\":2460:2741   */\n      pop\n      pop\n      jump\t// out\n        /* \"#utility.yul\":2747:2876   */\n    tag_130:\n        /* \"#utility.yul\":2781:2787   */\n      0x00\n        /* \"#utility.yul\":2808:2828   */\n      tag_182\n      tag_115\n      jump\t// in\n    tag_182:\n        /* \"#utility.yul\":2798:2828   */\n      swap1\n      pop\n        /* \"#utility.yul\":2837:2870   */\n      tag_183\n        /* \"#utility.yul\":2865:2869   */\n      dup3\n        /* \"#utility.yul\":2857:2863   */\n      dup3\n        /* \"#utility.yul\":2837:2870   */\n      tag_129\n      jump\t// in\n    tag_183:\n        /* \"#utility.yul\":2747:2876   */\n      swap2\n      swap1\n      pop\n      jump\t// out\n        /* \"#utility.yul\":2882:3193   */\n    tag_131:\n        /* \"#utility.yul\":2959:2963   */\n      0x00\n        /* \"#utility.yul\":3049:3067   */\n      0xffffffffffffffff\n        /* \"#utility.yul\":3041:3047   */\n      dup3\n        /* \"#utility.yul\":3038:3068   */\n      gt\n        /* \"#utility.yul\":3035:3091   */\n      iszero\n      tag_185\n      jumpi\n        /* \"#utility.yul\":3071:3089   */\n      tag_186\n      tag_128\n      jump\t// in\n    tag_186:\n        /* \"#utility.yul\":3035:3091   */\n    tag_185:\n        /* \"#utility.yul\":3121:3125   */\n      0x20\n        /* \"#utility.yul\":3113:3119   */\n      dup3\n        /* \"#utility.yul\":3109:3126   */\n      mul\n        /* \"#utility.yul\":3101:3126   */\n      swap1\n      pop\n        /* \"#utility.yul\":3181:3185   */\n      0x20\n        /* \"#utility.yul\":3175:3179   */\n      dup2\n        /* \"#utility.yul\":3171:3186   */\n      add\n        /* \"#utility.yul\":3163:3186   */\n      swap1\n      pop\n        /* \"#utility.yul\":2882:3193   */\n      swap2\n      swap1\n      pop\n      jump\t// out\n        /* \"#utility.yul\":3199:3316   */\n    tag_132:\n        /* \"#utility.yul\":3308:3309   */\n      0x00\n        /* \"#utility.yul\":3305:3306   */\n      dup1\n        /* \"#utility.yul\":3298:3310   */\n      revert\n        /* \"#utility.yul\":3339:4049   */\n    tag_133:\n        /* \"#utility.yul\":3435:3440   */\n      0x00\n        /* \"#utility.yul\":3460:3541   */\n      tag_189\n        /* \"#utility.yul\":3476:3540   */\n      tag_190\n        /* \"#utility.yul\":3533:3539   */\n      dup5\n        /* \"#utility.yul\":3476:3540   */\n      tag_131\n      jump\t// in\n    tag_190:\n        /* \"#utility.yul\":3460:3541   */\n      tag_130\n      jump\t// in\n    tag_189:\n        /* \"#utility.yul\":3451:3541   */\n      swap1\n      pop\n        /* \"#utility.yul\":3561:3566   */\n      dup1\n        /* \"#utility.yul\":3590:3596   */\n      dup4\n        /* \"#utility.yul\":3583:3588   */\n      dup3\n        /* \"#utility.yul\":3576:3597   */\n      mstore\n        /* \"#utility.yul\":3624:3628   */\n      0x20\n        /* \"#utility.yul\":3617:3622   */\n      dup3\n        /* \"#utility.yul\":3613:3629   */\n      add\n        /* \"#utility.yul\":3606:3629   */\n      swap1\n      pop\n        /* \"#utility.yul\":3677:3681   */\n      0x20\n        /* \"#utility.yul\":3669:3675   */\n      dup5\n        /* \"#utility.yul\":3665:3682   */\n      mul\n        /* \"#utility.yul\":3657:3663   */\n      dup4\n        /* \"#utility.yul\":3653:3683   */\n      add\n        /* \"#utility.yul\":3706:3709   */\n      dup6\n        /* \"#utility.yul\":3698:3704   */\n      dup2\n        /* \"#utility.yul\":3695:3710   */\n      gt\n        /* \"#utility.yul\":3692:3814   */\n      iszero\n      tag_191\n      jumpi\n        /* \"#utility.yul\":3725:3804   */\n      tag_192\n      tag_132\n      jump\t// in\n    tag_192:\n        /* \"#utility.yul\":3692:3814   */\n    tag_191:\n        /* \"#utility.yul\":3840:3846   */\n      dup4\n        /* \"#utility.yul\":3823:4043   */\n    tag_193:\n        /* \"#utility.yul\":3857:3863   */\n      dup2\n        /* \"#utility.yul\":3852:3855   */\n      dup2\n        /* \"#utility.yul\":3849:3864   */\n      lt\n        /* \"#utility.yul\":3823:4043   */\n      iszero\n      tag_195\n      jumpi\n        /* \"#utility.yul\":3932:3935   */\n      dup1\n        /* \"#utility.yul\":3961:3998   */\n      tag_196\n        /* \"#utility.yul\":3994:3997   */\n      dup9\n        /* \"#utility.yul\":3982:3992   */\n      dup3\n        /* \"#utility.yul\":3961:3998   */\n      tag_121\n      jump\t// in\n    tag_196:\n        /* \"#utility.yul\":3956:3959   */\n      dup5\n        /* \"#utility.yul\":3949:3999   */\n      mstore\n        /* \"#utility.yul\":4028:4032   */\n      0x20\n        /* \"#utility.yul\":4023:4026   */\n      dup5\n        /* \"#utility.yul\":4019:4033   */\n      add\n        /* \"#utility.yul\":4012:4033   */\n      swap4\n      pop\n        /* \"#utility.yul\":3899:4043   */\n      pop\n        /* \"#utility.yul\":3883:3887   */\n      0x20\n        /* \"#utility.yul\":3878:3881   */\n      dup2\n        /* \"#utility.yul\":3874:3888   */\n      add\n        /* \"#utility.yul\":3867:3888   */\n      swap1\n      pop\n        /* \"#utility.yul\":3823:4043   */\n      jump(tag_193)\n    tag_195:\n        /* \"#utility.yul\":3827:3848   */\n      pop\n        /* \"#utility.yul\":3441:4049   */\n      pop\n      pop\n        /* \"#utility.yul\":3339:4049   */\n      swap4\n      swap3\n      pop\n      pop\n      pop\n      jump\t// out\n        /* \"#utility.yul\":4072:4442   */\n    tag_134:\n        /* \"#utility.yul\":4143:4148   */\n      0x00\n        /* \"#utility.yul\":4192:4195   */\n      dup3\n        /* \"#utility.yul\":4185:4189   */\n      0x1f\n        /* \"#utility.yul\":4177:4183   */\n      dup4\n        /* \"#utility.yul\":4173:4190   */\n      add\n        /* \"#utility.yul\":4169:4196   */\n      slt\n        /* \"#utility.yul\":4159:4281   */\n      tag_198\n      jumpi\n        /* \"#utility.yul\":4200:4279   */\n      tag_199\n      tag_126\n      jump\t// in\n    tag_199:\n        /* \"#utility.yul\":4159:4281   */\n    tag_198:\n        /* \"#utility.yul\":4317:4323   */\n      dup2\n        /* \"#utility.yul\":4304:4324   */\n      calldataload\n        /* \"#utility.yul\":4342:4436   */\n      tag_200\n        /* \"#utility.yul\":4432:4435   */\n      dup5\n        /* \"#utility.yul\":4424:4430   */\n      dup3\n        /* \"#utility.yul\":4417:4421   */\n      0x20\n        /* \"#utility.yul\":4409:4415   */\n      dup7\n        /* \"#utility.yul\":4405:4422   */\n      add\n        /* \"#utility.yul\":4342:4436   */\n      tag_133\n      jump\t// in\n    tag_200:\n        /* \"#utility.yul\":4333:4436   */\n      swap2\n      pop\n        /* \"#utility.yul\":4149:4442   */\n      pop\n        /* \"#utility.yul\":4072:4442   */\n      swap3\n      swap2\n      pop\n      pop\n      jump\t// out\n        /* \"#utility.yul\":4448:5130   */\n    tag_25:\n        /* \"#utility.yul\":4540:4546   */\n      0x00\n        /* \"#utility.yul\":4548:4554   */\n      dup1\n        /* \"#utility.yul\":4597:4599   */\n      0x40\n        /* \"#utility.yul\":4585:4594   */\n      dup4\n        /* \"#utility.yul\":4576:4583   */\n      dup6\n        /* \"#utility.yul\":4572:4595   */\n      sub\n        /* \"#utility.yul\":4568:4600   */\n      slt\n        /* \"#utility.yul\":4565:4684   */\n      iszero\n      tag_202\n      jumpi\n        /* \"#utility.yul\":4603:4682   */\n      tag_203\n      tag_116\n      jump\t// in\n    tag_203:\n        /* \"#utility.yul\":4565:4684   */\n    tag_202:\n        /* \"#utility.yul\":4751:4752   */\n      0x00\n        /* \"#utility.yul\":4740:4749   */\n      dup4\n        /* \"#utility.yul\":4736:4753   */\n      add\n        /* \"#utility.yul\":4723:4754   */\n      calldataload\n        /* \"#utility.yul\":4781:4799   */\n      0xffffffffffffffff\n        /* \"#utility.yul\":4773:4779   */\n      dup2\n        /* \"#utility.yul\":4770:4800   */\n      gt\n        /* \"#utility.yul\":4767:4884   */\n      iszero\n      tag_204\n      jumpi\n        /* \"#utility.yul\":4803:4882   */\n      tag_205\n      tag_117\n      jump\t// in\n    tag_205:\n        /* \"#utility.yul\":4767:4884   */\n    tag_204:\n        /* \"#utility.yul\":4908:4986   */\n      tag_206\n        /* \"#utility.yul\":4978:4985   */\n      dup6\n        /* \"#utility.yul\":4969:4975   */\n      dup3\n        /* \"#utility.yul\":4958:4967   */\n      dup7\n        /* \"#utility.yul\":4954:4976   */\n      add\n        /* \"#utility.yul\":4908:4986   */\n      tag_134\n      jump\t// in\n    tag_206:\n        /* \"#utility.yul\":4898:4986   */\n      swap3\n      pop\n        /* \"#utility.yul\":4694:4996   */\n      pop\n        /* \"#utility.yul\":5035:5037   */\n      0x20\n        /* \"#utility.yul\":5061:5113   */\n      tag_207\n        /* \"#utility.yul\":5105:5112   */\n      dup6\n        /* \"#utility.yul\":5096:5102   */\n      dup3\n        /* \"#utility.yul\":5085:5094   */\n      dup7\n        /* \"#utility.yul\":5081:5103   */\n      add\n        /* \"#utility.yul\":5061:5113   */\n      tag_124\n      jump\t// in\n    tag_207:\n        /* \"#utility.yul\":5051:5113   */\n      swap2\n      pop\n        /* \"#utility.yul\":5006:5123   */\n      pop\n        /* \"#utility.yul\":4448:5130   */\n      swap3\n      pop\n      swap3\n      swap1\n      pop\n      jump\t// out\n        /* \"#utility.yul\":5136:5465   */\n    tag_35:\n        /* \"#utility.yul\":5195:5201   */\n      0x00\n        /* \"#utility.yul\":5244:5246   */\n      0x20\n        /* \"#utility.yul\":5232:5241   */\n      dup3\n        /* \"#utility.yul\":5223:5230   */\n      dup5\n        /* \"#utility.yul\":5219:5242   */\n      sub\n        /* \"#utility.yul\":5215:5247   */\n      slt\n        /* \"#utility.yul\":5212:5331   */\n      iszero\n      tag_209\n      jumpi\n        /* \"#utility.yul\":5250:5329   */\n      tag_210\n      tag_116\n      jump\t// in\n    tag_210:\n        /* \"#utility.yul\":5212:5331   */\n    tag_209:\n        /* \"#utility.yul\":5370:5371   */\n      0x00\n        /* \"#utility.yul\":5395:5448   */\n      tag_211\n        /* \"#utility.yul\":5440:5447   */\n      dup5\n        /* \"#utility.yul\":5431:5437   */\n      dup3\n        /* \"#utility.yul\":5420:5429   */\n      dup6\n        /* \"#utility.yul\":5416:5438   */\n      add\n        /* \"#utility.yul\":5395:5448   */\n      tag_121\n      jump\t// in\n    tag_211:\n        /* \"#utility.yul\":5385:5448   */\n      swap2\n      pop\n        /* \"#utility.yul\":5341:5458   */\n      pop\n        /* \"#utility.yul\":5136:5465   */\n      swap3\n      swap2\n      pop\n      pop\n      jump\t// out\n        /* \"#utility.yul\":5471:5586   */\n    tag_135:\n        /* \"#utility.yul\":5556:5579   */\n      tag_213\n        /* \"#utility.yul\":5573:5578   */\n      dup2\n        /* \"#utility.yul\":5556:5579   */\n      tag_122\n      jump\t// in\n    tag_213:\n        /* \"#utility.yul\":5551:5554   */\n      dup3\n        /* \"#utility.yul\":5544:5580   */\n      mstore\n        /* \"#utility.yul\":5471:5586   */\n      pop\n      pop\n      jump\t// out\n        /* \"#utility.yul\":5592:5810   */\n    tag_38:\n        /* \"#utility.yul\":5683:5687   */\n      0x00\n        /* \"#utility.yul\":5721:5723   */\n      0x20\n        /* \"#utility.yul\":5710:5719   */\n      dup3\n        /* \"#utility.yul\":5706:5724   */\n      add\n        /* \"#utility.yul\":5698:5724   */\n      swap1\n      pop\n        /* \"#utility.yul\":5734:5803   */\n      tag_215\n        /* \"#utility.yul\":5800:5801   */\n      0x00\n        /* \"#utility.yul\":5789:5798   */\n      dup4\n        /* \"#utility.yul\":5785:5802   */\n      add\n        /* \"#utility.yul\":5776:5782   */\n      dup5\n        /* \"#utility.yul\":5734:5803   */\n      tag_135\n      jump\t// in\n    tag_215:\n        /* \"#utility.yul\":5592:5810   */\n      swap3\n      swap2\n      pop\n      pop\n      jump\t// out\n        /* \"#utility.yul\":5816:5906   */\n    tag_136:\n        /* \"#utility.yul\":5850:5857   */\n      0x00\n        /* \"#utility.yul\":5893:5898   */\n      dup2\n        /* \"#utility.yul\":5886:5899   */\n      iszero\n        /* \"#utility.yul\":5879:5900   */\n      iszero\n        /* \"#utility.yul\":5868:5900   */\n      swap1\n      pop\n        /* \"#utility.yul\":5816:5906   */\n      swap2\n      swap1\n      pop\n      jump\t// out\n        /* \"#utility.yul\":5912:6021   */\n    tag_137:\n        /* \"#utility.yul\":5993:6014   */\n      tag_218\n        /* \"#utility.yul\":6008:6013   */\n      dup2\n        /* \"#utility.yul\":5993:6014   */\n      tag_136\n      jump\t// in\n    tag_218:\n        /* \"#utility.yul\":5988:5991   */\n      dup3\n        /* \"#utility.yul\":5981:6015   */\n      mstore\n        /* \"#utility.yul\":5912:6021   */\n      pop\n      pop\n      jump\t// out\n        /* \"#utility.yul\":6027:6237   */\n    tag_46:\n        /* \"#utility.yul\":6114:6118   */\n      0x00\n        /* \"#utility.yul\":6152:6154   */\n      0x20\n        /* \"#utility.yul\":6141:6150   */\n      dup3\n        /* \"#utility.yul\":6137:6155   */\n      add\n        /* \"#utility.yul\":6129:6155   */\n      swap1\n      pop\n        /* \"#utility.yul\":6165:6230   */\n      tag_220\n        /* \"#utility.yul\":6227:6228   */\n      0x00\n        /* \"#utility.yul\":6216:6225   */\n      dup4\n        /* \"#utility.yul\":6212:6229   */\n      add\n        /* \"#utility.yul\":6203:6209   */\n      dup5\n        /* \"#utility.yul\":6165:6230   */\n      tag_137\n      jump\t// in\n    tag_220:\n        /* \"#utility.yul\":6027:6237   */\n      swap3\n      swap2\n      pop\n      pop\n      jump\t// out\n        /* \"#utility.yul\":6243:6412   */\n    tag_138:\n        /* \"#utility.yul\":6327:6338   */\n      0x00\n        /* \"#utility.yul\":6361:6367   */\n      dup3\n        /* \"#utility.yul\":6356:6359   */\n      dup3\n        /* \"#utility.yul\":6349:6368   */\n      mstore\n        /* \"#utility.yul\":6401:6405   */\n      0x20\n        /* \"#utility.yul\":6396:6399   */\n      dup3\n        /* \"#utility.yul\":6392:6406   */\n      add\n        /* \"#utility.yul\":6377:6406   */\n      swap1\n      pop\n        /* \"#utility.yul\":6243:6412   */\n      swap3\n      swap2\n      pop\n      pop\n      jump\t// out\n        /* \"#utility.yul\":6418:6600   */\n    tag_139:\n        /* \"#utility.yul\":6558:6592   */\n      0x557365722069736e27742061206c6973742061646d696e6973747261746f722e\n        /* \"#utility.yul\":6554:6555   */\n      0x00\n        /* \"#utility.yul\":6546:6552   */\n      dup3\n        /* \"#utility.yul\":6542:6556   */\n      add\n        /* \"#utility.yul\":6535:6593   */\n      mstore\n        /* \"#utility.yul\":6418:6600   */\n      pop\n      jump\t// out\n        /* \"#utility.yul\":6606:6972   */\n    tag_140:\n        /* \"#utility.yul\":6748:6751   */\n      0x00\n        /* \"#utility.yul\":6769:6836   */\n      tag_224\n        /* \"#utility.yul\":6833:6835   */\n      0x20\n        /* \"#utility.yul\":6828:6831   */\n      dup4\n        /* \"#utility.yul\":6769:6836   */\n      tag_138\n      jump\t// in\n    tag_224:\n        /* \"#utility.yul\":6762:6836   */\n      swap2\n      pop\n        /* \"#utility.yul\":6845:6938   */\n      tag_225\n        /* \"#utility.yul\":6934:6937   */\n      dup3\n        /* \"#utility.yul\":6845:6938   */\n      tag_139\n      jump\t// in\n    tag_225:\n        /* \"#utility.yul\":6963:6965   */\n      0x20\n        /* \"#utility.yul\":6958:6961   */\n      dup3\n        /* \"#utility.yul\":6954:6966   */\n      add\n        /* \"#utility.yul\":6947:6966   */\n      swap1\n      pop\n        /* \"#utility.yul\":6606:6972   */\n      swap2\n      swap1\n      pop\n      jump\t// out\n        /* \"#utility.yul\":6978:7397   */\n    tag_53:\n        /* \"#utility.yul\":7144:7148   */\n      0x00\n        /* \"#utility.yul\":7182:7184   */\n      0x20\n        /* \"#utility.yul\":7171:7180   */\n      dup3\n        /* \"#utility.yul\":7167:7185   */\n      add\n        /* \"#utility.yul\":7159:7185   */\n      swap1\n      pop\n        /* \"#utility.yul\":7231:7240   */\n      dup2\n        /* \"#utility.yul\":7225:7229   */\n      dup2\n        /* \"#utility.yul\":7221:7241   */\n      sub\n        /* \"#utility.yul\":7217:7218   */\n      0x00\n        /* \"#utility.yul\":7206:7215   */\n      dup4\n        /* \"#utility.yul\":7202:7219   */\n      add\n        /* \"#utility.yul\":7195:7242   */\n      mstore\n        /* \"#utility.yul\":7259:7390   */\n      tag_227\n        /* \"#utility.yul\":7385:7389   */\n      dup2\n        /* \"#utility.yul\":7259:7390   */\n      tag_140\n      jump\t// in\n    tag_227:\n        /* \"#utility.yul\":7251:7390   */\n      swap1\n      pop\n        /* \"#utility.yul\":6978:7397   */\n      swap2\n      swap1\n      pop\n      jump\t// out\n        /* \"#utility.yul\":7403:7583   */\n    tag_74:\n        /* \"#utility.yul\":7451:7528   */\n      0x4e487b7100000000000000000000000000000000000000000000000000000000\n        /* \"#utility.yul\":7448:7449   */\n      0x00\n        /* \"#utility.yul\":7441:7529   */\n      mstore\n        /* \"#utility.yul\":7548:7552   */\n      0x32\n        /* \"#utility.yul\":7545:7546   */\n      0x04\n        /* \"#utility.yul\":7538:7553   */\n      mstore\n        /* \"#utility.yul\":7572:7576   */\n      0x24\n        /* \"#utility.yul\":7569:7570   */\n      0x00\n        /* \"#utility.yul\":7562:7577   */\n      revert\n        /* \"#utility.yul\":7589:7769   */\n    tag_141:\n        /* \"#utility.yul\":7637:7714   */\n      0x4e487b7100000000000000000000000000000000000000000000000000000000\n        /* \"#utility.yul\":7634:7635   */\n      0x00\n        /* \"#utility.yul\":7627:7715   */\n      mstore\n        /* \"#utility.yul\":7734:7738   */\n      0x11\n        /* \"#utility.yul\":7731:7732   */\n      0x04\n        /* \"#utility.yul\":7724:7739   */\n      mstore\n        /* \"#utility.yul\":7758:7762   */\n      0x24\n        /* \"#utility.yul\":7755:7756   */\n      0x00\n        /* \"#utility.yul\":7748:7763   */\n      revert\n        /* \"#utility.yul\":7775:7852   */\n    tag_142:\n        /* \"#utility.yul\":7812:7819   */\n      0x00\n        /* \"#utility.yul\":7841:7846   */\n      dup2\n        /* \"#utility.yul\":7830:7846   */\n      swap1\n      pop\n        /* \"#utility.yul\":7775:7852   */\n      swap2\n      swap1\n      pop\n      jump\t// out\n        /* \"#utility.yul\":7858:8091   */\n    tag_76:\n        /* \"#utility.yul\":7897:7900   */\n      0x00\n        /* \"#utility.yul\":7920:7944   */\n      tag_232\n        /* \"#utility.yul\":7938:7943   */\n      dup3\n        /* \"#utility.yul\":7920:7944   */\n      tag_142\n      jump\t// in\n    tag_232:\n        /* \"#utility.yul\":7911:7944   */\n      swap2\n      pop\n        /* \"#utility.yul\":7966:8032   */\n      0xffffffffffffffffffffffffffffffffffffffffffffffffffffffffffffffff\n        /* \"#utility.yul\":7959:7964   */\n      dup3\n        /* \"#utility.yul\":7956:8033   */\n      sub\n        /* \"#utility.yul\":7953:8056   */\n      tag_233\n      jumpi\n        /* \"#utility.yul\":8036:8054   */\n      tag_234\n      tag_141\n      jump\t// in\n    tag_234:\n        /* \"#utility.yul\":7953:8056   */\n    tag_233:\n        /* \"#utility.yul\":8083:8084   */\n      0x01\n        /* \"#utility.yul\":8076:8081   */\n      dup3\n        /* \"#utility.yul\":8072:8085   */\n      add\n        /* \"#utility.yul\":8065:8085   */\n      swap1\n      pop\n        /* \"#utility.yul\":7858:8091   */\n      swap2\n      swap1\n      pop\n      jump\t// out\n        /* \"#utility.yul\":8097:8322   */\n    tag_143:\n        /* \"#utility.yul\":8237:8271   */\n      0x4f776e61626c653a206e6577206f776e657220697320746865207a65726f2061\n        /* \"#utility.yul\":8233:8234   */\n      0x00\n        /* \"#utility.yul\":8225:8231   */\n      dup3\n        /* \"#utility.yul\":8221:8235   */\n      add\n        /* \"#utility.yul\":8214:8272   */\n      mstore\n        /* \"#utility.yul\":8306:8314   */\n      0x6464726573730000000000000000000000000000000000000000000000000000\n        /* \"#utility.yul\":8301:8303   */\n      0x20\n        /* \"#utility.yul\":8293:8299   */\n      dup3\n        /* \"#utility.yul\":8289:8304   */\n      add\n        /* \"#utility.yul\":8282:8315   */\n      mstore\n        /* \"#utility.yul\":8097:8322   */\n      pop\n      jump\t// out\n        /* \"#utility.yul\":8328:8694   */\n    tag_144:\n        /* \"#utility.yul\":8470:8473   */\n      0x00\n        /* \"#utility.yul\":8491:8558   */\n      tag_237\n        /* \"#utility.yul\":8555:8557   */\n      0x26\n        /* \"#utility.yul\":8550:8553   */\n      dup4\n        /* \"#utility.yul\":8491:8558   */\n      tag_138\n      jump\t// in\n    tag_237:\n        /* \"#utility.yul\":8484:8558   */\n      swap2\n      pop\n        /* \"#utility.yul\":8567:8660   */\n      tag_238\n        /* \"#utility.yul\":8656:8659   */\n      dup3\n        /* \"#utility.yul\":8567:8660   */\n      tag_143\n      jump\t// in\n    tag_238:\n        /* \"#utility.yul\":8685:8687   */\n      0x40\n        /* \"#utility.yul\":8680:8683   */\n      dup3\n        /* \"#utility.yul\":8676:8688   */\n      add\n        /* \"#utility.yul\":8669:8688   */\n      swap1\n      pop\n        /* \"#utility.yul\":8328:8694   */\n      swap2\n      swap1\n      pop\n      jump\t// out\n        /* \"#utility.yul\":8700:9119   */\n    tag_103:\n        /* \"#utility.yul\":8866:8870   */\n      0x00\n        /* \"#utility.yul\":8904:8906   */\n      0x20\n        /* \"#utility.yul\":8893:8902   */\n      dup3\n        /* \"#utility.yul\":8889:8907   */\n      add\n        /* \"#utility.yul\":8881:8907   */\n      swap1\n      pop\n        /* \"#utility.yul\":8953:8962   */\n      dup2\n        /* \"#utility.yul\":8947:8951   */\n      dup2\n        /* \"#utility.yul\":8943:8963   */\n      sub\n        /* \"#utility.yul\":8939:8940   */\n      0x00\n        /* \"#utility.yul\":8928:8937   */\n      dup4\n        /* \"#utility.yul\":8924:8941   */\n      add\n        /* \"#utility.yul\":8917:8964   */\n      mstore\n        /* \"#utility.yul\":8981:9112   */\n      tag_240\n        /* \"#utility.yul\":9107:9111   */\n      dup2\n        /* \"#utility.yul\":8981:9112   */\n      tag_144\n      jump\t// in\n    tag_240:\n        /* \"#utility.yul\":8973:9112   */\n      swap1\n      pop\n        /* \"#utility.yul\":8700:9119   */\n      swap2\n      swap1\n      pop\n      jump\t// out\n        /* \"#utility.yul\":9125:9307   */\n    tag_145:\n        /* \"#utility.yul\":9265:9299   */\n      0x4f776e61626c653a2063616c6c6572206973206e6f7420746865206f776e6572\n        /* \"#utility.yul\":9261:9262   */\n      0x00\n        /* \"#utility.yul\":9253:9259   */\n      dup3\n        /* \"#utility.yul\":9249:9263   */\n      add\n        /* \"#utility.yul\":9242:9300   */\n      mstore\n        /* \"#utility.yul\":9125:9307   */\n      pop\n      jump\t// out\n        /* \"#utility.yul\":9313:9679   */\n    tag_146:\n        /* \"#utility.yul\":9455:9458   */\n      0x00\n        /* \"#utility.yul\":9476:9543   */\n      tag_243\n        /* \"#utility.yul\":9540:9542   */\n      0x20\n        /* \"#utility.yul\":9535:9538   */\n      dup4\n        /* \"#utility.yul\":9476:9543   */\n      tag_138\n      jump\t// in\n    tag_243:\n        /* \"#utility.yul\":9469:9543   */\n      swap2\n      pop\n        /* \"#utility.yul\":9552:9645   */\n      tag_244\n        /* \"#utility.yul\":9641:9644   */\n      dup3\n        /* \"#utility.yul\":9552:9645   */\n      tag_145\n      jump\t// in\n    tag_244:\n        /* \"#utility.yul\":9670:9672   */\n      0x20\n        /* \"#utility.yul\":9665:9668   */\n      dup3\n        /* \"#utility.yul\":9661:9673   */\n      add\n        /* \"#utility.yul\":9654:9673   */\n      swap1\n      pop\n        /* \"#utility.yul\":9313:9679   */\n      swap2\n      swap1\n      pop\n      jump\t// out\n        /* \"#utility.yul\":9685:10104   */\n    tag_112:\n        /* \"#utility.yul\":9851:9855   */\n      0x00\n        /* \"#utility.yul\":9889:9891   */\n      0x20\n        /* \"#utility.yul\":9878:9887   */\n      dup3\n        /* \"#utility.yul\":9874:9892   */\n      add\n        /* \"#utility.yul\":9866:9892   */\n      swap1\n      pop\n        /* \"#utility.yul\":9938:9947   */\n      dup2\n        /* \"#utility.yul\":9932:9936   */\n      dup2\n        /* \"#utility.yul\":9928:9948   */\n      sub\n        /* \"#utility.yul\":9924:9925   */\n      0x00\n        /* \"#utility.yul\":9913:9922   */\n      dup4\n        /* \"#utility.yul\":9909:9926   */\n      add\n        /* \"#utility.yul\":9902:9949   */\n      mstore\n        /* \"#utility.yul\":9966:10097   */\n      tag_246\n        /* \"#utility.yul\":10092:10096   */\n      dup2\n        /* \"#utility.yul\":9966:10097   */\n      tag_146\n      jump\t// in\n    tag_246:\n        /* \"#utility.yul\":9958:10097   */\n      swap1\n      pop\n        /* \"#utility.yul\":9685:10104   */\n      swap2\n      swap1\n      pop\n      jump\t// out\n\n    auxdata: 0xa264697066735822122083dfa3deeed544206a6de255dc75cf904189d4323610f67cfdc7cb731aaf8aaa64736f6c63430008120033\n}\n",
				"bytecode": {
					"linkReferences": {},
					"object": "608060405234801561001057600080fd5b5061002d61002261009560201b60201c565b61009d60201b60201c565b6004600160003373ffffffffffffffffffffffffffffffffffffffff1673ffffffffffffffffffffffffffffffffffffffff16815260200190815260200160002060006101000a81548165ffffffffffff021916908365ffffffffffff160217905550610161565b600033905090565b60008060009054906101000a900473ffffffffffffffffffffffffffffffffffffffff169050816000806101000a81548173ffffffffffffffffffffffffffffffffffffffff021916908373ffffffffffffffffffffffffffffffffffffffff1602179055508173ffffffffffffffffffffffffffffffffffffffff168173ffffffffffffffffffffffffffffffffffffffff167f8be0079c531659141344cd1fd0a4f28419497f9722a3daafe3b4186f6b6457e060405160405180910390a35050565b610e7d806101706000396000f3fe608060405234801561001057600080fd5b50600436106100935760003560e01c8063c76cb0f211610066578063c76cb0f2146100f8578063dee2bdd414610114578063e79f0e9614610130578063f2fde38b14610160578063f35f0f741461017c57610093565b80635a9452f714610098578063715018a6146100b45780638da5cb5b146100be5780639c365024146100dc575b600080fd5b6100b260048036038101906100ad9190610970565b6101ac565b005b6100bc610299565b005b6100c66102ad565b6040516100d391906109bf565b60405180910390f35b6100f660048036038101906100f19190610b33565b6102d6565b005b610112600480360381019061010d9190610b33565b6103fd565b005b61012e60048036038101906101299190610970565b61053b565b005b61014a60048036038101906101459190610b8f565b610628565b6040516101579190610bcb565b60405180910390f35b61017a60048036038101906101759190610b8f565b610683565b005b61019660048036038101906101919190610970565b610706565b6040516101a39190610c01565b60405180910390f35b6101b46102ad565b73ffffffffffffffffffffffffffffffffffffffff163373ffffffffffffffffffffffffffffffffffffffff1614806101f457506101f3336004610706565b5b610233576040517f08c379a000000000000000000000000000000000000000000000000000000000815260040161022a90610c79565b60405180910390fd5b80600160008473ffffffffffffffffffffffffffffffffffffffff1673ffffffffffffffffffffffffffffffffffffffff16815260200190815260200160002060006101000a81548165ffffffffffff021916908365ffffffffffff1602179055505050565b6102a1610776565b6102ab60006107f4565b565b60008060009054906101000a900473ffffffffffffffffffffffffffffffffffffffff16905090565b6102de6102ad565b73ffffffffffffffffffffffffffffffffffffffff163373ffffffffffffffffffffffffffffffffffffffff16148061031e575061031d336004610706565b5b61035d576040517f08c379a000000000000000000000000000000000000000000000000000000000815260040161035490610c79565b60405180910390fd5b60005b82518110156103f857816001600085848151811061038157610380610c99565b5b602002602001015173ffffffffffffffffffffffffffffffffffffffff1673ffffffffffffffffffffffffffffffffffffffff16815260200190815260200160002060006101000a81548165ffffffffffff021916908365ffffffffffff16021790555080806103f090610d01565b915050610360565b505050565b6104056102ad565b73ffffffffffffffffffffffffffffffffffffffff163373ffffffffffffffffffffffffffffffffffffffff1614806104455750610444336004610706565b5b610484576040517f08c379a000000000000000000000000000000000000000000000000000000000815260040161047b90610c79565b60405180910390fd5b60005b82518110156105365781600160008584815181106104a8576104a7610c99565b5b602002602001015173ffffffffffffffffffffffffffffffffffffffff1673ffffffffffffffffffffffffffffffffffffffff16815260200190815260200160002060008282829054906101000a900465ffffffffffff161792506101000a81548165ffffffffffff021916908365ffffffffffff160217905550808061052e90610d01565b915050610487565b505050565b6105436102ad565b73ffffffffffffffffffffffffffffffffffffffff163373ffffffffffffffffffffffffffffffffffffffff1614806105835750610582336004610706565b5b6105c2576040517f08c379a00000000000000000000000000000000000000000000000000000000081526004016105b990610c79565b60405180910390fd5b80600160008473ffffffffffffffffffffffffffffffffffffffff1673ffffffffffffffffffffffffffffffffffffffff16815260200190815260200160002060006101000a81548165ffffffffffff021916908365ffffffffffff1602179055505050565b6000600160008373ffffffffffffffffffffffffffffffffffffffff1673ffffffffffffffffffffffffffffffffffffffff16815260200190815260200160002060009054906101000a900465ffffffffffff169050919050565b61068b610776565b600073ffffffffffffffffffffffffffffffffffffffff168173ffffffffffffffffffffffffffffffffffffffff16036106fa576040517f08c379a00000000000000000000000000000000000000000000000000000000081526004016106f190610dbb565b60405180910390fd5b610703816107f4565b50565b60008165ffffffffffff1682600160008673ffffffffffffffffffffffffffffffffffffffff1673ffffffffffffffffffffffffffffffffffffffff16815260200190815260200160002060009054906101000a900465ffffffffffff161665ffffffffffff1614905092915050565b61077e6108b8565b73ffffffffffffffffffffffffffffffffffffffff1661079c6102ad565b73ffffffffffffffffffffffffffffffffffffffff16146107f2576040517f08c379a00000000000000000000000000000000000000000000000000000000081526004016107e990610e27565b60405180910390fd5b565b60008060009054906101000a900473ffffffffffffffffffffffffffffffffffffffff169050816000806101000a81548173ffffffffffffffffffffffffffffffffffffffff021916908373ffffffffffffffffffffffffffffffffffffffff1602179055508173ffffffffffffffffffffffffffffffffffffffff168173ffffffffffffffffffffffffffffffffffffffff167f8be0079c531659141344cd1fd0a4f28419497f9722a3daafe3b4186f6b6457e060405160405180910390a35050565b600033905090565b6000604051905090565b600080fd5b600080fd5b600073ffffffffffffffffffffffffffffffffffffffff82169050919050565b60006108ff826108d4565b9050919050565b61090f816108f4565b811461091a57600080fd5b50565b60008135905061092c81610906565b92915050565b600065ffffffffffff82169050919050565b61094d81610932565b811461095857600080fd5b50565b60008135905061096a81610944565b92915050565b60008060408385031215610987576109866108ca565b5b60006109958582860161091d565b92505060206109a68582860161095b565b9150509250929050565b6109b9816108f4565b82525050565b60006020820190506109d460008301846109b0565b92915050565b600080fd5b6000601f19601f8301169050919050565b7f4e487b7100000000000000000000000000000000000000000000000000000000600052604160045260246000fd5b610a28826109df565b810181811067ffffffffffffffff82111715610a4757610a466109f0565b5b80604052505050565b6000610a5a6108c0565b9050610a668282610a1f565b919050565b600067ffffffffffffffff821115610a8657610a856109f0565b5b602082029050602081019050919050565b600080fd5b6000610aaf610aaa84610a6b565b610a50565b90508083825260208201905060208402830185811115610ad257610ad1610a97565b5b835b81811015610afb5780610ae7888261091d565b845260208401935050602081019050610ad4565b5050509392505050565b600082601f830112610b1a57610b196109da565b5b8135610b2a848260208601610a9c565b91505092915050565b60008060408385031215610b4a57610b496108ca565b5b600083013567ffffffffffffffff811115610b6857610b676108cf565b5b610b7485828601610b05565b9250506020610b858582860161095b565b9150509250929050565b600060208284031215610ba557610ba46108ca565b5b6000610bb38482850161091d565b91505092915050565b610bc581610932565b82525050565b6000602082019050610be06000830184610bbc565b92915050565b60008115159050919050565b610bfb81610be6565b82525050565b6000602082019050610c166000830184610bf2565b92915050565b600082825260208201905092915050565b7f557365722069736e27742061206c6973742061646d696e6973747261746f722e600082015250565b6000610c63602083610c1c565b9150610c6e82610c2d565b602082019050919050565b60006020820190508181036000830152610c9281610c56565b9050919050565b7f4e487b7100000000000000000000000000000000000000000000000000000000600052603260045260246000fd5b7f4e487b7100000000000000000000000000000000000000000000000000000000600052601160045260246000fd5b6000819050919050565b6000610d0c82610cf7565b91507fffffffffffffffffffffffffffffffffffffffffffffffffffffffffffffffff8203610d3e57610d3d610cc8565b5b600182019050919050565b7f4f776e61626c653a206e6577206f776e657220697320746865207a65726f206160008201527f6464726573730000000000000000000000000000000000000000000000000000602082015250565b6000610da5602683610c1c565b9150610db082610d49565b604082019050919050565b60006020820190508181036000830152610dd481610d98565b9050919050565b7f4f776e61626c653a2063616c6c6572206973206e6f7420746865206f776e6572600082015250565b6000610e11602083610c1c565b9150610e1c82610ddb565b602082019050919050565b60006020820190508181036000830152610e4081610e04565b905091905056fea264697066735822122083dfa3deeed544206a6de255dc75cf904189d4323610f67cfdc7cb731aaf8aaa64736f6c63430008120033",
					"opcodes": "PUSH1 0x80 PUSH1 0x40 MSTORE CALLVALUE DUP1 ISZERO PUSH2 0x10 JUMPI PUSH1 0x0 DUP1 REVERT JUMPDEST POP PUSH2 0x2D PUSH2 0x22 PUSH2 0x95 PUSH1 0x20 SHL PUSH1 0x20 SHR JUMP JUMPDEST PUSH2 0x9D PUSH1 0x20 SHL PUSH1 0x20 SHR JUMP JUMPDEST PUSH1 0x4 PUSH1 0x1 PUSH1 0x0 CALLER PUSH20 0xFFFFFFFFFFFFFFFFFFFFFFFFFFFFFFFFFFFFFFFF AND PUSH20 0xFFFFFFFFFFFFFFFFFFFFFFFFFFFFFFFFFFFFFFFF AND DUP2 MSTORE PUSH1 0x20 ADD SWAP1 DUP2 MSTORE PUSH1 0x20 ADD PUSH1 0x0 KECCAK256 PUSH1 0x0 PUSH2 0x100 EXP DUP2 SLOAD DUP2 PUSH6 0xFFFFFFFFFFFF MUL NOT AND SWAP1 DUP4 PUSH6 0xFFFFFFFFFFFF AND MUL OR SWAP1 SSTORE POP PUSH2 0x161 JUMP JUMPDEST PUSH1 0x0 CALLER SWAP1 POP SWAP1 JUMP JUMPDEST PUSH1 0x0 DUP1 PUSH1 0x0 SWAP1 SLOAD SWAP1 PUSH2 0x100 EXP SWAP1 DIV PUSH20 0xFFFFFFFFFFFFFFFFFFFFFFFFFFFFFFFFFFFFFFFF AND SWAP1 POP DUP2 PUSH1 0x0 DUP1 PUSH2 0x100 EXP DUP2 SLOAD DUP2 PUSH20 0xFFFFFFFFFFFFFFFFFFFFFFFFFFFFFFFFFFFFFFFF MUL NOT AND SWAP1 DUP4 PUSH20 0xFFFFFFFFFFFFFFFFFFFFFFFFFFFFFFFFFFFFFFFF AND MUL OR SWAP1 SSTORE POP DUP2 PUSH20 0xFFFFFFFFFFFFFFFFFFFFFFFFFFFFFFFFFFFFFFFF AND DUP2 PUSH20 0xFFFFFFFFFFFFFFFFFFFFFFFFFFFFFFFFFFFFFFFF AND PUSH32 0x8BE0079C531659141344CD1FD0A4F28419497F9722A3DAAFE3B4186F6B6457E0 PUSH1 0x40 MLOAD PUSH1 0x40 MLOAD DUP1 SWAP2 SUB SWAP1 LOG3 POP POP JUMP JUMPDEST PUSH2 0xE7D DUP1 PUSH2 0x170 PUSH1 0x0 CODECOPY PUSH1 0x0 RETURN INVALID PUSH1 0x80 PUSH1 0x40 MSTORE CALLVALUE DUP1 ISZERO PUSH2 0x10 JUMPI PUSH1 0x0 DUP1 REVERT JUMPDEST POP PUSH1 0x4 CALLDATASIZE LT PUSH2 0x93 JUMPI PUSH1 0x0 CALLDATALOAD PUSH1 0xE0 SHR DUP1 PUSH4 0xC76CB0F2 GT PUSH2 0x66 JUMPI DUP1 PUSH4 0xC76CB0F2 EQ PUSH2 0xF8 JUMPI DUP1 PUSH4 0xDEE2BDD4 EQ PUSH2 0x114 JUMPI DUP1 PUSH4 0xE79F0E96 EQ PUSH2 0x130 JUMPI DUP1 PUSH4 0xF2FDE38B EQ PUSH2 0x160 JUMPI DUP1 PUSH4 0xF35F0F74 EQ PUSH2 0x17C JUMPI PUSH2 0x93 JUMP JUMPDEST DUP1 PUSH4 0x5A9452F7 EQ PUSH2 0x98 JUMPI DUP1 PUSH4 0x715018A6 EQ PUSH2 0xB4 JUMPI DUP1 PUSH4 0x8DA5CB5B EQ PUSH2 0xBE JUMPI DUP1 PUSH4 0x9C365024 EQ PUSH2 0xDC JUMPI JUMPDEST PUSH1 0x0 DUP1 REVERT JUMPDEST PUSH2 0xB2 PUSH1 0x4 DUP1 CALLDATASIZE SUB DUP2 ADD SWAP1 PUSH2 0xAD SWAP2 SWAP1 PUSH2 0x970 JUMP JUMPDEST PUSH2 0x1AC JUMP JUMPDEST STOP JUMPDEST PUSH2 0xBC PUSH2 0x299 JUMP JUMPDEST STOP JUMPDEST PUSH2 0xC6 PUSH2 0x2AD JUMP JUMPDEST PUSH1 0x40 MLOAD PUSH2 0xD3 SWAP2 SWAP1 PUSH2 0x9BF JUMP JUMPDEST PUSH1 0x40 MLOAD DUP1 SWAP2 SUB SWAP1 RETURN JUMPDEST PUSH2 0xF6 PUSH1 0x4 DUP1 CALLDATASIZE SUB DUP2 ADD SWAP1 PUSH2 0xF1 SWAP2 SWAP1 PUSH2 0xB33 JUMP JUMPDEST PUSH2 0x2D6 JUMP JUMPDEST STOP JUMPDEST PUSH2 0x112 PUSH1 0x4 DUP1 CALLDATASIZE SUB DUP2 ADD SWAP1 PUSH2 0x10D SWAP2 SWAP1 PUSH2 0xB33 JUMP JUMPDEST PUSH2 0x3FD JUMP JUMPDEST STOP JUMPDEST PUSH2 0x12E PUSH1 0x4 DUP1 CALLDATASIZE SUB DUP2 ADD SWAP1 PUSH2 0x129 SWAP2 SWAP1 PUSH2 0x970 JUMP JUMPDEST PUSH2 0x53B JUMP JUMPDEST STOP JUMPDEST PUSH2 0x14A PUSH1 0x4 DUP1 CALLDATASIZE SUB DUP2 ADD SWAP1 PUSH2 0x145 SWAP2 SWAP1 PUSH2 0xB8F JUMP JUMPDEST PUSH2 0x628 JUMP JUMPDEST PUSH1 0x40 MLOAD PUSH2 0x157 SWAP2 SWAP1 PUSH2 0xBCB JUMP JUMPDEST PUSH1 0x40 MLOAD DUP1 SWAP2 SUB SWAP1 RETURN JUMPDEST PUSH2 0x17A PUSH1 0x4 DUP1 CALLDATASIZE SUB DUP2 ADD SWAP1 PUSH2 0x175 SWAP2 SWAP1 PUSH2 0xB8F JUMP JUMPDEST PUSH2 0x683 JUMP JUMPDEST STOP JUMPDEST PUSH2 0x196 PUSH1 0x4 DUP1 CALLDATASIZE SUB DUP2 ADD SWAP1 PUSH2 0x191 SWAP2 SWAP1 PUSH2 0x970 JUMP JUMPDEST PUSH2 0x706 JUMP JUMPDEST PUSH1 0x40 MLOAD PUSH2 0x1A3 SWAP2 SWAP1 PUSH2 0xC01 JUMP JUMPDEST PUSH1 0x40 MLOAD DUP1 SWAP2 SUB SWAP1 RETURN JUMPDEST PUSH2 0x1B4 PUSH2 0x2AD JUMP JUMPDEST PUSH20 0xFFFFFFFFFFFFFFFFFFFFFFFFFFFFFFFFFFFFFFFF AND CALLER PUSH20 0xFFFFFFFFFFFFFFFFFFFFFFFFFFFFFFFFFFFFFFFF AND EQ DUP1 PUSH2 0x1F4 JUMPI POP PUSH2 0x1F3 CALLER PUSH1 0x4 PUSH2 0x706 JUMP JUMPDEST JUMPDEST PUSH2 0x233 JUMPI PUSH1 0x40 MLOAD PUSH32 0x8C379A000000000000000000000000000000000000000000000000000000000 DUP2 MSTORE PUSH1 0x4 ADD PUSH2 0x22A SWAP1 PUSH2 0xC79 JUMP JUMPDEST PUSH1 0x40 MLOAD DUP1 SWAP2 SUB SWAP1 REVERT JUMPDEST DUP1 PUSH1 0x1 PUSH1 0x0 DUP5 PUSH20 0xFFFFFFFFFFFFFFFFFFFFFFFFFFFFFFFFFFFFFFFF AND PUSH20 0xFFFFFFFFFFFFFFFFFFFFFFFFFFFFFFFFFFFFFFFF AND DUP2 MSTORE PUSH1 0x20 ADD SWAP1 DUP2 MSTORE PUSH1 0x20 ADD PUSH1 0x0 KECCAK256 PUSH1 0x0 PUSH2 0x100 EXP DUP2 SLOAD DUP2 PUSH6 0xFFFFFFFFFFFF MUL NOT AND SWAP1 DUP4 PUSH6 0xFFFFFFFFFFFF AND MUL OR SWAP1 SSTORE POP POP POP JUMP JUMPDEST PUSH2 0x2A1 PUSH2 0x776 JUMP JUMPDEST PUSH2 0x2AB PUSH1 0x0 PUSH2 0x7F4 JUMP JUMPDEST JUMP JUMPDEST PUSH1 0x0 DUP1 PUSH1 0x0 SWAP1 SLOAD SWAP1 PUSH2 0x100 EXP SWAP1 DIV PUSH20 0xFFFFFFFFFFFFFFFFFFFFFFFFFFFFFFFFFFFFFFFF AND SWAP1 POP SWAP1 JUMP JUMPDEST PUSH2 0x2DE PUSH2 0x2AD JUMP JUMPDEST PUSH20 0xFFFFFFFFFFFFFFFFFFFFFFFFFFFFFFFFFFFFFFFF AND CALLER PUSH20 0xFFFFFFFFFFFFFFFFFFFFFFFFFFFFFFFFFFFFFFFF AND EQ DUP1 PUSH2 0x31E JUMPI POP PUSH2 0x31D CALLER PUSH1 0x4 PUSH2 0x706 JUMP JUMPDEST JUMPDEST PUSH2 0x35D JUMPI PUSH1 0x40 MLOAD PUSH32 0x8C379A000000000000000000000000000000000000000000000000000000000 DUP2 MSTORE PUSH1 0x4 ADD PUSH2 0x354 SWAP1 PUSH2 0xC79 JUMP JUMPDEST PUSH1 0x40 MLOAD DUP1 SWAP2 SUB SWAP1 REVERT JUMPDEST PUSH1 0x0 JUMPDEST DUP3 MLOAD DUP2 LT ISZERO PUSH2 0x3F8 JUMPI DUP2 PUSH1 0x1 PUSH1 0x0 DUP6 DUP5 DUP2 MLOAD DUP2 LT PUSH2 0x381 JUMPI PUSH2 0x380 PUSH2 0xC99 JUMP JUMPDEST JUMPDEST PUSH1 0x20 MUL PUSH1 0x20 ADD ADD MLOAD PUSH20 0xFFFFFFFFFFFFFFFFFFFFFFFFFFFFFFFFFFFFFFFF AND PUSH20 0xFFFFFFFFFFFFFFFFFFFFFFFFFFFFFFFFFFFFFFFF AND DUP2 MSTORE PUSH1 0x20 ADD SWAP1 DUP2 MSTORE PUSH1 0x20 ADD PUSH1 0x0 KECCAK256 PUSH1 0x0 PUSH2 0x100 EXP DUP2 SLOAD DUP2 PUSH6 0xFFFFFFFFFFFF MUL NOT AND SWAP1 DUP4 PUSH6 0xFFFFFFFFFFFF AND MUL OR SWAP1 SSTORE POP DUP1 DUP1 PUSH2 0x3F0 SWAP1 PUSH2 0xD01 JUMP JUMPDEST SWAP2 POP POP PUSH2 0x360 JUMP JUMPDEST POP POP POP JUMP JUMPDEST PUSH2 0x405 PUSH2 0x2AD JUMP JUMPDEST PUSH20 0xFFFFFFFFFFFFFFFFFFFFFFFFFFFFFFFFFFFFFFFF AND CALLER PUSH20 0xFFFFFFFFFFFFFFFFFFFFFFFFFFFFFFFFFFFFFFFF AND EQ DUP1 PUSH2 0x445 JUMPI POP PUSH2 0x444 CALLER PUSH1 0x4 PUSH2 0x706 JUMP JUMPDEST JUMPDEST PUSH2 0x484 JUMPI PUSH1 0x40 MLOAD PUSH32 0x8C379A000000000000000000000000000000000000000000000000000000000 DUP2 MSTORE PUSH1 0x4 ADD PUSH2 0x47B SWAP1 PUSH2 0xC79 JUMP JUMPDEST PUSH1 0x40 MLOAD DUP1 SWAP2 SUB SWAP1 REVERT JUMPDEST PUSH1 0x0 JUMPDEST DUP3 MLOAD DUP2 LT ISZERO PUSH2 0x536 JUMPI DUP2 PUSH1 0x1 PUSH1 0x0 DUP6 DUP5 DUP2 MLOAD DUP2 LT PUSH2 0x4A8 JUMPI PUSH2 0x4A7 PUSH2 0xC99 JUMP JUMPDEST JUMPDEST PUSH1 0x20 MUL PUSH1 0x20 ADD ADD MLOAD PUSH20 0xFFFFFFFFFFFFFFFFFFFFFFFFFFFFFFFFFFFFFFFF AND PUSH20 0xFFFFFFFFFFFFFFFFFFFFFFFFFFFFFFFFFFFFFFFF AND DUP2 MSTORE PUSH1 0x20 ADD SWAP1 DUP2 MSTORE PUSH1 0x20 ADD PUSH1 0x0 KECCAK256 PUSH1 0x0 DUP3 DUP3 DUP3 SWAP1 SLOAD SWAP1 PUSH2 0x100 EXP SWAP1 DIV PUSH6 0xFFFFFFFFFFFF AND OR SWAP3 POP PUSH2 0x100 EXP DUP2 SLOAD DUP2 PUSH6 0xFFFFFFFFFFFF MUL NOT AND SWAP1 DUP4 PUSH6 0xFFFFFFFFFFFF AND MUL OR SWAP1 SSTORE POP DUP1 DUP1 PUSH2 0x52E SWAP1 PUSH2 0xD01 JUMP JUMPDEST SWAP2 POP POP PUSH2 0x487 JUMP JUMPDEST POP POP POP JUMP JUMPDEST PUSH2 0x543 PUSH2 0x2AD JUMP JUMPDEST PUSH20 0xFFFFFFFFFFFFFFFFFFFFFFFFFFFFFFFFFFFFFFFF AND CALLER PUSH20 0xFFFFFFFFFFFFFFFFFFFFFFFFFFFFFFFFFFFFFFFF AND EQ DUP1 PUSH2 0x583 JUMPI POP PUSH2 0x582 CALLER PUSH1 0x4 PUSH2 0x706 JUMP JUMPDEST JUMPDEST PUSH2 0x5C2 JUMPI PUSH1 0x40 MLOAD PUSH32 0x8C379A000000000000000000000000000000000000000000000000000000000 DUP2 MSTORE PUSH1 0x4 ADD PUSH2 0x5B9 SWAP1 PUSH2 0xC79 JUMP JUMPDEST PUSH1 0x40 MLOAD DUP1 SWAP2 SUB SWAP1 REVERT JUMPDEST DUP1 PUSH1 0x1 PUSH1 0x0 DUP5 PUSH20 0xFFFFFFFFFFFFFFFFFFFFFFFFFFFFFFFFFFFFFFFF AND PUSH20 0xFFFFFFFFFFFFFFFFFFFFFFFFFFFFFFFFFFFFFFFF AND DUP2 MSTORE PUSH1 0x20 ADD SWAP1 DUP2 MSTORE PUSH1 0x20 ADD PUSH1 0x0 KECCAK256 PUSH1 0x0 PUSH2 0x100 EXP DUP2 SLOAD DUP2 PUSH6 0xFFFFFFFFFFFF MUL NOT AND SWAP1 DUP4 PUSH6 0xFFFFFFFFFFFF AND MUL OR SWAP1 SSTORE POP POP POP JUMP JUMPDEST PUSH1 0x0 PUSH1 0x1 PUSH1 0x0 DUP4 PUSH20 0xFFFFFFFFFFFFFFFFFFFFFFFFFFFFFFFFFFFFFFFF AND PUSH20 0xFFFFFFFFFFFFFFFFFFFFFFFFFFFFFFFFFFFFFFFF AND DUP2 MSTORE PUSH1 0x20 ADD SWAP1 DUP2 MSTORE PUSH1 0x20 ADD PUSH1 0x0 KECCAK256 PUSH1 0x0 SWAP1 SLOAD SWAP1 PUSH2 0x100 EXP SWAP1 DIV PUSH6 0xFFFFFFFFFFFF AND SWAP1 POP SWAP2 SWAP1 POP JUMP JUMPDEST PUSH2 0x68B PUSH2 0x776 JUMP JUMPDEST PUSH1 0x0 PUSH20 0xFFFFFFFFFFFFFFFFFFFFFFFFFFFFFFFFFFFFFFFF AND DUP2 PUSH20 0xFFFFFFFFFFFFFFFFFFFFFFFFFFFFFFFFFFFFFFFF AND SUB PUSH2 0x6FA JUMPI PUSH1 0x40 MLOAD PUSH32 0x8C379A000000000000000000000000000000000000000000000000000000000 DUP2 MSTORE PUSH1 0x4 ADD PUSH2 0x6F1 SWAP1 PUSH2 0xDBB JUMP JUMPDEST PUSH1 0x40 MLOAD DUP1 SWAP2 SUB SWAP1 REVERT JUMPDEST PUSH2 0x703 DUP2 PUSH2 0x7F4 JUMP JUMPDEST POP JUMP JUMPDEST PUSH1 0x0 DUP2 PUSH6 0xFFFFFFFFFFFF AND DUP3 PUSH1 0x1 PUSH1 0x0 DUP7 PUSH20 0xFFFFFFFFFFFFFFFFFFFFFFFFFFFFFFFFFFFFFFFF AND PUSH20 0xFFFFFFFFFFFFFFFFFFFFFFFFFFFFFFFFFFFFFFFF AND DUP2 MSTORE PUSH1 0x20 ADD SWAP1 DUP2 MSTORE PUSH1 0x20 ADD PUSH1 0x0 KECCAK256 PUSH1 0x0 SWAP1 SLOAD SWAP1 PUSH2 0x100 EXP SWAP1 DIV PUSH6 0xFFFFFFFFFFFF AND AND PUSH6 0xFFFFFFFFFFFF AND EQ SWAP1 POP SWAP3 SWAP2 POP POP JUMP JUMPDEST PUSH2 0x77E PUSH2 0x8B8 JUMP JUMPDEST PUSH20 0xFFFFFFFFFFFFFFFFFFFFFFFFFFFFFFFFFFFFFFFF AND PUSH2 0x79C PUSH2 0x2AD JUMP JUMPDEST PUSH20 0xFFFFFFFFFFFFFFFFFFFFFFFFFFFFFFFFFFFFFFFF AND EQ PUSH2 0x7F2 JUMPI PUSH1 0x40 MLOAD PUSH32 0x8C379A000000000000000000000000000000000000000000000000000000000 DUP2 MSTORE PUSH1 0x4 ADD PUSH2 0x7E9 SWAP1 PUSH2 0xE27 JUMP JUMPDEST PUSH1 0x40 MLOAD DUP1 SWAP2 SUB SWAP1 REVERT JUMPDEST JUMP JUMPDEST PUSH1 0x0 DUP1 PUSH1 0x0 SWAP1 SLOAD SWAP1 PUSH2 0x100 EXP SWAP1 DIV PUSH20 0xFFFFFFFFFFFFFFFFFFFFFFFFFFFFFFFFFFFFFFFF AND SWAP1 POP DUP2 PUSH1 0x0 DUP1 PUSH2 0x100 EXP DUP2 SLOAD DUP2 PUSH20 0xFFFFFFFFFFFFFFFFFFFFFFFFFFFFFFFFFFFFFFFF MUL NOT AND SWAP1 DUP4 PUSH20 0xFFFFFFFFFFFFFFFFFFFFFFFFFFFFFFFFFFFFFFFF AND MUL OR SWAP1 SSTORE POP DUP2 PUSH20 0xFFFFFFFFFFFFFFFFFFFFFFFFFFFFFFFFFFFFFFFF AND DUP2 PUSH20 0xFFFFFFFFFFFFFFFFFFFFFFFFFFFFFFFFFFFFFFFF AND PUSH32 0x8BE0079C531659141344CD1FD0A4F28419497F9722A3DAAFE3B4186F6B6457E0 PUSH1 0x40 MLOAD PUSH1 0x40 MLOAD DUP1 SWAP2 SUB SWAP1 LOG3 POP POP JUMP JUMPDEST PUSH1 0x0 CALLER SWAP1 POP SWAP1 JUMP JUMPDEST PUSH1 0x0 PUSH1 0x40 MLOAD SWAP1 POP SWAP1 JUMP JUMPDEST PUSH1 0x0 DUP1 REVERT JUMPDEST PUSH1 0x0 DUP1 REVERT JUMPDEST PUSH1 0x0 PUSH20 0xFFFFFFFFFFFFFFFFFFFFFFFFFFFFFFFFFFFFFFFF DUP3 AND SWAP1 POP SWAP2 SWAP1 POP JUMP JUMPDEST PUSH1 0x0 PUSH2 0x8FF DUP3 PUSH2 0x8D4 JUMP JUMPDEST SWAP1 POP SWAP2 SWAP1 POP JUMP JUMPDEST PUSH2 0x90F DUP2 PUSH2 0x8F4 JUMP JUMPDEST DUP2 EQ PUSH2 0x91A JUMPI PUSH1 0x0 DUP1 REVERT JUMPDEST POP JUMP JUMPDEST PUSH1 0x0 DUP2 CALLDATALOAD SWAP1 POP PUSH2 0x92C DUP2 PUSH2 0x906 JUMP JUMPDEST SWAP3 SWAP2 POP POP JUMP JUMPDEST PUSH1 0x0 PUSH6 0xFFFFFFFFFFFF DUP3 AND SWAP1 POP SWAP2 SWAP1 POP JUMP JUMPDEST PUSH2 0x94D DUP2 PUSH2 0x932 JUMP JUMPDEST DUP2 EQ PUSH2 0x958 JUMPI PUSH1 0x0 DUP1 REVERT JUMPDEST POP JUMP JUMPDEST PUSH1 0x0 DUP2 CALLDATALOAD SWAP1 POP PUSH2 0x96A DUP2 PUSH2 0x944 JUMP JUMPDEST SWAP3 SWAP2 POP POP JUMP JUMPDEST PUSH1 0x0 DUP1 PUSH1 0x40 DUP4 DUP6 SUB SLT ISZERO PUSH2 0x987 JUMPI PUSH2 0x986 PUSH2 0x8CA JUMP JUMPDEST JUMPDEST PUSH1 0x0 PUSH2 0x995 DUP6 DUP3 DUP7 ADD PUSH2 0x91D JUMP JUMPDEST SWAP3 POP POP PUSH1 0x20 PUSH2 0x9A6 DUP6 DUP3 DUP7 ADD PUSH2 0x95B JUMP JUMPDEST SWAP2 POP POP SWAP3 POP SWAP3 SWAP1 POP JUMP JUMPDEST PUSH2 0x9B9 DUP2 PUSH2 0x8F4 JUMP JUMPDEST DUP3 MSTORE POP POP JUMP JUMPDEST PUSH1 0x0 PUSH1 0x20 DUP3 ADD SWAP1 POP PUSH2 0x9D4 PUSH1 0x0 DUP4 ADD DUP5 PUSH2 0x9B0 JUMP JUMPDEST SWAP3 SWAP2 POP POP JUMP JUMPDEST PUSH1 0x0 DUP1 REVERT JUMPDEST PUSH1 0x0 PUSH1 0x1F NOT PUSH1 0x1F DUP4 ADD AND SWAP1 POP SWAP2 SWAP1 POP JUMP JUMPDEST PUSH32 0x4E487B7100000000000000000000000000000000000000000000000000000000 PUSH1 0x0 MSTORE PUSH1 0x41 PUSH1 0x4 MSTORE PUSH1 0x24 PUSH1 0x0 REVERT JUMPDEST PUSH2 0xA28 DUP3 PUSH2 0x9DF JUMP JUMPDEST DUP2 ADD DUP2 DUP2 LT PUSH8 0xFFFFFFFFFFFFFFFF DUP3 GT OR ISZERO PUSH2 0xA47 JUMPI PUSH2 0xA46 PUSH2 0x9F0 JUMP JUMPDEST JUMPDEST DUP1 PUSH1 0x40 MSTORE POP POP POP JUMP JUMPDEST PUSH1 0x0 PUSH2 0xA5A PUSH2 0x8C0 JUMP JUMPDEST SWAP1 POP PUSH2 0xA66 DUP3 DUP3 PUSH2 0xA1F JUMP JUMPDEST SWAP2 SWAP1 POP JUMP JUMPDEST PUSH1 0x0 PUSH8 0xFFFFFFFFFFFFFFFF DUP3 GT ISZERO PUSH2 0xA86 JUMPI PUSH2 0xA85 PUSH2 0x9F0 JUMP JUMPDEST JUMPDEST PUSH1 0x20 DUP3 MUL SWAP1 POP PUSH1 0x20 DUP2 ADD SWAP1 POP SWAP2 SWAP1 POP JUMP JUMPDEST PUSH1 0x0 DUP1 REVERT JUMPDEST PUSH1 0x0 PUSH2 0xAAF PUSH2 0xAAA DUP5 PUSH2 0xA6B JUMP JUMPDEST PUSH2 0xA50 JUMP JUMPDEST SWAP1 POP DUP1 DUP4 DUP3 MSTORE PUSH1 0x20 DUP3 ADD SWAP1 POP PUSH1 0x20 DUP5 MUL DUP4 ADD DUP6 DUP2 GT ISZERO PUSH2 0xAD2 JUMPI PUSH2 0xAD1 PUSH2 0xA97 JUMP JUMPDEST JUMPDEST DUP4 JUMPDEST DUP2 DUP2 LT ISZERO PUSH2 0xAFB JUMPI DUP1 PUSH2 0xAE7 DUP9 DUP3 PUSH2 0x91D JUMP JUMPDEST DUP5 MSTORE PUSH1 0x20 DUP5 ADD SWAP4 POP POP PUSH1 0x20 DUP2 ADD SWAP1 POP PUSH2 0xAD4 JUMP JUMPDEST POP POP POP SWAP4 SWAP3 POP POP POP JUMP JUMPDEST PUSH1 0x0 DUP3 PUSH1 0x1F DUP4 ADD SLT PUSH2 0xB1A JUMPI PUSH2 0xB19 PUSH2 0x9DA JUMP JUMPDEST JUMPDEST DUP2 CALLDATALOAD PUSH2 0xB2A DUP5 DUP3 PUSH1 0x20 DUP7 ADD PUSH2 0xA9C JUMP JUMPDEST SWAP2 POP POP SWAP3 SWAP2 POP POP JUMP JUMPDEST PUSH1 0x0 DUP1 PUSH1 0x40 DUP4 DUP6 SUB SLT ISZERO PUSH2 0xB4A JUMPI PUSH2 0xB49 PUSH2 0x8CA JUMP JUMPDEST JUMPDEST PUSH1 0x0 DUP4 ADD CALLDATALOAD PUSH8 0xFFFFFFFFFFFFFFFF DUP2 GT ISZERO PUSH2 0xB68 JUMPI PUSH2 0xB67 PUSH2 0x8CF JUMP JUMPDEST JUMPDEST PUSH2 0xB74 DUP6 DUP3 DUP7 ADD PUSH2 0xB05 JUMP JUMPDEST SWAP3 POP POP PUSH1 0x20 PUSH2 0xB85 DUP6 DUP3 DUP7 ADD PUSH2 0x95B JUMP JUMPDEST SWAP2 POP POP SWAP3 POP SWAP3 SWAP1 POP JUMP JUMPDEST PUSH1 0x0 PUSH1 0x20 DUP3 DUP5 SUB SLT ISZERO PUSH2 0xBA5 JUMPI PUSH2 0xBA4 PUSH2 0x8CA JUMP JUMPDEST JUMPDEST PUSH1 0x0 PUSH2 0xBB3 DUP5 DUP3 DUP6 ADD PUSH2 0x91D JUMP JUMPDEST SWAP2 POP POP SWAP3 SWAP2 POP POP JUMP JUMPDEST PUSH2 0xBC5 DUP2 PUSH2 0x932 JUMP JUMPDEST DUP3 MSTORE POP POP JUMP JUMPDEST PUSH1 0x0 PUSH1 0x20 DUP3 ADD SWAP1 POP PUSH2 0xBE0 PUSH1 0x0 DUP4 ADD DUP5 PUSH2 0xBBC JUMP JUMPDEST SWAP3 SWAP2 POP POP JUMP JUMPDEST PUSH1 0x0 DUP2 ISZERO ISZERO SWAP1 POP SWAP2 SWAP1 POP JUMP JUMPDEST PUSH2 0xBFB DUP2 PUSH2 0xBE6 JUMP JUMPDEST DUP3 MSTORE POP POP JUMP JUMPDEST PUSH1 0x0 PUSH1 0x20 DUP3 ADD SWAP1 POP PUSH2 0xC16 PUSH1 0x0 DUP4 ADD DUP5 PUSH2 0xBF2 JUMP JUMPDEST SWAP3 SWAP2 POP POP JUMP JUMPDEST PUSH1 0x0 DUP3 DUP3 MSTORE PUSH1 0x20 DUP3 ADD SWAP1 POP SWAP3 SWAP2 POP POP JUMP JUMPDEST PUSH32 0x557365722069736E27742061206C6973742061646D696E6973747261746F722E PUSH1 0x0 DUP3 ADD MSTORE POP JUMP JUMPDEST PUSH1 0x0 PUSH2 0xC63 PUSH1 0x20 DUP4 PUSH2 0xC1C JUMP JUMPDEST SWAP2 POP PUSH2 0xC6E DUP3 PUSH2 0xC2D JUMP JUMPDEST PUSH1 0x20 DUP3 ADD SWAP1 POP SWAP2 SWAP1 POP JUMP JUMPDEST PUSH1 0x0 PUSH1 0x20 DUP3 ADD SWAP1 POP DUP2 DUP2 SUB PUSH1 0x0 DUP4 ADD MSTORE PUSH2 0xC92 DUP2 PUSH2 0xC56 JUMP JUMPDEST SWAP1 POP SWAP2 SWAP1 POP JUMP JUMPDEST PUSH32 0x4E487B7100000000000000000000000000000000000000000000000000000000 PUSH1 0x0 MSTORE PUSH1 0x32 PUSH1 0x4 MSTORE PUSH1 0x24 PUSH1 0x0 REVERT JUMPDEST PUSH32 0x4E487B7100000000000000000000000000000000000000000000000000000000 PUSH1 0x0 MSTORE PUSH1 0x11 PUSH1 0x4 MSTORE PUSH1 0x24 PUSH1 0x0 REVERT JUMPDEST PUSH1 0x0 DUP2 SWAP1 POP SWAP2 SWAP1 POP JUMP JUMPDEST PUSH1 0x0 PUSH2 0xD0C DUP3 PUSH2 0xCF7 JUMP JUMPDEST SWAP2 POP PUSH32 0xFFFFFFFFFFFFFFFFFFFFFFFFFFFFFFFFFFFFFFFFFFFFFFFFFFFFFFFFFFFFFFFF DUP3 SUB PUSH2 0xD3E JUMPI PUSH2 0xD3D PUSH2 0xCC8 JUMP JUMPDEST JUMPDEST PUSH1 0x1 DUP3 ADD SWAP1 POP SWAP2 SWAP1 POP JUMP JUMPDEST PUSH32 0x4F776E61626C653A206E6577206F776E657220697320746865207A65726F2061 PUSH1 0x0 DUP3 ADD MSTORE PUSH32 0x6464726573730000000000000000000000000000000000000000000000000000 PUSH1 0x20 DUP3 ADD MSTORE POP JUMP JUMPDEST PUSH1 0x0 PUSH2 0xDA5 PUSH1 0x26 DUP4 PUSH2 0xC1C JUMP JUMPDEST SWAP2 POP PUSH2 0xDB0 DUP3 PUSH2 0xD49 JUMP JUMPDEST PUSH1 0x40 DUP3 ADD SWAP1 POP SWAP2 SWAP1 POP JUMP JUMPDEST PUSH1 0x0 PUSH1 0x20 DUP3 ADD SWAP1 POP DUP2 DUP2 SUB PUSH1 0x0 DUP4 ADD MSTORE PUSH2 0xDD4 DUP2 PUSH2 0xD98 JUMP JUMPDEST SWAP1 POP SWAP2 SWAP1 POP JUMP JUMPDEST PUSH32 0x4F776E61626C653A2063616C6C6572206973206E6F7420746865206F776E6572 PUSH1 0x0 DUP3 ADD MSTORE POP JUMP JUMPDEST PUSH1 0x0 PUSH2 0xE11 PUSH1 0x20 DUP4 PUSH2 0xC1C JUMP JUMPDEST SWAP2 POP PUSH2 0xE1C DUP3 PUSH2 0xDDB JUMP JUMPDEST PUSH1 0x20 DUP3 ADD SWAP1 POP SWAP2 SWAP1 POP JUMP JUMPDEST PUSH1 0x0 PUSH1 0x20 DUP3 ADD SWAP1 POP DUP2 DUP2 SUB PUSH1 0x0 DUP4 ADD MSTORE PUSH2 0xE40 DUP2 PUSH2 0xE04 JUMP JUMPDEST SWAP1 POP SWAP2 SWAP1 POP JUMP INVALID LOG2 PUSH5 0x6970667358 0x22 SLT KECCAK256 DUP4 0xDF LOG3 0xDE 0xEE 0xD5 PREVRANDAO KECCAK256 PUSH11 0x6DE255DC75CF904189D432 CALLDATASIZE LT 0xF6 PUSH29 0xFDC7CB731AAF8AAA64736F6C6343000812003300000000000000000000 "
				},
				"gasEstimates": {
					"creation": {
						"codeDepositCost": "741800",
						"executionCost": "infinite",
						"totalCost": "infinite"
					},
					"external": {
						"getRights(address)": "2927",
						"hasRights(address,uint48)": "3174",
						"owner()": "2567",
						"renounceOwnership()": "30421",
						"setMemberRights(address,uint48)": "29537",
						"setMembersRights(address[],uint48)": "infinite",
						"transferOwnership(address)": "30810",
						"updateMemberRights(address,uint48)": "29516",
						"updateMembersRights(address[],uint48)": "infinite"
					}
				},
				"methodIdentifiers": {
					"getRights(address)": "e79f0e96",
					"hasRights(address,uint48)": "f35f0f74",
					"owner()": "8da5cb5b",
					"renounceOwnership()": "715018a6",
					"setMemberRights(address,uint48)": "dee2bdd4",
					"setMembersRights(address[],uint48)": "9c365024",
					"transferOwnership(address)": "f2fde38b",
					"updateMemberRights(address,uint48)": "5a9452f7",
					"updateMembersRights(address[],uint48)": "c76cb0f2"
				}
			},
			"storageLayout": {
				"storage": [
					{
						"astId": 7,
						"contract": "contracts/EnvironmentConfig.sol:EnvironmentConfig",
						"label": "_owner",
						"offset": 0,
						"slot": "0",
						"type": "t_address"
					},
					{
						"astId": 158,
						"contract": "contracts/EnvironmentConfig.sol:EnvironmentConfig",
						"label": "_members",
						"offset": 0,
						"slot": "1",
						"type": "t_mapping(t_address,t_uint48)"
					}
				],
				"types": {
					"t_address": {
						"encoding": "inplace",
						"label": "address",
						"numberOfBytes": "20"
					},
					"t_mapping(t_address,t_uint48)": {
						"encoding": "mapping",
						"key": "t_address",
						"label": "mapping(address => uint48)",
						"numberOfBytes": "32",
						"value": "t_uint48"
					},
					"t_uint48": {
						"encoding": "inplace",
						"label": "uint48",
						"numberOfBytes": "6"
					}
				}
			},
			"userdoc": {
				"kind": "user",
				"methods": {},
				"version": 1
			}
		}
	}
}