{
	"contracts/MyCashToken.sol": {
		"MyCashToken": {
			"abi": [
				{
					"inputs": [
						{
							"internalType": "address",
							"name": "_rights",
							"type": "address"
						}
					],
					"stateMutability": "nonpayable",
					"type": "constructor"
				},
				{
					"anonymous": false,
					"inputs": [
						{
							"indexed": true,
							"internalType": "address",
							"name": "owner",
							"type": "address"
						},
						{
							"indexed": true,
							"internalType": "address",
							"name": "spender",
							"type": "address"
						},
						{
							"indexed": false,
							"internalType": "uint256",
							"name": "value",
							"type": "uint256"
						}
					],
					"name": "Approval",
					"type": "event"
				},
				{
					"anonymous": false,
					"inputs": [
						{
							"indexed": true,
							"internalType": "address",
							"name": "previousOwner",
							"type": "address"
						},
						{
							"indexed": true,
							"internalType": "address",
							"name": "newOwner",
							"type": "address"
						}
					],
					"name": "OwnershipTransferred",
					"type": "event"
				},
				{
					"anonymous": false,
					"inputs": [
						{
							"indexed": false,
							"internalType": "address",
							"name": "account",
							"type": "address"
						}
					],
					"name": "Paused",
					"type": "event"
				},
				{
					"anonymous": false,
					"inputs": [
						{
							"indexed": true,
							"internalType": "address",
							"name": "from",
							"type": "address"
						},
						{
							"indexed": true,
							"internalType": "address",
							"name": "to",
							"type": "address"
						},
						{
							"indexed": false,
							"internalType": "uint256",
							"name": "value",
							"type": "uint256"
						}
					],
					"name": "Transfer",
					"type": "event"
				},
				{
					"anonymous": false,
					"inputs": [
						{
							"indexed": false,
							"internalType": "address",
							"name": "account",
							"type": "address"
						}
					],
					"name": "Unpaused",
					"type": "event"
				},
				{
					"inputs": [
						{
							"internalType": "address",
							"name": "owner",
							"type": "address"
						},
						{
							"internalType": "address",
							"name": "spender",
							"type": "address"
						}
					],
					"name": "allowance",
					"outputs": [
						{
							"internalType": "uint256",
							"name": "",
							"type": "uint256"
						}
					],
					"stateMutability": "view",
					"type": "function"
				},
				{
					"inputs": [
						{
							"internalType": "address",
							"name": "spender",
							"type": "address"
						},
						{
							"internalType": "uint256",
							"name": "amount",
							"type": "uint256"
						}
					],
					"name": "approve",
					"outputs": [
						{
							"internalType": "bool",
							"name": "",
							"type": "bool"
						}
					],
					"stateMutability": "nonpayable",
					"type": "function"
				},
				{
					"inputs": [
						{
							"internalType": "address",
							"name": "account",
							"type": "address"
						}
					],
					"name": "balanceOf",
					"outputs": [
						{
							"internalType": "uint256",
							"name": "",
							"type": "uint256"
						}
					],
					"stateMutability": "view",
					"type": "function"
				},
				{
					"inputs": [
						{
							"internalType": "uint256",
							"name": "amount",
							"type": "uint256"
						}
					],
					"name": "burn",
					"outputs": [],
					"stateMutability": "nonpayable",
					"type": "function"
				},
				{
					"inputs": [
						{
							"internalType": "address",
							"name": "from",
							"type": "address"
						},
						{
							"internalType": "uint256",
							"name": "amount",
							"type": "uint256"
						}
					],
					"name": "burn",
					"outputs": [],
					"stateMutability": "nonpayable",
					"type": "function"
				},
				{
					"inputs": [
						{
							"internalType": "address",
							"name": "account",
							"type": "address"
						},
						{
							"internalType": "uint256",
							"name": "amount",
							"type": "uint256"
						}
					],
					"name": "burnFrom",
					"outputs": [],
					"stateMutability": "nonpayable",
					"type": "function"
				},
				{
					"inputs": [],
					"name": "decimals",
					"outputs": [
						{
							"internalType": "uint8",
							"name": "",
							"type": "uint8"
						}
					],
					"stateMutability": "view",
					"type": "function"
				},
				{
					"inputs": [
						{
							"internalType": "address",
							"name": "spender",
							"type": "address"
						},
						{
							"internalType": "uint256",
							"name": "subtractedValue",
							"type": "uint256"
						}
					],
					"name": "decreaseAllowance",
					"outputs": [
						{
							"internalType": "bool",
							"name": "",
							"type": "bool"
						}
					],
					"stateMutability": "nonpayable",
					"type": "function"
				},
				{
					"inputs": [
						{
							"internalType": "address",
							"name": "spender",
							"type": "address"
						},
						{
							"internalType": "uint256",
							"name": "addedValue",
							"type": "uint256"
						}
					],
					"name": "increaseAllowance",
					"outputs": [
						{
							"internalType": "bool",
							"name": "",
							"type": "bool"
						}
					],
					"stateMutability": "nonpayable",
					"type": "function"
				},
				{
					"inputs": [
						{
							"internalType": "address",
							"name": "to",
							"type": "address"
						},
						{
							"internalType": "uint256",
							"name": "amount",
							"type": "uint256"
						}
					],
					"name": "mint",
					"outputs": [],
					"stateMutability": "nonpayable",
					"type": "function"
				},
				{
					"inputs": [],
					"name": "name",
					"outputs": [
						{
							"internalType": "string",
							"name": "",
							"type": "string"
						}
					],
					"stateMutability": "view",
					"type": "function"
				},
				{
					"inputs": [],
					"name": "owner",
					"outputs": [
						{
							"internalType": "address",
							"name": "",
							"type": "address"
						}
					],
					"stateMutability": "view",
					"type": "function"
				},
				{
					"inputs": [],
					"name": "pause",
					"outputs": [],
					"stateMutability": "nonpayable",
					"type": "function"
				},
				{
					"inputs": [],
					"name": "paused",
					"outputs": [
						{
							"internalType": "bool",
							"name": "",
							"type": "bool"
						}
					],
					"stateMutability": "view",
					"type": "function"
				},
				{
					"inputs": [],
					"name": "renounceOwnership",
					"outputs": [],
					"stateMutability": "nonpayable",
					"type": "function"
				},
				{
					"inputs": [],
					"name": "symbol",
					"outputs": [
						{
							"internalType": "string",
							"name": "",
							"type": "string"
						}
					],
					"stateMutability": "view",
					"type": "function"
				},
				{
					"inputs": [],
					"name": "totalSupply",
					"outputs": [
						{
							"internalType": "uint256",
							"name": "",
							"type": "uint256"
						}
					],
					"stateMutability": "view",
					"type": "function"
				},
				{
					"inputs": [
						{
							"internalType": "address",
							"name": "to",
							"type": "address"
						},
						{
							"internalType": "uint256",
							"name": "amount",
							"type": "uint256"
						}
					],
					"name": "transfer",
					"outputs": [
						{
							"internalType": "bool",
							"name": "",
							"type": "bool"
						}
					],
					"stateMutability": "nonpayable",
					"type": "function"
				},
				{
					"inputs": [
						{
							"internalType": "address",
							"name": "from",
							"type": "address"
						},
						{
							"internalType": "address",
							"name": "to",
							"type": "address"
						},
						{
							"internalType": "uint256",
							"name": "amount",
							"type": "uint256"
						}
					],
					"name": "transferFrom",
					"outputs": [
						{
							"internalType": "bool",
							"name": "",
							"type": "bool"
						}
					],
					"stateMutability": "nonpayable",
					"type": "function"
				},
				{
					"inputs": [
						{
							"internalType": "address",
							"name": "newOwner",
							"type": "address"
						}
					],
					"name": "transferOwnership",
					"outputs": [],
					"stateMutability": "nonpayable",
					"type": "function"
				},
				{
					"inputs": [],
					"name": "unpause",
					"outputs": [],
					"stateMutability": "nonpayable",
					"type": "function"
				}
			],
			"devdoc": {
				"kind": "dev",
				"methods": {
					"allowance(address,address)": {
						"details": "See {IERC20-allowance}."
					},
					"approve(address,uint256)": {
						"details": "See {IERC20-approve}. NOTE: If `amount` is the maximum `uint256`, the allowance is not updated on `transferFrom`. This is semantically equivalent to an infinite approval. Requirements: - `spender` cannot be the zero address."
					},
					"balanceOf(address)": {
						"details": "See {IERC20-balanceOf}."
					},
					"burn(uint256)": {
						"details": "Destroys `amount` tokens from the caller. See {ERC20-_burn}."
					},
					"burnFrom(address,uint256)": {
						"details": "Destroys `amount` tokens from `account`, deducting from the caller's allowance. See {ERC20-_burn} and {ERC20-allowance}. Requirements: - the caller must have allowance for ``accounts``'s tokens of at least `amount`."
					},
					"decimals()": {
						"details": "Returns the number of decimals used to get its user representation. For example, if `decimals` equals `2`, a balance of `505` tokens should be displayed to a user as `5.05` (`505 / 10 ** 2`). Tokens usually opt for a value of 18, imitating the relationship between Ether and Wei. This is the value {ERC20} uses, unless this function is overridden; NOTE: This information is only used for _display_ purposes: it in no way affects any of the arithmetic of the contract, including {IERC20-balanceOf} and {IERC20-transfer}."
					},
					"decreaseAllowance(address,uint256)": {
						"details": "Atomically decreases the allowance granted to `spender` by the caller. This is an alternative to {approve} that can be used as a mitigation for problems described in {IERC20-approve}. Emits an {Approval} event indicating the updated allowance. Requirements: - `spender` cannot be the zero address. - `spender` must have allowance for the caller of at least `subtractedValue`."
					},
					"increaseAllowance(address,uint256)": {
						"details": "Atomically increases the allowance granted to `spender` by the caller. This is an alternative to {approve} that can be used as a mitigation for problems described in {IERC20-approve}. Emits an {Approval} event indicating the updated allowance. Requirements: - `spender` cannot be the zero address."
					},
					"name()": {
						"details": "Returns the name of the token."
					},
					"owner()": {
						"details": "Returns the address of the current owner."
					},
					"paused()": {
						"details": "Returns true if the contract is paused, and false otherwise."
					},
					"renounceOwnership()": {
						"details": "Leaves the contract without owner. It will not be possible to call `onlyOwner` functions anymore. Can only be called by the current owner. NOTE: Renouncing ownership will leave the contract without an owner, thereby removing any functionality that is only available to the owner."
					},
					"symbol()": {
						"details": "Returns the symbol of the token, usually a shorter version of the name."
					},
					"totalSupply()": {
						"details": "See {IERC20-totalSupply}."
					},
					"transfer(address,uint256)": {
						"details": "See {IERC20-transfer}. Requirements: - `to` cannot be the zero address. - the caller must have a balance of at least `amount`."
					},
					"transferFrom(address,address,uint256)": {
						"details": "See {IERC20-transferFrom}. Emits an {Approval} event indicating the updated allowance. This is not required by the EIP. See the note at the beginning of {ERC20}. NOTE: Does not update the allowance if the current allowance is the maximum `uint256`. Requirements: - `from` and `to` cannot be the zero address. - `from` must have a balance of at least `amount`. - the caller must have allowance for ``from``'s tokens of at least `amount`."
					},
					"transferOwnership(address)": {
						"details": "Transfers ownership of the contract to a new account (`newOwner`). Can only be called by the current owner."
					}
				},
				"version": 1
			},
			"evm": {
				"assembly": "    /* \"contracts/MyCashToken.sol\":331:1888  contract MyCashToken is ERC20, ERC20Burnable, Pausable, Ownable {... */\n  mstore(0x40, 0x80)\n    /* \"contracts/MyCashToken.sol\":431:560  constructor(address _rights) ERC20(\"Digital Stablecoin Based on PLN\", \"ePLN\") {... */\n  callvalue\n  dup1\n  iszero\n  tag_1\n  jumpi\n  0x00\n  dup1\n  revert\ntag_1:\n  pop\n  mload(0x40)\n  sub(codesize, bytecodeSize)\n  dup1\n  bytecodeSize\n  dup4\n  codecopy\n  dup2\n  dup2\n  add\n  0x40\n  mstore\n  dup2\n  add\n  swap1\n  tag_2\n  swap2\n  swap1\n  tag_3\n  jump\t// in\ntag_2:\n    /* \"@openzeppelin/contracts/token/ERC20/ERC20.sol\":1976:2089  constructor(string memory name_, string memory symbol_) {... */\n  mload(0x40)\n  dup1\n  0x40\n  add\n  0x40\n  mstore\n  dup1\n  0x1f\n  dup2\n  mstore\n  0x20\n  add\n  0x4469676974616c20537461626c65636f696e204261736564206f6e20504c4e00\n  dup2\n  mstore\n  pop\n  mload(0x40)\n  dup1\n  0x40\n  add\n  0x40\n  mstore\n  dup1\n  0x04\n  dup2\n  mstore\n  0x20\n  add\n  0x65504c4e00000000000000000000000000000000000000000000000000000000\n  dup2\n  mstore\n  pop\n    /* \"@openzeppelin/contracts/token/ERC20/ERC20.sol\":2050:2055  name_ */\n  dup2\n    /* \"@openzeppelin/contracts/token/ERC20/ERC20.sol\":2042:2047  _name */\n  0x03\n    /* \"@openzeppelin/contracts/token/ERC20/ERC20.sol\":2042:2055  _name = name_ */\n  swap1\n  dup1\n  mload\n  swap1\n  0x20\n  add\n  swap1\n  tag_9\n  swap3\n  swap2\n  swap1\n  tag_10\n  jump\t// in\ntag_9:\n  pop\n    /* \"@openzeppelin/contracts/token/ERC20/ERC20.sol\":2075:2082  symbol_ */\n  dup1\n    /* \"@openzeppelin/contracts/token/ERC20/ERC20.sol\":2065:2072  _symbol */\n  0x04\n    /* \"@openzeppelin/contracts/token/ERC20/ERC20.sol\":2065:2082  _symbol = symbol_ */\n  swap1\n  dup1\n  mload\n  swap1\n  0x20\n  add\n  swap1\n  tag_11\n  swap3\n  swap2\n  swap1\n  tag_10\n  jump\t// in\ntag_11:\n  pop\n    /* \"@openzeppelin/contracts/token/ERC20/ERC20.sol\":1976:2089  constructor(string memory name_, string memory symbol_) {... */\n  pop\n  pop\n    /* \"@openzeppelin/contracts/security/Pausable.sol\":1006:1011  false */\n  0x00\n    /* \"@openzeppelin/contracts/security/Pausable.sol\":996:1003  _paused */\n  0x05\n  0x00\n    /* \"@openzeppelin/contracts/security/Pausable.sol\":996:1011  _paused = false */\n  0x0100\n  exp\n  dup2\n  sload\n  dup2\n  0xff\n  mul\n  not\n  and\n  swap1\n  dup4\n  iszero\n  iszero\n  mul\n  or\n  swap1\n  sstore\n  pop\n    /* \"@openzeppelin/contracts/access/Ownable.sol\":936:968  _transferOwnership(_msgSender()) */\n  tag_14\n    /* \"@openzeppelin/contracts/access/Ownable.sol\":955:967  _msgSender() */\n  tag_15\n    /* \"@openzeppelin/contracts/access/Ownable.sol\":955:965  _msgSender */\n  shl(0x20, tag_16)\n    /* \"@openzeppelin/contracts/access/Ownable.sol\":955:967  _msgSender() */\n  0x20\n  shr\n  jump\t// in\ntag_15:\n    /* \"@openzeppelin/contracts/access/Ownable.sol\":936:954  _transferOwnership */\n  shl(0x20, tag_17)\n    /* \"@openzeppelin/contracts/access/Ownable.sol\":936:968  _transferOwnership(_msgSender()) */\n  0x20\n  shr\n  jump\t// in\ntag_14:\n    /* \"contracts/MyCashToken.sol\":545:552  _rights */\n  dup1\n    /* \"contracts/MyCashToken.sol\":519:525  rights */\n  0x06\n  0x00\n    /* \"contracts/MyCashToken.sol\":519:553  rights = MembershipRights(_rights) */\n  0x0100\n  exp\n  dup2\n  sload\n  dup2\n  0xffffffffffffffffffffffffffffffffffffffff\n  mul\n  not\n  and\n  swap1\n  dup4\n  0xffffffffffffffffffffffffffffffffffffffff\n  and\n  mul\n  or\n  swap1\n  sstore\n  pop\n    /* \"contracts/MyCashToken.sol\":431:560  constructor(address _rights) ERC20(\"Digital Stablecoin Based on PLN\", \"ePLN\") {... */\n  pop\n    /* \"contracts/MyCashToken.sol\":331:1888  contract MyCashToken is ERC20, ERC20Burnable, Pausable, Ownable {... */\n  jump(tag_19)\n    /* \"@openzeppelin/contracts/utils/Context.sol\":640:736  function _msgSender() internal view virtual returns (address) {... */\ntag_16:\n    /* \"@openzeppelin/contracts/utils/Context.sol\":693:700  address */\n  0x00\n    /* \"@openzeppelin/contracts/utils/Context.sol\":719:729  msg.sender */\n  caller\n    /* \"@openzeppelin/contracts/utils/Context.sol\":712:729  return msg.sender */\n  swap1\n  pop\n    /* \"@openzeppelin/contracts/utils/Context.sol\":640:736  function _msgSender() internal view virtual returns (address) {... */\n  swap1\n  jump\t// out\n    /* \"@openzeppelin/contracts/access/Ownable.sol\":2433:2620  function _transferOwnership(address newOwner) internal virtual {... */\ntag_17:\n    /* \"@openzeppelin/contracts/access/Ownable.sol\":2506:2522  address oldOwner */\n  0x00\n    /* \"@openzeppelin/contracts/access/Ownable.sol\":2525:2531  _owner */\n  0x05\n  0x01\n  swap1\n  sload\n  swap1\n  0x0100\n  exp\n  swap1\n  div\n  0xffffffffffffffffffffffffffffffffffffffff\n  and\n    /* \"@openzeppelin/contracts/access/Ownable.sol\":2506:2531  address oldOwner = _owner */\n  swap1\n  pop\n    /* \"@openzeppelin/contracts/access/Ownable.sol\":2550:2558  newOwner */\n  dup2\n    /* \"@openzeppelin/contracts/access/Ownable.sol\":2541:2547  _owner */\n  0x05\n  0x01\n    /* \"@openzeppelin/contracts/access/Ownable.sol\":2541:2558  _owner = newOwner */\n  0x0100\n  exp\n  dup2\n  sload\n  dup2\n  0xffffffffffffffffffffffffffffffffffffffff\n  mul\n  not\n  and\n  swap1\n  dup4\n  0xffffffffffffffffffffffffffffffffffffffff\n  and\n  mul\n  or\n  swap1\n  sstore\n  pop\n    /* \"@openzeppelin/contracts/access/Ownable.sol\":2604:2612  newOwner */\n  dup2\n    /* \"@openzeppelin/contracts/access/Ownable.sol\":2573:2613  OwnershipTransferred(oldOwner, newOwner) */\n  0xffffffffffffffffffffffffffffffffffffffff\n  and\n    /* \"@openzeppelin/contracts/access/Ownable.sol\":2594:2602  oldOwner */\n  dup2\n    /* \"@openzeppelin/contracts/access/Ownable.sol\":2573:2613  OwnershipTransferred(oldOwner, newOwner) */\n  0xffffffffffffffffffffffffffffffffffffffff\n  and\n  0x8be0079c531659141344cd1fd0a4f28419497f9722a3daafe3b4186f6b6457e0\n  mload(0x40)\n  mload(0x40)\n  dup1\n  swap2\n  sub\n  swap1\n  log3\n    /* \"@openzeppelin/contracts/access/Ownable.sol\":2496:2620  {... */\n  pop\n    /* \"@openzeppelin/contracts/access/Ownable.sol\":2433:2620  function _transferOwnership(address newOwner) internal virtual {... */\n  pop\n  jump\t// out\n    /* \"contracts/MyCashToken.sol\":331:1888  contract MyCashToken is ERC20, ERC20Burnable, Pausable, Ownable {... */\ntag_10:\n  dup3\n  dup1\n  sload\n  tag_22\n  swap1\n  tag_23\n  jump\t// in\ntag_22:\n  swap1\n  0x00\n  mstore\n  keccak256(0x00, 0x20)\n  swap1\n  0x1f\n  add\n  0x20\n  swap1\n  div\n  dup2\n  add\n  swap3\n  dup3\n  tag_25\n  jumpi\n  0x00\n  dup6\n  sstore\n  jump(tag_24)\ntag_25:\n  dup3\n  0x1f\n  lt\n  tag_26\n  jumpi\n  dup1\n  mload\n  not(0xff)\n  and\n  dup4\n  dup1\n  add\n  or\n  dup6\n  sstore\n  jump(tag_24)\ntag_26:\n  dup3\n  dup1\n  add\n  0x01\n  add\n  dup6\n  sstore\n  dup3\n  iszero\n  tag_24\n  jumpi\n  swap2\n  dup3\n  add\ntag_27:\n  dup3\n  dup2\n  gt\n  iszero\n  tag_28\n  jumpi\n  dup3\n  mload\n  dup3\n  sstore\n  swap2\n  0x20\n  add\n  swap2\n  swap1\n  0x01\n  add\n  swap1\n  jump(tag_27)\ntag_28:\ntag_24:\n  pop\n  swap1\n  pop\n  tag_29\n  swap2\n  swap1\n  tag_30\n  jump\t// in\ntag_29:\n  pop\n  swap1\n  jump\t// out\ntag_30:\ntag_31:\n  dup1\n  dup3\n  gt\n  iszero\n  tag_32\n  jumpi\n  0x00\n  dup2\n  0x00\n  swap1\n  sstore\n  pop\n  0x01\n  add\n  jump(tag_31)\ntag_32:\n  pop\n  swap1\n  jump\t// out\n    /* \"#utility.yul\":88:205   */\ntag_34:\n    /* \"#utility.yul\":197:198   */\n  0x00\n    /* \"#utility.yul\":194:195   */\n  dup1\n    /* \"#utility.yul\":187:199   */\n  revert\n    /* \"#utility.yul\":334:460   */\ntag_36:\n    /* \"#utility.yul\":371:378   */\n  0x00\n    /* \"#utility.yul\":411:453   */\n  0xffffffffffffffffffffffffffffffffffffffff\n    /* \"#utility.yul\":404:409   */\n  dup3\n    /* \"#utility.yul\":400:454   */\n  and\n    /* \"#utility.yul\":389:454   */\n  swap1\n  pop\n    /* \"#utility.yul\":334:460   */\n  swap2\n  swap1\n  pop\n  jump\t// out\n    /* \"#utility.yul\":466:562   */\ntag_37:\n    /* \"#utility.yul\":503:510   */\n  0x00\n    /* \"#utility.yul\":532:556   */\n  tag_47\n    /* \"#utility.yul\":550:555   */\n  dup3\n    /* \"#utility.yul\":532:556   */\n  tag_36\n  jump\t// in\ntag_47:\n    /* \"#utility.yul\":521:556   */\n  swap1\n  pop\n    /* \"#utility.yul\":466:562   */\n  swap2\n  swap1\n  pop\n  jump\t// out\n    /* \"#utility.yul\":568:690   */\ntag_38:\n    /* \"#utility.yul\":641:665   */\n  tag_49\n    /* \"#utility.yul\":659:664   */\n  dup2\n    /* \"#utility.yul\":641:665   */\n  tag_37\n  jump\t// in\ntag_49:\n    /* \"#utility.yul\":634:639   */\n  dup2\n    /* \"#utility.yul\":631:666   */\n  eq\n    /* \"#utility.yul\":621:684   */\n  tag_50\n  jumpi\n    /* \"#utility.yul\":680:681   */\n  0x00\n    /* \"#utility.yul\":677:678   */\n  dup1\n    /* \"#utility.yul\":670:682   */\n  revert\n    /* \"#utility.yul\":621:684   */\ntag_50:\n    /* \"#utility.yul\":568:690   */\n  pop\n  jump\t// out\n    /* \"#utility.yul\":696:839   */\ntag_39:\n    /* \"#utility.yul\":753:758   */\n  0x00\n    /* \"#utility.yul\":784:790   */\n  dup2\n    /* \"#utility.yul\":778:791   */\n  mload\n    /* \"#utility.yul\":769:791   */\n  swap1\n  pop\n    /* \"#utility.yul\":800:833   */\n  tag_52\n    /* \"#utility.yul\":827:832   */\n  dup2\n    /* \"#utility.yul\":800:833   */\n  tag_38\n  jump\t// in\ntag_52:\n    /* \"#utility.yul\":696:839   */\n  swap3\n  swap2\n  pop\n  pop\n  jump\t// out\n    /* \"#utility.yul\":845:1196   */\ntag_3:\n    /* \"#utility.yul\":915:921   */\n  0x00\n    /* \"#utility.yul\":964:966   */\n  0x20\n    /* \"#utility.yul\":952:961   */\n  dup3\n    /* \"#utility.yul\":943:950   */\n  dup5\n    /* \"#utility.yul\":939:962   */\n  sub\n    /* \"#utility.yul\":935:967   */\n  slt\n    /* \"#utility.yul\":932:1051   */\n  iszero\n  tag_54\n  jumpi\n    /* \"#utility.yul\":970:1049   */\n  tag_55\n  tag_34\n  jump\t// in\ntag_55:\n    /* \"#utility.yul\":932:1051   */\ntag_54:\n    /* \"#utility.yul\":1090:1091   */\n  0x00\n    /* \"#utility.yul\":1115:1179   */\n  tag_56\n    /* \"#utility.yul\":1171:1178   */\n  dup5\n    /* \"#utility.yul\":1162:1168   */\n  dup3\n    /* \"#utility.yul\":1151:1160   */\n  dup6\n    /* \"#utility.yul\":1147:1169   */\n  add\n    /* \"#utility.yul\":1115:1179   */\n  tag_39\n  jump\t// in\ntag_56:\n    /* \"#utility.yul\":1105:1179   */\n  swap2\n  pop\n    /* \"#utility.yul\":1061:1189   */\n  pop\n    /* \"#utility.yul\":845:1196   */\n  swap3\n  swap2\n  pop\n  pop\n  jump\t// out\n    /* \"#utility.yul\":1202:1382   */\ntag_40:\n    /* \"#utility.yul\":1250:1327   */\n  0x4e487b7100000000000000000000000000000000000000000000000000000000\n    /* \"#utility.yul\":1247:1248   */\n  0x00\n    /* \"#utility.yul\":1240:1328   */\n  mstore\n    /* \"#utility.yul\":1347:1351   */\n  0x22\n    /* \"#utility.yul\":1344:1345   */\n  0x04\n    /* \"#utility.yul\":1337:1352   */\n  mstore\n    /* \"#utility.yul\":1371:1375   */\n  0x24\n    /* \"#utility.yul\":1368:1369   */\n  0x00\n    /* \"#utility.yul\":1361:1376   */\n  revert\n    /* \"#utility.yul\":1388:1708   */\ntag_23:\n    /* \"#utility.yul\":1432:1438   */\n  0x00\n    /* \"#utility.yul\":1469:1470   */\n  0x02\n    /* \"#utility.yul\":1463:1467   */\n  dup3\n    /* \"#utility.yul\":1459:1471   */\n  div\n    /* \"#utility.yul\":1449:1471   */\n  swap1\n  pop\n    /* \"#utility.yul\":1516:1517   */\n  0x01\n    /* \"#utility.yul\":1510:1514   */\n  dup3\n    /* \"#utility.yul\":1506:1518   */\n  and\n    /* \"#utility.yul\":1537:1555   */\n  dup1\n    /* \"#utility.yul\":1527:1608   */\n  tag_59\n  jumpi\n    /* \"#utility.yul\":1593:1597   */\n  0x7f\n    /* \"#utility.yul\":1585:1591   */\n  dup3\n    /* \"#utility.yul\":1581:1598   */\n  and\n    /* \"#utility.yul\":1571:1598   */\n  swap2\n  pop\n    /* \"#utility.yul\":1527:1608   */\ntag_59:\n    /* \"#utility.yul\":1655:1657   */\n  0x20\n    /* \"#utility.yul\":1647:1653   */\n  dup3\n    /* \"#utility.yul\":1644:1658   */\n  lt\n    /* \"#utility.yul\":1624:1642   */\n  dup2\n    /* \"#utility.yul\":1621:1659   */\n  eq\n    /* \"#utility.yul\":1618:1702   */\n  iszero\n  tag_60\n  jumpi\n    /* \"#utility.yul\":1674:1692   */\n  tag_61\n  tag_40\n  jump\t// in\ntag_61:\n    /* \"#utility.yul\":1618:1702   */\ntag_60:\n    /* \"#utility.yul\":1439:1708   */\n  pop\n    /* \"#utility.yul\":1388:1708   */\n  swap2\n  swap1\n  pop\n  jump\t// out\n    /* \"contracts/MyCashToken.sol\":331:1888  contract MyCashToken is ERC20, ERC20Burnable, Pausable, Ownable {... */\ntag_19:\n  dataSize(sub_0)\n  dup1\n  dataOffset(sub_0)\n  0x00\n  codecopy\n  0x00\n  return\nstop\n\nsub_0: assembly {\n        /* \"contracts/MyCashToken.sol\":331:1888  contract MyCashToken is ERC20, ERC20Burnable, Pausable, Ownable {... */\n      mstore(0x40, 0x80)\n      callvalue\n      dup1\n      iszero\n      tag_1\n      jumpi\n      0x00\n      dup1\n      revert\n    tag_1:\n      pop\n      jumpi(tag_2, lt(calldatasize, 0x04))\n      shr(0xe0, calldataload(0x00))\n      dup1\n      0x70a08231\n      gt\n      tag_24\n      jumpi\n      dup1\n      0x95d89b41\n      gt\n      tag_25\n      jumpi\n      dup1\n      0x95d89b41\n      eq\n      tag_18\n      jumpi\n      dup1\n      0x9dc29fac\n      eq\n      tag_19\n      jumpi\n      dup1\n      0xa457c2d7\n      eq\n      tag_20\n      jumpi\n      dup1\n      0xa9059cbb\n      eq\n      tag_21\n      jumpi\n      dup1\n      0xdd62ed3e\n      eq\n      tag_22\n      jumpi\n      dup1\n      0xf2fde38b\n      eq\n      tag_23\n      jumpi\n      jump(tag_2)\n    tag_25:\n      dup1\n      0x70a08231\n      eq\n      tag_13\n      jumpi\n      dup1\n      0x715018a6\n      eq\n      tag_14\n      jumpi\n      dup1\n      0x79cc6790\n      eq\n      tag_15\n      jumpi\n      dup1\n      0x8456cb59\n      eq\n      tag_16\n      jumpi\n      dup1\n      0x8da5cb5b\n      eq\n      tag_17\n      jumpi\n      jump(tag_2)\n    tag_24:\n      dup1\n      0x39509351\n      gt\n      tag_26\n      jumpi\n      dup1\n      0x39509351\n      eq\n      tag_8\n      jumpi\n      dup1\n      0x3f4ba83a\n      eq\n      tag_9\n      jumpi\n      dup1\n      0x40c10f19\n      eq\n      tag_10\n      jumpi\n      dup1\n      0x42966c68\n      eq\n      tag_11\n      jumpi\n      dup1\n      0x5c975abb\n      eq\n      tag_12\n      jumpi\n      jump(tag_2)\n    tag_26:\n      dup1\n      0x06fdde03\n      eq\n      tag_3\n      jumpi\n      dup1\n      0x095ea7b3\n      eq\n      tag_4\n      jumpi\n      dup1\n      0x18160ddd\n      eq\n      tag_5\n      jumpi\n      dup1\n      0x23b872dd\n      eq\n      tag_6\n      jumpi\n      dup1\n      0x313ce567\n      eq\n      tag_7\n      jumpi\n    tag_2:\n      0x00\n      dup1\n      revert\n        /* \"@openzeppelin/contracts/token/ERC20/ERC20.sol\":2154:2252  function name() public view virtual override returns (string memory) {... */\n    tag_3:\n      tag_27\n      tag_28\n      jump\t// in\n    tag_27:\n      mload(0x40)\n      tag_29\n      swap2\n      swap1\n      tag_30\n      jump\t// in\n    tag_29:\n      mload(0x40)\n      dup1\n      swap2\n      sub\n      swap1\n      return\n        /* \"@openzeppelin/contracts/token/ERC20/ERC20.sol\":4431:4628  function approve(address spender, uint256 amount) public virtual override returns (bool) {... */\n    tag_4:\n      tag_31\n      0x04\n      dup1\n      calldatasize\n      sub\n      dup2\n      add\n      swap1\n      tag_32\n      swap2\n      swap1\n      tag_33\n      jump\t// in\n    tag_32:\n      tag_34\n      jump\t// in\n    tag_31:\n      mload(0x40)\n      tag_35\n      swap2\n      swap1\n      tag_36\n      jump\t// in\n    tag_35:\n      mload(0x40)\n      dup1\n      swap2\n      sub\n      swap1\n      return\n        /* \"@openzeppelin/contracts/token/ERC20/ERC20.sol\":3242:3348  function totalSupply() public view virtual override returns (uint256) {... */\n    tag_5:\n      tag_37\n      tag_38\n      jump\t// in\n    tag_37:\n      mload(0x40)\n      tag_39\n      swap2\n      swap1\n      tag_40\n      jump\t// in\n    tag_39:\n      mload(0x40)\n      dup1\n      swap2\n      sub\n      swap1\n      return\n        /* \"@openzeppelin/contracts/token/ERC20/ERC20.sol\":5190:5476  function transferFrom(... */\n    tag_6:\n      tag_41\n      0x04\n      dup1\n      calldatasize\n      sub\n      dup2\n      add\n      swap1\n      tag_42\n      swap2\n      swap1\n      tag_43\n      jump\t// in\n    tag_42:\n      tag_44\n      jump\t// in\n    tag_41:\n      mload(0x40)\n      tag_45\n      swap2\n      swap1\n      tag_36\n      jump\t// in\n    tag_45:\n      mload(0x40)\n      dup1\n      swap2\n      sub\n      swap1\n      return\n        /* \"contracts/MyCashToken.sol\":566:656  function decimals() public view virtual override returns (uint8) {... */\n    tag_7:\n      tag_46\n      tag_47\n      jump\t// in\n    tag_46:\n      mload(0x40)\n      tag_48\n      swap2\n      swap1\n      tag_49\n      jump\t// in\n    tag_48:\n      mload(0x40)\n      dup1\n      swap2\n      sub\n      swap1\n      return\n        /* \"@openzeppelin/contracts/token/ERC20/ERC20.sol\":5871:6105  function increaseAllowance(address spender, uint256 addedValue) public virtual returns (bool) {... */\n    tag_8:\n      tag_50\n      0x04\n      dup1\n      calldatasize\n      sub\n      dup2\n      add\n      swap1\n      tag_51\n      swap2\n      swap1\n      tag_33\n      jump\t// in\n    tag_51:\n      tag_52\n      jump\t// in\n    tag_50:\n      mload(0x40)\n      tag_53\n      swap2\n      swap1\n      tag_36\n      jump\t// in\n    tag_53:\n      mload(0x40)\n      dup1\n      swap2\n      sub\n      swap1\n      return\n        /* \"contracts/MyCashToken.sol\":731:794  function unpause() public onlyOwner {... */\n    tag_9:\n      tag_54\n      tag_55\n      jump\t// in\n    tag_54:\n      stop\n        /* \"contracts/MyCashToken.sol\":800:1180  function mint(address to, uint256 amount) public {... */\n    tag_10:\n      tag_56\n      0x04\n      dup1\n      calldatasize\n      sub\n      dup2\n      add\n      swap1\n      tag_57\n      swap2\n      swap1\n      tag_33\n      jump\t// in\n    tag_57:\n      tag_58\n      jump\t// in\n    tag_56:\n      stop\n        /* \"@openzeppelin/contracts/token/ERC20/extensions/ERC20Burnable.sol\":578:667  function burn(uint256 amount) public virtual {... */\n    tag_11:\n      tag_59\n      0x04\n      dup1\n      calldatasize\n      sub\n      dup2\n      add\n      swap1\n      tag_60\n      swap2\n      swap1\n      tag_61\n      jump\t// in\n    tag_60:\n      tag_62\n      jump\t// in\n    tag_59:\n      stop\n        /* \"@openzeppelin/contracts/security/Pausable.sol\":1615:1699  function paused() public view virtual returns (bool) {... */\n    tag_12:\n      tag_63\n      tag_64\n      jump\t// in\n    tag_63:\n      mload(0x40)\n      tag_65\n      swap2\n      swap1\n      tag_36\n      jump\t// in\n    tag_65:\n      mload(0x40)\n      dup1\n      swap2\n      sub\n      swap1\n      return\n        /* \"@openzeppelin/contracts/token/ERC20/ERC20.sol\":3406:3531  function balanceOf(address account) public view virtual override returns (uint256) {... */\n    tag_13:\n      tag_66\n      0x04\n      dup1\n      calldatasize\n      sub\n      dup2\n      add\n      swap1\n      tag_67\n      swap2\n      swap1\n      tag_68\n      jump\t// in\n    tag_67:\n      tag_69\n      jump\t// in\n    tag_66:\n      mload(0x40)\n      tag_70\n      swap2\n      swap1\n      tag_40\n      jump\t// in\n    tag_70:\n      mload(0x40)\n      dup1\n      swap2\n      sub\n      swap1\n      return\n        /* \"@openzeppelin/contracts/access/Ownable.sol\":1831:1932  function renounceOwnership() public virtual onlyOwner {... */\n    tag_14:\n      tag_71\n      tag_72\n      jump\t// in\n    tag_71:\n      stop\n        /* \"@openzeppelin/contracts/token/ERC20/extensions/ERC20Burnable.sol\":973:1134  function burnFrom(address account, uint256 amount) public virtual {... */\n    tag_15:\n      tag_73\n      0x04\n      dup1\n      calldatasize\n      sub\n      dup2\n      add\n      swap1\n      tag_74\n      swap2\n      swap1\n      tag_33\n      jump\t// in\n    tag_74:\n      tag_75\n      jump\t// in\n    tag_73:\n      stop\n        /* \"contracts/MyCashToken.sol\":666:725  function pause() public onlyOwner {... */\n    tag_16:\n      tag_76\n      tag_77\n      jump\t// in\n    tag_76:\n      stop\n        /* \"@openzeppelin/contracts/access/Ownable.sol\":1201:1286  function owner() public view virtual returns (address) {... */\n    tag_17:\n      tag_78\n      tag_79\n      jump\t// in\n    tag_78:\n      mload(0x40)\n      tag_80\n      swap2\n      swap1\n      tag_81\n      jump\t// in\n    tag_80:\n      mload(0x40)\n      dup1\n      swap2\n      sub\n      swap1\n      return\n        /* \"@openzeppelin/contracts/token/ERC20/ERC20.sol\":2365:2467  function symbol() public view virtual override returns (string memory) {... */\n    tag_18:\n      tag_82\n      tag_83\n      jump\t// in\n    tag_82:\n      mload(0x40)\n      tag_84\n      swap2\n      swap1\n      tag_30\n      jump\t// in\n    tag_84:\n      mload(0x40)\n      dup1\n      swap2\n      sub\n      swap1\n      return\n        /* \"contracts/MyCashToken.sol\":1186:1476  function burn(address from, uint256 amount) public onlyOwner {... */\n    tag_19:\n      tag_85\n      0x04\n      dup1\n      calldatasize\n      sub\n      dup2\n      add\n      swap1\n      tag_86\n      swap2\n      swap1\n      tag_33\n      jump\t// in\n    tag_86:\n      tag_87\n      jump\t// in\n    tag_85:\n      stop\n        /* \"@openzeppelin/contracts/token/ERC20/ERC20.sol\":6592:7019  function decreaseAllowance(address spender, uint256 subtractedValue) public virtual returns (bool) {... */\n    tag_20:\n      tag_88\n      0x04\n      dup1\n      calldatasize\n      sub\n      dup2\n      add\n      swap1\n      tag_89\n      swap2\n      swap1\n      tag_33\n      jump\t// in\n    tag_89:\n      tag_90\n      jump\t// in\n    tag_88:\n      mload(0x40)\n      tag_91\n      swap2\n      swap1\n      tag_36\n      jump\t// in\n    tag_91:\n      mload(0x40)\n      dup1\n      swap2\n      sub\n      swap1\n      return\n        /* \"@openzeppelin/contracts/token/ERC20/ERC20.sol\":3727:3916  function transfer(address to, uint256 amount) public virtual override returns (bool) {... */\n    tag_21:\n      tag_92\n      0x04\n      dup1\n      calldatasize\n      sub\n      dup2\n      add\n      swap1\n      tag_93\n      swap2\n      swap1\n      tag_33\n      jump\t// in\n    tag_93:\n      tag_94\n      jump\t// in\n    tag_92:\n      mload(0x40)\n      tag_95\n      swap2\n      swap1\n      tag_36\n      jump\t// in\n    tag_95:\n      mload(0x40)\n      dup1\n      swap2\n      sub\n      swap1\n      return\n        /* \"@openzeppelin/contracts/token/ERC20/ERC20.sol\":3974:4123  function allowance(address owner, address spender) public view virtual override returns (uint256) {... */\n    tag_22:\n      tag_96\n      0x04\n      dup1\n      calldatasize\n      sub\n      dup2\n      add\n      swap1\n      tag_97\n      swap2\n      swap1\n      tag_98\n      jump\t// in\n    tag_97:\n      tag_99\n      jump\t// in\n    tag_96:\n      mload(0x40)\n      tag_100\n      swap2\n      swap1\n      tag_40\n      jump\t// in\n    tag_100:\n      mload(0x40)\n      dup1\n      swap2\n      sub\n      swap1\n      return\n        /* \"@openzeppelin/contracts/access/Ownable.sol\":2081:2279  function transferOwnership(address newOwner) public virtual onlyOwner {... */\n    tag_23:\n      tag_101\n      0x04\n      dup1\n      calldatasize\n      sub\n      dup2\n      add\n      swap1\n      tag_102\n      swap2\n      swap1\n      tag_68\n      jump\t// in\n    tag_102:\n      tag_103\n      jump\t// in\n    tag_101:\n      stop\n        /* \"@openzeppelin/contracts/token/ERC20/ERC20.sol\":2154:2252  function name() public view virtual override returns (string memory) {... */\n    tag_28:\n        /* \"@openzeppelin/contracts/token/ERC20/ERC20.sol\":2208:2221  string memory */\n      0x60\n        /* \"@openzeppelin/contracts/token/ERC20/ERC20.sol\":2240:2245  _name */\n      0x03\n        /* \"@openzeppelin/contracts/token/ERC20/ERC20.sol\":2233:2245  return _name */\n      dup1\n      sload\n      tag_105\n      swap1\n      tag_106\n      jump\t// in\n    tag_105:\n      dup1\n      0x1f\n      add\n      0x20\n      dup1\n      swap2\n      div\n      mul\n      0x20\n      add\n      mload(0x40)\n      swap1\n      dup2\n      add\n      0x40\n      mstore\n      dup1\n      swap3\n      swap2\n      swap1\n      dup2\n      dup2\n      mstore\n      0x20\n      add\n      dup3\n      dup1\n      sload\n      tag_107\n      swap1\n      tag_106\n      jump\t// in\n    tag_107:\n      dup1\n      iszero\n      tag_108\n      jumpi\n      dup1\n      0x1f\n      lt\n      tag_109\n      jumpi\n      0x0100\n      dup1\n      dup4\n      sload\n      div\n      mul\n      dup4\n      mstore\n      swap2\n      0x20\n      add\n      swap2\n      jump(tag_108)\n    tag_109:\n      dup3\n      add\n      swap2\n      swap1\n      0x00\n      mstore\n      keccak256(0x00, 0x20)\n      swap1\n    tag_110:\n      dup2\n      sload\n      dup2\n      mstore\n      swap1\n      0x01\n      add\n      swap1\n      0x20\n      add\n      dup1\n      dup4\n      gt\n      tag_110\n      jumpi\n      dup3\n      swap1\n      sub\n      0x1f\n      and\n      dup3\n      add\n      swap2\n    tag_108:\n      pop\n      pop\n      pop\n      pop\n      pop\n      swap1\n      pop\n        /* \"@openzeppelin/contracts/token/ERC20/ERC20.sol\":2154:2252  function name() public view virtual override returns (string memory) {... */\n      swap1\n      jump\t// out\n        /* \"@openzeppelin/contracts/token/ERC20/ERC20.sol\":4431:4628  function approve(address spender, uint256 amount) public virtual override returns (bool) {... */\n    tag_34:\n        /* \"@openzeppelin/contracts/token/ERC20/ERC20.sol\":4514:4518  bool */\n      0x00\n        /* \"@openzeppelin/contracts/token/ERC20/ERC20.sol\":4530:4543  address owner */\n      dup1\n        /* \"@openzeppelin/contracts/token/ERC20/ERC20.sol\":4546:4558  _msgSender() */\n      tag_112\n        /* \"@openzeppelin/contracts/token/ERC20/ERC20.sol\":4546:4556  _msgSender */\n      tag_113\n        /* \"@openzeppelin/contracts/token/ERC20/ERC20.sol\":4546:4558  _msgSender() */\n      jump\t// in\n    tag_112:\n        /* \"@openzeppelin/contracts/token/ERC20/ERC20.sol\":4530:4558  address owner = _msgSender() */\n      swap1\n      pop\n        /* \"@openzeppelin/contracts/token/ERC20/ERC20.sol\":4568:4600  _approve(owner, spender, amount) */\n      tag_114\n        /* \"@openzeppelin/contracts/token/ERC20/ERC20.sol\":4577:4582  owner */\n      dup2\n        /* \"@openzeppelin/contracts/token/ERC20/ERC20.sol\":4584:4591  spender */\n      dup6\n        /* \"@openzeppelin/contracts/token/ERC20/ERC20.sol\":4593:4599  amount */\n      dup6\n        /* \"@openzeppelin/contracts/token/ERC20/ERC20.sol\":4568:4576  _approve */\n      tag_115\n        /* \"@openzeppelin/contracts/token/ERC20/ERC20.sol\":4568:4600  _approve(owner, spender, amount) */\n      jump\t// in\n    tag_114:\n        /* \"@openzeppelin/contracts/token/ERC20/ERC20.sol\":4617:4621  true */\n      0x01\n        /* \"@openzeppelin/contracts/token/ERC20/ERC20.sol\":4610:4621  return true */\n      swap2\n      pop\n      pop\n        /* \"@openzeppelin/contracts/token/ERC20/ERC20.sol\":4431:4628  function approve(address spender, uint256 amount) public virtual override returns (bool) {... */\n      swap3\n      swap2\n      pop\n      pop\n      jump\t// out\n        /* \"@openzeppelin/contracts/token/ERC20/ERC20.sol\":3242:3348  function totalSupply() public view virtual override returns (uint256) {... */\n    tag_38:\n        /* \"@openzeppelin/contracts/token/ERC20/ERC20.sol\":3303:3310  uint256 */\n      0x00\n        /* \"@openzeppelin/contracts/token/ERC20/ERC20.sol\":3329:3341  _totalSupply */\n      sload(0x02)\n        /* \"@openzeppelin/contracts/token/ERC20/ERC20.sol\":3322:3341  return _totalSupply */\n      swap1\n      pop\n        /* \"@openzeppelin/contracts/token/ERC20/ERC20.sol\":3242:3348  function totalSupply() public view virtual override returns (uint256) {... */\n      swap1\n      jump\t// out\n        /* \"@openzeppelin/contracts/token/ERC20/ERC20.sol\":5190:5476  function transferFrom(... */\n    tag_44:\n        /* \"@openzeppelin/contracts/token/ERC20/ERC20.sol\":5317:5321  bool */\n      0x00\n        /* \"@openzeppelin/contracts/token/ERC20/ERC20.sol\":5333:5348  address spender */\n      dup1\n        /* \"@openzeppelin/contracts/token/ERC20/ERC20.sol\":5351:5363  _msgSender() */\n      tag_118\n        /* \"@openzeppelin/contracts/token/ERC20/ERC20.sol\":5351:5361  _msgSender */\n      tag_113\n        /* \"@openzeppelin/contracts/token/ERC20/ERC20.sol\":5351:5363  _msgSender() */\n      jump\t// in\n    tag_118:\n        /* \"@openzeppelin/contracts/token/ERC20/ERC20.sol\":5333:5363  address spender = _msgSender() */\n      swap1\n      pop\n        /* \"@openzeppelin/contracts/token/ERC20/ERC20.sol\":5373:5411  _spendAllowance(from, spender, amount) */\n      tag_119\n        /* \"@openzeppelin/contracts/token/ERC20/ERC20.sol\":5389:5393  from */\n      dup6\n        /* \"@openzeppelin/contracts/token/ERC20/ERC20.sol\":5395:5402  spender */\n      dup3\n        /* \"@openzeppelin/contracts/token/ERC20/ERC20.sol\":5404:5410  amount */\n      dup6\n        /* \"@openzeppelin/contracts/token/ERC20/ERC20.sol\":5373:5388  _spendAllowance */\n      tag_120\n        /* \"@openzeppelin/contracts/token/ERC20/ERC20.sol\":5373:5411  _spendAllowance(from, spender, amount) */\n      jump\t// in\n    tag_119:\n        /* \"@openzeppelin/contracts/token/ERC20/ERC20.sol\":5421:5448  _transfer(from, to, amount) */\n      tag_121\n        /* \"@openzeppelin/contracts/token/ERC20/ERC20.sol\":5431:5435  from */\n      dup6\n        /* \"@openzeppelin/contracts/token/ERC20/ERC20.sol\":5437:5439  to */\n      dup6\n        /* \"@openzeppelin/contracts/token/ERC20/ERC20.sol\":5441:5447  amount */\n      dup6\n        /* \"@openzeppelin/contracts/token/ERC20/ERC20.sol\":5421:5430  _transfer */\n      tag_122\n        /* \"@openzeppelin/contracts/token/ERC20/ERC20.sol\":5421:5448  _transfer(from, to, amount) */\n      jump\t// in\n    tag_121:\n        /* \"@openzeppelin/contracts/token/ERC20/ERC20.sol\":5465:5469  true */\n      0x01\n        /* \"@openzeppelin/contracts/token/ERC20/ERC20.sol\":5458:5469  return true */\n      swap2\n      pop\n      pop\n        /* \"@openzeppelin/contracts/token/ERC20/ERC20.sol\":5190:5476  function transferFrom(... */\n      swap4\n      swap3\n      pop\n      pop\n      pop\n      jump\t// out\n        /* \"contracts/MyCashToken.sol\":566:656  function decimals() public view virtual override returns (uint8) {... */\n    tag_47:\n        /* \"contracts/MyCashToken.sol\":624:629  uint8 */\n      0x00\n        /* \"contracts/MyCashToken.sol\":648:649  2 */\n      0x02\n        /* \"contracts/MyCashToken.sol\":641:649  return 2 */\n      swap1\n      pop\n        /* \"contracts/MyCashToken.sol\":566:656  function decimals() public view virtual override returns (uint8) {... */\n      swap1\n      jump\t// out\n        /* \"@openzeppelin/contracts/token/ERC20/ERC20.sol\":5871:6105  function increaseAllowance(address spender, uint256 addedValue) public virtual returns (bool) {... */\n    tag_52:\n        /* \"@openzeppelin/contracts/token/ERC20/ERC20.sol\":5959:5963  bool */\n      0x00\n        /* \"@openzeppelin/contracts/token/ERC20/ERC20.sol\":5975:5988  address owner */\n      dup1\n        /* \"@openzeppelin/contracts/token/ERC20/ERC20.sol\":5991:6003  _msgSender() */\n      tag_125\n        /* \"@openzeppelin/contracts/token/ERC20/ERC20.sol\":5991:6001  _msgSender */\n      tag_113\n        /* \"@openzeppelin/contracts/token/ERC20/ERC20.sol\":5991:6003  _msgSender() */\n      jump\t// in\n    tag_125:\n        /* \"@openzeppelin/contracts/token/ERC20/ERC20.sol\":5975:6003  address owner = _msgSender() */\n      swap1\n      pop\n        /* \"@openzeppelin/contracts/token/ERC20/ERC20.sol\":6013:6077  _approve(owner, spender, allowance(owner, spender) + addedValue) */\n      tag_126\n        /* \"@openzeppelin/contracts/token/ERC20/ERC20.sol\":6022:6027  owner */\n      dup2\n        /* \"@openzeppelin/contracts/token/ERC20/ERC20.sol\":6029:6036  spender */\n      dup6\n        /* \"@openzeppelin/contracts/token/ERC20/ERC20.sol\":6066:6076  addedValue */\n      dup6\n        /* \"@openzeppelin/contracts/token/ERC20/ERC20.sol\":6038:6063  allowance(owner, spender) */\n      tag_127\n        /* \"@openzeppelin/contracts/token/ERC20/ERC20.sol\":6048:6053  owner */\n      dup6\n        /* \"@openzeppelin/contracts/token/ERC20/ERC20.sol\":6055:6062  spender */\n      dup10\n        /* \"@openzeppelin/contracts/token/ERC20/ERC20.sol\":6038:6047  allowance */\n      tag_99\n        /* \"@openzeppelin/contracts/token/ERC20/ERC20.sol\":6038:6063  allowance(owner, spender) */\n      jump\t// in\n    tag_127:\n        /* \"@openzeppelin/contracts/token/ERC20/ERC20.sol\":6038:6076  allowance(owner, spender) + addedValue */\n      tag_128\n      swap2\n      swap1\n      tag_129\n      jump\t// in\n    tag_128:\n        /* \"@openzeppelin/contracts/token/ERC20/ERC20.sol\":6013:6021  _approve */\n      tag_115\n        /* \"@openzeppelin/contracts/token/ERC20/ERC20.sol\":6013:6077  _approve(owner, spender, allowance(owner, spender) + addedValue) */\n      jump\t// in\n    tag_126:\n        /* \"@openzeppelin/contracts/token/ERC20/ERC20.sol\":6094:6098  true */\n      0x01\n        /* \"@openzeppelin/contracts/token/ERC20/ERC20.sol\":6087:6098  return true */\n      swap2\n      pop\n      pop\n        /* \"@openzeppelin/contracts/token/ERC20/ERC20.sol\":5871:6105  function increaseAllowance(address spender, uint256 addedValue) public virtual returns (bool) {... */\n      swap3\n      swap2\n      pop\n      pop\n      jump\t// out\n        /* \"contracts/MyCashToken.sol\":731:794  function unpause() public onlyOwner {... */\n    tag_55:\n        /* \"@openzeppelin/contracts/access/Ownable.sol\":1094:1107  _checkOwner() */\n      tag_131\n        /* \"@openzeppelin/contracts/access/Ownable.sol\":1094:1105  _checkOwner */\n      tag_132\n        /* \"@openzeppelin/contracts/access/Ownable.sol\":1094:1107  _checkOwner() */\n      jump\t// in\n    tag_131:\n        /* \"contracts/MyCashToken.sol\":777:787  _unpause() */\n      tag_134\n        /* \"contracts/MyCashToken.sol\":777:785  _unpause */\n      tag_135\n        /* \"contracts/MyCashToken.sol\":777:787  _unpause() */\n      jump\t// in\n    tag_134:\n        /* \"contracts/MyCashToken.sol\":731:794  function unpause() public onlyOwner {... */\n      jump\t// out\n        /* \"contracts/MyCashToken.sol\":800:1180  function mint(address to, uint256 amount) public {... */\n    tag_58:\n        /* \"contracts/MyCashToken.sol\":867:873  rights */\n      0x06\n      0x00\n      swap1\n      sload\n      swap1\n      0x0100\n      exp\n      swap1\n      div\n      0xffffffffffffffffffffffffffffffffffffffff\n      and\n        /* \"contracts/MyCashToken.sol\":867:883  rights.hasRights */\n      0xffffffffffffffffffffffffffffffffffffffff\n      and\n      0xf35f0f74\n        /* \"contracts/MyCashToken.sol\":884:894  msg.sender */\n      caller\n        /* \"contracts/MembershipRights.sol\":94:97  0x1 */\n      0x01\n        /* \"contracts/MyCashToken.sol\":867:910  rights.hasRights(msg.sender,  MONEY_MINTER) */\n      mload(0x40)\n      dup4\n      0xffffffff\n      and\n      0xe0\n      shl\n      dup2\n      mstore\n      0x04\n      add\n      tag_137\n      swap3\n      swap2\n      swap1\n      tag_138\n      jump\t// in\n    tag_137:\n      0x20\n      mload(0x40)\n      dup1\n      dup4\n      sub\n      dup2\n      dup7\n      dup1\n      extcodesize\n      iszero\n      dup1\n      iszero\n      tag_139\n      jumpi\n      0x00\n      dup1\n      revert\n    tag_139:\n      pop\n      gas\n      staticcall\n      iszero\n      dup1\n      iszero\n      tag_141\n      jumpi\n      returndatasize\n      0x00\n      dup1\n      returndatacopy\n      revert(0x00, returndatasize)\n    tag_141:\n      pop\n      pop\n      pop\n      pop\n      mload(0x40)\n      returndatasize\n      not(0x1f)\n      0x1f\n      dup3\n      add\n      and\n      dup3\n      add\n      dup1\n      0x40\n      mstore\n      pop\n      dup2\n      add\n      swap1\n      tag_142\n      swap2\n      swap1\n      tag_143\n      jump\t// in\n    tag_142:\n        /* \"contracts/MyCashToken.sol\":859:949  require(rights.hasRights(msg.sender,  MONEY_MINTER), \"User is not approved to mint money\") */\n      tag_144\n      jumpi\n      mload(0x40)\n      0x08c379a000000000000000000000000000000000000000000000000000000000\n      dup2\n      mstore\n      0x04\n      add\n      tag_145\n      swap1\n      tag_146\n      jump\t// in\n    tag_145:\n      mload(0x40)\n      dup1\n      swap2\n      sub\n      swap1\n      revert\n    tag_144:\n        /* \"contracts/MyCashToken.sol\":967:973  rights */\n      0x06\n      0x00\n      swap1\n      sload\n      swap1\n      0x0100\n      exp\n      swap1\n      div\n      0xffffffffffffffffffffffffffffffffffffffff\n      and\n        /* \"contracts/MyCashToken.sol\":967:983  rights.hasRights */\n      0xffffffffffffffffffffffffffffffffffffffff\n      and\n      0xf35f0f74\n        /* \"contracts/MyCashToken.sol\":984:986  to */\n      dup4\n        /* \"contracts/MembershipRights.sol\":134:137  0x2 */\n      0x02\n        /* \"contracts/MyCashToken.sol\":967:1002  rights.hasRights(to,  ASSET_HOLDER) */\n      mload(0x40)\n      dup4\n      0xffffffff\n      and\n      0xe0\n      shl\n      dup2\n      mstore\n      0x04\n      add\n      tag_147\n      swap3\n      swap2\n      swap1\n      tag_138\n      jump\t// in\n    tag_147:\n      0x20\n      mload(0x40)\n      dup1\n      dup4\n      sub\n      dup2\n      dup7\n      dup1\n      extcodesize\n      iszero\n      dup1\n      iszero\n      tag_148\n      jumpi\n      0x00\n      dup1\n      revert\n    tag_148:\n      pop\n      gas\n      staticcall\n      iszero\n      dup1\n      iszero\n      tag_150\n      jumpi\n      returndatasize\n      0x00\n      dup1\n      returndatacopy\n      revert(0x00, returndatasize)\n    tag_150:\n      pop\n      pop\n      pop\n      pop\n      mload(0x40)\n      returndatasize\n      not(0x1f)\n      0x1f\n      dup3\n      add\n      and\n      dup3\n      add\n      dup1\n      0x40\n      mstore\n      pop\n      dup2\n      add\n      swap1\n      tag_151\n      swap2\n      swap1\n      tag_143\n      jump\t// in\n    tag_151:\n        /* \"contracts/MyCashToken.sol\":959:1055  require(rights.hasRights(to,  ASSET_HOLDER), \"Receiver address is not an approved asset holder\") */\n      tag_152\n      jumpi\n      mload(0x40)\n      0x08c379a000000000000000000000000000000000000000000000000000000000\n      dup2\n      mstore\n      0x04\n      add\n      tag_153\n      swap1\n      tag_154\n      jump\t// in\n    tag_153:\n      mload(0x40)\n      dup1\n      swap2\n      sub\n      swap1\n      revert\n    tag_152:\n        /* \"contracts/MyCashToken.sol\":1082:1083  0 */\n      0x00\n        /* \"contracts/MyCashToken.sol\":1073:1079  amount */\n      dup2\n        /* \"contracts/MyCashToken.sol\":1073:1083  amount > 0 */\n      gt\n        /* \"contracts/MyCashToken.sol\":1065:1146  require(amount > 0 , \"The amout of money to be minted have to be greater than 0\") */\n      tag_155\n      jumpi\n      mload(0x40)\n      0x08c379a000000000000000000000000000000000000000000000000000000000\n      dup2\n      mstore\n      0x04\n      add\n      tag_156\n      swap1\n      tag_157\n      jump\t// in\n    tag_156:\n      mload(0x40)\n      dup1\n      swap2\n      sub\n      swap1\n      revert\n    tag_155:\n        /* \"contracts/MyCashToken.sol\":1156:1173  _mint(to, amount) */\n      tag_158\n        /* \"contracts/MyCashToken.sol\":1162:1164  to */\n      dup3\n        /* \"contracts/MyCashToken.sol\":1166:1172  amount */\n      dup3\n        /* \"contracts/MyCashToken.sol\":1156:1161  _mint */\n      tag_159\n        /* \"contracts/MyCashToken.sol\":1156:1173  _mint(to, amount) */\n      jump\t// in\n    tag_158:\n        /* \"contracts/MyCashToken.sol\":800:1180  function mint(address to, uint256 amount) public {... */\n      pop\n      pop\n      jump\t// out\n        /* \"@openzeppelin/contracts/token/ERC20/extensions/ERC20Burnable.sol\":578:667  function burn(uint256 amount) public virtual {... */\n    tag_62:\n        /* \"@openzeppelin/contracts/token/ERC20/extensions/ERC20Burnable.sol\":633:660  _burn(_msgSender(), amount) */\n      tag_161\n        /* \"@openzeppelin/contracts/token/ERC20/extensions/ERC20Burnable.sol\":639:651  _msgSender() */\n      tag_162\n        /* \"@openzeppelin/contracts/token/ERC20/extensions/ERC20Burnable.sol\":639:649  _msgSender */\n      tag_113\n        /* \"@openzeppelin/contracts/token/ERC20/extensions/ERC20Burnable.sol\":639:651  _msgSender() */\n      jump\t// in\n    tag_162:\n        /* \"@openzeppelin/contracts/token/ERC20/extensions/ERC20Burnable.sol\":653:659  amount */\n      dup3\n        /* \"@openzeppelin/contracts/token/ERC20/extensions/ERC20Burnable.sol\":633:638  _burn */\n      tag_163\n        /* \"@openzeppelin/contracts/token/ERC20/extensions/ERC20Burnable.sol\":633:660  _burn(_msgSender(), amount) */\n      jump\t// in\n    tag_161:\n        /* \"@openzeppelin/contracts/token/ERC20/extensions/ERC20Burnable.sol\":578:667  function burn(uint256 amount) public virtual {... */\n      pop\n      jump\t// out\n        /* \"@openzeppelin/contracts/security/Pausable.sol\":1615:1699  function paused() public view virtual returns (bool) {... */\n    tag_64:\n        /* \"@openzeppelin/contracts/security/Pausable.sol\":1662:1666  bool */\n      0x00\n        /* \"@openzeppelin/contracts/security/Pausable.sol\":1685:1692  _paused */\n      0x05\n      0x00\n      swap1\n      sload\n      swap1\n      0x0100\n      exp\n      swap1\n      div\n      0xff\n      and\n        /* \"@openzeppelin/contracts/security/Pausable.sol\":1678:1692  return _paused */\n      swap1\n      pop\n        /* \"@openzeppelin/contracts/security/Pausable.sol\":1615:1699  function paused() public view virtual returns (bool) {... */\n      swap1\n      jump\t// out\n        /* \"@openzeppelin/contracts/token/ERC20/ERC20.sol\":3406:3531  function balanceOf(address account) public view virtual override returns (uint256) {... */\n    tag_69:\n        /* \"@openzeppelin/contracts/token/ERC20/ERC20.sol\":3480:3487  uint256 */\n      0x00\n        /* \"@openzeppelin/contracts/token/ERC20/ERC20.sol\":3506:3515  _balances */\n      dup1\n        /* \"@openzeppelin/contracts/token/ERC20/ERC20.sol\":3506:3524  _balances[account] */\n      0x00\n        /* \"@openzeppelin/contracts/token/ERC20/ERC20.sol\":3516:3523  account */\n      dup4\n        /* \"@openzeppelin/contracts/token/ERC20/ERC20.sol\":3506:3524  _balances[account] */\n      0xffffffffffffffffffffffffffffffffffffffff\n      and\n      0xffffffffffffffffffffffffffffffffffffffff\n      and\n      dup2\n      mstore\n      0x20\n      add\n      swap1\n      dup2\n      mstore\n      0x20\n      add\n      0x00\n      keccak256\n      sload\n        /* \"@openzeppelin/contracts/token/ERC20/ERC20.sol\":3499:3524  return _balances[account] */\n      swap1\n      pop\n        /* \"@openzeppelin/contracts/token/ERC20/ERC20.sol\":3406:3531  function balanceOf(address account) public view virtual override returns (uint256) {... */\n      swap2\n      swap1\n      pop\n      jump\t// out\n        /* \"@openzeppelin/contracts/access/Ownable.sol\":1831:1932  function renounceOwnership() public virtual onlyOwner {... */\n    tag_72:\n        /* \"@openzeppelin/contracts/access/Ownable.sol\":1094:1107  _checkOwner() */\n      tag_167\n        /* \"@openzeppelin/contracts/access/Ownable.sol\":1094:1105  _checkOwner */\n      tag_132\n        /* \"@openzeppelin/contracts/access/Ownable.sol\":1094:1107  _checkOwner() */\n      jump\t// in\n    tag_167:\n        /* \"@openzeppelin/contracts/access/Ownable.sol\":1895:1925  _transferOwnership(address(0)) */\n      tag_169\n        /* \"@openzeppelin/contracts/access/Ownable.sol\":1922:1923  0 */\n      0x00\n        /* \"@openzeppelin/contracts/access/Ownable.sol\":1895:1913  _transferOwnership */\n      tag_170\n        /* \"@openzeppelin/contracts/access/Ownable.sol\":1895:1925  _transferOwnership(address(0)) */\n      jump\t// in\n    tag_169:\n        /* \"@openzeppelin/contracts/access/Ownable.sol\":1831:1932  function renounceOwnership() public virtual onlyOwner {... */\n      jump\t// out\n        /* \"@openzeppelin/contracts/token/ERC20/extensions/ERC20Burnable.sol\":973:1134  function burnFrom(address account, uint256 amount) public virtual {... */\n    tag_75:\n        /* \"@openzeppelin/contracts/token/ERC20/extensions/ERC20Burnable.sol\":1049:1095  _spendAllowance(account, _msgSender(), amount) */\n      tag_172\n        /* \"@openzeppelin/contracts/token/ERC20/extensions/ERC20Burnable.sol\":1065:1072  account */\n      dup3\n        /* \"@openzeppelin/contracts/token/ERC20/extensions/ERC20Burnable.sol\":1074:1086  _msgSender() */\n      tag_173\n        /* \"@openzeppelin/contracts/token/ERC20/extensions/ERC20Burnable.sol\":1074:1084  _msgSender */\n      tag_113\n        /* \"@openzeppelin/contracts/token/ERC20/extensions/ERC20Burnable.sol\":1074:1086  _msgSender() */\n      jump\t// in\n    tag_173:\n        /* \"@openzeppelin/contracts/token/ERC20/extensions/ERC20Burnable.sol\":1088:1094  amount */\n      dup4\n        /* \"@openzeppelin/contracts/token/ERC20/extensions/ERC20Burnable.sol\":1049:1064  _spendAllowance */\n      tag_120\n        /* \"@openzeppelin/contracts/token/ERC20/extensions/ERC20Burnable.sol\":1049:1095  _spendAllowance(account, _msgSender(), amount) */\n      jump\t// in\n    tag_172:\n        /* \"@openzeppelin/contracts/token/ERC20/extensions/ERC20Burnable.sol\":1105:1127  _burn(account, amount) */\n      tag_174\n        /* \"@openzeppelin/contracts/token/ERC20/extensions/ERC20Burnable.sol\":1111:1118  account */\n      dup3\n        /* \"@openzeppelin/contracts/token/ERC20/extensions/ERC20Burnable.sol\":1120:1126  amount */\n      dup3\n        /* \"@openzeppelin/contracts/token/ERC20/extensions/ERC20Burnable.sol\":1105:1110  _burn */\n      tag_163\n        /* \"@openzeppelin/contracts/token/ERC20/extensions/ERC20Burnable.sol\":1105:1127  _burn(account, amount) */\n      jump\t// in\n    tag_174:\n        /* \"@openzeppelin/contracts/token/ERC20/extensions/ERC20Burnable.sol\":973:1134  function burnFrom(address account, uint256 amount) public virtual {... */\n      pop\n      pop\n      jump\t// out\n        /* \"contracts/MyCashToken.sol\":666:725  function pause() public onlyOwner {... */\n    tag_77:\n        /* \"@openzeppelin/contracts/access/Ownable.sol\":1094:1107  _checkOwner() */\n      tag_176\n        /* \"@openzeppelin/contracts/access/Ownable.sol\":1094:1105  _checkOwner */\n      tag_132\n        /* \"@openzeppelin/contracts/access/Ownable.sol\":1094:1107  _checkOwner() */\n      jump\t// in\n    tag_176:\n        /* \"contracts/MyCashToken.sol\":710:718  _pause() */\n      tag_178\n        /* \"contracts/MyCashToken.sol\":710:716  _pause */\n      tag_179\n        /* \"contracts/MyCashToken.sol\":710:718  _pause() */\n      jump\t// in\n    tag_178:\n        /* \"contracts/MyCashToken.sol\":666:725  function pause() public onlyOwner {... */\n      jump\t// out\n        /* \"@openzeppelin/contracts/access/Ownable.sol\":1201:1286  function owner() public view virtual returns (address) {... */\n    tag_79:\n        /* \"@openzeppelin/contracts/access/Ownable.sol\":1247:1254  address */\n      0x00\n        /* \"@openzeppelin/contracts/access/Ownable.sol\":1273:1279  _owner */\n      0x05\n      0x01\n      swap1\n      sload\n      swap1\n      0x0100\n      exp\n      swap1\n      div\n      0xffffffffffffffffffffffffffffffffffffffff\n      and\n        /* \"@openzeppelin/contracts/access/Ownable.sol\":1266:1279  return _owner */\n      swap1\n      pop\n        /* \"@openzeppelin/contracts/access/Ownable.sol\":1201:1286  function owner() public view virtual returns (address) {... */\n      swap1\n      jump\t// out\n        /* \"@openzeppelin/contracts/token/ERC20/ERC20.sol\":2365:2467  function symbol() public view virtual override returns (string memory) {... */\n    tag_83:\n        /* \"@openzeppelin/contracts/token/ERC20/ERC20.sol\":2421:2434  string memory */\n      0x60\n        /* \"@openzeppelin/contracts/token/ERC20/ERC20.sol\":2453:2460  _symbol */\n      0x04\n        /* \"@openzeppelin/contracts/token/ERC20/ERC20.sol\":2446:2460  return _symbol */\n      dup1\n      sload\n      tag_182\n      swap1\n      tag_106\n      jump\t// in\n    tag_182:\n      dup1\n      0x1f\n      add\n      0x20\n      dup1\n      swap2\n      div\n      mul\n      0x20\n      add\n      mload(0x40)\n      swap1\n      dup2\n      add\n      0x40\n      mstore\n      dup1\n      swap3\n      swap2\n      swap1\n      dup2\n      dup2\n      mstore\n      0x20\n      add\n      dup3\n      dup1\n      sload\n      tag_183\n      swap1\n      tag_106\n      jump\t// in\n    tag_183:\n      dup1\n      iszero\n      tag_184\n      jumpi\n      dup1\n      0x1f\n      lt\n      tag_185\n      jumpi\n      0x0100\n      dup1\n      dup4\n      sload\n      div\n      mul\n      dup4\n      mstore\n      swap2\n      0x20\n      add\n      swap2\n      jump(tag_184)\n    tag_185:\n      dup3\n      add\n      swap2\n      swap1\n      0x00\n      mstore\n      keccak256(0x00, 0x20)\n      swap1\n    tag_186:\n      dup2\n      sload\n      dup2\n      mstore\n      swap1\n      0x01\n      add\n      swap1\n      0x20\n      add\n      dup1\n      dup4\n      gt\n      tag_186\n      jumpi\n      dup3\n      swap1\n      sub\n      0x1f\n      and\n      dup3\n      add\n      swap2\n    tag_184:\n      pop\n      pop\n      pop\n      pop\n      pop\n      swap1\n      pop\n        /* \"@openzeppelin/contracts/token/ERC20/ERC20.sol\":2365:2467  function symbol() public view virtual override returns (string memory) {... */\n      swap1\n      jump\t// out\n        /* \"contracts/MyCashToken.sol\":1186:1476  function burn(address from, uint256 amount) public onlyOwner {... */\n    tag_87:\n        /* \"@openzeppelin/contracts/access/Ownable.sol\":1094:1107  _checkOwner() */\n      tag_188\n        /* \"@openzeppelin/contracts/access/Ownable.sol\":1094:1105  _checkOwner */\n      tag_132\n        /* \"@openzeppelin/contracts/access/Ownable.sol\":1094:1107  _checkOwner() */\n      jump\t// in\n    tag_188:\n        /* \"contracts/MyCashToken.sol\":1274:1275  0 */\n      0x00\n        /* \"contracts/MyCashToken.sol\":1265:1271  amount */\n      dup2\n        /* \"contracts/MyCashToken.sol\":1265:1275  amount > 0 */\n      gt\n        /* \"contracts/MyCashToken.sol\":1257:1338  require(amount > 0 , \"The amout of money to be minted have to be greater than 0\") */\n      tag_190\n      jumpi\n      mload(0x40)\n      0x08c379a000000000000000000000000000000000000000000000000000000000\n      dup2\n      mstore\n      0x04\n      add\n      tag_191\n      swap1\n      tag_157\n      jump\t// in\n    tag_191:\n      mload(0x40)\n      dup1\n      swap2\n      sub\n      swap1\n      revert\n    tag_190:\n        /* \"contracts/MyCashToken.sol\":1375:1381  amount */\n      dup1\n        /* \"contracts/MyCashToken.sol\":1356:1371  balanceOf(from) */\n      tag_192\n        /* \"contracts/MyCashToken.sol\":1366:1370  from */\n      dup4\n        /* \"contracts/MyCashToken.sol\":1356:1365  balanceOf */\n      tag_69\n        /* \"contracts/MyCashToken.sol\":1356:1371  balanceOf(from) */\n      jump\t// in\n    tag_192:\n        /* \"contracts/MyCashToken.sol\":1356:1381  balanceOf(from) >= amount */\n      lt\n      iszero\n        /* \"contracts/MyCashToken.sol\":1348:1440  require(balanceOf(from) >= amount, \"Burn amount is greater than the debit account ballance\") */\n      tag_193\n      jumpi\n      mload(0x40)\n      0x08c379a000000000000000000000000000000000000000000000000000000000\n      dup2\n      mstore\n      0x04\n      add\n      tag_194\n      swap1\n      tag_195\n      jump\t// in\n    tag_194:\n      mload(0x40)\n      dup1\n      swap2\n      sub\n      swap1\n      revert\n    tag_193:\n        /* \"contracts/MyCashToken.sol\":1450:1469  _burn(from, amount) */\n      tag_196\n        /* \"contracts/MyCashToken.sol\":1456:1460  from */\n      dup3\n        /* \"contracts/MyCashToken.sol\":1462:1468  amount */\n      dup3\n        /* \"contracts/MyCashToken.sol\":1450:1455  _burn */\n      tag_163\n        /* \"contracts/MyCashToken.sol\":1450:1469  _burn(from, amount) */\n      jump\t// in\n    tag_196:\n        /* \"contracts/MyCashToken.sol\":1186:1476  function burn(address from, uint256 amount) public onlyOwner {... */\n      pop\n      pop\n      jump\t// out\n        /* \"@openzeppelin/contracts/token/ERC20/ERC20.sol\":6592:7019  function decreaseAllowance(address spender, uint256 subtractedValue) public virtual returns (bool) {... */\n    tag_90:\n        /* \"@openzeppelin/contracts/token/ERC20/ERC20.sol\":6685:6689  bool */\n      0x00\n        /* \"@openzeppelin/contracts/token/ERC20/ERC20.sol\":6701:6714  address owner */\n      dup1\n        /* \"@openzeppelin/contracts/token/ERC20/ERC20.sol\":6717:6729  _msgSender() */\n      tag_198\n        /* \"@openzeppelin/contracts/token/ERC20/ERC20.sol\":6717:6727  _msgSender */\n      tag_113\n        /* \"@openzeppelin/contracts/token/ERC20/ERC20.sol\":6717:6729  _msgSender() */\n      jump\t// in\n    tag_198:\n        /* \"@openzeppelin/contracts/token/ERC20/ERC20.sol\":6701:6729  address owner = _msgSender() */\n      swap1\n      pop\n        /* \"@openzeppelin/contracts/token/ERC20/ERC20.sol\":6739:6763  uint256 currentAllowance */\n      0x00\n        /* \"@openzeppelin/contracts/token/ERC20/ERC20.sol\":6766:6791  allowance(owner, spender) */\n      tag_199\n        /* \"@openzeppelin/contracts/token/ERC20/ERC20.sol\":6776:6781  owner */\n      dup3\n        /* \"@openzeppelin/contracts/token/ERC20/ERC20.sol\":6783:6790  spender */\n      dup7\n        /* \"@openzeppelin/contracts/token/ERC20/ERC20.sol\":6766:6775  allowance */\n      tag_99\n        /* \"@openzeppelin/contracts/token/ERC20/ERC20.sol\":6766:6791  allowance(owner, spender) */\n      jump\t// in\n    tag_199:\n        /* \"@openzeppelin/contracts/token/ERC20/ERC20.sol\":6739:6791  uint256 currentAllowance = allowance(owner, spender) */\n      swap1\n      pop\n        /* \"@openzeppelin/contracts/token/ERC20/ERC20.sol\":6829:6844  subtractedValue */\n      dup4\n        /* \"@openzeppelin/contracts/token/ERC20/ERC20.sol\":6809:6825  currentAllowance */\n      dup2\n        /* \"@openzeppelin/contracts/token/ERC20/ERC20.sol\":6809:6844  currentAllowance >= subtractedValue */\n      lt\n      iszero\n        /* \"@openzeppelin/contracts/token/ERC20/ERC20.sol\":6801:6886  require(currentAllowance >= subtractedValue, \"ERC20: decreased allowance below zero\") */\n      tag_200\n      jumpi\n      mload(0x40)\n      0x08c379a000000000000000000000000000000000000000000000000000000000\n      dup2\n      mstore\n      0x04\n      add\n      tag_201\n      swap1\n      tag_202\n      jump\t// in\n    tag_201:\n      mload(0x40)\n      dup1\n      swap2\n      sub\n      swap1\n      revert\n    tag_200:\n        /* \"@openzeppelin/contracts/token/ERC20/ERC20.sol\":6920:6980  _approve(owner, spender, currentAllowance - subtractedValue) */\n      tag_203\n        /* \"@openzeppelin/contracts/token/ERC20/ERC20.sol\":6929:6934  owner */\n      dup3\n        /* \"@openzeppelin/contracts/token/ERC20/ERC20.sol\":6936:6943  spender */\n      dup7\n        /* \"@openzeppelin/contracts/token/ERC20/ERC20.sol\":6964:6979  subtractedValue */\n      dup7\n        /* \"@openzeppelin/contracts/token/ERC20/ERC20.sol\":6945:6961  currentAllowance */\n      dup5\n        /* \"@openzeppelin/contracts/token/ERC20/ERC20.sol\":6945:6979  currentAllowance - subtractedValue */\n      sub\n        /* \"@openzeppelin/contracts/token/ERC20/ERC20.sol\":6920:6928  _approve */\n      tag_115\n        /* \"@openzeppelin/contracts/token/ERC20/ERC20.sol\":6920:6980  _approve(owner, spender, currentAllowance - subtractedValue) */\n      jump\t// in\n    tag_203:\n        /* \"@openzeppelin/contracts/token/ERC20/ERC20.sol\":7008:7012  true */\n      0x01\n        /* \"@openzeppelin/contracts/token/ERC20/ERC20.sol\":7001:7012  return true */\n      swap3\n      pop\n      pop\n      pop\n        /* \"@openzeppelin/contracts/token/ERC20/ERC20.sol\":6592:7019  function decreaseAllowance(address spender, uint256 subtractedValue) public virtual returns (bool) {... */\n      swap3\n      swap2\n      pop\n      pop\n      jump\t// out\n        /* \"@openzeppelin/contracts/token/ERC20/ERC20.sol\":3727:3916  function transfer(address to, uint256 amount) public virtual override returns (bool) {... */\n    tag_94:\n        /* \"@openzeppelin/contracts/token/ERC20/ERC20.sol\":3806:3810  bool */\n      0x00\n        /* \"@openzeppelin/contracts/token/ERC20/ERC20.sol\":3822:3835  address owner */\n      dup1\n        /* \"@openzeppelin/contracts/token/ERC20/ERC20.sol\":3838:3850  _msgSender() */\n      tag_205\n        /* \"@openzeppelin/contracts/token/ERC20/ERC20.sol\":3838:3848  _msgSender */\n      tag_113\n        /* \"@openzeppelin/contracts/token/ERC20/ERC20.sol\":3838:3850  _msgSender() */\n      jump\t// in\n    tag_205:\n        /* \"@openzeppelin/contracts/token/ERC20/ERC20.sol\":3822:3850  address owner = _msgSender() */\n      swap1\n      pop\n        /* \"@openzeppelin/contracts/token/ERC20/ERC20.sol\":3860:3888  _transfer(owner, to, amount) */\n      tag_206\n        /* \"@openzeppelin/contracts/token/ERC20/ERC20.sol\":3870:3875  owner */\n      dup2\n        /* \"@openzeppelin/contracts/token/ERC20/ERC20.sol\":3877:3879  to */\n      dup6\n        /* \"@openzeppelin/contracts/token/ERC20/ERC20.sol\":3881:3887  amount */\n      dup6\n        /* \"@openzeppelin/contracts/token/ERC20/ERC20.sol\":3860:3869  _transfer */\n      tag_122\n        /* \"@openzeppelin/contracts/token/ERC20/ERC20.sol\":3860:3888  _transfer(owner, to, amount) */\n      jump\t// in\n    tag_206:\n        /* \"@openzeppelin/contracts/token/ERC20/ERC20.sol\":3905:3909  true */\n      0x01\n        /* \"@openzeppelin/contracts/token/ERC20/ERC20.sol\":3898:3909  return true */\n      swap2\n      pop\n      pop\n        /* \"@openzeppelin/contracts/token/ERC20/ERC20.sol\":3727:3916  function transfer(address to, uint256 amount) public virtual override returns (bool) {... */\n      swap3\n      swap2\n      pop\n      pop\n      jump\t// out\n        /* \"@openzeppelin/contracts/token/ERC20/ERC20.sol\":3974:4123  function allowance(address owner, address spender) public view virtual override returns (uint256) {... */\n    tag_99:\n        /* \"@openzeppelin/contracts/token/ERC20/ERC20.sol\":4063:4070  uint256 */\n      0x00\n        /* \"@openzeppelin/contracts/token/ERC20/ERC20.sol\":4089:4100  _allowances */\n      0x01\n        /* \"@openzeppelin/contracts/token/ERC20/ERC20.sol\":4089:4107  _allowances[owner] */\n      0x00\n        /* \"@openzeppelin/contracts/token/ERC20/ERC20.sol\":4101:4106  owner */\n      dup5\n        /* \"@openzeppelin/contracts/token/ERC20/ERC20.sol\":4089:4107  _allowances[owner] */\n      0xffffffffffffffffffffffffffffffffffffffff\n      and\n      0xffffffffffffffffffffffffffffffffffffffff\n      and\n      dup2\n      mstore\n      0x20\n      add\n      swap1\n      dup2\n      mstore\n      0x20\n      add\n      0x00\n      keccak256\n        /* \"@openzeppelin/contracts/token/ERC20/ERC20.sol\":4089:4116  _allowances[owner][spender] */\n      0x00\n        /* \"@openzeppelin/contracts/token/ERC20/ERC20.sol\":4108:4115  spender */\n      dup4\n        /* \"@openzeppelin/contracts/token/ERC20/ERC20.sol\":4089:4116  _allowances[owner][spender] */\n      0xffffffffffffffffffffffffffffffffffffffff\n      and\n      0xffffffffffffffffffffffffffffffffffffffff\n      and\n      dup2\n      mstore\n      0x20\n      add\n      swap1\n      dup2\n      mstore\n      0x20\n      add\n      0x00\n      keccak256\n      sload\n        /* \"@openzeppelin/contracts/token/ERC20/ERC20.sol\":4082:4116  return _allowances[owner][spender] */\n      swap1\n      pop\n        /* \"@openzeppelin/contracts/token/ERC20/ERC20.sol\":3974:4123  function allowance(address owner, address spender) public view virtual override returns (uint256) {... */\n      swap3\n      swap2\n      pop\n      pop\n      jump\t// out\n        /* \"@openzeppelin/contracts/access/Ownable.sol\":2081:2279  function transferOwnership(address newOwner) public virtual onlyOwner {... */\n    tag_103:\n        /* \"@openzeppelin/contracts/access/Ownable.sol\":1094:1107  _checkOwner() */\n      tag_209\n        /* \"@openzeppelin/contracts/access/Ownable.sol\":1094:1105  _checkOwner */\n      tag_132\n        /* \"@openzeppelin/contracts/access/Ownable.sol\":1094:1107  _checkOwner() */\n      jump\t// in\n    tag_209:\n        /* \"@openzeppelin/contracts/access/Ownable.sol\":2189:2190  0 */\n      0x00\n        /* \"@openzeppelin/contracts/access/Ownable.sol\":2169:2191  newOwner != address(0) */\n      0xffffffffffffffffffffffffffffffffffffffff\n      and\n        /* \"@openzeppelin/contracts/access/Ownable.sol\":2169:2177  newOwner */\n      dup2\n        /* \"@openzeppelin/contracts/access/Ownable.sol\":2169:2191  newOwner != address(0) */\n      0xffffffffffffffffffffffffffffffffffffffff\n      and\n      eq\n      iszero\n        /* \"@openzeppelin/contracts/access/Ownable.sol\":2161:2234  require(newOwner != address(0), \"Ownable: new owner is the zero address\") */\n      tag_211\n      jumpi\n      mload(0x40)\n      0x08c379a000000000000000000000000000000000000000000000000000000000\n      dup2\n      mstore\n      0x04\n      add\n      tag_212\n      swap1\n      tag_213\n      jump\t// in\n    tag_212:\n      mload(0x40)\n      dup1\n      swap2\n      sub\n      swap1\n      revert\n    tag_211:\n        /* \"@openzeppelin/contracts/access/Ownable.sol\":2244:2272  _transferOwnership(newOwner) */\n      tag_214\n        /* \"@openzeppelin/contracts/access/Ownable.sol\":2263:2271  newOwner */\n      dup2\n        /* \"@openzeppelin/contracts/access/Ownable.sol\":2244:2262  _transferOwnership */\n      tag_170\n        /* \"@openzeppelin/contracts/access/Ownable.sol\":2244:2272  _transferOwnership(newOwner) */\n      jump\t// in\n    tag_214:\n        /* \"@openzeppelin/contracts/access/Ownable.sol\":2081:2279  function transferOwnership(address newOwner) public virtual onlyOwner {... */\n      pop\n      jump\t// out\n        /* \"@openzeppelin/contracts/utils/Context.sol\":640:736  function _msgSender() internal view virtual returns (address) {... */\n    tag_113:\n        /* \"@openzeppelin/contracts/utils/Context.sol\":693:700  address */\n      0x00\n        /* \"@openzeppelin/contracts/utils/Context.sol\":719:729  msg.sender */\n      caller\n        /* \"@openzeppelin/contracts/utils/Context.sol\":712:729  return msg.sender */\n      swap1\n      pop\n        /* \"@openzeppelin/contracts/utils/Context.sol\":640:736  function _msgSender() internal view virtual returns (address) {... */\n      swap1\n      jump\t// out\n        /* \"@openzeppelin/contracts/token/ERC20/ERC20.sol\":10504:10874  function _approve(... */\n    tag_115:\n        /* \"@openzeppelin/contracts/token/ERC20/ERC20.sol\":10652:10653  0 */\n      0x00\n        /* \"@openzeppelin/contracts/token/ERC20/ERC20.sol\":10635:10654  owner != address(0) */\n      0xffffffffffffffffffffffffffffffffffffffff\n      and\n        /* \"@openzeppelin/contracts/token/ERC20/ERC20.sol\":10635:10640  owner */\n      dup4\n        /* \"@openzeppelin/contracts/token/ERC20/ERC20.sol\":10635:10654  owner != address(0) */\n      0xffffffffffffffffffffffffffffffffffffffff\n      and\n      eq\n      iszero\n        /* \"@openzeppelin/contracts/token/ERC20/ERC20.sol\":10627:10695  require(owner != address(0), \"ERC20: approve from the zero address\") */\n      tag_217\n      jumpi\n      mload(0x40)\n      0x08c379a000000000000000000000000000000000000000000000000000000000\n      dup2\n      mstore\n      0x04\n      add\n      tag_218\n      swap1\n      tag_219\n      jump\t// in\n    tag_218:\n      mload(0x40)\n      dup1\n      swap2\n      sub\n      swap1\n      revert\n    tag_217:\n        /* \"@openzeppelin/contracts/token/ERC20/ERC20.sol\":10732:10733  0 */\n      0x00\n        /* \"@openzeppelin/contracts/token/ERC20/ERC20.sol\":10713:10734  spender != address(0) */\n      0xffffffffffffffffffffffffffffffffffffffff\n      and\n        /* \"@openzeppelin/contracts/token/ERC20/ERC20.sol\":10713:10720  spender */\n      dup3\n        /* \"@openzeppelin/contracts/token/ERC20/ERC20.sol\":10713:10734  spender != address(0) */\n      0xffffffffffffffffffffffffffffffffffffffff\n      and\n      eq\n      iszero\n        /* \"@openzeppelin/contracts/token/ERC20/ERC20.sol\":10705:10773  require(spender != address(0), \"ERC20: approve to the zero address\") */\n      tag_220\n      jumpi\n      mload(0x40)\n      0x08c379a000000000000000000000000000000000000000000000000000000000\n      dup2\n      mstore\n      0x04\n      add\n      tag_221\n      swap1\n      tag_222\n      jump\t// in\n    tag_221:\n      mload(0x40)\n      dup1\n      swap2\n      sub\n      swap1\n      revert\n    tag_220:\n        /* \"@openzeppelin/contracts/token/ERC20/ERC20.sol\":10814:10820  amount */\n      dup1\n        /* \"@openzeppelin/contracts/token/ERC20/ERC20.sol\":10784:10795  _allowances */\n      0x01\n        /* \"@openzeppelin/contracts/token/ERC20/ERC20.sol\":10784:10802  _allowances[owner] */\n      0x00\n        /* \"@openzeppelin/contracts/token/ERC20/ERC20.sol\":10796:10801  owner */\n      dup6\n        /* \"@openzeppelin/contracts/token/ERC20/ERC20.sol\":10784:10802  _allowances[owner] */\n      0xffffffffffffffffffffffffffffffffffffffff\n      and\n      0xffffffffffffffffffffffffffffffffffffffff\n      and\n      dup2\n      mstore\n      0x20\n      add\n      swap1\n      dup2\n      mstore\n      0x20\n      add\n      0x00\n      keccak256\n        /* \"@openzeppelin/contracts/token/ERC20/ERC20.sol\":10784:10811  _allowances[owner][spender] */\n      0x00\n        /* \"@openzeppelin/contracts/token/ERC20/ERC20.sol\":10803:10810  spender */\n      dup5\n        /* \"@openzeppelin/contracts/token/ERC20/ERC20.sol\":10784:10811  _allowances[owner][spender] */\n      0xffffffffffffffffffffffffffffffffffffffff\n      and\n      0xffffffffffffffffffffffffffffffffffffffff\n      and\n      dup2\n      mstore\n      0x20\n      add\n      swap1\n      dup2\n      mstore\n      0x20\n      add\n      0x00\n      keccak256\n        /* \"@openzeppelin/contracts/token/ERC20/ERC20.sol\":10784:10820  _allowances[owner][spender] = amount */\n      dup2\n      swap1\n      sstore\n      pop\n        /* \"@openzeppelin/contracts/token/ERC20/ERC20.sol\":10851:10858  spender */\n      dup2\n        /* \"@openzeppelin/contracts/token/ERC20/ERC20.sol\":10835:10867  Approval(owner, spender, amount) */\n      0xffffffffffffffffffffffffffffffffffffffff\n      and\n        /* \"@openzeppelin/contracts/token/ERC20/ERC20.sol\":10844:10849  owner */\n      dup4\n        /* \"@openzeppelin/contracts/token/ERC20/ERC20.sol\":10835:10867  Approval(owner, spender, amount) */\n      0xffffffffffffffffffffffffffffffffffffffff\n      and\n      0x8c5be1e5ebec7d5bd14f71427d1e84f3dd0314c0f7b2291e5b200ac8c7c3b925\n        /* \"@openzeppelin/contracts/token/ERC20/ERC20.sol\":10860:10866  amount */\n      dup4\n        /* \"@openzeppelin/contracts/token/ERC20/ERC20.sol\":10835:10867  Approval(owner, spender, amount) */\n      mload(0x40)\n      tag_223\n      swap2\n      swap1\n      tag_40\n      jump\t// in\n    tag_223:\n      mload(0x40)\n      dup1\n      swap2\n      sub\n      swap1\n      log3\n        /* \"@openzeppelin/contracts/token/ERC20/ERC20.sol\":10504:10874  function _approve(... */\n      pop\n      pop\n      pop\n      jump\t// out\n        /* \"@openzeppelin/contracts/token/ERC20/ERC20.sol\":11155:11596  function _spendAllowance(... */\n    tag_120:\n        /* \"@openzeppelin/contracts/token/ERC20/ERC20.sol\":11285:11309  uint256 currentAllowance */\n      0x00\n        /* \"@openzeppelin/contracts/token/ERC20/ERC20.sol\":11312:11337  allowance(owner, spender) */\n      tag_225\n        /* \"@openzeppelin/contracts/token/ERC20/ERC20.sol\":11322:11327  owner */\n      dup5\n        /* \"@openzeppelin/contracts/token/ERC20/ERC20.sol\":11329:11336  spender */\n      dup5\n        /* \"@openzeppelin/contracts/token/ERC20/ERC20.sol\":11312:11321  allowance */\n      tag_99\n        /* \"@openzeppelin/contracts/token/ERC20/ERC20.sol\":11312:11337  allowance(owner, spender) */\n      jump\t// in\n    tag_225:\n        /* \"@openzeppelin/contracts/token/ERC20/ERC20.sol\":11285:11337  uint256 currentAllowance = allowance(owner, spender) */\n      swap1\n      pop\n        /* \"@openzeppelin/contracts/token/ERC20/ERC20.sol\":11371:11388  type(uint256).max */\n      0xffffffffffffffffffffffffffffffffffffffffffffffffffffffffffffffff\n        /* \"@openzeppelin/contracts/token/ERC20/ERC20.sol\":11351:11367  currentAllowance */\n      dup2\n        /* \"@openzeppelin/contracts/token/ERC20/ERC20.sol\":11351:11388  currentAllowance != type(uint256).max */\n      eq\n        /* \"@openzeppelin/contracts/token/ERC20/ERC20.sol\":11347:11590  if (currentAllowance != type(uint256).max) {... */\n      tag_226\n      jumpi\n        /* \"@openzeppelin/contracts/token/ERC20/ERC20.sol\":11432:11438  amount */\n      dup2\n        /* \"@openzeppelin/contracts/token/ERC20/ERC20.sol\":11412:11428  currentAllowance */\n      dup2\n        /* \"@openzeppelin/contracts/token/ERC20/ERC20.sol\":11412:11438  currentAllowance >= amount */\n      lt\n      iszero\n        /* \"@openzeppelin/contracts/token/ERC20/ERC20.sol\":11404:11472  require(currentAllowance >= amount, \"ERC20: insufficient allowance\") */\n      tag_227\n      jumpi\n      mload(0x40)\n      0x08c379a000000000000000000000000000000000000000000000000000000000\n      dup2\n      mstore\n      0x04\n      add\n      tag_228\n      swap1\n      tag_229\n      jump\t// in\n    tag_228:\n      mload(0x40)\n      dup1\n      swap2\n      sub\n      swap1\n      revert\n    tag_227:\n        /* \"@openzeppelin/contracts/token/ERC20/ERC20.sol\":11514:11565  _approve(owner, spender, currentAllowance - amount) */\n      tag_230\n        /* \"@openzeppelin/contracts/token/ERC20/ERC20.sol\":11523:11528  owner */\n      dup5\n        /* \"@openzeppelin/contracts/token/ERC20/ERC20.sol\":11530:11537  spender */\n      dup5\n        /* \"@openzeppelin/contracts/token/ERC20/ERC20.sol\":11558:11564  amount */\n      dup5\n        /* \"@openzeppelin/contracts/token/ERC20/ERC20.sol\":11539:11555  currentAllowance */\n      dup5\n        /* \"@openzeppelin/contracts/token/ERC20/ERC20.sol\":11539:11564  currentAllowance - amount */\n      sub\n        /* \"@openzeppelin/contracts/token/ERC20/ERC20.sol\":11514:11522  _approve */\n      tag_115\n        /* \"@openzeppelin/contracts/token/ERC20/ERC20.sol\":11514:11565  _approve(owner, spender, currentAllowance - amount) */\n      jump\t// in\n    tag_230:\n        /* \"@openzeppelin/contracts/token/ERC20/ERC20.sol\":11347:11590  if (currentAllowance != type(uint256).max) {... */\n    tag_226:\n        /* \"@openzeppelin/contracts/token/ERC20/ERC20.sol\":11275:11596  {... */\n      pop\n        /* \"@openzeppelin/contracts/token/ERC20/ERC20.sol\":11155:11596  function _spendAllowance(... */\n      pop\n      pop\n      pop\n      jump\t// out\n        /* \"@openzeppelin/contracts/token/ERC20/ERC20.sol\":7473:8291  function _transfer(... */\n    tag_122:\n        /* \"@openzeppelin/contracts/token/ERC20/ERC20.sol\":7615:7616  0 */\n      0x00\n        /* \"@openzeppelin/contracts/token/ERC20/ERC20.sol\":7599:7617  from != address(0) */\n      0xffffffffffffffffffffffffffffffffffffffff\n      and\n        /* \"@openzeppelin/contracts/token/ERC20/ERC20.sol\":7599:7603  from */\n      dup4\n        /* \"@openzeppelin/contracts/token/ERC20/ERC20.sol\":7599:7617  from != address(0) */\n      0xffffffffffffffffffffffffffffffffffffffff\n      and\n      eq\n      iszero\n        /* \"@openzeppelin/contracts/token/ERC20/ERC20.sol\":7591:7659  require(from != address(0), \"ERC20: transfer from the zero address\") */\n      tag_232\n      jumpi\n      mload(0x40)\n      0x08c379a000000000000000000000000000000000000000000000000000000000\n      dup2\n      mstore\n      0x04\n      add\n      tag_233\n      swap1\n      tag_234\n      jump\t// in\n    tag_233:\n      mload(0x40)\n      dup1\n      swap2\n      sub\n      swap1\n      revert\n    tag_232:\n        /* \"@openzeppelin/contracts/token/ERC20/ERC20.sol\":7691:7692  0 */\n      0x00\n        /* \"@openzeppelin/contracts/token/ERC20/ERC20.sol\":7677:7693  to != address(0) */\n      0xffffffffffffffffffffffffffffffffffffffff\n      and\n        /* \"@openzeppelin/contracts/token/ERC20/ERC20.sol\":7677:7679  to */\n      dup3\n        /* \"@openzeppelin/contracts/token/ERC20/ERC20.sol\":7677:7693  to != address(0) */\n      0xffffffffffffffffffffffffffffffffffffffff\n      and\n      eq\n      iszero\n        /* \"@openzeppelin/contracts/token/ERC20/ERC20.sol\":7669:7733  require(to != address(0), \"ERC20: transfer to the zero address\") */\n      tag_235\n      jumpi\n      mload(0x40)\n      0x08c379a000000000000000000000000000000000000000000000000000000000\n      dup2\n      mstore\n      0x04\n      add\n      tag_236\n      swap1\n      tag_237\n      jump\t// in\n    tag_236:\n      mload(0x40)\n      dup1\n      swap2\n      sub\n      swap1\n      revert\n    tag_235:\n        /* \"@openzeppelin/contracts/token/ERC20/ERC20.sol\":7744:7782  _beforeTokenTransfer(from, to, amount) */\n      tag_238\n        /* \"@openzeppelin/contracts/token/ERC20/ERC20.sol\":7765:7769  from */\n      dup4\n        /* \"@openzeppelin/contracts/token/ERC20/ERC20.sol\":7771:7773  to */\n      dup4\n        /* \"@openzeppelin/contracts/token/ERC20/ERC20.sol\":7775:7781  amount */\n      dup4\n        /* \"@openzeppelin/contracts/token/ERC20/ERC20.sol\":7744:7764  _beforeTokenTransfer */\n      tag_239\n        /* \"@openzeppelin/contracts/token/ERC20/ERC20.sol\":7744:7782  _beforeTokenTransfer(from, to, amount) */\n      jump\t// in\n    tag_238:\n        /* \"@openzeppelin/contracts/token/ERC20/ERC20.sol\":7793:7812  uint256 fromBalance */\n      0x00\n        /* \"@openzeppelin/contracts/token/ERC20/ERC20.sol\":7815:7824  _balances */\n      dup1\n        /* \"@openzeppelin/contracts/token/ERC20/ERC20.sol\":7815:7830  _balances[from] */\n      0x00\n        /* \"@openzeppelin/contracts/token/ERC20/ERC20.sol\":7825:7829  from */\n      dup6\n        /* \"@openzeppelin/contracts/token/ERC20/ERC20.sol\":7815:7830  _balances[from] */\n      0xffffffffffffffffffffffffffffffffffffffff\n      and\n      0xffffffffffffffffffffffffffffffffffffffff\n      and\n      dup2\n      mstore\n      0x20\n      add\n      swap1\n      dup2\n      mstore\n      0x20\n      add\n      0x00\n      keccak256\n      sload\n        /* \"@openzeppelin/contracts/token/ERC20/ERC20.sol\":7793:7830  uint256 fromBalance = _balances[from] */\n      swap1\n      pop\n        /* \"@openzeppelin/contracts/token/ERC20/ERC20.sol\":7863:7869  amount */\n      dup2\n        /* \"@openzeppelin/contracts/token/ERC20/ERC20.sol\":7848:7859  fromBalance */\n      dup2\n        /* \"@openzeppelin/contracts/token/ERC20/ERC20.sol\":7848:7869  fromBalance >= amount */\n      lt\n      iszero\n        /* \"@openzeppelin/contracts/token/ERC20/ERC20.sol\":7840:7912  require(fromBalance >= amount, \"ERC20: transfer amount exceeds balance\") */\n      tag_240\n      jumpi\n      mload(0x40)\n      0x08c379a000000000000000000000000000000000000000000000000000000000\n      dup2\n      mstore\n      0x04\n      add\n      tag_241\n      swap1\n      tag_242\n      jump\t// in\n    tag_241:\n      mload(0x40)\n      dup1\n      swap2\n      sub\n      swap1\n      revert\n    tag_240:\n        /* \"@openzeppelin/contracts/token/ERC20/ERC20.sol\":7978:7984  amount */\n      dup2\n        /* \"@openzeppelin/contracts/token/ERC20/ERC20.sol\":7964:7975  fromBalance */\n      dup2\n        /* \"@openzeppelin/contracts/token/ERC20/ERC20.sol\":7964:7984  fromBalance - amount */\n      sub\n        /* \"@openzeppelin/contracts/token/ERC20/ERC20.sol\":7946:7955  _balances */\n      0x00\n        /* \"@openzeppelin/contracts/token/ERC20/ERC20.sol\":7946:7961  _balances[from] */\n      dup1\n        /* \"@openzeppelin/contracts/token/ERC20/ERC20.sol\":7956:7960  from */\n      dup7\n        /* \"@openzeppelin/contracts/token/ERC20/ERC20.sol\":7946:7961  _balances[from] */\n      0xffffffffffffffffffffffffffffffffffffffff\n      and\n      0xffffffffffffffffffffffffffffffffffffffff\n      and\n      dup2\n      mstore\n      0x20\n      add\n      swap1\n      dup2\n      mstore\n      0x20\n      add\n      0x00\n      keccak256\n        /* \"@openzeppelin/contracts/token/ERC20/ERC20.sol\":7946:7984  _balances[from] = fromBalance - amount */\n      dup2\n      swap1\n      sstore\n      pop\n        /* \"@openzeppelin/contracts/token/ERC20/ERC20.sol\":8178:8184  amount */\n      dup2\n        /* \"@openzeppelin/contracts/token/ERC20/ERC20.sol\":8161:8170  _balances */\n      0x00\n        /* \"@openzeppelin/contracts/token/ERC20/ERC20.sol\":8161:8174  _balances[to] */\n      dup1\n        /* \"@openzeppelin/contracts/token/ERC20/ERC20.sol\":8171:8173  to */\n      dup6\n        /* \"@openzeppelin/contracts/token/ERC20/ERC20.sol\":8161:8174  _balances[to] */\n      0xffffffffffffffffffffffffffffffffffffffff\n      and\n      0xffffffffffffffffffffffffffffffffffffffff\n      and\n      dup2\n      mstore\n      0x20\n      add\n      swap1\n      dup2\n      mstore\n      0x20\n      add\n      0x00\n      keccak256\n      0x00\n        /* \"@openzeppelin/contracts/token/ERC20/ERC20.sol\":8161:8184  _balances[to] += amount */\n      dup3\n      dup3\n      sload\n      add\n      swap3\n      pop\n      pop\n      dup2\n      swap1\n      sstore\n      pop\n        /* \"@openzeppelin/contracts/token/ERC20/ERC20.sol\":8225:8227  to */\n      dup3\n        /* \"@openzeppelin/contracts/token/ERC20/ERC20.sol\":8210:8236  Transfer(from, to, amount) */\n      0xffffffffffffffffffffffffffffffffffffffff\n      and\n        /* \"@openzeppelin/contracts/token/ERC20/ERC20.sol\":8219:8223  from */\n      dup5\n        /* \"@openzeppelin/contracts/token/ERC20/ERC20.sol\":8210:8236  Transfer(from, to, amount) */\n      0xffffffffffffffffffffffffffffffffffffffff\n      and\n      0xddf252ad1be2c89b69c2b068fc378daa952ba7f163c4a11628f55a4df523b3ef\n        /* \"@openzeppelin/contracts/token/ERC20/ERC20.sol\":8229:8235  amount */\n      dup5\n        /* \"@openzeppelin/contracts/token/ERC20/ERC20.sol\":8210:8236  Transfer(from, to, amount) */\n      mload(0x40)\n      tag_243\n      swap2\n      swap1\n      tag_40\n      jump\t// in\n    tag_243:\n      mload(0x40)\n      dup1\n      swap2\n      sub\n      swap1\n      log3\n        /* \"@openzeppelin/contracts/token/ERC20/ERC20.sol\":8247:8284  _afterTokenTransfer(from, to, amount) */\n      tag_244\n        /* \"@openzeppelin/contracts/token/ERC20/ERC20.sol\":8267:8271  from */\n      dup5\n        /* \"@openzeppelin/contracts/token/ERC20/ERC20.sol\":8273:8275  to */\n      dup5\n        /* \"@openzeppelin/contracts/token/ERC20/ERC20.sol\":8277:8283  amount */\n      dup5\n        /* \"@openzeppelin/contracts/token/ERC20/ERC20.sol\":8247:8266  _afterTokenTransfer */\n      tag_245\n        /* \"@openzeppelin/contracts/token/ERC20/ERC20.sol\":8247:8284  _afterTokenTransfer(from, to, amount) */\n      jump\t// in\n    tag_244:\n        /* \"@openzeppelin/contracts/token/ERC20/ERC20.sol\":7581:8291  {... */\n      pop\n        /* \"@openzeppelin/contracts/token/ERC20/ERC20.sol\":7473:8291  function _transfer(... */\n      pop\n      pop\n      pop\n      jump\t// out\n        /* \"@openzeppelin/contracts/access/Ownable.sol\":1359:1489  function _checkOwner() internal view virtual {... */\n    tag_132:\n        /* \"@openzeppelin/contracts/access/Ownable.sol\":1433:1445  _msgSender() */\n      tag_247\n        /* \"@openzeppelin/contracts/access/Ownable.sol\":1433:1443  _msgSender */\n      tag_113\n        /* \"@openzeppelin/contracts/access/Ownable.sol\":1433:1445  _msgSender() */\n      jump\t// in\n    tag_247:\n        /* \"@openzeppelin/contracts/access/Ownable.sol\":1422:1445  owner() == _msgSender() */\n      0xffffffffffffffffffffffffffffffffffffffff\n      and\n        /* \"@openzeppelin/contracts/access/Ownable.sol\":1422:1429  owner() */\n      tag_248\n        /* \"@openzeppelin/contracts/access/Ownable.sol\":1422:1427  owner */\n      tag_79\n        /* \"@openzeppelin/contracts/access/Ownable.sol\":1422:1429  owner() */\n      jump\t// in\n    tag_248:\n        /* \"@openzeppelin/contracts/access/Ownable.sol\":1422:1445  owner() == _msgSender() */\n      0xffffffffffffffffffffffffffffffffffffffff\n      and\n      eq\n        /* \"@openzeppelin/contracts/access/Ownable.sol\":1414:1482  require(owner() == _msgSender(), \"Ownable: caller is not the owner\") */\n      tag_249\n      jumpi\n      mload(0x40)\n      0x08c379a000000000000000000000000000000000000000000000000000000000\n      dup2\n      mstore\n      0x04\n      add\n      tag_250\n      swap1\n      tag_251\n      jump\t// in\n    tag_250:\n      mload(0x40)\n      dup1\n      swap2\n      sub\n      swap1\n      revert\n    tag_249:\n        /* \"@openzeppelin/contracts/access/Ownable.sol\":1359:1489  function _checkOwner() internal view virtual {... */\n      jump\t// out\n        /* \"@openzeppelin/contracts/security/Pausable.sol\":2433:2550  function _unpause() internal virtual whenPaused {... */\n    tag_135:\n        /* \"@openzeppelin/contracts/security/Pausable.sol\":1486:1502  _requirePaused() */\n      tag_253\n        /* \"@openzeppelin/contracts/security/Pausable.sol\":1486:1500  _requirePaused */\n      tag_254\n        /* \"@openzeppelin/contracts/security/Pausable.sol\":1486:1502  _requirePaused() */\n      jump\t// in\n    tag_253:\n        /* \"@openzeppelin/contracts/security/Pausable.sol\":2501:2506  false */\n      0x00\n        /* \"@openzeppelin/contracts/security/Pausable.sol\":2491:2498  _paused */\n      0x05\n      0x00\n        /* \"@openzeppelin/contracts/security/Pausable.sol\":2491:2506  _paused = false */\n      0x0100\n      exp\n      dup2\n      sload\n      dup2\n      0xff\n      mul\n      not\n      and\n      swap1\n      dup4\n      iszero\n      iszero\n      mul\n      or\n      swap1\n      sstore\n      pop\n        /* \"@openzeppelin/contracts/security/Pausable.sol\":2521:2543  Unpaused(_msgSender()) */\n      0x5db9ee0a495bf2e6ff9c91a7834c1ba4fdd244a5e8aa4e537bd38aeae4b073aa\n        /* \"@openzeppelin/contracts/security/Pausable.sol\":2530:2542  _msgSender() */\n      tag_256\n        /* \"@openzeppelin/contracts/security/Pausable.sol\":2530:2540  _msgSender */\n      tag_113\n        /* \"@openzeppelin/contracts/security/Pausable.sol\":2530:2542  _msgSender() */\n      jump\t// in\n    tag_256:\n        /* \"@openzeppelin/contracts/security/Pausable.sol\":2521:2543  Unpaused(_msgSender()) */\n      mload(0x40)\n      tag_257\n      swap2\n      swap1\n      tag_81\n      jump\t// in\n    tag_257:\n      mload(0x40)\n      dup1\n      swap2\n      sub\n      swap1\n      log1\n        /* \"@openzeppelin/contracts/security/Pausable.sol\":2433:2550  function _unpause() internal virtual whenPaused {... */\n      jump\t// out\n        /* \"@openzeppelin/contracts/token/ERC20/ERC20.sol\":8567:9102  function _mint(address account, uint256 amount) internal virtual {... */\n    tag_159:\n        /* \"@openzeppelin/contracts/token/ERC20/ERC20.sol\":8669:8670  0 */\n      0x00\n        /* \"@openzeppelin/contracts/token/ERC20/ERC20.sol\":8650:8671  account != address(0) */\n      0xffffffffffffffffffffffffffffffffffffffff\n      and\n        /* \"@openzeppelin/contracts/token/ERC20/ERC20.sol\":8650:8657  account */\n      dup3\n        /* \"@openzeppelin/contracts/token/ERC20/ERC20.sol\":8650:8671  account != address(0) */\n      0xffffffffffffffffffffffffffffffffffffffff\n      and\n      eq\n      iszero\n        /* \"@openzeppelin/contracts/token/ERC20/ERC20.sol\":8642:8707  require(account != address(0), \"ERC20: mint to the zero address\") */\n      tag_259\n      jumpi\n      mload(0x40)\n      0x08c379a000000000000000000000000000000000000000000000000000000000\n      dup2\n      mstore\n      0x04\n      add\n      tag_260\n      swap1\n      tag_261\n      jump\t// in\n    tag_260:\n      mload(0x40)\n      dup1\n      swap2\n      sub\n      swap1\n      revert\n    tag_259:\n        /* \"@openzeppelin/contracts/token/ERC20/ERC20.sol\":8718:8767  _beforeTokenTransfer(address(0), account, amount) */\n      tag_262\n        /* \"@openzeppelin/contracts/token/ERC20/ERC20.sol\":8747:8748  0 */\n      0x00\n        /* \"@openzeppelin/contracts/token/ERC20/ERC20.sol\":8751:8758  account */\n      dup4\n        /* \"@openzeppelin/contracts/token/ERC20/ERC20.sol\":8760:8766  amount */\n      dup4\n        /* \"@openzeppelin/contracts/token/ERC20/ERC20.sol\":8718:8738  _beforeTokenTransfer */\n      tag_239\n        /* \"@openzeppelin/contracts/token/ERC20/ERC20.sol\":8718:8767  _beforeTokenTransfer(address(0), account, amount) */\n      jump\t// in\n    tag_262:\n        /* \"@openzeppelin/contracts/token/ERC20/ERC20.sol\":8794:8800  amount */\n      dup1\n        /* \"@openzeppelin/contracts/token/ERC20/ERC20.sol\":8778:8790  _totalSupply */\n      0x02\n      0x00\n        /* \"@openzeppelin/contracts/token/ERC20/ERC20.sol\":8778:8800  _totalSupply += amount */\n      dup3\n      dup3\n      sload\n      tag_263\n      swap2\n      swap1\n      tag_129\n      jump\t// in\n    tag_263:\n      swap3\n      pop\n      pop\n      dup2\n      swap1\n      sstore\n      pop\n        /* \"@openzeppelin/contracts/token/ERC20/ERC20.sol\":8968:8974  amount */\n      dup1\n        /* \"@openzeppelin/contracts/token/ERC20/ERC20.sol\":8946:8955  _balances */\n      0x00\n        /* \"@openzeppelin/contracts/token/ERC20/ERC20.sol\":8946:8964  _balances[account] */\n      dup1\n        /* \"@openzeppelin/contracts/token/ERC20/ERC20.sol\":8956:8963  account */\n      dup5\n        /* \"@openzeppelin/contracts/token/ERC20/ERC20.sol\":8946:8964  _balances[account] */\n      0xffffffffffffffffffffffffffffffffffffffff\n      and\n      0xffffffffffffffffffffffffffffffffffffffff\n      and\n      dup2\n      mstore\n      0x20\n      add\n      swap1\n      dup2\n      mstore\n      0x20\n      add\n      0x00\n      keccak256\n      0x00\n        /* \"@openzeppelin/contracts/token/ERC20/ERC20.sol\":8946:8974  _balances[account] += amount */\n      dup3\n      dup3\n      sload\n      add\n      swap3\n      pop\n      pop\n      dup2\n      swap1\n      sstore\n      pop\n        /* \"@openzeppelin/contracts/token/ERC20/ERC20.sol\":9020:9027  account */\n      dup2\n        /* \"@openzeppelin/contracts/token/ERC20/ERC20.sol\":8999:9036  Transfer(address(0), account, amount) */\n      0xffffffffffffffffffffffffffffffffffffffff\n      and\n        /* \"@openzeppelin/contracts/token/ERC20/ERC20.sol\":9016:9017  0 */\n      0x00\n        /* \"@openzeppelin/contracts/token/ERC20/ERC20.sol\":8999:9036  Transfer(address(0), account, amount) */\n      0xffffffffffffffffffffffffffffffffffffffff\n      and\n      0xddf252ad1be2c89b69c2b068fc378daa952ba7f163c4a11628f55a4df523b3ef\n        /* \"@openzeppelin/contracts/token/ERC20/ERC20.sol\":9029:9035  amount */\n      dup4\n        /* \"@openzeppelin/contracts/token/ERC20/ERC20.sol\":8999:9036  Transfer(address(0), account, amount) */\n      mload(0x40)\n      tag_264\n      swap2\n      swap1\n      tag_40\n      jump\t// in\n    tag_264:\n      mload(0x40)\n      dup1\n      swap2\n      sub\n      swap1\n      log3\n        /* \"@openzeppelin/contracts/token/ERC20/ERC20.sol\":9047:9095  _afterTokenTransfer(address(0), account, amount) */\n      tag_265\n        /* \"@openzeppelin/contracts/token/ERC20/ERC20.sol\":9075:9076  0 */\n      0x00\n        /* \"@openzeppelin/contracts/token/ERC20/ERC20.sol\":9079:9086  account */\n      dup4\n        /* \"@openzeppelin/contracts/token/ERC20/ERC20.sol\":9088:9094  amount */\n      dup4\n        /* \"@openzeppelin/contracts/token/ERC20/ERC20.sol\":9047:9066  _afterTokenTransfer */\n      tag_245\n        /* \"@openzeppelin/contracts/token/ERC20/ERC20.sol\":9047:9095  _afterTokenTransfer(address(0), account, amount) */\n      jump\t// in\n    tag_265:\n        /* \"@openzeppelin/contracts/token/ERC20/ERC20.sol\":8567:9102  function _mint(address account, uint256 amount) internal virtual {... */\n      pop\n      pop\n      jump\t// out\n        /* \"@openzeppelin/contracts/token/ERC20/ERC20.sol\":9422:10081  function _burn(address account, uint256 amount) internal virtual {... */\n    tag_163:\n        /* \"@openzeppelin/contracts/token/ERC20/ERC20.sol\":9524:9525  0 */\n      0x00\n        /* \"@openzeppelin/contracts/token/ERC20/ERC20.sol\":9505:9526  account != address(0) */\n      0xffffffffffffffffffffffffffffffffffffffff\n      and\n        /* \"@openzeppelin/contracts/token/ERC20/ERC20.sol\":9505:9512  account */\n      dup3\n        /* \"@openzeppelin/contracts/token/ERC20/ERC20.sol\":9505:9526  account != address(0) */\n      0xffffffffffffffffffffffffffffffffffffffff\n      and\n      eq\n      iszero\n        /* \"@openzeppelin/contracts/token/ERC20/ERC20.sol\":9497:9564  require(account != address(0), \"ERC20: burn from the zero address\") */\n      tag_267\n      jumpi\n      mload(0x40)\n      0x08c379a000000000000000000000000000000000000000000000000000000000\n      dup2\n      mstore\n      0x04\n      add\n      tag_268\n      swap1\n      tag_269\n      jump\t// in\n    tag_268:\n      mload(0x40)\n      dup1\n      swap2\n      sub\n      swap1\n      revert\n    tag_267:\n        /* \"@openzeppelin/contracts/token/ERC20/ERC20.sol\":9575:9624  _beforeTokenTransfer(account, address(0), amount) */\n      tag_270\n        /* \"@openzeppelin/contracts/token/ERC20/ERC20.sol\":9596:9603  account */\n      dup3\n        /* \"@openzeppelin/contracts/token/ERC20/ERC20.sol\":9613:9614  0 */\n      0x00\n        /* \"@openzeppelin/contracts/token/ERC20/ERC20.sol\":9617:9623  amount */\n      dup4\n        /* \"@openzeppelin/contracts/token/ERC20/ERC20.sol\":9575:9595  _beforeTokenTransfer */\n      tag_239\n        /* \"@openzeppelin/contracts/token/ERC20/ERC20.sol\":9575:9624  _beforeTokenTransfer(account, address(0), amount) */\n      jump\t// in\n    tag_270:\n        /* \"@openzeppelin/contracts/token/ERC20/ERC20.sol\":9635:9657  uint256 accountBalance */\n      0x00\n        /* \"@openzeppelin/contracts/token/ERC20/ERC20.sol\":9660:9669  _balances */\n      dup1\n        /* \"@openzeppelin/contracts/token/ERC20/ERC20.sol\":9660:9678  _balances[account] */\n      0x00\n        /* \"@openzeppelin/contracts/token/ERC20/ERC20.sol\":9670:9677  account */\n      dup5\n        /* \"@openzeppelin/contracts/token/ERC20/ERC20.sol\":9660:9678  _balances[account] */\n      0xffffffffffffffffffffffffffffffffffffffff\n      and\n      0xffffffffffffffffffffffffffffffffffffffff\n      and\n      dup2\n      mstore\n      0x20\n      add\n      swap1\n      dup2\n      mstore\n      0x20\n      add\n      0x00\n      keccak256\n      sload\n        /* \"@openzeppelin/contracts/token/ERC20/ERC20.sol\":9635:9678  uint256 accountBalance = _balances[account] */\n      swap1\n      pop\n        /* \"@openzeppelin/contracts/token/ERC20/ERC20.sol\":9714:9720  amount */\n      dup2\n        /* \"@openzeppelin/contracts/token/ERC20/ERC20.sol\":9696:9710  accountBalance */\n      dup2\n        /* \"@openzeppelin/contracts/token/ERC20/ERC20.sol\":9696:9720  accountBalance >= amount */\n      lt\n      iszero\n        /* \"@openzeppelin/contracts/token/ERC20/ERC20.sol\":9688:9759  require(accountBalance >= amount, \"ERC20: burn amount exceeds balance\") */\n      tag_271\n      jumpi\n      mload(0x40)\n      0x08c379a000000000000000000000000000000000000000000000000000000000\n      dup2\n      mstore\n      0x04\n      add\n      tag_272\n      swap1\n      tag_273\n      jump\t// in\n    tag_272:\n      mload(0x40)\n      dup1\n      swap2\n      sub\n      swap1\n      revert\n    tag_271:\n        /* \"@openzeppelin/contracts/token/ERC20/ERC20.sol\":9831:9837  amount */\n      dup2\n        /* \"@openzeppelin/contracts/token/ERC20/ERC20.sol\":9814:9828  accountBalance */\n      dup2\n        /* \"@openzeppelin/contracts/token/ERC20/ERC20.sol\":9814:9837  accountBalance - amount */\n      sub\n        /* \"@openzeppelin/contracts/token/ERC20/ERC20.sol\":9793:9802  _balances */\n      0x00\n        /* \"@openzeppelin/contracts/token/ERC20/ERC20.sol\":9793:9811  _balances[account] */\n      dup1\n        /* \"@openzeppelin/contracts/token/ERC20/ERC20.sol\":9803:9810  account */\n      dup6\n        /* \"@openzeppelin/contracts/token/ERC20/ERC20.sol\":9793:9811  _balances[account] */\n      0xffffffffffffffffffffffffffffffffffffffff\n      and\n      0xffffffffffffffffffffffffffffffffffffffff\n      and\n      dup2\n      mstore\n      0x20\n      add\n      swap1\n      dup2\n      mstore\n      0x20\n      add\n      0x00\n      keccak256\n        /* \"@openzeppelin/contracts/token/ERC20/ERC20.sol\":9793:9837  _balances[account] = accountBalance - amount */\n      dup2\n      swap1\n      sstore\n      pop\n        /* \"@openzeppelin/contracts/token/ERC20/ERC20.sol\":9946:9952  amount */\n      dup2\n        /* \"@openzeppelin/contracts/token/ERC20/ERC20.sol\":9930:9942  _totalSupply */\n      0x02\n      0x00\n        /* \"@openzeppelin/contracts/token/ERC20/ERC20.sol\":9930:9952  _totalSupply -= amount */\n      dup3\n      dup3\n      sload\n      sub\n      swap3\n      pop\n      pop\n      dup2\n      swap1\n      sstore\n      pop\n        /* \"@openzeppelin/contracts/token/ERC20/ERC20.sol\":10004:10005  0 */\n      0x00\n        /* \"@openzeppelin/contracts/token/ERC20/ERC20.sol\":9978:10015  Transfer(account, address(0), amount) */\n      0xffffffffffffffffffffffffffffffffffffffff\n      and\n        /* \"@openzeppelin/contracts/token/ERC20/ERC20.sol\":9987:9994  account */\n      dup4\n        /* \"@openzeppelin/contracts/token/ERC20/ERC20.sol\":9978:10015  Transfer(account, address(0), amount) */\n      0xffffffffffffffffffffffffffffffffffffffff\n      and\n      0xddf252ad1be2c89b69c2b068fc378daa952ba7f163c4a11628f55a4df523b3ef\n        /* \"@openzeppelin/contracts/token/ERC20/ERC20.sol\":10008:10014  amount */\n      dup5\n        /* \"@openzeppelin/contracts/token/ERC20/ERC20.sol\":9978:10015  Transfer(account, address(0), amount) */\n      mload(0x40)\n      tag_274\n      swap2\n      swap1\n      tag_40\n      jump\t// in\n    tag_274:\n      mload(0x40)\n      dup1\n      swap2\n      sub\n      swap1\n      log3\n        /* \"@openzeppelin/contracts/token/ERC20/ERC20.sol\":10026:10074  _afterTokenTransfer(account, address(0), amount) */\n      tag_275\n        /* \"@openzeppelin/contracts/token/ERC20/ERC20.sol\":10046:10053  account */\n      dup4\n        /* \"@openzeppelin/contracts/token/ERC20/ERC20.sol\":10063:10064  0 */\n      0x00\n        /* \"@openzeppelin/contracts/token/ERC20/ERC20.sol\":10067:10073  amount */\n      dup5\n        /* \"@openzeppelin/contracts/token/ERC20/ERC20.sol\":10026:10045  _afterTokenTransfer */\n      tag_245\n        /* \"@openzeppelin/contracts/token/ERC20/ERC20.sol\":10026:10074  _afterTokenTransfer(account, address(0), amount) */\n      jump\t// in\n    tag_275:\n        /* \"@openzeppelin/contracts/token/ERC20/ERC20.sol\":9487:10081  {... */\n      pop\n        /* \"@openzeppelin/contracts/token/ERC20/ERC20.sol\":9422:10081  function _burn(address account, uint256 amount) internal virtual {... */\n      pop\n      pop\n      jump\t// out\n        /* \"@openzeppelin/contracts/access/Ownable.sol\":2433:2620  function _transferOwnership(address newOwner) internal virtual {... */\n    tag_170:\n        /* \"@openzeppelin/contracts/access/Ownable.sol\":2506:2522  address oldOwner */\n      0x00\n        /* \"@openzeppelin/contracts/access/Ownable.sol\":2525:2531  _owner */\n      0x05\n      0x01\n      swap1\n      sload\n      swap1\n      0x0100\n      exp\n      swap1\n      div\n      0xffffffffffffffffffffffffffffffffffffffff\n      and\n        /* \"@openzeppelin/contracts/access/Ownable.sol\":2506:2531  address oldOwner = _owner */\n      swap1\n      pop\n        /* \"@openzeppelin/contracts/access/Ownable.sol\":2550:2558  newOwner */\n      dup2\n        /* \"@openzeppelin/contracts/access/Ownable.sol\":2541:2547  _owner */\n      0x05\n      0x01\n        /* \"@openzeppelin/contracts/access/Ownable.sol\":2541:2558  _owner = newOwner */\n      0x0100\n      exp\n      dup2\n      sload\n      dup2\n      0xffffffffffffffffffffffffffffffffffffffff\n      mul\n      not\n      and\n      swap1\n      dup4\n      0xffffffffffffffffffffffffffffffffffffffff\n      and\n      mul\n      or\n      swap1\n      sstore\n      pop\n        /* \"@openzeppelin/contracts/access/Ownable.sol\":2604:2612  newOwner */\n      dup2\n        /* \"@openzeppelin/contracts/access/Ownable.sol\":2573:2613  OwnershipTransferred(oldOwner, newOwner) */\n      0xffffffffffffffffffffffffffffffffffffffff\n      and\n        /* \"@openzeppelin/contracts/access/Ownable.sol\":2594:2602  oldOwner */\n      dup2\n        /* \"@openzeppelin/contracts/access/Ownable.sol\":2573:2613  OwnershipTransferred(oldOwner, newOwner) */\n      0xffffffffffffffffffffffffffffffffffffffff\n      and\n      0x8be0079c531659141344cd1fd0a4f28419497f9722a3daafe3b4186f6b6457e0\n      mload(0x40)\n      mload(0x40)\n      dup1\n      swap2\n      sub\n      swap1\n      log3\n        /* \"@openzeppelin/contracts/access/Ownable.sol\":2496:2620  {... */\n      pop\n        /* \"@openzeppelin/contracts/access/Ownable.sol\":2433:2620  function _transferOwnership(address newOwner) internal virtual {... */\n      pop\n      jump\t// out\n        /* \"@openzeppelin/contracts/security/Pausable.sol\":2186:2301  function _pause() internal virtual whenNotPaused {... */\n    tag_179:\n        /* \"@openzeppelin/contracts/security/Pausable.sol\":1239:1258  _requireNotPaused() */\n      tag_278\n        /* \"@openzeppelin/contracts/security/Pausable.sol\":1239:1256  _requireNotPaused */\n      tag_279\n        /* \"@openzeppelin/contracts/security/Pausable.sol\":1239:1258  _requireNotPaused() */\n      jump\t// in\n    tag_278:\n        /* \"@openzeppelin/contracts/security/Pausable.sol\":2255:2259  true */\n      0x01\n        /* \"@openzeppelin/contracts/security/Pausable.sol\":2245:2252  _paused */\n      0x05\n      0x00\n        /* \"@openzeppelin/contracts/security/Pausable.sol\":2245:2259  _paused = true */\n      0x0100\n      exp\n      dup2\n      sload\n      dup2\n      0xff\n      mul\n      not\n      and\n      swap1\n      dup4\n      iszero\n      iszero\n      mul\n      or\n      swap1\n      sstore\n      pop\n        /* \"@openzeppelin/contracts/security/Pausable.sol\":2274:2294  Paused(_msgSender()) */\n      0x62e78cea01bee320cd4e420270b5ea74000d11b0c9f74754ebdbfc544b05a258\n        /* \"@openzeppelin/contracts/security/Pausable.sol\":2281:2293  _msgSender() */\n      tag_281\n        /* \"@openzeppelin/contracts/security/Pausable.sol\":2281:2291  _msgSender */\n      tag_113\n        /* \"@openzeppelin/contracts/security/Pausable.sol\":2281:2293  _msgSender() */\n      jump\t// in\n    tag_281:\n        /* \"@openzeppelin/contracts/security/Pausable.sol\":2274:2294  Paused(_msgSender()) */\n      mload(0x40)\n      tag_282\n      swap2\n      swap1\n      tag_81\n      jump\t// in\n    tag_282:\n      mload(0x40)\n      dup1\n      swap2\n      sub\n      swap1\n      log1\n        /* \"@openzeppelin/contracts/security/Pausable.sol\":2186:2301  function _pause() internal virtual whenNotPaused {... */\n      jump\t// out\n        /* \"contracts/MyCashToken.sol\":1482:1886  function _beforeTokenTransfer(address from, address to, uint256 amount)... */\n    tag_239:\n        /* \"@openzeppelin/contracts/security/Pausable.sol\":1239:1258  _requireNotPaused() */\n      tag_284\n        /* \"@openzeppelin/contracts/security/Pausable.sol\":1239:1256  _requireNotPaused */\n      tag_279\n        /* \"@openzeppelin/contracts/security/Pausable.sol\":1239:1258  _requireNotPaused() */\n      jump\t// in\n    tag_284:\n        /* \"contracts/MyCashToken.sol\":1632:1638  rights */\n      0x06\n      0x00\n      swap1\n      sload\n      swap1\n      0x0100\n      exp\n      swap1\n      div\n      0xffffffffffffffffffffffffffffffffffffffff\n      and\n        /* \"contracts/MyCashToken.sol\":1632:1648  rights.hasRights */\n      0xffffffffffffffffffffffffffffffffffffffff\n      and\n      0xf35f0f74\n        /* \"contracts/MyCashToken.sol\":1649:1651  to */\n      dup4\n        /* \"contracts/MembershipRights.sol\":134:137  0x2 */\n      0x02\n        /* \"contracts/MyCashToken.sol\":1632:1666  rights.hasRights(to, ASSET_HOLDER) */\n      mload(0x40)\n      dup4\n      0xffffffff\n      and\n      0xe0\n      shl\n      dup2\n      mstore\n      0x04\n      add\n      tag_286\n      swap3\n      swap2\n      swap1\n      tag_138\n      jump\t// in\n    tag_286:\n      0x20\n      mload(0x40)\n      dup1\n      dup4\n      sub\n      dup2\n      dup7\n      dup1\n      extcodesize\n      iszero\n      dup1\n      iszero\n      tag_287\n      jumpi\n      0x00\n      dup1\n      revert\n    tag_287:\n      pop\n      gas\n      staticcall\n      iszero\n      dup1\n      iszero\n      tag_289\n      jumpi\n      returndatasize\n      0x00\n      dup1\n      returndatacopy\n      revert(0x00, returndatasize)\n    tag_289:\n      pop\n      pop\n      pop\n      pop\n      mload(0x40)\n      returndatasize\n      not(0x1f)\n      0x1f\n      dup3\n      add\n      and\n      dup3\n      add\n      dup1\n      0x40\n      mstore\n      pop\n      dup2\n      add\n      swap1\n      tag_290\n      swap2\n      swap1\n      tag_143\n      jump\t// in\n    tag_290:\n        /* \"contracts/MyCashToken.sol\":1624:1719  require(rights.hasRights(to, ASSET_HOLDER), \"Receiver address is not an approved asset holder\") */\n      tag_291\n      jumpi\n      mload(0x40)\n      0x08c379a000000000000000000000000000000000000000000000000000000000\n      dup2\n      mstore\n      0x04\n      add\n      tag_292\n      swap1\n      tag_154\n      jump\t// in\n    tag_292:\n      mload(0x40)\n      dup1\n      swap2\n      sub\n      swap1\n      revert\n    tag_291:\n        /* \"contracts/MyCashToken.sol\":1756:1762  amount */\n      dup1\n        /* \"contracts/MyCashToken.sol\":1737:1752  balanceOf(from) */\n      tag_293\n        /* \"contracts/MyCashToken.sol\":1747:1751  from */\n      dup5\n        /* \"contracts/MyCashToken.sol\":1737:1746  balanceOf */\n      tag_69\n        /* \"contracts/MyCashToken.sol\":1737:1752  balanceOf(from) */\n      jump\t// in\n    tag_293:\n        /* \"contracts/MyCashToken.sol\":1737:1762  balanceOf(from) >= amount */\n      lt\n      iszero\n        /* \"contracts/MyCashToken.sol\":1729:1825  require(balanceOf(from) >= amount, \"Transfer amount is greater than the debit account ballance\") */\n      tag_294\n      jumpi\n      mload(0x40)\n      0x08c379a000000000000000000000000000000000000000000000000000000000\n      dup2\n      mstore\n      0x04\n      add\n      tag_295\n      swap1\n      tag_296\n      jump\t// in\n    tag_295:\n      mload(0x40)\n      dup1\n      swap2\n      sub\n      swap1\n      revert\n    tag_294:\n        /* \"contracts/MyCashToken.sol\":1835:1879  super._beforeTokenTransfer(from, to, amount) */\n      tag_297\n        /* \"contracts/MyCashToken.sol\":1862:1866  from */\n      dup4\n        /* \"contracts/MyCashToken.sol\":1868:1870  to */\n      dup4\n        /* \"contracts/MyCashToken.sol\":1872:1878  amount */\n      dup4\n        /* \"contracts/MyCashToken.sol\":1835:1861  super._beforeTokenTransfer */\n      tag_298\n        /* \"contracts/MyCashToken.sol\":1835:1879  super._beforeTokenTransfer(from, to, amount) */\n      jump\t// in\n    tag_297:\n        /* \"contracts/MyCashToken.sol\":1482:1886  function _beforeTokenTransfer(address from, address to, uint256 amount)... */\n      pop\n      pop\n      pop\n      jump\t// out\n        /* \"@openzeppelin/contracts/token/ERC20/ERC20.sol\":12889:13009  function _afterTokenTransfer(... */\n    tag_245:\n      pop\n      pop\n      pop\n      jump\t// out\n        /* \"@openzeppelin/contracts/security/Pausable.sol\":1945:2051  function _requirePaused() internal view virtual {... */\n    tag_254:\n        /* \"@openzeppelin/contracts/security/Pausable.sol\":2011:2019  paused() */\n      tag_301\n        /* \"@openzeppelin/contracts/security/Pausable.sol\":2011:2017  paused */\n      tag_64\n        /* \"@openzeppelin/contracts/security/Pausable.sol\":2011:2019  paused() */\n      jump\t// in\n    tag_301:\n        /* \"@openzeppelin/contracts/security/Pausable.sol\":2003:2044  require(paused(), \"Pausable: not paused\") */\n      tag_302\n      jumpi\n      mload(0x40)\n      0x08c379a000000000000000000000000000000000000000000000000000000000\n      dup2\n      mstore\n      0x04\n      add\n      tag_303\n      swap1\n      tag_304\n      jump\t// in\n    tag_303:\n      mload(0x40)\n      dup1\n      swap2\n      sub\n      swap1\n      revert\n    tag_302:\n        /* \"@openzeppelin/contracts/security/Pausable.sol\":1945:2051  function _requirePaused() internal view virtual {... */\n      jump\t// out\n        /* \"@openzeppelin/contracts/security/Pausable.sol\":1767:1873  function _requireNotPaused() internal view virtual {... */\n    tag_279:\n        /* \"@openzeppelin/contracts/security/Pausable.sol\":1837:1845  paused() */\n      tag_306\n        /* \"@openzeppelin/contracts/security/Pausable.sol\":1837:1843  paused */\n      tag_64\n        /* \"@openzeppelin/contracts/security/Pausable.sol\":1837:1845  paused() */\n      jump\t// in\n    tag_306:\n        /* \"@openzeppelin/contracts/security/Pausable.sol\":1836:1845  !paused() */\n      iszero\n        /* \"@openzeppelin/contracts/security/Pausable.sol\":1828:1866  require(!paused(), \"Pausable: paused\") */\n      tag_307\n      jumpi\n      mload(0x40)\n      0x08c379a000000000000000000000000000000000000000000000000000000000\n      dup2\n      mstore\n      0x04\n      add\n      tag_308\n      swap1\n      tag_309\n      jump\t// in\n    tag_308:\n      mload(0x40)\n      dup1\n      swap2\n      sub\n      swap1\n      revert\n    tag_307:\n        /* \"@openzeppelin/contracts/security/Pausable.sol\":1767:1873  function _requireNotPaused() internal view virtual {... */\n      jump\t// out\n        /* \"@openzeppelin/contracts/token/ERC20/ERC20.sol\":12180:12301  function _beforeTokenTransfer(... */\n    tag_298:\n      pop\n      pop\n      pop\n      jump\t// out\n        /* \"#utility.yul\":7:106   */\n    tag_311:\n        /* \"#utility.yul\":59:65   */\n      0x00\n        /* \"#utility.yul\":93:98   */\n      dup2\n        /* \"#utility.yul\":87:99   */\n      mload\n        /* \"#utility.yul\":77:99   */\n      swap1\n      pop\n        /* \"#utility.yul\":7:106   */\n      swap2\n      swap1\n      pop\n      jump\t// out\n        /* \"#utility.yul\":112:281   */\n    tag_312:\n        /* \"#utility.yul\":196:207   */\n      0x00\n        /* \"#utility.yul\":230:236   */\n      dup3\n        /* \"#utility.yul\":225:228   */\n      dup3\n        /* \"#utility.yul\":218:237   */\n      mstore\n        /* \"#utility.yul\":270:274   */\n      0x20\n        /* \"#utility.yul\":265:268   */\n      dup3\n        /* \"#utility.yul\":261:275   */\n      add\n        /* \"#utility.yul\":246:275   */\n      swap1\n      pop\n        /* \"#utility.yul\":112:281   */\n      swap3\n      swap2\n      pop\n      pop\n      jump\t// out\n        /* \"#utility.yul\":287:594   */\n    tag_313:\n        /* \"#utility.yul\":355:356   */\n      0x00\n        /* \"#utility.yul\":365:478   */\n    tag_380:\n        /* \"#utility.yul\":379:385   */\n      dup4\n        /* \"#utility.yul\":376:377   */\n      dup2\n        /* \"#utility.yul\":373:386   */\n      lt\n        /* \"#utility.yul\":365:478   */\n      iszero\n      tag_382\n      jumpi\n        /* \"#utility.yul\":464:465   */\n      dup1\n        /* \"#utility.yul\":459:462   */\n      dup3\n        /* \"#utility.yul\":455:466   */\n      add\n        /* \"#utility.yul\":449:467   */\n      mload\n        /* \"#utility.yul\":445:446   */\n      dup2\n        /* \"#utility.yul\":440:443   */\n      dup5\n        /* \"#utility.yul\":436:447   */\n      add\n        /* \"#utility.yul\":429:468   */\n      mstore\n        /* \"#utility.yul\":401:403   */\n      0x20\n        /* \"#utility.yul\":398:399   */\n      dup2\n        /* \"#utility.yul\":394:404   */\n      add\n        /* \"#utility.yul\":389:404   */\n      swap1\n      pop\n        /* \"#utility.yul\":365:478   */\n      jump(tag_380)\n    tag_382:\n        /* \"#utility.yul\":496:502   */\n      dup4\n        /* \"#utility.yul\":493:494   */\n      dup2\n        /* \"#utility.yul\":490:503   */\n      gt\n        /* \"#utility.yul\":487:588   */\n      iszero\n      tag_383\n      jumpi\n        /* \"#utility.yul\":576:577   */\n      0x00\n        /* \"#utility.yul\":567:573   */\n      dup5\n        /* \"#utility.yul\":562:565   */\n      dup5\n        /* \"#utility.yul\":558:574   */\n      add\n        /* \"#utility.yul\":551:578   */\n      mstore\n        /* \"#utility.yul\":487:588   */\n    tag_383:\n        /* \"#utility.yul\":336:594   */\n      pop\n        /* \"#utility.yul\":287:594   */\n      pop\n      pop\n      pop\n      jump\t// out\n        /* \"#utility.yul\":600:702   */\n    tag_314:\n        /* \"#utility.yul\":641:647   */\n      0x00\n        /* \"#utility.yul\":692:694   */\n      0x1f\n        /* \"#utility.yul\":688:695   */\n      not\n        /* \"#utility.yul\":683:685   */\n      0x1f\n        /* \"#utility.yul\":676:681   */\n      dup4\n        /* \"#utility.yul\":672:686   */\n      add\n        /* \"#utility.yul\":668:696   */\n      and\n        /* \"#utility.yul\":658:696   */\n      swap1\n      pop\n        /* \"#utility.yul\":600:702   */\n      swap2\n      swap1\n      pop\n      jump\t// out\n        /* \"#utility.yul\":708:1072   */\n    tag_315:\n        /* \"#utility.yul\":796:799   */\n      0x00\n        /* \"#utility.yul\":824:863   */\n      tag_386\n        /* \"#utility.yul\":857:862   */\n      dup3\n        /* \"#utility.yul\":824:863   */\n      tag_311\n      jump\t// in\n    tag_386:\n        /* \"#utility.yul\":879:950   */\n      tag_387\n        /* \"#utility.yul\":943:949   */\n      dup2\n        /* \"#utility.yul\":938:941   */\n      dup6\n        /* \"#utility.yul\":879:950   */\n      tag_312\n      jump\t// in\n    tag_387:\n        /* \"#utility.yul\":872:950   */\n      swap4\n      pop\n        /* \"#utility.yul\":959:1011   */\n      tag_388\n        /* \"#utility.yul\":1004:1010   */\n      dup2\n        /* \"#utility.yul\":999:1002   */\n      dup6\n        /* \"#utility.yul\":992:996   */\n      0x20\n        /* \"#utility.yul\":985:990   */\n      dup7\n        /* \"#utility.yul\":981:997   */\n      add\n        /* \"#utility.yul\":959:1011   */\n      tag_313\n      jump\t// in\n    tag_388:\n        /* \"#utility.yul\":1036:1065   */\n      tag_389\n        /* \"#utility.yul\":1058:1064   */\n      dup2\n        /* \"#utility.yul\":1036:1065   */\n      tag_314\n      jump\t// in\n    tag_389:\n        /* \"#utility.yul\":1031:1034   */\n      dup5\n        /* \"#utility.yul\":1027:1066   */\n      add\n        /* \"#utility.yul\":1020:1066   */\n      swap2\n      pop\n        /* \"#utility.yul\":800:1072   */\n      pop\n        /* \"#utility.yul\":708:1072   */\n      swap3\n      swap2\n      pop\n      pop\n      jump\t// out\n        /* \"#utility.yul\":1078:1391   */\n    tag_30:\n        /* \"#utility.yul\":1191:1195   */\n      0x00\n        /* \"#utility.yul\":1229:1231   */\n      0x20\n        /* \"#utility.yul\":1218:1227   */\n      dup3\n        /* \"#utility.yul\":1214:1232   */\n      add\n        /* \"#utility.yul\":1206:1232   */\n      swap1\n      pop\n        /* \"#utility.yul\":1278:1287   */\n      dup2\n        /* \"#utility.yul\":1272:1276   */\n      dup2\n        /* \"#utility.yul\":1268:1288   */\n      sub\n        /* \"#utility.yul\":1264:1265   */\n      0x00\n        /* \"#utility.yul\":1253:1262   */\n      dup4\n        /* \"#utility.yul\":1249:1266   */\n      add\n        /* \"#utility.yul\":1242:1289   */\n      mstore\n        /* \"#utility.yul\":1306:1384   */\n      tag_391\n        /* \"#utility.yul\":1379:1383   */\n      dup2\n        /* \"#utility.yul\":1370:1376   */\n      dup5\n        /* \"#utility.yul\":1306:1384   */\n      tag_315\n      jump\t// in\n    tag_391:\n        /* \"#utility.yul\":1298:1384   */\n      swap1\n      pop\n        /* \"#utility.yul\":1078:1391   */\n      swap3\n      swap2\n      pop\n      pop\n      jump\t// out\n        /* \"#utility.yul\":1478:1595   */\n    tag_317:\n        /* \"#utility.yul\":1587:1588   */\n      0x00\n        /* \"#utility.yul\":1584:1585   */\n      dup1\n        /* \"#utility.yul\":1577:1589   */\n      revert\n        /* \"#utility.yul\":1724:1850   */\n    tag_319:\n        /* \"#utility.yul\":1761:1768   */\n      0x00\n        /* \"#utility.yul\":1801:1843   */\n      0xffffffffffffffffffffffffffffffffffffffff\n        /* \"#utility.yul\":1794:1799   */\n      dup3\n        /* \"#utility.yul\":1790:1844   */\n      and\n        /* \"#utility.yul\":1779:1844   */\n      swap1\n      pop\n        /* \"#utility.yul\":1724:1850   */\n      swap2\n      swap1\n      pop\n      jump\t// out\n        /* \"#utility.yul\":1856:1952   */\n    tag_320:\n        /* \"#utility.yul\":1893:1900   */\n      0x00\n        /* \"#utility.yul\":1922:1946   */\n      tag_397\n        /* \"#utility.yul\":1940:1945   */\n      dup3\n        /* \"#utility.yul\":1922:1946   */\n      tag_319\n      jump\t// in\n    tag_397:\n        /* \"#utility.yul\":1911:1946   */\n      swap1\n      pop\n        /* \"#utility.yul\":1856:1952   */\n      swap2\n      swap1\n      pop\n      jump\t// out\n        /* \"#utility.yul\":1958:2080   */\n    tag_321:\n        /* \"#utility.yul\":2031:2055   */\n      tag_399\n        /* \"#utility.yul\":2049:2054   */\n      dup2\n        /* \"#utility.yul\":2031:2055   */\n      tag_320\n      jump\t// in\n    tag_399:\n        /* \"#utility.yul\":2024:2029   */\n      dup2\n        /* \"#utility.yul\":2021:2056   */\n      eq\n        /* \"#utility.yul\":2011:2074   */\n      tag_400\n      jumpi\n        /* \"#utility.yul\":2070:2071   */\n      0x00\n        /* \"#utility.yul\":2067:2068   */\n      dup1\n        /* \"#utility.yul\":2060:2072   */\n      revert\n        /* \"#utility.yul\":2011:2074   */\n    tag_400:\n        /* \"#utility.yul\":1958:2080   */\n      pop\n      jump\t// out\n        /* \"#utility.yul\":2086:2225   */\n    tag_322:\n        /* \"#utility.yul\":2132:2137   */\n      0x00\n        /* \"#utility.yul\":2170:2176   */\n      dup2\n        /* \"#utility.yul\":2157:2177   */\n      calldataload\n        /* \"#utility.yul\":2148:2177   */\n      swap1\n      pop\n        /* \"#utility.yul\":2186:2219   */\n      tag_402\n        /* \"#utility.yul\":2213:2218   */\n      dup2\n        /* \"#utility.yul\":2186:2219   */\n      tag_321\n      jump\t// in\n    tag_402:\n        /* \"#utility.yul\":2086:2225   */\n      swap3\n      swap2\n      pop\n      pop\n      jump\t// out\n        /* \"#utility.yul\":2231:2308   */\n    tag_323:\n        /* \"#utility.yul\":2268:2275   */\n      0x00\n        /* \"#utility.yul\":2297:2302   */\n      dup2\n        /* \"#utility.yul\":2286:2302   */\n      swap1\n      pop\n        /* \"#utility.yul\":2231:2308   */\n      swap2\n      swap1\n      pop\n      jump\t// out\n        /* \"#utility.yul\":2314:2436   */\n    tag_324:\n        /* \"#utility.yul\":2387:2411   */\n      tag_405\n        /* \"#utility.yul\":2405:2410   */\n      dup2\n        /* \"#utility.yul\":2387:2411   */\n      tag_323\n      jump\t// in\n    tag_405:\n        /* \"#utility.yul\":2380:2385   */\n      dup2\n        /* \"#utility.yul\":2377:2412   */\n      eq\n        /* \"#utility.yul\":2367:2430   */\n      tag_406\n      jumpi\n        /* \"#utility.yul\":2426:2427   */\n      0x00\n        /* \"#utility.yul\":2423:2424   */\n      dup1\n        /* \"#utility.yul\":2416:2428   */\n      revert\n        /* \"#utility.yul\":2367:2430   */\n    tag_406:\n        /* \"#utility.yul\":2314:2436   */\n      pop\n      jump\t// out\n        /* \"#utility.yul\":2442:2581   */\n    tag_325:\n        /* \"#utility.yul\":2488:2493   */\n      0x00\n        /* \"#utility.yul\":2526:2532   */\n      dup2\n        /* \"#utility.yul\":2513:2533   */\n      calldataload\n        /* \"#utility.yul\":2504:2533   */\n      swap1\n      pop\n        /* \"#utility.yul\":2542:2575   */\n      tag_408\n        /* \"#utility.yul\":2569:2574   */\n      dup2\n        /* \"#utility.yul\":2542:2575   */\n      tag_324\n      jump\t// in\n    tag_408:\n        /* \"#utility.yul\":2442:2581   */\n      swap3\n      swap2\n      pop\n      pop\n      jump\t// out\n        /* \"#utility.yul\":2587:3061   */\n    tag_33:\n        /* \"#utility.yul\":2655:2661   */\n      0x00\n        /* \"#utility.yul\":2663:2669   */\n      dup1\n        /* \"#utility.yul\":2712:2714   */\n      0x40\n        /* \"#utility.yul\":2700:2709   */\n      dup4\n        /* \"#utility.yul\":2691:2698   */\n      dup6\n        /* \"#utility.yul\":2687:2710   */\n      sub\n        /* \"#utility.yul\":2683:2715   */\n      slt\n        /* \"#utility.yul\":2680:2799   */\n      iszero\n      tag_410\n      jumpi\n        /* \"#utility.yul\":2718:2797   */\n      tag_411\n      tag_317\n      jump\t// in\n    tag_411:\n        /* \"#utility.yul\":2680:2799   */\n    tag_410:\n        /* \"#utility.yul\":2838:2839   */\n      0x00\n        /* \"#utility.yul\":2863:2916   */\n      tag_412\n        /* \"#utility.yul\":2908:2915   */\n      dup6\n        /* \"#utility.yul\":2899:2905   */\n      dup3\n        /* \"#utility.yul\":2888:2897   */\n      dup7\n        /* \"#utility.yul\":2884:2906   */\n      add\n        /* \"#utility.yul\":2863:2916   */\n      tag_322\n      jump\t// in\n    tag_412:\n        /* \"#utility.yul\":2853:2916   */\n      swap3\n      pop\n        /* \"#utility.yul\":2809:2926   */\n      pop\n        /* \"#utility.yul\":2965:2967   */\n      0x20\n        /* \"#utility.yul\":2991:3044   */\n      tag_413\n        /* \"#utility.yul\":3036:3043   */\n      dup6\n        /* \"#utility.yul\":3027:3033   */\n      dup3\n        /* \"#utility.yul\":3016:3025   */\n      dup7\n        /* \"#utility.yul\":3012:3034   */\n      add\n        /* \"#utility.yul\":2991:3044   */\n      tag_325\n      jump\t// in\n    tag_413:\n        /* \"#utility.yul\":2981:3044   */\n      swap2\n      pop\n        /* \"#utility.yul\":2936:3054   */\n      pop\n        /* \"#utility.yul\":2587:3061   */\n      swap3\n      pop\n      swap3\n      swap1\n      pop\n      jump\t// out\n        /* \"#utility.yul\":3067:3157   */\n    tag_326:\n        /* \"#utility.yul\":3101:3108   */\n      0x00\n        /* \"#utility.yul\":3144:3149   */\n      dup2\n        /* \"#utility.yul\":3137:3150   */\n      iszero\n        /* \"#utility.yul\":3130:3151   */\n      iszero\n        /* \"#utility.yul\":3119:3151   */\n      swap1\n      pop\n        /* \"#utility.yul\":3067:3157   */\n      swap2\n      swap1\n      pop\n      jump\t// out\n        /* \"#utility.yul\":3163:3272   */\n    tag_327:\n        /* \"#utility.yul\":3244:3265   */\n      tag_416\n        /* \"#utility.yul\":3259:3264   */\n      dup2\n        /* \"#utility.yul\":3244:3265   */\n      tag_326\n      jump\t// in\n    tag_416:\n        /* \"#utility.yul\":3239:3242   */\n      dup3\n        /* \"#utility.yul\":3232:3266   */\n      mstore\n        /* \"#utility.yul\":3163:3272   */\n      pop\n      pop\n      jump\t// out\n        /* \"#utility.yul\":3278:3488   */\n    tag_36:\n        /* \"#utility.yul\":3365:3369   */\n      0x00\n        /* \"#utility.yul\":3403:3405   */\n      0x20\n        /* \"#utility.yul\":3392:3401   */\n      dup3\n        /* \"#utility.yul\":3388:3406   */\n      add\n        /* \"#utility.yul\":3380:3406   */\n      swap1\n      pop\n        /* \"#utility.yul\":3416:3481   */\n      tag_418\n        /* \"#utility.yul\":3478:3479   */\n      0x00\n        /* \"#utility.yul\":3467:3476   */\n      dup4\n        /* \"#utility.yul\":3463:3480   */\n      add\n        /* \"#utility.yul\":3454:3460   */\n      dup5\n        /* \"#utility.yul\":3416:3481   */\n      tag_327\n      jump\t// in\n    tag_418:\n        /* \"#utility.yul\":3278:3488   */\n      swap3\n      swap2\n      pop\n      pop\n      jump\t// out\n        /* \"#utility.yul\":3494:3612   */\n    tag_328:\n        /* \"#utility.yul\":3581:3605   */\n      tag_420\n        /* \"#utility.yul\":3599:3604   */\n      dup2\n        /* \"#utility.yul\":3581:3605   */\n      tag_323\n      jump\t// in\n    tag_420:\n        /* \"#utility.yul\":3576:3579   */\n      dup3\n        /* \"#utility.yul\":3569:3606   */\n      mstore\n        /* \"#utility.yul\":3494:3612   */\n      pop\n      pop\n      jump\t// out\n        /* \"#utility.yul\":3618:3840   */\n    tag_40:\n        /* \"#utility.yul\":3711:3715   */\n      0x00\n        /* \"#utility.yul\":3749:3751   */\n      0x20\n        /* \"#utility.yul\":3738:3747   */\n      dup3\n        /* \"#utility.yul\":3734:3752   */\n      add\n        /* \"#utility.yul\":3726:3752   */\n      swap1\n      pop\n        /* \"#utility.yul\":3762:3833   */\n      tag_422\n        /* \"#utility.yul\":3830:3831   */\n      0x00\n        /* \"#utility.yul\":3819:3828   */\n      dup4\n        /* \"#utility.yul\":3815:3832   */\n      add\n        /* \"#utility.yul\":3806:3812   */\n      dup5\n        /* \"#utility.yul\":3762:3833   */\n      tag_328\n      jump\t// in\n    tag_422:\n        /* \"#utility.yul\":3618:3840   */\n      swap3\n      swap2\n      pop\n      pop\n      jump\t// out\n        /* \"#utility.yul\":3846:4465   */\n    tag_43:\n        /* \"#utility.yul\":3923:3929   */\n      0x00\n        /* \"#utility.yul\":3931:3937   */\n      dup1\n        /* \"#utility.yul\":3939:3945   */\n      0x00\n        /* \"#utility.yul\":3988:3990   */\n      0x60\n        /* \"#utility.yul\":3976:3985   */\n      dup5\n        /* \"#utility.yul\":3967:3974   */\n      dup7\n        /* \"#utility.yul\":3963:3986   */\n      sub\n        /* \"#utility.yul\":3959:3991   */\n      slt\n        /* \"#utility.yul\":3956:4075   */\n      iszero\n      tag_424\n      jumpi\n        /* \"#utility.yul\":3994:4073   */\n      tag_425\n      tag_317\n      jump\t// in\n    tag_425:\n        /* \"#utility.yul\":3956:4075   */\n    tag_424:\n        /* \"#utility.yul\":4114:4115   */\n      0x00\n        /* \"#utility.yul\":4139:4192   */\n      tag_426\n        /* \"#utility.yul\":4184:4191   */\n      dup7\n        /* \"#utility.yul\":4175:4181   */\n      dup3\n        /* \"#utility.yul\":4164:4173   */\n      dup8\n        /* \"#utility.yul\":4160:4182   */\n      add\n        /* \"#utility.yul\":4139:4192   */\n      tag_322\n      jump\t// in\n    tag_426:\n        /* \"#utility.yul\":4129:4192   */\n      swap4\n      pop\n        /* \"#utility.yul\":4085:4202   */\n      pop\n        /* \"#utility.yul\":4241:4243   */\n      0x20\n        /* \"#utility.yul\":4267:4320   */\n      tag_427\n        /* \"#utility.yul\":4312:4319   */\n      dup7\n        /* \"#utility.yul\":4303:4309   */\n      dup3\n        /* \"#utility.yul\":4292:4301   */\n      dup8\n        /* \"#utility.yul\":4288:4310   */\n      add\n        /* \"#utility.yul\":4267:4320   */\n      tag_322\n      jump\t// in\n    tag_427:\n        /* \"#utility.yul\":4257:4320   */\n      swap3\n      pop\n        /* \"#utility.yul\":4212:4330   */\n      pop\n        /* \"#utility.yul\":4369:4371   */\n      0x40\n        /* \"#utility.yul\":4395:4448   */\n      tag_428\n        /* \"#utility.yul\":4440:4447   */\n      dup7\n        /* \"#utility.yul\":4431:4437   */\n      dup3\n        /* \"#utility.yul\":4420:4429   */\n      dup8\n        /* \"#utility.yul\":4416:4438   */\n      add\n        /* \"#utility.yul\":4395:4448   */\n      tag_325\n      jump\t// in\n    tag_428:\n        /* \"#utility.yul\":4385:4448   */\n      swap2\n      pop\n        /* \"#utility.yul\":4340:4458   */\n      pop\n        /* \"#utility.yul\":3846:4465   */\n      swap3\n      pop\n      swap3\n      pop\n      swap3\n      jump\t// out\n        /* \"#utility.yul\":4471:4557   */\n    tag_329:\n        /* \"#utility.yul\":4506:4513   */\n      0x00\n        /* \"#utility.yul\":4546:4550   */\n      0xff\n        /* \"#utility.yul\":4539:4544   */\n      dup3\n        /* \"#utility.yul\":4535:4551   */\n      and\n        /* \"#utility.yul\":4524:4551   */\n      swap1\n      pop\n        /* \"#utility.yul\":4471:4557   */\n      swap2\n      swap1\n      pop\n      jump\t// out\n        /* \"#utility.yul\":4563:4675   */\n    tag_330:\n        /* \"#utility.yul\":4646:4668   */\n      tag_431\n        /* \"#utility.yul\":4662:4667   */\n      dup2\n        /* \"#utility.yul\":4646:4668   */\n      tag_329\n      jump\t// in\n    tag_431:\n        /* \"#utility.yul\":4641:4644   */\n      dup3\n        /* \"#utility.yul\":4634:4669   */\n      mstore\n        /* \"#utility.yul\":4563:4675   */\n      pop\n      pop\n      jump\t// out\n        /* \"#utility.yul\":4681:4895   */\n    tag_49:\n        /* \"#utility.yul\":4770:4774   */\n      0x00\n        /* \"#utility.yul\":4808:4810   */\n      0x20\n        /* \"#utility.yul\":4797:4806   */\n      dup3\n        /* \"#utility.yul\":4793:4811   */\n      add\n        /* \"#utility.yul\":4785:4811   */\n      swap1\n      pop\n        /* \"#utility.yul\":4821:4888   */\n      tag_433\n        /* \"#utility.yul\":4885:4886   */\n      0x00\n        /* \"#utility.yul\":4874:4883   */\n      dup4\n        /* \"#utility.yul\":4870:4887   */\n      add\n        /* \"#utility.yul\":4861:4867   */\n      dup5\n        /* \"#utility.yul\":4821:4888   */\n      tag_330\n      jump\t// in\n    tag_433:\n        /* \"#utility.yul\":4681:4895   */\n      swap3\n      swap2\n      pop\n      pop\n      jump\t// out\n        /* \"#utility.yul\":4901:5230   */\n    tag_61:\n        /* \"#utility.yul\":4960:4966   */\n      0x00\n        /* \"#utility.yul\":5009:5011   */\n      0x20\n        /* \"#utility.yul\":4997:5006   */\n      dup3\n        /* \"#utility.yul\":4988:4995   */\n      dup5\n        /* \"#utility.yul\":4984:5007   */\n      sub\n        /* \"#utility.yul\":4980:5012   */\n      slt\n        /* \"#utility.yul\":4977:5096   */\n      iszero\n      tag_435\n      jumpi\n        /* \"#utility.yul\":5015:5094   */\n      tag_436\n      tag_317\n      jump\t// in\n    tag_436:\n        /* \"#utility.yul\":4977:5096   */\n    tag_435:\n        /* \"#utility.yul\":5135:5136   */\n      0x00\n        /* \"#utility.yul\":5160:5213   */\n      tag_437\n        /* \"#utility.yul\":5205:5212   */\n      dup5\n        /* \"#utility.yul\":5196:5202   */\n      dup3\n        /* \"#utility.yul\":5185:5194   */\n      dup6\n        /* \"#utility.yul\":5181:5203   */\n      add\n        /* \"#utility.yul\":5160:5213   */\n      tag_325\n      jump\t// in\n    tag_437:\n        /* \"#utility.yul\":5150:5213   */\n      swap2\n      pop\n        /* \"#utility.yul\":5106:5223   */\n      pop\n        /* \"#utility.yul\":4901:5230   */\n      swap3\n      swap2\n      pop\n      pop\n      jump\t// out\n        /* \"#utility.yul\":5236:5565   */\n    tag_68:\n        /* \"#utility.yul\":5295:5301   */\n      0x00\n        /* \"#utility.yul\":5344:5346   */\n      0x20\n        /* \"#utility.yul\":5332:5341   */\n      dup3\n        /* \"#utility.yul\":5323:5330   */\n      dup5\n        /* \"#utility.yul\":5319:5342   */\n      sub\n        /* \"#utility.yul\":5315:5347   */\n      slt\n        /* \"#utility.yul\":5312:5431   */\n      iszero\n      tag_439\n      jumpi\n        /* \"#utility.yul\":5350:5429   */\n      tag_440\n      tag_317\n      jump\t// in\n    tag_440:\n        /* \"#utility.yul\":5312:5431   */\n    tag_439:\n        /* \"#utility.yul\":5470:5471   */\n      0x00\n        /* \"#utility.yul\":5495:5548   */\n      tag_441\n        /* \"#utility.yul\":5540:5547   */\n      dup5\n        /* \"#utility.yul\":5531:5537   */\n      dup3\n        /* \"#utility.yul\":5520:5529   */\n      dup6\n        /* \"#utility.yul\":5516:5538   */\n      add\n        /* \"#utility.yul\":5495:5548   */\n      tag_322\n      jump\t// in\n    tag_441:\n        /* \"#utility.yul\":5485:5548   */\n      swap2\n      pop\n        /* \"#utility.yul\":5441:5558   */\n      pop\n        /* \"#utility.yul\":5236:5565   */\n      swap3\n      swap2\n      pop\n      pop\n      jump\t// out\n        /* \"#utility.yul\":5571:5689   */\n    tag_331:\n        /* \"#utility.yul\":5658:5682   */\n      tag_443\n        /* \"#utility.yul\":5676:5681   */\n      dup2\n        /* \"#utility.yul\":5658:5682   */\n      tag_320\n      jump\t// in\n    tag_443:\n        /* \"#utility.yul\":5653:5656   */\n      dup3\n        /* \"#utility.yul\":5646:5683   */\n      mstore\n        /* \"#utility.yul\":5571:5689   */\n      pop\n      pop\n      jump\t// out\n        /* \"#utility.yul\":5695:5917   */\n    tag_81:\n        /* \"#utility.yul\":5788:5792   */\n      0x00\n        /* \"#utility.yul\":5826:5828   */\n      0x20\n        /* \"#utility.yul\":5815:5824   */\n      dup3\n        /* \"#utility.yul\":5811:5829   */\n      add\n        /* \"#utility.yul\":5803:5829   */\n      swap1\n      pop\n        /* \"#utility.yul\":5839:5910   */\n      tag_445\n        /* \"#utility.yul\":5907:5908   */\n      0x00\n        /* \"#utility.yul\":5896:5905   */\n      dup4\n        /* \"#utility.yul\":5892:5909   */\n      add\n        /* \"#utility.yul\":5883:5889   */\n      dup5\n        /* \"#utility.yul\":5839:5910   */\n      tag_331\n      jump\t// in\n    tag_445:\n        /* \"#utility.yul\":5695:5917   */\n      swap3\n      swap2\n      pop\n      pop\n      jump\t// out\n        /* \"#utility.yul\":5923:6397   */\n    tag_98:\n        /* \"#utility.yul\":5991:5997   */\n      0x00\n        /* \"#utility.yul\":5999:6005   */\n      dup1\n        /* \"#utility.yul\":6048:6050   */\n      0x40\n        /* \"#utility.yul\":6036:6045   */\n      dup4\n        /* \"#utility.yul\":6027:6034   */\n      dup6\n        /* \"#utility.yul\":6023:6046   */\n      sub\n        /* \"#utility.yul\":6019:6051   */\n      slt\n        /* \"#utility.yul\":6016:6135   */\n      iszero\n      tag_447\n      jumpi\n        /* \"#utility.yul\":6054:6133   */\n      tag_448\n      tag_317\n      jump\t// in\n    tag_448:\n        /* \"#utility.yul\":6016:6135   */\n    tag_447:\n        /* \"#utility.yul\":6174:6175   */\n      0x00\n        /* \"#utility.yul\":6199:6252   */\n      tag_449\n        /* \"#utility.yul\":6244:6251   */\n      dup6\n        /* \"#utility.yul\":6235:6241   */\n      dup3\n        /* \"#utility.yul\":6224:6233   */\n      dup7\n        /* \"#utility.yul\":6220:6242   */\n      add\n        /* \"#utility.yul\":6199:6252   */\n      tag_322\n      jump\t// in\n    tag_449:\n        /* \"#utility.yul\":6189:6252   */\n      swap3\n      pop\n        /* \"#utility.yul\":6145:6262   */\n      pop\n        /* \"#utility.yul\":6301:6303   */\n      0x20\n        /* \"#utility.yul\":6327:6380   */\n      tag_450\n        /* \"#utility.yul\":6372:6379   */\n      dup6\n        /* \"#utility.yul\":6363:6369   */\n      dup3\n        /* \"#utility.yul\":6352:6361   */\n      dup7\n        /* \"#utility.yul\":6348:6370   */\n      add\n        /* \"#utility.yul\":6327:6380   */\n      tag_322\n      jump\t// in\n    tag_450:\n        /* \"#utility.yul\":6317:6380   */\n      swap2\n      pop\n        /* \"#utility.yul\":6272:6390   */\n      pop\n        /* \"#utility.yul\":5923:6397   */\n      swap3\n      pop\n      swap3\n      swap1\n      pop\n      jump\t// out\n        /* \"#utility.yul\":6403:6583   */\n    tag_332:\n        /* \"#utility.yul\":6451:6528   */\n      0x4e487b7100000000000000000000000000000000000000000000000000000000\n        /* \"#utility.yul\":6448:6449   */\n      0x00\n        /* \"#utility.yul\":6441:6529   */\n      mstore\n        /* \"#utility.yul\":6548:6552   */\n      0x22\n        /* \"#utility.yul\":6545:6546   */\n      0x04\n        /* \"#utility.yul\":6538:6553   */\n      mstore\n        /* \"#utility.yul\":6572:6576   */\n      0x24\n        /* \"#utility.yul\":6569:6570   */\n      0x00\n        /* \"#utility.yul\":6562:6577   */\n      revert\n        /* \"#utility.yul\":6589:6909   */\n    tag_106:\n        /* \"#utility.yul\":6633:6639   */\n      0x00\n        /* \"#utility.yul\":6670:6671   */\n      0x02\n        /* \"#utility.yul\":6664:6668   */\n      dup3\n        /* \"#utility.yul\":6660:6672   */\n      div\n        /* \"#utility.yul\":6650:6672   */\n      swap1\n      pop\n        /* \"#utility.yul\":6717:6718   */\n      0x01\n        /* \"#utility.yul\":6711:6715   */\n      dup3\n        /* \"#utility.yul\":6707:6719   */\n      and\n        /* \"#utility.yul\":6738:6756   */\n      dup1\n        /* \"#utility.yul\":6728:6809   */\n      tag_453\n      jumpi\n        /* \"#utility.yul\":6794:6798   */\n      0x7f\n        /* \"#utility.yul\":6786:6792   */\n      dup3\n        /* \"#utility.yul\":6782:6799   */\n      and\n        /* \"#utility.yul\":6772:6799   */\n      swap2\n      pop\n        /* \"#utility.yul\":6728:6809   */\n    tag_453:\n        /* \"#utility.yul\":6856:6858   */\n      0x20\n        /* \"#utility.yul\":6848:6854   */\n      dup3\n        /* \"#utility.yul\":6845:6859   */\n      lt\n        /* \"#utility.yul\":6825:6843   */\n      dup2\n        /* \"#utility.yul\":6822:6860   */\n      eq\n        /* \"#utility.yul\":6819:6903   */\n      iszero\n      tag_454\n      jumpi\n        /* \"#utility.yul\":6875:6893   */\n      tag_455\n      tag_332\n      jump\t// in\n    tag_455:\n        /* \"#utility.yul\":6819:6903   */\n    tag_454:\n        /* \"#utility.yul\":6640:6909   */\n      pop\n        /* \"#utility.yul\":6589:6909   */\n      swap2\n      swap1\n      pop\n      jump\t// out\n        /* \"#utility.yul\":6915:7095   */\n    tag_333:\n        /* \"#utility.yul\":6963:7040   */\n      0x4e487b7100000000000000000000000000000000000000000000000000000000\n        /* \"#utility.yul\":6960:6961   */\n      0x00\n        /* \"#utility.yul\":6953:7041   */\n      mstore\n        /* \"#utility.yul\":7060:7064   */\n      0x11\n        /* \"#utility.yul\":7057:7058   */\n      0x04\n        /* \"#utility.yul\":7050:7065   */\n      mstore\n        /* \"#utility.yul\":7084:7088   */\n      0x24\n        /* \"#utility.yul\":7081:7082   */\n      0x00\n        /* \"#utility.yul\":7074:7089   */\n      revert\n        /* \"#utility.yul\":7101:7406   */\n    tag_129:\n        /* \"#utility.yul\":7141:7144   */\n      0x00\n        /* \"#utility.yul\":7160:7180   */\n      tag_458\n        /* \"#utility.yul\":7178:7179   */\n      dup3\n        /* \"#utility.yul\":7160:7180   */\n      tag_323\n      jump\t// in\n    tag_458:\n        /* \"#utility.yul\":7155:7180   */\n      swap2\n      pop\n        /* \"#utility.yul\":7194:7214   */\n      tag_459\n        /* \"#utility.yul\":7212:7213   */\n      dup4\n        /* \"#utility.yul\":7194:7214   */\n      tag_323\n      jump\t// in\n    tag_459:\n        /* \"#utility.yul\":7189:7214   */\n      swap3\n      pop\n        /* \"#utility.yul\":7348:7349   */\n      dup3\n        /* \"#utility.yul\":7280:7346   */\n      0xffffffffffffffffffffffffffffffffffffffffffffffffffffffffffffffff\n        /* \"#utility.yul\":7276:7350   */\n      sub\n        /* \"#utility.yul\":7273:7274   */\n      dup3\n        /* \"#utility.yul\":7270:7351   */\n      gt\n        /* \"#utility.yul\":7267:7374   */\n      iszero\n      tag_460\n      jumpi\n        /* \"#utility.yul\":7354:7372   */\n      tag_461\n      tag_333\n      jump\t// in\n    tag_461:\n        /* \"#utility.yul\":7267:7374   */\n    tag_460:\n        /* \"#utility.yul\":7398:7399   */\n      dup3\n        /* \"#utility.yul\":7395:7396   */\n      dup3\n        /* \"#utility.yul\":7391:7400   */\n      add\n        /* \"#utility.yul\":7384:7400   */\n      swap1\n      pop\n        /* \"#utility.yul\":7101:7406   */\n      swap3\n      swap2\n      pop\n      pop\n      jump\t// out\n        /* \"#utility.yul\":7412:7509   */\n    tag_334:\n        /* \"#utility.yul\":7448:7455   */\n      0x00\n        /* \"#utility.yul\":7488:7502   */\n      0xffffffffffff\n        /* \"#utility.yul\":7481:7486   */\n      dup3\n        /* \"#utility.yul\":7477:7503   */\n      and\n        /* \"#utility.yul\":7466:7503   */\n      swap1\n      pop\n        /* \"#utility.yul\":7412:7509   */\n      swap2\n      swap1\n      pop\n      jump\t// out\n        /* \"#utility.yul\":7515:7630   */\n    tag_335:\n        /* \"#utility.yul\":7600:7623   */\n      tag_464\n        /* \"#utility.yul\":7617:7622   */\n      dup2\n        /* \"#utility.yul\":7600:7623   */\n      tag_334\n      jump\t// in\n    tag_464:\n        /* \"#utility.yul\":7595:7598   */\n      dup3\n        /* \"#utility.yul\":7588:7624   */\n      mstore\n        /* \"#utility.yul\":7515:7630   */\n      pop\n      pop\n      jump\t// out\n        /* \"#utility.yul\":7636:7964   */\n    tag_138:\n        /* \"#utility.yul\":7755:7759   */\n      0x00\n        /* \"#utility.yul\":7793:7795   */\n      0x40\n        /* \"#utility.yul\":7782:7791   */\n      dup3\n        /* \"#utility.yul\":7778:7796   */\n      add\n        /* \"#utility.yul\":7770:7796   */\n      swap1\n      pop\n        /* \"#utility.yul\":7806:7877   */\n      tag_466\n        /* \"#utility.yul\":7874:7875   */\n      0x00\n        /* \"#utility.yul\":7863:7872   */\n      dup4\n        /* \"#utility.yul\":7859:7876   */\n      add\n        /* \"#utility.yul\":7850:7856   */\n      dup6\n        /* \"#utility.yul\":7806:7877   */\n      tag_331\n      jump\t// in\n    tag_466:\n        /* \"#utility.yul\":7887:7957   */\n      tag_467\n        /* \"#utility.yul\":7953:7955   */\n      0x20\n        /* \"#utility.yul\":7942:7951   */\n      dup4\n        /* \"#utility.yul\":7938:7956   */\n      add\n        /* \"#utility.yul\":7929:7935   */\n      dup5\n        /* \"#utility.yul\":7887:7957   */\n      tag_335\n      jump\t// in\n    tag_467:\n        /* \"#utility.yul\":7636:7964   */\n      swap4\n      swap3\n      pop\n      pop\n      pop\n      jump\t// out\n        /* \"#utility.yul\":7970:8086   */\n    tag_336:\n        /* \"#utility.yul\":8040:8061   */\n      tag_469\n        /* \"#utility.yul\":8055:8060   */\n      dup2\n        /* \"#utility.yul\":8040:8061   */\n      tag_326\n      jump\t// in\n    tag_469:\n        /* \"#utility.yul\":8033:8038   */\n      dup2\n        /* \"#utility.yul\":8030:8062   */\n      eq\n        /* \"#utility.yul\":8020:8080   */\n      tag_470\n      jumpi\n        /* \"#utility.yul\":8076:8077   */\n      0x00\n        /* \"#utility.yul\":8073:8074   */\n      dup1\n        /* \"#utility.yul\":8066:8078   */\n      revert\n        /* \"#utility.yul\":8020:8080   */\n    tag_470:\n        /* \"#utility.yul\":7970:8086   */\n      pop\n      jump\t// out\n        /* \"#utility.yul\":8092:8229   */\n    tag_337:\n        /* \"#utility.yul\":8146:8151   */\n      0x00\n        /* \"#utility.yul\":8177:8183   */\n      dup2\n        /* \"#utility.yul\":8171:8184   */\n      mload\n        /* \"#utility.yul\":8162:8184   */\n      swap1\n      pop\n        /* \"#utility.yul\":8193:8223   */\n      tag_472\n        /* \"#utility.yul\":8217:8222   */\n      dup2\n        /* \"#utility.yul\":8193:8223   */\n      tag_336\n      jump\t// in\n    tag_472:\n        /* \"#utility.yul\":8092:8229   */\n      swap3\n      swap2\n      pop\n      pop\n      jump\t// out\n        /* \"#utility.yul\":8235:8580   */\n    tag_143:\n        /* \"#utility.yul\":8302:8308   */\n      0x00\n        /* \"#utility.yul\":8351:8353   */\n      0x20\n        /* \"#utility.yul\":8339:8348   */\n      dup3\n        /* \"#utility.yul\":8330:8337   */\n      dup5\n        /* \"#utility.yul\":8326:8349   */\n      sub\n        /* \"#utility.yul\":8322:8354   */\n      slt\n        /* \"#utility.yul\":8319:8438   */\n      iszero\n      tag_474\n      jumpi\n        /* \"#utility.yul\":8357:8436   */\n      tag_475\n      tag_317\n      jump\t// in\n    tag_475:\n        /* \"#utility.yul\":8319:8438   */\n    tag_474:\n        /* \"#utility.yul\":8477:8478   */\n      0x00\n        /* \"#utility.yul\":8502:8563   */\n      tag_476\n        /* \"#utility.yul\":8555:8562   */\n      dup5\n        /* \"#utility.yul\":8546:8552   */\n      dup3\n        /* \"#utility.yul\":8535:8544   */\n      dup6\n        /* \"#utility.yul\":8531:8553   */\n      add\n        /* \"#utility.yul\":8502:8563   */\n      tag_337\n      jump\t// in\n    tag_476:\n        /* \"#utility.yul\":8492:8563   */\n      swap2\n      pop\n        /* \"#utility.yul\":8448:8573   */\n      pop\n        /* \"#utility.yul\":8235:8580   */\n      swap3\n      swap2\n      pop\n      pop\n      jump\t// out\n        /* \"#utility.yul\":8586:8807   */\n    tag_338:\n        /* \"#utility.yul\":8726:8760   */\n      0x55736572206973206e6f7420617070726f76656420746f206d696e74206d6f6e\n        /* \"#utility.yul\":8722:8723   */\n      0x00\n        /* \"#utility.yul\":8714:8720   */\n      dup3\n        /* \"#utility.yul\":8710:8724   */\n      add\n        /* \"#utility.yul\":8703:8761   */\n      mstore\n        /* \"#utility.yul\":8795:8799   */\n      0x6579000000000000000000000000000000000000000000000000000000000000\n        /* \"#utility.yul\":8790:8792   */\n      0x20\n        /* \"#utility.yul\":8782:8788   */\n      dup3\n        /* \"#utility.yul\":8778:8793   */\n      add\n        /* \"#utility.yul\":8771:8800   */\n      mstore\n        /* \"#utility.yul\":8586:8807   */\n      pop\n      jump\t// out\n        /* \"#utility.yul\":8813:9179   */\n    tag_339:\n        /* \"#utility.yul\":8955:8958   */\n      0x00\n        /* \"#utility.yul\":8976:9043   */\n      tag_479\n        /* \"#utility.yul\":9040:9042   */\n      0x22\n        /* \"#utility.yul\":9035:9038   */\n      dup4\n        /* \"#utility.yul\":8976:9043   */\n      tag_312\n      jump\t// in\n    tag_479:\n        /* \"#utility.yul\":8969:9043   */\n      swap2\n      pop\n        /* \"#utility.yul\":9052:9145   */\n      tag_480\n        /* \"#utility.yul\":9141:9144   */\n      dup3\n        /* \"#utility.yul\":9052:9145   */\n      tag_338\n      jump\t// in\n    tag_480:\n        /* \"#utility.yul\":9170:9172   */\n      0x40\n        /* \"#utility.yul\":9165:9168   */\n      dup3\n        /* \"#utility.yul\":9161:9173   */\n      add\n        /* \"#utility.yul\":9154:9173   */\n      swap1\n      pop\n        /* \"#utility.yul\":8813:9179   */\n      swap2\n      swap1\n      pop\n      jump\t// out\n        /* \"#utility.yul\":9185:9604   */\n    tag_146:\n        /* \"#utility.yul\":9351:9355   */\n      0x00\n        /* \"#utility.yul\":9389:9391   */\n      0x20\n        /* \"#utility.yul\":9378:9387   */\n      dup3\n        /* \"#utility.yul\":9374:9392   */\n      add\n        /* \"#utility.yul\":9366:9392   */\n      swap1\n      pop\n        /* \"#utility.yul\":9438:9447   */\n      dup2\n        /* \"#utility.yul\":9432:9436   */\n      dup2\n        /* \"#utility.yul\":9428:9448   */\n      sub\n        /* \"#utility.yul\":9424:9425   */\n      0x00\n        /* \"#utility.yul\":9413:9422   */\n      dup4\n        /* \"#utility.yul\":9409:9426   */\n      add\n        /* \"#utility.yul\":9402:9449   */\n      mstore\n        /* \"#utility.yul\":9466:9597   */\n      tag_482\n        /* \"#utility.yul\":9592:9596   */\n      dup2\n        /* \"#utility.yul\":9466:9597   */\n      tag_339\n      jump\t// in\n    tag_482:\n        /* \"#utility.yul\":9458:9597   */\n      swap1\n      pop\n        /* \"#utility.yul\":9185:9604   */\n      swap2\n      swap1\n      pop\n      jump\t// out\n        /* \"#utility.yul\":9610:9845   */\n    tag_340:\n        /* \"#utility.yul\":9750:9784   */\n      0x52656365697665722061646472657373206973206e6f7420616e20617070726f\n        /* \"#utility.yul\":9746:9747   */\n      0x00\n        /* \"#utility.yul\":9738:9744   */\n      dup3\n        /* \"#utility.yul\":9734:9748   */\n      add\n        /* \"#utility.yul\":9727:9785   */\n      mstore\n        /* \"#utility.yul\":9819:9837   */\n      0x76656420617373657420686f6c64657200000000000000000000000000000000\n        /* \"#utility.yul\":9814:9816   */\n      0x20\n        /* \"#utility.yul\":9806:9812   */\n      dup3\n        /* \"#utility.yul\":9802:9817   */\n      add\n        /* \"#utility.yul\":9795:9838   */\n      mstore\n        /* \"#utility.yul\":9610:9845   */\n      pop\n      jump\t// out\n        /* \"#utility.yul\":9851:10217   */\n    tag_341:\n        /* \"#utility.yul\":9993:9996   */\n      0x00\n        /* \"#utility.yul\":10014:10081   */\n      tag_485\n        /* \"#utility.yul\":10078:10080   */\n      0x30\n        /* \"#utility.yul\":10073:10076   */\n      dup4\n        /* \"#utility.yul\":10014:10081   */\n      tag_312\n      jump\t// in\n    tag_485:\n        /* \"#utility.yul\":10007:10081   */\n      swap2\n      pop\n        /* \"#utility.yul\":10090:10183   */\n      tag_486\n        /* \"#utility.yul\":10179:10182   */\n      dup3\n        /* \"#utility.yul\":10090:10183   */\n      tag_340\n      jump\t// in\n    tag_486:\n        /* \"#utility.yul\":10208:10210   */\n      0x40\n        /* \"#utility.yul\":10203:10206   */\n      dup3\n        /* \"#utility.yul\":10199:10211   */\n      add\n        /* \"#utility.yul\":10192:10211   */\n      swap1\n      pop\n        /* \"#utility.yul\":9851:10217   */\n      swap2\n      swap1\n      pop\n      jump\t// out\n        /* \"#utility.yul\":10223:10642   */\n    tag_154:\n        /* \"#utility.yul\":10389:10393   */\n      0x00\n        /* \"#utility.yul\":10427:10429   */\n      0x20\n        /* \"#utility.yul\":10416:10425   */\n      dup3\n        /* \"#utility.yul\":10412:10430   */\n      add\n        /* \"#utility.yul\":10404:10430   */\n      swap1\n      pop\n        /* \"#utility.yul\":10476:10485   */\n      dup2\n        /* \"#utility.yul\":10470:10474   */\n      dup2\n        /* \"#utility.yul\":10466:10486   */\n      sub\n        /* \"#utility.yul\":10462:10463   */\n      0x00\n        /* \"#utility.yul\":10451:10460   */\n      dup4\n        /* \"#utility.yul\":10447:10464   */\n      add\n        /* \"#utility.yul\":10440:10487   */\n      mstore\n        /* \"#utility.yul\":10504:10635   */\n      tag_488\n        /* \"#utility.yul\":10630:10634   */\n      dup2\n        /* \"#utility.yul\":10504:10635   */\n      tag_341\n      jump\t// in\n    tag_488:\n        /* \"#utility.yul\":10496:10635   */\n      swap1\n      pop\n        /* \"#utility.yul\":10223:10642   */\n      swap2\n      swap1\n      pop\n      jump\t// out\n        /* \"#utility.yul\":10648:10892   */\n    tag_342:\n        /* \"#utility.yul\":10788:10822   */\n      0x54686520616d6f7574206f66206d6f6e657920746f206265206d696e74656420\n        /* \"#utility.yul\":10784:10785   */\n      0x00\n        /* \"#utility.yul\":10776:10782   */\n      dup3\n        /* \"#utility.yul\":10772:10786   */\n      add\n        /* \"#utility.yul\":10765:10823   */\n      mstore\n        /* \"#utility.yul\":10857:10884   */\n      0x6861766520746f2062652067726561746572207468616e203000000000000000\n        /* \"#utility.yul\":10852:10854   */\n      0x20\n        /* \"#utility.yul\":10844:10850   */\n      dup3\n        /* \"#utility.yul\":10840:10855   */\n      add\n        /* \"#utility.yul\":10833:10885   */\n      mstore\n        /* \"#utility.yul\":10648:10892   */\n      pop\n      jump\t// out\n        /* \"#utility.yul\":10898:11264   */\n    tag_343:\n        /* \"#utility.yul\":11040:11043   */\n      0x00\n        /* \"#utility.yul\":11061:11128   */\n      tag_491\n        /* \"#utility.yul\":11125:11127   */\n      0x39\n        /* \"#utility.yul\":11120:11123   */\n      dup4\n        /* \"#utility.yul\":11061:11128   */\n      tag_312\n      jump\t// in\n    tag_491:\n        /* \"#utility.yul\":11054:11128   */\n      swap2\n      pop\n        /* \"#utility.yul\":11137:11230   */\n      tag_492\n        /* \"#utility.yul\":11226:11229   */\n      dup3\n        /* \"#utility.yul\":11137:11230   */\n      tag_342\n      jump\t// in\n    tag_492:\n        /* \"#utility.yul\":11255:11257   */\n      0x40\n        /* \"#utility.yul\":11250:11253   */\n      dup3\n        /* \"#utility.yul\":11246:11258   */\n      add\n        /* \"#utility.yul\":11239:11258   */\n      swap1\n      pop\n        /* \"#utility.yul\":10898:11264   */\n      swap2\n      swap1\n      pop\n      jump\t// out\n        /* \"#utility.yul\":11270:11689   */\n    tag_157:\n        /* \"#utility.yul\":11436:11440   */\n      0x00\n        /* \"#utility.yul\":11474:11476   */\n      0x20\n        /* \"#utility.yul\":11463:11472   */\n      dup3\n        /* \"#utility.yul\":11459:11477   */\n      add\n        /* \"#utility.yul\":11451:11477   */\n      swap1\n      pop\n        /* \"#utility.yul\":11523:11532   */\n      dup2\n        /* \"#utility.yul\":11517:11521   */\n      dup2\n        /* \"#utility.yul\":11513:11533   */\n      sub\n        /* \"#utility.yul\":11509:11510   */\n      0x00\n        /* \"#utility.yul\":11498:11507   */\n      dup4\n        /* \"#utility.yul\":11494:11511   */\n      add\n        /* \"#utility.yul\":11487:11534   */\n      mstore\n        /* \"#utility.yul\":11551:11682   */\n      tag_494\n        /* \"#utility.yul\":11677:11681   */\n      dup2\n        /* \"#utility.yul\":11551:11682   */\n      tag_343\n      jump\t// in\n    tag_494:\n        /* \"#utility.yul\":11543:11682   */\n      swap1\n      pop\n        /* \"#utility.yul\":11270:11689   */\n      swap2\n      swap1\n      pop\n      jump\t// out\n        /* \"#utility.yul\":11695:11936   */\n    tag_344:\n        /* \"#utility.yul\":11835:11869   */\n      0x4275726e20616d6f756e742069732067726561746572207468616e2074686520\n        /* \"#utility.yul\":11831:11832   */\n      0x00\n        /* \"#utility.yul\":11823:11829   */\n      dup3\n        /* \"#utility.yul\":11819:11833   */\n      add\n        /* \"#utility.yul\":11812:11870   */\n      mstore\n        /* \"#utility.yul\":11904:11928   */\n      0x6465626974206163636f756e742062616c6c616e636500000000000000000000\n        /* \"#utility.yul\":11899:11901   */\n      0x20\n        /* \"#utility.yul\":11891:11897   */\n      dup3\n        /* \"#utility.yul\":11887:11902   */\n      add\n        /* \"#utility.yul\":11880:11929   */\n      mstore\n        /* \"#utility.yul\":11695:11936   */\n      pop\n      jump\t// out\n        /* \"#utility.yul\":11942:12308   */\n    tag_345:\n        /* \"#utility.yul\":12084:12087   */\n      0x00\n        /* \"#utility.yul\":12105:12172   */\n      tag_497\n        /* \"#utility.yul\":12169:12171   */\n      0x36\n        /* \"#utility.yul\":12164:12167   */\n      dup4\n        /* \"#utility.yul\":12105:12172   */\n      tag_312\n      jump\t// in\n    tag_497:\n        /* \"#utility.yul\":12098:12172   */\n      swap2\n      pop\n        /* \"#utility.yul\":12181:12274   */\n      tag_498\n        /* \"#utility.yul\":12270:12273   */\n      dup3\n        /* \"#utility.yul\":12181:12274   */\n      tag_344\n      jump\t// in\n    tag_498:\n        /* \"#utility.yul\":12299:12301   */\n      0x40\n        /* \"#utility.yul\":12294:12297   */\n      dup3\n        /* \"#utility.yul\":12290:12302   */\n      add\n        /* \"#utility.yul\":12283:12302   */\n      swap1\n      pop\n        /* \"#utility.yul\":11942:12308   */\n      swap2\n      swap1\n      pop\n      jump\t// out\n        /* \"#utility.yul\":12314:12733   */\n    tag_195:\n        /* \"#utility.yul\":12480:12484   */\n      0x00\n        /* \"#utility.yul\":12518:12520   */\n      0x20\n        /* \"#utility.yul\":12507:12516   */\n      dup3\n        /* \"#utility.yul\":12503:12521   */\n      add\n        /* \"#utility.yul\":12495:12521   */\n      swap1\n      pop\n        /* \"#utility.yul\":12567:12576   */\n      dup2\n        /* \"#utility.yul\":12561:12565   */\n      dup2\n        /* \"#utility.yul\":12557:12577   */\n      sub\n        /* \"#utility.yul\":12553:12554   */\n      0x00\n        /* \"#utility.yul\":12542:12551   */\n      dup4\n        /* \"#utility.yul\":12538:12555   */\n      add\n        /* \"#utility.yul\":12531:12578   */\n      mstore\n        /* \"#utility.yul\":12595:12726   */\n      tag_500\n        /* \"#utility.yul\":12721:12725   */\n      dup2\n        /* \"#utility.yul\":12595:12726   */\n      tag_345\n      jump\t// in\n    tag_500:\n        /* \"#utility.yul\":12587:12726   */\n      swap1\n      pop\n        /* \"#utility.yul\":12314:12733   */\n      swap2\n      swap1\n      pop\n      jump\t// out\n        /* \"#utility.yul\":12739:12963   */\n    tag_346:\n        /* \"#utility.yul\":12879:12913   */\n      0x45524332303a2064656372656173656420616c6c6f77616e63652062656c6f77\n        /* \"#utility.yul\":12875:12876   */\n      0x00\n        /* \"#utility.yul\":12867:12873   */\n      dup3\n        /* \"#utility.yul\":12863:12877   */\n      add\n        /* \"#utility.yul\":12856:12914   */\n      mstore\n        /* \"#utility.yul\":12948:12955   */\n      0x207a65726f000000000000000000000000000000000000000000000000000000\n        /* \"#utility.yul\":12943:12945   */\n      0x20\n        /* \"#utility.yul\":12935:12941   */\n      dup3\n        /* \"#utility.yul\":12931:12946   */\n      add\n        /* \"#utility.yul\":12924:12956   */\n      mstore\n        /* \"#utility.yul\":12739:12963   */\n      pop\n      jump\t// out\n        /* \"#utility.yul\":12969:13335   */\n    tag_347:\n        /* \"#utility.yul\":13111:13114   */\n      0x00\n        /* \"#utility.yul\":13132:13199   */\n      tag_503\n        /* \"#utility.yul\":13196:13198   */\n      0x25\n        /* \"#utility.yul\":13191:13194   */\n      dup4\n        /* \"#utility.yul\":13132:13199   */\n      tag_312\n      jump\t// in\n    tag_503:\n        /* \"#utility.yul\":13125:13199   */\n      swap2\n      pop\n        /* \"#utility.yul\":13208:13301   */\n      tag_504\n        /* \"#utility.yul\":13297:13300   */\n      dup3\n        /* \"#utility.yul\":13208:13301   */\n      tag_346\n      jump\t// in\n    tag_504:\n        /* \"#utility.yul\":13326:13328   */\n      0x40\n        /* \"#utility.yul\":13321:13324   */\n      dup3\n        /* \"#utility.yul\":13317:13329   */\n      add\n        /* \"#utility.yul\":13310:13329   */\n      swap1\n      pop\n        /* \"#utility.yul\":12969:13335   */\n      swap2\n      swap1\n      pop\n      jump\t// out\n        /* \"#utility.yul\":13341:13760   */\n    tag_202:\n        /* \"#utility.yul\":13507:13511   */\n      0x00\n        /* \"#utility.yul\":13545:13547   */\n      0x20\n        /* \"#utility.yul\":13534:13543   */\n      dup3\n        /* \"#utility.yul\":13530:13548   */\n      add\n        /* \"#utility.yul\":13522:13548   */\n      swap1\n      pop\n        /* \"#utility.yul\":13594:13603   */\n      dup2\n        /* \"#utility.yul\":13588:13592   */\n      dup2\n        /* \"#utility.yul\":13584:13604   */\n      sub\n        /* \"#utility.yul\":13580:13581   */\n      0x00\n        /* \"#utility.yul\":13569:13578   */\n      dup4\n        /* \"#utility.yul\":13565:13582   */\n      add\n        /* \"#utility.yul\":13558:13605   */\n      mstore\n        /* \"#utility.yul\":13622:13753   */\n      tag_506\n        /* \"#utility.yul\":13748:13752   */\n      dup2\n        /* \"#utility.yul\":13622:13753   */\n      tag_347\n      jump\t// in\n    tag_506:\n        /* \"#utility.yul\":13614:13753   */\n      swap1\n      pop\n        /* \"#utility.yul\":13341:13760   */\n      swap2\n      swap1\n      pop\n      jump\t// out\n        /* \"#utility.yul\":13766:13991   */\n    tag_348:\n        /* \"#utility.yul\":13906:13940   */\n      0x4f776e61626c653a206e6577206f776e657220697320746865207a65726f2061\n        /* \"#utility.yul\":13902:13903   */\n      0x00\n        /* \"#utility.yul\":13894:13900   */\n      dup3\n        /* \"#utility.yul\":13890:13904   */\n      add\n        /* \"#utility.yul\":13883:13941   */\n      mstore\n        /* \"#utility.yul\":13975:13983   */\n      0x6464726573730000000000000000000000000000000000000000000000000000\n        /* \"#utility.yul\":13970:13972   */\n      0x20\n        /* \"#utility.yul\":13962:13968   */\n      dup3\n        /* \"#utility.yul\":13958:13973   */\n      add\n        /* \"#utility.yul\":13951:13984   */\n      mstore\n        /* \"#utility.yul\":13766:13991   */\n      pop\n      jump\t// out\n        /* \"#utility.yul\":13997:14363   */\n    tag_349:\n        /* \"#utility.yul\":14139:14142   */\n      0x00\n        /* \"#utility.yul\":14160:14227   */\n      tag_509\n        /* \"#utility.yul\":14224:14226   */\n      0x26\n        /* \"#utility.yul\":14219:14222   */\n      dup4\n        /* \"#utility.yul\":14160:14227   */\n      tag_312\n      jump\t// in\n    tag_509:\n        /* \"#utility.yul\":14153:14227   */\n      swap2\n      pop\n        /* \"#utility.yul\":14236:14329   */\n      tag_510\n        /* \"#utility.yul\":14325:14328   */\n      dup3\n        /* \"#utility.yul\":14236:14329   */\n      tag_348\n      jump\t// in\n    tag_510:\n        /* \"#utility.yul\":14354:14356   */\n      0x40\n        /* \"#utility.yul\":14349:14352   */\n      dup3\n        /* \"#utility.yul\":14345:14357   */\n      add\n        /* \"#utility.yul\":14338:14357   */\n      swap1\n      pop\n        /* \"#utility.yul\":13997:14363   */\n      swap2\n      swap1\n      pop\n      jump\t// out\n        /* \"#utility.yul\":14369:14788   */\n    tag_213:\n        /* \"#utility.yul\":14535:14539   */\n      0x00\n        /* \"#utility.yul\":14573:14575   */\n      0x20\n        /* \"#utility.yul\":14562:14571   */\n      dup3\n        /* \"#utility.yul\":14558:14576   */\n      add\n        /* \"#utility.yul\":14550:14576   */\n      swap1\n      pop\n        /* \"#utility.yul\":14622:14631   */\n      dup2\n        /* \"#utility.yul\":14616:14620   */\n      dup2\n        /* \"#utility.yul\":14612:14632   */\n      sub\n        /* \"#utility.yul\":14608:14609   */\n      0x00\n        /* \"#utility.yul\":14597:14606   */\n      dup4\n        /* \"#utility.yul\":14593:14610   */\n      add\n        /* \"#utility.yul\":14586:14633   */\n      mstore\n        /* \"#utility.yul\":14650:14781   */\n      tag_512\n        /* \"#utility.yul\":14776:14780   */\n      dup2\n        /* \"#utility.yul\":14650:14781   */\n      tag_349\n      jump\t// in\n    tag_512:\n        /* \"#utility.yul\":14642:14781   */\n      swap1\n      pop\n        /* \"#utility.yul\":14369:14788   */\n      swap2\n      swap1\n      pop\n      jump\t// out\n        /* \"#utility.yul\":14794:15017   */\n    tag_350:\n        /* \"#utility.yul\":14934:14968   */\n      0x45524332303a20617070726f76652066726f6d20746865207a65726f20616464\n        /* \"#utility.yul\":14930:14931   */\n      0x00\n        /* \"#utility.yul\":14922:14928   */\n      dup3\n        /* \"#utility.yul\":14918:14932   */\n      add\n        /* \"#utility.yul\":14911:14969   */\n      mstore\n        /* \"#utility.yul\":15003:15009   */\n      0x7265737300000000000000000000000000000000000000000000000000000000\n        /* \"#utility.yul\":14998:15000   */\n      0x20\n        /* \"#utility.yul\":14990:14996   */\n      dup3\n        /* \"#utility.yul\":14986:15001   */\n      add\n        /* \"#utility.yul\":14979:15010   */\n      mstore\n        /* \"#utility.yul\":14794:15017   */\n      pop\n      jump\t// out\n        /* \"#utility.yul\":15023:15389   */\n    tag_351:\n        /* \"#utility.yul\":15165:15168   */\n      0x00\n        /* \"#utility.yul\":15186:15253   */\n      tag_515\n        /* \"#utility.yul\":15250:15252   */\n      0x24\n        /* \"#utility.yul\":15245:15248   */\n      dup4\n        /* \"#utility.yul\":15186:15253   */\n      tag_312\n      jump\t// in\n    tag_515:\n        /* \"#utility.yul\":15179:15253   */\n      swap2\n      pop\n        /* \"#utility.yul\":15262:15355   */\n      tag_516\n        /* \"#utility.yul\":15351:15354   */\n      dup3\n        /* \"#utility.yul\":15262:15355   */\n      tag_350\n      jump\t// in\n    tag_516:\n        /* \"#utility.yul\":15380:15382   */\n      0x40\n        /* \"#utility.yul\":15375:15378   */\n      dup3\n        /* \"#utility.yul\":15371:15383   */\n      add\n        /* \"#utility.yul\":15364:15383   */\n      swap1\n      pop\n        /* \"#utility.yul\":15023:15389   */\n      swap2\n      swap1\n      pop\n      jump\t// out\n        /* \"#utility.yul\":15395:15814   */\n    tag_219:\n        /* \"#utility.yul\":15561:15565   */\n      0x00\n        /* \"#utility.yul\":15599:15601   */\n      0x20\n        /* \"#utility.yul\":15588:15597   */\n      dup3\n        /* \"#utility.yul\":15584:15602   */\n      add\n        /* \"#utility.yul\":15576:15602   */\n      swap1\n      pop\n        /* \"#utility.yul\":15648:15657   */\n      dup2\n        /* \"#utility.yul\":15642:15646   */\n      dup2\n        /* \"#utility.yul\":15638:15658   */\n      sub\n        /* \"#utility.yul\":15634:15635   */\n      0x00\n        /* \"#utility.yul\":15623:15632   */\n      dup4\n        /* \"#utility.yul\":15619:15636   */\n      add\n        /* \"#utility.yul\":15612:15659   */\n      mstore\n        /* \"#utility.yul\":15676:15807   */\n      tag_518\n        /* \"#utility.yul\":15802:15806   */\n      dup2\n        /* \"#utility.yul\":15676:15807   */\n      tag_351\n      jump\t// in\n    tag_518:\n        /* \"#utility.yul\":15668:15807   */\n      swap1\n      pop\n        /* \"#utility.yul\":15395:15814   */\n      swap2\n      swap1\n      pop\n      jump\t// out\n        /* \"#utility.yul\":15820:16041   */\n    tag_352:\n        /* \"#utility.yul\":15960:15994   */\n      0x45524332303a20617070726f766520746f20746865207a65726f206164647265\n        /* \"#utility.yul\":15956:15957   */\n      0x00\n        /* \"#utility.yul\":15948:15954   */\n      dup3\n        /* \"#utility.yul\":15944:15958   */\n      add\n        /* \"#utility.yul\":15937:15995   */\n      mstore\n        /* \"#utility.yul\":16029:16033   */\n      0x7373000000000000000000000000000000000000000000000000000000000000\n        /* \"#utility.yul\":16024:16026   */\n      0x20\n        /* \"#utility.yul\":16016:16022   */\n      dup3\n        /* \"#utility.yul\":16012:16027   */\n      add\n        /* \"#utility.yul\":16005:16034   */\n      mstore\n        /* \"#utility.yul\":15820:16041   */\n      pop\n      jump\t// out\n        /* \"#utility.yul\":16047:16413   */\n    tag_353:\n        /* \"#utility.yul\":16189:16192   */\n      0x00\n        /* \"#utility.yul\":16210:16277   */\n      tag_521\n        /* \"#utility.yul\":16274:16276   */\n      0x22\n        /* \"#utility.yul\":16269:16272   */\n      dup4\n        /* \"#utility.yul\":16210:16277   */\n      tag_312\n      jump\t// in\n    tag_521:\n        /* \"#utility.yul\":16203:16277   */\n      swap2\n      pop\n        /* \"#utility.yul\":16286:16379   */\n      tag_522\n        /* \"#utility.yul\":16375:16378   */\n      dup3\n        /* \"#utility.yul\":16286:16379   */\n      tag_352\n      jump\t// in\n    tag_522:\n        /* \"#utility.yul\":16404:16406   */\n      0x40\n        /* \"#utility.yul\":16399:16402   */\n      dup3\n        /* \"#utility.yul\":16395:16407   */\n      add\n        /* \"#utility.yul\":16388:16407   */\n      swap1\n      pop\n        /* \"#utility.yul\":16047:16413   */\n      swap2\n      swap1\n      pop\n      jump\t// out\n        /* \"#utility.yul\":16419:16838   */\n    tag_222:\n        /* \"#utility.yul\":16585:16589   */\n      0x00\n        /* \"#utility.yul\":16623:16625   */\n      0x20\n        /* \"#utility.yul\":16612:16621   */\n      dup3\n        /* \"#utility.yul\":16608:16626   */\n      add\n        /* \"#utility.yul\":16600:16626   */\n      swap1\n      pop\n        /* \"#utility.yul\":16672:16681   */\n      dup2\n        /* \"#utility.yul\":16666:16670   */\n      dup2\n        /* \"#utility.yul\":16662:16682   */\n      sub\n        /* \"#utility.yul\":16658:16659   */\n      0x00\n        /* \"#utility.yul\":16647:16656   */\n      dup4\n        /* \"#utility.yul\":16643:16660   */\n      add\n        /* \"#utility.yul\":16636:16683   */\n      mstore\n        /* \"#utility.yul\":16700:16831   */\n      tag_524\n        /* \"#utility.yul\":16826:16830   */\n      dup2\n        /* \"#utility.yul\":16700:16831   */\n      tag_353\n      jump\t// in\n    tag_524:\n        /* \"#utility.yul\":16692:16831   */\n      swap1\n      pop\n        /* \"#utility.yul\":16419:16838   */\n      swap2\n      swap1\n      pop\n      jump\t// out\n        /* \"#utility.yul\":16844:17023   */\n    tag_354:\n        /* \"#utility.yul\":16984:17015   */\n      0x45524332303a20696e73756666696369656e7420616c6c6f77616e6365000000\n        /* \"#utility.yul\":16980:16981   */\n      0x00\n        /* \"#utility.yul\":16972:16978   */\n      dup3\n        /* \"#utility.yul\":16968:16982   */\n      add\n        /* \"#utility.yul\":16961:17016   */\n      mstore\n        /* \"#utility.yul\":16844:17023   */\n      pop\n      jump\t// out\n        /* \"#utility.yul\":17029:17395   */\n    tag_355:\n        /* \"#utility.yul\":17171:17174   */\n      0x00\n        /* \"#utility.yul\":17192:17259   */\n      tag_527\n        /* \"#utility.yul\":17256:17258   */\n      0x1d\n        /* \"#utility.yul\":17251:17254   */\n      dup4\n        /* \"#utility.yul\":17192:17259   */\n      tag_312\n      jump\t// in\n    tag_527:\n        /* \"#utility.yul\":17185:17259   */\n      swap2\n      pop\n        /* \"#utility.yul\":17268:17361   */\n      tag_528\n        /* \"#utility.yul\":17357:17360   */\n      dup3\n        /* \"#utility.yul\":17268:17361   */\n      tag_354\n      jump\t// in\n    tag_528:\n        /* \"#utility.yul\":17386:17388   */\n      0x20\n        /* \"#utility.yul\":17381:17384   */\n      dup3\n        /* \"#utility.yul\":17377:17389   */\n      add\n        /* \"#utility.yul\":17370:17389   */\n      swap1\n      pop\n        /* \"#utility.yul\":17029:17395   */\n      swap2\n      swap1\n      pop\n      jump\t// out\n        /* \"#utility.yul\":17401:17820   */\n    tag_229:\n        /* \"#utility.yul\":17567:17571   */\n      0x00\n        /* \"#utility.yul\":17605:17607   */\n      0x20\n        /* \"#utility.yul\":17594:17603   */\n      dup3\n        /* \"#utility.yul\":17590:17608   */\n      add\n        /* \"#utility.yul\":17582:17608   */\n      swap1\n      pop\n        /* \"#utility.yul\":17654:17663   */\n      dup2\n        /* \"#utility.yul\":17648:17652   */\n      dup2\n        /* \"#utility.yul\":17644:17664   */\n      sub\n        /* \"#utility.yul\":17640:17641   */\n      0x00\n        /* \"#utility.yul\":17629:17638   */\n      dup4\n        /* \"#utility.yul\":17625:17642   */\n      add\n        /* \"#utility.yul\":17618:17665   */\n      mstore\n        /* \"#utility.yul\":17682:17813   */\n      tag_530\n        /* \"#utility.yul\":17808:17812   */\n      dup2\n        /* \"#utility.yul\":17682:17813   */\n      tag_355\n      jump\t// in\n    tag_530:\n        /* \"#utility.yul\":17674:17813   */\n      swap1\n      pop\n        /* \"#utility.yul\":17401:17820   */\n      swap2\n      swap1\n      pop\n      jump\t// out\n        /* \"#utility.yul\":17826:18050   */\n    tag_356:\n        /* \"#utility.yul\":17966:18000   */\n      0x45524332303a207472616e736665722066726f6d20746865207a65726f206164\n        /* \"#utility.yul\":17962:17963   */\n      0x00\n        /* \"#utility.yul\":17954:17960   */\n      dup3\n        /* \"#utility.yul\":17950:17964   */\n      add\n        /* \"#utility.yul\":17943:18001   */\n      mstore\n        /* \"#utility.yul\":18035:18042   */\n      0x6472657373000000000000000000000000000000000000000000000000000000\n        /* \"#utility.yul\":18030:18032   */\n      0x20\n        /* \"#utility.yul\":18022:18028   */\n      dup3\n        /* \"#utility.yul\":18018:18033   */\n      add\n        /* \"#utility.yul\":18011:18043   */\n      mstore\n        /* \"#utility.yul\":17826:18050   */\n      pop\n      jump\t// out\n        /* \"#utility.yul\":18056:18422   */\n    tag_357:\n        /* \"#utility.yul\":18198:18201   */\n      0x00\n        /* \"#utility.yul\":18219:18286   */\n      tag_533\n        /* \"#utility.yul\":18283:18285   */\n      0x25\n        /* \"#utility.yul\":18278:18281   */\n      dup4\n        /* \"#utility.yul\":18219:18286   */\n      tag_312\n      jump\t// in\n    tag_533:\n        /* \"#utility.yul\":18212:18286   */\n      swap2\n      pop\n        /* \"#utility.yul\":18295:18388   */\n      tag_534\n        /* \"#utility.yul\":18384:18387   */\n      dup3\n        /* \"#utility.yul\":18295:18388   */\n      tag_356\n      jump\t// in\n    tag_534:\n        /* \"#utility.yul\":18413:18415   */\n      0x40\n        /* \"#utility.yul\":18408:18411   */\n      dup3\n        /* \"#utility.yul\":18404:18416   */\n      add\n        /* \"#utility.yul\":18397:18416   */\n      swap1\n      pop\n        /* \"#utility.yul\":18056:18422   */\n      swap2\n      swap1\n      pop\n      jump\t// out\n        /* \"#utility.yul\":18428:18847   */\n    tag_234:\n        /* \"#utility.yul\":18594:18598   */\n      0x00\n        /* \"#utility.yul\":18632:18634   */\n      0x20\n        /* \"#utility.yul\":18621:18630   */\n      dup3\n        /* \"#utility.yul\":18617:18635   */\n      add\n        /* \"#utility.yul\":18609:18635   */\n      swap1\n      pop\n        /* \"#utility.yul\":18681:18690   */\n      dup2\n        /* \"#utility.yul\":18675:18679   */\n      dup2\n        /* \"#utility.yul\":18671:18691   */\n      sub\n        /* \"#utility.yul\":18667:18668   */\n      0x00\n        /* \"#utility.yul\":18656:18665   */\n      dup4\n        /* \"#utility.yul\":18652:18669   */\n      add\n        /* \"#utility.yul\":18645:18692   */\n      mstore\n        /* \"#utility.yul\":18709:18840   */\n      tag_536\n        /* \"#utility.yul\":18835:18839   */\n      dup2\n        /* \"#utility.yul\":18709:18840   */\n      tag_357\n      jump\t// in\n    tag_536:\n        /* \"#utility.yul\":18701:18840   */\n      swap1\n      pop\n        /* \"#utility.yul\":18428:18847   */\n      swap2\n      swap1\n      pop\n      jump\t// out\n        /* \"#utility.yul\":18853:19075   */\n    tag_358:\n        /* \"#utility.yul\":18993:19027   */\n      0x45524332303a207472616e7366657220746f20746865207a65726f2061646472\n        /* \"#utility.yul\":18989:18990   */\n      0x00\n        /* \"#utility.yul\":18981:18987   */\n      dup3\n        /* \"#utility.yul\":18977:18991   */\n      add\n        /* \"#utility.yul\":18970:19028   */\n      mstore\n        /* \"#utility.yul\":19062:19067   */\n      0x6573730000000000000000000000000000000000000000000000000000000000\n        /* \"#utility.yul\":19057:19059   */\n      0x20\n        /* \"#utility.yul\":19049:19055   */\n      dup3\n        /* \"#utility.yul\":19045:19060   */\n      add\n        /* \"#utility.yul\":19038:19068   */\n      mstore\n        /* \"#utility.yul\":18853:19075   */\n      pop\n      jump\t// out\n        /* \"#utility.yul\":19081:19447   */\n    tag_359:\n        /* \"#utility.yul\":19223:19226   */\n      0x00\n        /* \"#utility.yul\":19244:19311   */\n      tag_539\n        /* \"#utility.yul\":19308:19310   */\n      0x23\n        /* \"#utility.yul\":19303:19306   */\n      dup4\n        /* \"#utility.yul\":19244:19311   */\n      tag_312\n      jump\t// in\n    tag_539:\n        /* \"#utility.yul\":19237:19311   */\n      swap2\n      pop\n        /* \"#utility.yul\":19320:19413   */\n      tag_540\n        /* \"#utility.yul\":19409:19412   */\n      dup3\n        /* \"#utility.yul\":19320:19413   */\n      tag_358\n      jump\t// in\n    tag_540:\n        /* \"#utility.yul\":19438:19440   */\n      0x40\n        /* \"#utility.yul\":19433:19436   */\n      dup3\n        /* \"#utility.yul\":19429:19441   */\n      add\n        /* \"#utility.yul\":19422:19441   */\n      swap1\n      pop\n        /* \"#utility.yul\":19081:19447   */\n      swap2\n      swap1\n      pop\n      jump\t// out\n        /* \"#utility.yul\":19453:19872   */\n    tag_237:\n        /* \"#utility.yul\":19619:19623   */\n      0x00\n        /* \"#utility.yul\":19657:19659   */\n      0x20\n        /* \"#utility.yul\":19646:19655   */\n      dup3\n        /* \"#utility.yul\":19642:19660   */\n      add\n        /* \"#utility.yul\":19634:19660   */\n      swap1\n      pop\n        /* \"#utility.yul\":19706:19715   */\n      dup2\n        /* \"#utility.yul\":19700:19704   */\n      dup2\n        /* \"#utility.yul\":19696:19716   */\n      sub\n        /* \"#utility.yul\":19692:19693   */\n      0x00\n        /* \"#utility.yul\":19681:19690   */\n      dup4\n        /* \"#utility.yul\":19677:19694   */\n      add\n        /* \"#utility.yul\":19670:19717   */\n      mstore\n        /* \"#utility.yul\":19734:19865   */\n      tag_542\n        /* \"#utility.yul\":19860:19864   */\n      dup2\n        /* \"#utility.yul\":19734:19865   */\n      tag_359\n      jump\t// in\n    tag_542:\n        /* \"#utility.yul\":19726:19865   */\n      swap1\n      pop\n        /* \"#utility.yul\":19453:19872   */\n      swap2\n      swap1\n      pop\n      jump\t// out\n        /* \"#utility.yul\":19878:20103   */\n    tag_360:\n        /* \"#utility.yul\":20018:20052   */\n      0x45524332303a207472616e7366657220616d6f756e7420657863656564732062\n        /* \"#utility.yul\":20014:20015   */\n      0x00\n        /* \"#utility.yul\":20006:20012   */\n      dup3\n        /* \"#utility.yul\":20002:20016   */\n      add\n        /* \"#utility.yul\":19995:20053   */\n      mstore\n        /* \"#utility.yul\":20087:20095   */\n      0x616c616e63650000000000000000000000000000000000000000000000000000\n        /* \"#utility.yul\":20082:20084   */\n      0x20\n        /* \"#utility.yul\":20074:20080   */\n      dup3\n        /* \"#utility.yul\":20070:20085   */\n      add\n        /* \"#utility.yul\":20063:20096   */\n      mstore\n        /* \"#utility.yul\":19878:20103   */\n      pop\n      jump\t// out\n        /* \"#utility.yul\":20109:20475   */\n    tag_361:\n        /* \"#utility.yul\":20251:20254   */\n      0x00\n        /* \"#utility.yul\":20272:20339   */\n      tag_545\n        /* \"#utility.yul\":20336:20338   */\n      0x26\n        /* \"#utility.yul\":20331:20334   */\n      dup4\n        /* \"#utility.yul\":20272:20339   */\n      tag_312\n      jump\t// in\n    tag_545:\n        /* \"#utility.yul\":20265:20339   */\n      swap2\n      pop\n        /* \"#utility.yul\":20348:20441   */\n      tag_546\n        /* \"#utility.yul\":20437:20440   */\n      dup3\n        /* \"#utility.yul\":20348:20441   */\n      tag_360\n      jump\t// in\n    tag_546:\n        /* \"#utility.yul\":20466:20468   */\n      0x40\n        /* \"#utility.yul\":20461:20464   */\n      dup3\n        /* \"#utility.yul\":20457:20469   */\n      add\n        /* \"#utility.yul\":20450:20469   */\n      swap1\n      pop\n        /* \"#utility.yul\":20109:20475   */\n      swap2\n      swap1\n      pop\n      jump\t// out\n        /* \"#utility.yul\":20481:20900   */\n    tag_242:\n        /* \"#utility.yul\":20647:20651   */\n      0x00\n        /* \"#utility.yul\":20685:20687   */\n      0x20\n        /* \"#utility.yul\":20674:20683   */\n      dup3\n        /* \"#utility.yul\":20670:20688   */\n      add\n        /* \"#utility.yul\":20662:20688   */\n      swap1\n      pop\n        /* \"#utility.yul\":20734:20743   */\n      dup2\n        /* \"#utility.yul\":20728:20732   */\n      dup2\n        /* \"#utility.yul\":20724:20744   */\n      sub\n        /* \"#utility.yul\":20720:20721   */\n      0x00\n        /* \"#utility.yul\":20709:20718   */\n      dup4\n        /* \"#utility.yul\":20705:20722   */\n      add\n        /* \"#utility.yul\":20698:20745   */\n      mstore\n        /* \"#utility.yul\":20762:20893   */\n      tag_548\n        /* \"#utility.yul\":20888:20892   */\n      dup2\n        /* \"#utility.yul\":20762:20893   */\n      tag_361\n      jump\t// in\n    tag_548:\n        /* \"#utility.yul\":20754:20893   */\n      swap1\n      pop\n        /* \"#utility.yul\":20481:20900   */\n      swap2\n      swap1\n      pop\n      jump\t// out\n        /* \"#utility.yul\":20906:21088   */\n    tag_362:\n        /* \"#utility.yul\":21046:21080   */\n      0x4f776e61626c653a2063616c6c6572206973206e6f7420746865206f776e6572\n        /* \"#utility.yul\":21042:21043   */\n      0x00\n        /* \"#utility.yul\":21034:21040   */\n      dup3\n        /* \"#utility.yul\":21030:21044   */\n      add\n        /* \"#utility.yul\":21023:21081   */\n      mstore\n        /* \"#utility.yul\":20906:21088   */\n      pop\n      jump\t// out\n        /* \"#utility.yul\":21094:21460   */\n    tag_363:\n        /* \"#utility.yul\":21236:21239   */\n      0x00\n        /* \"#utility.yul\":21257:21324   */\n      tag_551\n        /* \"#utility.yul\":21321:21323   */\n      0x20\n        /* \"#utility.yul\":21316:21319   */\n      dup4\n        /* \"#utility.yul\":21257:21324   */\n      tag_312\n      jump\t// in\n    tag_551:\n        /* \"#utility.yul\":21250:21324   */\n      swap2\n      pop\n        /* \"#utility.yul\":21333:21426   */\n      tag_552\n        /* \"#utility.yul\":21422:21425   */\n      dup3\n        /* \"#utility.yul\":21333:21426   */\n      tag_362\n      jump\t// in\n    tag_552:\n        /* \"#utility.yul\":21451:21453   */\n      0x20\n        /* \"#utility.yul\":21446:21449   */\n      dup3\n        /* \"#utility.yul\":21442:21454   */\n      add\n        /* \"#utility.yul\":21435:21454   */\n      swap1\n      pop\n        /* \"#utility.yul\":21094:21460   */\n      swap2\n      swap1\n      pop\n      jump\t// out\n        /* \"#utility.yul\":21466:21885   */\n    tag_251:\n        /* \"#utility.yul\":21632:21636   */\n      0x00\n        /* \"#utility.yul\":21670:21672   */\n      0x20\n        /* \"#utility.yul\":21659:21668   */\n      dup3\n        /* \"#utility.yul\":21655:21673   */\n      add\n        /* \"#utility.yul\":21647:21673   */\n      swap1\n      pop\n        /* \"#utility.yul\":21719:21728   */\n      dup2\n        /* \"#utility.yul\":21713:21717   */\n      dup2\n        /* \"#utility.yul\":21709:21729   */\n      sub\n        /* \"#utility.yul\":21705:21706   */\n      0x00\n        /* \"#utility.yul\":21694:21703   */\n      dup4\n        /* \"#utility.yul\":21690:21707   */\n      add\n        /* \"#utility.yul\":21683:21730   */\n      mstore\n        /* \"#utility.yul\":21747:21878   */\n      tag_554\n        /* \"#utility.yul\":21873:21877   */\n      dup2\n        /* \"#utility.yul\":21747:21878   */\n      tag_363\n      jump\t// in\n    tag_554:\n        /* \"#utility.yul\":21739:21878   */\n      swap1\n      pop\n        /* \"#utility.yul\":21466:21885   */\n      swap2\n      swap1\n      pop\n      jump\t// out\n        /* \"#utility.yul\":21891:22072   */\n    tag_364:\n        /* \"#utility.yul\":22031:22064   */\n      0x45524332303a206d696e7420746f20746865207a65726f206164647265737300\n        /* \"#utility.yul\":22027:22028   */\n      0x00\n        /* \"#utility.yul\":22019:22025   */\n      dup3\n        /* \"#utility.yul\":22015:22029   */\n      add\n        /* \"#utility.yul\":22008:22065   */\n      mstore\n        /* \"#utility.yul\":21891:22072   */\n      pop\n      jump\t// out\n        /* \"#utility.yul\":22078:22444   */\n    tag_365:\n        /* \"#utility.yul\":22220:22223   */\n      0x00\n        /* \"#utility.yul\":22241:22308   */\n      tag_557\n        /* \"#utility.yul\":22305:22307   */\n      0x1f\n        /* \"#utility.yul\":22300:22303   */\n      dup4\n        /* \"#utility.yul\":22241:22308   */\n      tag_312\n      jump\t// in\n    tag_557:\n        /* \"#utility.yul\":22234:22308   */\n      swap2\n      pop\n        /* \"#utility.yul\":22317:22410   */\n      tag_558\n        /* \"#utility.yul\":22406:22409   */\n      dup3\n        /* \"#utility.yul\":22317:22410   */\n      tag_364\n      jump\t// in\n    tag_558:\n        /* \"#utility.yul\":22435:22437   */\n      0x20\n        /* \"#utility.yul\":22430:22433   */\n      dup3\n        /* \"#utility.yul\":22426:22438   */\n      add\n        /* \"#utility.yul\":22419:22438   */\n      swap1\n      pop\n        /* \"#utility.yul\":22078:22444   */\n      swap2\n      swap1\n      pop\n      jump\t// out\n        /* \"#utility.yul\":22450:22869   */\n    tag_261:\n        /* \"#utility.yul\":22616:22620   */\n      0x00\n        /* \"#utility.yul\":22654:22656   */\n      0x20\n        /* \"#utility.yul\":22643:22652   */\n      dup3\n        /* \"#utility.yul\":22639:22657   */\n      add\n        /* \"#utility.yul\":22631:22657   */\n      swap1\n      pop\n        /* \"#utility.yul\":22703:22712   */\n      dup2\n        /* \"#utility.yul\":22697:22701   */\n      dup2\n        /* \"#utility.yul\":22693:22713   */\n      sub\n        /* \"#utility.yul\":22689:22690   */\n      0x00\n        /* \"#utility.yul\":22678:22687   */\n      dup4\n        /* \"#utility.yul\":22674:22691   */\n      add\n        /* \"#utility.yul\":22667:22714   */\n      mstore\n        /* \"#utility.yul\":22731:22862   */\n      tag_560\n        /* \"#utility.yul\":22857:22861   */\n      dup2\n        /* \"#utility.yul\":22731:22862   */\n      tag_365\n      jump\t// in\n    tag_560:\n        /* \"#utility.yul\":22723:22862   */\n      swap1\n      pop\n        /* \"#utility.yul\":22450:22869   */\n      swap2\n      swap1\n      pop\n      jump\t// out\n        /* \"#utility.yul\":22875:23095   */\n    tag_366:\n        /* \"#utility.yul\":23015:23049   */\n      0x45524332303a206275726e2066726f6d20746865207a65726f20616464726573\n        /* \"#utility.yul\":23011:23012   */\n      0x00\n        /* \"#utility.yul\":23003:23009   */\n      dup3\n        /* \"#utility.yul\":22999:23013   */\n      add\n        /* \"#utility.yul\":22992:23050   */\n      mstore\n        /* \"#utility.yul\":23084:23087   */\n      0x7300000000000000000000000000000000000000000000000000000000000000\n        /* \"#utility.yul\":23079:23081   */\n      0x20\n        /* \"#utility.yul\":23071:23077   */\n      dup3\n        /* \"#utility.yul\":23067:23082   */\n      add\n        /* \"#utility.yul\":23060:23088   */\n      mstore\n        /* \"#utility.yul\":22875:23095   */\n      pop\n      jump\t// out\n        /* \"#utility.yul\":23101:23467   */\n    tag_367:\n        /* \"#utility.yul\":23243:23246   */\n      0x00\n        /* \"#utility.yul\":23264:23331   */\n      tag_563\n        /* \"#utility.yul\":23328:23330   */\n      0x21\n        /* \"#utility.yul\":23323:23326   */\n      dup4\n        /* \"#utility.yul\":23264:23331   */\n      tag_312\n      jump\t// in\n    tag_563:\n        /* \"#utility.yul\":23257:23331   */\n      swap2\n      pop\n        /* \"#utility.yul\":23340:23433   */\n      tag_564\n        /* \"#utility.yul\":23429:23432   */\n      dup3\n        /* \"#utility.yul\":23340:23433   */\n      tag_366\n      jump\t// in\n    tag_564:\n        /* \"#utility.yul\":23458:23460   */\n      0x40\n        /* \"#utility.yul\":23453:23456   */\n      dup3\n        /* \"#utility.yul\":23449:23461   */\n      add\n        /* \"#utility.yul\":23442:23461   */\n      swap1\n      pop\n        /* \"#utility.yul\":23101:23467   */\n      swap2\n      swap1\n      pop\n      jump\t// out\n        /* \"#utility.yul\":23473:23892   */\n    tag_269:\n        /* \"#utility.yul\":23639:23643   */\n      0x00\n        /* \"#utility.yul\":23677:23679   */\n      0x20\n        /* \"#utility.yul\":23666:23675   */\n      dup3\n        /* \"#utility.yul\":23662:23680   */\n      add\n        /* \"#utility.yul\":23654:23680   */\n      swap1\n      pop\n        /* \"#utility.yul\":23726:23735   */\n      dup2\n        /* \"#utility.yul\":23720:23724   */\n      dup2\n        /* \"#utility.yul\":23716:23736   */\n      sub\n        /* \"#utility.yul\":23712:23713   */\n      0x00\n        /* \"#utility.yul\":23701:23710   */\n      dup4\n        /* \"#utility.yul\":23697:23714   */\n      add\n        /* \"#utility.yul\":23690:23737   */\n      mstore\n        /* \"#utility.yul\":23754:23885   */\n      tag_566\n        /* \"#utility.yul\":23880:23884   */\n      dup2\n        /* \"#utility.yul\":23754:23885   */\n      tag_367\n      jump\t// in\n    tag_566:\n        /* \"#utility.yul\":23746:23885   */\n      swap1\n      pop\n        /* \"#utility.yul\":23473:23892   */\n      swap2\n      swap1\n      pop\n      jump\t// out\n        /* \"#utility.yul\":23898:24119   */\n    tag_368:\n        /* \"#utility.yul\":24038:24072   */\n      0x45524332303a206275726e20616d6f756e7420657863656564732062616c616e\n        /* \"#utility.yul\":24034:24035   */\n      0x00\n        /* \"#utility.yul\":24026:24032   */\n      dup3\n        /* \"#utility.yul\":24022:24036   */\n      add\n        /* \"#utility.yul\":24015:24073   */\n      mstore\n        /* \"#utility.yul\":24107:24111   */\n      0x6365000000000000000000000000000000000000000000000000000000000000\n        /* \"#utility.yul\":24102:24104   */\n      0x20\n        /* \"#utility.yul\":24094:24100   */\n      dup3\n        /* \"#utility.yul\":24090:24105   */\n      add\n        /* \"#utility.yul\":24083:24112   */\n      mstore\n        /* \"#utility.yul\":23898:24119   */\n      pop\n      jump\t// out\n        /* \"#utility.yul\":24125:24491   */\n    tag_369:\n        /* \"#utility.yul\":24267:24270   */\n      0x00\n        /* \"#utility.yul\":24288:24355   */\n      tag_569\n        /* \"#utility.yul\":24352:24354   */\n      0x22\n        /* \"#utility.yul\":24347:24350   */\n      dup4\n        /* \"#utility.yul\":24288:24355   */\n      tag_312\n      jump\t// in\n    tag_569:\n        /* \"#utility.yul\":24281:24355   */\n      swap2\n      pop\n        /* \"#utility.yul\":24364:24457   */\n      tag_570\n        /* \"#utility.yul\":24453:24456   */\n      dup3\n        /* \"#utility.yul\":24364:24457   */\n      tag_368\n      jump\t// in\n    tag_570:\n        /* \"#utility.yul\":24482:24484   */\n      0x40\n        /* \"#utility.yul\":24477:24480   */\n      dup3\n        /* \"#utility.yul\":24473:24485   */\n      add\n        /* \"#utility.yul\":24466:24485   */\n      swap1\n      pop\n        /* \"#utility.yul\":24125:24491   */\n      swap2\n      swap1\n      pop\n      jump\t// out\n        /* \"#utility.yul\":24497:24916   */\n    tag_273:\n        /* \"#utility.yul\":24663:24667   */\n      0x00\n        /* \"#utility.yul\":24701:24703   */\n      0x20\n        /* \"#utility.yul\":24690:24699   */\n      dup3\n        /* \"#utility.yul\":24686:24704   */\n      add\n        /* \"#utility.yul\":24678:24704   */\n      swap1\n      pop\n        /* \"#utility.yul\":24750:24759   */\n      dup2\n        /* \"#utility.yul\":24744:24748   */\n      dup2\n        /* \"#utility.yul\":24740:24760   */\n      sub\n        /* \"#utility.yul\":24736:24737   */\n      0x00\n        /* \"#utility.yul\":24725:24734   */\n      dup4\n        /* \"#utility.yul\":24721:24738   */\n      add\n        /* \"#utility.yul\":24714:24761   */\n      mstore\n        /* \"#utility.yul\":24778:24909   */\n      tag_572\n        /* \"#utility.yul\":24904:24908   */\n      dup2\n        /* \"#utility.yul\":24778:24909   */\n      tag_369\n      jump\t// in\n    tag_572:\n        /* \"#utility.yul\":24770:24909   */\n      swap1\n      pop\n        /* \"#utility.yul\":24497:24916   */\n      swap2\n      swap1\n      pop\n      jump\t// out\n        /* \"#utility.yul\":24922:25167   */\n    tag_370:\n        /* \"#utility.yul\":25062:25096   */\n      0x5472616e7366657220616d6f756e742069732067726561746572207468616e20\n        /* \"#utility.yul\":25058:25059   */\n      0x00\n        /* \"#utility.yul\":25050:25056   */\n      dup3\n        /* \"#utility.yul\":25046:25060   */\n      add\n        /* \"#utility.yul\":25039:25097   */\n      mstore\n        /* \"#utility.yul\":25131:25159   */\n      0x746865206465626974206163636f756e742062616c6c616e6365000000000000\n        /* \"#utility.yul\":25126:25128   */\n      0x20\n        /* \"#utility.yul\":25118:25124   */\n      dup3\n        /* \"#utility.yul\":25114:25129   */\n      add\n        /* \"#utility.yul\":25107:25160   */\n      mstore\n        /* \"#utility.yul\":24922:25167   */\n      pop\n      jump\t// out\n        /* \"#utility.yul\":25173:25539   */\n    tag_371:\n        /* \"#utility.yul\":25315:25318   */\n      0x00\n        /* \"#utility.yul\":25336:25403   */\n      tag_575\n        /* \"#utility.yul\":25400:25402   */\n      0x3a\n        /* \"#utility.yul\":25395:25398   */\n      dup4\n        /* \"#utility.yul\":25336:25403   */\n      tag_312\n      jump\t// in\n    tag_575:\n        /* \"#utility.yul\":25329:25403   */\n      swap2\n      pop\n        /* \"#utility.yul\":25412:25505   */\n      tag_576\n        /* \"#utility.yul\":25501:25504   */\n      dup3\n        /* \"#utility.yul\":25412:25505   */\n      tag_370\n      jump\t// in\n    tag_576:\n        /* \"#utility.yul\":25530:25532   */\n      0x40\n        /* \"#utility.yul\":25525:25528   */\n      dup3\n        /* \"#utility.yul\":25521:25533   */\n      add\n        /* \"#utility.yul\":25514:25533   */\n      swap1\n      pop\n        /* \"#utility.yul\":25173:25539   */\n      swap2\n      swap1\n      pop\n      jump\t// out\n        /* \"#utility.yul\":25545:25964   */\n    tag_296:\n        /* \"#utility.yul\":25711:25715   */\n      0x00\n        /* \"#utility.yul\":25749:25751   */\n      0x20\n        /* \"#utility.yul\":25738:25747   */\n      dup3\n        /* \"#utility.yul\":25734:25752   */\n      add\n        /* \"#utility.yul\":25726:25752   */\n      swap1\n      pop\n        /* \"#utility.yul\":25798:25807   */\n      dup2\n        /* \"#utility.yul\":25792:25796   */\n      dup2\n        /* \"#utility.yul\":25788:25808   */\n      sub\n        /* \"#utility.yul\":25784:25785   */\n      0x00\n        /* \"#utility.yul\":25773:25782   */\n      dup4\n        /* \"#utility.yul\":25769:25786   */\n      add\n        /* \"#utility.yul\":25762:25809   */\n      mstore\n        /* \"#utility.yul\":25826:25957   */\n      tag_578\n        /* \"#utility.yul\":25952:25956   */\n      dup2\n        /* \"#utility.yul\":25826:25957   */\n      tag_371\n      jump\t// in\n    tag_578:\n        /* \"#utility.yul\":25818:25957   */\n      swap1\n      pop\n        /* \"#utility.yul\":25545:25964   */\n      swap2\n      swap1\n      pop\n      jump\t// out\n        /* \"#utility.yul\":25970:26140   */\n    tag_372:\n        /* \"#utility.yul\":26110:26132   */\n      0x5061757361626c653a206e6f7420706175736564000000000000000000000000\n        /* \"#utility.yul\":26106:26107   */\n      0x00\n        /* \"#utility.yul\":26098:26104   */\n      dup3\n        /* \"#utility.yul\":26094:26108   */\n      add\n        /* \"#utility.yul\":26087:26133   */\n      mstore\n        /* \"#utility.yul\":25970:26140   */\n      pop\n      jump\t// out\n        /* \"#utility.yul\":26146:26512   */\n    tag_373:\n        /* \"#utility.yul\":26288:26291   */\n      0x00\n        /* \"#utility.yul\":26309:26376   */\n      tag_581\n        /* \"#utility.yul\":26373:26375   */\n      0x14\n        /* \"#utility.yul\":26368:26371   */\n      dup4\n        /* \"#utility.yul\":26309:26376   */\n      tag_312\n      jump\t// in\n    tag_581:\n        /* \"#utility.yul\":26302:26376   */\n      swap2\n      pop\n        /* \"#utility.yul\":26385:26478   */\n      tag_582\n        /* \"#utility.yul\":26474:26477   */\n      dup3\n        /* \"#utility.yul\":26385:26478   */\n      tag_372\n      jump\t// in\n    tag_582:\n        /* \"#utility.yul\":26503:26505   */\n      0x20\n        /* \"#utility.yul\":26498:26501   */\n      dup3\n        /* \"#utility.yul\":26494:26506   */\n      add\n        /* \"#utility.yul\":26487:26506   */\n      swap1\n      pop\n        /* \"#utility.yul\":26146:26512   */\n      swap2\n      swap1\n      pop\n      jump\t// out\n        /* \"#utility.yul\":26518:26937   */\n    tag_304:\n        /* \"#utility.yul\":26684:26688   */\n      0x00\n        /* \"#utility.yul\":26722:26724   */\n      0x20\n        /* \"#utility.yul\":26711:26720   */\n      dup3\n        /* \"#utility.yul\":26707:26725   */\n      add\n        /* \"#utility.yul\":26699:26725   */\n      swap1\n      pop\n        /* \"#utility.yul\":26771:26780   */\n      dup2\n        /* \"#utility.yul\":26765:26769   */\n      dup2\n        /* \"#utility.yul\":26761:26781   */\n      sub\n        /* \"#utility.yul\":26757:26758   */\n      0x00\n        /* \"#utility.yul\":26746:26755   */\n      dup4\n        /* \"#utility.yul\":26742:26759   */\n      add\n        /* \"#utility.yul\":26735:26782   */\n      mstore\n        /* \"#utility.yul\":26799:26930   */\n      tag_584\n        /* \"#utility.yul\":26925:26929   */\n      dup2\n        /* \"#utility.yul\":26799:26930   */\n      tag_373\n      jump\t// in\n    tag_584:\n        /* \"#utility.yul\":26791:26930   */\n      swap1\n      pop\n        /* \"#utility.yul\":26518:26937   */\n      swap2\n      swap1\n      pop\n      jump\t// out\n        /* \"#utility.yul\":26943:27109   */\n    tag_374:\n        /* \"#utility.yul\":27083:27101   */\n      0x5061757361626c653a2070617573656400000000000000000000000000000000\n        /* \"#utility.yul\":27079:27080   */\n      0x00\n        /* \"#utility.yul\":27071:27077   */\n      dup3\n        /* \"#utility.yul\":27067:27081   */\n      add\n        /* \"#utility.yul\":27060:27102   */\n      mstore\n        /* \"#utility.yul\":26943:27109   */\n      pop\n      jump\t// out\n        /* \"#utility.yul\":27115:27481   */\n    tag_375:\n        /* \"#utility.yul\":27257:27260   */\n      0x00\n        /* \"#utility.yul\":27278:27345   */\n      tag_587\n        /* \"#utility.yul\":27342:27344   */\n      0x10\n        /* \"#utility.yul\":27337:27340   */\n      dup4\n        /* \"#utility.yul\":27278:27345   */\n      tag_312\n      jump\t// in\n    tag_587:\n        /* \"#utility.yul\":27271:27345   */\n      swap2\n      pop\n        /* \"#utility.yul\":27354:27447   */\n      tag_588\n        /* \"#utility.yul\":27443:27446   */\n      dup3\n        /* \"#utility.yul\":27354:27447   */\n      tag_374\n      jump\t// in\n    tag_588:\n        /* \"#utility.yul\":27472:27474   */\n      0x20\n        /* \"#utility.yul\":27467:27470   */\n      dup3\n        /* \"#utility.yul\":27463:27475   */\n      add\n        /* \"#utility.yul\":27456:27475   */\n      swap1\n      pop\n        /* \"#utility.yul\":27115:27481   */\n      swap2\n      swap1\n      pop\n      jump\t// out\n        /* \"#utility.yul\":27487:27906   */\n    tag_309:\n        /* \"#utility.yul\":27653:27657   */\n      0x00\n        /* \"#utility.yul\":27691:27693   */\n      0x20\n        /* \"#utility.yul\":27680:27689   */\n      dup3\n        /* \"#utility.yul\":27676:27694   */\n      add\n        /* \"#utility.yul\":27668:27694   */\n      swap1\n      pop\n        /* \"#utility.yul\":27740:27749   */\n      dup2\n        /* \"#utility.yul\":27734:27738   */\n      dup2\n        /* \"#utility.yul\":27730:27750   */\n      sub\n        /* \"#utility.yul\":27726:27727   */\n      0x00\n        /* \"#utility.yul\":27715:27724   */\n      dup4\n        /* \"#utility.yul\":27711:27728   */\n      add\n        /* \"#utility.yul\":27704:27751   */\n      mstore\n        /* \"#utility.yul\":27768:27899   */\n      tag_590\n        /* \"#utility.yul\":27894:27898   */\n      dup2\n        /* \"#utility.yul\":27768:27899   */\n      tag_375\n      jump\t// in\n    tag_590:\n        /* \"#utility.yul\":27760:27899   */\n      swap1\n      pop\n        /* \"#utility.yul\":27487:27906   */\n      swap2\n      swap1\n      pop\n      jump\t// out\n\n    auxdata: 0xa26469706673582212203d795fe5d266ca07556f8e75f93f76d6654a9772e1c56524c4a4f82a874ad1bd64736f6c63430008090033\n}\n",
				"bytecode": {
					"linkReferences": {},
					"object": "60806040523480156200001157600080fd5b5060405162002a0838038062002a08833981810160405281019062000037919062000342565b6040518060400160405280601f81526020017f4469676974616c20537461626c65636f696e204261736564206f6e20504c4e008152506040518060400160405280600481526020017f65504c4e000000000000000000000000000000000000000000000000000000008152508160039080519060200190620000bb92919062000228565b508060049080519060200190620000d492919062000228565b5050506000600560006101000a81548160ff02191690831515021790555062000112620001066200015a60201b60201c565b6200016260201b60201c565b80600660006101000a81548173ffffffffffffffffffffffffffffffffffffffff021916908373ffffffffffffffffffffffffffffffffffffffff16021790555050620003d9565b600033905090565b6000600560019054906101000a900473ffffffffffffffffffffffffffffffffffffffff16905081600560016101000a81548173ffffffffffffffffffffffffffffffffffffffff021916908373ffffffffffffffffffffffffffffffffffffffff1602179055508173ffffffffffffffffffffffffffffffffffffffff168173ffffffffffffffffffffffffffffffffffffffff167f8be0079c531659141344cd1fd0a4f28419497f9722a3daafe3b4186f6b6457e060405160405180910390a35050565b8280546200023690620003a3565b90600052602060002090601f0160209004810192826200025a5760008555620002a6565b82601f106200027557805160ff1916838001178555620002a6565b82800160010185558215620002a6579182015b82811115620002a557825182559160200191906001019062000288565b5b509050620002b59190620002b9565b5090565b5b80821115620002d4576000816000905550600101620002ba565b5090565b600080fd5b600073ffffffffffffffffffffffffffffffffffffffff82169050919050565b60006200030a82620002dd565b9050919050565b6200031c81620002fd565b81146200032857600080fd5b50565b6000815190506200033c8162000311565b92915050565b6000602082840312156200035b576200035a620002d8565b5b60006200036b848285016200032b565b91505092915050565b7f4e487b7100000000000000000000000000000000000000000000000000000000600052602260045260246000fd5b60006002820490506001821680620003bc57607f821691505b60208210811415620003d357620003d262000374565b5b50919050565b61261f80620003e96000396000f3fe608060405234801561001057600080fd5b50600436106101375760003560e01c806370a08231116100b857806395d89b411161007c57806395d89b41146103045780639dc29fac14610322578063a457c2d71461033e578063a9059cbb1461036e578063dd62ed3e1461039e578063f2fde38b146103ce57610137565b806370a0823114610286578063715018a6146102b657806379cc6790146102c05780638456cb59146102dc5780638da5cb5b146102e657610137565b806339509351116100ff57806339509351146101f65780633f4ba83a1461022657806340c10f191461023057806342966c681461024c5780635c975abb1461026857610137565b806306fdde031461013c578063095ea7b31461015a57806318160ddd1461018a57806323b872dd146101a8578063313ce567146101d8575b600080fd5b6101446103ea565b604051610151919061179f565b60405180910390f35b610174600480360381019061016f919061185a565b61047c565b60405161018191906118b5565b60405180910390f35b61019261049f565b60405161019f91906118df565b60405180910390f35b6101c260048036038101906101bd91906118fa565b6104a9565b6040516101cf91906118b5565b60405180910390f35b6101e06104d8565b6040516101ed9190611969565b60405180910390f35b610210600480360381019061020b919061185a565b6104e1565b60405161021d91906118b5565b60405180910390f35b61022e610518565b005b61024a6004803603810190610245919061185a565b61052a565b005b61026660048036038101906102619190611984565b610755565b005b610270610769565b60405161027d91906118b5565b60405180910390f35b6102a0600480360381019061029b91906119b1565b610780565b6040516102ad91906118df565b60405180910390f35b6102be6107c8565b005b6102da60048036038101906102d5919061185a565b6107dc565b005b6102e46107fc565b005b6102ee61080e565b6040516102fb91906119ed565b60405180910390f35b61030c610838565b604051610319919061179f565b60405180910390f35b61033c6004803603810190610337919061185a565b6108ca565b005b6103586004803603810190610353919061185a565b61096e565b60405161036591906118b5565b60405180910390f35b6103886004803603810190610383919061185a565b6109e5565b60405161039591906118b5565b60405180910390f35b6103b860048036038101906103b39190611a08565b610a08565b6040516103c591906118df565b60405180910390f35b6103e860048036038101906103e391906119b1565b610a8f565b005b6060600380546103f990611a77565b80601f016020809104026020016040519081016040528092919081815260200182805461042590611a77565b80156104725780601f1061044757610100808354040283529160200191610472565b820191906000526020600020905b81548152906001019060200180831161045557829003601f168201915b5050505050905090565b600080610487610b13565b9050610494818585610b1b565b600191505092915050565b6000600254905090565b6000806104b4610b13565b90506104c1858285610ce6565b6104cc858585610d72565b60019150509392505050565b60006002905090565b6000806104ec610b13565b905061050d8185856104fe8589610a08565b6105089190611ad8565b610b1b565b600191505092915050565b610520610fea565b610528611068565b565b600660009054906101000a900473ffffffffffffffffffffffffffffffffffffffff1673ffffffffffffffffffffffffffffffffffffffff1663f35f0f743360016040518363ffffffff1660e01b8152600401610588929190611b4f565b60206040518083038186803b1580156105a057600080fd5b505afa1580156105b4573d6000803e3d6000fd5b505050506040513d601f19601f820116820180604052508101906105d89190611ba4565b610617576040517f08c379a000000000000000000000000000000000000000000000000000000000815260040161060e90611c43565b60405180910390fd5b600660009054906101000a900473ffffffffffffffffffffffffffffffffffffffff1673ffffffffffffffffffffffffffffffffffffffff1663f35f0f748360026040518363ffffffff1660e01b8152600401610675929190611b4f565b60206040518083038186803b15801561068d57600080fd5b505afa1580156106a1573d6000803e3d6000fd5b505050506040513d601f19601f820116820180604052508101906106c59190611ba4565b610704576040517f08c379a00000000000000000000000000000000000000000000000000000000081526004016106fb90611cd5565b60405180910390fd5b60008111610747576040517f08c379a000000000000000000000000000000000000000000000000000000000815260040161073e90611d67565b60405180910390fd5b61075182826110cb565b5050565b610766610760610b13565b82611222565b50565b6000600560009054906101000a900460ff16905090565b60008060008373ffffffffffffffffffffffffffffffffffffffff1673ffffffffffffffffffffffffffffffffffffffff168152602001908152602001600020549050919050565b6107d0610fea565b6107da60006113f0565b565b6107ee826107e8610b13565b83610ce6565b6107f88282611222565b5050565b610804610fea565b61080c6114b6565b565b6000600560019054906101000a900473ffffffffffffffffffffffffffffffffffffffff16905090565b60606004805461084790611a77565b80601f016020809104026020016040519081016040528092919081815260200182805461087390611a77565b80156108c05780601f10610895576101008083540402835291602001916108c0565b820191906000526020600020905b8154815290600101906020018083116108a357829003601f168201915b5050505050905090565b6108d2610fea565b60008111610915576040517f08c379a000000000000000000000000000000000000000000000000000000000815260040161090c90611d67565b60405180910390fd5b8061091f83610780565b1015610960576040517f08c379a000000000000000000000000000000000000000000000000000000000815260040161095790611df9565b60405180910390fd5b61096a8282611222565b5050565b600080610979610b13565b905060006109878286610a08565b9050838110156109cc576040517f08c379a00000000000000000000000000000000000000000000000000000000081526004016109c390611e8b565b60405180910390fd5b6109d98286868403610b1b565b60019250505092915050565b6000806109f0610b13565b90506109fd818585610d72565b600191505092915050565b6000600160008473ffffffffffffffffffffffffffffffffffffffff1673ffffffffffffffffffffffffffffffffffffffff16815260200190815260200160002060008373ffffffffffffffffffffffffffffffffffffffff1673ffffffffffffffffffffffffffffffffffffffff16815260200190815260200160002054905092915050565b610a97610fea565b600073ffffffffffffffffffffffffffffffffffffffff168173ffffffffffffffffffffffffffffffffffffffff161415610b07576040517f08c379a0000000000000000000000000000000000000000000000000000000008152600401610afe90611f1d565b60405180910390fd5b610b10816113f0565b50565b600033905090565b600073ffffffffffffffffffffffffffffffffffffffff168373ffffffffffffffffffffffffffffffffffffffff161415610b8b576040517f08c379a0000000000000000000000000000000000000000000000000000000008152600401610b8290611faf565b60405180910390fd5b600073ffffffffffffffffffffffffffffffffffffffff168273ffffffffffffffffffffffffffffffffffffffff161415610bfb576040517f08c379a0000000000000000000000000000000000000000000000000000000008152600401610bf290612041565b60405180910390fd5b80600160008573ffffffffffffffffffffffffffffffffffffffff1673ffffffffffffffffffffffffffffffffffffffff16815260200190815260200160002060008473ffffffffffffffffffffffffffffffffffffffff1673ffffffffffffffffffffffffffffffffffffffff168152602001908152602001600020819055508173ffffffffffffffffffffffffffffffffffffffff168373ffffffffffffffffffffffffffffffffffffffff167f8c5be1e5ebec7d5bd14f71427d1e84f3dd0314c0f7b2291e5b200ac8c7c3b92583604051610cd991906118df565b60405180910390a3505050565b6000610cf28484610a08565b90507fffffffffffffffffffffffffffffffffffffffffffffffffffffffffffffffff8114610d6c5781811015610d5e576040517f08c379a0000000000000000000000000000000000000000000000000000000008152600401610d55906120ad565b60405180910390fd5b610d6b8484848403610b1b565b5b50505050565b600073ffffffffffffffffffffffffffffffffffffffff168373ffffffffffffffffffffffffffffffffffffffff161415610de2576040517f08c379a0000000000000000000000000000000000000000000000000000000008152600401610dd99061213f565b60405180910390fd5b600073ffffffffffffffffffffffffffffffffffffffff168273ffffffffffffffffffffffffffffffffffffffff161415610e52576040517f08c379a0000000000000000000000000000000000000000000000000000000008152600401610e49906121d1565b60405180910390fd5b610e5d838383611519565b60008060008573ffffffffffffffffffffffffffffffffffffffff1673ffffffffffffffffffffffffffffffffffffffff16815260200190815260200160002054905081811015610ee3576040517f08c379a0000000000000000000000000000000000000000000000000000000008152600401610eda90612263565b60405180910390fd5b8181036000808673ffffffffffffffffffffffffffffffffffffffff1673ffffffffffffffffffffffffffffffffffffffff16815260200190815260200160002081905550816000808573ffffffffffffffffffffffffffffffffffffffff1673ffffffffffffffffffffffffffffffffffffffff168152602001908152602001600020600082825401925050819055508273ffffffffffffffffffffffffffffffffffffffff168473ffffffffffffffffffffffffffffffffffffffff167fddf252ad1be2c89b69c2b068fc378daa952ba7f163c4a11628f55a4df523b3ef84604051610fd191906118df565b60405180910390a3610fe4848484611669565b50505050565b610ff2610b13565b73ffffffffffffffffffffffffffffffffffffffff1661101061080e565b73ffffffffffffffffffffffffffffffffffffffff1614611066576040517f08c379a000000000000000000000000000000000000000000000000000000000815260040161105d906122cf565b60405180910390fd5b565b61107061166e565b6000600560006101000a81548160ff0219169083151502179055507f5db9ee0a495bf2e6ff9c91a7834c1ba4fdd244a5e8aa4e537bd38aeae4b073aa6110b4610b13565b6040516110c191906119ed565b60405180910390a1565b600073ffffffffffffffffffffffffffffffffffffffff168273ffffffffffffffffffffffffffffffffffffffff16141561113b576040517f08c379a00000000000000000000000000000000000000000000000000000000081526004016111329061233b565b60405180910390fd5b61114760008383611519565b80600260008282546111599190611ad8565b92505081905550806000808473ffffffffffffffffffffffffffffffffffffffff1673ffffffffffffffffffffffffffffffffffffffff168152602001908152602001600020600082825401925050819055508173ffffffffffffffffffffffffffffffffffffffff16600073ffffffffffffffffffffffffffffffffffffffff167fddf252ad1be2c89b69c2b068fc378daa952ba7f163c4a11628f55a4df523b3ef8360405161120a91906118df565b60405180910390a361121e60008383611669565b5050565b600073ffffffffffffffffffffffffffffffffffffffff168273ffffffffffffffffffffffffffffffffffffffff161415611292576040517f08c379a0000000000000000000000000000000000000000000000000000000008152600401611289906123cd565b60405180910390fd5b61129e82600083611519565b60008060008473ffffffffffffffffffffffffffffffffffffffff1673ffffffffffffffffffffffffffffffffffffffff16815260200190815260200160002054905081811015611324576040517f08c379a000000000000000000000000000000000000000000000000000000000815260040161131b9061245f565b60405180910390fd5b8181036000808573ffffffffffffffffffffffffffffffffffffffff1673ffffffffffffffffffffffffffffffffffffffff1681526020019081526020016000208190555081600260008282540392505081905550600073ffffffffffffffffffffffffffffffffffffffff168373ffffffffffffffffffffffffffffffffffffffff167fddf252ad1be2c89b69c2b068fc378daa952ba7f163c4a11628f55a4df523b3ef846040516113d791906118df565b60405180910390a36113eb83600084611669565b505050565b6000600560019054906101000a900473ffffffffffffffffffffffffffffffffffffffff16905081600560016101000a81548173ffffffffffffffffffffffffffffffffffffffff021916908373ffffffffffffffffffffffffffffffffffffffff1602179055508173ffffffffffffffffffffffffffffffffffffffff168173ffffffffffffffffffffffffffffffffffffffff167f8be0079c531659141344cd1fd0a4f28419497f9722a3daafe3b4186f6b6457e060405160405180910390a35050565b6114be6116b7565b6001600560006101000a81548160ff0219169083151502179055507f62e78cea01bee320cd4e420270b5ea74000d11b0c9f74754ebdbfc544b05a258611502610b13565b60405161150f91906119ed565b60405180910390a1565b6115216116b7565b600660009054906101000a900473ffffffffffffffffffffffffffffffffffffffff1673ffffffffffffffffffffffffffffffffffffffff1663f35f0f748360026040518363ffffffff1660e01b815260040161157f929190611b4f565b60206040518083038186803b15801561159757600080fd5b505afa1580156115ab573d6000803e3d6000fd5b505050506040513d601f19601f820116820180604052508101906115cf9190611ba4565b61160e576040517f08c379a000000000000000000000000000000000000000000000000000000000815260040161160590611cd5565b60405180910390fd5b8061161884610780565b1015611659576040517f08c379a0000000000000000000000000000000000000000000000000000000008152600401611650906124f1565b60405180910390fd5b611664838383611701565b505050565b505050565b611676610769565b6116b5576040517f08c379a00000000000000000000000000000000000000000000000000000000081526004016116ac9061255d565b60405180910390fd5b565b6116bf610769565b156116ff576040517f08c379a00000000000000000000000000000000000000000000000000000000081526004016116f6906125c9565b60405180910390fd5b565b505050565b600081519050919050565b600082825260208201905092915050565b60005b83811015611740578082015181840152602081019050611725565b8381111561174f576000848401525b50505050565b6000601f19601f8301169050919050565b600061177182611706565b61177b8185611711565b935061178b818560208601611722565b61179481611755565b840191505092915050565b600060208201905081810360008301526117b98184611766565b905092915050565b600080fd5b600073ffffffffffffffffffffffffffffffffffffffff82169050919050565b60006117f1826117c6565b9050919050565b611801816117e6565b811461180c57600080fd5b50565b60008135905061181e816117f8565b92915050565b6000819050919050565b61183781611824565b811461184257600080fd5b50565b6000813590506118548161182e565b92915050565b60008060408385031215611871576118706117c1565b5b600061187f8582860161180f565b925050602061189085828601611845565b9150509250929050565b60008115159050919050565b6118af8161189a565b82525050565b60006020820190506118ca60008301846118a6565b92915050565b6118d981611824565b82525050565b60006020820190506118f460008301846118d0565b92915050565b600080600060608486031215611913576119126117c1565b5b60006119218682870161180f565b93505060206119328682870161180f565b925050604061194386828701611845565b9150509250925092565b600060ff82169050919050565b6119638161194d565b82525050565b600060208201905061197e600083018461195a565b92915050565b60006020828403121561199a576119996117c1565b5b60006119a884828501611845565b91505092915050565b6000602082840312156119c7576119c66117c1565b5b60006119d58482850161180f565b91505092915050565b6119e7816117e6565b82525050565b6000602082019050611a0260008301846119de565b92915050565b60008060408385031215611a1f57611a1e6117c1565b5b6000611a2d8582860161180f565b9250506020611a3e8582860161180f565b9150509250929050565b7f4e487b7100000000000000000000000000000000000000000000000000000000600052602260045260246000fd5b60006002820490506001821680611a8f57607f821691505b60208210811415611aa357611aa2611a48565b5b50919050565b7f4e487b7100000000000000000000000000000000000000000000000000000000600052601160045260246000fd5b6000611ae382611824565b9150611aee83611824565b9250827fffffffffffffffffffffffffffffffffffffffffffffffffffffffffffffffff03821115611b2357611b22611aa9565b5b828201905092915050565b600065ffffffffffff82169050919050565b611b4981611b2e565b82525050565b6000604082019050611b6460008301856119de565b611b716020830184611b40565b9392505050565b611b818161189a565b8114611b8c57600080fd5b50565b600081519050611b9e81611b78565b92915050565b600060208284031215611bba57611bb96117c1565b5b6000611bc884828501611b8f565b91505092915050565b7f55736572206973206e6f7420617070726f76656420746f206d696e74206d6f6e60008201527f6579000000000000000000000000000000000000000000000000000000000000602082015250565b6000611c2d602283611711565b9150611c3882611bd1565b604082019050919050565b60006020820190508181036000830152611c5c81611c20565b9050919050565b7f52656365697665722061646472657373206973206e6f7420616e20617070726f60008201527f76656420617373657420686f6c64657200000000000000000000000000000000602082015250565b6000611cbf603083611711565b9150611cca82611c63565b604082019050919050565b60006020820190508181036000830152611cee81611cb2565b9050919050565b7f54686520616d6f7574206f66206d6f6e657920746f206265206d696e7465642060008201527f6861766520746f2062652067726561746572207468616e203000000000000000602082015250565b6000611d51603983611711565b9150611d5c82611cf5565b604082019050919050565b60006020820190508181036000830152611d8081611d44565b9050919050565b7f4275726e20616d6f756e742069732067726561746572207468616e207468652060008201527f6465626974206163636f756e742062616c6c616e636500000000000000000000602082015250565b6000611de3603683611711565b9150611dee82611d87565b604082019050919050565b60006020820190508181036000830152611e1281611dd6565b9050919050565b7f45524332303a2064656372656173656420616c6c6f77616e63652062656c6f7760008201527f207a65726f000000000000000000000000000000000000000000000000000000602082015250565b6000611e75602583611711565b9150611e8082611e19565b604082019050919050565b60006020820190508181036000830152611ea481611e68565b9050919050565b7f4f776e61626c653a206e6577206f776e657220697320746865207a65726f206160008201527f6464726573730000000000000000000000000000000000000000000000000000602082015250565b6000611f07602683611711565b9150611f1282611eab565b604082019050919050565b60006020820190508181036000830152611f3681611efa565b9050919050565b7f45524332303a20617070726f76652066726f6d20746865207a65726f2061646460008201527f7265737300000000000000000000000000000000000000000000000000000000602082015250565b6000611f99602483611711565b9150611fa482611f3d565b604082019050919050565b60006020820190508181036000830152611fc881611f8c565b9050919050565b7f45524332303a20617070726f766520746f20746865207a65726f20616464726560008201527f7373000000000000000000000000000000000000000000000000000000000000602082015250565b600061202b602283611711565b915061203682611fcf565b604082019050919050565b6000602082019050818103600083015261205a8161201e565b9050919050565b7f45524332303a20696e73756666696369656e7420616c6c6f77616e6365000000600082015250565b6000612097601d83611711565b91506120a282612061565b602082019050919050565b600060208201905081810360008301526120c68161208a565b9050919050565b7f45524332303a207472616e736665722066726f6d20746865207a65726f20616460008201527f6472657373000000000000000000000000000000000000000000000000000000602082015250565b6000612129602583611711565b9150612134826120cd565b604082019050919050565b600060208201905081810360008301526121588161211c565b9050919050565b7f45524332303a207472616e7366657220746f20746865207a65726f206164647260008201527f6573730000000000000000000000000000000000000000000000000000000000602082015250565b60006121bb602383611711565b91506121c68261215f565b604082019050919050565b600060208201905081810360008301526121ea816121ae565b9050919050565b7f45524332303a207472616e7366657220616d6f756e742065786365656473206260008201527f616c616e63650000000000000000000000000000000000000000000000000000602082015250565b600061224d602683611711565b9150612258826121f1565b604082019050919050565b6000602082019050818103600083015261227c81612240565b9050919050565b7f4f776e61626c653a2063616c6c6572206973206e6f7420746865206f776e6572600082015250565b60006122b9602083611711565b91506122c482612283565b602082019050919050565b600060208201905081810360008301526122e8816122ac565b9050919050565b7f45524332303a206d696e7420746f20746865207a65726f206164647265737300600082015250565b6000612325601f83611711565b9150612330826122ef565b602082019050919050565b6000602082019050818103600083015261235481612318565b9050919050565b7f45524332303a206275726e2066726f6d20746865207a65726f2061646472657360008201527f7300000000000000000000000000000000000000000000000000000000000000602082015250565b60006123b7602183611711565b91506123c28261235b565b604082019050919050565b600060208201905081810360008301526123e6816123aa565b9050919050565b7f45524332303a206275726e20616d6f756e7420657863656564732062616c616e60008201527f6365000000000000000000000000000000000000000000000000000000000000602082015250565b6000612449602283611711565b9150612454826123ed565b604082019050919050565b600060208201905081810360008301526124788161243c565b9050919050565b7f5472616e7366657220616d6f756e742069732067726561746572207468616e2060008201527f746865206465626974206163636f756e742062616c6c616e6365000000000000602082015250565b60006124db603a83611711565b91506124e68261247f565b604082019050919050565b6000602082019050818103600083015261250a816124ce565b9050919050565b7f5061757361626c653a206e6f7420706175736564000000000000000000000000600082015250565b6000612547601483611711565b915061255282612511565b602082019050919050565b600060208201905081810360008301526125768161253a565b9050919050565b7f5061757361626c653a2070617573656400000000000000000000000000000000600082015250565b60006125b3601083611711565b91506125be8261257d565b602082019050919050565b600060208201905081810360008301526125e2816125a6565b905091905056fea26469706673582212203d795fe5d266ca07556f8e75f93f76d6654a9772e1c56524c4a4f82a874ad1bd64736f6c63430008090033",
					"opcodes": "PUSH1 0x80 PUSH1 0x40 MSTORE CALLVALUE DUP1 ISZERO PUSH3 0x11 JUMPI PUSH1 0x0 DUP1 REVERT JUMPDEST POP PUSH1 0x40 MLOAD PUSH3 0x2A08 CODESIZE SUB DUP1 PUSH3 0x2A08 DUP4 CODECOPY DUP2 DUP2 ADD PUSH1 0x40 MSTORE DUP2 ADD SWAP1 PUSH3 0x37 SWAP2 SWAP1 PUSH3 0x342 JUMP JUMPDEST PUSH1 0x40 MLOAD DUP1 PUSH1 0x40 ADD PUSH1 0x40 MSTORE DUP1 PUSH1 0x1F DUP2 MSTORE PUSH1 0x20 ADD PUSH32 0x4469676974616C20537461626C65636F696E204261736564206F6E20504C4E00 DUP2 MSTORE POP PUSH1 0x40 MLOAD DUP1 PUSH1 0x40 ADD PUSH1 0x40 MSTORE DUP1 PUSH1 0x4 DUP2 MSTORE PUSH1 0x20 ADD PUSH32 0x65504C4E00000000000000000000000000000000000000000000000000000000 DUP2 MSTORE POP DUP2 PUSH1 0x3 SWAP1 DUP1 MLOAD SWAP1 PUSH1 0x20 ADD SWAP1 PUSH3 0xBB SWAP3 SWAP2 SWAP1 PUSH3 0x228 JUMP JUMPDEST POP DUP1 PUSH1 0x4 SWAP1 DUP1 MLOAD SWAP1 PUSH1 0x20 ADD SWAP1 PUSH3 0xD4 SWAP3 SWAP2 SWAP1 PUSH3 0x228 JUMP JUMPDEST POP POP POP PUSH1 0x0 PUSH1 0x5 PUSH1 0x0 PUSH2 0x100 EXP DUP2 SLOAD DUP2 PUSH1 0xFF MUL NOT AND SWAP1 DUP4 ISZERO ISZERO MUL OR SWAP1 SSTORE POP PUSH3 0x112 PUSH3 0x106 PUSH3 0x15A PUSH1 0x20 SHL PUSH1 0x20 SHR JUMP JUMPDEST PUSH3 0x162 PUSH1 0x20 SHL PUSH1 0x20 SHR JUMP JUMPDEST DUP1 PUSH1 0x6 PUSH1 0x0 PUSH2 0x100 EXP DUP2 SLOAD DUP2 PUSH20 0xFFFFFFFFFFFFFFFFFFFFFFFFFFFFFFFFFFFFFFFF MUL NOT AND SWAP1 DUP4 PUSH20 0xFFFFFFFFFFFFFFFFFFFFFFFFFFFFFFFFFFFFFFFF AND MUL OR SWAP1 SSTORE POP POP PUSH3 0x3D9 JUMP JUMPDEST PUSH1 0x0 CALLER SWAP1 POP SWAP1 JUMP JUMPDEST PUSH1 0x0 PUSH1 0x5 PUSH1 0x1 SWAP1 SLOAD SWAP1 PUSH2 0x100 EXP SWAP1 DIV PUSH20 0xFFFFFFFFFFFFFFFFFFFFFFFFFFFFFFFFFFFFFFFF AND SWAP1 POP DUP2 PUSH1 0x5 PUSH1 0x1 PUSH2 0x100 EXP DUP2 SLOAD DUP2 PUSH20 0xFFFFFFFFFFFFFFFFFFFFFFFFFFFFFFFFFFFFFFFF MUL NOT AND SWAP1 DUP4 PUSH20 0xFFFFFFFFFFFFFFFFFFFFFFFFFFFFFFFFFFFFFFFF AND MUL OR SWAP1 SSTORE POP DUP2 PUSH20 0xFFFFFFFFFFFFFFFFFFFFFFFFFFFFFFFFFFFFFFFF AND DUP2 PUSH20 0xFFFFFFFFFFFFFFFFFFFFFFFFFFFFFFFFFFFFFFFF AND PUSH32 0x8BE0079C531659141344CD1FD0A4F28419497F9722A3DAAFE3B4186F6B6457E0 PUSH1 0x40 MLOAD PUSH1 0x40 MLOAD DUP1 SWAP2 SUB SWAP1 LOG3 POP POP JUMP JUMPDEST DUP3 DUP1 SLOAD PUSH3 0x236 SWAP1 PUSH3 0x3A3 JUMP JUMPDEST SWAP1 PUSH1 0x0 MSTORE PUSH1 0x20 PUSH1 0x0 KECCAK256 SWAP1 PUSH1 0x1F ADD PUSH1 0x20 SWAP1 DIV DUP2 ADD SWAP3 DUP3 PUSH3 0x25A JUMPI PUSH1 0x0 DUP6 SSTORE PUSH3 0x2A6 JUMP JUMPDEST DUP3 PUSH1 0x1F LT PUSH3 0x275 JUMPI DUP1 MLOAD PUSH1 0xFF NOT AND DUP4 DUP1 ADD OR DUP6 SSTORE PUSH3 0x2A6 JUMP JUMPDEST DUP3 DUP1 ADD PUSH1 0x1 ADD DUP6 SSTORE DUP3 ISZERO PUSH3 0x2A6 JUMPI SWAP2 DUP3 ADD JUMPDEST DUP3 DUP2 GT ISZERO PUSH3 0x2A5 JUMPI DUP3 MLOAD DUP3 SSTORE SWAP2 PUSH1 0x20 ADD SWAP2 SWAP1 PUSH1 0x1 ADD SWAP1 PUSH3 0x288 JUMP JUMPDEST JUMPDEST POP SWAP1 POP PUSH3 0x2B5 SWAP2 SWAP1 PUSH3 0x2B9 JUMP JUMPDEST POP SWAP1 JUMP JUMPDEST JUMPDEST DUP1 DUP3 GT ISZERO PUSH3 0x2D4 JUMPI PUSH1 0x0 DUP2 PUSH1 0x0 SWAP1 SSTORE POP PUSH1 0x1 ADD PUSH3 0x2BA JUMP JUMPDEST POP SWAP1 JUMP JUMPDEST PUSH1 0x0 DUP1 REVERT JUMPDEST PUSH1 0x0 PUSH20 0xFFFFFFFFFFFFFFFFFFFFFFFFFFFFFFFFFFFFFFFF DUP3 AND SWAP1 POP SWAP2 SWAP1 POP JUMP JUMPDEST PUSH1 0x0 PUSH3 0x30A DUP3 PUSH3 0x2DD JUMP JUMPDEST SWAP1 POP SWAP2 SWAP1 POP JUMP JUMPDEST PUSH3 0x31C DUP2 PUSH3 0x2FD JUMP JUMPDEST DUP2 EQ PUSH3 0x328 JUMPI PUSH1 0x0 DUP1 REVERT JUMPDEST POP JUMP JUMPDEST PUSH1 0x0 DUP2 MLOAD SWAP1 POP PUSH3 0x33C DUP2 PUSH3 0x311 JUMP JUMPDEST SWAP3 SWAP2 POP POP JUMP JUMPDEST PUSH1 0x0 PUSH1 0x20 DUP3 DUP5 SUB SLT ISZERO PUSH3 0x35B JUMPI PUSH3 0x35A PUSH3 0x2D8 JUMP JUMPDEST JUMPDEST PUSH1 0x0 PUSH3 0x36B DUP5 DUP3 DUP6 ADD PUSH3 0x32B JUMP JUMPDEST SWAP2 POP POP SWAP3 SWAP2 POP POP JUMP JUMPDEST PUSH32 0x4E487B7100000000000000000000000000000000000000000000000000000000 PUSH1 0x0 MSTORE PUSH1 0x22 PUSH1 0x4 MSTORE PUSH1 0x24 PUSH1 0x0 REVERT JUMPDEST PUSH1 0x0 PUSH1 0x2 DUP3 DIV SWAP1 POP PUSH1 0x1 DUP3 AND DUP1 PUSH3 0x3BC JUMPI PUSH1 0x7F DUP3 AND SWAP2 POP JUMPDEST PUSH1 0x20 DUP3 LT DUP2 EQ ISZERO PUSH3 0x3D3 JUMPI PUSH3 0x3D2 PUSH3 0x374 JUMP JUMPDEST JUMPDEST POP SWAP2 SWAP1 POP JUMP JUMPDEST PUSH2 0x261F DUP1 PUSH3 0x3E9 PUSH1 0x0 CODECOPY PUSH1 0x0 RETURN INVALID PUSH1 0x80 PUSH1 0x40 MSTORE CALLVALUE DUP1 ISZERO PUSH2 0x10 JUMPI PUSH1 0x0 DUP1 REVERT JUMPDEST POP PUSH1 0x4 CALLDATASIZE LT PUSH2 0x137 JUMPI PUSH1 0x0 CALLDATALOAD PUSH1 0xE0 SHR DUP1 PUSH4 0x70A08231 GT PUSH2 0xB8 JUMPI DUP1 PUSH4 0x95D89B41 GT PUSH2 0x7C JUMPI DUP1 PUSH4 0x95D89B41 EQ PUSH2 0x304 JUMPI DUP1 PUSH4 0x9DC29FAC EQ PUSH2 0x322 JUMPI DUP1 PUSH4 0xA457C2D7 EQ PUSH2 0x33E JUMPI DUP1 PUSH4 0xA9059CBB EQ PUSH2 0x36E JUMPI DUP1 PUSH4 0xDD62ED3E EQ PUSH2 0x39E JUMPI DUP1 PUSH4 0xF2FDE38B EQ PUSH2 0x3CE JUMPI PUSH2 0x137 JUMP JUMPDEST DUP1 PUSH4 0x70A08231 EQ PUSH2 0x286 JUMPI DUP1 PUSH4 0x715018A6 EQ PUSH2 0x2B6 JUMPI DUP1 PUSH4 0x79CC6790 EQ PUSH2 0x2C0 JUMPI DUP1 PUSH4 0x8456CB59 EQ PUSH2 0x2DC JUMPI DUP1 PUSH4 0x8DA5CB5B EQ PUSH2 0x2E6 JUMPI PUSH2 0x137 JUMP JUMPDEST DUP1 PUSH4 0x39509351 GT PUSH2 0xFF JUMPI DUP1 PUSH4 0x39509351 EQ PUSH2 0x1F6 JUMPI DUP1 PUSH4 0x3F4BA83A EQ PUSH2 0x226 JUMPI DUP1 PUSH4 0x40C10F19 EQ PUSH2 0x230 JUMPI DUP1 PUSH4 0x42966C68 EQ PUSH2 0x24C JUMPI DUP1 PUSH4 0x5C975ABB EQ PUSH2 0x268 JUMPI PUSH2 0x137 JUMP JUMPDEST DUP1 PUSH4 0x6FDDE03 EQ PUSH2 0x13C JUMPI DUP1 PUSH4 0x95EA7B3 EQ PUSH2 0x15A JUMPI DUP1 PUSH4 0x18160DDD EQ PUSH2 0x18A JUMPI DUP1 PUSH4 0x23B872DD EQ PUSH2 0x1A8 JUMPI DUP1 PUSH4 0x313CE567 EQ PUSH2 0x1D8 JUMPI JUMPDEST PUSH1 0x0 DUP1 REVERT JUMPDEST PUSH2 0x144 PUSH2 0x3EA JUMP JUMPDEST PUSH1 0x40 MLOAD PUSH2 0x151 SWAP2 SWAP1 PUSH2 0x179F JUMP JUMPDEST PUSH1 0x40 MLOAD DUP1 SWAP2 SUB SWAP1 RETURN JUMPDEST PUSH2 0x174 PUSH1 0x4 DUP1 CALLDATASIZE SUB DUP2 ADD SWAP1 PUSH2 0x16F SWAP2 SWAP1 PUSH2 0x185A JUMP JUMPDEST PUSH2 0x47C JUMP JUMPDEST PUSH1 0x40 MLOAD PUSH2 0x181 SWAP2 SWAP1 PUSH2 0x18B5 JUMP JUMPDEST PUSH1 0x40 MLOAD DUP1 SWAP2 SUB SWAP1 RETURN JUMPDEST PUSH2 0x192 PUSH2 0x49F JUMP JUMPDEST PUSH1 0x40 MLOAD PUSH2 0x19F SWAP2 SWAP1 PUSH2 0x18DF JUMP JUMPDEST PUSH1 0x40 MLOAD DUP1 SWAP2 SUB SWAP1 RETURN JUMPDEST PUSH2 0x1C2 PUSH1 0x4 DUP1 CALLDATASIZE SUB DUP2 ADD SWAP1 PUSH2 0x1BD SWAP2 SWAP1 PUSH2 0x18FA JUMP JUMPDEST PUSH2 0x4A9 JUMP JUMPDEST PUSH1 0x40 MLOAD PUSH2 0x1CF SWAP2 SWAP1 PUSH2 0x18B5 JUMP JUMPDEST PUSH1 0x40 MLOAD DUP1 SWAP2 SUB SWAP1 RETURN JUMPDEST PUSH2 0x1E0 PUSH2 0x4D8 JUMP JUMPDEST PUSH1 0x40 MLOAD PUSH2 0x1ED SWAP2 SWAP1 PUSH2 0x1969 JUMP JUMPDEST PUSH1 0x40 MLOAD DUP1 SWAP2 SUB SWAP1 RETURN JUMPDEST PUSH2 0x210 PUSH1 0x4 DUP1 CALLDATASIZE SUB DUP2 ADD SWAP1 PUSH2 0x20B SWAP2 SWAP1 PUSH2 0x185A JUMP JUMPDEST PUSH2 0x4E1 JUMP JUMPDEST PUSH1 0x40 MLOAD PUSH2 0x21D SWAP2 SWAP1 PUSH2 0x18B5 JUMP JUMPDEST PUSH1 0x40 MLOAD DUP1 SWAP2 SUB SWAP1 RETURN JUMPDEST PUSH2 0x22E PUSH2 0x518 JUMP JUMPDEST STOP JUMPDEST PUSH2 0x24A PUSH1 0x4 DUP1 CALLDATASIZE SUB DUP2 ADD SWAP1 PUSH2 0x245 SWAP2 SWAP1 PUSH2 0x185A JUMP JUMPDEST PUSH2 0x52A JUMP JUMPDEST STOP JUMPDEST PUSH2 0x266 PUSH1 0x4 DUP1 CALLDATASIZE SUB DUP2 ADD SWAP1 PUSH2 0x261 SWAP2 SWAP1 PUSH2 0x1984 JUMP JUMPDEST PUSH2 0x755 JUMP JUMPDEST STOP JUMPDEST PUSH2 0x270 PUSH2 0x769 JUMP JUMPDEST PUSH1 0x40 MLOAD PUSH2 0x27D SWAP2 SWAP1 PUSH2 0x18B5 JUMP JUMPDEST PUSH1 0x40 MLOAD DUP1 SWAP2 SUB SWAP1 RETURN JUMPDEST PUSH2 0x2A0 PUSH1 0x4 DUP1 CALLDATASIZE SUB DUP2 ADD SWAP1 PUSH2 0x29B SWAP2 SWAP1 PUSH2 0x19B1 JUMP JUMPDEST PUSH2 0x780 JUMP JUMPDEST PUSH1 0x40 MLOAD PUSH2 0x2AD SWAP2 SWAP1 PUSH2 0x18DF JUMP JUMPDEST PUSH1 0x40 MLOAD DUP1 SWAP2 SUB SWAP1 RETURN JUMPDEST PUSH2 0x2BE PUSH2 0x7C8 JUMP JUMPDEST STOP JUMPDEST PUSH2 0x2DA PUSH1 0x4 DUP1 CALLDATASIZE SUB DUP2 ADD SWAP1 PUSH2 0x2D5 SWAP2 SWAP1 PUSH2 0x185A JUMP JUMPDEST PUSH2 0x7DC JUMP JUMPDEST STOP JUMPDEST PUSH2 0x2E4 PUSH2 0x7FC JUMP JUMPDEST STOP JUMPDEST PUSH2 0x2EE PUSH2 0x80E JUMP JUMPDEST PUSH1 0x40 MLOAD PUSH2 0x2FB SWAP2 SWAP1 PUSH2 0x19ED JUMP JUMPDEST PUSH1 0x40 MLOAD DUP1 SWAP2 SUB SWAP1 RETURN JUMPDEST PUSH2 0x30C PUSH2 0x838 JUMP JUMPDEST PUSH1 0x40 MLOAD PUSH2 0x319 SWAP2 SWAP1 PUSH2 0x179F JUMP JUMPDEST PUSH1 0x40 MLOAD DUP1 SWAP2 SUB SWAP1 RETURN JUMPDEST PUSH2 0x33C PUSH1 0x4 DUP1 CALLDATASIZE SUB DUP2 ADD SWAP1 PUSH2 0x337 SWAP2 SWAP1 PUSH2 0x185A JUMP JUMPDEST PUSH2 0x8CA JUMP JUMPDEST STOP JUMPDEST PUSH2 0x358 PUSH1 0x4 DUP1 CALLDATASIZE SUB DUP2 ADD SWAP1 PUSH2 0x353 SWAP2 SWAP1 PUSH2 0x185A JUMP JUMPDEST PUSH2 0x96E JUMP JUMPDEST PUSH1 0x40 MLOAD PUSH2 0x365 SWAP2 SWAP1 PUSH2 0x18B5 JUMP JUMPDEST PUSH1 0x40 MLOAD DUP1 SWAP2 SUB SWAP1 RETURN JUMPDEST PUSH2 0x388 PUSH1 0x4 DUP1 CALLDATASIZE SUB DUP2 ADD SWAP1 PUSH2 0x383 SWAP2 SWAP1 PUSH2 0x185A JUMP JUMPDEST PUSH2 0x9E5 JUMP JUMPDEST PUSH1 0x40 MLOAD PUSH2 0x395 SWAP2 SWAP1 PUSH2 0x18B5 JUMP JUMPDEST PUSH1 0x40 MLOAD DUP1 SWAP2 SUB SWAP1 RETURN JUMPDEST PUSH2 0x3B8 PUSH1 0x4 DUP1 CALLDATASIZE SUB DUP2 ADD SWAP1 PUSH2 0x3B3 SWAP2 SWAP1 PUSH2 0x1A08 JUMP JUMPDEST PUSH2 0xA08 JUMP JUMPDEST PUSH1 0x40 MLOAD PUSH2 0x3C5 SWAP2 SWAP1 PUSH2 0x18DF JUMP JUMPDEST PUSH1 0x40 MLOAD DUP1 SWAP2 SUB SWAP1 RETURN JUMPDEST PUSH2 0x3E8 PUSH1 0x4 DUP1 CALLDATASIZE SUB DUP2 ADD SWAP1 PUSH2 0x3E3 SWAP2 SWAP1 PUSH2 0x19B1 JUMP JUMPDEST PUSH2 0xA8F JUMP JUMPDEST STOP JUMPDEST PUSH1 0x60 PUSH1 0x3 DUP1 SLOAD PUSH2 0x3F9 SWAP1 PUSH2 0x1A77 JUMP JUMPDEST DUP1 PUSH1 0x1F ADD PUSH1 0x20 DUP1 SWAP2 DIV MUL PUSH1 0x20 ADD PUSH1 0x40 MLOAD SWAP1 DUP2 ADD PUSH1 0x40 MSTORE DUP1 SWAP3 SWAP2 SWAP1 DUP2 DUP2 MSTORE PUSH1 0x20 ADD DUP3 DUP1 SLOAD PUSH2 0x425 SWAP1 PUSH2 0x1A77 JUMP JUMPDEST DUP1 ISZERO PUSH2 0x472 JUMPI DUP1 PUSH1 0x1F LT PUSH2 0x447 JUMPI PUSH2 0x100 DUP1 DUP4 SLOAD DIV MUL DUP4 MSTORE SWAP2 PUSH1 0x20 ADD SWAP2 PUSH2 0x472 JUMP JUMPDEST DUP3 ADD SWAP2 SWAP1 PUSH1 0x0 MSTORE PUSH1 0x20 PUSH1 0x0 KECCAK256 SWAP1 JUMPDEST DUP2 SLOAD DUP2 MSTORE SWAP1 PUSH1 0x1 ADD SWAP1 PUSH1 0x20 ADD DUP1 DUP4 GT PUSH2 0x455 JUMPI DUP3 SWAP1 SUB PUSH1 0x1F AND DUP3 ADD SWAP2 JUMPDEST POP POP POP POP POP SWAP1 POP SWAP1 JUMP JUMPDEST PUSH1 0x0 DUP1 PUSH2 0x487 PUSH2 0xB13 JUMP JUMPDEST SWAP1 POP PUSH2 0x494 DUP2 DUP6 DUP6 PUSH2 0xB1B JUMP JUMPDEST PUSH1 0x1 SWAP2 POP POP SWAP3 SWAP2 POP POP JUMP JUMPDEST PUSH1 0x0 PUSH1 0x2 SLOAD SWAP1 POP SWAP1 JUMP JUMPDEST PUSH1 0x0 DUP1 PUSH2 0x4B4 PUSH2 0xB13 JUMP JUMPDEST SWAP1 POP PUSH2 0x4C1 DUP6 DUP3 DUP6 PUSH2 0xCE6 JUMP JUMPDEST PUSH2 0x4CC DUP6 DUP6 DUP6 PUSH2 0xD72 JUMP JUMPDEST PUSH1 0x1 SWAP2 POP POP SWAP4 SWAP3 POP POP POP JUMP JUMPDEST PUSH1 0x0 PUSH1 0x2 SWAP1 POP SWAP1 JUMP JUMPDEST PUSH1 0x0 DUP1 PUSH2 0x4EC PUSH2 0xB13 JUMP JUMPDEST SWAP1 POP PUSH2 0x50D DUP2 DUP6 DUP6 PUSH2 0x4FE DUP6 DUP10 PUSH2 0xA08 JUMP JUMPDEST PUSH2 0x508 SWAP2 SWAP1 PUSH2 0x1AD8 JUMP JUMPDEST PUSH2 0xB1B JUMP JUMPDEST PUSH1 0x1 SWAP2 POP POP SWAP3 SWAP2 POP POP JUMP JUMPDEST PUSH2 0x520 PUSH2 0xFEA JUMP JUMPDEST PUSH2 0x528 PUSH2 0x1068 JUMP JUMPDEST JUMP JUMPDEST PUSH1 0x6 PUSH1 0x0 SWAP1 SLOAD SWAP1 PUSH2 0x100 EXP SWAP1 DIV PUSH20 0xFFFFFFFFFFFFFFFFFFFFFFFFFFFFFFFFFFFFFFFF AND PUSH20 0xFFFFFFFFFFFFFFFFFFFFFFFFFFFFFFFFFFFFFFFF AND PUSH4 0xF35F0F74 CALLER PUSH1 0x1 PUSH1 0x40 MLOAD DUP4 PUSH4 0xFFFFFFFF AND PUSH1 0xE0 SHL DUP2 MSTORE PUSH1 0x4 ADD PUSH2 0x588 SWAP3 SWAP2 SWAP1 PUSH2 0x1B4F JUMP JUMPDEST PUSH1 0x20 PUSH1 0x40 MLOAD DUP1 DUP4 SUB DUP2 DUP7 DUP1 EXTCODESIZE ISZERO DUP1 ISZERO PUSH2 0x5A0 JUMPI PUSH1 0x0 DUP1 REVERT JUMPDEST POP GAS STATICCALL ISZERO DUP1 ISZERO PUSH2 0x5B4 JUMPI RETURNDATASIZE PUSH1 0x0 DUP1 RETURNDATACOPY RETURNDATASIZE PUSH1 0x0 REVERT JUMPDEST POP POP POP POP PUSH1 0x40 MLOAD RETURNDATASIZE PUSH1 0x1F NOT PUSH1 0x1F DUP3 ADD AND DUP3 ADD DUP1 PUSH1 0x40 MSTORE POP DUP2 ADD SWAP1 PUSH2 0x5D8 SWAP2 SWAP1 PUSH2 0x1BA4 JUMP JUMPDEST PUSH2 0x617 JUMPI PUSH1 0x40 MLOAD PUSH32 0x8C379A000000000000000000000000000000000000000000000000000000000 DUP2 MSTORE PUSH1 0x4 ADD PUSH2 0x60E SWAP1 PUSH2 0x1C43 JUMP JUMPDEST PUSH1 0x40 MLOAD DUP1 SWAP2 SUB SWAP1 REVERT JUMPDEST PUSH1 0x6 PUSH1 0x0 SWAP1 SLOAD SWAP1 PUSH2 0x100 EXP SWAP1 DIV PUSH20 0xFFFFFFFFFFFFFFFFFFFFFFFFFFFFFFFFFFFFFFFF AND PUSH20 0xFFFFFFFFFFFFFFFFFFFFFFFFFFFFFFFFFFFFFFFF AND PUSH4 0xF35F0F74 DUP4 PUSH1 0x2 PUSH1 0x40 MLOAD DUP4 PUSH4 0xFFFFFFFF AND PUSH1 0xE0 SHL DUP2 MSTORE PUSH1 0x4 ADD PUSH2 0x675 SWAP3 SWAP2 SWAP1 PUSH2 0x1B4F JUMP JUMPDEST PUSH1 0x20 PUSH1 0x40 MLOAD DUP1 DUP4 SUB DUP2 DUP7 DUP1 EXTCODESIZE ISZERO DUP1 ISZERO PUSH2 0x68D JUMPI PUSH1 0x0 DUP1 REVERT JUMPDEST POP GAS STATICCALL ISZERO DUP1 ISZERO PUSH2 0x6A1 JUMPI RETURNDATASIZE PUSH1 0x0 DUP1 RETURNDATACOPY RETURNDATASIZE PUSH1 0x0 REVERT JUMPDEST POP POP POP POP PUSH1 0x40 MLOAD RETURNDATASIZE PUSH1 0x1F NOT PUSH1 0x1F DUP3 ADD AND DUP3 ADD DUP1 PUSH1 0x40 MSTORE POP DUP2 ADD SWAP1 PUSH2 0x6C5 SWAP2 SWAP1 PUSH2 0x1BA4 JUMP JUMPDEST PUSH2 0x704 JUMPI PUSH1 0x40 MLOAD PUSH32 0x8C379A000000000000000000000000000000000000000000000000000000000 DUP2 MSTORE PUSH1 0x4 ADD PUSH2 0x6FB SWAP1 PUSH2 0x1CD5 JUMP JUMPDEST PUSH1 0x40 MLOAD DUP1 SWAP2 SUB SWAP1 REVERT JUMPDEST PUSH1 0x0 DUP2 GT PUSH2 0x747 JUMPI PUSH1 0x40 MLOAD PUSH32 0x8C379A000000000000000000000000000000000000000000000000000000000 DUP2 MSTORE PUSH1 0x4 ADD PUSH2 0x73E SWAP1 PUSH2 0x1D67 JUMP JUMPDEST PUSH1 0x40 MLOAD DUP1 SWAP2 SUB SWAP1 REVERT JUMPDEST PUSH2 0x751 DUP3 DUP3 PUSH2 0x10CB JUMP JUMPDEST POP POP JUMP JUMPDEST PUSH2 0x766 PUSH2 0x760 PUSH2 0xB13 JUMP JUMPDEST DUP3 PUSH2 0x1222 JUMP JUMPDEST POP JUMP JUMPDEST PUSH1 0x0 PUSH1 0x5 PUSH1 0x0 SWAP1 SLOAD SWAP1 PUSH2 0x100 EXP SWAP1 DIV PUSH1 0xFF AND SWAP1 POP SWAP1 JUMP JUMPDEST PUSH1 0x0 DUP1 PUSH1 0x0 DUP4 PUSH20 0xFFFFFFFFFFFFFFFFFFFFFFFFFFFFFFFFFFFFFFFF AND PUSH20 0xFFFFFFFFFFFFFFFFFFFFFFFFFFFFFFFFFFFFFFFF AND DUP2 MSTORE PUSH1 0x20 ADD SWAP1 DUP2 MSTORE PUSH1 0x20 ADD PUSH1 0x0 KECCAK256 SLOAD SWAP1 POP SWAP2 SWAP1 POP JUMP JUMPDEST PUSH2 0x7D0 PUSH2 0xFEA JUMP JUMPDEST PUSH2 0x7DA PUSH1 0x0 PUSH2 0x13F0 JUMP JUMPDEST JUMP JUMPDEST PUSH2 0x7EE DUP3 PUSH2 0x7E8 PUSH2 0xB13 JUMP JUMPDEST DUP4 PUSH2 0xCE6 JUMP JUMPDEST PUSH2 0x7F8 DUP3 DUP3 PUSH2 0x1222 JUMP JUMPDEST POP POP JUMP JUMPDEST PUSH2 0x804 PUSH2 0xFEA JUMP JUMPDEST PUSH2 0x80C PUSH2 0x14B6 JUMP JUMPDEST JUMP JUMPDEST PUSH1 0x0 PUSH1 0x5 PUSH1 0x1 SWAP1 SLOAD SWAP1 PUSH2 0x100 EXP SWAP1 DIV PUSH20 0xFFFFFFFFFFFFFFFFFFFFFFFFFFFFFFFFFFFFFFFF AND SWAP1 POP SWAP1 JUMP JUMPDEST PUSH1 0x60 PUSH1 0x4 DUP1 SLOAD PUSH2 0x847 SWAP1 PUSH2 0x1A77 JUMP JUMPDEST DUP1 PUSH1 0x1F ADD PUSH1 0x20 DUP1 SWAP2 DIV MUL PUSH1 0x20 ADD PUSH1 0x40 MLOAD SWAP1 DUP2 ADD PUSH1 0x40 MSTORE DUP1 SWAP3 SWAP2 SWAP1 DUP2 DUP2 MSTORE PUSH1 0x20 ADD DUP3 DUP1 SLOAD PUSH2 0x873 SWAP1 PUSH2 0x1A77 JUMP JUMPDEST DUP1 ISZERO PUSH2 0x8C0 JUMPI DUP1 PUSH1 0x1F LT PUSH2 0x895 JUMPI PUSH2 0x100 DUP1 DUP4 SLOAD DIV MUL DUP4 MSTORE SWAP2 PUSH1 0x20 ADD SWAP2 PUSH2 0x8C0 JUMP JUMPDEST DUP3 ADD SWAP2 SWAP1 PUSH1 0x0 MSTORE PUSH1 0x20 PUSH1 0x0 KECCAK256 SWAP1 JUMPDEST DUP2 SLOAD DUP2 MSTORE SWAP1 PUSH1 0x1 ADD SWAP1 PUSH1 0x20 ADD DUP1 DUP4 GT PUSH2 0x8A3 JUMPI DUP3 SWAP1 SUB PUSH1 0x1F AND DUP3 ADD SWAP2 JUMPDEST POP POP POP POP POP SWAP1 POP SWAP1 JUMP JUMPDEST PUSH2 0x8D2 PUSH2 0xFEA JUMP JUMPDEST PUSH1 0x0 DUP2 GT PUSH2 0x915 JUMPI PUSH1 0x40 MLOAD PUSH32 0x8C379A000000000000000000000000000000000000000000000000000000000 DUP2 MSTORE PUSH1 0x4 ADD PUSH2 0x90C SWAP1 PUSH2 0x1D67 JUMP JUMPDEST PUSH1 0x40 MLOAD DUP1 SWAP2 SUB SWAP1 REVERT JUMPDEST DUP1 PUSH2 0x91F DUP4 PUSH2 0x780 JUMP JUMPDEST LT ISZERO PUSH2 0x960 JUMPI PUSH1 0x40 MLOAD PUSH32 0x8C379A000000000000000000000000000000000000000000000000000000000 DUP2 MSTORE PUSH1 0x4 ADD PUSH2 0x957 SWAP1 PUSH2 0x1DF9 JUMP JUMPDEST PUSH1 0x40 MLOAD DUP1 SWAP2 SUB SWAP1 REVERT JUMPDEST PUSH2 0x96A DUP3 DUP3 PUSH2 0x1222 JUMP JUMPDEST POP POP JUMP JUMPDEST PUSH1 0x0 DUP1 PUSH2 0x979 PUSH2 0xB13 JUMP JUMPDEST SWAP1 POP PUSH1 0x0 PUSH2 0x987 DUP3 DUP7 PUSH2 0xA08 JUMP JUMPDEST SWAP1 POP DUP4 DUP2 LT ISZERO PUSH2 0x9CC JUMPI PUSH1 0x40 MLOAD PUSH32 0x8C379A000000000000000000000000000000000000000000000000000000000 DUP2 MSTORE PUSH1 0x4 ADD PUSH2 0x9C3 SWAP1 PUSH2 0x1E8B JUMP JUMPDEST PUSH1 0x40 MLOAD DUP1 SWAP2 SUB SWAP1 REVERT JUMPDEST PUSH2 0x9D9 DUP3 DUP7 DUP7 DUP5 SUB PUSH2 0xB1B JUMP JUMPDEST PUSH1 0x1 SWAP3 POP POP POP SWAP3 SWAP2 POP POP JUMP JUMPDEST PUSH1 0x0 DUP1 PUSH2 0x9F0 PUSH2 0xB13 JUMP JUMPDEST SWAP1 POP PUSH2 0x9FD DUP2 DUP6 DUP6 PUSH2 0xD72 JUMP JUMPDEST PUSH1 0x1 SWAP2 POP POP SWAP3 SWAP2 POP POP JUMP JUMPDEST PUSH1 0x0 PUSH1 0x1 PUSH1 0x0 DUP5 PUSH20 0xFFFFFFFFFFFFFFFFFFFFFFFFFFFFFFFFFFFFFFFF AND PUSH20 0xFFFFFFFFFFFFFFFFFFFFFFFFFFFFFFFFFFFFFFFF AND DUP2 MSTORE PUSH1 0x20 ADD SWAP1 DUP2 MSTORE PUSH1 0x20 ADD PUSH1 0x0 KECCAK256 PUSH1 0x0 DUP4 PUSH20 0xFFFFFFFFFFFFFFFFFFFFFFFFFFFFFFFFFFFFFFFF AND PUSH20 0xFFFFFFFFFFFFFFFFFFFFFFFFFFFFFFFFFFFFFFFF AND DUP2 MSTORE PUSH1 0x20 ADD SWAP1 DUP2 MSTORE PUSH1 0x20 ADD PUSH1 0x0 KECCAK256 SLOAD SWAP1 POP SWAP3 SWAP2 POP POP JUMP JUMPDEST PUSH2 0xA97 PUSH2 0xFEA JUMP JUMPDEST PUSH1 0x0 PUSH20 0xFFFFFFFFFFFFFFFFFFFFFFFFFFFFFFFFFFFFFFFF AND DUP2 PUSH20 0xFFFFFFFFFFFFFFFFFFFFFFFFFFFFFFFFFFFFFFFF AND EQ ISZERO PUSH2 0xB07 JUMPI PUSH1 0x40 MLOAD PUSH32 0x8C379A000000000000000000000000000000000000000000000000000000000 DUP2 MSTORE PUSH1 0x4 ADD PUSH2 0xAFE SWAP1 PUSH2 0x1F1D JUMP JUMPDEST PUSH1 0x40 MLOAD DUP1 SWAP2 SUB SWAP1 REVERT JUMPDEST PUSH2 0xB10 DUP2 PUSH2 0x13F0 JUMP JUMPDEST POP JUMP JUMPDEST PUSH1 0x0 CALLER SWAP1 POP SWAP1 JUMP JUMPDEST PUSH1 0x0 PUSH20 0xFFFFFFFFFFFFFFFFFFFFFFFFFFFFFFFFFFFFFFFF AND DUP4 PUSH20 0xFFFFFFFFFFFFFFFFFFFFFFFFFFFFFFFFFFFFFFFF AND EQ ISZERO PUSH2 0xB8B JUMPI PUSH1 0x40 MLOAD PUSH32 0x8C379A000000000000000000000000000000000000000000000000000000000 DUP2 MSTORE PUSH1 0x4 ADD PUSH2 0xB82 SWAP1 PUSH2 0x1FAF JUMP JUMPDEST PUSH1 0x40 MLOAD DUP1 SWAP2 SUB SWAP1 REVERT JUMPDEST PUSH1 0x0 PUSH20 0xFFFFFFFFFFFFFFFFFFFFFFFFFFFFFFFFFFFFFFFF AND DUP3 PUSH20 0xFFFFFFFFFFFFFFFFFFFFFFFFFFFFFFFFFFFFFFFF AND EQ ISZERO PUSH2 0xBFB JUMPI PUSH1 0x40 MLOAD PUSH32 0x8C379A000000000000000000000000000000000000000000000000000000000 DUP2 MSTORE PUSH1 0x4 ADD PUSH2 0xBF2 SWAP1 PUSH2 0x2041 JUMP JUMPDEST PUSH1 0x40 MLOAD DUP1 SWAP2 SUB SWAP1 REVERT JUMPDEST DUP1 PUSH1 0x1 PUSH1 0x0 DUP6 PUSH20 0xFFFFFFFFFFFFFFFFFFFFFFFFFFFFFFFFFFFFFFFF AND PUSH20 0xFFFFFFFFFFFFFFFFFFFFFFFFFFFFFFFFFFFFFFFF AND DUP2 MSTORE PUSH1 0x20 ADD SWAP1 DUP2 MSTORE PUSH1 0x20 ADD PUSH1 0x0 KECCAK256 PUSH1 0x0 DUP5 PUSH20 0xFFFFFFFFFFFFFFFFFFFFFFFFFFFFFFFFFFFFFFFF AND PUSH20 0xFFFFFFFFFFFFFFFFFFFFFFFFFFFFFFFFFFFFFFFF AND DUP2 MSTORE PUSH1 0x20 ADD SWAP1 DUP2 MSTORE PUSH1 0x20 ADD PUSH1 0x0 KECCAK256 DUP2 SWAP1 SSTORE POP DUP2 PUSH20 0xFFFFFFFFFFFFFFFFFFFFFFFFFFFFFFFFFFFFFFFF AND DUP4 PUSH20 0xFFFFFFFFFFFFFFFFFFFFFFFFFFFFFFFFFFFFFFFF AND PUSH32 0x8C5BE1E5EBEC7D5BD14F71427D1E84F3DD0314C0F7B2291E5B200AC8C7C3B925 DUP4 PUSH1 0x40 MLOAD PUSH2 0xCD9 SWAP2 SWAP1 PUSH2 0x18DF JUMP JUMPDEST PUSH1 0x40 MLOAD DUP1 SWAP2 SUB SWAP1 LOG3 POP POP POP JUMP JUMPDEST PUSH1 0x0 PUSH2 0xCF2 DUP5 DUP5 PUSH2 0xA08 JUMP JUMPDEST SWAP1 POP PUSH32 0xFFFFFFFFFFFFFFFFFFFFFFFFFFFFFFFFFFFFFFFFFFFFFFFFFFFFFFFFFFFFFFFF DUP2 EQ PUSH2 0xD6C JUMPI DUP2 DUP2 LT ISZERO PUSH2 0xD5E JUMPI PUSH1 0x40 MLOAD PUSH32 0x8C379A000000000000000000000000000000000000000000000000000000000 DUP2 MSTORE PUSH1 0x4 ADD PUSH2 0xD55 SWAP1 PUSH2 0x20AD JUMP JUMPDEST PUSH1 0x40 MLOAD DUP1 SWAP2 SUB SWAP1 REVERT JUMPDEST PUSH2 0xD6B DUP5 DUP5 DUP5 DUP5 SUB PUSH2 0xB1B JUMP JUMPDEST JUMPDEST POP POP POP POP JUMP JUMPDEST PUSH1 0x0 PUSH20 0xFFFFFFFFFFFFFFFFFFFFFFFFFFFFFFFFFFFFFFFF AND DUP4 PUSH20 0xFFFFFFFFFFFFFFFFFFFFFFFFFFFFFFFFFFFFFFFF AND EQ ISZERO PUSH2 0xDE2 JUMPI PUSH1 0x40 MLOAD PUSH32 0x8C379A000000000000000000000000000000000000000000000000000000000 DUP2 MSTORE PUSH1 0x4 ADD PUSH2 0xDD9 SWAP1 PUSH2 0x213F JUMP JUMPDEST PUSH1 0x40 MLOAD DUP1 SWAP2 SUB SWAP1 REVERT JUMPDEST PUSH1 0x0 PUSH20 0xFFFFFFFFFFFFFFFFFFFFFFFFFFFFFFFFFFFFFFFF AND DUP3 PUSH20 0xFFFFFFFFFFFFFFFFFFFFFFFFFFFFFFFFFFFFFFFF AND EQ ISZERO PUSH2 0xE52 JUMPI PUSH1 0x40 MLOAD PUSH32 0x8C379A000000000000000000000000000000000000000000000000000000000 DUP2 MSTORE PUSH1 0x4 ADD PUSH2 0xE49 SWAP1 PUSH2 0x21D1 JUMP JUMPDEST PUSH1 0x40 MLOAD DUP1 SWAP2 SUB SWAP1 REVERT JUMPDEST PUSH2 0xE5D DUP4 DUP4 DUP4 PUSH2 0x1519 JUMP JUMPDEST PUSH1 0x0 DUP1 PUSH1 0x0 DUP6 PUSH20 0xFFFFFFFFFFFFFFFFFFFFFFFFFFFFFFFFFFFFFFFF AND PUSH20 0xFFFFFFFFFFFFFFFFFFFFFFFFFFFFFFFFFFFFFFFF AND DUP2 MSTORE PUSH1 0x20 ADD SWAP1 DUP2 MSTORE PUSH1 0x20 ADD PUSH1 0x0 KECCAK256 SLOAD SWAP1 POP DUP2 DUP2 LT ISZERO PUSH2 0xEE3 JUMPI PUSH1 0x40 MLOAD PUSH32 0x8C379A000000000000000000000000000000000000000000000000000000000 DUP2 MSTORE PUSH1 0x4 ADD PUSH2 0xEDA SWAP1 PUSH2 0x2263 JUMP JUMPDEST PUSH1 0x40 MLOAD DUP1 SWAP2 SUB SWAP1 REVERT JUMPDEST DUP2 DUP2 SUB PUSH1 0x0 DUP1 DUP7 PUSH20 0xFFFFFFFFFFFFFFFFFFFFFFFFFFFFFFFFFFFFFFFF AND PUSH20 0xFFFFFFFFFFFFFFFFFFFFFFFFFFFFFFFFFFFFFFFF AND DUP2 MSTORE PUSH1 0x20 ADD SWAP1 DUP2 MSTORE PUSH1 0x20 ADD PUSH1 0x0 KECCAK256 DUP2 SWAP1 SSTORE POP DUP2 PUSH1 0x0 DUP1 DUP6 PUSH20 0xFFFFFFFFFFFFFFFFFFFFFFFFFFFFFFFFFFFFFFFF AND PUSH20 0xFFFFFFFFFFFFFFFFFFFFFFFFFFFFFFFFFFFFFFFF AND DUP2 MSTORE PUSH1 0x20 ADD SWAP1 DUP2 MSTORE PUSH1 0x20 ADD PUSH1 0x0 KECCAK256 PUSH1 0x0 DUP3 DUP3 SLOAD ADD SWAP3 POP POP DUP2 SWAP1 SSTORE POP DUP3 PUSH20 0xFFFFFFFFFFFFFFFFFFFFFFFFFFFFFFFFFFFFFFFF AND DUP5 PUSH20 0xFFFFFFFFFFFFFFFFFFFFFFFFFFFFFFFFFFFFFFFF AND PUSH32 0xDDF252AD1BE2C89B69C2B068FC378DAA952BA7F163C4A11628F55A4DF523B3EF DUP5 PUSH1 0x40 MLOAD PUSH2 0xFD1 SWAP2 SWAP1 PUSH2 0x18DF JUMP JUMPDEST PUSH1 0x40 MLOAD DUP1 SWAP2 SUB SWAP1 LOG3 PUSH2 0xFE4 DUP5 DUP5 DUP5 PUSH2 0x1669 JUMP JUMPDEST POP POP POP POP JUMP JUMPDEST PUSH2 0xFF2 PUSH2 0xB13 JUMP JUMPDEST PUSH20 0xFFFFFFFFFFFFFFFFFFFFFFFFFFFFFFFFFFFFFFFF AND PUSH2 0x1010 PUSH2 0x80E JUMP JUMPDEST PUSH20 0xFFFFFFFFFFFFFFFFFFFFFFFFFFFFFFFFFFFFFFFF AND EQ PUSH2 0x1066 JUMPI PUSH1 0x40 MLOAD PUSH32 0x8C379A000000000000000000000000000000000000000000000000000000000 DUP2 MSTORE PUSH1 0x4 ADD PUSH2 0x105D SWAP1 PUSH2 0x22CF JUMP JUMPDEST PUSH1 0x40 MLOAD DUP1 SWAP2 SUB SWAP1 REVERT JUMPDEST JUMP JUMPDEST PUSH2 0x1070 PUSH2 0x166E JUMP JUMPDEST PUSH1 0x0 PUSH1 0x5 PUSH1 0x0 PUSH2 0x100 EXP DUP2 SLOAD DUP2 PUSH1 0xFF MUL NOT AND SWAP1 DUP4 ISZERO ISZERO MUL OR SWAP1 SSTORE POP PUSH32 0x5DB9EE0A495BF2E6FF9C91A7834C1BA4FDD244A5E8AA4E537BD38AEAE4B073AA PUSH2 0x10B4 PUSH2 0xB13 JUMP JUMPDEST PUSH1 0x40 MLOAD PUSH2 0x10C1 SWAP2 SWAP1 PUSH2 0x19ED JUMP JUMPDEST PUSH1 0x40 MLOAD DUP1 SWAP2 SUB SWAP1 LOG1 JUMP JUMPDEST PUSH1 0x0 PUSH20 0xFFFFFFFFFFFFFFFFFFFFFFFFFFFFFFFFFFFFFFFF AND DUP3 PUSH20 0xFFFFFFFFFFFFFFFFFFFFFFFFFFFFFFFFFFFFFFFF AND EQ ISZERO PUSH2 0x113B JUMPI PUSH1 0x40 MLOAD PUSH32 0x8C379A000000000000000000000000000000000000000000000000000000000 DUP2 MSTORE PUSH1 0x4 ADD PUSH2 0x1132 SWAP1 PUSH2 0x233B JUMP JUMPDEST PUSH1 0x40 MLOAD DUP1 SWAP2 SUB SWAP1 REVERT JUMPDEST PUSH2 0x1147 PUSH1 0x0 DUP4 DUP4 PUSH2 0x1519 JUMP JUMPDEST DUP1 PUSH1 0x2 PUSH1 0x0 DUP3 DUP3 SLOAD PUSH2 0x1159 SWAP2 SWAP1 PUSH2 0x1AD8 JUMP JUMPDEST SWAP3 POP POP DUP2 SWAP1 SSTORE POP DUP1 PUSH1 0x0 DUP1 DUP5 PUSH20 0xFFFFFFFFFFFFFFFFFFFFFFFFFFFFFFFFFFFFFFFF AND PUSH20 0xFFFFFFFFFFFFFFFFFFFFFFFFFFFFFFFFFFFFFFFF AND DUP2 MSTORE PUSH1 0x20 ADD SWAP1 DUP2 MSTORE PUSH1 0x20 ADD PUSH1 0x0 KECCAK256 PUSH1 0x0 DUP3 DUP3 SLOAD ADD SWAP3 POP POP DUP2 SWAP1 SSTORE POP DUP2 PUSH20 0xFFFFFFFFFFFFFFFFFFFFFFFFFFFFFFFFFFFFFFFF AND PUSH1 0x0 PUSH20 0xFFFFFFFFFFFFFFFFFFFFFFFFFFFFFFFFFFFFFFFF AND PUSH32 0xDDF252AD1BE2C89B69C2B068FC378DAA952BA7F163C4A11628F55A4DF523B3EF DUP4 PUSH1 0x40 MLOAD PUSH2 0x120A SWAP2 SWAP1 PUSH2 0x18DF JUMP JUMPDEST PUSH1 0x40 MLOAD DUP1 SWAP2 SUB SWAP1 LOG3 PUSH2 0x121E PUSH1 0x0 DUP4 DUP4 PUSH2 0x1669 JUMP JUMPDEST POP POP JUMP JUMPDEST PUSH1 0x0 PUSH20 0xFFFFFFFFFFFFFFFFFFFFFFFFFFFFFFFFFFFFFFFF AND DUP3 PUSH20 0xFFFFFFFFFFFFFFFFFFFFFFFFFFFFFFFFFFFFFFFF AND EQ ISZERO PUSH2 0x1292 JUMPI PUSH1 0x40 MLOAD PUSH32 0x8C379A000000000000000000000000000000000000000000000000000000000 DUP2 MSTORE PUSH1 0x4 ADD PUSH2 0x1289 SWAP1 PUSH2 0x23CD JUMP JUMPDEST PUSH1 0x40 MLOAD DUP1 SWAP2 SUB SWAP1 REVERT JUMPDEST PUSH2 0x129E DUP3 PUSH1 0x0 DUP4 PUSH2 0x1519 JUMP JUMPDEST PUSH1 0x0 DUP1 PUSH1 0x0 DUP5 PUSH20 0xFFFFFFFFFFFFFFFFFFFFFFFFFFFFFFFFFFFFFFFF AND PUSH20 0xFFFFFFFFFFFFFFFFFFFFFFFFFFFFFFFFFFFFFFFF AND DUP2 MSTORE PUSH1 0x20 ADD SWAP1 DUP2 MSTORE PUSH1 0x20 ADD PUSH1 0x0 KECCAK256 SLOAD SWAP1 POP DUP2 DUP2 LT ISZERO PUSH2 0x1324 JUMPI PUSH1 0x40 MLOAD PUSH32 0x8C379A000000000000000000000000000000000000000000000000000000000 DUP2 MSTORE PUSH1 0x4 ADD PUSH2 0x131B SWAP1 PUSH2 0x245F JUMP JUMPDEST PUSH1 0x40 MLOAD DUP1 SWAP2 SUB SWAP1 REVERT JUMPDEST DUP2 DUP2 SUB PUSH1 0x0 DUP1 DUP6 PUSH20 0xFFFFFFFFFFFFFFFFFFFFFFFFFFFFFFFFFFFFFFFF AND PUSH20 0xFFFFFFFFFFFFFFFFFFFFFFFFFFFFFFFFFFFFFFFF AND DUP2 MSTORE PUSH1 0x20 ADD SWAP1 DUP2 MSTORE PUSH1 0x20 ADD PUSH1 0x0 KECCAK256 DUP2 SWAP1 SSTORE POP DUP2 PUSH1 0x2 PUSH1 0x0 DUP3 DUP3 SLOAD SUB SWAP3 POP POP DUP2 SWAP1 SSTORE POP PUSH1 0x0 PUSH20 0xFFFFFFFFFFFFFFFFFFFFFFFFFFFFFFFFFFFFFFFF AND DUP4 PUSH20 0xFFFFFFFFFFFFFFFFFFFFFFFFFFFFFFFFFFFFFFFF AND PUSH32 0xDDF252AD1BE2C89B69C2B068FC378DAA952BA7F163C4A11628F55A4DF523B3EF DUP5 PUSH1 0x40 MLOAD PUSH2 0x13D7 SWAP2 SWAP1 PUSH2 0x18DF JUMP JUMPDEST PUSH1 0x40 MLOAD DUP1 SWAP2 SUB SWAP1 LOG3 PUSH2 0x13EB DUP4 PUSH1 0x0 DUP5 PUSH2 0x1669 JUMP JUMPDEST POP POP POP JUMP JUMPDEST PUSH1 0x0 PUSH1 0x5 PUSH1 0x1 SWAP1 SLOAD SWAP1 PUSH2 0x100 EXP SWAP1 DIV PUSH20 0xFFFFFFFFFFFFFFFFFFFFFFFFFFFFFFFFFFFFFFFF AND SWAP1 POP DUP2 PUSH1 0x5 PUSH1 0x1 PUSH2 0x100 EXP DUP2 SLOAD DUP2 PUSH20 0xFFFFFFFFFFFFFFFFFFFFFFFFFFFFFFFFFFFFFFFF MUL NOT AND SWAP1 DUP4 PUSH20 0xFFFFFFFFFFFFFFFFFFFFFFFFFFFFFFFFFFFFFFFF AND MUL OR SWAP1 SSTORE POP DUP2 PUSH20 0xFFFFFFFFFFFFFFFFFFFFFFFFFFFFFFFFFFFFFFFF AND DUP2 PUSH20 0xFFFFFFFFFFFFFFFFFFFFFFFFFFFFFFFFFFFFFFFF AND PUSH32 0x8BE0079C531659141344CD1FD0A4F28419497F9722A3DAAFE3B4186F6B6457E0 PUSH1 0x40 MLOAD PUSH1 0x40 MLOAD DUP1 SWAP2 SUB SWAP1 LOG3 POP POP JUMP JUMPDEST PUSH2 0x14BE PUSH2 0x16B7 JUMP JUMPDEST PUSH1 0x1 PUSH1 0x5 PUSH1 0x0 PUSH2 0x100 EXP DUP2 SLOAD DUP2 PUSH1 0xFF MUL NOT AND SWAP1 DUP4 ISZERO ISZERO MUL OR SWAP1 SSTORE POP PUSH32 0x62E78CEA01BEE320CD4E420270B5EA74000D11B0C9F74754EBDBFC544B05A258 PUSH2 0x1502 PUSH2 0xB13 JUMP JUMPDEST PUSH1 0x40 MLOAD PUSH2 0x150F SWAP2 SWAP1 PUSH2 0x19ED JUMP JUMPDEST PUSH1 0x40 MLOAD DUP1 SWAP2 SUB SWAP1 LOG1 JUMP JUMPDEST PUSH2 0x1521 PUSH2 0x16B7 JUMP JUMPDEST PUSH1 0x6 PUSH1 0x0 SWAP1 SLOAD SWAP1 PUSH2 0x100 EXP SWAP1 DIV PUSH20 0xFFFFFFFFFFFFFFFFFFFFFFFFFFFFFFFFFFFFFFFF AND PUSH20 0xFFFFFFFFFFFFFFFFFFFFFFFFFFFFFFFFFFFFFFFF AND PUSH4 0xF35F0F74 DUP4 PUSH1 0x2 PUSH1 0x40 MLOAD DUP4 PUSH4 0xFFFFFFFF AND PUSH1 0xE0 SHL DUP2 MSTORE PUSH1 0x4 ADD PUSH2 0x157F SWAP3 SWAP2 SWAP1 PUSH2 0x1B4F JUMP JUMPDEST PUSH1 0x20 PUSH1 0x40 MLOAD DUP1 DUP4 SUB DUP2 DUP7 DUP1 EXTCODESIZE ISZERO DUP1 ISZERO PUSH2 0x1597 JUMPI PUSH1 0x0 DUP1 REVERT JUMPDEST POP GAS STATICCALL ISZERO DUP1 ISZERO PUSH2 0x15AB JUMPI RETURNDATASIZE PUSH1 0x0 DUP1 RETURNDATACOPY RETURNDATASIZE PUSH1 0x0 REVERT JUMPDEST POP POP POP POP PUSH1 0x40 MLOAD RETURNDATASIZE PUSH1 0x1F NOT PUSH1 0x1F DUP3 ADD AND DUP3 ADD DUP1 PUSH1 0x40 MSTORE POP DUP2 ADD SWAP1 PUSH2 0x15CF SWAP2 SWAP1 PUSH2 0x1BA4 JUMP JUMPDEST PUSH2 0x160E JUMPI PUSH1 0x40 MLOAD PUSH32 0x8C379A000000000000000000000000000000000000000000000000000000000 DUP2 MSTORE PUSH1 0x4 ADD PUSH2 0x1605 SWAP1 PUSH2 0x1CD5 JUMP JUMPDEST PUSH1 0x40 MLOAD DUP1 SWAP2 SUB SWAP1 REVERT JUMPDEST DUP1 PUSH2 0x1618 DUP5 PUSH2 0x780 JUMP JUMPDEST LT ISZERO PUSH2 0x1659 JUMPI PUSH1 0x40 MLOAD PUSH32 0x8C379A000000000000000000000000000000000000000000000000000000000 DUP2 MSTORE PUSH1 0x4 ADD PUSH2 0x1650 SWAP1 PUSH2 0x24F1 JUMP JUMPDEST PUSH1 0x40 MLOAD DUP1 SWAP2 SUB SWAP1 REVERT JUMPDEST PUSH2 0x1664 DUP4 DUP4 DUP4 PUSH2 0x1701 JUMP JUMPDEST POP POP POP JUMP JUMPDEST POP POP POP JUMP JUMPDEST PUSH2 0x1676 PUSH2 0x769 JUMP JUMPDEST PUSH2 0x16B5 JUMPI PUSH1 0x40 MLOAD PUSH32 0x8C379A000000000000000000000000000000000000000000000000000000000 DUP2 MSTORE PUSH1 0x4 ADD PUSH2 0x16AC SWAP1 PUSH2 0x255D JUMP JUMPDEST PUSH1 0x40 MLOAD DUP1 SWAP2 SUB SWAP1 REVERT JUMPDEST JUMP JUMPDEST PUSH2 0x16BF PUSH2 0x769 JUMP JUMPDEST ISZERO PUSH2 0x16FF JUMPI PUSH1 0x40 MLOAD PUSH32 0x8C379A000000000000000000000000000000000000000000000000000000000 DUP2 MSTORE PUSH1 0x4 ADD PUSH2 0x16F6 SWAP1 PUSH2 0x25C9 JUMP JUMPDEST PUSH1 0x40 MLOAD DUP1 SWAP2 SUB SWAP1 REVERT JUMPDEST JUMP JUMPDEST POP POP POP JUMP JUMPDEST PUSH1 0x0 DUP2 MLOAD SWAP1 POP SWAP2 SWAP1 POP JUMP JUMPDEST PUSH1 0x0 DUP3 DUP3 MSTORE PUSH1 0x20 DUP3 ADD SWAP1 POP SWAP3 SWAP2 POP POP JUMP JUMPDEST PUSH1 0x0 JUMPDEST DUP4 DUP2 LT ISZERO PUSH2 0x1740 JUMPI DUP1 DUP3 ADD MLOAD DUP2 DUP5 ADD MSTORE PUSH1 0x20 DUP2 ADD SWAP1 POP PUSH2 0x1725 JUMP JUMPDEST DUP4 DUP2 GT ISZERO PUSH2 0x174F JUMPI PUSH1 0x0 DUP5 DUP5 ADD MSTORE JUMPDEST POP POP POP POP JUMP JUMPDEST PUSH1 0x0 PUSH1 0x1F NOT PUSH1 0x1F DUP4 ADD AND SWAP1 POP SWAP2 SWAP1 POP JUMP JUMPDEST PUSH1 0x0 PUSH2 0x1771 DUP3 PUSH2 0x1706 JUMP JUMPDEST PUSH2 0x177B DUP2 DUP6 PUSH2 0x1711 JUMP JUMPDEST SWAP4 POP PUSH2 0x178B DUP2 DUP6 PUSH1 0x20 DUP7 ADD PUSH2 0x1722 JUMP JUMPDEST PUSH2 0x1794 DUP2 PUSH2 0x1755 JUMP JUMPDEST DUP5 ADD SWAP2 POP POP SWAP3 SWAP2 POP POP JUMP JUMPDEST PUSH1 0x0 PUSH1 0x20 DUP3 ADD SWAP1 POP DUP2 DUP2 SUB PUSH1 0x0 DUP4 ADD MSTORE PUSH2 0x17B9 DUP2 DUP5 PUSH2 0x1766 JUMP JUMPDEST SWAP1 POP SWAP3 SWAP2 POP POP JUMP JUMPDEST PUSH1 0x0 DUP1 REVERT JUMPDEST PUSH1 0x0 PUSH20 0xFFFFFFFFFFFFFFFFFFFFFFFFFFFFFFFFFFFFFFFF DUP3 AND SWAP1 POP SWAP2 SWAP1 POP JUMP JUMPDEST PUSH1 0x0 PUSH2 0x17F1 DUP3 PUSH2 0x17C6 JUMP JUMPDEST SWAP1 POP SWAP2 SWAP1 POP JUMP JUMPDEST PUSH2 0x1801 DUP2 PUSH2 0x17E6 JUMP JUMPDEST DUP2 EQ PUSH2 0x180C JUMPI PUSH1 0x0 DUP1 REVERT JUMPDEST POP JUMP JUMPDEST PUSH1 0x0 DUP2 CALLDATALOAD SWAP1 POP PUSH2 0x181E DUP2 PUSH2 0x17F8 JUMP JUMPDEST SWAP3 SWAP2 POP POP JUMP JUMPDEST PUSH1 0x0 DUP2 SWAP1 POP SWAP2 SWAP1 POP JUMP JUMPDEST PUSH2 0x1837 DUP2 PUSH2 0x1824 JUMP JUMPDEST DUP2 EQ PUSH2 0x1842 JUMPI PUSH1 0x0 DUP1 REVERT JUMPDEST POP JUMP JUMPDEST PUSH1 0x0 DUP2 CALLDATALOAD SWAP1 POP PUSH2 0x1854 DUP2 PUSH2 0x182E JUMP JUMPDEST SWAP3 SWAP2 POP POP JUMP JUMPDEST PUSH1 0x0 DUP1 PUSH1 0x40 DUP4 DUP6 SUB SLT ISZERO PUSH2 0x1871 JUMPI PUSH2 0x1870 PUSH2 0x17C1 JUMP JUMPDEST JUMPDEST PUSH1 0x0 PUSH2 0x187F DUP6 DUP3 DUP7 ADD PUSH2 0x180F JUMP JUMPDEST SWAP3 POP POP PUSH1 0x20 PUSH2 0x1890 DUP6 DUP3 DUP7 ADD PUSH2 0x1845 JUMP JUMPDEST SWAP2 POP POP SWAP3 POP SWAP3 SWAP1 POP JUMP JUMPDEST PUSH1 0x0 DUP2 ISZERO ISZERO SWAP1 POP SWAP2 SWAP1 POP JUMP JUMPDEST PUSH2 0x18AF DUP2 PUSH2 0x189A JUMP JUMPDEST DUP3 MSTORE POP POP JUMP JUMPDEST PUSH1 0x0 PUSH1 0x20 DUP3 ADD SWAP1 POP PUSH2 0x18CA PUSH1 0x0 DUP4 ADD DUP5 PUSH2 0x18A6 JUMP JUMPDEST SWAP3 SWAP2 POP POP JUMP JUMPDEST PUSH2 0x18D9 DUP2 PUSH2 0x1824 JUMP JUMPDEST DUP3 MSTORE POP POP JUMP JUMPDEST PUSH1 0x0 PUSH1 0x20 DUP3 ADD SWAP1 POP PUSH2 0x18F4 PUSH1 0x0 DUP4 ADD DUP5 PUSH2 0x18D0 JUMP JUMPDEST SWAP3 SWAP2 POP POP JUMP JUMPDEST PUSH1 0x0 DUP1 PUSH1 0x0 PUSH1 0x60 DUP5 DUP7 SUB SLT ISZERO PUSH2 0x1913 JUMPI PUSH2 0x1912 PUSH2 0x17C1 JUMP JUMPDEST JUMPDEST PUSH1 0x0 PUSH2 0x1921 DUP7 DUP3 DUP8 ADD PUSH2 0x180F JUMP JUMPDEST SWAP4 POP POP PUSH1 0x20 PUSH2 0x1932 DUP7 DUP3 DUP8 ADD PUSH2 0x180F JUMP JUMPDEST SWAP3 POP POP PUSH1 0x40 PUSH2 0x1943 DUP7 DUP3 DUP8 ADD PUSH2 0x1845 JUMP JUMPDEST SWAP2 POP POP SWAP3 POP SWAP3 POP SWAP3 JUMP JUMPDEST PUSH1 0x0 PUSH1 0xFF DUP3 AND SWAP1 POP SWAP2 SWAP1 POP JUMP JUMPDEST PUSH2 0x1963 DUP2 PUSH2 0x194D JUMP JUMPDEST DUP3 MSTORE POP POP JUMP JUMPDEST PUSH1 0x0 PUSH1 0x20 DUP3 ADD SWAP1 POP PUSH2 0x197E PUSH1 0x0 DUP4 ADD DUP5 PUSH2 0x195A JUMP JUMPDEST SWAP3 SWAP2 POP POP JUMP JUMPDEST PUSH1 0x0 PUSH1 0x20 DUP3 DUP5 SUB SLT ISZERO PUSH2 0x199A JUMPI PUSH2 0x1999 PUSH2 0x17C1 JUMP JUMPDEST JUMPDEST PUSH1 0x0 PUSH2 0x19A8 DUP5 DUP3 DUP6 ADD PUSH2 0x1845 JUMP JUMPDEST SWAP2 POP POP SWAP3 SWAP2 POP POP JUMP JUMPDEST PUSH1 0x0 PUSH1 0x20 DUP3 DUP5 SUB SLT ISZERO PUSH2 0x19C7 JUMPI PUSH2 0x19C6 PUSH2 0x17C1 JUMP JUMPDEST JUMPDEST PUSH1 0x0 PUSH2 0x19D5 DUP5 DUP3 DUP6 ADD PUSH2 0x180F JUMP JUMPDEST SWAP2 POP POP SWAP3 SWAP2 POP POP JUMP JUMPDEST PUSH2 0x19E7 DUP2 PUSH2 0x17E6 JUMP JUMPDEST DUP3 MSTORE POP POP JUMP JUMPDEST PUSH1 0x0 PUSH1 0x20 DUP3 ADD SWAP1 POP PUSH2 0x1A02 PUSH1 0x0 DUP4 ADD DUP5 PUSH2 0x19DE JUMP JUMPDEST SWAP3 SWAP2 POP POP JUMP JUMPDEST PUSH1 0x0 DUP1 PUSH1 0x40 DUP4 DUP6 SUB SLT ISZERO PUSH2 0x1A1F JUMPI PUSH2 0x1A1E PUSH2 0x17C1 JUMP JUMPDEST JUMPDEST PUSH1 0x0 PUSH2 0x1A2D DUP6 DUP3 DUP7 ADD PUSH2 0x180F JUMP JUMPDEST SWAP3 POP POP PUSH1 0x20 PUSH2 0x1A3E DUP6 DUP3 DUP7 ADD PUSH2 0x180F JUMP JUMPDEST SWAP2 POP POP SWAP3 POP SWAP3 SWAP1 POP JUMP JUMPDEST PUSH32 0x4E487B7100000000000000000000000000000000000000000000000000000000 PUSH1 0x0 MSTORE PUSH1 0x22 PUSH1 0x4 MSTORE PUSH1 0x24 PUSH1 0x0 REVERT JUMPDEST PUSH1 0x0 PUSH1 0x2 DUP3 DIV SWAP1 POP PUSH1 0x1 DUP3 AND DUP1 PUSH2 0x1A8F JUMPI PUSH1 0x7F DUP3 AND SWAP2 POP JUMPDEST PUSH1 0x20 DUP3 LT DUP2 EQ ISZERO PUSH2 0x1AA3 JUMPI PUSH2 0x1AA2 PUSH2 0x1A48 JUMP JUMPDEST JUMPDEST POP SWAP2 SWAP1 POP JUMP JUMPDEST PUSH32 0x4E487B7100000000000000000000000000000000000000000000000000000000 PUSH1 0x0 MSTORE PUSH1 0x11 PUSH1 0x4 MSTORE PUSH1 0x24 PUSH1 0x0 REVERT JUMPDEST PUSH1 0x0 PUSH2 0x1AE3 DUP3 PUSH2 0x1824 JUMP JUMPDEST SWAP2 POP PUSH2 0x1AEE DUP4 PUSH2 0x1824 JUMP JUMPDEST SWAP3 POP DUP3 PUSH32 0xFFFFFFFFFFFFFFFFFFFFFFFFFFFFFFFFFFFFFFFFFFFFFFFFFFFFFFFFFFFFFFFF SUB DUP3 GT ISZERO PUSH2 0x1B23 JUMPI PUSH2 0x1B22 PUSH2 0x1AA9 JUMP JUMPDEST JUMPDEST DUP3 DUP3 ADD SWAP1 POP SWAP3 SWAP2 POP POP JUMP JUMPDEST PUSH1 0x0 PUSH6 0xFFFFFFFFFFFF DUP3 AND SWAP1 POP SWAP2 SWAP1 POP JUMP JUMPDEST PUSH2 0x1B49 DUP2 PUSH2 0x1B2E JUMP JUMPDEST DUP3 MSTORE POP POP JUMP JUMPDEST PUSH1 0x0 PUSH1 0x40 DUP3 ADD SWAP1 POP PUSH2 0x1B64 PUSH1 0x0 DUP4 ADD DUP6 PUSH2 0x19DE JUMP JUMPDEST PUSH2 0x1B71 PUSH1 0x20 DUP4 ADD DUP5 PUSH2 0x1B40 JUMP JUMPDEST SWAP4 SWAP3 POP POP POP JUMP JUMPDEST PUSH2 0x1B81 DUP2 PUSH2 0x189A JUMP JUMPDEST DUP2 EQ PUSH2 0x1B8C JUMPI PUSH1 0x0 DUP1 REVERT JUMPDEST POP JUMP JUMPDEST PUSH1 0x0 DUP2 MLOAD SWAP1 POP PUSH2 0x1B9E DUP2 PUSH2 0x1B78 JUMP JUMPDEST SWAP3 SWAP2 POP POP JUMP JUMPDEST PUSH1 0x0 PUSH1 0x20 DUP3 DUP5 SUB SLT ISZERO PUSH2 0x1BBA JUMPI PUSH2 0x1BB9 PUSH2 0x17C1 JUMP JUMPDEST JUMPDEST PUSH1 0x0 PUSH2 0x1BC8 DUP5 DUP3 DUP6 ADD PUSH2 0x1B8F JUMP JUMPDEST SWAP2 POP POP SWAP3 SWAP2 POP POP JUMP JUMPDEST PUSH32 0x55736572206973206E6F7420617070726F76656420746F206D696E74206D6F6E PUSH1 0x0 DUP3 ADD MSTORE PUSH32 0x6579000000000000000000000000000000000000000000000000000000000000 PUSH1 0x20 DUP3 ADD MSTORE POP JUMP JUMPDEST PUSH1 0x0 PUSH2 0x1C2D PUSH1 0x22 DUP4 PUSH2 0x1711 JUMP JUMPDEST SWAP2 POP PUSH2 0x1C38 DUP3 PUSH2 0x1BD1 JUMP JUMPDEST PUSH1 0x40 DUP3 ADD SWAP1 POP SWAP2 SWAP1 POP JUMP JUMPDEST PUSH1 0x0 PUSH1 0x20 DUP3 ADD SWAP1 POP DUP2 DUP2 SUB PUSH1 0x0 DUP4 ADD MSTORE PUSH2 0x1C5C DUP2 PUSH2 0x1C20 JUMP JUMPDEST SWAP1 POP SWAP2 SWAP1 POP JUMP JUMPDEST PUSH32 0x52656365697665722061646472657373206973206E6F7420616E20617070726F PUSH1 0x0 DUP3 ADD MSTORE PUSH32 0x76656420617373657420686F6C64657200000000000000000000000000000000 PUSH1 0x20 DUP3 ADD MSTORE POP JUMP JUMPDEST PUSH1 0x0 PUSH2 0x1CBF PUSH1 0x30 DUP4 PUSH2 0x1711 JUMP JUMPDEST SWAP2 POP PUSH2 0x1CCA DUP3 PUSH2 0x1C63 JUMP JUMPDEST PUSH1 0x40 DUP3 ADD SWAP1 POP SWAP2 SWAP1 POP JUMP JUMPDEST PUSH1 0x0 PUSH1 0x20 DUP3 ADD SWAP1 POP DUP2 DUP2 SUB PUSH1 0x0 DUP4 ADD MSTORE PUSH2 0x1CEE DUP2 PUSH2 0x1CB2 JUMP JUMPDEST SWAP1 POP SWAP2 SWAP1 POP JUMP JUMPDEST PUSH32 0x54686520616D6F7574206F66206D6F6E657920746F206265206D696E74656420 PUSH1 0x0 DUP3 ADD MSTORE PUSH32 0x6861766520746F2062652067726561746572207468616E203000000000000000 PUSH1 0x20 DUP3 ADD MSTORE POP JUMP JUMPDEST PUSH1 0x0 PUSH2 0x1D51 PUSH1 0x39 DUP4 PUSH2 0x1711 JUMP JUMPDEST SWAP2 POP PUSH2 0x1D5C DUP3 PUSH2 0x1CF5 JUMP JUMPDEST PUSH1 0x40 DUP3 ADD SWAP1 POP SWAP2 SWAP1 POP JUMP JUMPDEST PUSH1 0x0 PUSH1 0x20 DUP3 ADD SWAP1 POP DUP2 DUP2 SUB PUSH1 0x0 DUP4 ADD MSTORE PUSH2 0x1D80 DUP2 PUSH2 0x1D44 JUMP JUMPDEST SWAP1 POP SWAP2 SWAP1 POP JUMP JUMPDEST PUSH32 0x4275726E20616D6F756E742069732067726561746572207468616E2074686520 PUSH1 0x0 DUP3 ADD MSTORE PUSH32 0x6465626974206163636F756E742062616C6C616E636500000000000000000000 PUSH1 0x20 DUP3 ADD MSTORE POP JUMP JUMPDEST PUSH1 0x0 PUSH2 0x1DE3 PUSH1 0x36 DUP4 PUSH2 0x1711 JUMP JUMPDEST SWAP2 POP PUSH2 0x1DEE DUP3 PUSH2 0x1D87 JUMP JUMPDEST PUSH1 0x40 DUP3 ADD SWAP1 POP SWAP2 SWAP1 POP JUMP JUMPDEST PUSH1 0x0 PUSH1 0x20 DUP3 ADD SWAP1 POP DUP2 DUP2 SUB PUSH1 0x0 DUP4 ADD MSTORE PUSH2 0x1E12 DUP2 PUSH2 0x1DD6 JUMP JUMPDEST SWAP1 POP SWAP2 SWAP1 POP JUMP JUMPDEST PUSH32 0x45524332303A2064656372656173656420616C6C6F77616E63652062656C6F77 PUSH1 0x0 DUP3 ADD MSTORE PUSH32 0x207A65726F000000000000000000000000000000000000000000000000000000 PUSH1 0x20 DUP3 ADD MSTORE POP JUMP JUMPDEST PUSH1 0x0 PUSH2 0x1E75 PUSH1 0x25 DUP4 PUSH2 0x1711 JUMP JUMPDEST SWAP2 POP PUSH2 0x1E80 DUP3 PUSH2 0x1E19 JUMP JUMPDEST PUSH1 0x40 DUP3 ADD SWAP1 POP SWAP2 SWAP1 POP JUMP JUMPDEST PUSH1 0x0 PUSH1 0x20 DUP3 ADD SWAP1 POP DUP2 DUP2 SUB PUSH1 0x0 DUP4 ADD MSTORE PUSH2 0x1EA4 DUP2 PUSH2 0x1E68 JUMP JUMPDEST SWAP1 POP SWAP2 SWAP1 POP JUMP JUMPDEST PUSH32 0x4F776E61626C653A206E6577206F776E657220697320746865207A65726F2061 PUSH1 0x0 DUP3 ADD MSTORE PUSH32 0x6464726573730000000000000000000000000000000000000000000000000000 PUSH1 0x20 DUP3 ADD MSTORE POP JUMP JUMPDEST PUSH1 0x0 PUSH2 0x1F07 PUSH1 0x26 DUP4 PUSH2 0x1711 JUMP JUMPDEST SWAP2 POP PUSH2 0x1F12 DUP3 PUSH2 0x1EAB JUMP JUMPDEST PUSH1 0x40 DUP3 ADD SWAP1 POP SWAP2 SWAP1 POP JUMP JUMPDEST PUSH1 0x0 PUSH1 0x20 DUP3 ADD SWAP1 POP DUP2 DUP2 SUB PUSH1 0x0 DUP4 ADD MSTORE PUSH2 0x1F36 DUP2 PUSH2 0x1EFA JUMP JUMPDEST SWAP1 POP SWAP2 SWAP1 POP JUMP JUMPDEST PUSH32 0x45524332303A20617070726F76652066726F6D20746865207A65726F20616464 PUSH1 0x0 DUP3 ADD MSTORE PUSH32 0x7265737300000000000000000000000000000000000000000000000000000000 PUSH1 0x20 DUP3 ADD MSTORE POP JUMP JUMPDEST PUSH1 0x0 PUSH2 0x1F99 PUSH1 0x24 DUP4 PUSH2 0x1711 JUMP JUMPDEST SWAP2 POP PUSH2 0x1FA4 DUP3 PUSH2 0x1F3D JUMP JUMPDEST PUSH1 0x40 DUP3 ADD SWAP1 POP SWAP2 SWAP1 POP JUMP JUMPDEST PUSH1 0x0 PUSH1 0x20 DUP3 ADD SWAP1 POP DUP2 DUP2 SUB PUSH1 0x0 DUP4 ADD MSTORE PUSH2 0x1FC8 DUP2 PUSH2 0x1F8C JUMP JUMPDEST SWAP1 POP SWAP2 SWAP1 POP JUMP JUMPDEST PUSH32 0x45524332303A20617070726F766520746F20746865207A65726F206164647265 PUSH1 0x0 DUP3 ADD MSTORE PUSH32 0x7373000000000000000000000000000000000000000000000000000000000000 PUSH1 0x20 DUP3 ADD MSTORE POP JUMP JUMPDEST PUSH1 0x0 PUSH2 0x202B PUSH1 0x22 DUP4 PUSH2 0x1711 JUMP JUMPDEST SWAP2 POP PUSH2 0x2036 DUP3 PUSH2 0x1FCF JUMP JUMPDEST PUSH1 0x40 DUP3 ADD SWAP1 POP SWAP2 SWAP1 POP JUMP JUMPDEST PUSH1 0x0 PUSH1 0x20 DUP3 ADD SWAP1 POP DUP2 DUP2 SUB PUSH1 0x0 DUP4 ADD MSTORE PUSH2 0x205A DUP2 PUSH2 0x201E JUMP JUMPDEST SWAP1 POP SWAP2 SWAP1 POP JUMP JUMPDEST PUSH32 0x45524332303A20696E73756666696369656E7420616C6C6F77616E6365000000 PUSH1 0x0 DUP3 ADD MSTORE POP JUMP JUMPDEST PUSH1 0x0 PUSH2 0x2097 PUSH1 0x1D DUP4 PUSH2 0x1711 JUMP JUMPDEST SWAP2 POP PUSH2 0x20A2 DUP3 PUSH2 0x2061 JUMP JUMPDEST PUSH1 0x20 DUP3 ADD SWAP1 POP SWAP2 SWAP1 POP JUMP JUMPDEST PUSH1 0x0 PUSH1 0x20 DUP3 ADD SWAP1 POP DUP2 DUP2 SUB PUSH1 0x0 DUP4 ADD MSTORE PUSH2 0x20C6 DUP2 PUSH2 0x208A JUMP JUMPDEST SWAP1 POP SWAP2 SWAP1 POP JUMP JUMPDEST PUSH32 0x45524332303A207472616E736665722066726F6D20746865207A65726F206164 PUSH1 0x0 DUP3 ADD MSTORE PUSH32 0x6472657373000000000000000000000000000000000000000000000000000000 PUSH1 0x20 DUP3 ADD MSTORE POP JUMP JUMPDEST PUSH1 0x0 PUSH2 0x2129 PUSH1 0x25 DUP4 PUSH2 0x1711 JUMP JUMPDEST SWAP2 POP PUSH2 0x2134 DUP3 PUSH2 0x20CD JUMP JUMPDEST PUSH1 0x40 DUP3 ADD SWAP1 POP SWAP2 SWAP1 POP JUMP JUMPDEST PUSH1 0x0 PUSH1 0x20 DUP3 ADD SWAP1 POP DUP2 DUP2 SUB PUSH1 0x0 DUP4 ADD MSTORE PUSH2 0x2158 DUP2 PUSH2 0x211C JUMP JUMPDEST SWAP1 POP SWAP2 SWAP1 POP JUMP JUMPDEST PUSH32 0x45524332303A207472616E7366657220746F20746865207A65726F2061646472 PUSH1 0x0 DUP3 ADD MSTORE PUSH32 0x6573730000000000000000000000000000000000000000000000000000000000 PUSH1 0x20 DUP3 ADD MSTORE POP JUMP JUMPDEST PUSH1 0x0 PUSH2 0x21BB PUSH1 0x23 DUP4 PUSH2 0x1711 JUMP JUMPDEST SWAP2 POP PUSH2 0x21C6 DUP3 PUSH2 0x215F JUMP JUMPDEST PUSH1 0x40 DUP3 ADD SWAP1 POP SWAP2 SWAP1 POP JUMP JUMPDEST PUSH1 0x0 PUSH1 0x20 DUP3 ADD SWAP1 POP DUP2 DUP2 SUB PUSH1 0x0 DUP4 ADD MSTORE PUSH2 0x21EA DUP2 PUSH2 0x21AE JUMP JUMPDEST SWAP1 POP SWAP2 SWAP1 POP JUMP JUMPDEST PUSH32 0x45524332303A207472616E7366657220616D6F756E7420657863656564732062 PUSH1 0x0 DUP3 ADD MSTORE PUSH32 0x616C616E63650000000000000000000000000000000000000000000000000000 PUSH1 0x20 DUP3 ADD MSTORE POP JUMP JUMPDEST PUSH1 0x0 PUSH2 0x224D PUSH1 0x26 DUP4 PUSH2 0x1711 JUMP JUMPDEST SWAP2 POP PUSH2 0x2258 DUP3 PUSH2 0x21F1 JUMP JUMPDEST PUSH1 0x40 DUP3 ADD SWAP1 POP SWAP2 SWAP1 POP JUMP JUMPDEST PUSH1 0x0 PUSH1 0x20 DUP3 ADD SWAP1 POP DUP2 DUP2 SUB PUSH1 0x0 DUP4 ADD MSTORE PUSH2 0x227C DUP2 PUSH2 0x2240 JUMP JUMPDEST SWAP1 POP SWAP2 SWAP1 POP JUMP JUMPDEST PUSH32 0x4F776E61626C653A2063616C6C6572206973206E6F7420746865206F776E6572 PUSH1 0x0 DUP3 ADD MSTORE POP JUMP JUMPDEST PUSH1 0x0 PUSH2 0x22B9 PUSH1 0x20 DUP4 PUSH2 0x1711 JUMP JUMPDEST SWAP2 POP PUSH2 0x22C4 DUP3 PUSH2 0x2283 JUMP JUMPDEST PUSH1 0x20 DUP3 ADD SWAP1 POP SWAP2 SWAP1 POP JUMP JUMPDEST PUSH1 0x0 PUSH1 0x20 DUP3 ADD SWAP1 POP DUP2 DUP2 SUB PUSH1 0x0 DUP4 ADD MSTORE PUSH2 0x22E8 DUP2 PUSH2 0x22AC JUMP JUMPDEST SWAP1 POP SWAP2 SWAP1 POP JUMP JUMPDEST PUSH32 0x45524332303A206D696E7420746F20746865207A65726F206164647265737300 PUSH1 0x0 DUP3 ADD MSTORE POP JUMP JUMPDEST PUSH1 0x0 PUSH2 0x2325 PUSH1 0x1F DUP4 PUSH2 0x1711 JUMP JUMPDEST SWAP2 POP PUSH2 0x2330 DUP3 PUSH2 0x22EF JUMP JUMPDEST PUSH1 0x20 DUP3 ADD SWAP1 POP SWAP2 SWAP1 POP JUMP JUMPDEST PUSH1 0x0 PUSH1 0x20 DUP3 ADD SWAP1 POP DUP2 DUP2 SUB PUSH1 0x0 DUP4 ADD MSTORE PUSH2 0x2354 DUP2 PUSH2 0x2318 JUMP JUMPDEST SWAP1 POP SWAP2 SWAP1 POP JUMP JUMPDEST PUSH32 0x45524332303A206275726E2066726F6D20746865207A65726F20616464726573 PUSH1 0x0 DUP3 ADD MSTORE PUSH32 0x7300000000000000000000000000000000000000000000000000000000000000 PUSH1 0x20 DUP3 ADD MSTORE POP JUMP JUMPDEST PUSH1 0x0 PUSH2 0x23B7 PUSH1 0x21 DUP4 PUSH2 0x1711 JUMP JUMPDEST SWAP2 POP PUSH2 0x23C2 DUP3 PUSH2 0x235B JUMP JUMPDEST PUSH1 0x40 DUP3 ADD SWAP1 POP SWAP2 SWAP1 POP JUMP JUMPDEST PUSH1 0x0 PUSH1 0x20 DUP3 ADD SWAP1 POP DUP2 DUP2 SUB PUSH1 0x0 DUP4 ADD MSTORE PUSH2 0x23E6 DUP2 PUSH2 0x23AA JUMP JUMPDEST SWAP1 POP SWAP2 SWAP1 POP JUMP JUMPDEST PUSH32 0x45524332303A206275726E20616D6F756E7420657863656564732062616C616E PUSH1 0x0 DUP3 ADD MSTORE PUSH32 0x6365000000000000000000000000000000000000000000000000000000000000 PUSH1 0x20 DUP3 ADD MSTORE POP JUMP JUMPDEST PUSH1 0x0 PUSH2 0x2449 PUSH1 0x22 DUP4 PUSH2 0x1711 JUMP JUMPDEST SWAP2 POP PUSH2 0x2454 DUP3 PUSH2 0x23ED JUMP JUMPDEST PUSH1 0x40 DUP3 ADD SWAP1 POP SWAP2 SWAP1 POP JUMP JUMPDEST PUSH1 0x0 PUSH1 0x20 DUP3 ADD SWAP1 POP DUP2 DUP2 SUB PUSH1 0x0 DUP4 ADD MSTORE PUSH2 0x2478 DUP2 PUSH2 0x243C JUMP JUMPDEST SWAP1 POP SWAP2 SWAP1 POP JUMP JUMPDEST PUSH32 0x5472616E7366657220616D6F756E742069732067726561746572207468616E20 PUSH1 0x0 DUP3 ADD MSTORE PUSH32 0x746865206465626974206163636F756E742062616C6C616E6365000000000000 PUSH1 0x20 DUP3 ADD MSTORE POP JUMP JUMPDEST PUSH1 0x0 PUSH2 0x24DB PUSH1 0x3A DUP4 PUSH2 0x1711 JUMP JUMPDEST SWAP2 POP PUSH2 0x24E6 DUP3 PUSH2 0x247F JUMP JUMPDEST PUSH1 0x40 DUP3 ADD SWAP1 POP SWAP2 SWAP1 POP JUMP JUMPDEST PUSH1 0x0 PUSH1 0x20 DUP3 ADD SWAP1 POP DUP2 DUP2 SUB PUSH1 0x0 DUP4 ADD MSTORE PUSH2 0x250A DUP2 PUSH2 0x24CE JUMP JUMPDEST SWAP1 POP SWAP2 SWAP1 POP JUMP JUMPDEST PUSH32 0x5061757361626C653A206E6F7420706175736564000000000000000000000000 PUSH1 0x0 DUP3 ADD MSTORE POP JUMP JUMPDEST PUSH1 0x0 PUSH2 0x2547 PUSH1 0x14 DUP4 PUSH2 0x1711 JUMP JUMPDEST SWAP2 POP PUSH2 0x2552 DUP3 PUSH2 0x2511 JUMP JUMPDEST PUSH1 0x20 DUP3 ADD SWAP1 POP SWAP2 SWAP1 POP JUMP JUMPDEST PUSH1 0x0 PUSH1 0x20 DUP3 ADD SWAP1 POP DUP2 DUP2 SUB PUSH1 0x0 DUP4 ADD MSTORE PUSH2 0x2576 DUP2 PUSH2 0x253A JUMP JUMPDEST SWAP1 POP SWAP2 SWAP1 POP JUMP JUMPDEST PUSH32 0x5061757361626C653A2070617573656400000000000000000000000000000000 PUSH1 0x0 DUP3 ADD MSTORE POP JUMP JUMPDEST PUSH1 0x0 PUSH2 0x25B3 PUSH1 0x10 DUP4 PUSH2 0x1711 JUMP JUMPDEST SWAP2 POP PUSH2 0x25BE DUP3 PUSH2 0x257D JUMP JUMPDEST PUSH1 0x20 DUP3 ADD SWAP1 POP SWAP2 SWAP1 POP JUMP JUMPDEST PUSH1 0x0 PUSH1 0x20 DUP3 ADD SWAP1 POP DUP2 DUP2 SUB PUSH1 0x0 DUP4 ADD MSTORE PUSH2 0x25E2 DUP2 PUSH2 0x25A6 JUMP JUMPDEST SWAP1 POP SWAP2 SWAP1 POP JUMP INVALID LOG2 PUSH5 0x6970667358 0x22 SLT KECCAK256 RETURNDATASIZE PUSH26 0x5FE5D266CA07556F8E75F93F76D6654A9772E1C56524C4A4F82A DUP8 0x4A 0xD1 0xBD PUSH5 0x736F6C6343 STOP ADDMOD MULMOD STOP CALLER "
				},
				"gasEstimates": {
					"creation": {
						"codeDepositCost": "1951800",
						"executionCost": "infinite",
						"totalCost": "infinite"
					},
					"external": {
						"allowance(address,address)": "infinite",
						"approve(address,uint256)": "infinite",
						"balanceOf(address)": "2864",
						"burn(address,uint256)": "infinite",
						"burn(uint256)": "infinite",
						"burnFrom(address,uint256)": "infinite",
						"decimals()": "455",
						"decreaseAllowance(address,uint256)": "infinite",
						"increaseAllowance(address,uint256)": "infinite",
						"mint(address,uint256)": "infinite",
						"name()": "infinite",
						"owner()": "2683",
						"pause()": "infinite",
						"paused()": "2590",
						"renounceOwnership()": "30593",
						"symbol()": "infinite",
						"totalSupply()": "2505",
						"transfer(address,uint256)": "infinite",
						"transferFrom(address,address,uint256)": "infinite",
						"transferOwnership(address)": "31029",
						"unpause()": "infinite"
					},
					"internal": {
						"_beforeTokenTransfer(address,address,uint256)": "infinite"
					}
				},
				"methodIdentifiers": {
					"allowance(address,address)": "dd62ed3e",
					"approve(address,uint256)": "095ea7b3",
					"balanceOf(address)": "70a08231",
					"burn(address,uint256)": "9dc29fac",
					"burn(uint256)": "42966c68",
					"burnFrom(address,uint256)": "79cc6790",
					"decimals()": "313ce567",
					"decreaseAllowance(address,uint256)": "a457c2d7",
					"increaseAllowance(address,uint256)": "39509351",
					"mint(address,uint256)": "40c10f19",
					"name()": "06fdde03",
					"owner()": "8da5cb5b",
					"pause()": "8456cb59",
					"paused()": "5c975abb",
					"renounceOwnership()": "715018a6",
					"symbol()": "95d89b41",
					"totalSupply()": "18160ddd",
					"transfer(address,uint256)": "a9059cbb",
					"transferFrom(address,address,uint256)": "23b872dd",
					"transferOwnership(address)": "f2fde38b",
					"unpause()": "3f4ba83a"
				}
			},
			"storageLayout": {
				"storage": [
					{
						"astId": 236,
						"contract": "contracts/MyCashToken.sol:MyCashToken",
						"label": "_balances",
						"offset": 0,
						"slot": "0",
						"type": "t_mapping(t_address,t_uint256)"
					},
					{
						"astId": 242,
						"contract": "contracts/MyCashToken.sol:MyCashToken",
						"label": "_allowances",
						"offset": 0,
						"slot": "1",
						"type": "t_mapping(t_address,t_mapping(t_address,t_uint256))"
					},
					{
						"astId": 244,
						"contract": "contracts/MyCashToken.sol:MyCashToken",
						"label": "_totalSupply",
						"offset": 0,
						"slot": "2",
						"type": "t_uint256"
					},
					{
						"astId": 246,
						"contract": "contracts/MyCashToken.sol:MyCashToken",
						"label": "_name",
						"offset": 0,
						"slot": "3",
						"type": "t_string_storage"
					},
					{
						"astId": 248,
						"contract": "contracts/MyCashToken.sol:MyCashToken",
						"label": "_symbol",
						"offset": 0,
						"slot": "4",
						"type": "t_string_storage"
					},
					{
						"astId": 130,
						"contract": "contracts/MyCashToken.sol:MyCashToken",
						"label": "_paused",
						"offset": 0,
						"slot": "5",
						"type": "t_bool"
					},
					{
						"astId": 7,
						"contract": "contracts/MyCashToken.sol:MyCashToken",
						"label": "_owner",
						"offset": 1,
						"slot": "5",
						"type": "t_address"
					},
					{
						"astId": 1101,
						"contract": "contracts/MyCashToken.sol:MyCashToken",
						"label": "rights",
						"offset": 0,
						"slot": "6",
						"type": "t_contract(MembershipRights)1083"
					}
				],
				"types": {
					"t_address": {
						"encoding": "inplace",
						"label": "address",
						"numberOfBytes": "20"
					},
					"t_bool": {
						"encoding": "inplace",
						"label": "bool",
						"numberOfBytes": "1"
					},
					"t_contract(MembershipRights)1083": {
						"encoding": "inplace",
						"label": "contract MembershipRights",
						"numberOfBytes": "20"
					},
					"t_mapping(t_address,t_mapping(t_address,t_uint256))": {
						"encoding": "mapping",
						"key": "t_address",
						"label": "mapping(address => mapping(address => uint256))",
						"numberOfBytes": "32",
						"value": "t_mapping(t_address,t_uint256)"
					},
					"t_mapping(t_address,t_uint256)": {
						"encoding": "mapping",
						"key": "t_address",
						"label": "mapping(address => uint256)",
						"numberOfBytes": "32",
						"value": "t_uint256"
					},
					"t_string_storage": {
						"encoding": "bytes",
						"label": "string",
						"numberOfBytes": "32"
					},
					"t_uint256": {
						"encoding": "inplace",
						"label": "uint256",
						"numberOfBytes": "32"
					}
				}
			},
			"userdoc": {
				"kind": "user",
				"methods": {},
				"version": 1
			}
		}
	}
}