{
	"contracts/MembershipRights.sol": {
		"MembershipRights": {
			"abi": [
				{
					"inputs": [],
					"stateMutability": "nonpayable",
					"type": "constructor"
				},
				{
					"inputs": [
						{
							"internalType": "address",
							"name": "usr",
							"type": "address"
						},
						{
							"internalType": "uint48",
							"name": "role",
							"type": "uint48"
						}
					],
					"name": "hasRights",
					"outputs": [
						{
							"internalType": "bool",
							"name": "",
							"type": "bool"
						}
					],
					"stateMutability": "view",
					"type": "function"
				},
				{
					"inputs": [
						{
							"internalType": "address",
							"name": "_usr",
							"type": "address"
						},
						{
							"internalType": "uint48",
							"name": "_role",
							"type": "uint48"
						}
					],
					"name": "setMemberRigts",
					"outputs": [],
					"stateMutability": "nonpayable",
					"type": "function"
				},
				{
					"inputs": [
						{
							"internalType": "address[]",
							"name": "_usr",
							"type": "address[]"
						},
						{
							"internalType": "uint48",
							"name": "_role",
							"type": "uint48"
						}
					],
					"name": "updateMembersRigts",
					"outputs": [],
					"stateMutability": "nonpayable",
					"type": "function"
				}
			],
			"devdoc": {
				"kind": "dev",
				"methods": {},
				"version": 1
			},
			"evm": {
				"assembly": "    /* \"contracts/MembershipRights.sol\":182:917  contract MembershipRights {... */\n  mstore(0x40, 0x80)\n    /* \"contracts/MembershipRights.sol\":259:324  constructor() {... */\n  callvalue\n  dup1\n  iszero\n  tag_1\n  jumpi\n  0x00\n  dup1\n  revert\ntag_1:\n  pop\n    /* \"contracts/MembershipRights.sol\":174:177  0x4 */\n  0x04\n    /* \"contracts/MembershipRights.sol\":284:291  members */\n  0x00\n    /* \"contracts/MembershipRights.sol\":284:303  members[msg.sender] */\n  dup1\n    /* \"contracts/MembershipRights.sol\":292:302  msg.sender */\n  caller\n    /* \"contracts/MembershipRights.sol\":284:303  members[msg.sender] */\n  0xffffffffffffffffffffffffffffffffffffffff\n  and\n  0xffffffffffffffffffffffffffffffffffffffff\n  and\n  dup2\n  mstore\n  0x20\n  add\n  swap1\n  dup2\n  mstore\n  0x20\n  add\n  0x00\n  keccak256\n  0x00\n    /* \"contracts/MembershipRights.sol\":284:316  members[msg.sender] = LIST_ADMIN */\n  0x0100\n  exp\n  dup2\n  sload\n  dup2\n  0xffffffffffff\n  mul\n  not\n  and\n  swap1\n  dup4\n  0xffffffffffff\n  and\n  mul\n  or\n  swap1\n  sstore\n  pop\n    /* \"contracts/MembershipRights.sol\":182:917  contract MembershipRights {... */\n  dataSize(sub_0)\n  dup1\n  dataOffset(sub_0)\n  0x00\n  codecopy\n  0x00\n  return\nstop\n\nsub_0: assembly {\n        /* \"contracts/MembershipRights.sol\":182:917  contract MembershipRights {... */\n      mstore(0x40, 0x80)\n      callvalue\n      dup1\n      iszero\n      tag_1\n      jumpi\n      0x00\n      dup1\n      revert\n    tag_1:\n      pop\n      jumpi(tag_2, lt(calldatasize, 0x04))\n      shr(0xe0, calldataload(0x00))\n      dup1\n      0x6d72aab3\n      eq\n      tag_3\n      jumpi\n      dup1\n      0xd10b791c\n      eq\n      tag_4\n      jumpi\n      dup1\n      0xf35f0f74\n      eq\n      tag_5\n      jumpi\n    tag_2:\n      0x00\n      dup1\n      revert\n        /* \"contracts/MembershipRights.sol\":330:509  function setMemberRigts(address _usr, uint48 _role) public {... */\n    tag_3:\n      tag_6\n      0x04\n      dup1\n      calldatasize\n      sub\n      dup2\n      add\n      swap1\n      tag_7\n      swap2\n      swap1\n      tag_8\n      jump\t// in\n    tag_7:\n      tag_9\n      jump\t// in\n    tag_6:\n      stop\n        /* \"contracts/MembershipRights.sol\":519:777  function updateMembersRigts(address[] memory _usr, uint48 _role) public {... */\n    tag_4:\n      tag_10\n      0x04\n      dup1\n      calldatasize\n      sub\n      dup2\n      add\n      swap1\n      tag_11\n      swap2\n      swap1\n      tag_12\n      jump\t// in\n    tag_11:\n      tag_13\n      jump\t// in\n    tag_10:\n      stop\n        /* \"contracts/MembershipRights.sol\":787:910  function hasRights(address usr, uint48 role) public view returns(bool){... */\n    tag_5:\n      tag_14\n      0x04\n      dup1\n      calldatasize\n      sub\n      dup2\n      add\n      swap1\n      tag_15\n      swap2\n      swap1\n      tag_8\n      jump\t// in\n    tag_15:\n      tag_16\n      jump\t// in\n    tag_14:\n      mload(0x40)\n      tag_17\n      swap2\n      swap1\n      tag_18\n      jump\t// in\n    tag_17:\n      mload(0x40)\n      dup1\n      swap2\n      sub\n      swap1\n      return\n        /* \"contracts/MembershipRights.sol\":330:509  function setMemberRigts(address _usr, uint48 _role) public {... */\n    tag_9:\n        /* \"contracts/MembershipRights.sol\":408:441  hasRights(msg.sender, LIST_ADMIN) */\n      tag_20\n        /* \"contracts/MembershipRights.sol\":418:428  msg.sender */\n      caller\n        /* \"contracts/MembershipRights.sol\":174:177  0x4 */\n      0x04\n        /* \"contracts/MembershipRights.sol\":408:417  hasRights */\n      tag_16\n        /* \"contracts/MembershipRights.sol\":408:441  hasRights(msg.sender, LIST_ADMIN) */\n      jump\t// in\n    tag_20:\n        /* \"contracts/MembershipRights.sol\":400:469  require(hasRights(msg.sender, LIST_ADMIN), \"Not an RightsList admin\") */\n      tag_21\n      jumpi\n      mload(0x40)\n      0x08c379a000000000000000000000000000000000000000000000000000000000\n      dup2\n      mstore\n      0x04\n      add\n      tag_22\n      swap1\n      tag_23\n      jump\t// in\n    tag_22:\n      mload(0x40)\n      dup1\n      swap2\n      sub\n      swap1\n      revert\n    tag_21:\n        /* \"contracts/MembershipRights.sol\":496:501  _role */\n      dup1\n        /* \"contracts/MembershipRights.sol\":480:487  members */\n      0x00\n        /* \"contracts/MembershipRights.sol\":480:493  members[_usr] */\n      dup1\n        /* \"contracts/MembershipRights.sol\":488:492  _usr */\n      dup5\n        /* \"contracts/MembershipRights.sol\":480:493  members[_usr] */\n      0xffffffffffffffffffffffffffffffffffffffff\n      and\n      0xffffffffffffffffffffffffffffffffffffffff\n      and\n      dup2\n      mstore\n      0x20\n      add\n      swap1\n      dup2\n      mstore\n      0x20\n      add\n      0x00\n      keccak256\n      0x00\n        /* \"contracts/MembershipRights.sol\":480:501  members[_usr] = _role */\n      0x0100\n      exp\n      dup2\n      sload\n      dup2\n      0xffffffffffff\n      mul\n      not\n      and\n      swap1\n      dup4\n      0xffffffffffff\n      and\n      mul\n      or\n      swap1\n      sstore\n      pop\n        /* \"contracts/MembershipRights.sol\":330:509  function setMemberRigts(address _usr, uint48 _role) public {... */\n      pop\n      pop\n      jump\t// out\n        /* \"contracts/MembershipRights.sol\":519:777  function updateMembersRigts(address[] memory _usr, uint48 _role) public {... */\n    tag_13:\n        /* \"contracts/MembershipRights.sol\":610:643  hasRights(msg.sender, LIST_ADMIN) */\n      tag_25\n        /* \"contracts/MembershipRights.sol\":620:630  msg.sender */\n      caller\n        /* \"contracts/MembershipRights.sol\":174:177  0x4 */\n      0x04\n        /* \"contracts/MembershipRights.sol\":610:619  hasRights */\n      tag_16\n        /* \"contracts/MembershipRights.sol\":610:643  hasRights(msg.sender, LIST_ADMIN) */\n      jump\t// in\n    tag_25:\n        /* \"contracts/MembershipRights.sol\":602:671  require(hasRights(msg.sender, LIST_ADMIN), \"Not an RightsList admin\") */\n      tag_26\n      jumpi\n      mload(0x40)\n      0x08c379a000000000000000000000000000000000000000000000000000000000\n      dup2\n      mstore\n      0x04\n      add\n      tag_27\n      swap1\n      tag_23\n      jump\t// in\n    tag_27:\n      mload(0x40)\n      dup1\n      swap2\n      sub\n      swap1\n      revert\n    tag_26:\n        /* \"contracts/MembershipRights.sol\":686:692  uint i */\n      0x00\n        /* \"contracts/MembershipRights.sol\":682:770  for(uint i=0; i < _usr.length; i++) {... */\n    tag_28:\n        /* \"contracts/MembershipRights.sol\":700:704  _usr */\n      dup3\n        /* \"contracts/MembershipRights.sol\":700:711  _usr.length */\n      mload\n        /* \"contracts/MembershipRights.sol\":696:697  i */\n      dup2\n        /* \"contracts/MembershipRights.sol\":696:711  i < _usr.length */\n      lt\n        /* \"contracts/MembershipRights.sol\":682:770  for(uint i=0; i < _usr.length; i++) {... */\n      iszero\n      tag_29\n      jumpi\n        /* \"contracts/MembershipRights.sol\":753:758  _role */\n      dup2\n        /* \"contracts/MembershipRights.sol\":733:740  members */\n      0x00\n        /* \"contracts/MembershipRights.sol\":733:749  members[_usr[i]] */\n      dup1\n        /* \"contracts/MembershipRights.sol\":741:745  _usr */\n      dup6\n        /* \"contracts/MembershipRights.sol\":746:747  i */\n      dup5\n        /* \"contracts/MembershipRights.sol\":741:748  _usr[i] */\n      dup2\n      mload\n      dup2\n      lt\n      tag_31\n      jumpi\n      tag_32\n      tag_33\n      jump\t// in\n    tag_32:\n    tag_31:\n      0x20\n      mul\n      0x20\n      add\n      add\n      mload\n        /* \"contracts/MembershipRights.sol\":733:749  members[_usr[i]] */\n      0xffffffffffffffffffffffffffffffffffffffff\n      and\n      0xffffffffffffffffffffffffffffffffffffffff\n      and\n      dup2\n      mstore\n      0x20\n      add\n      swap1\n      dup2\n      mstore\n      0x20\n      add\n      0x00\n      keccak256\n      0x00\n        /* \"contracts/MembershipRights.sol\":733:758  members[_usr[i]] |= _role */\n      dup3\n      dup3\n      dup3\n      swap1\n      sload\n      swap1\n      0x0100\n      exp\n      swap1\n      div\n      0xffffffffffff\n      and\n      or\n      swap3\n      pop\n      0x0100\n      exp\n      dup2\n      sload\n      dup2\n      0xffffffffffff\n      mul\n      not\n      and\n      swap1\n      dup4\n      0xffffffffffff\n      and\n      mul\n      or\n      swap1\n      sstore\n      pop\n        /* \"contracts/MembershipRights.sol\":713:716  i++ */\n      dup1\n      dup1\n      tag_34\n      swap1\n      tag_35\n      jump\t// in\n    tag_34:\n      swap2\n      pop\n      pop\n        /* \"contracts/MembershipRights.sol\":682:770  for(uint i=0; i < _usr.length; i++) {... */\n      jump(tag_28)\n    tag_29:\n      pop\n        /* \"contracts/MembershipRights.sol\":519:777  function updateMembersRigts(address[] memory _usr, uint48 _role) public {... */\n      pop\n      pop\n      jump\t// out\n        /* \"contracts/MembershipRights.sol\":787:910  function hasRights(address usr, uint48 role) public view returns(bool){... */\n    tag_16:\n        /* \"contracts/MembershipRights.sol\":852:856  bool */\n      0x00\n        /* \"contracts/MembershipRights.sol\":898:902  role */\n      dup2\n        /* \"contracts/MembershipRights.sol\":875:902  members[usr] & role == role */\n      0xffffffffffff\n      and\n        /* \"contracts/MembershipRights.sol\":890:894  role */\n      dup3\n        /* \"contracts/MembershipRights.sol\":875:882  members */\n      0x00\n        /* \"contracts/MembershipRights.sol\":875:887  members[usr] */\n      dup1\n        /* \"contracts/MembershipRights.sol\":883:886  usr */\n      dup7\n        /* \"contracts/MembershipRights.sol\":875:887  members[usr] */\n      0xffffffffffffffffffffffffffffffffffffffff\n      and\n      0xffffffffffffffffffffffffffffffffffffffff\n      and\n      dup2\n      mstore\n      0x20\n      add\n      swap1\n      dup2\n      mstore\n      0x20\n      add\n      0x00\n      keccak256\n      0x00\n      swap1\n      sload\n      swap1\n      0x0100\n      exp\n      swap1\n      div\n      0xffffffffffff\n      and\n        /* \"contracts/MembershipRights.sol\":875:894  members[usr] & role */\n      and\n        /* \"contracts/MembershipRights.sol\":875:902  members[usr] & role == role */\n      0xffffffffffff\n      and\n      eq\n        /* \"contracts/MembershipRights.sol\":868:902  return members[usr] & role == role */\n      swap1\n      pop\n        /* \"contracts/MembershipRights.sol\":787:910  function hasRights(address usr, uint48 role) public view returns(bool){... */\n      swap3\n      swap2\n      pop\n      pop\n      jump\t// out\n        /* \"#utility.yul\":7:82   */\n    tag_37:\n        /* \"#utility.yul\":40:46   */\n      0x00\n        /* \"#utility.yul\":73:75   */\n      0x40\n        /* \"#utility.yul\":67:76   */\n      mload\n        /* \"#utility.yul\":57:76   */\n      swap1\n      pop\n        /* \"#utility.yul\":7:82   */\n      swap1\n      jump\t// out\n        /* \"#utility.yul\":88:205   */\n    tag_38:\n        /* \"#utility.yul\":197:198   */\n      0x00\n        /* \"#utility.yul\":194:195   */\n      dup1\n        /* \"#utility.yul\":187:199   */\n      revert\n        /* \"#utility.yul\":211:328   */\n    tag_39:\n        /* \"#utility.yul\":320:321   */\n      0x00\n        /* \"#utility.yul\":317:318   */\n      dup1\n        /* \"#utility.yul\":310:322   */\n      revert\n        /* \"#utility.yul\":334:460   */\n    tag_40:\n        /* \"#utility.yul\":371:378   */\n      0x00\n        /* \"#utility.yul\":411:453   */\n      0xffffffffffffffffffffffffffffffffffffffff\n        /* \"#utility.yul\":404:409   */\n      dup3\n        /* \"#utility.yul\":400:454   */\n      and\n        /* \"#utility.yul\":389:454   */\n      swap1\n      pop\n        /* \"#utility.yul\":334:460   */\n      swap2\n      swap1\n      pop\n      jump\t// out\n        /* \"#utility.yul\":466:562   */\n    tag_41:\n        /* \"#utility.yul\":503:510   */\n      0x00\n        /* \"#utility.yul\":532:556   */\n      tag_69\n        /* \"#utility.yul\":550:555   */\n      dup3\n        /* \"#utility.yul\":532:556   */\n      tag_40\n      jump\t// in\n    tag_69:\n        /* \"#utility.yul\":521:556   */\n      swap1\n      pop\n        /* \"#utility.yul\":466:562   */\n      swap2\n      swap1\n      pop\n      jump\t// out\n        /* \"#utility.yul\":568:690   */\n    tag_42:\n        /* \"#utility.yul\":641:665   */\n      tag_71\n        /* \"#utility.yul\":659:664   */\n      dup2\n        /* \"#utility.yul\":641:665   */\n      tag_41\n      jump\t// in\n    tag_71:\n        /* \"#utility.yul\":634:639   */\n      dup2\n        /* \"#utility.yul\":631:666   */\n      eq\n        /* \"#utility.yul\":621:684   */\n      tag_72\n      jumpi\n        /* \"#utility.yul\":680:681   */\n      0x00\n        /* \"#utility.yul\":677:678   */\n      dup1\n        /* \"#utility.yul\":670:682   */\n      revert\n        /* \"#utility.yul\":621:684   */\n    tag_72:\n        /* \"#utility.yul\":568:690   */\n      pop\n      jump\t// out\n        /* \"#utility.yul\":696:835   */\n    tag_43:\n        /* \"#utility.yul\":742:747   */\n      0x00\n        /* \"#utility.yul\":780:786   */\n      dup2\n        /* \"#utility.yul\":767:787   */\n      calldataload\n        /* \"#utility.yul\":758:787   */\n      swap1\n      pop\n        /* \"#utility.yul\":796:829   */\n      tag_74\n        /* \"#utility.yul\":823:828   */\n      dup2\n        /* \"#utility.yul\":796:829   */\n      tag_42\n      jump\t// in\n    tag_74:\n        /* \"#utility.yul\":696:835   */\n      swap3\n      swap2\n      pop\n      pop\n      jump\t// out\n        /* \"#utility.yul\":841:938   */\n    tag_44:\n        /* \"#utility.yul\":877:884   */\n      0x00\n        /* \"#utility.yul\":917:931   */\n      0xffffffffffff\n        /* \"#utility.yul\":910:915   */\n      dup3\n        /* \"#utility.yul\":906:932   */\n      and\n        /* \"#utility.yul\":895:932   */\n      swap1\n      pop\n        /* \"#utility.yul\":841:938   */\n      swap2\n      swap1\n      pop\n      jump\t// out\n        /* \"#utility.yul\":944:1064   */\n    tag_45:\n        /* \"#utility.yul\":1016:1039   */\n      tag_77\n        /* \"#utility.yul\":1033:1038   */\n      dup2\n        /* \"#utility.yul\":1016:1039   */\n      tag_44\n      jump\t// in\n    tag_77:\n        /* \"#utility.yul\":1009:1014   */\n      dup2\n        /* \"#utility.yul\":1006:1040   */\n      eq\n        /* \"#utility.yul\":996:1058   */\n      tag_78\n      jumpi\n        /* \"#utility.yul\":1054:1055   */\n      0x00\n        /* \"#utility.yul\":1051:1052   */\n      dup1\n        /* \"#utility.yul\":1044:1056   */\n      revert\n        /* \"#utility.yul\":996:1058   */\n    tag_78:\n        /* \"#utility.yul\":944:1064   */\n      pop\n      jump\t// out\n        /* \"#utility.yul\":1070:1207   */\n    tag_46:\n        /* \"#utility.yul\":1115:1120   */\n      0x00\n        /* \"#utility.yul\":1153:1159   */\n      dup2\n        /* \"#utility.yul\":1140:1160   */\n      calldataload\n        /* \"#utility.yul\":1131:1160   */\n      swap1\n      pop\n        /* \"#utility.yul\":1169:1201   */\n      tag_80\n        /* \"#utility.yul\":1195:1200   */\n      dup2\n        /* \"#utility.yul\":1169:1201   */\n      tag_45\n      jump\t// in\n    tag_80:\n        /* \"#utility.yul\":1070:1207   */\n      swap3\n      swap2\n      pop\n      pop\n      jump\t// out\n        /* \"#utility.yul\":1213:1685   */\n    tag_8:\n        /* \"#utility.yul\":1280:1286   */\n      0x00\n        /* \"#utility.yul\":1288:1294   */\n      dup1\n        /* \"#utility.yul\":1337:1339   */\n      0x40\n        /* \"#utility.yul\":1325:1334   */\n      dup4\n        /* \"#utility.yul\":1316:1323   */\n      dup6\n        /* \"#utility.yul\":1312:1335   */\n      sub\n        /* \"#utility.yul\":1308:1340   */\n      slt\n        /* \"#utility.yul\":1305:1424   */\n      iszero\n      tag_82\n      jumpi\n        /* \"#utility.yul\":1343:1422   */\n      tag_83\n      tag_38\n      jump\t// in\n    tag_83:\n        /* \"#utility.yul\":1305:1424   */\n    tag_82:\n        /* \"#utility.yul\":1463:1464   */\n      0x00\n        /* \"#utility.yul\":1488:1541   */\n      tag_84\n        /* \"#utility.yul\":1533:1540   */\n      dup6\n        /* \"#utility.yul\":1524:1530   */\n      dup3\n        /* \"#utility.yul\":1513:1522   */\n      dup7\n        /* \"#utility.yul\":1509:1531   */\n      add\n        /* \"#utility.yul\":1488:1541   */\n      tag_43\n      jump\t// in\n    tag_84:\n        /* \"#utility.yul\":1478:1541   */\n      swap3\n      pop\n        /* \"#utility.yul\":1434:1551   */\n      pop\n        /* \"#utility.yul\":1590:1592   */\n      0x20\n        /* \"#utility.yul\":1616:1668   */\n      tag_85\n        /* \"#utility.yul\":1660:1667   */\n      dup6\n        /* \"#utility.yul\":1651:1657   */\n      dup3\n        /* \"#utility.yul\":1640:1649   */\n      dup7\n        /* \"#utility.yul\":1636:1658   */\n      add\n        /* \"#utility.yul\":1616:1668   */\n      tag_46\n      jump\t// in\n    tag_85:\n        /* \"#utility.yul\":1606:1668   */\n      swap2\n      pop\n        /* \"#utility.yul\":1561:1678   */\n      pop\n        /* \"#utility.yul\":1213:1685   */\n      swap3\n      pop\n      swap3\n      swap1\n      pop\n      jump\t// out\n        /* \"#utility.yul\":1691:1808   */\n    tag_47:\n        /* \"#utility.yul\":1800:1801   */\n      0x00\n        /* \"#utility.yul\":1797:1798   */\n      dup1\n        /* \"#utility.yul\":1790:1802   */\n      revert\n        /* \"#utility.yul\":1814:1916   */\n    tag_48:\n        /* \"#utility.yul\":1855:1861   */\n      0x00\n        /* \"#utility.yul\":1906:1908   */\n      0x1f\n        /* \"#utility.yul\":1902:1909   */\n      not\n        /* \"#utility.yul\":1897:1899   */\n      0x1f\n        /* \"#utility.yul\":1890:1895   */\n      dup4\n        /* \"#utility.yul\":1886:1900   */\n      add\n        /* \"#utility.yul\":1882:1910   */\n      and\n        /* \"#utility.yul\":1872:1910   */\n      swap1\n      pop\n        /* \"#utility.yul\":1814:1916   */\n      swap2\n      swap1\n      pop\n      jump\t// out\n        /* \"#utility.yul\":1922:2102   */\n    tag_49:\n        /* \"#utility.yul\":1970:2047   */\n      0x4e487b7100000000000000000000000000000000000000000000000000000000\n        /* \"#utility.yul\":1967:1968   */\n      0x00\n        /* \"#utility.yul\":1960:2048   */\n      mstore\n        /* \"#utility.yul\":2067:2071   */\n      0x41\n        /* \"#utility.yul\":2064:2065   */\n      0x04\n        /* \"#utility.yul\":2057:2072   */\n      mstore\n        /* \"#utility.yul\":2091:2095   */\n      0x24\n        /* \"#utility.yul\":2088:2089   */\n      0x00\n        /* \"#utility.yul\":2081:2096   */\n      revert\n        /* \"#utility.yul\":2108:2389   */\n    tag_50:\n        /* \"#utility.yul\":2191:2218   */\n      tag_90\n        /* \"#utility.yul\":2213:2217   */\n      dup3\n        /* \"#utility.yul\":2191:2218   */\n      tag_48\n      jump\t// in\n    tag_90:\n        /* \"#utility.yul\":2183:2189   */\n      dup2\n        /* \"#utility.yul\":2179:2219   */\n      add\n        /* \"#utility.yul\":2321:2327   */\n      dup2\n        /* \"#utility.yul\":2309:2319   */\n      dup2\n        /* \"#utility.yul\":2306:2328   */\n      lt\n        /* \"#utility.yul\":2285:2303   */\n      0xffffffffffffffff\n        /* \"#utility.yul\":2273:2283   */\n      dup3\n        /* \"#utility.yul\":2270:2304   */\n      gt\n        /* \"#utility.yul\":2267:2329   */\n      or\n        /* \"#utility.yul\":2264:2352   */\n      iszero\n      tag_91\n      jumpi\n        /* \"#utility.yul\":2332:2350   */\n      tag_92\n      tag_49\n      jump\t// in\n    tag_92:\n        /* \"#utility.yul\":2264:2352   */\n    tag_91:\n        /* \"#utility.yul\":2372:2382   */\n      dup1\n        /* \"#utility.yul\":2368:2370   */\n      0x40\n        /* \"#utility.yul\":2361:2383   */\n      mstore\n        /* \"#utility.yul\":2151:2389   */\n      pop\n        /* \"#utility.yul\":2108:2389   */\n      pop\n      pop\n      jump\t// out\n        /* \"#utility.yul\":2395:2524   */\n    tag_51:\n        /* \"#utility.yul\":2429:2435   */\n      0x00\n        /* \"#utility.yul\":2456:2476   */\n      tag_94\n      tag_37\n      jump\t// in\n    tag_94:\n        /* \"#utility.yul\":2446:2476   */\n      swap1\n      pop\n        /* \"#utility.yul\":2485:2518   */\n      tag_95\n        /* \"#utility.yul\":2513:2517   */\n      dup3\n        /* \"#utility.yul\":2505:2511   */\n      dup3\n        /* \"#utility.yul\":2485:2518   */\n      tag_50\n      jump\t// in\n    tag_95:\n        /* \"#utility.yul\":2395:2524   */\n      swap2\n      swap1\n      pop\n      jump\t// out\n        /* \"#utility.yul\":2530:2841   */\n    tag_52:\n        /* \"#utility.yul\":2607:2611   */\n      0x00\n        /* \"#utility.yul\":2697:2715   */\n      0xffffffffffffffff\n        /* \"#utility.yul\":2689:2695   */\n      dup3\n        /* \"#utility.yul\":2686:2716   */\n      gt\n        /* \"#utility.yul\":2683:2739   */\n      iszero\n      tag_97\n      jumpi\n        /* \"#utility.yul\":2719:2737   */\n      tag_98\n      tag_49\n      jump\t// in\n    tag_98:\n        /* \"#utility.yul\":2683:2739   */\n    tag_97:\n        /* \"#utility.yul\":2769:2773   */\n      0x20\n        /* \"#utility.yul\":2761:2767   */\n      dup3\n        /* \"#utility.yul\":2757:2774   */\n      mul\n        /* \"#utility.yul\":2749:2774   */\n      swap1\n      pop\n        /* \"#utility.yul\":2829:2833   */\n      0x20\n        /* \"#utility.yul\":2823:2827   */\n      dup2\n        /* \"#utility.yul\":2819:2834   */\n      add\n        /* \"#utility.yul\":2811:2834   */\n      swap1\n      pop\n        /* \"#utility.yul\":2530:2841   */\n      swap2\n      swap1\n      pop\n      jump\t// out\n        /* \"#utility.yul\":2847:2964   */\n    tag_53:\n        /* \"#utility.yul\":2956:2957   */\n      0x00\n        /* \"#utility.yul\":2953:2954   */\n      dup1\n        /* \"#utility.yul\":2946:2958   */\n      revert\n        /* \"#utility.yul\":2987:3697   */\n    tag_54:\n        /* \"#utility.yul\":3083:3088   */\n      0x00\n        /* \"#utility.yul\":3108:3189   */\n      tag_101\n        /* \"#utility.yul\":3124:3188   */\n      tag_102\n        /* \"#utility.yul\":3181:3187   */\n      dup5\n        /* \"#utility.yul\":3124:3188   */\n      tag_52\n      jump\t// in\n    tag_102:\n        /* \"#utility.yul\":3108:3189   */\n      tag_51\n      jump\t// in\n    tag_101:\n        /* \"#utility.yul\":3099:3189   */\n      swap1\n      pop\n        /* \"#utility.yul\":3209:3214   */\n      dup1\n        /* \"#utility.yul\":3238:3244   */\n      dup4\n        /* \"#utility.yul\":3231:3236   */\n      dup3\n        /* \"#utility.yul\":3224:3245   */\n      mstore\n        /* \"#utility.yul\":3272:3276   */\n      0x20\n        /* \"#utility.yul\":3265:3270   */\n      dup3\n        /* \"#utility.yul\":3261:3277   */\n      add\n        /* \"#utility.yul\":3254:3277   */\n      swap1\n      pop\n        /* \"#utility.yul\":3325:3329   */\n      0x20\n        /* \"#utility.yul\":3317:3323   */\n      dup5\n        /* \"#utility.yul\":3313:3330   */\n      mul\n        /* \"#utility.yul\":3305:3311   */\n      dup4\n        /* \"#utility.yul\":3301:3331   */\n      add\n        /* \"#utility.yul\":3354:3357   */\n      dup6\n        /* \"#utility.yul\":3346:3352   */\n      dup2\n        /* \"#utility.yul\":3343:3358   */\n      gt\n        /* \"#utility.yul\":3340:3462   */\n      iszero\n      tag_103\n      jumpi\n        /* \"#utility.yul\":3373:3452   */\n      tag_104\n      tag_53\n      jump\t// in\n    tag_104:\n        /* \"#utility.yul\":3340:3462   */\n    tag_103:\n        /* \"#utility.yul\":3488:3494   */\n      dup4\n        /* \"#utility.yul\":3471:3691   */\n    tag_105:\n        /* \"#utility.yul\":3505:3511   */\n      dup2\n        /* \"#utility.yul\":3500:3503   */\n      dup2\n        /* \"#utility.yul\":3497:3512   */\n      lt\n        /* \"#utility.yul\":3471:3691   */\n      iszero\n      tag_107\n      jumpi\n        /* \"#utility.yul\":3580:3583   */\n      dup1\n        /* \"#utility.yul\":3609:3646   */\n      tag_108\n        /* \"#utility.yul\":3642:3645   */\n      dup9\n        /* \"#utility.yul\":3630:3640   */\n      dup3\n        /* \"#utility.yul\":3609:3646   */\n      tag_43\n      jump\t// in\n    tag_108:\n        /* \"#utility.yul\":3604:3607   */\n      dup5\n        /* \"#utility.yul\":3597:3647   */\n      mstore\n        /* \"#utility.yul\":3676:3680   */\n      0x20\n        /* \"#utility.yul\":3671:3674   */\n      dup5\n        /* \"#utility.yul\":3667:3681   */\n      add\n        /* \"#utility.yul\":3660:3681   */\n      swap4\n      pop\n        /* \"#utility.yul\":3547:3691   */\n      pop\n        /* \"#utility.yul\":3531:3535   */\n      0x20\n        /* \"#utility.yul\":3526:3529   */\n      dup2\n        /* \"#utility.yul\":3522:3536   */\n      add\n        /* \"#utility.yul\":3515:3536   */\n      swap1\n      pop\n        /* \"#utility.yul\":3471:3691   */\n      jump(tag_105)\n    tag_107:\n        /* \"#utility.yul\":3475:3496   */\n      pop\n        /* \"#utility.yul\":3089:3697   */\n      pop\n      pop\n        /* \"#utility.yul\":2987:3697   */\n      swap4\n      swap3\n      pop\n      pop\n      pop\n      jump\t// out\n        /* \"#utility.yul\":3720:4090   */\n    tag_55:\n        /* \"#utility.yul\":3791:3796   */\n      0x00\n        /* \"#utility.yul\":3840:3843   */\n      dup3\n        /* \"#utility.yul\":3833:3837   */\n      0x1f\n        /* \"#utility.yul\":3825:3831   */\n      dup4\n        /* \"#utility.yul\":3821:3838   */\n      add\n        /* \"#utility.yul\":3817:3844   */\n      slt\n        /* \"#utility.yul\":3807:3929   */\n      tag_110\n      jumpi\n        /* \"#utility.yul\":3848:3927   */\n      tag_111\n      tag_47\n      jump\t// in\n    tag_111:\n        /* \"#utility.yul\":3807:3929   */\n    tag_110:\n        /* \"#utility.yul\":3965:3971   */\n      dup2\n        /* \"#utility.yul\":3952:3972   */\n      calldataload\n        /* \"#utility.yul\":3990:4084   */\n      tag_112\n        /* \"#utility.yul\":4080:4083   */\n      dup5\n        /* \"#utility.yul\":4072:4078   */\n      dup3\n        /* \"#utility.yul\":4065:4069   */\n      0x20\n        /* \"#utility.yul\":4057:4063   */\n      dup7\n        /* \"#utility.yul\":4053:4070   */\n      add\n        /* \"#utility.yul\":3990:4084   */\n      tag_54\n      jump\t// in\n    tag_112:\n        /* \"#utility.yul\":3981:4084   */\n      swap2\n      pop\n        /* \"#utility.yul\":3797:4090   */\n      pop\n        /* \"#utility.yul\":3720:4090   */\n      swap3\n      swap2\n      pop\n      pop\n      jump\t// out\n        /* \"#utility.yul\":4096:4778   */\n    tag_12:\n        /* \"#utility.yul\":4188:4194   */\n      0x00\n        /* \"#utility.yul\":4196:4202   */\n      dup1\n        /* \"#utility.yul\":4245:4247   */\n      0x40\n        /* \"#utility.yul\":4233:4242   */\n      dup4\n        /* \"#utility.yul\":4224:4231   */\n      dup6\n        /* \"#utility.yul\":4220:4243   */\n      sub\n        /* \"#utility.yul\":4216:4248   */\n      slt\n        /* \"#utility.yul\":4213:4332   */\n      iszero\n      tag_114\n      jumpi\n        /* \"#utility.yul\":4251:4330   */\n      tag_115\n      tag_38\n      jump\t// in\n    tag_115:\n        /* \"#utility.yul\":4213:4332   */\n    tag_114:\n        /* \"#utility.yul\":4399:4400   */\n      0x00\n        /* \"#utility.yul\":4388:4397   */\n      dup4\n        /* \"#utility.yul\":4384:4401   */\n      add\n        /* \"#utility.yul\":4371:4402   */\n      calldataload\n        /* \"#utility.yul\":4429:4447   */\n      0xffffffffffffffff\n        /* \"#utility.yul\":4421:4427   */\n      dup2\n        /* \"#utility.yul\":4418:4448   */\n      gt\n        /* \"#utility.yul\":4415:4532   */\n      iszero\n      tag_116\n      jumpi\n        /* \"#utility.yul\":4451:4530   */\n      tag_117\n      tag_39\n      jump\t// in\n    tag_117:\n        /* \"#utility.yul\":4415:4532   */\n    tag_116:\n        /* \"#utility.yul\":4556:4634   */\n      tag_118\n        /* \"#utility.yul\":4626:4633   */\n      dup6\n        /* \"#utility.yul\":4617:4623   */\n      dup3\n        /* \"#utility.yul\":4606:4615   */\n      dup7\n        /* \"#utility.yul\":4602:4624   */\n      add\n        /* \"#utility.yul\":4556:4634   */\n      tag_55\n      jump\t// in\n    tag_118:\n        /* \"#utility.yul\":4546:4634   */\n      swap3\n      pop\n        /* \"#utility.yul\":4342:4644   */\n      pop\n        /* \"#utility.yul\":4683:4685   */\n      0x20\n        /* \"#utility.yul\":4709:4761   */\n      tag_119\n        /* \"#utility.yul\":4753:4760   */\n      dup6\n        /* \"#utility.yul\":4744:4750   */\n      dup3\n        /* \"#utility.yul\":4733:4742   */\n      dup7\n        /* \"#utility.yul\":4729:4751   */\n      add\n        /* \"#utility.yul\":4709:4761   */\n      tag_46\n      jump\t// in\n    tag_119:\n        /* \"#utility.yul\":4699:4761   */\n      swap2\n      pop\n        /* \"#utility.yul\":4654:4771   */\n      pop\n        /* \"#utility.yul\":4096:4778   */\n      swap3\n      pop\n      swap3\n      swap1\n      pop\n      jump\t// out\n        /* \"#utility.yul\":4784:4874   */\n    tag_56:\n        /* \"#utility.yul\":4818:4825   */\n      0x00\n        /* \"#utility.yul\":4861:4866   */\n      dup2\n        /* \"#utility.yul\":4854:4867   */\n      iszero\n        /* \"#utility.yul\":4847:4868   */\n      iszero\n        /* \"#utility.yul\":4836:4868   */\n      swap1\n      pop\n        /* \"#utility.yul\":4784:4874   */\n      swap2\n      swap1\n      pop\n      jump\t// out\n        /* \"#utility.yul\":4880:4989   */\n    tag_57:\n        /* \"#utility.yul\":4961:4982   */\n      tag_122\n        /* \"#utility.yul\":4976:4981   */\n      dup2\n        /* \"#utility.yul\":4961:4982   */\n      tag_56\n      jump\t// in\n    tag_122:\n        /* \"#utility.yul\":4956:4959   */\n      dup3\n        /* \"#utility.yul\":4949:4983   */\n      mstore\n        /* \"#utility.yul\":4880:4989   */\n      pop\n      pop\n      jump\t// out\n        /* \"#utility.yul\":4995:5205   */\n    tag_18:\n        /* \"#utility.yul\":5082:5086   */\n      0x00\n        /* \"#utility.yul\":5120:5122   */\n      0x20\n        /* \"#utility.yul\":5109:5118   */\n      dup3\n        /* \"#utility.yul\":5105:5123   */\n      add\n        /* \"#utility.yul\":5097:5123   */\n      swap1\n      pop\n        /* \"#utility.yul\":5133:5198   */\n      tag_124\n        /* \"#utility.yul\":5195:5196   */\n      0x00\n        /* \"#utility.yul\":5184:5193   */\n      dup4\n        /* \"#utility.yul\":5180:5197   */\n      add\n        /* \"#utility.yul\":5171:5177   */\n      dup5\n        /* \"#utility.yul\":5133:5198   */\n      tag_57\n      jump\t// in\n    tag_124:\n        /* \"#utility.yul\":4995:5205   */\n      swap3\n      swap2\n      pop\n      pop\n      jump\t// out\n        /* \"#utility.yul\":5211:5380   */\n    tag_58:\n        /* \"#utility.yul\":5295:5306   */\n      0x00\n        /* \"#utility.yul\":5329:5335   */\n      dup3\n        /* \"#utility.yul\":5324:5327   */\n      dup3\n        /* \"#utility.yul\":5317:5336   */\n      mstore\n        /* \"#utility.yul\":5369:5373   */\n      0x20\n        /* \"#utility.yul\":5364:5367   */\n      dup3\n        /* \"#utility.yul\":5360:5374   */\n      add\n        /* \"#utility.yul\":5345:5374   */\n      swap1\n      pop\n        /* \"#utility.yul\":5211:5380   */\n      swap3\n      swap2\n      pop\n      pop\n      jump\t// out\n        /* \"#utility.yul\":5386:5559   */\n    tag_59:\n        /* \"#utility.yul\":5526:5551   */\n      0x4e6f7420616e205269676874734c6973742061646d696e000000000000000000\n        /* \"#utility.yul\":5522:5523   */\n      0x00\n        /* \"#utility.yul\":5514:5520   */\n      dup3\n        /* \"#utility.yul\":5510:5524   */\n      add\n        /* \"#utility.yul\":5503:5552   */\n      mstore\n        /* \"#utility.yul\":5386:5559   */\n      pop\n      jump\t// out\n        /* \"#utility.yul\":5565:5931   */\n    tag_60:\n        /* \"#utility.yul\":5707:5710   */\n      0x00\n        /* \"#utility.yul\":5728:5795   */\n      tag_128\n        /* \"#utility.yul\":5792:5794   */\n      0x17\n        /* \"#utility.yul\":5787:5790   */\n      dup4\n        /* \"#utility.yul\":5728:5795   */\n      tag_58\n      jump\t// in\n    tag_128:\n        /* \"#utility.yul\":5721:5795   */\n      swap2\n      pop\n        /* \"#utility.yul\":5804:5897   */\n      tag_129\n        /* \"#utility.yul\":5893:5896   */\n      dup3\n        /* \"#utility.yul\":5804:5897   */\n      tag_59\n      jump\t// in\n    tag_129:\n        /* \"#utility.yul\":5922:5924   */\n      0x20\n        /* \"#utility.yul\":5917:5920   */\n      dup3\n        /* \"#utility.yul\":5913:5925   */\n      add\n        /* \"#utility.yul\":5906:5925   */\n      swap1\n      pop\n        /* \"#utility.yul\":5565:5931   */\n      swap2\n      swap1\n      pop\n      jump\t// out\n        /* \"#utility.yul\":5937:6356   */\n    tag_23:\n        /* \"#utility.yul\":6103:6107   */\n      0x00\n        /* \"#utility.yul\":6141:6143   */\n      0x20\n        /* \"#utility.yul\":6130:6139   */\n      dup3\n        /* \"#utility.yul\":6126:6144   */\n      add\n        /* \"#utility.yul\":6118:6144   */\n      swap1\n      pop\n        /* \"#utility.yul\":6190:6199   */\n      dup2\n        /* \"#utility.yul\":6184:6188   */\n      dup2\n        /* \"#utility.yul\":6180:6200   */\n      sub\n        /* \"#utility.yul\":6176:6177   */\n      0x00\n        /* \"#utility.yul\":6165:6174   */\n      dup4\n        /* \"#utility.yul\":6161:6178   */\n      add\n        /* \"#utility.yul\":6154:6201   */\n      mstore\n        /* \"#utility.yul\":6218:6349   */\n      tag_131\n        /* \"#utility.yul\":6344:6348   */\n      dup2\n        /* \"#utility.yul\":6218:6349   */\n      tag_60\n      jump\t// in\n    tag_131:\n        /* \"#utility.yul\":6210:6349   */\n      swap1\n      pop\n        /* \"#utility.yul\":5937:6356   */\n      swap2\n      swap1\n      pop\n      jump\t// out\n        /* \"#utility.yul\":6362:6542   */\n    tag_33:\n        /* \"#utility.yul\":6410:6487   */\n      0x4e487b7100000000000000000000000000000000000000000000000000000000\n        /* \"#utility.yul\":6407:6408   */\n      0x00\n        /* \"#utility.yul\":6400:6488   */\n      mstore\n        /* \"#utility.yul\":6507:6511   */\n      0x32\n        /* \"#utility.yul\":6504:6505   */\n      0x04\n        /* \"#utility.yul\":6497:6512   */\n      mstore\n        /* \"#utility.yul\":6531:6535   */\n      0x24\n        /* \"#utility.yul\":6528:6529   */\n      0x00\n        /* \"#utility.yul\":6521:6536   */\n      revert\n        /* \"#utility.yul\":6548:6728   */\n    tag_61:\n        /* \"#utility.yul\":6596:6673   */\n      0x4e487b7100000000000000000000000000000000000000000000000000000000\n        /* \"#utility.yul\":6593:6594   */\n      0x00\n        /* \"#utility.yul\":6586:6674   */\n      mstore\n        /* \"#utility.yul\":6693:6697   */\n      0x11\n        /* \"#utility.yul\":6690:6691   */\n      0x04\n        /* \"#utility.yul\":6683:6698   */\n      mstore\n        /* \"#utility.yul\":6717:6721   */\n      0x24\n        /* \"#utility.yul\":6714:6715   */\n      0x00\n        /* \"#utility.yul\":6707:6722   */\n      revert\n        /* \"#utility.yul\":6734:6811   */\n    tag_62:\n        /* \"#utility.yul\":6771:6778   */\n      0x00\n        /* \"#utility.yul\":6800:6805   */\n      dup2\n        /* \"#utility.yul\":6789:6805   */\n      swap1\n      pop\n        /* \"#utility.yul\":6734:6811   */\n      swap2\n      swap1\n      pop\n      jump\t// out\n        /* \"#utility.yul\":6817:7050   */\n    tag_35:\n        /* \"#utility.yul\":6856:6859   */\n      0x00\n        /* \"#utility.yul\":6879:6903   */\n      tag_136\n        /* \"#utility.yul\":6897:6902   */\n      dup3\n        /* \"#utility.yul\":6879:6903   */\n      tag_62\n      jump\t// in\n    tag_136:\n        /* \"#utility.yul\":6870:6903   */\n      swap2\n      pop\n        /* \"#utility.yul\":6925:6991   */\n      0xffffffffffffffffffffffffffffffffffffffffffffffffffffffffffffffff\n        /* \"#utility.yul\":6918:6923   */\n      dup3\n        /* \"#utility.yul\":6915:6992   */\n      eq\n        /* \"#utility.yul\":6912:7015   */\n      iszero\n      tag_137\n      jumpi\n        /* \"#utility.yul\":6995:7013   */\n      tag_138\n      tag_61\n      jump\t// in\n    tag_138:\n        /* \"#utility.yul\":6912:7015   */\n    tag_137:\n        /* \"#utility.yul\":7042:7043   */\n      0x01\n        /* \"#utility.yul\":7035:7040   */\n      dup3\n        /* \"#utility.yul\":7031:7044   */\n      add\n        /* \"#utility.yul\":7024:7044   */\n      swap1\n      pop\n        /* \"#utility.yul\":6817:7050   */\n      swap2\n      swap1\n      pop\n      jump\t// out\n\n    auxdata: 0xa264697066735822122005e029f5fa6de2a7490da791b1e2c64b16a37a2de92db294fab8c6a8d124829264736f6c63430008090033\n}\n",
				"bytecode": {
					"linkReferences": {},
					"object": "608060405234801561001057600080fd5b5060046000803373ffffffffffffffffffffffffffffffffffffffff1673ffffffffffffffffffffffffffffffffffffffff16815260200190815260200160002060006101000a81548165ffffffffffff021916908365ffffffffffff16021790555061070b806100826000396000f3fe608060405234801561001057600080fd5b50600436106100415760003560e01c80636d72aab314610046578063d10b791c14610062578063f35f0f741461007e575b600080fd5b610060600480360381019061005b919061037c565b6100ae565b005b61007c60048036038101906100779190610515565b61015d565b005b6100986004803603810190610093919061037c565b61025d565b6040516100a5919061058c565b60405180910390f35b6100b933600461025d565b6100f8576040517f08c379a00000000000000000000000000000000000000000000000000000000081526004016100ef90610604565b60405180910390fd5b806000808473ffffffffffffffffffffffffffffffffffffffff1673ffffffffffffffffffffffffffffffffffffffff16815260200190815260200160002060006101000a81548165ffffffffffff021916908365ffffffffffff1602179055505050565b61016833600461025d565b6101a7576040517f08c379a000000000000000000000000000000000000000000000000000000000815260040161019e90610604565b60405180910390fd5b60005b825181101561025857816000808584815181106101ca576101c9610624565b5b602002602001015173ffffffffffffffffffffffffffffffffffffffff1673ffffffffffffffffffffffffffffffffffffffff16815260200190815260200160002060008282829054906101000a900465ffffffffffff161792506101000a81548165ffffffffffff021916908365ffffffffffff16021790555080806102509061068c565b9150506101aa565b505050565b60008165ffffffffffff16826000808673ffffffffffffffffffffffffffffffffffffffff1673ffffffffffffffffffffffffffffffffffffffff16815260200190815260200160002060009054906101000a900465ffffffffffff161665ffffffffffff1614905092915050565b6000604051905090565b600080fd5b600080fd5b600073ffffffffffffffffffffffffffffffffffffffff82169050919050565b600061030b826102e0565b9050919050565b61031b81610300565b811461032657600080fd5b50565b60008135905061033881610312565b92915050565b600065ffffffffffff82169050919050565b6103598161033e565b811461036457600080fd5b50565b60008135905061037681610350565b92915050565b60008060408385031215610393576103926102d6565b5b60006103a185828601610329565b92505060206103b285828601610367565b9150509250929050565b600080fd5b6000601f19601f8301169050919050565b7f4e487b7100000000000000000000000000000000000000000000000000000000600052604160045260246000fd5b61040a826103c1565b810181811067ffffffffffffffff82111715610429576104286103d2565b5b80604052505050565b600061043c6102cc565b90506104488282610401565b919050565b600067ffffffffffffffff821115610468576104676103d2565b5b602082029050602081019050919050565b600080fd5b600061049161048c8461044d565b610432565b905080838252602082019050602084028301858111156104b4576104b3610479565b5b835b818110156104dd57806104c98882610329565b8452602084019350506020810190506104b6565b5050509392505050565b600082601f8301126104fc576104fb6103bc565b5b813561050c84826020860161047e565b91505092915050565b6000806040838503121561052c5761052b6102d6565b5b600083013567ffffffffffffffff81111561054a576105496102db565b5b610556858286016104e7565b925050602061056785828601610367565b9150509250929050565b60008115159050919050565b61058681610571565b82525050565b60006020820190506105a1600083018461057d565b92915050565b600082825260208201905092915050565b7f4e6f7420616e205269676874734c6973742061646d696e000000000000000000600082015250565b60006105ee6017836105a7565b91506105f9826105b8565b602082019050919050565b6000602082019050818103600083015261061d816105e1565b9050919050565b7f4e487b7100000000000000000000000000000000000000000000000000000000600052603260045260246000fd5b7f4e487b7100000000000000000000000000000000000000000000000000000000600052601160045260246000fd5b6000819050919050565b600061069782610682565b91507fffffffffffffffffffffffffffffffffffffffffffffffffffffffffffffffff8214156106ca576106c9610653565b5b60018201905091905056fea264697066735822122005e029f5fa6de2a7490da791b1e2c64b16a37a2de92db294fab8c6a8d124829264736f6c63430008090033",
					"opcodes": "PUSH1 0x80 PUSH1 0x40 MSTORE CALLVALUE DUP1 ISZERO PUSH2 0x10 JUMPI PUSH1 0x0 DUP1 REVERT JUMPDEST POP PUSH1 0x4 PUSH1 0x0 DUP1 CALLER PUSH20 0xFFFFFFFFFFFFFFFFFFFFFFFFFFFFFFFFFFFFFFFF AND PUSH20 0xFFFFFFFFFFFFFFFFFFFFFFFFFFFFFFFFFFFFFFFF AND DUP2 MSTORE PUSH1 0x20 ADD SWAP1 DUP2 MSTORE PUSH1 0x20 ADD PUSH1 0x0 KECCAK256 PUSH1 0x0 PUSH2 0x100 EXP DUP2 SLOAD DUP2 PUSH6 0xFFFFFFFFFFFF MUL NOT AND SWAP1 DUP4 PUSH6 0xFFFFFFFFFFFF AND MUL OR SWAP1 SSTORE POP PUSH2 0x70B DUP1 PUSH2 0x82 PUSH1 0x0 CODECOPY PUSH1 0x0 RETURN INVALID PUSH1 0x80 PUSH1 0x40 MSTORE CALLVALUE DUP1 ISZERO PUSH2 0x10 JUMPI PUSH1 0x0 DUP1 REVERT JUMPDEST POP PUSH1 0x4 CALLDATASIZE LT PUSH2 0x41 JUMPI PUSH1 0x0 CALLDATALOAD PUSH1 0xE0 SHR DUP1 PUSH4 0x6D72AAB3 EQ PUSH2 0x46 JUMPI DUP1 PUSH4 0xD10B791C EQ PUSH2 0x62 JUMPI DUP1 PUSH4 0xF35F0F74 EQ PUSH2 0x7E JUMPI JUMPDEST PUSH1 0x0 DUP1 REVERT JUMPDEST PUSH2 0x60 PUSH1 0x4 DUP1 CALLDATASIZE SUB DUP2 ADD SWAP1 PUSH2 0x5B SWAP2 SWAP1 PUSH2 0x37C JUMP JUMPDEST PUSH2 0xAE JUMP JUMPDEST STOP JUMPDEST PUSH2 0x7C PUSH1 0x4 DUP1 CALLDATASIZE SUB DUP2 ADD SWAP1 PUSH2 0x77 SWAP2 SWAP1 PUSH2 0x515 JUMP JUMPDEST PUSH2 0x15D JUMP JUMPDEST STOP JUMPDEST PUSH2 0x98 PUSH1 0x4 DUP1 CALLDATASIZE SUB DUP2 ADD SWAP1 PUSH2 0x93 SWAP2 SWAP1 PUSH2 0x37C JUMP JUMPDEST PUSH2 0x25D JUMP JUMPDEST PUSH1 0x40 MLOAD PUSH2 0xA5 SWAP2 SWAP1 PUSH2 0x58C JUMP JUMPDEST PUSH1 0x40 MLOAD DUP1 SWAP2 SUB SWAP1 RETURN JUMPDEST PUSH2 0xB9 CALLER PUSH1 0x4 PUSH2 0x25D JUMP JUMPDEST PUSH2 0xF8 JUMPI PUSH1 0x40 MLOAD PUSH32 0x8C379A000000000000000000000000000000000000000000000000000000000 DUP2 MSTORE PUSH1 0x4 ADD PUSH2 0xEF SWAP1 PUSH2 0x604 JUMP JUMPDEST PUSH1 0x40 MLOAD DUP1 SWAP2 SUB SWAP1 REVERT JUMPDEST DUP1 PUSH1 0x0 DUP1 DUP5 PUSH20 0xFFFFFFFFFFFFFFFFFFFFFFFFFFFFFFFFFFFFFFFF AND PUSH20 0xFFFFFFFFFFFFFFFFFFFFFFFFFFFFFFFFFFFFFFFF AND DUP2 MSTORE PUSH1 0x20 ADD SWAP1 DUP2 MSTORE PUSH1 0x20 ADD PUSH1 0x0 KECCAK256 PUSH1 0x0 PUSH2 0x100 EXP DUP2 SLOAD DUP2 PUSH6 0xFFFFFFFFFFFF MUL NOT AND SWAP1 DUP4 PUSH6 0xFFFFFFFFFFFF AND MUL OR SWAP1 SSTORE POP POP POP JUMP JUMPDEST PUSH2 0x168 CALLER PUSH1 0x4 PUSH2 0x25D JUMP JUMPDEST PUSH2 0x1A7 JUMPI PUSH1 0x40 MLOAD PUSH32 0x8C379A000000000000000000000000000000000000000000000000000000000 DUP2 MSTORE PUSH1 0x4 ADD PUSH2 0x19E SWAP1 PUSH2 0x604 JUMP JUMPDEST PUSH1 0x40 MLOAD DUP1 SWAP2 SUB SWAP1 REVERT JUMPDEST PUSH1 0x0 JUMPDEST DUP3 MLOAD DUP2 LT ISZERO PUSH2 0x258 JUMPI DUP2 PUSH1 0x0 DUP1 DUP6 DUP5 DUP2 MLOAD DUP2 LT PUSH2 0x1CA JUMPI PUSH2 0x1C9 PUSH2 0x624 JUMP JUMPDEST JUMPDEST PUSH1 0x20 MUL PUSH1 0x20 ADD ADD MLOAD PUSH20 0xFFFFFFFFFFFFFFFFFFFFFFFFFFFFFFFFFFFFFFFF AND PUSH20 0xFFFFFFFFFFFFFFFFFFFFFFFFFFFFFFFFFFFFFFFF AND DUP2 MSTORE PUSH1 0x20 ADD SWAP1 DUP2 MSTORE PUSH1 0x20 ADD PUSH1 0x0 KECCAK256 PUSH1 0x0 DUP3 DUP3 DUP3 SWAP1 SLOAD SWAP1 PUSH2 0x100 EXP SWAP1 DIV PUSH6 0xFFFFFFFFFFFF AND OR SWAP3 POP PUSH2 0x100 EXP DUP2 SLOAD DUP2 PUSH6 0xFFFFFFFFFFFF MUL NOT AND SWAP1 DUP4 PUSH6 0xFFFFFFFFFFFF AND MUL OR SWAP1 SSTORE POP DUP1 DUP1 PUSH2 0x250 SWAP1 PUSH2 0x68C JUMP JUMPDEST SWAP2 POP POP PUSH2 0x1AA JUMP JUMPDEST POP POP POP JUMP JUMPDEST PUSH1 0x0 DUP2 PUSH6 0xFFFFFFFFFFFF AND DUP3 PUSH1 0x0 DUP1 DUP7 PUSH20 0xFFFFFFFFFFFFFFFFFFFFFFFFFFFFFFFFFFFFFFFF AND PUSH20 0xFFFFFFFFFFFFFFFFFFFFFFFFFFFFFFFFFFFFFFFF AND DUP2 MSTORE PUSH1 0x20 ADD SWAP1 DUP2 MSTORE PUSH1 0x20 ADD PUSH1 0x0 KECCAK256 PUSH1 0x0 SWAP1 SLOAD SWAP1 PUSH2 0x100 EXP SWAP1 DIV PUSH6 0xFFFFFFFFFFFF AND AND PUSH6 0xFFFFFFFFFFFF AND EQ SWAP1 POP SWAP3 SWAP2 POP POP JUMP JUMPDEST PUSH1 0x0 PUSH1 0x40 MLOAD SWAP1 POP SWAP1 JUMP JUMPDEST PUSH1 0x0 DUP1 REVERT JUMPDEST PUSH1 0x0 DUP1 REVERT JUMPDEST PUSH1 0x0 PUSH20 0xFFFFFFFFFFFFFFFFFFFFFFFFFFFFFFFFFFFFFFFF DUP3 AND SWAP1 POP SWAP2 SWAP1 POP JUMP JUMPDEST PUSH1 0x0 PUSH2 0x30B DUP3 PUSH2 0x2E0 JUMP JUMPDEST SWAP1 POP SWAP2 SWAP1 POP JUMP JUMPDEST PUSH2 0x31B DUP2 PUSH2 0x300 JUMP JUMPDEST DUP2 EQ PUSH2 0x326 JUMPI PUSH1 0x0 DUP1 REVERT JUMPDEST POP JUMP JUMPDEST PUSH1 0x0 DUP2 CALLDATALOAD SWAP1 POP PUSH2 0x338 DUP2 PUSH2 0x312 JUMP JUMPDEST SWAP3 SWAP2 POP POP JUMP JUMPDEST PUSH1 0x0 PUSH6 0xFFFFFFFFFFFF DUP3 AND SWAP1 POP SWAP2 SWAP1 POP JUMP JUMPDEST PUSH2 0x359 DUP2 PUSH2 0x33E JUMP JUMPDEST DUP2 EQ PUSH2 0x364 JUMPI PUSH1 0x0 DUP1 REVERT JUMPDEST POP JUMP JUMPDEST PUSH1 0x0 DUP2 CALLDATALOAD SWAP1 POP PUSH2 0x376 DUP2 PUSH2 0x350 JUMP JUMPDEST SWAP3 SWAP2 POP POP JUMP JUMPDEST PUSH1 0x0 DUP1 PUSH1 0x40 DUP4 DUP6 SUB SLT ISZERO PUSH2 0x393 JUMPI PUSH2 0x392 PUSH2 0x2D6 JUMP JUMPDEST JUMPDEST PUSH1 0x0 PUSH2 0x3A1 DUP6 DUP3 DUP7 ADD PUSH2 0x329 JUMP JUMPDEST SWAP3 POP POP PUSH1 0x20 PUSH2 0x3B2 DUP6 DUP3 DUP7 ADD PUSH2 0x367 JUMP JUMPDEST SWAP2 POP POP SWAP3 POP SWAP3 SWAP1 POP JUMP JUMPDEST PUSH1 0x0 DUP1 REVERT JUMPDEST PUSH1 0x0 PUSH1 0x1F NOT PUSH1 0x1F DUP4 ADD AND SWAP1 POP SWAP2 SWAP1 POP JUMP JUMPDEST PUSH32 0x4E487B7100000000000000000000000000000000000000000000000000000000 PUSH1 0x0 MSTORE PUSH1 0x41 PUSH1 0x4 MSTORE PUSH1 0x24 PUSH1 0x0 REVERT JUMPDEST PUSH2 0x40A DUP3 PUSH2 0x3C1 JUMP JUMPDEST DUP2 ADD DUP2 DUP2 LT PUSH8 0xFFFFFFFFFFFFFFFF DUP3 GT OR ISZERO PUSH2 0x429 JUMPI PUSH2 0x428 PUSH2 0x3D2 JUMP JUMPDEST JUMPDEST DUP1 PUSH1 0x40 MSTORE POP POP POP JUMP JUMPDEST PUSH1 0x0 PUSH2 0x43C PUSH2 0x2CC JUMP JUMPDEST SWAP1 POP PUSH2 0x448 DUP3 DUP3 PUSH2 0x401 JUMP JUMPDEST SWAP2 SWAP1 POP JUMP JUMPDEST PUSH1 0x0 PUSH8 0xFFFFFFFFFFFFFFFF DUP3 GT ISZERO PUSH2 0x468 JUMPI PUSH2 0x467 PUSH2 0x3D2 JUMP JUMPDEST JUMPDEST PUSH1 0x20 DUP3 MUL SWAP1 POP PUSH1 0x20 DUP2 ADD SWAP1 POP SWAP2 SWAP1 POP JUMP JUMPDEST PUSH1 0x0 DUP1 REVERT JUMPDEST PUSH1 0x0 PUSH2 0x491 PUSH2 0x48C DUP5 PUSH2 0x44D JUMP JUMPDEST PUSH2 0x432 JUMP JUMPDEST SWAP1 POP DUP1 DUP4 DUP3 MSTORE PUSH1 0x20 DUP3 ADD SWAP1 POP PUSH1 0x20 DUP5 MUL DUP4 ADD DUP6 DUP2 GT ISZERO PUSH2 0x4B4 JUMPI PUSH2 0x4B3 PUSH2 0x479 JUMP JUMPDEST JUMPDEST DUP4 JUMPDEST DUP2 DUP2 LT ISZERO PUSH2 0x4DD JUMPI DUP1 PUSH2 0x4C9 DUP9 DUP3 PUSH2 0x329 JUMP JUMPDEST DUP5 MSTORE PUSH1 0x20 DUP5 ADD SWAP4 POP POP PUSH1 0x20 DUP2 ADD SWAP1 POP PUSH2 0x4B6 JUMP JUMPDEST POP POP POP SWAP4 SWAP3 POP POP POP JUMP JUMPDEST PUSH1 0x0 DUP3 PUSH1 0x1F DUP4 ADD SLT PUSH2 0x4FC JUMPI PUSH2 0x4FB PUSH2 0x3BC JUMP JUMPDEST JUMPDEST DUP2 CALLDATALOAD PUSH2 0x50C DUP5 DUP3 PUSH1 0x20 DUP7 ADD PUSH2 0x47E JUMP JUMPDEST SWAP2 POP POP SWAP3 SWAP2 POP POP JUMP JUMPDEST PUSH1 0x0 DUP1 PUSH1 0x40 DUP4 DUP6 SUB SLT ISZERO PUSH2 0x52C JUMPI PUSH2 0x52B PUSH2 0x2D6 JUMP JUMPDEST JUMPDEST PUSH1 0x0 DUP4 ADD CALLDATALOAD PUSH8 0xFFFFFFFFFFFFFFFF DUP2 GT ISZERO PUSH2 0x54A JUMPI PUSH2 0x549 PUSH2 0x2DB JUMP JUMPDEST JUMPDEST PUSH2 0x556 DUP6 DUP3 DUP7 ADD PUSH2 0x4E7 JUMP JUMPDEST SWAP3 POP POP PUSH1 0x20 PUSH2 0x567 DUP6 DUP3 DUP7 ADD PUSH2 0x367 JUMP JUMPDEST SWAP2 POP POP SWAP3 POP SWAP3 SWAP1 POP JUMP JUMPDEST PUSH1 0x0 DUP2 ISZERO ISZERO SWAP1 POP SWAP2 SWAP1 POP JUMP JUMPDEST PUSH2 0x586 DUP2 PUSH2 0x571 JUMP JUMPDEST DUP3 MSTORE POP POP JUMP JUMPDEST PUSH1 0x0 PUSH1 0x20 DUP3 ADD SWAP1 POP PUSH2 0x5A1 PUSH1 0x0 DUP4 ADD DUP5 PUSH2 0x57D JUMP JUMPDEST SWAP3 SWAP2 POP POP JUMP JUMPDEST PUSH1 0x0 DUP3 DUP3 MSTORE PUSH1 0x20 DUP3 ADD SWAP1 POP SWAP3 SWAP2 POP POP JUMP JUMPDEST PUSH32 0x4E6F7420616E205269676874734C6973742061646D696E000000000000000000 PUSH1 0x0 DUP3 ADD MSTORE POP JUMP JUMPDEST PUSH1 0x0 PUSH2 0x5EE PUSH1 0x17 DUP4 PUSH2 0x5A7 JUMP JUMPDEST SWAP2 POP PUSH2 0x5F9 DUP3 PUSH2 0x5B8 JUMP JUMPDEST PUSH1 0x20 DUP3 ADD SWAP1 POP SWAP2 SWAP1 POP JUMP JUMPDEST PUSH1 0x0 PUSH1 0x20 DUP3 ADD SWAP1 POP DUP2 DUP2 SUB PUSH1 0x0 DUP4 ADD MSTORE PUSH2 0x61D DUP2 PUSH2 0x5E1 JUMP JUMPDEST SWAP1 POP SWAP2 SWAP1 POP JUMP JUMPDEST PUSH32 0x4E487B7100000000000000000000000000000000000000000000000000000000 PUSH1 0x0 MSTORE PUSH1 0x32 PUSH1 0x4 MSTORE PUSH1 0x24 PUSH1 0x0 REVERT JUMPDEST PUSH32 0x4E487B7100000000000000000000000000000000000000000000000000000000 PUSH1 0x0 MSTORE PUSH1 0x11 PUSH1 0x4 MSTORE PUSH1 0x24 PUSH1 0x0 REVERT JUMPDEST PUSH1 0x0 DUP2 SWAP1 POP SWAP2 SWAP1 POP JUMP JUMPDEST PUSH1 0x0 PUSH2 0x697 DUP3 PUSH2 0x682 JUMP JUMPDEST SWAP2 POP PUSH32 0xFFFFFFFFFFFFFFFFFFFFFFFFFFFFFFFFFFFFFFFFFFFFFFFFFFFFFFFFFFFFFFFF DUP3 EQ ISZERO PUSH2 0x6CA JUMPI PUSH2 0x6C9 PUSH2 0x653 JUMP JUMPDEST JUMPDEST PUSH1 0x1 DUP3 ADD SWAP1 POP SWAP2 SWAP1 POP JUMP INVALID LOG2 PUSH5 0x6970667358 0x22 SLT KECCAK256 SDIV 0xE0 0x29 CREATE2 STATICCALL PUSH14 0xE2A7490DA791B1E2C64B16A37A2D 0xE9 0x2D 0xB2 SWAP5 STATICCALL 0xB8 0xC6 0xA8 0xD1 0x24 DUP3 SWAP3 PUSH5 0x736F6C6343 STOP ADDMOD MULMOD STOP CALLER "
				},
				"gasEstimates": {
					"creation": {
						"codeDepositCost": "360600",
						"executionCost": "24755",
						"totalCost": "385355"
					},
					"external": {
						"hasRights(address,uint48)": "3108",
						"setMemberRigts(address,uint48)": "27283",
						"updateMembersRigts(address[],uint48)": "infinite"
					}
				},
				"methodIdentifiers": {
					"hasRights(address,uint48)": "f35f0f74",
					"setMemberRigts(address,uint48)": "6d72aab3",
					"updateMembersRigts(address[],uint48)": "d10b791c"
				}
			},
			"storageLayout": {
				"storage": [
					{
						"astId": 991,
						"contract": "contracts/MembershipRights.sol:MembershipRights",
						"label": "members",
						"offset": 0,
						"slot": "0",
						"type": "t_mapping(t_address,t_uint48)"
					}
				],
				"types": {
					"t_address": {
						"encoding": "inplace",
						"label": "address",
						"numberOfBytes": "20"
					},
					"t_mapping(t_address,t_uint48)": {
						"encoding": "mapping",
						"key": "t_address",
						"label": "mapping(address => uint48)",
						"numberOfBytes": "32",
						"value": "t_uint48"
					},
					"t_uint48": {
						"encoding": "inplace",
						"label": "uint48",
						"numberOfBytes": "6"
					}
				}
			},
			"userdoc": {
				"kind": "user",
				"methods": {},
				"version": 1
			}
		}
	}
}