{
	"contracts/Clock.sol": {
		"Clock": {
			"abi": [
				{
					"inputs": [],
					"name": "getCurrentDate",
					"outputs": [
						{
							"internalType": "uint256",
							"name": "date",
							"type": "uint256"
						}
					],
					"stateMutability": "view",
					"type": "function"
				},
				{
					"inputs": [
						{
							"internalType": "uint256",
							"name": "date",
							"type": "uint256"
						}
					],
					"name": "getDaysFromNow",
					"outputs": [
						{
							"internalType": "uint256",
							"name": "",
							"type": "uint256"
						}
					],
					"stateMutability": "view",
					"type": "function"
				},
				{
					"inputs": [],
					"name": "getNow",
					"outputs": [
						{
							"internalType": "uint256",
							"name": "",
							"type": "uint256"
						}
					],
					"stateMutability": "view",
					"type": "function"
				},
				{
					"inputs": [
						{
							"internalType": "uint256",
							"name": "date",
							"type": "uint256"
						}
					],
					"name": "setCurrentDate",
					"outputs": [],
					"stateMutability": "nonpayable",
					"type": "function"
				},
				{
					"inputs": [
						{
							"internalType": "uint256",
							"name": "timestamp",
							"type": "uint256"
						}
					],
					"name": "setNow",
					"outputs": [],
					"stateMutability": "nonpayable",
					"type": "function"
				}
			],
			"devdoc": {
				"kind": "dev",
				"methods": {},
				"version": 1
			},
			"evm": {
				"assembly": "    /* \"contracts/Clock.sol\":150:2757  contract Clock {... */\n  mstore(0x40, 0x80)\n  callvalue\n  dup1\n  iszero\n  tag_1\n  jumpi\n  0x00\n  dup1\n  revert\ntag_1:\n  pop\n  dataSize(sub_0)\n  dup1\n  dataOffset(sub_0)\n  0x00\n  codecopy\n  0x00\n  return\nstop\n\nsub_0: assembly {\n        /* \"contracts/Clock.sol\":150:2757  contract Clock {... */\n      mstore(0x40, 0x80)\n      callvalue\n      dup1\n      iszero\n      tag_1\n      jumpi\n      0x00\n      dup1\n      revert\n    tag_1:\n      pop\n      jumpi(tag_2, lt(calldatasize, 0x04))\n      shr(0xe0, calldataload(0x00))\n      dup1\n      0x32672302\n      eq\n      tag_3\n      jumpi\n      dup1\n      0x4bbb4a27\n      eq\n      tag_4\n      jumpi\n      dup1\n      0x9254d772\n      eq\n      tag_5\n      jumpi\n      dup1\n      0xbbe4fd50\n      eq\n      tag_6\n      jumpi\n      dup1\n      0xe380ae96\n      eq\n      tag_7\n      jumpi\n    tag_2:\n      0x00\n      dup1\n      revert\n        /* \"contracts/Clock.sol\":2372:2540  function getDaysFromNow(uint date) public view returns (uint256) {... */\n    tag_3:\n      tag_8\n      0x04\n      dup1\n      calldatasize\n      sub\n      dup2\n      add\n      swap1\n      tag_9\n      swap2\n      swap1\n      tag_10\n      jump\t// in\n    tag_9:\n      tag_11\n      jump\t// in\n    tag_8:\n      mload(0x40)\n      tag_12\n      swap2\n      swap1\n      tag_13\n      jump\t// in\n    tag_12:\n      mload(0x40)\n      dup1\n      swap2\n      sub\n      swap1\n      return\n        /* \"contracts/Clock.sol\":2636:2754  function setCurrentDate(uint date) public {... */\n    tag_4:\n      tag_14\n      0x04\n      dup1\n      calldatasize\n      sub\n      dup2\n      add\n      swap1\n      tag_15\n      swap2\n      swap1\n      tag_10\n      jump\t// in\n    tag_15:\n      tag_16\n      jump\t// in\n    tag_14:\n      stop\n        /* \"contracts/Clock.sol\":2114:2364  function getCurrentDate() public view returns (uint256 date) {... */\n    tag_5:\n      tag_17\n      tag_18\n      jump\t// in\n    tag_17:\n      mload(0x40)\n      tag_19\n      swap2\n      swap1\n      tag_13\n      jump\t// in\n    tag_19:\n      mload(0x40)\n      dup1\n      swap2\n      sub\n      swap1\n      return\n        /* \"contracts/Clock.sol\":1946:2106  function getNow() public view returns (uint) {... */\n    tag_6:\n      tag_20\n      tag_21\n      jump\t// in\n    tag_20:\n      mload(0x40)\n      tag_22\n      swap2\n      swap1\n      tag_13\n      jump\t// in\n    tag_22:\n      mload(0x40)\n      dup1\n      swap2\n      sub\n      swap1\n      return\n        /* \"contracts/Clock.sol\":2548:2628  function setNow(uint timestamp) public {... */\n    tag_7:\n      tag_23\n      0x04\n      dup1\n      calldatasize\n      sub\n      dup2\n      add\n      swap1\n      tag_24\n      swap2\n      swap1\n      tag_10\n      jump\t// in\n    tag_24:\n      tag_25\n      jump\t// in\n    tag_23:\n      stop\n        /* \"contracts/Clock.sol\":2372:2540  function getDaysFromNow(uint date) public view returns (uint256) {... */\n    tag_11:\n        /* \"contracts/Clock.sol\":2428:2435  uint256 */\n      0x00\n        /* \"contracts/Clock.sol\":2501:2532  _daysFromDateConcatenated(date) */\n      tag_27\n        /* \"contracts/Clock.sol\":2527:2531  date */\n      dup3\n        /* \"contracts/Clock.sol\":2501:2526  _daysFromDateConcatenated */\n      tag_28\n        /* \"contracts/Clock.sol\":2501:2532  _daysFromDateConcatenated(date) */\n      jump\t// in\n    tag_27:\n        /* \"contracts/Clock.sol\":2455:2498  _daysFromDateConcatenated(getCurrentDate()) */\n      tag_29\n        /* \"contracts/Clock.sol\":2481:2497  getCurrentDate() */\n      tag_30\n        /* \"contracts/Clock.sol\":2481:2495  getCurrentDate */\n      tag_18\n        /* \"contracts/Clock.sol\":2481:2497  getCurrentDate() */\n      jump\t// in\n    tag_30:\n        /* \"contracts/Clock.sol\":2455:2480  _daysFromDateConcatenated */\n      tag_28\n        /* \"contracts/Clock.sol\":2455:2498  _daysFromDateConcatenated(getCurrentDate()) */\n      jump\t// in\n    tag_29:\n        /* \"contracts/Clock.sol\":2455:2532  _daysFromDateConcatenated(getCurrentDate()) - _daysFromDateConcatenated(date) */\n      tag_31\n      swap2\n      swap1\n      tag_32\n      jump\t// in\n    tag_31:\n        /* \"contracts/Clock.sol\":2448:2532  return _daysFromDateConcatenated(getCurrentDate()) - _daysFromDateConcatenated(date) */\n      swap1\n      pop\n        /* \"contracts/Clock.sol\":2372:2540  function getDaysFromNow(uint date) public view returns (uint256) {... */\n      swap2\n      swap1\n      pop\n      jump\t// out\n        /* \"contracts/Clock.sol\":2636:2754  function setCurrentDate(uint date) public {... */\n    tag_16:\n        /* \"contracts/Clock.sol\":2689:2746  setNow(_daysFromDateConcatenated(date) * SECONDS_PER_DAY) */\n      tag_34\n        /* \"contracts/Clock.sol\":93:105  24 * 60 * 60 */\n      0x015180\n        /* \"contracts/Clock.sol\":2696:2727  _daysFromDateConcatenated(date) */\n      tag_35\n        /* \"contracts/Clock.sol\":2722:2726  date */\n      dup4\n        /* \"contracts/Clock.sol\":2696:2721  _daysFromDateConcatenated */\n      tag_28\n        /* \"contracts/Clock.sol\":2696:2727  _daysFromDateConcatenated(date) */\n      jump\t// in\n    tag_35:\n        /* \"contracts/Clock.sol\":2696:2745  _daysFromDateConcatenated(date) * SECONDS_PER_DAY */\n      tag_36\n      swap2\n      swap1\n      tag_37\n      jump\t// in\n    tag_36:\n        /* \"contracts/Clock.sol\":2689:2695  setNow */\n      tag_25\n        /* \"contracts/Clock.sol\":2689:2746  setNow(_daysFromDateConcatenated(date) * SECONDS_PER_DAY) */\n      jump\t// in\n    tag_34:\n        /* \"contracts/Clock.sol\":2636:2754  function setCurrentDate(uint date) public {... */\n      pop\n      jump\t// out\n        /* \"contracts/Clock.sol\":2114:2364  function getCurrentDate() public view returns (uint256 date) {... */\n    tag_18:\n        /* \"contracts/Clock.sol\":2161:2173  uint256 date */\n      0x00\n        /* \"contracts/Clock.sol\":2186:2195  uint year */\n      dup1\n        /* \"contracts/Clock.sol\":2206:2216  uint month */\n      0x00\n        /* \"contracts/Clock.sol\":2227:2235  uint day */\n      dup1\n        /* \"contracts/Clock.sol\":2267:2306  _daysToDate(getNow() / SECONDS_PER_DAY) */\n      tag_39\n        /* \"contracts/Clock.sol\":93:105  24 * 60 * 60 */\n      0x015180\n        /* \"contracts/Clock.sol\":2279:2287  getNow() */\n      tag_40\n        /* \"contracts/Clock.sol\":2279:2285  getNow */\n      tag_21\n        /* \"contracts/Clock.sol\":2279:2287  getNow() */\n      jump\t// in\n    tag_40:\n        /* \"contracts/Clock.sol\":2279:2305  getNow() / SECONDS_PER_DAY */\n      tag_41\n      swap2\n      swap1\n      tag_42\n      jump\t// in\n    tag_41:\n        /* \"contracts/Clock.sol\":2267:2278  _daysToDate */\n      tag_43\n        /* \"contracts/Clock.sol\":2267:2306  _daysToDate(getNow() / SECONDS_PER_DAY) */\n      jump\t// in\n    tag_39:\n        /* \"contracts/Clock.sol\":2246:2306  (year, month, day) = _daysToDate(getNow() / SECONDS_PER_DAY) */\n      dup1\n      swap4\n      pop\n      dup2\n      swap5\n      pop\n      dup3\n      swap6\n      pop\n      pop\n      pop\n      pop\n        /* \"contracts/Clock.sol\":2353:2356  day */\n      dup1\n        /* \"contracts/Clock.sol\":2347:2350  100 */\n      0x64\n        /* \"contracts/Clock.sol\":2339:2344  month */\n      dup4\n        /* \"contracts/Clock.sol\":2339:2350  month * 100 */\n      tag_44\n      swap2\n      swap1\n      tag_37\n      jump\t// in\n    tag_44:\n        /* \"contracts/Clock.sol\":2331:2336  10000 */\n      0x2710\n        /* \"contracts/Clock.sol\":2324:2328  year */\n      dup6\n        /* \"contracts/Clock.sol\":2324:2336  year * 10000 */\n      tag_45\n      swap2\n      swap1\n      tag_37\n      jump\t// in\n    tag_45:\n        /* \"contracts/Clock.sol\":2324:2350  year * 10000 + month * 100 */\n      tag_46\n      swap2\n      swap1\n      tag_47\n      jump\t// in\n    tag_46:\n        /* \"contracts/Clock.sol\":2324:2356  year * 10000 + month * 100 + day */\n      tag_48\n      swap2\n      swap1\n      tag_47\n      jump\t// in\n    tag_48:\n        /* \"contracts/Clock.sol\":2317:2356  date = year * 10000 + month * 100 + day */\n      swap4\n      pop\n        /* \"contracts/Clock.sol\":2175:2364  {... */\n      pop\n      pop\n      pop\n        /* \"contracts/Clock.sol\":2114:2364  function getCurrentDate() public view returns (uint256 date) {... */\n      swap1\n      jump\t// out\n        /* \"contracts/Clock.sol\":1946:2106  function getNow() public view returns (uint) {... */\n    tag_21:\n        /* \"contracts/Clock.sol\":1985:1989  uint */\n      0x00\n        /* \"contracts/Clock.sol\":2019:2020  0 */\n      dup1\n        /* \"contracts/Clock.sol\":2006:2016  _timestamp */\n      sload(0x00)\n        /* \"contracts/Clock.sol\":2006:2020  _timestamp > 0 */\n      gt\n        /* \"contracts/Clock.sol\":2002:2066  if (_timestamp > 0) {... */\n      iszero\n      tag_50\n      jumpi\n        /* \"contracts/Clock.sol\":2044:2054  _timestamp */\n      sload(0x00)\n        /* \"contracts/Clock.sol\":2037:2054  return _timestamp */\n      swap1\n      pop\n      jump(tag_49)\n        /* \"contracts/Clock.sol\":2002:2066  if (_timestamp > 0) {... */\n    tag_50:\n        /* \"contracts/Clock.sol\":2083:2098  block.timestamp */\n      timestamp\n        /* \"contracts/Clock.sol\":2076:2098  return block.timestamp */\n      swap1\n      pop\n        /* \"contracts/Clock.sol\":1946:2106  function getNow() public view returns (uint) {... */\n    tag_49:\n      swap1\n      jump\t// out\n        /* \"contracts/Clock.sol\":2548:2628  function setNow(uint timestamp) public {... */\n    tag_25:\n        /* \"contracts/Clock.sol\":2611:2620  timestamp */\n      dup1\n        /* \"contracts/Clock.sol\":2598:2608  _timestamp */\n      0x00\n        /* \"contracts/Clock.sol\":2598:2620  _timestamp = timestamp */\n      dup2\n      swap1\n      sstore\n      pop\n        /* \"contracts/Clock.sol\":2548:2628  function setNow(uint timestamp) public {... */\n      pop\n      jump\t// out\n        /* \"contracts/Clock.sol\":1382:1938  function _daysFromDateConcatenated(uint256 date)  internal pure returns  (uint256 _days) {... */\n    tag_28:\n        /* \"contracts/Clock.sol\":1456:1469  uint256 _days */\n      0x00\n        /* \"contracts/Clock.sol\":1498:1506  19710000 */\n      0x012cc030\n        /* \"contracts/Clock.sol\":1490:1494  date */\n      dup3\n        /* \"contracts/Clock.sol\":1490:1506  date >= 19710000 */\n      lt\n      iszero\n        /* \"contracts/Clock.sol\":1482:1507  require(date >= 19710000) */\n      tag_53\n      jumpi\n      0x00\n      dup1\n      revert\n    tag_53:\n        /* \"contracts/Clock.sol\":1518:1529  int256 _day */\n      0x00\n        /* \"contracts/Clock.sol\":1546:1549  100 */\n      0x64\n        /* \"contracts/Clock.sol\":1539:1543  date */\n      dup4\n        /* \"contracts/Clock.sol\":1539:1549  date % 100 */\n      tag_54\n      swap2\n      swap1\n      tag_55\n      jump\t// in\n    tag_54:\n        /* \"contracts/Clock.sol\":1518:1550  int256 _day = int256(date % 100) */\n      swap1\n      pop\n        /* \"contracts/Clock.sol\":1561:1574  int256 _month */\n      0x00\n        /* \"contracts/Clock.sol\":1599:1602  100 */\n      0x64\n        /* \"contracts/Clock.sol\":1592:1595  100 */\n      dup1\n        /* \"contracts/Clock.sol\":1585:1589  date */\n      dup6\n        /* \"contracts/Clock.sol\":1585:1595  date / 100 */\n      tag_56\n      swap2\n      swap1\n      tag_42\n      jump\t// in\n    tag_56:\n        /* \"contracts/Clock.sol\":1584:1602  (date / 100) % 100 */\n      tag_57\n      swap2\n      swap1\n      tag_55\n      jump\t// in\n    tag_57:\n        /* \"contracts/Clock.sol\":1561:1603  int256 _month = int256((date / 100) % 100) */\n      swap1\n      pop\n        /* \"contracts/Clock.sol\":1614:1626  int256 _year */\n      0x00\n        /* \"contracts/Clock.sol\":1643:1648  10000 */\n      0x2710\n        /* \"contracts/Clock.sol\":1636:1640  date */\n      dup6\n        /* \"contracts/Clock.sol\":1636:1648  date / 10000 */\n      tag_58\n      swap2\n      swap1\n      tag_42\n      jump\t// in\n    tag_58:\n        /* \"contracts/Clock.sol\":1614:1649  int256 _year = int256(date / 10000) */\n      swap1\n      pop\n        /* \"contracts/Clock.sol\":1660:1673  int256 __days */\n      0x00\n        /* \"contracts/Clock.sol\":138:145  2440588 */\n      0x253d8c\n        /* \"contracts/Clock.sol\":1876:1877  4 */\n      0x04\n        /* \"contracts/Clock.sol\":1868:1871  100 */\n      0x64\n        /* \"contracts/Clock.sol\":1862:1864  12 */\n      0x0c\n        /* \"contracts/Clock.sol\":1856:1858  14 */\n      0x0e\n        /* \"contracts/Clock.sol\":1847:1853  _month */\n      dup8\n        /* \"contracts/Clock.sol\":1847:1858  _month - 14 */\n      tag_59\n      swap2\n      swap1\n      tag_60\n      jump\t// in\n    tag_59:\n        /* \"contracts/Clock.sol\":1846:1864  (_month - 14) / 12 */\n      tag_61\n      swap2\n      swap1\n      tag_62\n      jump\t// in\n    tag_61:\n        /* \"contracts/Clock.sol\":1839:1843  4900 */\n      0x1324\n        /* \"contracts/Clock.sol\":1831:1836  _year */\n      dup7\n        /* \"contracts/Clock.sol\":1831:1843  _year + 4900 */\n      tag_63\n      swap2\n      swap1\n      tag_64\n      jump\t// in\n    tag_63:\n        /* \"contracts/Clock.sol\":1831:1864  _year + 4900 + (_month - 14) / 12 */\n      tag_65\n      swap2\n      swap1\n      tag_64\n      jump\t// in\n    tag_65:\n        /* \"contracts/Clock.sol\":1830:1871  (_year + 4900 + (_month - 14) / 12) / 100 */\n      tag_66\n      swap2\n      swap1\n      tag_62\n      jump\t// in\n    tag_66:\n        /* \"contracts/Clock.sol\":1825:1826  3 */\n      0x03\n        /* \"contracts/Clock.sol\":1825:1872  3 * ((_year + 4900 + (_month - 14) / 12) / 100) */\n      tag_67\n      swap2\n      swap1\n      tag_68\n      jump\t// in\n    tag_67:\n        /* \"contracts/Clock.sol\":1824:1877  (3 * ((_year + 4900 + (_month - 14) / 12) / 100)) / 4 */\n      tag_69\n      swap2\n      swap1\n      tag_62\n      jump\t// in\n    tag_69:\n        /* \"contracts/Clock.sol\":1806:1808  12 */\n      0x0c\n        /* \"contracts/Clock.sol\":1799:1801  12 */\n      dup1\n        /* \"contracts/Clock.sol\":1793:1795  12 */\n      0x0c\n        /* \"contracts/Clock.sol\":1787:1789  14 */\n      0x0e\n        /* \"contracts/Clock.sol\":1778:1784  _month */\n      dup9\n        /* \"contracts/Clock.sol\":1778:1789  _month - 14 */\n      tag_70\n      swap2\n      swap1\n      tag_60\n      jump\t// in\n    tag_70:\n        /* \"contracts/Clock.sol\":1777:1795  (_month - 14) / 12 */\n      tag_71\n      swap2\n      swap1\n      tag_62\n      jump\t// in\n    tag_71:\n        /* \"contracts/Clock.sol\":1776:1801  ((_month - 14) / 12) * 12 */\n      tag_72\n      swap2\n      swap1\n      tag_68\n      jump\t// in\n    tag_72:\n        /* \"contracts/Clock.sol\":1772:1773  2 */\n      0x02\n        /* \"contracts/Clock.sol\":1763:1769  _month */\n      dup8\n        /* \"contracts/Clock.sol\":1763:1773  _month - 2 */\n      tag_73\n      swap2\n      swap1\n      tag_60\n      jump\t// in\n    tag_73:\n        /* \"contracts/Clock.sol\":1763:1801  _month - 2 - ((_month - 14) / 12) * 12 */\n      tag_74\n      swap2\n      swap1\n      tag_60\n      jump\t// in\n    tag_74:\n        /* \"contracts/Clock.sol\":1756:1759  367 */\n      0x016f\n        /* \"contracts/Clock.sol\":1756:1802  367 * (_month - 2 - ((_month - 14) / 12) * 12) */\n      tag_75\n      swap2\n      swap1\n      tag_68\n      jump\t// in\n    tag_75:\n        /* \"contracts/Clock.sol\":1755:1808  (367 * (_month - 2 - ((_month - 14) / 12) * 12)) / 12 */\n      tag_76\n      swap2\n      swap1\n      tag_62\n      jump\t// in\n    tag_76:\n        /* \"contracts/Clock.sol\":1738:1739  4 */\n      0x04\n        /* \"contracts/Clock.sol\":1731:1733  12 */\n      0x0c\n        /* \"contracts/Clock.sol\":1725:1727  14 */\n      0x0e\n        /* \"contracts/Clock.sol\":1716:1722  _month */\n      dup9\n        /* \"contracts/Clock.sol\":1716:1727  _month - 14 */\n      tag_77\n      swap2\n      swap1\n      tag_60\n      jump\t// in\n    tag_77:\n        /* \"contracts/Clock.sol\":1715:1733  (_month - 14) / 12 */\n      tag_78\n      swap2\n      swap1\n      tag_62\n      jump\t// in\n    tag_78:\n        /* \"contracts/Clock.sol\":1708:1712  4800 */\n      0x12c0\n        /* \"contracts/Clock.sol\":1700:1705  _year */\n      dup8\n        /* \"contracts/Clock.sol\":1700:1712  _year + 4800 */\n      tag_79\n      swap2\n      swap1\n      tag_64\n      jump\t// in\n    tag_79:\n        /* \"contracts/Clock.sol\":1700:1733  _year + 4800 + (_month - 14) / 12 */\n      tag_80\n      swap2\n      swap1\n      tag_64\n      jump\t// in\n    tag_80:\n        /* \"contracts/Clock.sol\":1692:1696  1461 */\n      0x05b5\n        /* \"contracts/Clock.sol\":1692:1734  1461 * (_year + 4800 + (_month - 14) / 12) */\n      tag_81\n      swap2\n      swap1\n      tag_68\n      jump\t// in\n    tag_81:\n        /* \"contracts/Clock.sol\":1691:1739  (1461 * (_year + 4800 + (_month - 14) / 12)) / 4 */\n      tag_82\n      swap2\n      swap1\n      tag_62\n      jump\t// in\n    tag_82:\n        /* \"contracts/Clock.sol\":1683:1688  32075 */\n      0x7d4b\n        /* \"contracts/Clock.sol\":1676:1680  _day */\n      dup9\n        /* \"contracts/Clock.sol\":1676:1688  _day - 32075 */\n      tag_83\n      swap2\n      swap1\n      tag_60\n      jump\t// in\n    tag_83:\n        /* \"contracts/Clock.sol\":1676:1739  _day - 32075 + (1461 * (_year + 4800 + (_month - 14) / 12)) / 4 */\n      tag_84\n      swap2\n      swap1\n      tag_64\n      jump\t// in\n    tag_84:\n        /* \"contracts/Clock.sol\":1676:1808  _day - 32075 + (1461 * (_year + 4800 + (_month - 14) / 12)) / 4... */\n      tag_85\n      swap2\n      swap1\n      tag_64\n      jump\t// in\n    tag_85:\n        /* \"contracts/Clock.sol\":1676:1877  _day - 32075 + (1461 * (_year + 4800 + (_month - 14) / 12)) / 4... */\n      tag_86\n      swap2\n      swap1\n      tag_60\n      jump\t// in\n    tag_86:\n        /* \"contracts/Clock.sol\":1676:1894  _day - 32075 + (1461 * (_year + 4800 + (_month - 14) / 12)) / 4... */\n      tag_87\n      swap2\n      swap1\n      tag_60\n      jump\t// in\n    tag_87:\n        /* \"contracts/Clock.sol\":1660:1894  int256 __days = _day - 32075 + (1461 * (_year + 4800 + (_month - 14) / 12)) / 4... */\n      swap1\n      pop\n        /* \"contracts/Clock.sol\":1923:1929  __days */\n      dup1\n        /* \"contracts/Clock.sol\":1907:1930  _days = uint256(__days) */\n      swap5\n      pop\n        /* \"contracts/Clock.sol\":1471:1938  {... */\n      pop\n      pop\n      pop\n      pop\n        /* \"contracts/Clock.sol\":1382:1938  function _daysFromDateConcatenated(uint256 date)  internal pure returns  (uint256 _days) {... */\n      swap2\n      swap1\n      pop\n      jump\t// out\n        /* \"contracts/Clock.sol\":204:826  function _daysToDate(uint _days) internal pure returns (uint year, uint month, uint day) {... */\n    tag_43:\n        /* \"contracts/Clock.sol\":260:269  uint year */\n      0x00\n        /* \"contracts/Clock.sol\":271:281  uint month */\n      dup1\n        /* \"contracts/Clock.sol\":283:291  uint day */\n      0x00\n        /* \"contracts/Clock.sol\":304:314  int __days */\n      dup1\n        /* \"contracts/Clock.sol\":321:326  _days */\n      dup5\n        /* \"contracts/Clock.sol\":304:327  int __days = int(_days) */\n      swap1\n      pop\n        /* \"contracts/Clock.sol\":340:345  int L */\n      0x00\n        /* \"contracts/Clock.sol\":138:145  2440588 */\n      0x253d8c\n        /* \"contracts/Clock.sol\":357:362  68569 */\n      0x010bd9\n        /* \"contracts/Clock.sol\":348:354  __days */\n      dup4\n        /* \"contracts/Clock.sol\":348:362  __days + 68569 */\n      tag_89\n      swap2\n      swap1\n      tag_64\n      jump\t// in\n    tag_89:\n        /* \"contracts/Clock.sol\":348:379  __days + 68569 + OFFSET19700101 */\n      tag_90\n      swap2\n      swap1\n      tag_64\n      jump\t// in\n    tag_90:\n        /* \"contracts/Clock.sol\":340:379  int L = __days + 68569 + OFFSET19700101 */\n      swap1\n      pop\n        /* \"contracts/Clock.sol\":390:395  int N */\n      0x00\n        /* \"contracts/Clock.sol\":406:412  146097 */\n      0x023ab1\n        /* \"contracts/Clock.sol\":402:403  L */\n      dup3\n        /* \"contracts/Clock.sol\":398:399  4 */\n      0x04\n        /* \"contracts/Clock.sol\":398:403  4 * L */\n      tag_91\n      swap2\n      swap1\n      tag_68\n      jump\t// in\n    tag_91:\n        /* \"contracts/Clock.sol\":398:412  4 * L / 146097 */\n      tag_92\n      swap2\n      swap1\n      tag_62\n      jump\t// in\n    tag_92:\n        /* \"contracts/Clock.sol\":390:412  int N = 4 * L / 146097 */\n      swap1\n      pop\n        /* \"contracts/Clock.sol\":450:451  4 */\n      0x04\n        /* \"contracts/Clock.sol\":445:446  3 */\n      0x03\n        /* \"contracts/Clock.sol\":441:442  N */\n      dup3\n        /* \"contracts/Clock.sol\":432:438  146097 */\n      0x023ab1\n        /* \"contracts/Clock.sol\":432:442  146097 * N */\n      tag_93\n      swap2\n      swap1\n      tag_68\n      jump\t// in\n    tag_93:\n        /* \"contracts/Clock.sol\":432:446  146097 * N + 3 */\n      tag_94\n      swap2\n      swap1\n      tag_64\n      jump\t// in\n    tag_94:\n        /* \"contracts/Clock.sol\":431:451  (146097 * N + 3) / 4 */\n      tag_95\n      swap2\n      swap1\n      tag_62\n      jump\t// in\n    tag_95:\n        /* \"contracts/Clock.sol\":427:428  L */\n      dup3\n        /* \"contracts/Clock.sol\":427:451  L - (146097 * N + 3) / 4 */\n      tag_96\n      swap2\n      swap1\n      tag_60\n      jump\t// in\n    tag_96:\n        /* \"contracts/Clock.sol\":423:451  L = L - (146097 * N + 3) / 4 */\n      swap2\n      pop\n        /* \"contracts/Clock.sol\":462:471  int _year */\n      0x00\n        /* \"contracts/Clock.sol\":491:498  1461001 */\n      0x164b09\n        /* \"contracts/Clock.sol\":486:487  1 */\n      0x01\n        /* \"contracts/Clock.sol\":482:483  L */\n      dup5\n        /* \"contracts/Clock.sol\":482:487  L + 1 */\n      tag_97\n      swap2\n      swap1\n      tag_64\n      jump\t// in\n    tag_97:\n        /* \"contracts/Clock.sol\":474:478  4000 */\n      0x0fa0\n        /* \"contracts/Clock.sol\":474:488  4000 * (L + 1) */\n      tag_98\n      swap2\n      swap1\n      tag_68\n      jump\t// in\n    tag_98:\n        /* \"contracts/Clock.sol\":474:498  4000 * (L + 1) / 1461001 */\n      tag_99\n      swap2\n      swap1\n      tag_62\n      jump\t// in\n    tag_99:\n        /* \"contracts/Clock.sol\":462:498  int _year = 4000 * (L + 1) / 1461001 */\n      swap1\n      pop\n        /* \"contracts/Clock.sol\":536:538  31 */\n      0x1f\n        /* \"contracts/Clock.sol\":532:533  4 */\n      0x04\n        /* \"contracts/Clock.sol\":524:529  _year */\n      dup3\n        /* \"contracts/Clock.sol\":517:521  1461 */\n      0x05b5\n        /* \"contracts/Clock.sol\":517:529  1461 * _year */\n      tag_100\n      swap2\n      swap1\n      tag_68\n      jump\t// in\n    tag_100:\n        /* \"contracts/Clock.sol\":517:533  1461 * _year / 4 */\n      tag_101\n      swap2\n      swap1\n      tag_62\n      jump\t// in\n    tag_101:\n        /* \"contracts/Clock.sol\":513:514  L */\n      dup5\n        /* \"contracts/Clock.sol\":513:533  L - 1461 * _year / 4 */\n      tag_102\n      swap2\n      swap1\n      tag_60\n      jump\t// in\n    tag_102:\n        /* \"contracts/Clock.sol\":513:538  L - 1461 * _year / 4 + 31 */\n      tag_103\n      swap2\n      swap1\n      tag_64\n      jump\t// in\n    tag_103:\n        /* \"contracts/Clock.sol\":509:538  L = L - 1461 * _year / 4 + 31 */\n      swap3\n      pop\n        /* \"contracts/Clock.sol\":549:559  int _month */\n      0x00\n        /* \"contracts/Clock.sol\":571:575  2447 */\n      0x098f\n        /* \"contracts/Clock.sol\":567:568  L */\n      dup5\n        /* \"contracts/Clock.sol\":562:564  80 */\n      0x50\n        /* \"contracts/Clock.sol\":562:568  80 * L */\n      tag_104\n      swap2\n      swap1\n      tag_68\n      jump\t// in\n    tag_104:\n        /* \"contracts/Clock.sol\":562:575  80 * L / 2447 */\n      tag_105\n      swap2\n      swap1\n      tag_62\n      jump\t// in\n    tag_105:\n        /* \"contracts/Clock.sol\":549:575  int _month = 80 * L / 2447 */\n      swap1\n      pop\n        /* \"contracts/Clock.sol\":586:594  int _day */\n      0x00\n        /* \"contracts/Clock.sol\":617:619  80 */\n      0x50\n        /* \"contracts/Clock.sol\":608:614  _month */\n      dup3\n        /* \"contracts/Clock.sol\":601:605  2447 */\n      0x098f\n        /* \"contracts/Clock.sol\":601:614  2447 * _month */\n      tag_106\n      swap2\n      swap1\n      tag_68\n      jump\t// in\n    tag_106:\n        /* \"contracts/Clock.sol\":601:619  2447 * _month / 80 */\n      tag_107\n      swap2\n      swap1\n      tag_62\n      jump\t// in\n    tag_107:\n        /* \"contracts/Clock.sol\":597:598  L */\n      dup6\n        /* \"contracts/Clock.sol\":597:619  L - 2447 * _month / 80 */\n      tag_108\n      swap2\n      swap1\n      tag_60\n      jump\t// in\n    tag_108:\n        /* \"contracts/Clock.sol\":586:619  int _day = L - 2447 * _month / 80 */\n      swap1\n      pop\n        /* \"contracts/Clock.sol\":643:645  11 */\n      0x0b\n        /* \"contracts/Clock.sol\":634:640  _month */\n      dup3\n        /* \"contracts/Clock.sol\":634:645  _month / 11 */\n      tag_109\n      swap2\n      swap1\n      tag_62\n      jump\t// in\n    tag_109:\n        /* \"contracts/Clock.sol\":630:645  L = _month / 11 */\n      swap5\n      pop\n        /* \"contracts/Clock.sol\":683:684  L */\n      dup5\n        /* \"contracts/Clock.sol\":678:680  12 */\n      0x0c\n        /* \"contracts/Clock.sol\":678:684  12 * L */\n      tag_110\n      swap2\n      swap1\n      tag_68\n      jump\t// in\n    tag_110:\n        /* \"contracts/Clock.sol\":674:675  2 */\n      0x02\n        /* \"contracts/Clock.sol\":665:671  _month */\n      dup4\n        /* \"contracts/Clock.sol\":665:675  _month + 2 */\n      tag_111\n      swap2\n      swap1\n      tag_64\n      jump\t// in\n    tag_111:\n        /* \"contracts/Clock.sol\":665:684  _month + 2 - 12 * L */\n      tag_112\n      swap2\n      swap1\n      tag_60\n      jump\t// in\n    tag_112:\n        /* \"contracts/Clock.sol\":656:684  _month = _month + 2 - 12 * L */\n      swap2\n      pop\n        /* \"contracts/Clock.sol\":728:729  L */\n      dup5\n        /* \"contracts/Clock.sol\":720:725  _year */\n      dup4\n        /* \"contracts/Clock.sol\":714:716  49 */\n      0x31\n        /* \"contracts/Clock.sol\":710:711  N */\n      dup7\n        /* \"contracts/Clock.sol\":710:716  N - 49 */\n      tag_113\n      swap2\n      swap1\n      tag_60\n      jump\t// in\n    tag_113:\n        /* \"contracts/Clock.sol\":703:706  100 */\n      0x64\n        /* \"contracts/Clock.sol\":703:717  100 * (N - 49) */\n      tag_114\n      swap2\n      swap1\n      tag_68\n      jump\t// in\n    tag_114:\n        /* \"contracts/Clock.sol\":703:725  100 * (N - 49) + _year */\n      tag_115\n      swap2\n      swap1\n      tag_64\n      jump\t// in\n    tag_115:\n        /* \"contracts/Clock.sol\":703:729  100 * (N - 49) + _year + L */\n      tag_116\n      swap2\n      swap1\n      tag_64\n      jump\t// in\n    tag_116:\n        /* \"contracts/Clock.sol\":695:729  _year = 100 * (N - 49) + _year + L */\n      swap3\n      pop\n        /* \"contracts/Clock.sol\":754:759  _year */\n      dup3\n        /* \"contracts/Clock.sol\":742:760  year = uint(_year) */\n      swap9\n      pop\n        /* \"contracts/Clock.sol\":784:790  _month */\n      dup2\n        /* \"contracts/Clock.sol\":771:791  month = uint(_month) */\n      swap8\n      pop\n        /* \"contracts/Clock.sol\":813:817  _day */\n      dup1\n        /* \"contracts/Clock.sol\":802:818  day = uint(_day) */\n      swap7\n      pop\n        /* \"contracts/Clock.sol\":293:826  {... */\n      pop\n      pop\n      pop\n      pop\n      pop\n      pop\n        /* \"contracts/Clock.sol\":204:826  function _daysToDate(uint _days) internal pure returns (uint year, uint month, uint day) {... */\n      swap2\n      swap4\n      swap1\n      swap3\n      pop\n      jump\t// out\n        /* \"#utility.yul\":88:205   */\n    tag_118:\n        /* \"#utility.yul\":197:198   */\n      0x00\n        /* \"#utility.yul\":194:195   */\n      dup1\n        /* \"#utility.yul\":187:199   */\n      revert\n        /* \"#utility.yul\":334:411   */\n    tag_120:\n        /* \"#utility.yul\":371:378   */\n      0x00\n        /* \"#utility.yul\":400:405   */\n      dup2\n        /* \"#utility.yul\":389:405   */\n      swap1\n      pop\n        /* \"#utility.yul\":334:411   */\n      swap2\n      swap1\n      pop\n      jump\t// out\n        /* \"#utility.yul\":417:539   */\n    tag_121:\n        /* \"#utility.yul\":490:514   */\n      tag_133\n        /* \"#utility.yul\":508:513   */\n      dup2\n        /* \"#utility.yul\":490:514   */\n      tag_120\n      jump\t// in\n    tag_133:\n        /* \"#utility.yul\":483:488   */\n      dup2\n        /* \"#utility.yul\":480:515   */\n      eq\n        /* \"#utility.yul\":470:533   */\n      tag_134\n      jumpi\n        /* \"#utility.yul\":529:530   */\n      0x00\n        /* \"#utility.yul\":526:527   */\n      dup1\n        /* \"#utility.yul\":519:531   */\n      revert\n        /* \"#utility.yul\":470:533   */\n    tag_134:\n        /* \"#utility.yul\":417:539   */\n      pop\n      jump\t// out\n        /* \"#utility.yul\":545:684   */\n    tag_122:\n        /* \"#utility.yul\":591:596   */\n      0x00\n        /* \"#utility.yul\":629:635   */\n      dup2\n        /* \"#utility.yul\":616:636   */\n      calldataload\n        /* \"#utility.yul\":607:636   */\n      swap1\n      pop\n        /* \"#utility.yul\":645:678   */\n      tag_136\n        /* \"#utility.yul\":672:677   */\n      dup2\n        /* \"#utility.yul\":645:678   */\n      tag_121\n      jump\t// in\n    tag_136:\n        /* \"#utility.yul\":545:684   */\n      swap3\n      swap2\n      pop\n      pop\n      jump\t// out\n        /* \"#utility.yul\":690:1019   */\n    tag_10:\n        /* \"#utility.yul\":749:755   */\n      0x00\n        /* \"#utility.yul\":798:800   */\n      0x20\n        /* \"#utility.yul\":786:795   */\n      dup3\n        /* \"#utility.yul\":777:784   */\n      dup5\n        /* \"#utility.yul\":773:796   */\n      sub\n        /* \"#utility.yul\":769:801   */\n      slt\n        /* \"#utility.yul\":766:885   */\n      iszero\n      tag_138\n      jumpi\n        /* \"#utility.yul\":804:883   */\n      tag_139\n      tag_118\n      jump\t// in\n    tag_139:\n        /* \"#utility.yul\":766:885   */\n    tag_138:\n        /* \"#utility.yul\":924:925   */\n      0x00\n        /* \"#utility.yul\":949:1002   */\n      tag_140\n        /* \"#utility.yul\":994:1001   */\n      dup5\n        /* \"#utility.yul\":985:991   */\n      dup3\n        /* \"#utility.yul\":974:983   */\n      dup6\n        /* \"#utility.yul\":970:992   */\n      add\n        /* \"#utility.yul\":949:1002   */\n      tag_122\n      jump\t// in\n    tag_140:\n        /* \"#utility.yul\":939:1002   */\n      swap2\n      pop\n        /* \"#utility.yul\":895:1012   */\n      pop\n        /* \"#utility.yul\":690:1019   */\n      swap3\n      swap2\n      pop\n      pop\n      jump\t// out\n        /* \"#utility.yul\":1025:1143   */\n    tag_123:\n        /* \"#utility.yul\":1112:1136   */\n      tag_142\n        /* \"#utility.yul\":1130:1135   */\n      dup2\n        /* \"#utility.yul\":1112:1136   */\n      tag_120\n      jump\t// in\n    tag_142:\n        /* \"#utility.yul\":1107:1110   */\n      dup3\n        /* \"#utility.yul\":1100:1137   */\n      mstore\n        /* \"#utility.yul\":1025:1143   */\n      pop\n      pop\n      jump\t// out\n        /* \"#utility.yul\":1149:1371   */\n    tag_13:\n        /* \"#utility.yul\":1242:1246   */\n      0x00\n        /* \"#utility.yul\":1280:1282   */\n      0x20\n        /* \"#utility.yul\":1269:1278   */\n      dup3\n        /* \"#utility.yul\":1265:1283   */\n      add\n        /* \"#utility.yul\":1257:1283   */\n      swap1\n      pop\n        /* \"#utility.yul\":1293:1364   */\n      tag_144\n        /* \"#utility.yul\":1361:1362   */\n      0x00\n        /* \"#utility.yul\":1350:1359   */\n      dup4\n        /* \"#utility.yul\":1346:1363   */\n      add\n        /* \"#utility.yul\":1337:1343   */\n      dup5\n        /* \"#utility.yul\":1293:1364   */\n      tag_123\n      jump\t// in\n    tag_144:\n        /* \"#utility.yul\":1149:1371   */\n      swap3\n      swap2\n      pop\n      pop\n      jump\t// out\n        /* \"#utility.yul\":1377:1557   */\n    tag_124:\n        /* \"#utility.yul\":1425:1502   */\n      0x4e487b7100000000000000000000000000000000000000000000000000000000\n        /* \"#utility.yul\":1422:1423   */\n      0x00\n        /* \"#utility.yul\":1415:1503   */\n      mstore\n        /* \"#utility.yul\":1522:1526   */\n      0x11\n        /* \"#utility.yul\":1519:1520   */\n      0x04\n        /* \"#utility.yul\":1512:1527   */\n      mstore\n        /* \"#utility.yul\":1546:1550   */\n      0x24\n        /* \"#utility.yul\":1543:1544   */\n      0x00\n        /* \"#utility.yul\":1536:1551   */\n      revert\n        /* \"#utility.yul\":1563:1757   */\n    tag_32:\n        /* \"#utility.yul\":1603:1607   */\n      0x00\n        /* \"#utility.yul\":1623:1643   */\n      tag_147\n        /* \"#utility.yul\":1641:1642   */\n      dup3\n        /* \"#utility.yul\":1623:1643   */\n      tag_120\n      jump\t// in\n    tag_147:\n        /* \"#utility.yul\":1618:1643   */\n      swap2\n      pop\n        /* \"#utility.yul\":1657:1677   */\n      tag_148\n        /* \"#utility.yul\":1675:1676   */\n      dup4\n        /* \"#utility.yul\":1657:1677   */\n      tag_120\n      jump\t// in\n    tag_148:\n        /* \"#utility.yul\":1652:1677   */\n      swap3\n      pop\n        /* \"#utility.yul\":1701:1702   */\n      dup3\n        /* \"#utility.yul\":1698:1699   */\n      dup3\n        /* \"#utility.yul\":1694:1703   */\n      sub\n        /* \"#utility.yul\":1686:1703   */\n      swap1\n      pop\n        /* \"#utility.yul\":1725:1726   */\n      dup2\n        /* \"#utility.yul\":1719:1723   */\n      dup2\n        /* \"#utility.yul\":1716:1727   */\n      gt\n        /* \"#utility.yul\":1713:1750   */\n      iszero\n      tag_149\n      jumpi\n        /* \"#utility.yul\":1730:1748   */\n      tag_150\n      tag_124\n      jump\t// in\n    tag_150:\n        /* \"#utility.yul\":1713:1750   */\n    tag_149:\n        /* \"#utility.yul\":1563:1757   */\n      swap3\n      swap2\n      pop\n      pop\n      jump\t// out\n        /* \"#utility.yul\":1763:2173   */\n    tag_37:\n        /* \"#utility.yul\":1803:1810   */\n      0x00\n        /* \"#utility.yul\":1826:1846   */\n      tag_152\n        /* \"#utility.yul\":1844:1845   */\n      dup3\n        /* \"#utility.yul\":1826:1846   */\n      tag_120\n      jump\t// in\n    tag_152:\n        /* \"#utility.yul\":1821:1846   */\n      swap2\n      pop\n        /* \"#utility.yul\":1860:1880   */\n      tag_153\n        /* \"#utility.yul\":1878:1879   */\n      dup4\n        /* \"#utility.yul\":1860:1880   */\n      tag_120\n      jump\t// in\n    tag_153:\n        /* \"#utility.yul\":1855:1880   */\n      swap3\n      pop\n        /* \"#utility.yul\":1915:1916   */\n      dup3\n        /* \"#utility.yul\":1912:1913   */\n      dup3\n        /* \"#utility.yul\":1908:1917   */\n      mul\n        /* \"#utility.yul\":1937:1967   */\n      tag_154\n        /* \"#utility.yul\":1955:1966   */\n      dup2\n        /* \"#utility.yul\":1937:1967   */\n      tag_120\n      jump\t// in\n    tag_154:\n        /* \"#utility.yul\":1926:1967   */\n      swap2\n      pop\n        /* \"#utility.yul\":2116:2117   */\n      dup3\n        /* \"#utility.yul\":2107:2114   */\n      dup3\n        /* \"#utility.yul\":2103:2118   */\n      div\n        /* \"#utility.yul\":2100:2101   */\n      dup5\n        /* \"#utility.yul\":2097:2119   */\n      eq\n        /* \"#utility.yul\":2077:2078   */\n      dup4\n        /* \"#utility.yul\":2070:2079   */\n      iszero\n        /* \"#utility.yul\":2050:2133   */\n      or\n        /* \"#utility.yul\":2027:2166   */\n      tag_155\n      jumpi\n        /* \"#utility.yul\":2146:2164   */\n      tag_156\n      tag_124\n      jump\t// in\n    tag_156:\n        /* \"#utility.yul\":2027:2166   */\n    tag_155:\n        /* \"#utility.yul\":1811:2173   */\n      pop\n        /* \"#utility.yul\":1763:2173   */\n      swap3\n      swap2\n      pop\n      pop\n      jump\t// out\n        /* \"#utility.yul\":2179:2359   */\n    tag_125:\n        /* \"#utility.yul\":2227:2304   */\n      0x4e487b7100000000000000000000000000000000000000000000000000000000\n        /* \"#utility.yul\":2224:2225   */\n      0x00\n        /* \"#utility.yul\":2217:2305   */\n      mstore\n        /* \"#utility.yul\":2324:2328   */\n      0x12\n        /* \"#utility.yul\":2321:2322   */\n      0x04\n        /* \"#utility.yul\":2314:2329   */\n      mstore\n        /* \"#utility.yul\":2348:2352   */\n      0x24\n        /* \"#utility.yul\":2345:2346   */\n      0x00\n        /* \"#utility.yul\":2338:2353   */\n      revert\n        /* \"#utility.yul\":2365:2550   */\n    tag_42:\n        /* \"#utility.yul\":2405:2406   */\n      0x00\n        /* \"#utility.yul\":2422:2442   */\n      tag_159\n        /* \"#utility.yul\":2440:2441   */\n      dup3\n        /* \"#utility.yul\":2422:2442   */\n      tag_120\n      jump\t// in\n    tag_159:\n        /* \"#utility.yul\":2417:2442   */\n      swap2\n      pop\n        /* \"#utility.yul\":2456:2476   */\n      tag_160\n        /* \"#utility.yul\":2474:2475   */\n      dup4\n        /* \"#utility.yul\":2456:2476   */\n      tag_120\n      jump\t// in\n    tag_160:\n        /* \"#utility.yul\":2451:2476   */\n      swap3\n      pop\n        /* \"#utility.yul\":2495:2496   */\n      dup3\n        /* \"#utility.yul\":2485:2520   */\n      tag_161\n      jumpi\n        /* \"#utility.yul\":2500:2518   */\n      tag_162\n      tag_125\n      jump\t// in\n    tag_162:\n        /* \"#utility.yul\":2485:2520   */\n    tag_161:\n        /* \"#utility.yul\":2542:2543   */\n      dup3\n        /* \"#utility.yul\":2539:2540   */\n      dup3\n        /* \"#utility.yul\":2535:2544   */\n      div\n        /* \"#utility.yul\":2530:2544   */\n      swap1\n      pop\n        /* \"#utility.yul\":2365:2550   */\n      swap3\n      swap2\n      pop\n      pop\n      jump\t// out\n        /* \"#utility.yul\":2556:2747   */\n    tag_47:\n        /* \"#utility.yul\":2596:2599   */\n      0x00\n        /* \"#utility.yul\":2615:2635   */\n      tag_164\n        /* \"#utility.yul\":2633:2634   */\n      dup3\n        /* \"#utility.yul\":2615:2635   */\n      tag_120\n      jump\t// in\n    tag_164:\n        /* \"#utility.yul\":2610:2635   */\n      swap2\n      pop\n        /* \"#utility.yul\":2649:2669   */\n      tag_165\n        /* \"#utility.yul\":2667:2668   */\n      dup4\n        /* \"#utility.yul\":2649:2669   */\n      tag_120\n      jump\t// in\n    tag_165:\n        /* \"#utility.yul\":2644:2669   */\n      swap3\n      pop\n        /* \"#utility.yul\":2692:2693   */\n      dup3\n        /* \"#utility.yul\":2689:2690   */\n      dup3\n        /* \"#utility.yul\":2685:2694   */\n      add\n        /* \"#utility.yul\":2678:2694   */\n      swap1\n      pop\n        /* \"#utility.yul\":2713:2716   */\n      dup1\n        /* \"#utility.yul\":2710:2711   */\n      dup3\n        /* \"#utility.yul\":2707:2717   */\n      gt\n        /* \"#utility.yul\":2704:2740   */\n      iszero\n      tag_166\n      jumpi\n        /* \"#utility.yul\":2720:2738   */\n      tag_167\n      tag_124\n      jump\t// in\n    tag_167:\n        /* \"#utility.yul\":2704:2740   */\n    tag_166:\n        /* \"#utility.yul\":2556:2747   */\n      swap3\n      swap2\n      pop\n      pop\n      jump\t// out\n        /* \"#utility.yul\":2753:2929   */\n    tag_55:\n        /* \"#utility.yul\":2785:2786   */\n      0x00\n        /* \"#utility.yul\":2802:2822   */\n      tag_169\n        /* \"#utility.yul\":2820:2821   */\n      dup3\n        /* \"#utility.yul\":2802:2822   */\n      tag_120\n      jump\t// in\n    tag_169:\n        /* \"#utility.yul\":2797:2822   */\n      swap2\n      pop\n        /* \"#utility.yul\":2836:2856   */\n      tag_170\n        /* \"#utility.yul\":2854:2855   */\n      dup4\n        /* \"#utility.yul\":2836:2856   */\n      tag_120\n      jump\t// in\n    tag_170:\n        /* \"#utility.yul\":2831:2856   */\n      swap3\n      pop\n        /* \"#utility.yul\":2875:2876   */\n      dup3\n        /* \"#utility.yul\":2865:2900   */\n      tag_171\n      jumpi\n        /* \"#utility.yul\":2880:2898   */\n      tag_172\n      tag_125\n      jump\t// in\n    tag_172:\n        /* \"#utility.yul\":2865:2900   */\n    tag_171:\n        /* \"#utility.yul\":2921:2922   */\n      dup3\n        /* \"#utility.yul\":2918:2919   */\n      dup3\n        /* \"#utility.yul\":2914:2923   */\n      mod\n        /* \"#utility.yul\":2909:2923   */\n      swap1\n      pop\n        /* \"#utility.yul\":2753:2929   */\n      swap3\n      swap2\n      pop\n      pop\n      jump\t// out\n        /* \"#utility.yul\":2935:3011   */\n    tag_126:\n        /* \"#utility.yul\":2971:2978   */\n      0x00\n        /* \"#utility.yul\":3000:3005   */\n      dup2\n        /* \"#utility.yul\":2989:3005   */\n      swap1\n      pop\n        /* \"#utility.yul\":2935:3011   */\n      swap2\n      swap1\n      pop\n      jump\t// out\n        /* \"#utility.yul\":3017:3389   */\n    tag_60:\n        /* \"#utility.yul\":3056:3060   */\n      0x00\n        /* \"#utility.yul\":3076:3095   */\n      tag_175\n        /* \"#utility.yul\":3093:3094   */\n      dup3\n        /* \"#utility.yul\":3076:3095   */\n      tag_126\n      jump\t// in\n    tag_175:\n        /* \"#utility.yul\":3071:3095   */\n      swap2\n      pop\n        /* \"#utility.yul\":3109:3128   */\n      tag_176\n        /* \"#utility.yul\":3126:3127   */\n      dup4\n        /* \"#utility.yul\":3109:3128   */\n      tag_126\n      jump\t// in\n    tag_176:\n        /* \"#utility.yul\":3104:3128   */\n      swap3\n      pop\n        /* \"#utility.yul\":3152:3153   */\n      dup3\n        /* \"#utility.yul\":3149:3150   */\n      dup3\n        /* \"#utility.yul\":3145:3154   */\n      sub\n        /* \"#utility.yul\":3137:3154   */\n      swap1\n      pop\n        /* \"#utility.yul\":3346:3347   */\n      dup2\n        /* \"#utility.yul\":3340:3344   */\n      dup2\n        /* \"#utility.yul\":3336:3348   */\n      slt\n        /* \"#utility.yul\":3332:3333   */\n      0x00\n        /* \"#utility.yul\":3329:3330   */\n      dup5\n        /* \"#utility.yul\":3325:3334   */\n      slt\n        /* \"#utility.yul\":3321:3349   */\n      and\n        /* \"#utility.yul\":3304:3305   */\n      dup3\n        /* \"#utility.yul\":3298:3302   */\n      dup3\n        /* \"#utility.yul\":3294:3306   */\n      sgt\n        /* \"#utility.yul\":3289:3290   */\n      0x00\n        /* \"#utility.yul\":3286:3287   */\n      dup6\n        /* \"#utility.yul\":3282:3291   */\n      slt\n        /* \"#utility.yul\":3275:3292   */\n      iszero\n        /* \"#utility.yul\":3271:3307   */\n      and\n        /* \"#utility.yul\":3255:3359   */\n      or\n        /* \"#utility.yul\":3252:3382   */\n      iszero\n      tag_177\n      jumpi\n        /* \"#utility.yul\":3362:3380   */\n      tag_178\n      tag_124\n      jump\t// in\n    tag_178:\n        /* \"#utility.yul\":3252:3382   */\n    tag_177:\n        /* \"#utility.yul\":3017:3389   */\n      swap3\n      swap2\n      pop\n      pop\n      jump\t// out\n        /* \"#utility.yul\":3395:3780   */\n    tag_62:\n        /* \"#utility.yul\":3434:3435   */\n      0x00\n        /* \"#utility.yul\":3451:3470   */\n      tag_180\n        /* \"#utility.yul\":3468:3469   */\n      dup3\n        /* \"#utility.yul\":3451:3470   */\n      tag_126\n      jump\t// in\n    tag_180:\n        /* \"#utility.yul\":3446:3470   */\n      swap2\n      pop\n        /* \"#utility.yul\":3484:3503   */\n      tag_181\n        /* \"#utility.yul\":3501:3502   */\n      dup4\n        /* \"#utility.yul\":3484:3503   */\n      tag_126\n      jump\t// in\n    tag_181:\n        /* \"#utility.yul\":3479:3503   */\n      swap3\n      pop\n        /* \"#utility.yul\":3522:3523   */\n      dup3\n        /* \"#utility.yul\":3512:3547   */\n      tag_182\n      jumpi\n        /* \"#utility.yul\":3527:3545   */\n      tag_183\n      tag_125\n      jump\t// in\n    tag_183:\n        /* \"#utility.yul\":3512:3547   */\n    tag_182:\n        /* \"#utility.yul\":3713:3714   */\n      0x01\n        /* \"#utility.yul\":3710:3711   */\n      0x00\n        /* \"#utility.yul\":3706:3715   */\n      sub\n        /* \"#utility.yul\":3703:3704   */\n      dup4\n        /* \"#utility.yul\":3700:3716   */\n      eq\n        /* \"#utility.yul\":3619:3685   */\n      0x8000000000000000000000000000000000000000000000000000000000000000\n        /* \"#utility.yul\":3616:3617   */\n      dup4\n        /* \"#utility.yul\":3613:3686   */\n      eq\n        /* \"#utility.yul\":3596:3726   */\n      and\n        /* \"#utility.yul\":3593:3749   */\n      iszero\n      tag_184\n      jumpi\n        /* \"#utility.yul\":3729:3747   */\n      tag_185\n      tag_124\n      jump\t// in\n    tag_185:\n        /* \"#utility.yul\":3593:3749   */\n    tag_184:\n        /* \"#utility.yul\":3772:3773   */\n      dup3\n        /* \"#utility.yul\":3769:3770   */\n      dup3\n        /* \"#utility.yul\":3764:3774   */\n      sdiv\n        /* \"#utility.yul\":3759:3774   */\n      swap1\n      pop\n        /* \"#utility.yul\":3395:3780   */\n      swap3\n      swap2\n      pop\n      pop\n      jump\t// out\n        /* \"#utility.yul\":3786:4161   */\n    tag_64:\n        /* \"#utility.yul\":3825:3828   */\n      0x00\n        /* \"#utility.yul\":3844:3863   */\n      tag_187\n        /* \"#utility.yul\":3861:3862   */\n      dup3\n        /* \"#utility.yul\":3844:3863   */\n      tag_126\n      jump\t// in\n    tag_187:\n        /* \"#utility.yul\":3839:3863   */\n      swap2\n      pop\n        /* \"#utility.yul\":3877:3896   */\n      tag_188\n        /* \"#utility.yul\":3894:3895   */\n      dup4\n        /* \"#utility.yul\":3877:3896   */\n      tag_126\n      jump\t// in\n    tag_188:\n        /* \"#utility.yul\":3872:3896   */\n      swap3\n      pop\n        /* \"#utility.yul\":3919:3920   */\n      dup3\n        /* \"#utility.yul\":3916:3917   */\n      dup3\n        /* \"#utility.yul\":3912:3921   */\n      add\n        /* \"#utility.yul\":3905:3921   */\n      swap1\n      pop\n        /* \"#utility.yul\":4117:4118   */\n      dup3\n        /* \"#utility.yul\":4112:4115   */\n      dup2\n        /* \"#utility.yul\":4108:4119   */\n      slt\n        /* \"#utility.yul\":4101:4120   */\n      iszero\n        /* \"#utility.yul\":4097:4098   */\n      0x00\n        /* \"#utility.yul\":4094:4095   */\n      dup4\n        /* \"#utility.yul\":4090:4099   */\n      slt\n        /* \"#utility.yul\":4086:4121   */\n      and\n        /* \"#utility.yul\":4069:4070   */\n      dup4\n        /* \"#utility.yul\":4064:4067   */\n      dup3\n        /* \"#utility.yul\":4060:4071   */\n      slt\n        /* \"#utility.yul\":4055:4056   */\n      0x00\n        /* \"#utility.yul\":4052:4053   */\n      dup5\n        /* \"#utility.yul\":4048:4057   */\n      slt\n        /* \"#utility.yul\":4041:4058   */\n      iszero\n        /* \"#utility.yul\":4037:4072   */\n      and\n        /* \"#utility.yul\":4021:4131   */\n      or\n        /* \"#utility.yul\":4018:4154   */\n      iszero\n      tag_189\n      jumpi\n        /* \"#utility.yul\":4134:4152   */\n      tag_190\n      tag_124\n      jump\t// in\n    tag_190:\n        /* \"#utility.yul\":4018:4154   */\n    tag_189:\n        /* \"#utility.yul\":3786:4161   */\n      swap3\n      swap2\n      pop\n      pop\n      jump\t// out\n        /* \"#utility.yul\":4167:4723   */\n    tag_68:\n        /* \"#utility.yul\":4206:4213   */\n      0x00\n        /* \"#utility.yul\":4229:4248   */\n      tag_192\n        /* \"#utility.yul\":4246:4247   */\n      dup3\n        /* \"#utility.yul\":4229:4248   */\n      tag_126\n      jump\t// in\n    tag_192:\n        /* \"#utility.yul\":4224:4248   */\n      swap2\n      pop\n        /* \"#utility.yul\":4262:4281   */\n      tag_193\n        /* \"#utility.yul\":4279:4280   */\n      dup4\n        /* \"#utility.yul\":4262:4281   */\n      tag_126\n      jump\t// in\n    tag_193:\n        /* \"#utility.yul\":4257:4281   */\n      swap3\n      pop\n        /* \"#utility.yul\":4316:4317   */\n      dup3\n        /* \"#utility.yul\":4313:4314   */\n      dup3\n        /* \"#utility.yul\":4309:4318   */\n      mul\n        /* \"#utility.yul\":4338:4367   */\n      tag_194\n        /* \"#utility.yul\":4355:4366   */\n      dup2\n        /* \"#utility.yul\":4338:4367   */\n      tag_126\n      jump\t// in\n    tag_194:\n        /* \"#utility.yul\":4327:4367   */\n      swap2\n      pop\n        /* \"#utility.yul\":4425:4491   */\n      0x8000000000000000000000000000000000000000000000000000000000000000\n        /* \"#utility.yul\":4422:4423   */\n      dup5\n        /* \"#utility.yul\":4419:4492   */\n      eq\n        /* \"#utility.yul\":4415:4416   */\n      0x00\n        /* \"#utility.yul\":4412:4413   */\n      dup5\n        /* \"#utility.yul\":4408:4417   */\n      slt\n        /* \"#utility.yul\":4404:4493   */\n      and\n        /* \"#utility.yul\":4401:4516   */\n      iszero\n      tag_195\n      jumpi\n        /* \"#utility.yul\":4496:4514   */\n      tag_196\n      tag_124\n      jump\t// in\n    tag_196:\n        /* \"#utility.yul\":4401:4516   */\n    tag_195:\n        /* \"#utility.yul\":4666:4667   */\n      dup3\n        /* \"#utility.yul\":4657:4664   */\n      dup3\n        /* \"#utility.yul\":4652:4668   */\n      sdiv\n        /* \"#utility.yul\":4649:4650   */\n      dup5\n        /* \"#utility.yul\":4646:4669   */\n      eq\n        /* \"#utility.yul\":4626:4627   */\n      dup4\n        /* \"#utility.yul\":4619:4628   */\n      iszero\n        /* \"#utility.yul\":4599:4683   */\n      or\n        /* \"#utility.yul\":4576:4716   */\n      tag_197\n      jumpi\n        /* \"#utility.yul\":4696:4714   */\n      tag_198\n      tag_124\n      jump\t// in\n    tag_198:\n        /* \"#utility.yul\":4576:4716   */\n    tag_197:\n        /* \"#utility.yul\":4214:4723   */\n      pop\n        /* \"#utility.yul\":4167:4723   */\n      swap3\n      swap2\n      pop\n      pop\n      jump\t// out\n\n    auxdata: 0xa2646970667358221220e5b8e1b005afe65692059697c89d494469b19c5e22070572a8f76d0ed2137ea464736f6c63430008120033\n}\n",
				"bytecode": {
					"linkReferences": {},
					"object": "608060405234801561001057600080fd5b506108b0806100206000396000f3fe608060405234801561001057600080fd5b50600436106100575760003560e01c8063326723021461005c5780634bbb4a271461008c5780639254d772146100a8578063bbe4fd50146100c6578063e380ae96146100e4575b600080fd5b61007660048036038101906100719190610546565b610100565b6040516100839190610582565b60405180910390f35b6100a660048036038101906100a19190610546565b61012c565b005b6100b061014e565b6040516100bd9190610582565b60405180910390f35b6100ce6101b6565b6040516100db9190610582565b60405180910390f35b6100fe60048036038101906100f99190610546565b6101d3565b005b600061010b826101dd565b61011b61011661014e565b6101dd565b61012591906105cc565b9050919050565b61014b6201518061013c836101dd565b6101469190610600565b6101d3565b50565b600080600080610172620151806101636101b6565b61016d9190610671565b61036c565b8093508194508295505050508060648361018c9190610600565b6127108561019a9190610600565b6101a491906106a2565b6101ae91906106a2565b935050505090565b60008060005411156101cc5760005490506101d0565b4290505b90565b8060008190555050565b600063012cc0308210156101f057600080fd5b60006064836101ff91906106d6565b90506000606480856102119190610671565b61021b91906106d6565b905060006127108561022d9190610671565b9050600062253d8c60046064600c600e876102489190610711565b6102529190610754565b6113248661026091906107be565b61026a91906107be565b6102749190610754565b60036102809190610802565b61028a9190610754565b600c80600c600e8861029c9190610711565b6102a69190610754565b6102b09190610802565b6002876102bd9190610711565b6102c79190610711565b61016f6102d49190610802565b6102de9190610754565b6004600c600e886102ef9190610711565b6102f99190610754565b6112c08761030791906107be565b61031191906107be565b6105b561031e9190610802565b6103289190610754565b617d4b886103369190610711565b61034091906107be565b61034a91906107be565b6103549190610711565b61035e9190610711565b905080945050505050919050565b600080600080849050600062253d8c62010bd98361038a91906107be565b61039491906107be565b9050600062023ab18260046103a99190610802565b6103b39190610754565b9050600460038262023ab16103c89190610802565b6103d291906107be565b6103dc9190610754565b826103e79190610711565b9150600062164b096001846103fc91906107be565b610fa06104099190610802565b6104139190610754565b9050601f6004826105b56104279190610802565b6104319190610754565b8461043c9190610711565b61044691906107be565b9250600061098f84605061045a9190610802565b6104649190610754565b9050600060508261098f6104789190610802565b6104829190610754565b8561048d9190610711565b9050600b8261049c9190610754565b945084600c6104ab9190610802565b6002836104b891906107be565b6104c29190610711565b915084836031866104d39190610711565b60646104df9190610802565b6104e991906107be565b6104f391906107be565b92508298508197508096505050505050509193909250565b600080fd5b6000819050919050565b61052381610510565b811461052e57600080fd5b50565b6000813590506105408161051a565b92915050565b60006020828403121561055c5761055b61050b565b5b600061056a84828501610531565b91505092915050565b61057c81610510565b82525050565b60006020820190506105976000830184610573565b92915050565b7f4e487b7100000000000000000000000000000000000000000000000000000000600052601160045260246000fd5b60006105d782610510565b91506105e283610510565b92508282039050818111156105fa576105f961059d565b5b92915050565b600061060b82610510565b915061061683610510565b925082820261062481610510565b9150828204841483151761063b5761063a61059d565b5b5092915050565b7f4e487b7100000000000000000000000000000000000000000000000000000000600052601260045260246000fd5b600061067c82610510565b915061068783610510565b92508261069757610696610642565b5b828204905092915050565b60006106ad82610510565b91506106b883610510565b92508282019050808211156106d0576106cf61059d565b5b92915050565b60006106e182610510565b91506106ec83610510565b9250826106fc576106fb610642565b5b828206905092915050565b6000819050919050565b600061071c82610707565b915061072783610707565b925082820390508181126000841216828213600085121516171561074e5761074d61059d565b5b92915050565b600061075f82610707565b915061076a83610707565b92508261077a57610779610642565b5b600160000383147f8000000000000000000000000000000000000000000000000000000000000000831416156107b3576107b261059d565b5b828205905092915050565b60006107c982610707565b91506107d483610707565b9250828201905082811215600083121683821260008412151617156107fc576107fb61059d565b5b92915050565b600061080d82610707565b915061081883610707565b925082820261082681610707565b91507f8000000000000000000000000000000000000000000000000000000000000000841460008412161561085e5761085d61059d565b5b82820584148315176108735761087261059d565b5b509291505056fea2646970667358221220e5b8e1b005afe65692059697c89d494469b19c5e22070572a8f76d0ed2137ea464736f6c63430008120033",
					"opcodes": "PUSH1 0x80 PUSH1 0x40 MSTORE CALLVALUE DUP1 ISZERO PUSH2 0x10 JUMPI PUSH1 0x0 DUP1 REVERT JUMPDEST POP PUSH2 0x8B0 DUP1 PUSH2 0x20 PUSH1 0x0 CODECOPY PUSH1 0x0 RETURN INVALID PUSH1 0x80 PUSH1 0x40 MSTORE CALLVALUE DUP1 ISZERO PUSH2 0x10 JUMPI PUSH1 0x0 DUP1 REVERT JUMPDEST POP PUSH1 0x4 CALLDATASIZE LT PUSH2 0x57 JUMPI PUSH1 0x0 CALLDATALOAD PUSH1 0xE0 SHR DUP1 PUSH4 0x32672302 EQ PUSH2 0x5C JUMPI DUP1 PUSH4 0x4BBB4A27 EQ PUSH2 0x8C JUMPI DUP1 PUSH4 0x9254D772 EQ PUSH2 0xA8 JUMPI DUP1 PUSH4 0xBBE4FD50 EQ PUSH2 0xC6 JUMPI DUP1 PUSH4 0xE380AE96 EQ PUSH2 0xE4 JUMPI JUMPDEST PUSH1 0x0 DUP1 REVERT JUMPDEST PUSH2 0x76 PUSH1 0x4 DUP1 CALLDATASIZE SUB DUP2 ADD SWAP1 PUSH2 0x71 SWAP2 SWAP1 PUSH2 0x546 JUMP JUMPDEST PUSH2 0x100 JUMP JUMPDEST PUSH1 0x40 MLOAD PUSH2 0x83 SWAP2 SWAP1 PUSH2 0x582 JUMP JUMPDEST PUSH1 0x40 MLOAD DUP1 SWAP2 SUB SWAP1 RETURN JUMPDEST PUSH2 0xA6 PUSH1 0x4 DUP1 CALLDATASIZE SUB DUP2 ADD SWAP1 PUSH2 0xA1 SWAP2 SWAP1 PUSH2 0x546 JUMP JUMPDEST PUSH2 0x12C JUMP JUMPDEST STOP JUMPDEST PUSH2 0xB0 PUSH2 0x14E JUMP JUMPDEST PUSH1 0x40 MLOAD PUSH2 0xBD SWAP2 SWAP1 PUSH2 0x582 JUMP JUMPDEST PUSH1 0x40 MLOAD DUP1 SWAP2 SUB SWAP1 RETURN JUMPDEST PUSH2 0xCE PUSH2 0x1B6 JUMP JUMPDEST PUSH1 0x40 MLOAD PUSH2 0xDB SWAP2 SWAP1 PUSH2 0x582 JUMP JUMPDEST PUSH1 0x40 MLOAD DUP1 SWAP2 SUB SWAP1 RETURN JUMPDEST PUSH2 0xFE PUSH1 0x4 DUP1 CALLDATASIZE SUB DUP2 ADD SWAP1 PUSH2 0xF9 SWAP2 SWAP1 PUSH2 0x546 JUMP JUMPDEST PUSH2 0x1D3 JUMP JUMPDEST STOP JUMPDEST PUSH1 0x0 PUSH2 0x10B DUP3 PUSH2 0x1DD JUMP JUMPDEST PUSH2 0x11B PUSH2 0x116 PUSH2 0x14E JUMP JUMPDEST PUSH2 0x1DD JUMP JUMPDEST PUSH2 0x125 SWAP2 SWAP1 PUSH2 0x5CC JUMP JUMPDEST SWAP1 POP SWAP2 SWAP1 POP JUMP JUMPDEST PUSH2 0x14B PUSH3 0x15180 PUSH2 0x13C DUP4 PUSH2 0x1DD JUMP JUMPDEST PUSH2 0x146 SWAP2 SWAP1 PUSH2 0x600 JUMP JUMPDEST PUSH2 0x1D3 JUMP JUMPDEST POP JUMP JUMPDEST PUSH1 0x0 DUP1 PUSH1 0x0 DUP1 PUSH2 0x172 PUSH3 0x15180 PUSH2 0x163 PUSH2 0x1B6 JUMP JUMPDEST PUSH2 0x16D SWAP2 SWAP1 PUSH2 0x671 JUMP JUMPDEST PUSH2 0x36C JUMP JUMPDEST DUP1 SWAP4 POP DUP2 SWAP5 POP DUP3 SWAP6 POP POP POP POP DUP1 PUSH1 0x64 DUP4 PUSH2 0x18C SWAP2 SWAP1 PUSH2 0x600 JUMP JUMPDEST PUSH2 0x2710 DUP6 PUSH2 0x19A SWAP2 SWAP1 PUSH2 0x600 JUMP JUMPDEST PUSH2 0x1A4 SWAP2 SWAP1 PUSH2 0x6A2 JUMP JUMPDEST PUSH2 0x1AE SWAP2 SWAP1 PUSH2 0x6A2 JUMP JUMPDEST SWAP4 POP POP POP POP SWAP1 JUMP JUMPDEST PUSH1 0x0 DUP1 PUSH1 0x0 SLOAD GT ISZERO PUSH2 0x1CC JUMPI PUSH1 0x0 SLOAD SWAP1 POP PUSH2 0x1D0 JUMP JUMPDEST TIMESTAMP SWAP1 POP JUMPDEST SWAP1 JUMP JUMPDEST DUP1 PUSH1 0x0 DUP2 SWAP1 SSTORE POP POP JUMP JUMPDEST PUSH1 0x0 PUSH4 0x12CC030 DUP3 LT ISZERO PUSH2 0x1F0 JUMPI PUSH1 0x0 DUP1 REVERT JUMPDEST PUSH1 0x0 PUSH1 0x64 DUP4 PUSH2 0x1FF SWAP2 SWAP1 PUSH2 0x6D6 JUMP JUMPDEST SWAP1 POP PUSH1 0x0 PUSH1 0x64 DUP1 DUP6 PUSH2 0x211 SWAP2 SWAP1 PUSH2 0x671 JUMP JUMPDEST PUSH2 0x21B SWAP2 SWAP1 PUSH2 0x6D6 JUMP JUMPDEST SWAP1 POP PUSH1 0x0 PUSH2 0x2710 DUP6 PUSH2 0x22D SWAP2 SWAP1 PUSH2 0x671 JUMP JUMPDEST SWAP1 POP PUSH1 0x0 PUSH3 0x253D8C PUSH1 0x4 PUSH1 0x64 PUSH1 0xC PUSH1 0xE DUP8 PUSH2 0x248 SWAP2 SWAP1 PUSH2 0x711 JUMP JUMPDEST PUSH2 0x252 SWAP2 SWAP1 PUSH2 0x754 JUMP JUMPDEST PUSH2 0x1324 DUP7 PUSH2 0x260 SWAP2 SWAP1 PUSH2 0x7BE JUMP JUMPDEST PUSH2 0x26A SWAP2 SWAP1 PUSH2 0x7BE JUMP JUMPDEST PUSH2 0x274 SWAP2 SWAP1 PUSH2 0x754 JUMP JUMPDEST PUSH1 0x3 PUSH2 0x280 SWAP2 SWAP1 PUSH2 0x802 JUMP JUMPDEST PUSH2 0x28A SWAP2 SWAP1 PUSH2 0x754 JUMP JUMPDEST PUSH1 0xC DUP1 PUSH1 0xC PUSH1 0xE DUP9 PUSH2 0x29C SWAP2 SWAP1 PUSH2 0x711 JUMP JUMPDEST PUSH2 0x2A6 SWAP2 SWAP1 PUSH2 0x754 JUMP JUMPDEST PUSH2 0x2B0 SWAP2 SWAP1 PUSH2 0x802 JUMP JUMPDEST PUSH1 0x2 DUP8 PUSH2 0x2BD SWAP2 SWAP1 PUSH2 0x711 JUMP JUMPDEST PUSH2 0x2C7 SWAP2 SWAP1 PUSH2 0x711 JUMP JUMPDEST PUSH2 0x16F PUSH2 0x2D4 SWAP2 SWAP1 PUSH2 0x802 JUMP JUMPDEST PUSH2 0x2DE SWAP2 SWAP1 PUSH2 0x754 JUMP JUMPDEST PUSH1 0x4 PUSH1 0xC PUSH1 0xE DUP9 PUSH2 0x2EF SWAP2 SWAP1 PUSH2 0x711 JUMP JUMPDEST PUSH2 0x2F9 SWAP2 SWAP1 PUSH2 0x754 JUMP JUMPDEST PUSH2 0x12C0 DUP8 PUSH2 0x307 SWAP2 SWAP1 PUSH2 0x7BE JUMP JUMPDEST PUSH2 0x311 SWAP2 SWAP1 PUSH2 0x7BE JUMP JUMPDEST PUSH2 0x5B5 PUSH2 0x31E SWAP2 SWAP1 PUSH2 0x802 JUMP JUMPDEST PUSH2 0x328 SWAP2 SWAP1 PUSH2 0x754 JUMP JUMPDEST PUSH2 0x7D4B DUP9 PUSH2 0x336 SWAP2 SWAP1 PUSH2 0x711 JUMP JUMPDEST PUSH2 0x340 SWAP2 SWAP1 PUSH2 0x7BE JUMP JUMPDEST PUSH2 0x34A SWAP2 SWAP1 PUSH2 0x7BE JUMP JUMPDEST PUSH2 0x354 SWAP2 SWAP1 PUSH2 0x711 JUMP JUMPDEST PUSH2 0x35E SWAP2 SWAP1 PUSH2 0x711 JUMP JUMPDEST SWAP1 POP DUP1 SWAP5 POP POP POP POP POP SWAP2 SWAP1 POP JUMP JUMPDEST PUSH1 0x0 DUP1 PUSH1 0x0 DUP1 DUP5 SWAP1 POP PUSH1 0x0 PUSH3 0x253D8C PUSH3 0x10BD9 DUP4 PUSH2 0x38A SWAP2 SWAP1 PUSH2 0x7BE JUMP JUMPDEST PUSH2 0x394 SWAP2 SWAP1 PUSH2 0x7BE JUMP JUMPDEST SWAP1 POP PUSH1 0x0 PUSH3 0x23AB1 DUP3 PUSH1 0x4 PUSH2 0x3A9 SWAP2 SWAP1 PUSH2 0x802 JUMP JUMPDEST PUSH2 0x3B3 SWAP2 SWAP1 PUSH2 0x754 JUMP JUMPDEST SWAP1 POP PUSH1 0x4 PUSH1 0x3 DUP3 PUSH3 0x23AB1 PUSH2 0x3C8 SWAP2 SWAP1 PUSH2 0x802 JUMP JUMPDEST PUSH2 0x3D2 SWAP2 SWAP1 PUSH2 0x7BE JUMP JUMPDEST PUSH2 0x3DC SWAP2 SWAP1 PUSH2 0x754 JUMP JUMPDEST DUP3 PUSH2 0x3E7 SWAP2 SWAP1 PUSH2 0x711 JUMP JUMPDEST SWAP2 POP PUSH1 0x0 PUSH3 0x164B09 PUSH1 0x1 DUP5 PUSH2 0x3FC SWAP2 SWAP1 PUSH2 0x7BE JUMP JUMPDEST PUSH2 0xFA0 PUSH2 0x409 SWAP2 SWAP1 PUSH2 0x802 JUMP JUMPDEST PUSH2 0x413 SWAP2 SWAP1 PUSH2 0x754 JUMP JUMPDEST SWAP1 POP PUSH1 0x1F PUSH1 0x4 DUP3 PUSH2 0x5B5 PUSH2 0x427 SWAP2 SWAP1 PUSH2 0x802 JUMP JUMPDEST PUSH2 0x431 SWAP2 SWAP1 PUSH2 0x754 JUMP JUMPDEST DUP5 PUSH2 0x43C SWAP2 SWAP1 PUSH2 0x711 JUMP JUMPDEST PUSH2 0x446 SWAP2 SWAP1 PUSH2 0x7BE JUMP JUMPDEST SWAP3 POP PUSH1 0x0 PUSH2 0x98F DUP5 PUSH1 0x50 PUSH2 0x45A SWAP2 SWAP1 PUSH2 0x802 JUMP JUMPDEST PUSH2 0x464 SWAP2 SWAP1 PUSH2 0x754 JUMP JUMPDEST SWAP1 POP PUSH1 0x0 PUSH1 0x50 DUP3 PUSH2 0x98F PUSH2 0x478 SWAP2 SWAP1 PUSH2 0x802 JUMP JUMPDEST PUSH2 0x482 SWAP2 SWAP1 PUSH2 0x754 JUMP JUMPDEST DUP6 PUSH2 0x48D SWAP2 SWAP1 PUSH2 0x711 JUMP JUMPDEST SWAP1 POP PUSH1 0xB DUP3 PUSH2 0x49C SWAP2 SWAP1 PUSH2 0x754 JUMP JUMPDEST SWAP5 POP DUP5 PUSH1 0xC PUSH2 0x4AB SWAP2 SWAP1 PUSH2 0x802 JUMP JUMPDEST PUSH1 0x2 DUP4 PUSH2 0x4B8 SWAP2 SWAP1 PUSH2 0x7BE JUMP JUMPDEST PUSH2 0x4C2 SWAP2 SWAP1 PUSH2 0x711 JUMP JUMPDEST SWAP2 POP DUP5 DUP4 PUSH1 0x31 DUP7 PUSH2 0x4D3 SWAP2 SWAP1 PUSH2 0x711 JUMP JUMPDEST PUSH1 0x64 PUSH2 0x4DF SWAP2 SWAP1 PUSH2 0x802 JUMP JUMPDEST PUSH2 0x4E9 SWAP2 SWAP1 PUSH2 0x7BE JUMP JUMPDEST PUSH2 0x4F3 SWAP2 SWAP1 PUSH2 0x7BE JUMP JUMPDEST SWAP3 POP DUP3 SWAP9 POP DUP2 SWAP8 POP DUP1 SWAP7 POP POP POP POP POP POP POP SWAP2 SWAP4 SWAP1 SWAP3 POP JUMP JUMPDEST PUSH1 0x0 DUP1 REVERT JUMPDEST PUSH1 0x0 DUP2 SWAP1 POP SWAP2 SWAP1 POP JUMP JUMPDEST PUSH2 0x523 DUP2 PUSH2 0x510 JUMP JUMPDEST DUP2 EQ PUSH2 0x52E JUMPI PUSH1 0x0 DUP1 REVERT JUMPDEST POP JUMP JUMPDEST PUSH1 0x0 DUP2 CALLDATALOAD SWAP1 POP PUSH2 0x540 DUP2 PUSH2 0x51A JUMP JUMPDEST SWAP3 SWAP2 POP POP JUMP JUMPDEST PUSH1 0x0 PUSH1 0x20 DUP3 DUP5 SUB SLT ISZERO PUSH2 0x55C JUMPI PUSH2 0x55B PUSH2 0x50B JUMP JUMPDEST JUMPDEST PUSH1 0x0 PUSH2 0x56A DUP5 DUP3 DUP6 ADD PUSH2 0x531 JUMP JUMPDEST SWAP2 POP POP SWAP3 SWAP2 POP POP JUMP JUMPDEST PUSH2 0x57C DUP2 PUSH2 0x510 JUMP JUMPDEST DUP3 MSTORE POP POP JUMP JUMPDEST PUSH1 0x0 PUSH1 0x20 DUP3 ADD SWAP1 POP PUSH2 0x597 PUSH1 0x0 DUP4 ADD DUP5 PUSH2 0x573 JUMP JUMPDEST SWAP3 SWAP2 POP POP JUMP JUMPDEST PUSH32 0x4E487B7100000000000000000000000000000000000000000000000000000000 PUSH1 0x0 MSTORE PUSH1 0x11 PUSH1 0x4 MSTORE PUSH1 0x24 PUSH1 0x0 REVERT JUMPDEST PUSH1 0x0 PUSH2 0x5D7 DUP3 PUSH2 0x510 JUMP JUMPDEST SWAP2 POP PUSH2 0x5E2 DUP4 PUSH2 0x510 JUMP JUMPDEST SWAP3 POP DUP3 DUP3 SUB SWAP1 POP DUP2 DUP2 GT ISZERO PUSH2 0x5FA JUMPI PUSH2 0x5F9 PUSH2 0x59D JUMP JUMPDEST JUMPDEST SWAP3 SWAP2 POP POP JUMP JUMPDEST PUSH1 0x0 PUSH2 0x60B DUP3 PUSH2 0x510 JUMP JUMPDEST SWAP2 POP PUSH2 0x616 DUP4 PUSH2 0x510 JUMP JUMPDEST SWAP3 POP DUP3 DUP3 MUL PUSH2 0x624 DUP2 PUSH2 0x510 JUMP JUMPDEST SWAP2 POP DUP3 DUP3 DIV DUP5 EQ DUP4 ISZERO OR PUSH2 0x63B JUMPI PUSH2 0x63A PUSH2 0x59D JUMP JUMPDEST JUMPDEST POP SWAP3 SWAP2 POP POP JUMP JUMPDEST PUSH32 0x4E487B7100000000000000000000000000000000000000000000000000000000 PUSH1 0x0 MSTORE PUSH1 0x12 PUSH1 0x4 MSTORE PUSH1 0x24 PUSH1 0x0 REVERT JUMPDEST PUSH1 0x0 PUSH2 0x67C DUP3 PUSH2 0x510 JUMP JUMPDEST SWAP2 POP PUSH2 0x687 DUP4 PUSH2 0x510 JUMP JUMPDEST SWAP3 POP DUP3 PUSH2 0x697 JUMPI PUSH2 0x696 PUSH2 0x642 JUMP JUMPDEST JUMPDEST DUP3 DUP3 DIV SWAP1 POP SWAP3 SWAP2 POP POP JUMP JUMPDEST PUSH1 0x0 PUSH2 0x6AD DUP3 PUSH2 0x510 JUMP JUMPDEST SWAP2 POP PUSH2 0x6B8 DUP4 PUSH2 0x510 JUMP JUMPDEST SWAP3 POP DUP3 DUP3 ADD SWAP1 POP DUP1 DUP3 GT ISZERO PUSH2 0x6D0 JUMPI PUSH2 0x6CF PUSH2 0x59D JUMP JUMPDEST JUMPDEST SWAP3 SWAP2 POP POP JUMP JUMPDEST PUSH1 0x0 PUSH2 0x6E1 DUP3 PUSH2 0x510 JUMP JUMPDEST SWAP2 POP PUSH2 0x6EC DUP4 PUSH2 0x510 JUMP JUMPDEST SWAP3 POP DUP3 PUSH2 0x6FC JUMPI PUSH2 0x6FB PUSH2 0x642 JUMP JUMPDEST JUMPDEST DUP3 DUP3 MOD SWAP1 POP SWAP3 SWAP2 POP POP JUMP JUMPDEST PUSH1 0x0 DUP2 SWAP1 POP SWAP2 SWAP1 POP JUMP JUMPDEST PUSH1 0x0 PUSH2 0x71C DUP3 PUSH2 0x707 JUMP JUMPDEST SWAP2 POP PUSH2 0x727 DUP4 PUSH2 0x707 JUMP JUMPDEST SWAP3 POP DUP3 DUP3 SUB SWAP1 POP DUP2 DUP2 SLT PUSH1 0x0 DUP5 SLT AND DUP3 DUP3 SGT PUSH1 0x0 DUP6 SLT ISZERO AND OR ISZERO PUSH2 0x74E JUMPI PUSH2 0x74D PUSH2 0x59D JUMP JUMPDEST JUMPDEST SWAP3 SWAP2 POP POP JUMP JUMPDEST PUSH1 0x0 PUSH2 0x75F DUP3 PUSH2 0x707 JUMP JUMPDEST SWAP2 POP PUSH2 0x76A DUP4 PUSH2 0x707 JUMP JUMPDEST SWAP3 POP DUP3 PUSH2 0x77A JUMPI PUSH2 0x779 PUSH2 0x642 JUMP JUMPDEST JUMPDEST PUSH1 0x1 PUSH1 0x0 SUB DUP4 EQ PUSH32 0x8000000000000000000000000000000000000000000000000000000000000000 DUP4 EQ AND ISZERO PUSH2 0x7B3 JUMPI PUSH2 0x7B2 PUSH2 0x59D JUMP JUMPDEST JUMPDEST DUP3 DUP3 SDIV SWAP1 POP SWAP3 SWAP2 POP POP JUMP JUMPDEST PUSH1 0x0 PUSH2 0x7C9 DUP3 PUSH2 0x707 JUMP JUMPDEST SWAP2 POP PUSH2 0x7D4 DUP4 PUSH2 0x707 JUMP JUMPDEST SWAP3 POP DUP3 DUP3 ADD SWAP1 POP DUP3 DUP2 SLT ISZERO PUSH1 0x0 DUP4 SLT AND DUP4 DUP3 SLT PUSH1 0x0 DUP5 SLT ISZERO AND OR ISZERO PUSH2 0x7FC JUMPI PUSH2 0x7FB PUSH2 0x59D JUMP JUMPDEST JUMPDEST SWAP3 SWAP2 POP POP JUMP JUMPDEST PUSH1 0x0 PUSH2 0x80D DUP3 PUSH2 0x707 JUMP JUMPDEST SWAP2 POP PUSH2 0x818 DUP4 PUSH2 0x707 JUMP JUMPDEST SWAP3 POP DUP3 DUP3 MUL PUSH2 0x826 DUP2 PUSH2 0x707 JUMP JUMPDEST SWAP2 POP PUSH32 0x8000000000000000000000000000000000000000000000000000000000000000 DUP5 EQ PUSH1 0x0 DUP5 SLT AND ISZERO PUSH2 0x85E JUMPI PUSH2 0x85D PUSH2 0x59D JUMP JUMPDEST JUMPDEST DUP3 DUP3 SDIV DUP5 EQ DUP4 ISZERO OR PUSH2 0x873 JUMPI PUSH2 0x872 PUSH2 0x59D JUMP JUMPDEST JUMPDEST POP SWAP3 SWAP2 POP POP JUMP INVALID LOG2 PUSH5 0x6970667358 0x22 SLT KECCAK256 0xE5 0xB8 0xE1 0xB0 SDIV 0xAF 0xE6 JUMP SWAP3 SDIV SWAP7 SWAP8 0xC8 SWAP14 0x49 PREVRANDAO PUSH10 0xB19C5E22070572A8F76D 0xE 0xD2 SGT PUSH31 0xA464736F6C6343000812003300000000000000000000000000000000000000 "
				},
				"gasEstimates": {
					"creation": {
						"codeDepositCost": "444800",
						"executionCost": "480",
						"totalCost": "445280"
					},
					"external": {
						"getCurrentDate()": "infinite",
						"getDaysFromNow(uint256)": "infinite",
						"getNow()": "4618",
						"setCurrentDate(uint256)": "infinite",
						"setNow(uint256)": "22586"
					},
					"internal": {
						"_daysFromDate(uint256,uint256,uint256)": "infinite",
						"_daysFromDateConcatenated(uint256)": "infinite",
						"_daysToDate(uint256)": "infinite"
					}
				},
				"methodIdentifiers": {
					"getCurrentDate()": "9254d772",
					"getDaysFromNow(uint256)": "32672302",
					"getNow()": "bbe4fd50",
					"setCurrentDate(uint256)": "4bbb4a27",
					"setNow(uint256)": "e380ae96"
				}
			},
			"storageLayout": {
				"storage": [
					{
						"astId": 13,
						"contract": "contracts/Clock.sol:Clock",
						"label": "_timestamp",
						"offset": 0,
						"slot": "0",
						"type": "t_uint256"
					}
				],
				"types": {
					"t_uint256": {
						"encoding": "inplace",
						"label": "uint256",
						"numberOfBytes": "32"
					}
				}
			},
			"userdoc": {
				"kind": "user",
				"methods": {},
				"version": 1
			}
		}
	}
}