{
	"contracts/EnvironmentConfig.sol": {
		"EnvironmentConfig": {
			"abi": [
				{
					"inputs": [],
					"stateMutability": "nonpayable",
					"type": "constructor"
				},
				{
					"anonymous": false,
					"inputs": [
						{
							"indexed": true,
							"internalType": "address",
							"name": "previousOwner",
							"type": "address"
						},
						{
							"indexed": true,
							"internalType": "address",
							"name": "newOwner",
							"type": "address"
						}
					],
					"name": "OwnershipTransferred",
					"type": "event"
				},
				{
					"inputs": [],
					"name": "getCurrentDate",
					"outputs": [
						{
							"internalType": "uint256",
							"name": "date",
							"type": "uint256"
						}
					],
					"stateMutability": "view",
					"type": "function"
				},
				{
					"inputs": [
						{
							"internalType": "uint256",
							"name": "date",
							"type": "uint256"
						}
					],
					"name": "getDaysFromNow",
					"outputs": [
						{
							"internalType": "uint256",
							"name": "",
							"type": "uint256"
						}
					],
					"stateMutability": "view",
					"type": "function"
				},
				{
					"inputs": [],
					"name": "getNow",
					"outputs": [
						{
							"internalType": "uint256",
							"name": "",
							"type": "uint256"
						}
					],
					"stateMutability": "view",
					"type": "function"
				},
				{
					"inputs": [
						{
							"internalType": "address",
							"name": "usr",
							"type": "address"
						}
					],
					"name": "getRights",
					"outputs": [
						{
							"internalType": "uint48",
							"name": "",
							"type": "uint48"
						}
					],
					"stateMutability": "view",
					"type": "function"
				},
				{
					"inputs": [
						{
							"internalType": "address",
							"name": "usr",
							"type": "address"
						},
						{
							"internalType": "uint48",
							"name": "role",
							"type": "uint48"
						}
					],
					"name": "hasRights",
					"outputs": [
						{
							"internalType": "bool",
							"name": "",
							"type": "bool"
						}
					],
					"stateMutability": "view",
					"type": "function"
				},
				{
					"inputs": [],
					"name": "owner",
					"outputs": [
						{
							"internalType": "address",
							"name": "",
							"type": "address"
						}
					],
					"stateMutability": "view",
					"type": "function"
				},
				{
					"inputs": [],
					"name": "renounceOwnership",
					"outputs": [],
					"stateMutability": "nonpayable",
					"type": "function"
				},
				{
					"inputs": [
						{
							"internalType": "uint256",
							"name": "date",
							"type": "uint256"
						}
					],
					"name": "setCurrentDate",
					"outputs": [],
					"stateMutability": "nonpayable",
					"type": "function"
				},
				{
					"inputs": [
						{
							"internalType": "address",
							"name": "usr",
							"type": "address"
						},
						{
							"internalType": "uint48",
							"name": "role",
							"type": "uint48"
						}
					],
					"name": "setMemberRights",
					"outputs": [],
					"stateMutability": "nonpayable",
					"type": "function"
				},
				{
					"inputs": [
						{
							"internalType": "address[]",
							"name": "usr",
							"type": "address[]"
						},
						{
							"internalType": "uint48",
							"name": "role",
							"type": "uint48"
						}
					],
					"name": "setMembersRights",
					"outputs": [],
					"stateMutability": "nonpayable",
					"type": "function"
				},
				{
					"inputs": [
						{
							"internalType": "uint256",
							"name": "timestamp",
							"type": "uint256"
						}
					],
					"name": "setNow",
					"outputs": [],
					"stateMutability": "nonpayable",
					"type": "function"
				},
				{
					"inputs": [
						{
							"internalType": "address",
							"name": "newOwner",
							"type": "address"
						}
					],
					"name": "transferOwnership",
					"outputs": [],
					"stateMutability": "nonpayable",
					"type": "function"
				},
				{
					"inputs": [
						{
							"internalType": "address",
							"name": "usr",
							"type": "address"
						},
						{
							"internalType": "uint48",
							"name": "role",
							"type": "uint48"
						}
					],
					"name": "updateMemberRights",
					"outputs": [],
					"stateMutability": "nonpayable",
					"type": "function"
				},
				{
					"inputs": [
						{
							"internalType": "address[]",
							"name": "usr",
							"type": "address[]"
						},
						{
							"internalType": "uint48",
							"name": "role",
							"type": "uint48"
						}
					],
					"name": "updateMembersRights",
					"outputs": [],
					"stateMutability": "nonpayable",
					"type": "function"
				}
			],
			"devdoc": {
				"kind": "dev",
				"methods": {
					"owner()": {
						"details": "Returns the address of the current owner."
					},
					"renounceOwnership()": {
						"details": "Leaves the contract without owner. It will not be possible to call `onlyOwner` functions anymore. Can only be called by the current owner. NOTE: Renouncing ownership will leave the contract without an owner, thereby removing any functionality that is only available to the owner."
					},
					"transferOwnership(address)": {
						"details": "Transfers ownership of the contract to a new account (`newOwner`). Can only be called by the current owner."
					}
				},
				"version": 1
			},
			"evm": {
				"assembly": "    /* \"contracts/EnvironmentConfig.sol\":344:1565  contract EnvironmentConfig is Ownable, Clock {... */\n  mstore(0x40, 0x80)\n    /* \"contracts/EnvironmentConfig.sol\":618:684  constructor() {... */\n  callvalue\n  dup1\n  iszero\n  tag_1\n  jumpi\n  0x00\n  dup1\n  revert\ntag_1:\n  pop\n    /* \"@openzeppelin/contracts/access/Ownable.sol\":936:968  _transferOwnership(_msgSender()) */\n  tag_5\n    /* \"@openzeppelin/contracts/access/Ownable.sol\":955:967  _msgSender() */\n  tag_6\n    /* \"@openzeppelin/contracts/access/Ownable.sol\":955:965  _msgSender */\n  shl(0x20, tag_7)\n    /* \"@openzeppelin/contracts/access/Ownable.sol\":955:967  _msgSender() */\n  0x20\n  shr\n  jump\t// in\ntag_6:\n    /* \"@openzeppelin/contracts/access/Ownable.sol\":936:954  _transferOwnership */\n  shl(0x20, tag_8)\n    /* \"@openzeppelin/contracts/access/Ownable.sol\":936:968  _transferOwnership(_msgSender()) */\n  0x20\n  shr\n  jump\t// in\ntag_5:\n    /* \"contracts/EnvironmentConfig.sol\":294:298  0x04 */\n  0x04\n    /* \"contracts/EnvironmentConfig.sol\":643:651  _members */\n  0x02\n    /* \"contracts/EnvironmentConfig.sol\":643:663  _members[msg.sender] */\n  0x00\n    /* \"contracts/EnvironmentConfig.sol\":652:662  msg.sender */\n  caller\n    /* \"contracts/EnvironmentConfig.sol\":643:663  _members[msg.sender] */\n  0xffffffffffffffffffffffffffffffffffffffff\n  and\n  0xffffffffffffffffffffffffffffffffffffffff\n  and\n  dup2\n  mstore\n  0x20\n  add\n  swap1\n  dup2\n  mstore\n  0x20\n  add\n  0x00\n  keccak256\n  0x00\n    /* \"contracts/EnvironmentConfig.sol\":643:676  _members[msg.sender] = LIST_ADMIN */\n  0x0100\n  exp\n  dup2\n  sload\n  dup2\n  0xffffffffffff\n  mul\n  not\n  and\n  swap1\n  dup4\n  0xffffffffffff\n  and\n  mul\n  or\n  swap1\n  sstore\n  pop\n    /* \"contracts/EnvironmentConfig.sol\":344:1565  contract EnvironmentConfig is Ownable, Clock {... */\n  jump(tag_10)\n    /* \"@openzeppelin/contracts/utils/Context.sol\":640:736  function _msgSender() internal view virtual returns (address) {... */\ntag_7:\n    /* \"@openzeppelin/contracts/utils/Context.sol\":693:700  address */\n  0x00\n    /* \"@openzeppelin/contracts/utils/Context.sol\":719:729  msg.sender */\n  caller\n    /* \"@openzeppelin/contracts/utils/Context.sol\":712:729  return msg.sender */\n  swap1\n  pop\n    /* \"@openzeppelin/contracts/utils/Context.sol\":640:736  function _msgSender() internal view virtual returns (address) {... */\n  swap1\n  jump\t// out\n    /* \"@openzeppelin/contracts/access/Ownable.sol\":2433:2620  function _transferOwnership(address newOwner) internal virtual {... */\ntag_8:\n    /* \"@openzeppelin/contracts/access/Ownable.sol\":2506:2522  address oldOwner */\n  0x00\n    /* \"@openzeppelin/contracts/access/Ownable.sol\":2525:2531  _owner */\n  dup1\n  0x00\n  swap1\n  sload\n  swap1\n  0x0100\n  exp\n  swap1\n  div\n  0xffffffffffffffffffffffffffffffffffffffff\n  and\n    /* \"@openzeppelin/contracts/access/Ownable.sol\":2506:2531  address oldOwner = _owner */\n  swap1\n  pop\n    /* \"@openzeppelin/contracts/access/Ownable.sol\":2550:2558  newOwner */\n  dup2\n    /* \"@openzeppelin/contracts/access/Ownable.sol\":2541:2547  _owner */\n  0x00\n  dup1\n    /* \"@openzeppelin/contracts/access/Ownable.sol\":2541:2558  _owner = newOwner */\n  0x0100\n  exp\n  dup2\n  sload\n  dup2\n  0xffffffffffffffffffffffffffffffffffffffff\n  mul\n  not\n  and\n  swap1\n  dup4\n  0xffffffffffffffffffffffffffffffffffffffff\n  and\n  mul\n  or\n  swap1\n  sstore\n  pop\n    /* \"@openzeppelin/contracts/access/Ownable.sol\":2604:2612  newOwner */\n  dup2\n    /* \"@openzeppelin/contracts/access/Ownable.sol\":2573:2613  OwnershipTransferred(oldOwner, newOwner) */\n  0xffffffffffffffffffffffffffffffffffffffff\n  and\n    /* \"@openzeppelin/contracts/access/Ownable.sol\":2594:2602  oldOwner */\n  dup2\n    /* \"@openzeppelin/contracts/access/Ownable.sol\":2573:2613  OwnershipTransferred(oldOwner, newOwner) */\n  0xffffffffffffffffffffffffffffffffffffffff\n  and\n  0x8be0079c531659141344cd1fd0a4f28419497f9722a3daafe3b4186f6b6457e0\n  mload(0x40)\n  mload(0x40)\n  dup1\n  swap2\n  sub\n  swap1\n  log3\n    /* \"@openzeppelin/contracts/access/Ownable.sol\":2496:2620  {... */\n  pop\n    /* \"@openzeppelin/contracts/access/Ownable.sol\":2433:2620  function _transferOwnership(address newOwner) internal virtual {... */\n  pop\n  jump\t// out\n    /* \"contracts/EnvironmentConfig.sol\":344:1565  contract EnvironmentConfig is Ownable, Clock {... */\ntag_10:\n  dataSize(sub_0)\n  dup1\n  dataOffset(sub_0)\n  0x00\n  codecopy\n  0x00\n  return\nstop\n\nsub_0: assembly {\n        /* \"contracts/EnvironmentConfig.sol\":344:1565  contract EnvironmentConfig is Ownable, Clock {... */\n      mstore(0x40, 0x80)\n      callvalue\n      dup1\n      iszero\n      tag_1\n      jumpi\n      0x00\n      dup1\n      revert\n    tag_1:\n      pop\n      jumpi(tag_2, lt(calldatasize, 0x04))\n      shr(0xe0, calldataload(0x00))\n      dup1\n      0xbbe4fd50\n      gt\n      tag_17\n      jumpi\n      dup1\n      0xe380ae96\n      gt\n      tag_18\n      jumpi\n      dup1\n      0xe380ae96\n      eq\n      tag_13\n      jumpi\n      dup1\n      0xe79f0e96\n      eq\n      tag_14\n      jumpi\n      dup1\n      0xf2fde38b\n      eq\n      tag_15\n      jumpi\n      dup1\n      0xf35f0f74\n      eq\n      tag_16\n      jumpi\n      jump(tag_2)\n    tag_18:\n      dup1\n      0xbbe4fd50\n      eq\n      tag_10\n      jumpi\n      dup1\n      0xc76cb0f2\n      eq\n      tag_11\n      jumpi\n      dup1\n      0xdee2bdd4\n      eq\n      tag_12\n      jumpi\n      jump(tag_2)\n    tag_17:\n      dup1\n      0x715018a6\n      gt\n      tag_19\n      jumpi\n      dup1\n      0x715018a6\n      eq\n      tag_6\n      jumpi\n      dup1\n      0x8da5cb5b\n      eq\n      tag_7\n      jumpi\n      dup1\n      0x9254d772\n      eq\n      tag_8\n      jumpi\n      dup1\n      0x9c365024\n      eq\n      tag_9\n      jumpi\n      jump(tag_2)\n    tag_19:\n      dup1\n      0x32672302\n      eq\n      tag_3\n      jumpi\n      dup1\n      0x4bbb4a27\n      eq\n      tag_4\n      jumpi\n      dup1\n      0x5a9452f7\n      eq\n      tag_5\n      jumpi\n    tag_2:\n      0x00\n      dup1\n      revert\n        /* \"contracts/Clock.sol\":2372:2540  function getDaysFromNow(uint date) public view returns (uint256) {... */\n    tag_3:\n      tag_20\n      0x04\n      dup1\n      calldatasize\n      sub\n      dup2\n      add\n      swap1\n      tag_21\n      swap2\n      swap1\n      tag_22\n      jump\t// in\n    tag_21:\n      tag_23\n      jump\t// in\n    tag_20:\n      mload(0x40)\n      tag_24\n      swap2\n      swap1\n      tag_25\n      jump\t// in\n    tag_24:\n      mload(0x40)\n      dup1\n      swap2\n      sub\n      swap1\n      return\n        /* \"contracts/Clock.sol\":2636:2754  function setCurrentDate(uint date) public {... */\n    tag_4:\n      tag_26\n      0x04\n      dup1\n      calldatasize\n      sub\n      dup2\n      add\n      swap1\n      tag_27\n      swap2\n      swap1\n      tag_22\n      jump\t// in\n    tag_27:\n      tag_28\n      jump\t// in\n    tag_26:\n      stop\n        /* \"contracts/EnvironmentConfig.sol\":1004:1117  function updateMemberRights(address usr, uint48 role) public manageable() {... */\n    tag_5:\n      tag_29\n      0x04\n      dup1\n      calldatasize\n      sub\n      dup2\n      add\n      swap1\n      tag_30\n      swap2\n      swap1\n      tag_31\n      jump\t// in\n    tag_30:\n      tag_32\n      jump\t// in\n    tag_29:\n      stop\n        /* \"@openzeppelin/contracts/access/Ownable.sol\":1831:1932  function renounceOwnership() public virtual onlyOwner {... */\n    tag_6:\n      tag_33\n      tag_34\n      jump\t// in\n    tag_33:\n      stop\n        /* \"@openzeppelin/contracts/access/Ownable.sol\":1201:1286  function owner() public view virtual returns (address) {... */\n    tag_7:\n      tag_35\n      tag_36\n      jump\t// in\n    tag_35:\n      mload(0x40)\n      tag_37\n      swap2\n      swap1\n      tag_38\n      jump\t// in\n    tag_37:\n      mload(0x40)\n      dup1\n      swap2\n      sub\n      swap1\n      return\n        /* \"contracts/Clock.sol\":2114:2364  function getCurrentDate() public view returns (uint256 date) {... */\n    tag_8:\n      tag_39\n      tag_40\n      jump\t// in\n    tag_39:\n      mload(0x40)\n      tag_41\n      swap2\n      swap1\n      tag_25\n      jump\t// in\n    tag_41:\n      mload(0x40)\n      dup1\n      swap2\n      sub\n      swap1\n      return\n        /* \"contracts/EnvironmentConfig.sol\":810:994  function setMembersRights(address[] memory usr, uint48 role) public manageable() {... */\n    tag_9:\n      tag_42\n      0x04\n      dup1\n      calldatasize\n      sub\n      dup2\n      add\n      swap1\n      tag_43\n      swap2\n      swap1\n      tag_44\n      jump\t// in\n    tag_43:\n      tag_45\n      jump\t// in\n    tag_42:\n      stop\n        /* \"contracts/Clock.sol\":1946:2106  function getNow() public view returns (uint) {... */\n    tag_10:\n      tag_46\n      tag_47\n      jump\t// in\n    tag_46:\n      mload(0x40)\n      tag_48\n      swap2\n      swap1\n      tag_25\n      jump\t// in\n    tag_48:\n      mload(0x40)\n      dup1\n      swap2\n      sub\n      swap1\n      return\n        /* \"contracts/EnvironmentConfig.sol\":1127:1315  function updateMembersRights(address[] memory usr, uint48 role) public manageable() {... */\n    tag_11:\n      tag_49\n      0x04\n      dup1\n      calldatasize\n      sub\n      dup2\n      add\n      swap1\n      tag_50\n      swap2\n      swap1\n      tag_44\n      jump\t// in\n    tag_50:\n      tag_51\n      jump\t// in\n    tag_49:\n      stop\n        /* \"contracts/EnvironmentConfig.sol\":690:800  function setMemberRights(address usr, uint48 role) public manageable() {... */\n    tag_12:\n      tag_52\n      0x04\n      dup1\n      calldatasize\n      sub\n      dup2\n      add\n      swap1\n      tag_53\n      swap2\n      swap1\n      tag_31\n      jump\t// in\n    tag_53:\n      tag_54\n      jump\t// in\n    tag_52:\n      stop\n        /* \"contracts/Clock.sol\":2548:2628  function setNow(uint timestamp) public {... */\n    tag_13:\n      tag_55\n      0x04\n      dup1\n      calldatasize\n      sub\n      dup2\n      add\n      swap1\n      tag_56\n      swap2\n      swap1\n      tag_22\n      jump\t// in\n    tag_56:\n      tag_57\n      jump\t// in\n    tag_55:\n      stop\n        /* \"contracts/EnvironmentConfig.sol\":1460:1558  function getRights(address usr) public view returns(uint48){... */\n    tag_14:\n      tag_58\n      0x04\n      dup1\n      calldatasize\n      sub\n      dup2\n      add\n      swap1\n      tag_59\n      swap2\n      swap1\n      tag_60\n      jump\t// in\n    tag_59:\n      tag_61\n      jump\t// in\n    tag_58:\n      mload(0x40)\n      tag_62\n      swap2\n      swap1\n      tag_63\n      jump\t// in\n    tag_62:\n      mload(0x40)\n      dup1\n      swap2\n      sub\n      swap1\n      return\n        /* \"@openzeppelin/contracts/access/Ownable.sol\":2081:2279  function transferOwnership(address newOwner) public virtual onlyOwner {... */\n    tag_15:\n      tag_64\n      0x04\n      dup1\n      calldatasize\n      sub\n      dup2\n      add\n      swap1\n      tag_65\n      swap2\n      swap1\n      tag_60\n      jump\t// in\n    tag_65:\n      tag_66\n      jump\t// in\n    tag_64:\n      stop\n        /* \"contracts/EnvironmentConfig.sol\":1325:1449  function hasRights(address usr, uint48 role) public view returns(bool){... */\n    tag_16:\n      tag_67\n      0x04\n      dup1\n      calldatasize\n      sub\n      dup2\n      add\n      swap1\n      tag_68\n      swap2\n      swap1\n      tag_31\n      jump\t// in\n    tag_68:\n      tag_69\n      jump\t// in\n    tag_67:\n      mload(0x40)\n      tag_70\n      swap2\n      swap1\n      tag_71\n      jump\t// in\n    tag_70:\n      mload(0x40)\n      dup1\n      swap2\n      sub\n      swap1\n      return\n        /* \"contracts/Clock.sol\":2372:2540  function getDaysFromNow(uint date) public view returns (uint256) {... */\n    tag_23:\n        /* \"contracts/Clock.sol\":2428:2435  uint256 */\n      0x00\n        /* \"contracts/Clock.sol\":2501:2532  _daysFromDateConcatenated(date) */\n      tag_73\n        /* \"contracts/Clock.sol\":2527:2531  date */\n      dup3\n        /* \"contracts/Clock.sol\":2501:2526  _daysFromDateConcatenated */\n      tag_74\n        /* \"contracts/Clock.sol\":2501:2532  _daysFromDateConcatenated(date) */\n      jump\t// in\n    tag_73:\n        /* \"contracts/Clock.sol\":2455:2498  _daysFromDateConcatenated(getCurrentDate()) */\n      tag_75\n        /* \"contracts/Clock.sol\":2481:2497  getCurrentDate() */\n      tag_76\n        /* \"contracts/Clock.sol\":2481:2495  getCurrentDate */\n      tag_40\n        /* \"contracts/Clock.sol\":2481:2497  getCurrentDate() */\n      jump\t// in\n    tag_76:\n        /* \"contracts/Clock.sol\":2455:2480  _daysFromDateConcatenated */\n      tag_74\n        /* \"contracts/Clock.sol\":2455:2498  _daysFromDateConcatenated(getCurrentDate()) */\n      jump\t// in\n    tag_75:\n        /* \"contracts/Clock.sol\":2455:2532  _daysFromDateConcatenated(getCurrentDate()) - _daysFromDateConcatenated(date) */\n      tag_77\n      swap2\n      swap1\n      tag_78\n      jump\t// in\n    tag_77:\n        /* \"contracts/Clock.sol\":2448:2532  return _daysFromDateConcatenated(getCurrentDate()) - _daysFromDateConcatenated(date) */\n      swap1\n      pop\n        /* \"contracts/Clock.sol\":2372:2540  function getDaysFromNow(uint date) public view returns (uint256) {... */\n      swap2\n      swap1\n      pop\n      jump\t// out\n        /* \"contracts/Clock.sol\":2636:2754  function setCurrentDate(uint date) public {... */\n    tag_28:\n        /* \"contracts/Clock.sol\":2689:2746  setNow(_daysFromDateConcatenated(date) * SECONDS_PER_DAY) */\n      tag_80\n        /* \"contracts/Clock.sol\":93:105  24 * 60 * 60 */\n      0x015180\n        /* \"contracts/Clock.sol\":2696:2727  _daysFromDateConcatenated(date) */\n      tag_81\n        /* \"contracts/Clock.sol\":2722:2726  date */\n      dup4\n        /* \"contracts/Clock.sol\":2696:2721  _daysFromDateConcatenated */\n      tag_74\n        /* \"contracts/Clock.sol\":2696:2727  _daysFromDateConcatenated(date) */\n      jump\t// in\n    tag_81:\n        /* \"contracts/Clock.sol\":2696:2745  _daysFromDateConcatenated(date) * SECONDS_PER_DAY */\n      tag_82\n      swap2\n      swap1\n      tag_83\n      jump\t// in\n    tag_82:\n        /* \"contracts/Clock.sol\":2689:2695  setNow */\n      tag_57\n        /* \"contracts/Clock.sol\":2689:2746  setNow(_daysFromDateConcatenated(date) * SECONDS_PER_DAY) */\n      jump\t// in\n    tag_80:\n        /* \"contracts/Clock.sol\":2636:2754  function setCurrentDate(uint date) public {... */\n      pop\n      jump\t// out\n        /* \"contracts/EnvironmentConfig.sol\":1004:1117  function updateMemberRights(address usr, uint48 role) public manageable() {... */\n    tag_32:\n        /* \"contracts/EnvironmentConfig.sol\":504:511  owner() */\n      tag_85\n        /* \"contracts/EnvironmentConfig.sol\":504:509  owner */\n      tag_36\n        /* \"contracts/EnvironmentConfig.sol\":504:511  owner() */\n      jump\t// in\n    tag_85:\n        /* \"contracts/EnvironmentConfig.sol\":490:511  msg.sender == owner() */\n      0xffffffffffffffffffffffffffffffffffffffff\n      and\n        /* \"contracts/EnvironmentConfig.sol\":490:500  msg.sender */\n      caller\n        /* \"contracts/EnvironmentConfig.sol\":490:511  msg.sender == owner() */\n      0xffffffffffffffffffffffffffffffffffffffff\n      and\n      eq\n        /* \"contracts/EnvironmentConfig.sol\":490:548  msg.sender == owner() || hasRights(msg.sender, LIST_ADMIN) */\n      dup1\n      tag_86\n      jumpi\n      pop\n        /* \"contracts/EnvironmentConfig.sol\":515:548  hasRights(msg.sender, LIST_ADMIN) */\n      tag_87\n        /* \"contracts/EnvironmentConfig.sol\":525:535  msg.sender */\n      caller\n        /* \"contracts/EnvironmentConfig.sol\":294:298  0x04 */\n      0x04\n        /* \"contracts/EnvironmentConfig.sol\":515:524  hasRights */\n      tag_69\n        /* \"contracts/EnvironmentConfig.sol\":515:548  hasRights(msg.sender, LIST_ADMIN) */\n      jump\t// in\n    tag_87:\n        /* \"contracts/EnvironmentConfig.sol\":490:548  msg.sender == owner() || hasRights(msg.sender, LIST_ADMIN) */\n    tag_86:\n        /* \"contracts/EnvironmentConfig.sol\":482:585  require(msg.sender == owner() || hasRights(msg.sender, LIST_ADMIN), \"User isn't a list administrator.\") */\n      tag_88\n      jumpi\n      mload(0x40)\n      0x08c379a000000000000000000000000000000000000000000000000000000000\n      dup2\n      mstore\n      0x04\n      add\n      tag_89\n      swap1\n      tag_90\n      jump\t// in\n    tag_89:\n      mload(0x40)\n      dup1\n      swap2\n      sub\n      swap1\n      revert\n    tag_88:\n        /* \"contracts/EnvironmentConfig.sol\":1105:1109  role */\n      dup1\n        /* \"contracts/EnvironmentConfig.sol\":1089:1097  _members */\n      0x02\n        /* \"contracts/EnvironmentConfig.sol\":1089:1102  _members[usr] */\n      0x00\n        /* \"contracts/EnvironmentConfig.sol\":1098:1101  usr */\n      dup5\n        /* \"contracts/EnvironmentConfig.sol\":1089:1102  _members[usr] */\n      0xffffffffffffffffffffffffffffffffffffffff\n      and\n      0xffffffffffffffffffffffffffffffffffffffff\n      and\n      dup2\n      mstore\n      0x20\n      add\n      swap1\n      dup2\n      mstore\n      0x20\n      add\n      0x00\n      keccak256\n      0x00\n        /* \"contracts/EnvironmentConfig.sol\":1089:1109  _members[usr] = role */\n      0x0100\n      exp\n      dup2\n      sload\n      dup2\n      0xffffffffffff\n      mul\n      not\n      and\n      swap1\n      dup4\n      0xffffffffffff\n      and\n      mul\n      or\n      swap1\n      sstore\n      pop\n        /* \"contracts/EnvironmentConfig.sol\":1004:1117  function updateMemberRights(address usr, uint48 role) public manageable() {... */\n      pop\n      pop\n      jump\t// out\n        /* \"@openzeppelin/contracts/access/Ownable.sol\":1831:1932  function renounceOwnership() public virtual onlyOwner {... */\n    tag_34:\n        /* \"@openzeppelin/contracts/access/Ownable.sol\":1094:1107  _checkOwner() */\n      tag_93\n        /* \"@openzeppelin/contracts/access/Ownable.sol\":1094:1105  _checkOwner */\n      tag_94\n        /* \"@openzeppelin/contracts/access/Ownable.sol\":1094:1107  _checkOwner() */\n      jump\t// in\n    tag_93:\n        /* \"@openzeppelin/contracts/access/Ownable.sol\":1895:1925  _transferOwnership(address(0)) */\n      tag_96\n        /* \"@openzeppelin/contracts/access/Ownable.sol\":1922:1923  0 */\n      0x00\n        /* \"@openzeppelin/contracts/access/Ownable.sol\":1895:1913  _transferOwnership */\n      tag_97\n        /* \"@openzeppelin/contracts/access/Ownable.sol\":1895:1925  _transferOwnership(address(0)) */\n      jump\t// in\n    tag_96:\n        /* \"@openzeppelin/contracts/access/Ownable.sol\":1831:1932  function renounceOwnership() public virtual onlyOwner {... */\n      jump\t// out\n        /* \"@openzeppelin/contracts/access/Ownable.sol\":1201:1286  function owner() public view virtual returns (address) {... */\n    tag_36:\n        /* \"@openzeppelin/contracts/access/Ownable.sol\":1247:1254  address */\n      0x00\n        /* \"@openzeppelin/contracts/access/Ownable.sol\":1273:1279  _owner */\n      dup1\n      0x00\n      swap1\n      sload\n      swap1\n      0x0100\n      exp\n      swap1\n      div\n      0xffffffffffffffffffffffffffffffffffffffff\n      and\n        /* \"@openzeppelin/contracts/access/Ownable.sol\":1266:1279  return _owner */\n      swap1\n      pop\n        /* \"@openzeppelin/contracts/access/Ownable.sol\":1201:1286  function owner() public view virtual returns (address) {... */\n      swap1\n      jump\t// out\n        /* \"contracts/Clock.sol\":2114:2364  function getCurrentDate() public view returns (uint256 date) {... */\n    tag_40:\n        /* \"contracts/Clock.sol\":2161:2173  uint256 date */\n      0x00\n        /* \"contracts/Clock.sol\":2186:2195  uint year */\n      dup1\n        /* \"contracts/Clock.sol\":2206:2216  uint month */\n      0x00\n        /* \"contracts/Clock.sol\":2227:2235  uint day */\n      dup1\n        /* \"contracts/Clock.sol\":2267:2306  _daysToDate(getNow() / SECONDS_PER_DAY) */\n      tag_100\n        /* \"contracts/Clock.sol\":93:105  24 * 60 * 60 */\n      0x015180\n        /* \"contracts/Clock.sol\":2279:2287  getNow() */\n      tag_101\n        /* \"contracts/Clock.sol\":2279:2285  getNow */\n      tag_47\n        /* \"contracts/Clock.sol\":2279:2287  getNow() */\n      jump\t// in\n    tag_101:\n        /* \"contracts/Clock.sol\":2279:2305  getNow() / SECONDS_PER_DAY */\n      tag_102\n      swap2\n      swap1\n      tag_103\n      jump\t// in\n    tag_102:\n        /* \"contracts/Clock.sol\":2267:2278  _daysToDate */\n      tag_104\n        /* \"contracts/Clock.sol\":2267:2306  _daysToDate(getNow() / SECONDS_PER_DAY) */\n      jump\t// in\n    tag_100:\n        /* \"contracts/Clock.sol\":2246:2306  (year, month, day) = _daysToDate(getNow() / SECONDS_PER_DAY) */\n      dup1\n      swap4\n      pop\n      dup2\n      swap5\n      pop\n      dup3\n      swap6\n      pop\n      pop\n      pop\n      pop\n        /* \"contracts/Clock.sol\":2353:2356  day */\n      dup1\n        /* \"contracts/Clock.sol\":2347:2350  100 */\n      0x64\n        /* \"contracts/Clock.sol\":2339:2344  month */\n      dup4\n        /* \"contracts/Clock.sol\":2339:2350  month * 100 */\n      tag_105\n      swap2\n      swap1\n      tag_83\n      jump\t// in\n    tag_105:\n        /* \"contracts/Clock.sol\":2331:2336  10000 */\n      0x2710\n        /* \"contracts/Clock.sol\":2324:2328  year */\n      dup6\n        /* \"contracts/Clock.sol\":2324:2336  year * 10000 */\n      tag_106\n      swap2\n      swap1\n      tag_83\n      jump\t// in\n    tag_106:\n        /* \"contracts/Clock.sol\":2324:2350  year * 10000 + month * 100 */\n      tag_107\n      swap2\n      swap1\n      tag_108\n      jump\t// in\n    tag_107:\n        /* \"contracts/Clock.sol\":2324:2356  year * 10000 + month * 100 + day */\n      tag_109\n      swap2\n      swap1\n      tag_108\n      jump\t// in\n    tag_109:\n        /* \"contracts/Clock.sol\":2317:2356  date = year * 10000 + month * 100 + day */\n      swap4\n      pop\n        /* \"contracts/Clock.sol\":2175:2364  {... */\n      pop\n      pop\n      pop\n        /* \"contracts/Clock.sol\":2114:2364  function getCurrentDate() public view returns (uint256 date) {... */\n      swap1\n      jump\t// out\n        /* \"contracts/EnvironmentConfig.sol\":810:994  function setMembersRights(address[] memory usr, uint48 role) public manageable() {... */\n    tag_45:\n        /* \"contracts/EnvironmentConfig.sol\":504:511  owner() */\n      tag_111\n        /* \"contracts/EnvironmentConfig.sol\":504:509  owner */\n      tag_36\n        /* \"contracts/EnvironmentConfig.sol\":504:511  owner() */\n      jump\t// in\n    tag_111:\n        /* \"contracts/EnvironmentConfig.sol\":490:511  msg.sender == owner() */\n      0xffffffffffffffffffffffffffffffffffffffff\n      and\n        /* \"contracts/EnvironmentConfig.sol\":490:500  msg.sender */\n      caller\n        /* \"contracts/EnvironmentConfig.sol\":490:511  msg.sender == owner() */\n      0xffffffffffffffffffffffffffffffffffffffff\n      and\n      eq\n        /* \"contracts/EnvironmentConfig.sol\":490:548  msg.sender == owner() || hasRights(msg.sender, LIST_ADMIN) */\n      dup1\n      tag_112\n      jumpi\n      pop\n        /* \"contracts/EnvironmentConfig.sol\":515:548  hasRights(msg.sender, LIST_ADMIN) */\n      tag_113\n        /* \"contracts/EnvironmentConfig.sol\":525:535  msg.sender */\n      caller\n        /* \"contracts/EnvironmentConfig.sol\":294:298  0x04 */\n      0x04\n        /* \"contracts/EnvironmentConfig.sol\":515:524  hasRights */\n      tag_69\n        /* \"contracts/EnvironmentConfig.sol\":515:548  hasRights(msg.sender, LIST_ADMIN) */\n      jump\t// in\n    tag_113:\n        /* \"contracts/EnvironmentConfig.sol\":490:548  msg.sender == owner() || hasRights(msg.sender, LIST_ADMIN) */\n    tag_112:\n        /* \"contracts/EnvironmentConfig.sol\":482:585  require(msg.sender == owner() || hasRights(msg.sender, LIST_ADMIN), \"User isn't a list administrator.\") */\n      tag_114\n      jumpi\n      mload(0x40)\n      0x08c379a000000000000000000000000000000000000000000000000000000000\n      dup2\n      mstore\n      0x04\n      add\n      tag_115\n      swap1\n      tag_90\n      jump\t// in\n    tag_115:\n      mload(0x40)\n      dup1\n      swap2\n      sub\n      swap1\n      revert\n    tag_114:\n        /* \"contracts/EnvironmentConfig.sol\":906:912  uint i */\n      0x00\n        /* \"contracts/EnvironmentConfig.sol\":902:987  for(uint i=0; i < usr.length; i++) {... */\n    tag_117:\n        /* \"contracts/EnvironmentConfig.sol\":920:923  usr */\n      dup3\n        /* \"contracts/EnvironmentConfig.sol\":920:930  usr.length */\n      mload\n        /* \"contracts/EnvironmentConfig.sol\":916:917  i */\n      dup2\n        /* \"contracts/EnvironmentConfig.sol\":916:930  i < usr.length */\n      lt\n        /* \"contracts/EnvironmentConfig.sol\":902:987  for(uint i=0; i < usr.length; i++) {... */\n      iszero\n      tag_118\n      jumpi\n        /* \"contracts/EnvironmentConfig.sol\":971:975  role */\n      dup2\n        /* \"contracts/EnvironmentConfig.sol\":952:960  _members */\n      0x02\n        /* \"contracts/EnvironmentConfig.sol\":952:968  _members[usr[i]] */\n      0x00\n        /* \"contracts/EnvironmentConfig.sol\":961:964  usr */\n      dup6\n        /* \"contracts/EnvironmentConfig.sol\":965:966  i */\n      dup5\n        /* \"contracts/EnvironmentConfig.sol\":961:967  usr[i] */\n      dup2\n      mload\n      dup2\n      lt\n      tag_120\n      jumpi\n      tag_121\n      tag_122\n      jump\t// in\n    tag_121:\n    tag_120:\n      0x20\n      mul\n      0x20\n      add\n      add\n      mload\n        /* \"contracts/EnvironmentConfig.sol\":952:968  _members[usr[i]] */\n      0xffffffffffffffffffffffffffffffffffffffff\n      and\n      0xffffffffffffffffffffffffffffffffffffffff\n      and\n      dup2\n      mstore\n      0x20\n      add\n      swap1\n      dup2\n      mstore\n      0x20\n      add\n      0x00\n      keccak256\n      0x00\n        /* \"contracts/EnvironmentConfig.sol\":952:975  _members[usr[i]] = role */\n      0x0100\n      exp\n      dup2\n      sload\n      dup2\n      0xffffffffffff\n      mul\n      not\n      and\n      swap1\n      dup4\n      0xffffffffffff\n      and\n      mul\n      or\n      swap1\n      sstore\n      pop\n        /* \"contracts/EnvironmentConfig.sol\":932:935  i++ */\n      dup1\n      dup1\n      tag_123\n      swap1\n      tag_124\n      jump\t// in\n    tag_123:\n      swap2\n      pop\n      pop\n        /* \"contracts/EnvironmentConfig.sol\":902:987  for(uint i=0; i < usr.length; i++) {... */\n      jump(tag_117)\n    tag_118:\n      pop\n        /* \"contracts/EnvironmentConfig.sol\":810:994  function setMembersRights(address[] memory usr, uint48 role) public manageable() {... */\n      pop\n      pop\n      jump\t// out\n        /* \"contracts/Clock.sol\":1946:2106  function getNow() public view returns (uint) {... */\n    tag_47:\n        /* \"contracts/Clock.sol\":1985:1989  uint */\n      0x00\n        /* \"contracts/Clock.sol\":2019:2020  0 */\n      dup1\n        /* \"contracts/Clock.sol\":2006:2016  _timestamp */\n      sload(0x01)\n        /* \"contracts/Clock.sol\":2006:2020  _timestamp > 0 */\n      gt\n        /* \"contracts/Clock.sol\":2002:2066  if (_timestamp > 0) {... */\n      iszero\n      tag_126\n      jumpi\n        /* \"contracts/Clock.sol\":2044:2054  _timestamp */\n      sload(0x01)\n        /* \"contracts/Clock.sol\":2037:2054  return _timestamp */\n      swap1\n      pop\n      jump(tag_125)\n        /* \"contracts/Clock.sol\":2002:2066  if (_timestamp > 0) {... */\n    tag_126:\n        /* \"contracts/Clock.sol\":2083:2098  block.timestamp */\n      timestamp\n        /* \"contracts/Clock.sol\":2076:2098  return block.timestamp */\n      swap1\n      pop\n        /* \"contracts/Clock.sol\":1946:2106  function getNow() public view returns (uint) {... */\n    tag_125:\n      swap1\n      jump\t// out\n        /* \"contracts/EnvironmentConfig.sol\":1127:1315  function updateMembersRights(address[] memory usr, uint48 role) public manageable() {... */\n    tag_51:\n        /* \"contracts/EnvironmentConfig.sol\":504:511  owner() */\n      tag_128\n        /* \"contracts/EnvironmentConfig.sol\":504:509  owner */\n      tag_36\n        /* \"contracts/EnvironmentConfig.sol\":504:511  owner() */\n      jump\t// in\n    tag_128:\n        /* \"contracts/EnvironmentConfig.sol\":490:511  msg.sender == owner() */\n      0xffffffffffffffffffffffffffffffffffffffff\n      and\n        /* \"contracts/EnvironmentConfig.sol\":490:500  msg.sender */\n      caller\n        /* \"contracts/EnvironmentConfig.sol\":490:511  msg.sender == owner() */\n      0xffffffffffffffffffffffffffffffffffffffff\n      and\n      eq\n        /* \"contracts/EnvironmentConfig.sol\":490:548  msg.sender == owner() || hasRights(msg.sender, LIST_ADMIN) */\n      dup1\n      tag_129\n      jumpi\n      pop\n        /* \"contracts/EnvironmentConfig.sol\":515:548  hasRights(msg.sender, LIST_ADMIN) */\n      tag_130\n        /* \"contracts/EnvironmentConfig.sol\":525:535  msg.sender */\n      caller\n        /* \"contracts/EnvironmentConfig.sol\":294:298  0x04 */\n      0x04\n        /* \"contracts/EnvironmentConfig.sol\":515:524  hasRights */\n      tag_69\n        /* \"contracts/EnvironmentConfig.sol\":515:548  hasRights(msg.sender, LIST_ADMIN) */\n      jump\t// in\n    tag_130:\n        /* \"contracts/EnvironmentConfig.sol\":490:548  msg.sender == owner() || hasRights(msg.sender, LIST_ADMIN) */\n    tag_129:\n        /* \"contracts/EnvironmentConfig.sol\":482:585  require(msg.sender == owner() || hasRights(msg.sender, LIST_ADMIN), \"User isn't a list administrator.\") */\n      tag_131\n      jumpi\n      mload(0x40)\n      0x08c379a000000000000000000000000000000000000000000000000000000000\n      dup2\n      mstore\n      0x04\n      add\n      tag_132\n      swap1\n      tag_90\n      jump\t// in\n    tag_132:\n      mload(0x40)\n      dup1\n      swap2\n      sub\n      swap1\n      revert\n    tag_131:\n        /* \"contracts/EnvironmentConfig.sol\":1226:1232  uint i */\n      0x00\n        /* \"contracts/EnvironmentConfig.sol\":1222:1308  for(uint i=0; i < usr.length; i++) {... */\n    tag_134:\n        /* \"contracts/EnvironmentConfig.sol\":1240:1243  usr */\n      dup3\n        /* \"contracts/EnvironmentConfig.sol\":1240:1250  usr.length */\n      mload\n        /* \"contracts/EnvironmentConfig.sol\":1236:1237  i */\n      dup2\n        /* \"contracts/EnvironmentConfig.sol\":1236:1250  i < usr.length */\n      lt\n        /* \"contracts/EnvironmentConfig.sol\":1222:1308  for(uint i=0; i < usr.length; i++) {... */\n      iszero\n      tag_135\n      jumpi\n        /* \"contracts/EnvironmentConfig.sol\":1292:1296  role */\n      dup2\n        /* \"contracts/EnvironmentConfig.sol\":1272:1280  _members */\n      0x02\n        /* \"contracts/EnvironmentConfig.sol\":1272:1288  _members[usr[i]] */\n      0x00\n        /* \"contracts/EnvironmentConfig.sol\":1281:1284  usr */\n      dup6\n        /* \"contracts/EnvironmentConfig.sol\":1285:1286  i */\n      dup5\n        /* \"contracts/EnvironmentConfig.sol\":1281:1287  usr[i] */\n      dup2\n      mload\n      dup2\n      lt\n      tag_137\n      jumpi\n      tag_138\n      tag_122\n      jump\t// in\n    tag_138:\n    tag_137:\n      0x20\n      mul\n      0x20\n      add\n      add\n      mload\n        /* \"contracts/EnvironmentConfig.sol\":1272:1288  _members[usr[i]] */\n      0xffffffffffffffffffffffffffffffffffffffff\n      and\n      0xffffffffffffffffffffffffffffffffffffffff\n      and\n      dup2\n      mstore\n      0x20\n      add\n      swap1\n      dup2\n      mstore\n      0x20\n      add\n      0x00\n      keccak256\n      0x00\n        /* \"contracts/EnvironmentConfig.sol\":1272:1296  _members[usr[i]] |= role */\n      dup3\n      dup3\n      dup3\n      swap1\n      sload\n      swap1\n      0x0100\n      exp\n      swap1\n      div\n      0xffffffffffff\n      and\n      or\n      swap3\n      pop\n      0x0100\n      exp\n      dup2\n      sload\n      dup2\n      0xffffffffffff\n      mul\n      not\n      and\n      swap1\n      dup4\n      0xffffffffffff\n      and\n      mul\n      or\n      swap1\n      sstore\n      pop\n        /* \"contracts/EnvironmentConfig.sol\":1252:1255  i++ */\n      dup1\n      dup1\n      tag_139\n      swap1\n      tag_124\n      jump\t// in\n    tag_139:\n      swap2\n      pop\n      pop\n        /* \"contracts/EnvironmentConfig.sol\":1222:1308  for(uint i=0; i < usr.length; i++) {... */\n      jump(tag_134)\n    tag_135:\n      pop\n        /* \"contracts/EnvironmentConfig.sol\":1127:1315  function updateMembersRights(address[] memory usr, uint48 role) public manageable() {... */\n      pop\n      pop\n      jump\t// out\n        /* \"contracts/EnvironmentConfig.sol\":690:800  function setMemberRights(address usr, uint48 role) public manageable() {... */\n    tag_54:\n        /* \"contracts/EnvironmentConfig.sol\":504:511  owner() */\n      tag_141\n        /* \"contracts/EnvironmentConfig.sol\":504:509  owner */\n      tag_36\n        /* \"contracts/EnvironmentConfig.sol\":504:511  owner() */\n      jump\t// in\n    tag_141:\n        /* \"contracts/EnvironmentConfig.sol\":490:511  msg.sender == owner() */\n      0xffffffffffffffffffffffffffffffffffffffff\n      and\n        /* \"contracts/EnvironmentConfig.sol\":490:500  msg.sender */\n      caller\n        /* \"contracts/EnvironmentConfig.sol\":490:511  msg.sender == owner() */\n      0xffffffffffffffffffffffffffffffffffffffff\n      and\n      eq\n        /* \"contracts/EnvironmentConfig.sol\":490:548  msg.sender == owner() || hasRights(msg.sender, LIST_ADMIN) */\n      dup1\n      tag_142\n      jumpi\n      pop\n        /* \"contracts/EnvironmentConfig.sol\":515:548  hasRights(msg.sender, LIST_ADMIN) */\n      tag_143\n        /* \"contracts/EnvironmentConfig.sol\":525:535  msg.sender */\n      caller\n        /* \"contracts/EnvironmentConfig.sol\":294:298  0x04 */\n      0x04\n        /* \"contracts/EnvironmentConfig.sol\":515:524  hasRights */\n      tag_69\n        /* \"contracts/EnvironmentConfig.sol\":515:548  hasRights(msg.sender, LIST_ADMIN) */\n      jump\t// in\n    tag_143:\n        /* \"contracts/EnvironmentConfig.sol\":490:548  msg.sender == owner() || hasRights(msg.sender, LIST_ADMIN) */\n    tag_142:\n        /* \"contracts/EnvironmentConfig.sol\":482:585  require(msg.sender == owner() || hasRights(msg.sender, LIST_ADMIN), \"User isn't a list administrator.\") */\n      tag_144\n      jumpi\n      mload(0x40)\n      0x08c379a000000000000000000000000000000000000000000000000000000000\n      dup2\n      mstore\n      0x04\n      add\n      tag_145\n      swap1\n      tag_90\n      jump\t// in\n    tag_145:\n      mload(0x40)\n      dup1\n      swap2\n      sub\n      swap1\n      revert\n    tag_144:\n        /* \"contracts/EnvironmentConfig.sol\":788:792  role */\n      dup1\n        /* \"contracts/EnvironmentConfig.sol\":772:780  _members */\n      0x02\n        /* \"contracts/EnvironmentConfig.sol\":772:785  _members[usr] */\n      0x00\n        /* \"contracts/EnvironmentConfig.sol\":781:784  usr */\n      dup5\n        /* \"contracts/EnvironmentConfig.sol\":772:785  _members[usr] */\n      0xffffffffffffffffffffffffffffffffffffffff\n      and\n      0xffffffffffffffffffffffffffffffffffffffff\n      and\n      dup2\n      mstore\n      0x20\n      add\n      swap1\n      dup2\n      mstore\n      0x20\n      add\n      0x00\n      keccak256\n      0x00\n        /* \"contracts/EnvironmentConfig.sol\":772:792  _members[usr] = role */\n      0x0100\n      exp\n      dup2\n      sload\n      dup2\n      0xffffffffffff\n      mul\n      not\n      and\n      swap1\n      dup4\n      0xffffffffffff\n      and\n      mul\n      or\n      swap1\n      sstore\n      pop\n        /* \"contracts/EnvironmentConfig.sol\":690:800  function setMemberRights(address usr, uint48 role) public manageable() {... */\n      pop\n      pop\n      jump\t// out\n        /* \"contracts/Clock.sol\":2548:2628  function setNow(uint timestamp) public {... */\n    tag_57:\n        /* \"contracts/Clock.sol\":2611:2620  timestamp */\n      dup1\n        /* \"contracts/Clock.sol\":2598:2608  _timestamp */\n      0x01\n        /* \"contracts/Clock.sol\":2598:2620  _timestamp = timestamp */\n      dup2\n      swap1\n      sstore\n      pop\n        /* \"contracts/Clock.sol\":2548:2628  function setNow(uint timestamp) public {... */\n      pop\n      jump\t// out\n        /* \"contracts/EnvironmentConfig.sol\":1460:1558  function getRights(address usr) public view returns(uint48){... */\n    tag_61:\n        /* \"contracts/EnvironmentConfig.sol\":1512:1518  uint48 */\n      0x00\n        /* \"contracts/EnvironmentConfig.sol\":1537:1545  _members */\n      0x02\n        /* \"contracts/EnvironmentConfig.sol\":1537:1550  _members[usr] */\n      0x00\n        /* \"contracts/EnvironmentConfig.sol\":1546:1549  usr */\n      dup4\n        /* \"contracts/EnvironmentConfig.sol\":1537:1550  _members[usr] */\n      0xffffffffffffffffffffffffffffffffffffffff\n      and\n      0xffffffffffffffffffffffffffffffffffffffff\n      and\n      dup2\n      mstore\n      0x20\n      add\n      swap1\n      dup2\n      mstore\n      0x20\n      add\n      0x00\n      keccak256\n      0x00\n      swap1\n      sload\n      swap1\n      0x0100\n      exp\n      swap1\n      div\n      0xffffffffffff\n      and\n        /* \"contracts/EnvironmentConfig.sol\":1530:1550  return _members[usr] */\n      swap1\n      pop\n        /* \"contracts/EnvironmentConfig.sol\":1460:1558  function getRights(address usr) public view returns(uint48){... */\n      swap2\n      swap1\n      pop\n      jump\t// out\n        /* \"@openzeppelin/contracts/access/Ownable.sol\":2081:2279  function transferOwnership(address newOwner) public virtual onlyOwner {... */\n    tag_66:\n        /* \"@openzeppelin/contracts/access/Ownable.sol\":1094:1107  _checkOwner() */\n      tag_150\n        /* \"@openzeppelin/contracts/access/Ownable.sol\":1094:1105  _checkOwner */\n      tag_94\n        /* \"@openzeppelin/contracts/access/Ownable.sol\":1094:1107  _checkOwner() */\n      jump\t// in\n    tag_150:\n        /* \"@openzeppelin/contracts/access/Ownable.sol\":2189:2190  0 */\n      0x00\n        /* \"@openzeppelin/contracts/access/Ownable.sol\":2169:2191  newOwner != address(0) */\n      0xffffffffffffffffffffffffffffffffffffffff\n      and\n        /* \"@openzeppelin/contracts/access/Ownable.sol\":2169:2177  newOwner */\n      dup2\n        /* \"@openzeppelin/contracts/access/Ownable.sol\":2169:2191  newOwner != address(0) */\n      0xffffffffffffffffffffffffffffffffffffffff\n      and\n      sub\n        /* \"@openzeppelin/contracts/access/Ownable.sol\":2161:2234  require(newOwner != address(0), \"Ownable: new owner is the zero address\") */\n      tag_152\n      jumpi\n      mload(0x40)\n      0x08c379a000000000000000000000000000000000000000000000000000000000\n      dup2\n      mstore\n      0x04\n      add\n      tag_153\n      swap1\n      tag_154\n      jump\t// in\n    tag_153:\n      mload(0x40)\n      dup1\n      swap2\n      sub\n      swap1\n      revert\n    tag_152:\n        /* \"@openzeppelin/contracts/access/Ownable.sol\":2244:2272  _transferOwnership(newOwner) */\n      tag_155\n        /* \"@openzeppelin/contracts/access/Ownable.sol\":2263:2271  newOwner */\n      dup2\n        /* \"@openzeppelin/contracts/access/Ownable.sol\":2244:2262  _transferOwnership */\n      tag_97\n        /* \"@openzeppelin/contracts/access/Ownable.sol\":2244:2272  _transferOwnership(newOwner) */\n      jump\t// in\n    tag_155:\n        /* \"@openzeppelin/contracts/access/Ownable.sol\":2081:2279  function transferOwnership(address newOwner) public virtual onlyOwner {... */\n      pop\n      jump\t// out\n        /* \"contracts/EnvironmentConfig.sol\":1325:1449  function hasRights(address usr, uint48 role) public view returns(bool){... */\n    tag_69:\n        /* \"contracts/EnvironmentConfig.sol\":1390:1394  bool */\n      0x00\n        /* \"contracts/EnvironmentConfig.sol\":1437:1441  role */\n      dup2\n        /* \"contracts/EnvironmentConfig.sol\":1413:1441  _members[usr] & role == role */\n      0xffffffffffff\n      and\n        /* \"contracts/EnvironmentConfig.sol\":1429:1433  role */\n      dup3\n        /* \"contracts/EnvironmentConfig.sol\":1413:1421  _members */\n      0x02\n        /* \"contracts/EnvironmentConfig.sol\":1413:1426  _members[usr] */\n      0x00\n        /* \"contracts/EnvironmentConfig.sol\":1422:1425  usr */\n      dup7\n        /* \"contracts/EnvironmentConfig.sol\":1413:1426  _members[usr] */\n      0xffffffffffffffffffffffffffffffffffffffff\n      and\n      0xffffffffffffffffffffffffffffffffffffffff\n      and\n      dup2\n      mstore\n      0x20\n      add\n      swap1\n      dup2\n      mstore\n      0x20\n      add\n      0x00\n      keccak256\n      0x00\n      swap1\n      sload\n      swap1\n      0x0100\n      exp\n      swap1\n      div\n      0xffffffffffff\n      and\n        /* \"contracts/EnvironmentConfig.sol\":1413:1433  _members[usr] & role */\n      and\n        /* \"contracts/EnvironmentConfig.sol\":1413:1441  _members[usr] & role == role */\n      0xffffffffffff\n      and\n      eq\n        /* \"contracts/EnvironmentConfig.sol\":1406:1441  return _members[usr] & role == role */\n      swap1\n      pop\n        /* \"contracts/EnvironmentConfig.sol\":1325:1449  function hasRights(address usr, uint48 role) public view returns(bool){... */\n      swap3\n      swap2\n      pop\n      pop\n      jump\t// out\n        /* \"contracts/Clock.sol\":1382:1938  function _daysFromDateConcatenated(uint256 date)  internal pure returns  (uint256 _days) {... */\n    tag_74:\n        /* \"contracts/Clock.sol\":1456:1469  uint256 _days */\n      0x00\n        /* \"contracts/Clock.sol\":1498:1506  19710000 */\n      0x012cc030\n        /* \"contracts/Clock.sol\":1490:1494  date */\n      dup3\n        /* \"contracts/Clock.sol\":1490:1506  date >= 19710000 */\n      lt\n      iszero\n        /* \"contracts/Clock.sol\":1482:1507  require(date >= 19710000) */\n      tag_158\n      jumpi\n      0x00\n      dup1\n      revert\n    tag_158:\n        /* \"contracts/Clock.sol\":1518:1529  int256 _day */\n      0x00\n        /* \"contracts/Clock.sol\":1546:1549  100 */\n      0x64\n        /* \"contracts/Clock.sol\":1539:1543  date */\n      dup4\n        /* \"contracts/Clock.sol\":1539:1549  date % 100 */\n      tag_159\n      swap2\n      swap1\n      tag_160\n      jump\t// in\n    tag_159:\n        /* \"contracts/Clock.sol\":1518:1550  int256 _day = int256(date % 100) */\n      swap1\n      pop\n        /* \"contracts/Clock.sol\":1561:1574  int256 _month */\n      0x00\n        /* \"contracts/Clock.sol\":1599:1602  100 */\n      0x64\n        /* \"contracts/Clock.sol\":1592:1595  100 */\n      dup1\n        /* \"contracts/Clock.sol\":1585:1589  date */\n      dup6\n        /* \"contracts/Clock.sol\":1585:1595  date / 100 */\n      tag_161\n      swap2\n      swap1\n      tag_103\n      jump\t// in\n    tag_161:\n        /* \"contracts/Clock.sol\":1584:1602  (date / 100) % 100 */\n      tag_162\n      swap2\n      swap1\n      tag_160\n      jump\t// in\n    tag_162:\n        /* \"contracts/Clock.sol\":1561:1603  int256 _month = int256((date / 100) % 100) */\n      swap1\n      pop\n        /* \"contracts/Clock.sol\":1614:1626  int256 _year */\n      0x00\n        /* \"contracts/Clock.sol\":1643:1648  10000 */\n      0x2710\n        /* \"contracts/Clock.sol\":1636:1640  date */\n      dup6\n        /* \"contracts/Clock.sol\":1636:1648  date / 10000 */\n      tag_163\n      swap2\n      swap1\n      tag_103\n      jump\t// in\n    tag_163:\n        /* \"contracts/Clock.sol\":1614:1649  int256 _year = int256(date / 10000) */\n      swap1\n      pop\n        /* \"contracts/Clock.sol\":1660:1673  int256 __days */\n      0x00\n        /* \"contracts/Clock.sol\":138:145  2440588 */\n      0x253d8c\n        /* \"contracts/Clock.sol\":1876:1877  4 */\n      0x04\n        /* \"contracts/Clock.sol\":1868:1871  100 */\n      0x64\n        /* \"contracts/Clock.sol\":1862:1864  12 */\n      0x0c\n        /* \"contracts/Clock.sol\":1856:1858  14 */\n      0x0e\n        /* \"contracts/Clock.sol\":1847:1853  _month */\n      dup8\n        /* \"contracts/Clock.sol\":1847:1858  _month - 14 */\n      tag_164\n      swap2\n      swap1\n      tag_165\n      jump\t// in\n    tag_164:\n        /* \"contracts/Clock.sol\":1846:1864  (_month - 14) / 12 */\n      tag_166\n      swap2\n      swap1\n      tag_167\n      jump\t// in\n    tag_166:\n        /* \"contracts/Clock.sol\":1839:1843  4900 */\n      0x1324\n        /* \"contracts/Clock.sol\":1831:1836  _year */\n      dup7\n        /* \"contracts/Clock.sol\":1831:1843  _year + 4900 */\n      tag_168\n      swap2\n      swap1\n      tag_169\n      jump\t// in\n    tag_168:\n        /* \"contracts/Clock.sol\":1831:1864  _year + 4900 + (_month - 14) / 12 */\n      tag_170\n      swap2\n      swap1\n      tag_169\n      jump\t// in\n    tag_170:\n        /* \"contracts/Clock.sol\":1830:1871  (_year + 4900 + (_month - 14) / 12) / 100 */\n      tag_171\n      swap2\n      swap1\n      tag_167\n      jump\t// in\n    tag_171:\n        /* \"contracts/Clock.sol\":1825:1826  3 */\n      0x03\n        /* \"contracts/Clock.sol\":1825:1872  3 * ((_year + 4900 + (_month - 14) / 12) / 100) */\n      tag_172\n      swap2\n      swap1\n      tag_173\n      jump\t// in\n    tag_172:\n        /* \"contracts/Clock.sol\":1824:1877  (3 * ((_year + 4900 + (_month - 14) / 12) / 100)) / 4 */\n      tag_174\n      swap2\n      swap1\n      tag_167\n      jump\t// in\n    tag_174:\n        /* \"contracts/Clock.sol\":1806:1808  12 */\n      0x0c\n        /* \"contracts/Clock.sol\":1799:1801  12 */\n      dup1\n        /* \"contracts/Clock.sol\":1793:1795  12 */\n      0x0c\n        /* \"contracts/Clock.sol\":1787:1789  14 */\n      0x0e\n        /* \"contracts/Clock.sol\":1778:1784  _month */\n      dup9\n        /* \"contracts/Clock.sol\":1778:1789  _month - 14 */\n      tag_175\n      swap2\n      swap1\n      tag_165\n      jump\t// in\n    tag_175:\n        /* \"contracts/Clock.sol\":1777:1795  (_month - 14) / 12 */\n      tag_176\n      swap2\n      swap1\n      tag_167\n      jump\t// in\n    tag_176:\n        /* \"contracts/Clock.sol\":1776:1801  ((_month - 14) / 12) * 12 */\n      tag_177\n      swap2\n      swap1\n      tag_173\n      jump\t// in\n    tag_177:\n        /* \"contracts/Clock.sol\":1772:1773  2 */\n      0x02\n        /* \"contracts/Clock.sol\":1763:1769  _month */\n      dup8\n        /* \"contracts/Clock.sol\":1763:1773  _month - 2 */\n      tag_178\n      swap2\n      swap1\n      tag_165\n      jump\t// in\n    tag_178:\n        /* \"contracts/Clock.sol\":1763:1801  _month - 2 - ((_month - 14) / 12) * 12 */\n      tag_179\n      swap2\n      swap1\n      tag_165\n      jump\t// in\n    tag_179:\n        /* \"contracts/Clock.sol\":1756:1759  367 */\n      0x016f\n        /* \"contracts/Clock.sol\":1756:1802  367 * (_month - 2 - ((_month - 14) / 12) * 12) */\n      tag_180\n      swap2\n      swap1\n      tag_173\n      jump\t// in\n    tag_180:\n        /* \"contracts/Clock.sol\":1755:1808  (367 * (_month - 2 - ((_month - 14) / 12) * 12)) / 12 */\n      tag_181\n      swap2\n      swap1\n      tag_167\n      jump\t// in\n    tag_181:\n        /* \"contracts/Clock.sol\":1738:1739  4 */\n      0x04\n        /* \"contracts/Clock.sol\":1731:1733  12 */\n      0x0c\n        /* \"contracts/Clock.sol\":1725:1727  14 */\n      0x0e\n        /* \"contracts/Clock.sol\":1716:1722  _month */\n      dup9\n        /* \"contracts/Clock.sol\":1716:1727  _month - 14 */\n      tag_182\n      swap2\n      swap1\n      tag_165\n      jump\t// in\n    tag_182:\n        /* \"contracts/Clock.sol\":1715:1733  (_month - 14) / 12 */\n      tag_183\n      swap2\n      swap1\n      tag_167\n      jump\t// in\n    tag_183:\n        /* \"contracts/Clock.sol\":1708:1712  4800 */\n      0x12c0\n        /* \"contracts/Clock.sol\":1700:1705  _year */\n      dup8\n        /* \"contracts/Clock.sol\":1700:1712  _year + 4800 */\n      tag_184\n      swap2\n      swap1\n      tag_169\n      jump\t// in\n    tag_184:\n        /* \"contracts/Clock.sol\":1700:1733  _year + 4800 + (_month - 14) / 12 */\n      tag_185\n      swap2\n      swap1\n      tag_169\n      jump\t// in\n    tag_185:\n        /* \"contracts/Clock.sol\":1692:1696  1461 */\n      0x05b5\n        /* \"contracts/Clock.sol\":1692:1734  1461 * (_year + 4800 + (_month - 14) / 12) */\n      tag_186\n      swap2\n      swap1\n      tag_173\n      jump\t// in\n    tag_186:\n        /* \"contracts/Clock.sol\":1691:1739  (1461 * (_year + 4800 + (_month - 14) / 12)) / 4 */\n      tag_187\n      swap2\n      swap1\n      tag_167\n      jump\t// in\n    tag_187:\n        /* \"contracts/Clock.sol\":1683:1688  32075 */\n      0x7d4b\n        /* \"contracts/Clock.sol\":1676:1680  _day */\n      dup9\n        /* \"contracts/Clock.sol\":1676:1688  _day - 32075 */\n      tag_188\n      swap2\n      swap1\n      tag_165\n      jump\t// in\n    tag_188:\n        /* \"contracts/Clock.sol\":1676:1739  _day - 32075 + (1461 * (_year + 4800 + (_month - 14) / 12)) / 4 */\n      tag_189\n      swap2\n      swap1\n      tag_169\n      jump\t// in\n    tag_189:\n        /* \"contracts/Clock.sol\":1676:1808  _day - 32075 + (1461 * (_year + 4800 + (_month - 14) / 12)) / 4... */\n      tag_190\n      swap2\n      swap1\n      tag_169\n      jump\t// in\n    tag_190:\n        /* \"contracts/Clock.sol\":1676:1877  _day - 32075 + (1461 * (_year + 4800 + (_month - 14) / 12)) / 4... */\n      tag_191\n      swap2\n      swap1\n      tag_165\n      jump\t// in\n    tag_191:\n        /* \"contracts/Clock.sol\":1676:1894  _day - 32075 + (1461 * (_year + 4800 + (_month - 14) / 12)) / 4... */\n      tag_192\n      swap2\n      swap1\n      tag_165\n      jump\t// in\n    tag_192:\n        /* \"contracts/Clock.sol\":1660:1894  int256 __days = _day - 32075 + (1461 * (_year + 4800 + (_month - 14) / 12)) / 4... */\n      swap1\n      pop\n        /* \"contracts/Clock.sol\":1923:1929  __days */\n      dup1\n        /* \"contracts/Clock.sol\":1907:1930  _days = uint256(__days) */\n      swap5\n      pop\n        /* \"contracts/Clock.sol\":1471:1938  {... */\n      pop\n      pop\n      pop\n      pop\n        /* \"contracts/Clock.sol\":1382:1938  function _daysFromDateConcatenated(uint256 date)  internal pure returns  (uint256 _days) {... */\n      swap2\n      swap1\n      pop\n      jump\t// out\n        /* \"@openzeppelin/contracts/access/Ownable.sol\":1359:1489  function _checkOwner() internal view virtual {... */\n    tag_94:\n        /* \"@openzeppelin/contracts/access/Ownable.sol\":1433:1445  _msgSender() */\n      tag_194\n        /* \"@openzeppelin/contracts/access/Ownable.sol\":1433:1443  _msgSender */\n      tag_195\n        /* \"@openzeppelin/contracts/access/Ownable.sol\":1433:1445  _msgSender() */\n      jump\t// in\n    tag_194:\n        /* \"@openzeppelin/contracts/access/Ownable.sol\":1422:1445  owner() == _msgSender() */\n      0xffffffffffffffffffffffffffffffffffffffff\n      and\n        /* \"@openzeppelin/contracts/access/Ownable.sol\":1422:1429  owner() */\n      tag_196\n        /* \"@openzeppelin/contracts/access/Ownable.sol\":1422:1427  owner */\n      tag_36\n        /* \"@openzeppelin/contracts/access/Ownable.sol\":1422:1429  owner() */\n      jump\t// in\n    tag_196:\n        /* \"@openzeppelin/contracts/access/Ownable.sol\":1422:1445  owner() == _msgSender() */\n      0xffffffffffffffffffffffffffffffffffffffff\n      and\n      eq\n        /* \"@openzeppelin/contracts/access/Ownable.sol\":1414:1482  require(owner() == _msgSender(), \"Ownable: caller is not the owner\") */\n      tag_197\n      jumpi\n      mload(0x40)\n      0x08c379a000000000000000000000000000000000000000000000000000000000\n      dup2\n      mstore\n      0x04\n      add\n      tag_198\n      swap1\n      tag_199\n      jump\t// in\n    tag_198:\n      mload(0x40)\n      dup1\n      swap2\n      sub\n      swap1\n      revert\n    tag_197:\n        /* \"@openzeppelin/contracts/access/Ownable.sol\":1359:1489  function _checkOwner() internal view virtual {... */\n      jump\t// out\n        /* \"@openzeppelin/contracts/access/Ownable.sol\":2433:2620  function _transferOwnership(address newOwner) internal virtual {... */\n    tag_97:\n        /* \"@openzeppelin/contracts/access/Ownable.sol\":2506:2522  address oldOwner */\n      0x00\n        /* \"@openzeppelin/contracts/access/Ownable.sol\":2525:2531  _owner */\n      dup1\n      0x00\n      swap1\n      sload\n      swap1\n      0x0100\n      exp\n      swap1\n      div\n      0xffffffffffffffffffffffffffffffffffffffff\n      and\n        /* \"@openzeppelin/contracts/access/Ownable.sol\":2506:2531  address oldOwner = _owner */\n      swap1\n      pop\n        /* \"@openzeppelin/contracts/access/Ownable.sol\":2550:2558  newOwner */\n      dup2\n        /* \"@openzeppelin/contracts/access/Ownable.sol\":2541:2547  _owner */\n      0x00\n      dup1\n        /* \"@openzeppelin/contracts/access/Ownable.sol\":2541:2558  _owner = newOwner */\n      0x0100\n      exp\n      dup2\n      sload\n      dup2\n      0xffffffffffffffffffffffffffffffffffffffff\n      mul\n      not\n      and\n      swap1\n      dup4\n      0xffffffffffffffffffffffffffffffffffffffff\n      and\n      mul\n      or\n      swap1\n      sstore\n      pop\n        /* \"@openzeppelin/contracts/access/Ownable.sol\":2604:2612  newOwner */\n      dup2\n        /* \"@openzeppelin/contracts/access/Ownable.sol\":2573:2613  OwnershipTransferred(oldOwner, newOwner) */\n      0xffffffffffffffffffffffffffffffffffffffff\n      and\n        /* \"@openzeppelin/contracts/access/Ownable.sol\":2594:2602  oldOwner */\n      dup2\n        /* \"@openzeppelin/contracts/access/Ownable.sol\":2573:2613  OwnershipTransferred(oldOwner, newOwner) */\n      0xffffffffffffffffffffffffffffffffffffffff\n      and\n      0x8be0079c531659141344cd1fd0a4f28419497f9722a3daafe3b4186f6b6457e0\n      mload(0x40)\n      mload(0x40)\n      dup1\n      swap2\n      sub\n      swap1\n      log3\n        /* \"@openzeppelin/contracts/access/Ownable.sol\":2496:2620  {... */\n      pop\n        /* \"@openzeppelin/contracts/access/Ownable.sol\":2433:2620  function _transferOwnership(address newOwner) internal virtual {... */\n      pop\n      jump\t// out\n        /* \"contracts/Clock.sol\":204:826  function _daysToDate(uint _days) internal pure returns (uint year, uint month, uint day) {... */\n    tag_104:\n        /* \"contracts/Clock.sol\":260:269  uint year */\n      0x00\n        /* \"contracts/Clock.sol\":271:281  uint month */\n      dup1\n        /* \"contracts/Clock.sol\":283:291  uint day */\n      0x00\n        /* \"contracts/Clock.sol\":304:314  int __days */\n      dup1\n        /* \"contracts/Clock.sol\":321:326  _days */\n      dup5\n        /* \"contracts/Clock.sol\":304:327  int __days = int(_days) */\n      swap1\n      pop\n        /* \"contracts/Clock.sol\":340:345  int L */\n      0x00\n        /* \"contracts/Clock.sol\":138:145  2440588 */\n      0x253d8c\n        /* \"contracts/Clock.sol\":357:362  68569 */\n      0x010bd9\n        /* \"contracts/Clock.sol\":348:354  __days */\n      dup4\n        /* \"contracts/Clock.sol\":348:362  __days + 68569 */\n      tag_202\n      swap2\n      swap1\n      tag_169\n      jump\t// in\n    tag_202:\n        /* \"contracts/Clock.sol\":348:379  __days + 68569 + OFFSET19700101 */\n      tag_203\n      swap2\n      swap1\n      tag_169\n      jump\t// in\n    tag_203:\n        /* \"contracts/Clock.sol\":340:379  int L = __days + 68569 + OFFSET19700101 */\n      swap1\n      pop\n        /* \"contracts/Clock.sol\":390:395  int N */\n      0x00\n        /* \"contracts/Clock.sol\":406:412  146097 */\n      0x023ab1\n        /* \"contracts/Clock.sol\":402:403  L */\n      dup3\n        /* \"contracts/Clock.sol\":398:399  4 */\n      0x04\n        /* \"contracts/Clock.sol\":398:403  4 * L */\n      tag_204\n      swap2\n      swap1\n      tag_173\n      jump\t// in\n    tag_204:\n        /* \"contracts/Clock.sol\":398:412  4 * L / 146097 */\n      tag_205\n      swap2\n      swap1\n      tag_167\n      jump\t// in\n    tag_205:\n        /* \"contracts/Clock.sol\":390:412  int N = 4 * L / 146097 */\n      swap1\n      pop\n        /* \"contracts/Clock.sol\":450:451  4 */\n      0x04\n        /* \"contracts/Clock.sol\":445:446  3 */\n      0x03\n        /* \"contracts/Clock.sol\":441:442  N */\n      dup3\n        /* \"contracts/Clock.sol\":432:438  146097 */\n      0x023ab1\n        /* \"contracts/Clock.sol\":432:442  146097 * N */\n      tag_206\n      swap2\n      swap1\n      tag_173\n      jump\t// in\n    tag_206:\n        /* \"contracts/Clock.sol\":432:446  146097 * N + 3 */\n      tag_207\n      swap2\n      swap1\n      tag_169\n      jump\t// in\n    tag_207:\n        /* \"contracts/Clock.sol\":431:451  (146097 * N + 3) / 4 */\n      tag_208\n      swap2\n      swap1\n      tag_167\n      jump\t// in\n    tag_208:\n        /* \"contracts/Clock.sol\":427:428  L */\n      dup3\n        /* \"contracts/Clock.sol\":427:451  L - (146097 * N + 3) / 4 */\n      tag_209\n      swap2\n      swap1\n      tag_165\n      jump\t// in\n    tag_209:\n        /* \"contracts/Clock.sol\":423:451  L = L - (146097 * N + 3) / 4 */\n      swap2\n      pop\n        /* \"contracts/Clock.sol\":462:471  int _year */\n      0x00\n        /* \"contracts/Clock.sol\":491:498  1461001 */\n      0x164b09\n        /* \"contracts/Clock.sol\":486:487  1 */\n      0x01\n        /* \"contracts/Clock.sol\":482:483  L */\n      dup5\n        /* \"contracts/Clock.sol\":482:487  L + 1 */\n      tag_210\n      swap2\n      swap1\n      tag_169\n      jump\t// in\n    tag_210:\n        /* \"contracts/Clock.sol\":474:478  4000 */\n      0x0fa0\n        /* \"contracts/Clock.sol\":474:488  4000 * (L + 1) */\n      tag_211\n      swap2\n      swap1\n      tag_173\n      jump\t// in\n    tag_211:\n        /* \"contracts/Clock.sol\":474:498  4000 * (L + 1) / 1461001 */\n      tag_212\n      swap2\n      swap1\n      tag_167\n      jump\t// in\n    tag_212:\n        /* \"contracts/Clock.sol\":462:498  int _year = 4000 * (L + 1) / 1461001 */\n      swap1\n      pop\n        /* \"contracts/Clock.sol\":536:538  31 */\n      0x1f\n        /* \"contracts/Clock.sol\":532:533  4 */\n      0x04\n        /* \"contracts/Clock.sol\":524:529  _year */\n      dup3\n        /* \"contracts/Clock.sol\":517:521  1461 */\n      0x05b5\n        /* \"contracts/Clock.sol\":517:529  1461 * _year */\n      tag_213\n      swap2\n      swap1\n      tag_173\n      jump\t// in\n    tag_213:\n        /* \"contracts/Clock.sol\":517:533  1461 * _year / 4 */\n      tag_214\n      swap2\n      swap1\n      tag_167\n      jump\t// in\n    tag_214:\n        /* \"contracts/Clock.sol\":513:514  L */\n      dup5\n        /* \"contracts/Clock.sol\":513:533  L - 1461 * _year / 4 */\n      tag_215\n      swap2\n      swap1\n      tag_165\n      jump\t// in\n    tag_215:\n        /* \"contracts/Clock.sol\":513:538  L - 1461 * _year / 4 + 31 */\n      tag_216\n      swap2\n      swap1\n      tag_169\n      jump\t// in\n    tag_216:\n        /* \"contracts/Clock.sol\":509:538  L = L - 1461 * _year / 4 + 31 */\n      swap3\n      pop\n        /* \"contracts/Clock.sol\":549:559  int _month */\n      0x00\n        /* \"contracts/Clock.sol\":571:575  2447 */\n      0x098f\n        /* \"contracts/Clock.sol\":567:568  L */\n      dup5\n        /* \"contracts/Clock.sol\":562:564  80 */\n      0x50\n        /* \"contracts/Clock.sol\":562:568  80 * L */\n      tag_217\n      swap2\n      swap1\n      tag_173\n      jump\t// in\n    tag_217:\n        /* \"contracts/Clock.sol\":562:575  80 * L / 2447 */\n      tag_218\n      swap2\n      swap1\n      tag_167\n      jump\t// in\n    tag_218:\n        /* \"contracts/Clock.sol\":549:575  int _month = 80 * L / 2447 */\n      swap1\n      pop\n        /* \"contracts/Clock.sol\":586:594  int _day */\n      0x00\n        /* \"contracts/Clock.sol\":617:619  80 */\n      0x50\n        /* \"contracts/Clock.sol\":608:614  _month */\n      dup3\n        /* \"contracts/Clock.sol\":601:605  2447 */\n      0x098f\n        /* \"contracts/Clock.sol\":601:614  2447 * _month */\n      tag_219\n      swap2\n      swap1\n      tag_173\n      jump\t// in\n    tag_219:\n        /* \"contracts/Clock.sol\":601:619  2447 * _month / 80 */\n      tag_220\n      swap2\n      swap1\n      tag_167\n      jump\t// in\n    tag_220:\n        /* \"contracts/Clock.sol\":597:598  L */\n      dup6\n        /* \"contracts/Clock.sol\":597:619  L - 2447 * _month / 80 */\n      tag_221\n      swap2\n      swap1\n      tag_165\n      jump\t// in\n    tag_221:\n        /* \"contracts/Clock.sol\":586:619  int _day = L - 2447 * _month / 80 */\n      swap1\n      pop\n        /* \"contracts/Clock.sol\":643:645  11 */\n      0x0b\n        /* \"contracts/Clock.sol\":634:640  _month */\n      dup3\n        /* \"contracts/Clock.sol\":634:645  _month / 11 */\n      tag_222\n      swap2\n      swap1\n      tag_167\n      jump\t// in\n    tag_222:\n        /* \"contracts/Clock.sol\":630:645  L = _month / 11 */\n      swap5\n      pop\n        /* \"contracts/Clock.sol\":683:684  L */\n      dup5\n        /* \"contracts/Clock.sol\":678:680  12 */\n      0x0c\n        /* \"contracts/Clock.sol\":678:684  12 * L */\n      tag_223\n      swap2\n      swap1\n      tag_173\n      jump\t// in\n    tag_223:\n        /* \"contracts/Clock.sol\":674:675  2 */\n      0x02\n        /* \"contracts/Clock.sol\":665:671  _month */\n      dup4\n        /* \"contracts/Clock.sol\":665:675  _month + 2 */\n      tag_224\n      swap2\n      swap1\n      tag_169\n      jump\t// in\n    tag_224:\n        /* \"contracts/Clock.sol\":665:684  _month + 2 - 12 * L */\n      tag_225\n      swap2\n      swap1\n      tag_165\n      jump\t// in\n    tag_225:\n        /* \"contracts/Clock.sol\":656:684  _month = _month + 2 - 12 * L */\n      swap2\n      pop\n        /* \"contracts/Clock.sol\":728:729  L */\n      dup5\n        /* \"contracts/Clock.sol\":720:725  _year */\n      dup4\n        /* \"contracts/Clock.sol\":714:716  49 */\n      0x31\n        /* \"contracts/Clock.sol\":710:711  N */\n      dup7\n        /* \"contracts/Clock.sol\":710:716  N - 49 */\n      tag_226\n      swap2\n      swap1\n      tag_165\n      jump\t// in\n    tag_226:\n        /* \"contracts/Clock.sol\":703:706  100 */\n      0x64\n        /* \"contracts/Clock.sol\":703:717  100 * (N - 49) */\n      tag_227\n      swap2\n      swap1\n      tag_173\n      jump\t// in\n    tag_227:\n        /* \"contracts/Clock.sol\":703:725  100 * (N - 49) + _year */\n      tag_228\n      swap2\n      swap1\n      tag_169\n      jump\t// in\n    tag_228:\n        /* \"contracts/Clock.sol\":703:729  100 * (N - 49) + _year + L */\n      tag_229\n      swap2\n      swap1\n      tag_169\n      jump\t// in\n    tag_229:\n        /* \"contracts/Clock.sol\":695:729  _year = 100 * (N - 49) + _year + L */\n      swap3\n      pop\n        /* \"contracts/Clock.sol\":754:759  _year */\n      dup3\n        /* \"contracts/Clock.sol\":742:760  year = uint(_year) */\n      swap9\n      pop\n        /* \"contracts/Clock.sol\":784:790  _month */\n      dup2\n        /* \"contracts/Clock.sol\":771:791  month = uint(_month) */\n      swap8\n      pop\n        /* \"contracts/Clock.sol\":813:817  _day */\n      dup1\n        /* \"contracts/Clock.sol\":802:818  day = uint(_day) */\n      swap7\n      pop\n        /* \"contracts/Clock.sol\":293:826  {... */\n      pop\n      pop\n      pop\n      pop\n      pop\n      pop\n        /* \"contracts/Clock.sol\":204:826  function _daysToDate(uint _days) internal pure returns (uint year, uint month, uint day) {... */\n      swap2\n      swap4\n      swap1\n      swap3\n      pop\n      jump\t// out\n        /* \"@openzeppelin/contracts/utils/Context.sol\":640:736  function _msgSender() internal view virtual returns (address) {... */\n    tag_195:\n        /* \"@openzeppelin/contracts/utils/Context.sol\":693:700  address */\n      0x00\n        /* \"@openzeppelin/contracts/utils/Context.sol\":719:729  msg.sender */\n      caller\n        /* \"@openzeppelin/contracts/utils/Context.sol\":712:729  return msg.sender */\n      swap1\n      pop\n        /* \"@openzeppelin/contracts/utils/Context.sol\":640:736  function _msgSender() internal view virtual returns (address) {... */\n      swap1\n      jump\t// out\n        /* \"#utility.yul\":7:82   */\n    tag_231:\n        /* \"#utility.yul\":40:46   */\n      0x00\n        /* \"#utility.yul\":73:75   */\n      0x40\n        /* \"#utility.yul\":67:76   */\n      mload\n        /* \"#utility.yul\":57:76   */\n      swap1\n      pop\n        /* \"#utility.yul\":7:82   */\n      swap1\n      jump\t// out\n        /* \"#utility.yul\":88:205   */\n    tag_232:\n        /* \"#utility.yul\":197:198   */\n      0x00\n        /* \"#utility.yul\":194:195   */\n      dup1\n        /* \"#utility.yul\":187:199   */\n      revert\n        /* \"#utility.yul\":211:328   */\n    tag_233:\n        /* \"#utility.yul\":320:321   */\n      0x00\n        /* \"#utility.yul\":317:318   */\n      dup1\n        /* \"#utility.yul\":310:322   */\n      revert\n        /* \"#utility.yul\":334:411   */\n    tag_234:\n        /* \"#utility.yul\":371:378   */\n      0x00\n        /* \"#utility.yul\":400:405   */\n      dup2\n        /* \"#utility.yul\":389:405   */\n      swap1\n      pop\n        /* \"#utility.yul\":334:411   */\n      swap2\n      swap1\n      pop\n      jump\t// out\n        /* \"#utility.yul\":417:539   */\n    tag_235:\n        /* \"#utility.yul\":490:514   */\n      tag_274\n        /* \"#utility.yul\":508:513   */\n      dup2\n        /* \"#utility.yul\":490:514   */\n      tag_234\n      jump\t// in\n    tag_274:\n        /* \"#utility.yul\":483:488   */\n      dup2\n        /* \"#utility.yul\":480:515   */\n      eq\n        /* \"#utility.yul\":470:533   */\n      tag_275\n      jumpi\n        /* \"#utility.yul\":529:530   */\n      0x00\n        /* \"#utility.yul\":526:527   */\n      dup1\n        /* \"#utility.yul\":519:531   */\n      revert\n        /* \"#utility.yul\":470:533   */\n    tag_275:\n        /* \"#utility.yul\":417:539   */\n      pop\n      jump\t// out\n        /* \"#utility.yul\":545:684   */\n    tag_236:\n        /* \"#utility.yul\":591:596   */\n      0x00\n        /* \"#utility.yul\":629:635   */\n      dup2\n        /* \"#utility.yul\":616:636   */\n      calldataload\n        /* \"#utility.yul\":607:636   */\n      swap1\n      pop\n        /* \"#utility.yul\":645:678   */\n      tag_277\n        /* \"#utility.yul\":672:677   */\n      dup2\n        /* \"#utility.yul\":645:678   */\n      tag_235\n      jump\t// in\n    tag_277:\n        /* \"#utility.yul\":545:684   */\n      swap3\n      swap2\n      pop\n      pop\n      jump\t// out\n        /* \"#utility.yul\":690:1019   */\n    tag_22:\n        /* \"#utility.yul\":749:755   */\n      0x00\n        /* \"#utility.yul\":798:800   */\n      0x20\n        /* \"#utility.yul\":786:795   */\n      dup3\n        /* \"#utility.yul\":777:784   */\n      dup5\n        /* \"#utility.yul\":773:796   */\n      sub\n        /* \"#utility.yul\":769:801   */\n      slt\n        /* \"#utility.yul\":766:885   */\n      iszero\n      tag_279\n      jumpi\n        /* \"#utility.yul\":804:883   */\n      tag_280\n      tag_232\n      jump\t// in\n    tag_280:\n        /* \"#utility.yul\":766:885   */\n    tag_279:\n        /* \"#utility.yul\":924:925   */\n      0x00\n        /* \"#utility.yul\":949:1002   */\n      tag_281\n        /* \"#utility.yul\":994:1001   */\n      dup5\n        /* \"#utility.yul\":985:991   */\n      dup3\n        /* \"#utility.yul\":974:983   */\n      dup6\n        /* \"#utility.yul\":970:992   */\n      add\n        /* \"#utility.yul\":949:1002   */\n      tag_236\n      jump\t// in\n    tag_281:\n        /* \"#utility.yul\":939:1002   */\n      swap2\n      pop\n        /* \"#utility.yul\":895:1012   */\n      pop\n        /* \"#utility.yul\":690:1019   */\n      swap3\n      swap2\n      pop\n      pop\n      jump\t// out\n        /* \"#utility.yul\":1025:1143   */\n    tag_237:\n        /* \"#utility.yul\":1112:1136   */\n      tag_283\n        /* \"#utility.yul\":1130:1135   */\n      dup2\n        /* \"#utility.yul\":1112:1136   */\n      tag_234\n      jump\t// in\n    tag_283:\n        /* \"#utility.yul\":1107:1110   */\n      dup3\n        /* \"#utility.yul\":1100:1137   */\n      mstore\n        /* \"#utility.yul\":1025:1143   */\n      pop\n      pop\n      jump\t// out\n        /* \"#utility.yul\":1149:1371   */\n    tag_25:\n        /* \"#utility.yul\":1242:1246   */\n      0x00\n        /* \"#utility.yul\":1280:1282   */\n      0x20\n        /* \"#utility.yul\":1269:1278   */\n      dup3\n        /* \"#utility.yul\":1265:1283   */\n      add\n        /* \"#utility.yul\":1257:1283   */\n      swap1\n      pop\n        /* \"#utility.yul\":1293:1364   */\n      tag_285\n        /* \"#utility.yul\":1361:1362   */\n      0x00\n        /* \"#utility.yul\":1350:1359   */\n      dup4\n        /* \"#utility.yul\":1346:1363   */\n      add\n        /* \"#utility.yul\":1337:1343   */\n      dup5\n        /* \"#utility.yul\":1293:1364   */\n      tag_237\n      jump\t// in\n    tag_285:\n        /* \"#utility.yul\":1149:1371   */\n      swap3\n      swap2\n      pop\n      pop\n      jump\t// out\n        /* \"#utility.yul\":1377:1503   */\n    tag_238:\n        /* \"#utility.yul\":1414:1421   */\n      0x00\n        /* \"#utility.yul\":1454:1496   */\n      0xffffffffffffffffffffffffffffffffffffffff\n        /* \"#utility.yul\":1447:1452   */\n      dup3\n        /* \"#utility.yul\":1443:1497   */\n      and\n        /* \"#utility.yul\":1432:1497   */\n      swap1\n      pop\n        /* \"#utility.yul\":1377:1503   */\n      swap2\n      swap1\n      pop\n      jump\t// out\n        /* \"#utility.yul\":1509:1605   */\n    tag_239:\n        /* \"#utility.yul\":1546:1553   */\n      0x00\n        /* \"#utility.yul\":1575:1599   */\n      tag_288\n        /* \"#utility.yul\":1593:1598   */\n      dup3\n        /* \"#utility.yul\":1575:1599   */\n      tag_238\n      jump\t// in\n    tag_288:\n        /* \"#utility.yul\":1564:1599   */\n      swap1\n      pop\n        /* \"#utility.yul\":1509:1605   */\n      swap2\n      swap1\n      pop\n      jump\t// out\n        /* \"#utility.yul\":1611:1733   */\n    tag_240:\n        /* \"#utility.yul\":1684:1708   */\n      tag_290\n        /* \"#utility.yul\":1702:1707   */\n      dup2\n        /* \"#utility.yul\":1684:1708   */\n      tag_239\n      jump\t// in\n    tag_290:\n        /* \"#utility.yul\":1677:1682   */\n      dup2\n        /* \"#utility.yul\":1674:1709   */\n      eq\n        /* \"#utility.yul\":1664:1727   */\n      tag_291\n      jumpi\n        /* \"#utility.yul\":1723:1724   */\n      0x00\n        /* \"#utility.yul\":1720:1721   */\n      dup1\n        /* \"#utility.yul\":1713:1725   */\n      revert\n        /* \"#utility.yul\":1664:1727   */\n    tag_291:\n        /* \"#utility.yul\":1611:1733   */\n      pop\n      jump\t// out\n        /* \"#utility.yul\":1739:1878   */\n    tag_241:\n        /* \"#utility.yul\":1785:1790   */\n      0x00\n        /* \"#utility.yul\":1823:1829   */\n      dup2\n        /* \"#utility.yul\":1810:1830   */\n      calldataload\n        /* \"#utility.yul\":1801:1830   */\n      swap1\n      pop\n        /* \"#utility.yul\":1839:1872   */\n      tag_293\n        /* \"#utility.yul\":1866:1871   */\n      dup2\n        /* \"#utility.yul\":1839:1872   */\n      tag_240\n      jump\t// in\n    tag_293:\n        /* \"#utility.yul\":1739:1878   */\n      swap3\n      swap2\n      pop\n      pop\n      jump\t// out\n        /* \"#utility.yul\":1884:1981   */\n    tag_242:\n        /* \"#utility.yul\":1920:1927   */\n      0x00\n        /* \"#utility.yul\":1960:1974   */\n      0xffffffffffff\n        /* \"#utility.yul\":1953:1958   */\n      dup3\n        /* \"#utility.yul\":1949:1975   */\n      and\n        /* \"#utility.yul\":1938:1975   */\n      swap1\n      pop\n        /* \"#utility.yul\":1884:1981   */\n      swap2\n      swap1\n      pop\n      jump\t// out\n        /* \"#utility.yul\":1987:2107   */\n    tag_243:\n        /* \"#utility.yul\":2059:2082   */\n      tag_296\n        /* \"#utility.yul\":2076:2081   */\n      dup2\n        /* \"#utility.yul\":2059:2082   */\n      tag_242\n      jump\t// in\n    tag_296:\n        /* \"#utility.yul\":2052:2057   */\n      dup2\n        /* \"#utility.yul\":2049:2083   */\n      eq\n        /* \"#utility.yul\":2039:2101   */\n      tag_297\n      jumpi\n        /* \"#utility.yul\":2097:2098   */\n      0x00\n        /* \"#utility.yul\":2094:2095   */\n      dup1\n        /* \"#utility.yul\":2087:2099   */\n      revert\n        /* \"#utility.yul\":2039:2101   */\n    tag_297:\n        /* \"#utility.yul\":1987:2107   */\n      pop\n      jump\t// out\n        /* \"#utility.yul\":2113:2250   */\n    tag_244:\n        /* \"#utility.yul\":2158:2163   */\n      0x00\n        /* \"#utility.yul\":2196:2202   */\n      dup2\n        /* \"#utility.yul\":2183:2203   */\n      calldataload\n        /* \"#utility.yul\":2174:2203   */\n      swap1\n      pop\n        /* \"#utility.yul\":2212:2244   */\n      tag_299\n        /* \"#utility.yul\":2238:2243   */\n      dup2\n        /* \"#utility.yul\":2212:2244   */\n      tag_243\n      jump\t// in\n    tag_299:\n        /* \"#utility.yul\":2113:2250   */\n      swap3\n      swap2\n      pop\n      pop\n      jump\t// out\n        /* \"#utility.yul\":2256:2728   */\n    tag_31:\n        /* \"#utility.yul\":2323:2329   */\n      0x00\n        /* \"#utility.yul\":2331:2337   */\n      dup1\n        /* \"#utility.yul\":2380:2382   */\n      0x40\n        /* \"#utility.yul\":2368:2377   */\n      dup4\n        /* \"#utility.yul\":2359:2366   */\n      dup6\n        /* \"#utility.yul\":2355:2378   */\n      sub\n        /* \"#utility.yul\":2351:2383   */\n      slt\n        /* \"#utility.yul\":2348:2467   */\n      iszero\n      tag_301\n      jumpi\n        /* \"#utility.yul\":2386:2465   */\n      tag_302\n      tag_232\n      jump\t// in\n    tag_302:\n        /* \"#utility.yul\":2348:2467   */\n    tag_301:\n        /* \"#utility.yul\":2506:2507   */\n      0x00\n        /* \"#utility.yul\":2531:2584   */\n      tag_303\n        /* \"#utility.yul\":2576:2583   */\n      dup6\n        /* \"#utility.yul\":2567:2573   */\n      dup3\n        /* \"#utility.yul\":2556:2565   */\n      dup7\n        /* \"#utility.yul\":2552:2574   */\n      add\n        /* \"#utility.yul\":2531:2584   */\n      tag_241\n      jump\t// in\n    tag_303:\n        /* \"#utility.yul\":2521:2584   */\n      swap3\n      pop\n        /* \"#utility.yul\":2477:2594   */\n      pop\n        /* \"#utility.yul\":2633:2635   */\n      0x20\n        /* \"#utility.yul\":2659:2711   */\n      tag_304\n        /* \"#utility.yul\":2703:2710   */\n      dup6\n        /* \"#utility.yul\":2694:2700   */\n      dup3\n        /* \"#utility.yul\":2683:2692   */\n      dup7\n        /* \"#utility.yul\":2679:2701   */\n      add\n        /* \"#utility.yul\":2659:2711   */\n      tag_244\n      jump\t// in\n    tag_304:\n        /* \"#utility.yul\":2649:2711   */\n      swap2\n      pop\n        /* \"#utility.yul\":2604:2721   */\n      pop\n        /* \"#utility.yul\":2256:2728   */\n      swap3\n      pop\n      swap3\n      swap1\n      pop\n      jump\t// out\n        /* \"#utility.yul\":2734:2852   */\n    tag_245:\n        /* \"#utility.yul\":2821:2845   */\n      tag_306\n        /* \"#utility.yul\":2839:2844   */\n      dup2\n        /* \"#utility.yul\":2821:2845   */\n      tag_239\n      jump\t// in\n    tag_306:\n        /* \"#utility.yul\":2816:2819   */\n      dup3\n        /* \"#utility.yul\":2809:2846   */\n      mstore\n        /* \"#utility.yul\":2734:2852   */\n      pop\n      pop\n      jump\t// out\n        /* \"#utility.yul\":2858:3080   */\n    tag_38:\n        /* \"#utility.yul\":2951:2955   */\n      0x00\n        /* \"#utility.yul\":2989:2991   */\n      0x20\n        /* \"#utility.yul\":2978:2987   */\n      dup3\n        /* \"#utility.yul\":2974:2992   */\n      add\n        /* \"#utility.yul\":2966:2992   */\n      swap1\n      pop\n        /* \"#utility.yul\":3002:3073   */\n      tag_308\n        /* \"#utility.yul\":3070:3071   */\n      0x00\n        /* \"#utility.yul\":3059:3068   */\n      dup4\n        /* \"#utility.yul\":3055:3072   */\n      add\n        /* \"#utility.yul\":3046:3052   */\n      dup5\n        /* \"#utility.yul\":3002:3073   */\n      tag_245\n      jump\t// in\n    tag_308:\n        /* \"#utility.yul\":2858:3080   */\n      swap3\n      swap2\n      pop\n      pop\n      jump\t// out\n        /* \"#utility.yul\":3086:3203   */\n    tag_246:\n        /* \"#utility.yul\":3195:3196   */\n      0x00\n        /* \"#utility.yul\":3192:3193   */\n      dup1\n        /* \"#utility.yul\":3185:3197   */\n      revert\n        /* \"#utility.yul\":3209:3311   */\n    tag_247:\n        /* \"#utility.yul\":3250:3256   */\n      0x00\n        /* \"#utility.yul\":3301:3303   */\n      0x1f\n        /* \"#utility.yul\":3297:3304   */\n      not\n        /* \"#utility.yul\":3292:3294   */\n      0x1f\n        /* \"#utility.yul\":3285:3290   */\n      dup4\n        /* \"#utility.yul\":3281:3295   */\n      add\n        /* \"#utility.yul\":3277:3305   */\n      and\n        /* \"#utility.yul\":3267:3305   */\n      swap1\n      pop\n        /* \"#utility.yul\":3209:3311   */\n      swap2\n      swap1\n      pop\n      jump\t// out\n        /* \"#utility.yul\":3317:3497   */\n    tag_248:\n        /* \"#utility.yul\":3365:3442   */\n      0x4e487b7100000000000000000000000000000000000000000000000000000000\n        /* \"#utility.yul\":3362:3363   */\n      0x00\n        /* \"#utility.yul\":3355:3443   */\n      mstore\n        /* \"#utility.yul\":3462:3466   */\n      0x41\n        /* \"#utility.yul\":3459:3460   */\n      0x04\n        /* \"#utility.yul\":3452:3467   */\n      mstore\n        /* \"#utility.yul\":3486:3490   */\n      0x24\n        /* \"#utility.yul\":3483:3484   */\n      0x00\n        /* \"#utility.yul\":3476:3491   */\n      revert\n        /* \"#utility.yul\":3503:3784   */\n    tag_249:\n        /* \"#utility.yul\":3586:3613   */\n      tag_313\n        /* \"#utility.yul\":3608:3612   */\n      dup3\n        /* \"#utility.yul\":3586:3613   */\n      tag_247\n      jump\t// in\n    tag_313:\n        /* \"#utility.yul\":3578:3584   */\n      dup2\n        /* \"#utility.yul\":3574:3614   */\n      add\n        /* \"#utility.yul\":3716:3722   */\n      dup2\n        /* \"#utility.yul\":3704:3714   */\n      dup2\n        /* \"#utility.yul\":3701:3723   */\n      lt\n        /* \"#utility.yul\":3680:3698   */\n      0xffffffffffffffff\n        /* \"#utility.yul\":3668:3678   */\n      dup3\n        /* \"#utility.yul\":3665:3699   */\n      gt\n        /* \"#utility.yul\":3662:3724   */\n      or\n        /* \"#utility.yul\":3659:3747   */\n      iszero\n      tag_314\n      jumpi\n        /* \"#utility.yul\":3727:3745   */\n      tag_315\n      tag_248\n      jump\t// in\n    tag_315:\n        /* \"#utility.yul\":3659:3747   */\n    tag_314:\n        /* \"#utility.yul\":3767:3777   */\n      dup1\n        /* \"#utility.yul\":3763:3765   */\n      0x40\n        /* \"#utility.yul\":3756:3778   */\n      mstore\n        /* \"#utility.yul\":3546:3784   */\n      pop\n        /* \"#utility.yul\":3503:3784   */\n      pop\n      pop\n      jump\t// out\n        /* \"#utility.yul\":3790:3919   */\n    tag_250:\n        /* \"#utility.yul\":3824:3830   */\n      0x00\n        /* \"#utility.yul\":3851:3871   */\n      tag_317\n      tag_231\n      jump\t// in\n    tag_317:\n        /* \"#utility.yul\":3841:3871   */\n      swap1\n      pop\n        /* \"#utility.yul\":3880:3913   */\n      tag_318\n        /* \"#utility.yul\":3908:3912   */\n      dup3\n        /* \"#utility.yul\":3900:3906   */\n      dup3\n        /* \"#utility.yul\":3880:3913   */\n      tag_249\n      jump\t// in\n    tag_318:\n        /* \"#utility.yul\":3790:3919   */\n      swap2\n      swap1\n      pop\n      jump\t// out\n        /* \"#utility.yul\":3925:4236   */\n    tag_251:\n        /* \"#utility.yul\":4002:4006   */\n      0x00\n        /* \"#utility.yul\":4092:4110   */\n      0xffffffffffffffff\n        /* \"#utility.yul\":4084:4090   */\n      dup3\n        /* \"#utility.yul\":4081:4111   */\n      gt\n        /* \"#utility.yul\":4078:4134   */\n      iszero\n      tag_320\n      jumpi\n        /* \"#utility.yul\":4114:4132   */\n      tag_321\n      tag_248\n      jump\t// in\n    tag_321:\n        /* \"#utility.yul\":4078:4134   */\n    tag_320:\n        /* \"#utility.yul\":4164:4168   */\n      0x20\n        /* \"#utility.yul\":4156:4162   */\n      dup3\n        /* \"#utility.yul\":4152:4169   */\n      mul\n        /* \"#utility.yul\":4144:4169   */\n      swap1\n      pop\n        /* \"#utility.yul\":4224:4228   */\n      0x20\n        /* \"#utility.yul\":4218:4222   */\n      dup2\n        /* \"#utility.yul\":4214:4229   */\n      add\n        /* \"#utility.yul\":4206:4229   */\n      swap1\n      pop\n        /* \"#utility.yul\":3925:4236   */\n      swap2\n      swap1\n      pop\n      jump\t// out\n        /* \"#utility.yul\":4242:4359   */\n    tag_252:\n        /* \"#utility.yul\":4351:4352   */\n      0x00\n        /* \"#utility.yul\":4348:4349   */\n      dup1\n        /* \"#utility.yul\":4341:4353   */\n      revert\n        /* \"#utility.yul\":4382:5092   */\n    tag_253:\n        /* \"#utility.yul\":4478:4483   */\n      0x00\n        /* \"#utility.yul\":4503:4584   */\n      tag_324\n        /* \"#utility.yul\":4519:4583   */\n      tag_325\n        /* \"#utility.yul\":4576:4582   */\n      dup5\n        /* \"#utility.yul\":4519:4583   */\n      tag_251\n      jump\t// in\n    tag_325:\n        /* \"#utility.yul\":4503:4584   */\n      tag_250\n      jump\t// in\n    tag_324:\n        /* \"#utility.yul\":4494:4584   */\n      swap1\n      pop\n        /* \"#utility.yul\":4604:4609   */\n      dup1\n        /* \"#utility.yul\":4633:4639   */\n      dup4\n        /* \"#utility.yul\":4626:4631   */\n      dup3\n        /* \"#utility.yul\":4619:4640   */\n      mstore\n        /* \"#utility.yul\":4667:4671   */\n      0x20\n        /* \"#utility.yul\":4660:4665   */\n      dup3\n        /* \"#utility.yul\":4656:4672   */\n      add\n        /* \"#utility.yul\":4649:4672   */\n      swap1\n      pop\n        /* \"#utility.yul\":4720:4724   */\n      0x20\n        /* \"#utility.yul\":4712:4718   */\n      dup5\n        /* \"#utility.yul\":4708:4725   */\n      mul\n        /* \"#utility.yul\":4700:4706   */\n      dup4\n        /* \"#utility.yul\":4696:4726   */\n      add\n        /* \"#utility.yul\":4749:4752   */\n      dup6\n        /* \"#utility.yul\":4741:4747   */\n      dup2\n        /* \"#utility.yul\":4738:4753   */\n      gt\n        /* \"#utility.yul\":4735:4857   */\n      iszero\n      tag_326\n      jumpi\n        /* \"#utility.yul\":4768:4847   */\n      tag_327\n      tag_252\n      jump\t// in\n    tag_327:\n        /* \"#utility.yul\":4735:4857   */\n    tag_326:\n        /* \"#utility.yul\":4883:4889   */\n      dup4\n        /* \"#utility.yul\":4866:5086   */\n    tag_328:\n        /* \"#utility.yul\":4900:4906   */\n      dup2\n        /* \"#utility.yul\":4895:4898   */\n      dup2\n        /* \"#utility.yul\":4892:4907   */\n      lt\n        /* \"#utility.yul\":4866:5086   */\n      iszero\n      tag_330\n      jumpi\n        /* \"#utility.yul\":4975:4978   */\n      dup1\n        /* \"#utility.yul\":5004:5041   */\n      tag_331\n        /* \"#utility.yul\":5037:5040   */\n      dup9\n        /* \"#utility.yul\":5025:5035   */\n      dup3\n        /* \"#utility.yul\":5004:5041   */\n      tag_241\n      jump\t// in\n    tag_331:\n        /* \"#utility.yul\":4999:5002   */\n      dup5\n        /* \"#utility.yul\":4992:5042   */\n      mstore\n        /* \"#utility.yul\":5071:5075   */\n      0x20\n        /* \"#utility.yul\":5066:5069   */\n      dup5\n        /* \"#utility.yul\":5062:5076   */\n      add\n        /* \"#utility.yul\":5055:5076   */\n      swap4\n      pop\n        /* \"#utility.yul\":4942:5086   */\n      pop\n        /* \"#utility.yul\":4926:4930   */\n      0x20\n        /* \"#utility.yul\":4921:4924   */\n      dup2\n        /* \"#utility.yul\":4917:4931   */\n      add\n        /* \"#utility.yul\":4910:4931   */\n      swap1\n      pop\n        /* \"#utility.yul\":4866:5086   */\n      jump(tag_328)\n    tag_330:\n        /* \"#utility.yul\":4870:4891   */\n      pop\n        /* \"#utility.yul\":4484:5092   */\n      pop\n      pop\n        /* \"#utility.yul\":4382:5092   */\n      swap4\n      swap3\n      pop\n      pop\n      pop\n      jump\t// out\n        /* \"#utility.yul\":5115:5485   */\n    tag_254:\n        /* \"#utility.yul\":5186:5191   */\n      0x00\n        /* \"#utility.yul\":5235:5238   */\n      dup3\n        /* \"#utility.yul\":5228:5232   */\n      0x1f\n        /* \"#utility.yul\":5220:5226   */\n      dup4\n        /* \"#utility.yul\":5216:5233   */\n      add\n        /* \"#utility.yul\":5212:5239   */\n      slt\n        /* \"#utility.yul\":5202:5324   */\n      tag_333\n      jumpi\n        /* \"#utility.yul\":5243:5322   */\n      tag_334\n      tag_246\n      jump\t// in\n    tag_334:\n        /* \"#utility.yul\":5202:5324   */\n    tag_333:\n        /* \"#utility.yul\":5360:5366   */\n      dup2\n        /* \"#utility.yul\":5347:5367   */\n      calldataload\n        /* \"#utility.yul\":5385:5479   */\n      tag_335\n        /* \"#utility.yul\":5475:5478   */\n      dup5\n        /* \"#utility.yul\":5467:5473   */\n      dup3\n        /* \"#utility.yul\":5460:5464   */\n      0x20\n        /* \"#utility.yul\":5452:5458   */\n      dup7\n        /* \"#utility.yul\":5448:5465   */\n      add\n        /* \"#utility.yul\":5385:5479   */\n      tag_253\n      jump\t// in\n    tag_335:\n        /* \"#utility.yul\":5376:5479   */\n      swap2\n      pop\n        /* \"#utility.yul\":5192:5485   */\n      pop\n        /* \"#utility.yul\":5115:5485   */\n      swap3\n      swap2\n      pop\n      pop\n      jump\t// out\n        /* \"#utility.yul\":5491:6173   */\n    tag_44:\n        /* \"#utility.yul\":5583:5589   */\n      0x00\n        /* \"#utility.yul\":5591:5597   */\n      dup1\n        /* \"#utility.yul\":5640:5642   */\n      0x40\n        /* \"#utility.yul\":5628:5637   */\n      dup4\n        /* \"#utility.yul\":5619:5626   */\n      dup6\n        /* \"#utility.yul\":5615:5638   */\n      sub\n        /* \"#utility.yul\":5611:5643   */\n      slt\n        /* \"#utility.yul\":5608:5727   */\n      iszero\n      tag_337\n      jumpi\n        /* \"#utility.yul\":5646:5725   */\n      tag_338\n      tag_232\n      jump\t// in\n    tag_338:\n        /* \"#utility.yul\":5608:5727   */\n    tag_337:\n        /* \"#utility.yul\":5794:5795   */\n      0x00\n        /* \"#utility.yul\":5783:5792   */\n      dup4\n        /* \"#utility.yul\":5779:5796   */\n      add\n        /* \"#utility.yul\":5766:5797   */\n      calldataload\n        /* \"#utility.yul\":5824:5842   */\n      0xffffffffffffffff\n        /* \"#utility.yul\":5816:5822   */\n      dup2\n        /* \"#utility.yul\":5813:5843   */\n      gt\n        /* \"#utility.yul\":5810:5927   */\n      iszero\n      tag_339\n      jumpi\n        /* \"#utility.yul\":5846:5925   */\n      tag_340\n      tag_233\n      jump\t// in\n    tag_340:\n        /* \"#utility.yul\":5810:5927   */\n    tag_339:\n        /* \"#utility.yul\":5951:6029   */\n      tag_341\n        /* \"#utility.yul\":6021:6028   */\n      dup6\n        /* \"#utility.yul\":6012:6018   */\n      dup3\n        /* \"#utility.yul\":6001:6010   */\n      dup7\n        /* \"#utility.yul\":5997:6019   */\n      add\n        /* \"#utility.yul\":5951:6029   */\n      tag_254\n      jump\t// in\n    tag_341:\n        /* \"#utility.yul\":5941:6029   */\n      swap3\n      pop\n        /* \"#utility.yul\":5737:6039   */\n      pop\n        /* \"#utility.yul\":6078:6080   */\n      0x20\n        /* \"#utility.yul\":6104:6156   */\n      tag_342\n        /* \"#utility.yul\":6148:6155   */\n      dup6\n        /* \"#utility.yul\":6139:6145   */\n      dup3\n        /* \"#utility.yul\":6128:6137   */\n      dup7\n        /* \"#utility.yul\":6124:6146   */\n      add\n        /* \"#utility.yul\":6104:6156   */\n      tag_244\n      jump\t// in\n    tag_342:\n        /* \"#utility.yul\":6094:6156   */\n      swap2\n      pop\n        /* \"#utility.yul\":6049:6166   */\n      pop\n        /* \"#utility.yul\":5491:6173   */\n      swap3\n      pop\n      swap3\n      swap1\n      pop\n      jump\t// out\n        /* \"#utility.yul\":6179:6508   */\n    tag_60:\n        /* \"#utility.yul\":6238:6244   */\n      0x00\n        /* \"#utility.yul\":6287:6289   */\n      0x20\n        /* \"#utility.yul\":6275:6284   */\n      dup3\n        /* \"#utility.yul\":6266:6273   */\n      dup5\n        /* \"#utility.yul\":6262:6285   */\n      sub\n        /* \"#utility.yul\":6258:6290   */\n      slt\n        /* \"#utility.yul\":6255:6374   */\n      iszero\n      tag_344\n      jumpi\n        /* \"#utility.yul\":6293:6372   */\n      tag_345\n      tag_232\n      jump\t// in\n    tag_345:\n        /* \"#utility.yul\":6255:6374   */\n    tag_344:\n        /* \"#utility.yul\":6413:6414   */\n      0x00\n        /* \"#utility.yul\":6438:6491   */\n      tag_346\n        /* \"#utility.yul\":6483:6490   */\n      dup5\n        /* \"#utility.yul\":6474:6480   */\n      dup3\n        /* \"#utility.yul\":6463:6472   */\n      dup6\n        /* \"#utility.yul\":6459:6481   */\n      add\n        /* \"#utility.yul\":6438:6491   */\n      tag_241\n      jump\t// in\n    tag_346:\n        /* \"#utility.yul\":6428:6491   */\n      swap2\n      pop\n        /* \"#utility.yul\":6384:6501   */\n      pop\n        /* \"#utility.yul\":6179:6508   */\n      swap3\n      swap2\n      pop\n      pop\n      jump\t// out\n        /* \"#utility.yul\":6514:6629   */\n    tag_255:\n        /* \"#utility.yul\":6599:6622   */\n      tag_348\n        /* \"#utility.yul\":6616:6621   */\n      dup2\n        /* \"#utility.yul\":6599:6622   */\n      tag_242\n      jump\t// in\n    tag_348:\n        /* \"#utility.yul\":6594:6597   */\n      dup3\n        /* \"#utility.yul\":6587:6623   */\n      mstore\n        /* \"#utility.yul\":6514:6629   */\n      pop\n      pop\n      jump\t// out\n        /* \"#utility.yul\":6635:6853   */\n    tag_63:\n        /* \"#utility.yul\":6726:6730   */\n      0x00\n        /* \"#utility.yul\":6764:6766   */\n      0x20\n        /* \"#utility.yul\":6753:6762   */\n      dup3\n        /* \"#utility.yul\":6749:6767   */\n      add\n        /* \"#utility.yul\":6741:6767   */\n      swap1\n      pop\n        /* \"#utility.yul\":6777:6846   */\n      tag_350\n        /* \"#utility.yul\":6843:6844   */\n      0x00\n        /* \"#utility.yul\":6832:6841   */\n      dup4\n        /* \"#utility.yul\":6828:6845   */\n      add\n        /* \"#utility.yul\":6819:6825   */\n      dup5\n        /* \"#utility.yul\":6777:6846   */\n      tag_255\n      jump\t// in\n    tag_350:\n        /* \"#utility.yul\":6635:6853   */\n      swap3\n      swap2\n      pop\n      pop\n      jump\t// out\n        /* \"#utility.yul\":6859:6949   */\n    tag_256:\n        /* \"#utility.yul\":6893:6900   */\n      0x00\n        /* \"#utility.yul\":6936:6941   */\n      dup2\n        /* \"#utility.yul\":6929:6942   */\n      iszero\n        /* \"#utility.yul\":6922:6943   */\n      iszero\n        /* \"#utility.yul\":6911:6943   */\n      swap1\n      pop\n        /* \"#utility.yul\":6859:6949   */\n      swap2\n      swap1\n      pop\n      jump\t// out\n        /* \"#utility.yul\":6955:7064   */\n    tag_257:\n        /* \"#utility.yul\":7036:7057   */\n      tag_353\n        /* \"#utility.yul\":7051:7056   */\n      dup2\n        /* \"#utility.yul\":7036:7057   */\n      tag_256\n      jump\t// in\n    tag_353:\n        /* \"#utility.yul\":7031:7034   */\n      dup3\n        /* \"#utility.yul\":7024:7058   */\n      mstore\n        /* \"#utility.yul\":6955:7064   */\n      pop\n      pop\n      jump\t// out\n        /* \"#utility.yul\":7070:7280   */\n    tag_71:\n        /* \"#utility.yul\":7157:7161   */\n      0x00\n        /* \"#utility.yul\":7195:7197   */\n      0x20\n        /* \"#utility.yul\":7184:7193   */\n      dup3\n        /* \"#utility.yul\":7180:7198   */\n      add\n        /* \"#utility.yul\":7172:7198   */\n      swap1\n      pop\n        /* \"#utility.yul\":7208:7273   */\n      tag_355\n        /* \"#utility.yul\":7270:7271   */\n      0x00\n        /* \"#utility.yul\":7259:7268   */\n      dup4\n        /* \"#utility.yul\":7255:7272   */\n      add\n        /* \"#utility.yul\":7246:7252   */\n      dup5\n        /* \"#utility.yul\":7208:7273   */\n      tag_257\n      jump\t// in\n    tag_355:\n        /* \"#utility.yul\":7070:7280   */\n      swap3\n      swap2\n      pop\n      pop\n      jump\t// out\n        /* \"#utility.yul\":7286:7466   */\n    tag_258:\n        /* \"#utility.yul\":7334:7411   */\n      0x4e487b7100000000000000000000000000000000000000000000000000000000\n        /* \"#utility.yul\":7331:7332   */\n      0x00\n        /* \"#utility.yul\":7324:7412   */\n      mstore\n        /* \"#utility.yul\":7431:7435   */\n      0x11\n        /* \"#utility.yul\":7428:7429   */\n      0x04\n        /* \"#utility.yul\":7421:7436   */\n      mstore\n        /* \"#utility.yul\":7455:7459   */\n      0x24\n        /* \"#utility.yul\":7452:7453   */\n      0x00\n        /* \"#utility.yul\":7445:7460   */\n      revert\n        /* \"#utility.yul\":7472:7666   */\n    tag_78:\n        /* \"#utility.yul\":7512:7516   */\n      0x00\n        /* \"#utility.yul\":7532:7552   */\n      tag_358\n        /* \"#utility.yul\":7550:7551   */\n      dup3\n        /* \"#utility.yul\":7532:7552   */\n      tag_234\n      jump\t// in\n    tag_358:\n        /* \"#utility.yul\":7527:7552   */\n      swap2\n      pop\n        /* \"#utility.yul\":7566:7586   */\n      tag_359\n        /* \"#utility.yul\":7584:7585   */\n      dup4\n        /* \"#utility.yul\":7566:7586   */\n      tag_234\n      jump\t// in\n    tag_359:\n        /* \"#utility.yul\":7561:7586   */\n      swap3\n      pop\n        /* \"#utility.yul\":7610:7611   */\n      dup3\n        /* \"#utility.yul\":7607:7608   */\n      dup3\n        /* \"#utility.yul\":7603:7612   */\n      sub\n        /* \"#utility.yul\":7595:7612   */\n      swap1\n      pop\n        /* \"#utility.yul\":7634:7635   */\n      dup2\n        /* \"#utility.yul\":7628:7632   */\n      dup2\n        /* \"#utility.yul\":7625:7636   */\n      gt\n        /* \"#utility.yul\":7622:7659   */\n      iszero\n      tag_360\n      jumpi\n        /* \"#utility.yul\":7639:7657   */\n      tag_361\n      tag_258\n      jump\t// in\n    tag_361:\n        /* \"#utility.yul\":7622:7659   */\n    tag_360:\n        /* \"#utility.yul\":7472:7666   */\n      swap3\n      swap2\n      pop\n      pop\n      jump\t// out\n        /* \"#utility.yul\":7672:8082   */\n    tag_83:\n        /* \"#utility.yul\":7712:7719   */\n      0x00\n        /* \"#utility.yul\":7735:7755   */\n      tag_363\n        /* \"#utility.yul\":7753:7754   */\n      dup3\n        /* \"#utility.yul\":7735:7755   */\n      tag_234\n      jump\t// in\n    tag_363:\n        /* \"#utility.yul\":7730:7755   */\n      swap2\n      pop\n        /* \"#utility.yul\":7769:7789   */\n      tag_364\n        /* \"#utility.yul\":7787:7788   */\n      dup4\n        /* \"#utility.yul\":7769:7789   */\n      tag_234\n      jump\t// in\n    tag_364:\n        /* \"#utility.yul\":7764:7789   */\n      swap3\n      pop\n        /* \"#utility.yul\":7824:7825   */\n      dup3\n        /* \"#utility.yul\":7821:7822   */\n      dup3\n        /* \"#utility.yul\":7817:7826   */\n      mul\n        /* \"#utility.yul\":7846:7876   */\n      tag_365\n        /* \"#utility.yul\":7864:7875   */\n      dup2\n        /* \"#utility.yul\":7846:7876   */\n      tag_234\n      jump\t// in\n    tag_365:\n        /* \"#utility.yul\":7835:7876   */\n      swap2\n      pop\n        /* \"#utility.yul\":8025:8026   */\n      dup3\n        /* \"#utility.yul\":8016:8023   */\n      dup3\n        /* \"#utility.yul\":8012:8027   */\n      div\n        /* \"#utility.yul\":8009:8010   */\n      dup5\n        /* \"#utility.yul\":8006:8028   */\n      eq\n        /* \"#utility.yul\":7986:7987   */\n      dup4\n        /* \"#utility.yul\":7979:7988   */\n      iszero\n        /* \"#utility.yul\":7959:8042   */\n      or\n        /* \"#utility.yul\":7936:8075   */\n      tag_366\n      jumpi\n        /* \"#utility.yul\":8055:8073   */\n      tag_367\n      tag_258\n      jump\t// in\n    tag_367:\n        /* \"#utility.yul\":7936:8075   */\n    tag_366:\n        /* \"#utility.yul\":7720:8082   */\n      pop\n        /* \"#utility.yul\":7672:8082   */\n      swap3\n      swap2\n      pop\n      pop\n      jump\t// out\n        /* \"#utility.yul\":8088:8257   */\n    tag_259:\n        /* \"#utility.yul\":8172:8183   */\n      0x00\n        /* \"#utility.yul\":8206:8212   */\n      dup3\n        /* \"#utility.yul\":8201:8204   */\n      dup3\n        /* \"#utility.yul\":8194:8213   */\n      mstore\n        /* \"#utility.yul\":8246:8250   */\n      0x20\n        /* \"#utility.yul\":8241:8244   */\n      dup3\n        /* \"#utility.yul\":8237:8251   */\n      add\n        /* \"#utility.yul\":8222:8251   */\n      swap1\n      pop\n        /* \"#utility.yul\":8088:8257   */\n      swap3\n      swap2\n      pop\n      pop\n      jump\t// out\n        /* \"#utility.yul\":8263:8445   */\n    tag_260:\n        /* \"#utility.yul\":8403:8437   */\n      0x557365722069736e27742061206c6973742061646d696e6973747261746f722e\n        /* \"#utility.yul\":8399:8400   */\n      0x00\n        /* \"#utility.yul\":8391:8397   */\n      dup3\n        /* \"#utility.yul\":8387:8401   */\n      add\n        /* \"#utility.yul\":8380:8438   */\n      mstore\n        /* \"#utility.yul\":8263:8445   */\n      pop\n      jump\t// out\n        /* \"#utility.yul\":8451:8817   */\n    tag_261:\n        /* \"#utility.yul\":8593:8596   */\n      0x00\n        /* \"#utility.yul\":8614:8681   */\n      tag_371\n        /* \"#utility.yul\":8678:8680   */\n      0x20\n        /* \"#utility.yul\":8673:8676   */\n      dup4\n        /* \"#utility.yul\":8614:8681   */\n      tag_259\n      jump\t// in\n    tag_371:\n        /* \"#utility.yul\":8607:8681   */\n      swap2\n      pop\n        /* \"#utility.yul\":8690:8783   */\n      tag_372\n        /* \"#utility.yul\":8779:8782   */\n      dup3\n        /* \"#utility.yul\":8690:8783   */\n      tag_260\n      jump\t// in\n    tag_372:\n        /* \"#utility.yul\":8808:8810   */\n      0x20\n        /* \"#utility.yul\":8803:8806   */\n      dup3\n        /* \"#utility.yul\":8799:8811   */\n      add\n        /* \"#utility.yul\":8792:8811   */\n      swap1\n      pop\n        /* \"#utility.yul\":8451:8817   */\n      swap2\n      swap1\n      pop\n      jump\t// out\n        /* \"#utility.yul\":8823:9242   */\n    tag_90:\n        /* \"#utility.yul\":8989:8993   */\n      0x00\n        /* \"#utility.yul\":9027:9029   */\n      0x20\n        /* \"#utility.yul\":9016:9025   */\n      dup3\n        /* \"#utility.yul\":9012:9030   */\n      add\n        /* \"#utility.yul\":9004:9030   */\n      swap1\n      pop\n        /* \"#utility.yul\":9076:9085   */\n      dup2\n        /* \"#utility.yul\":9070:9074   */\n      dup2\n        /* \"#utility.yul\":9066:9086   */\n      sub\n        /* \"#utility.yul\":9062:9063   */\n      0x00\n        /* \"#utility.yul\":9051:9060   */\n      dup4\n        /* \"#utility.yul\":9047:9064   */\n      add\n        /* \"#utility.yul\":9040:9087   */\n      mstore\n        /* \"#utility.yul\":9104:9235   */\n      tag_374\n        /* \"#utility.yul\":9230:9234   */\n      dup2\n        /* \"#utility.yul\":9104:9235   */\n      tag_261\n      jump\t// in\n    tag_374:\n        /* \"#utility.yul\":9096:9235   */\n      swap1\n      pop\n        /* \"#utility.yul\":8823:9242   */\n      swap2\n      swap1\n      pop\n      jump\t// out\n        /* \"#utility.yul\":9248:9428   */\n    tag_262:\n        /* \"#utility.yul\":9296:9373   */\n      0x4e487b7100000000000000000000000000000000000000000000000000000000\n        /* \"#utility.yul\":9293:9294   */\n      0x00\n        /* \"#utility.yul\":9286:9374   */\n      mstore\n        /* \"#utility.yul\":9393:9397   */\n      0x12\n        /* \"#utility.yul\":9390:9391   */\n      0x04\n        /* \"#utility.yul\":9383:9398   */\n      mstore\n        /* \"#utility.yul\":9417:9421   */\n      0x24\n        /* \"#utility.yul\":9414:9415   */\n      0x00\n        /* \"#utility.yul\":9407:9422   */\n      revert\n        /* \"#utility.yul\":9434:9619   */\n    tag_103:\n        /* \"#utility.yul\":9474:9475   */\n      0x00\n        /* \"#utility.yul\":9491:9511   */\n      tag_377\n        /* \"#utility.yul\":9509:9510   */\n      dup3\n        /* \"#utility.yul\":9491:9511   */\n      tag_234\n      jump\t// in\n    tag_377:\n        /* \"#utility.yul\":9486:9511   */\n      swap2\n      pop\n        /* \"#utility.yul\":9525:9545   */\n      tag_378\n        /* \"#utility.yul\":9543:9544   */\n      dup4\n        /* \"#utility.yul\":9525:9545   */\n      tag_234\n      jump\t// in\n    tag_378:\n        /* \"#utility.yul\":9520:9545   */\n      swap3\n      pop\n        /* \"#utility.yul\":9564:9565   */\n      dup3\n        /* \"#utility.yul\":9554:9589   */\n      tag_379\n      jumpi\n        /* \"#utility.yul\":9569:9587   */\n      tag_380\n      tag_262\n      jump\t// in\n    tag_380:\n        /* \"#utility.yul\":9554:9589   */\n    tag_379:\n        /* \"#utility.yul\":9611:9612   */\n      dup3\n        /* \"#utility.yul\":9608:9609   */\n      dup3\n        /* \"#utility.yul\":9604:9613   */\n      div\n        /* \"#utility.yul\":9599:9613   */\n      swap1\n      pop\n        /* \"#utility.yul\":9434:9619   */\n      swap3\n      swap2\n      pop\n      pop\n      jump\t// out\n        /* \"#utility.yul\":9625:9816   */\n    tag_108:\n        /* \"#utility.yul\":9665:9668   */\n      0x00\n        /* \"#utility.yul\":9684:9704   */\n      tag_382\n        /* \"#utility.yul\":9702:9703   */\n      dup3\n        /* \"#utility.yul\":9684:9704   */\n      tag_234\n      jump\t// in\n    tag_382:\n        /* \"#utility.yul\":9679:9704   */\n      swap2\n      pop\n        /* \"#utility.yul\":9718:9738   */\n      tag_383\n        /* \"#utility.yul\":9736:9737   */\n      dup4\n        /* \"#utility.yul\":9718:9738   */\n      tag_234\n      jump\t// in\n    tag_383:\n        /* \"#utility.yul\":9713:9738   */\n      swap3\n      pop\n        /* \"#utility.yul\":9761:9762   */\n      dup3\n        /* \"#utility.yul\":9758:9759   */\n      dup3\n        /* \"#utility.yul\":9754:9763   */\n      add\n        /* \"#utility.yul\":9747:9763   */\n      swap1\n      pop\n        /* \"#utility.yul\":9782:9785   */\n      dup1\n        /* \"#utility.yul\":9779:9780   */\n      dup3\n        /* \"#utility.yul\":9776:9786   */\n      gt\n        /* \"#utility.yul\":9773:9809   */\n      iszero\n      tag_384\n      jumpi\n        /* \"#utility.yul\":9789:9807   */\n      tag_385\n      tag_258\n      jump\t// in\n    tag_385:\n        /* \"#utility.yul\":9773:9809   */\n    tag_384:\n        /* \"#utility.yul\":9625:9816   */\n      swap3\n      swap2\n      pop\n      pop\n      jump\t// out\n        /* \"#utility.yul\":9822:10002   */\n    tag_122:\n        /* \"#utility.yul\":9870:9947   */\n      0x4e487b7100000000000000000000000000000000000000000000000000000000\n        /* \"#utility.yul\":9867:9868   */\n      0x00\n        /* \"#utility.yul\":9860:9948   */\n      mstore\n        /* \"#utility.yul\":9967:9971   */\n      0x32\n        /* \"#utility.yul\":9964:9965   */\n      0x04\n        /* \"#utility.yul\":9957:9972   */\n      mstore\n        /* \"#utility.yul\":9991:9995   */\n      0x24\n        /* \"#utility.yul\":9988:9989   */\n      0x00\n        /* \"#utility.yul\":9981:9996   */\n      revert\n        /* \"#utility.yul\":10008:10241   */\n    tag_124:\n        /* \"#utility.yul\":10047:10050   */\n      0x00\n        /* \"#utility.yul\":10070:10094   */\n      tag_388\n        /* \"#utility.yul\":10088:10093   */\n      dup3\n        /* \"#utility.yul\":10070:10094   */\n      tag_234\n      jump\t// in\n    tag_388:\n        /* \"#utility.yul\":10061:10094   */\n      swap2\n      pop\n        /* \"#utility.yul\":10116:10182   */\n      0xffffffffffffffffffffffffffffffffffffffffffffffffffffffffffffffff\n        /* \"#utility.yul\":10109:10114   */\n      dup3\n        /* \"#utility.yul\":10106:10183   */\n      sub\n        /* \"#utility.yul\":10103:10206   */\n      tag_389\n      jumpi\n        /* \"#utility.yul\":10186:10204   */\n      tag_390\n      tag_258\n      jump\t// in\n    tag_390:\n        /* \"#utility.yul\":10103:10206   */\n    tag_389:\n        /* \"#utility.yul\":10233:10234   */\n      0x01\n        /* \"#utility.yul\":10226:10231   */\n      dup3\n        /* \"#utility.yul\":10222:10235   */\n      add\n        /* \"#utility.yul\":10215:10235   */\n      swap1\n      pop\n        /* \"#utility.yul\":10008:10241   */\n      swap2\n      swap1\n      pop\n      jump\t// out\n        /* \"#utility.yul\":10247:10472   */\n    tag_263:\n        /* \"#utility.yul\":10387:10421   */\n      0x4f776e61626c653a206e6577206f776e657220697320746865207a65726f2061\n        /* \"#utility.yul\":10383:10384   */\n      0x00\n        /* \"#utility.yul\":10375:10381   */\n      dup3\n        /* \"#utility.yul\":10371:10385   */\n      add\n        /* \"#utility.yul\":10364:10422   */\n      mstore\n        /* \"#utility.yul\":10456:10464   */\n      0x6464726573730000000000000000000000000000000000000000000000000000\n        /* \"#utility.yul\":10451:10453   */\n      0x20\n        /* \"#utility.yul\":10443:10449   */\n      dup3\n        /* \"#utility.yul\":10439:10454   */\n      add\n        /* \"#utility.yul\":10432:10465   */\n      mstore\n        /* \"#utility.yul\":10247:10472   */\n      pop\n      jump\t// out\n        /* \"#utility.yul\":10478:10844   */\n    tag_264:\n        /* \"#utility.yul\":10620:10623   */\n      0x00\n        /* \"#utility.yul\":10641:10708   */\n      tag_393\n        /* \"#utility.yul\":10705:10707   */\n      0x26\n        /* \"#utility.yul\":10700:10703   */\n      dup4\n        /* \"#utility.yul\":10641:10708   */\n      tag_259\n      jump\t// in\n    tag_393:\n        /* \"#utility.yul\":10634:10708   */\n      swap2\n      pop\n        /* \"#utility.yul\":10717:10810   */\n      tag_394\n        /* \"#utility.yul\":10806:10809   */\n      dup3\n        /* \"#utility.yul\":10717:10810   */\n      tag_263\n      jump\t// in\n    tag_394:\n        /* \"#utility.yul\":10835:10837   */\n      0x40\n        /* \"#utility.yul\":10830:10833   */\n      dup3\n        /* \"#utility.yul\":10826:10838   */\n      add\n        /* \"#utility.yul\":10819:10838   */\n      swap1\n      pop\n        /* \"#utility.yul\":10478:10844   */\n      swap2\n      swap1\n      pop\n      jump\t// out\n        /* \"#utility.yul\":10850:11269   */\n    tag_154:\n        /* \"#utility.yul\":11016:11020   */\n      0x00\n        /* \"#utility.yul\":11054:11056   */\n      0x20\n        /* \"#utility.yul\":11043:11052   */\n      dup3\n        /* \"#utility.yul\":11039:11057   */\n      add\n        /* \"#utility.yul\":11031:11057   */\n      swap1\n      pop\n        /* \"#utility.yul\":11103:11112   */\n      dup2\n        /* \"#utility.yul\":11097:11101   */\n      dup2\n        /* \"#utility.yul\":11093:11113   */\n      sub\n        /* \"#utility.yul\":11089:11090   */\n      0x00\n        /* \"#utility.yul\":11078:11087   */\n      dup4\n        /* \"#utility.yul\":11074:11091   */\n      add\n        /* \"#utility.yul\":11067:11114   */\n      mstore\n        /* \"#utility.yul\":11131:11262   */\n      tag_396\n        /* \"#utility.yul\":11257:11261   */\n      dup2\n        /* \"#utility.yul\":11131:11262   */\n      tag_264\n      jump\t// in\n    tag_396:\n        /* \"#utility.yul\":11123:11262   */\n      swap1\n      pop\n        /* \"#utility.yul\":10850:11269   */\n      swap2\n      swap1\n      pop\n      jump\t// out\n        /* \"#utility.yul\":11275:11451   */\n    tag_160:\n        /* \"#utility.yul\":11307:11308   */\n      0x00\n        /* \"#utility.yul\":11324:11344   */\n      tag_398\n        /* \"#utility.yul\":11342:11343   */\n      dup3\n        /* \"#utility.yul\":11324:11344   */\n      tag_234\n      jump\t// in\n    tag_398:\n        /* \"#utility.yul\":11319:11344   */\n      swap2\n      pop\n        /* \"#utility.yul\":11358:11378   */\n      tag_399\n        /* \"#utility.yul\":11376:11377   */\n      dup4\n        /* \"#utility.yul\":11358:11378   */\n      tag_234\n      jump\t// in\n    tag_399:\n        /* \"#utility.yul\":11353:11378   */\n      swap3\n      pop\n        /* \"#utility.yul\":11397:11398   */\n      dup3\n        /* \"#utility.yul\":11387:11422   */\n      tag_400\n      jumpi\n        /* \"#utility.yul\":11402:11420   */\n      tag_401\n      tag_262\n      jump\t// in\n    tag_401:\n        /* \"#utility.yul\":11387:11422   */\n    tag_400:\n        /* \"#utility.yul\":11443:11444   */\n      dup3\n        /* \"#utility.yul\":11440:11441   */\n      dup3\n        /* \"#utility.yul\":11436:11445   */\n      mod\n        /* \"#utility.yul\":11431:11445   */\n      swap1\n      pop\n        /* \"#utility.yul\":11275:11451   */\n      swap3\n      swap2\n      pop\n      pop\n      jump\t// out\n        /* \"#utility.yul\":11457:11533   */\n    tag_265:\n        /* \"#utility.yul\":11493:11500   */\n      0x00\n        /* \"#utility.yul\":11522:11527   */\n      dup2\n        /* \"#utility.yul\":11511:11527   */\n      swap1\n      pop\n        /* \"#utility.yul\":11457:11533   */\n      swap2\n      swap1\n      pop\n      jump\t// out\n        /* \"#utility.yul\":11539:11911   */\n    tag_165:\n        /* \"#utility.yul\":11578:11582   */\n      0x00\n        /* \"#utility.yul\":11598:11617   */\n      tag_404\n        /* \"#utility.yul\":11615:11616   */\n      dup3\n        /* \"#utility.yul\":11598:11617   */\n      tag_265\n      jump\t// in\n    tag_404:\n        /* \"#utility.yul\":11593:11617   */\n      swap2\n      pop\n        /* \"#utility.yul\":11631:11650   */\n      tag_405\n        /* \"#utility.yul\":11648:11649   */\n      dup4\n        /* \"#utility.yul\":11631:11650   */\n      tag_265\n      jump\t// in\n    tag_405:\n        /* \"#utility.yul\":11626:11650   */\n      swap3\n      pop\n        /* \"#utility.yul\":11674:11675   */\n      dup3\n        /* \"#utility.yul\":11671:11672   */\n      dup3\n        /* \"#utility.yul\":11667:11676   */\n      sub\n        /* \"#utility.yul\":11659:11676   */\n      swap1\n      pop\n        /* \"#utility.yul\":11868:11869   */\n      dup2\n        /* \"#utility.yul\":11862:11866   */\n      dup2\n        /* \"#utility.yul\":11858:11870   */\n      slt\n        /* \"#utility.yul\":11854:11855   */\n      0x00\n        /* \"#utility.yul\":11851:11852   */\n      dup5\n        /* \"#utility.yul\":11847:11856   */\n      slt\n        /* \"#utility.yul\":11843:11871   */\n      and\n        /* \"#utility.yul\":11826:11827   */\n      dup3\n        /* \"#utility.yul\":11820:11824   */\n      dup3\n        /* \"#utility.yul\":11816:11828   */\n      sgt\n        /* \"#utility.yul\":11811:11812   */\n      0x00\n        /* \"#utility.yul\":11808:11809   */\n      dup6\n        /* \"#utility.yul\":11804:11813   */\n      slt\n        /* \"#utility.yul\":11797:11814   */\n      iszero\n        /* \"#utility.yul\":11793:11829   */\n      and\n        /* \"#utility.yul\":11777:11881   */\n      or\n        /* \"#utility.yul\":11774:11904   */\n      iszero\n      tag_406\n      jumpi\n        /* \"#utility.yul\":11884:11902   */\n      tag_407\n      tag_258\n      jump\t// in\n    tag_407:\n        /* \"#utility.yul\":11774:11904   */\n    tag_406:\n        /* \"#utility.yul\":11539:11911   */\n      swap3\n      swap2\n      pop\n      pop\n      jump\t// out\n        /* \"#utility.yul\":11917:12302   */\n    tag_167:\n        /* \"#utility.yul\":11956:11957   */\n      0x00\n        /* \"#utility.yul\":11973:11992   */\n      tag_409\n        /* \"#utility.yul\":11990:11991   */\n      dup3\n        /* \"#utility.yul\":11973:11992   */\n      tag_265\n      jump\t// in\n    tag_409:\n        /* \"#utility.yul\":11968:11992   */\n      swap2\n      pop\n        /* \"#utility.yul\":12006:12025   */\n      tag_410\n        /* \"#utility.yul\":12023:12024   */\n      dup4\n        /* \"#utility.yul\":12006:12025   */\n      tag_265\n      jump\t// in\n    tag_410:\n        /* \"#utility.yul\":12001:12025   */\n      swap3\n      pop\n        /* \"#utility.yul\":12044:12045   */\n      dup3\n        /* \"#utility.yul\":12034:12069   */\n      tag_411\n      jumpi\n        /* \"#utility.yul\":12049:12067   */\n      tag_412\n      tag_262\n      jump\t// in\n    tag_412:\n        /* \"#utility.yul\":12034:12069   */\n    tag_411:\n        /* \"#utility.yul\":12235:12236   */\n      0x01\n        /* \"#utility.yul\":12232:12233   */\n      0x00\n        /* \"#utility.yul\":12228:12237   */\n      sub\n        /* \"#utility.yul\":12225:12226   */\n      dup4\n        /* \"#utility.yul\":12222:12238   */\n      eq\n        /* \"#utility.yul\":12141:12207   */\n      0x8000000000000000000000000000000000000000000000000000000000000000\n        /* \"#utility.yul\":12138:12139   */\n      dup4\n        /* \"#utility.yul\":12135:12208   */\n      eq\n        /* \"#utility.yul\":12118:12248   */\n      and\n        /* \"#utility.yul\":12115:12271   */\n      iszero\n      tag_413\n      jumpi\n        /* \"#utility.yul\":12251:12269   */\n      tag_414\n      tag_258\n      jump\t// in\n    tag_414:\n        /* \"#utility.yul\":12115:12271   */\n    tag_413:\n        /* \"#utility.yul\":12294:12295   */\n      dup3\n        /* \"#utility.yul\":12291:12292   */\n      dup3\n        /* \"#utility.yul\":12286:12296   */\n      sdiv\n        /* \"#utility.yul\":12281:12296   */\n      swap1\n      pop\n        /* \"#utility.yul\":11917:12302   */\n      swap3\n      swap2\n      pop\n      pop\n      jump\t// out\n        /* \"#utility.yul\":12308:12683   */\n    tag_169:\n        /* \"#utility.yul\":12347:12350   */\n      0x00\n        /* \"#utility.yul\":12366:12385   */\n      tag_416\n        /* \"#utility.yul\":12383:12384   */\n      dup3\n        /* \"#utility.yul\":12366:12385   */\n      tag_265\n      jump\t// in\n    tag_416:\n        /* \"#utility.yul\":12361:12385   */\n      swap2\n      pop\n        /* \"#utility.yul\":12399:12418   */\n      tag_417\n        /* \"#utility.yul\":12416:12417   */\n      dup4\n        /* \"#utility.yul\":12399:12418   */\n      tag_265\n      jump\t// in\n    tag_417:\n        /* \"#utility.yul\":12394:12418   */\n      swap3\n      pop\n        /* \"#utility.yul\":12441:12442   */\n      dup3\n        /* \"#utility.yul\":12438:12439   */\n      dup3\n        /* \"#utility.yul\":12434:12443   */\n      add\n        /* \"#utility.yul\":12427:12443   */\n      swap1\n      pop\n        /* \"#utility.yul\":12639:12640   */\n      dup3\n        /* \"#utility.yul\":12634:12637   */\n      dup2\n        /* \"#utility.yul\":12630:12641   */\n      slt\n        /* \"#utility.yul\":12623:12642   */\n      iszero\n        /* \"#utility.yul\":12619:12620   */\n      0x00\n        /* \"#utility.yul\":12616:12617   */\n      dup4\n        /* \"#utility.yul\":12612:12621   */\n      slt\n        /* \"#utility.yul\":12608:12643   */\n      and\n        /* \"#utility.yul\":12591:12592   */\n      dup4\n        /* \"#utility.yul\":12586:12589   */\n      dup3\n        /* \"#utility.yul\":12582:12593   */\n      slt\n        /* \"#utility.yul\":12577:12578   */\n      0x00\n        /* \"#utility.yul\":12574:12575   */\n      dup5\n        /* \"#utility.yul\":12570:12579   */\n      slt\n        /* \"#utility.yul\":12563:12580   */\n      iszero\n        /* \"#utility.yul\":12559:12594   */\n      and\n        /* \"#utility.yul\":12543:12653   */\n      or\n        /* \"#utility.yul\":12540:12676   */\n      iszero\n      tag_418\n      jumpi\n        /* \"#utility.yul\":12656:12674   */\n      tag_419\n      tag_258\n      jump\t// in\n    tag_419:\n        /* \"#utility.yul\":12540:12676   */\n    tag_418:\n        /* \"#utility.yul\":12308:12683   */\n      swap3\n      swap2\n      pop\n      pop\n      jump\t// out\n        /* \"#utility.yul\":12689:13245   */\n    tag_173:\n        /* \"#utility.yul\":12728:12735   */\n      0x00\n        /* \"#utility.yul\":12751:12770   */\n      tag_421\n        /* \"#utility.yul\":12768:12769   */\n      dup3\n        /* \"#utility.yul\":12751:12770   */\n      tag_265\n      jump\t// in\n    tag_421:\n        /* \"#utility.yul\":12746:12770   */\n      swap2\n      pop\n        /* \"#utility.yul\":12784:12803   */\n      tag_422\n        /* \"#utility.yul\":12801:12802   */\n      dup4\n        /* \"#utility.yul\":12784:12803   */\n      tag_265\n      jump\t// in\n    tag_422:\n        /* \"#utility.yul\":12779:12803   */\n      swap3\n      pop\n        /* \"#utility.yul\":12838:12839   */\n      dup3\n        /* \"#utility.yul\":12835:12836   */\n      dup3\n        /* \"#utility.yul\":12831:12840   */\n      mul\n        /* \"#utility.yul\":12860:12889   */\n      tag_423\n        /* \"#utility.yul\":12877:12888   */\n      dup2\n        /* \"#utility.yul\":12860:12889   */\n      tag_265\n      jump\t// in\n    tag_423:\n        /* \"#utility.yul\":12849:12889   */\n      swap2\n      pop\n        /* \"#utility.yul\":12947:13013   */\n      0x8000000000000000000000000000000000000000000000000000000000000000\n        /* \"#utility.yul\":12944:12945   */\n      dup5\n        /* \"#utility.yul\":12941:13014   */\n      eq\n        /* \"#utility.yul\":12937:12938   */\n      0x00\n        /* \"#utility.yul\":12934:12935   */\n      dup5\n        /* \"#utility.yul\":12930:12939   */\n      slt\n        /* \"#utility.yul\":12926:13015   */\n      and\n        /* \"#utility.yul\":12923:13038   */\n      iszero\n      tag_424\n      jumpi\n        /* \"#utility.yul\":13018:13036   */\n      tag_425\n      tag_258\n      jump\t// in\n    tag_425:\n        /* \"#utility.yul\":12923:13038   */\n    tag_424:\n        /* \"#utility.yul\":13188:13189   */\n      dup3\n        /* \"#utility.yul\":13179:13186   */\n      dup3\n        /* \"#utility.yul\":13174:13190   */\n      sdiv\n        /* \"#utility.yul\":13171:13172   */\n      dup5\n        /* \"#utility.yul\":13168:13191   */\n      eq\n        /* \"#utility.yul\":13148:13149   */\n      dup4\n        /* \"#utility.yul\":13141:13150   */\n      iszero\n        /* \"#utility.yul\":13121:13205   */\n      or\n        /* \"#utility.yul\":13098:13238   */\n      tag_426\n      jumpi\n        /* \"#utility.yul\":13218:13236   */\n      tag_427\n      tag_258\n      jump\t// in\n    tag_427:\n        /* \"#utility.yul\":13098:13238   */\n    tag_426:\n        /* \"#utility.yul\":12736:13245   */\n      pop\n        /* \"#utility.yul\":12689:13245   */\n      swap3\n      swap2\n      pop\n      pop\n      jump\t// out\n        /* \"#utility.yul\":13251:13433   */\n    tag_266:\n        /* \"#utility.yul\":13391:13425   */\n      0x4f776e61626c653a2063616c6c6572206973206e6f7420746865206f776e6572\n        /* \"#utility.yul\":13387:13388   */\n      0x00\n        /* \"#utility.yul\":13379:13385   */\n      dup3\n        /* \"#utility.yul\":13375:13389   */\n      add\n        /* \"#utility.yul\":13368:13426   */\n      mstore\n        /* \"#utility.yul\":13251:13433   */\n      pop\n      jump\t// out\n        /* \"#utility.yul\":13439:13805   */\n    tag_267:\n        /* \"#utility.yul\":13581:13584   */\n      0x00\n        /* \"#utility.yul\":13602:13669   */\n      tag_430\n        /* \"#utility.yul\":13666:13668   */\n      0x20\n        /* \"#utility.yul\":13661:13664   */\n      dup4\n        /* \"#utility.yul\":13602:13669   */\n      tag_259\n      jump\t// in\n    tag_430:\n        /* \"#utility.yul\":13595:13669   */\n      swap2\n      pop\n        /* \"#utility.yul\":13678:13771   */\n      tag_431\n        /* \"#utility.yul\":13767:13770   */\n      dup3\n        /* \"#utility.yul\":13678:13771   */\n      tag_266\n      jump\t// in\n    tag_431:\n        /* \"#utility.yul\":13796:13798   */\n      0x20\n        /* \"#utility.yul\":13791:13794   */\n      dup3\n        /* \"#utility.yul\":13787:13799   */\n      add\n        /* \"#utility.yul\":13780:13799   */\n      swap1\n      pop\n        /* \"#utility.yul\":13439:13805   */\n      swap2\n      swap1\n      pop\n      jump\t// out\n        /* \"#utility.yul\":13811:14230   */\n    tag_199:\n        /* \"#utility.yul\":13977:13981   */\n      0x00\n        /* \"#utility.yul\":14015:14017   */\n      0x20\n        /* \"#utility.yul\":14004:14013   */\n      dup3\n        /* \"#utility.yul\":14000:14018   */\n      add\n        /* \"#utility.yul\":13992:14018   */\n      swap1\n      pop\n        /* \"#utility.yul\":14064:14073   */\n      dup2\n        /* \"#utility.yul\":14058:14062   */\n      dup2\n        /* \"#utility.yul\":14054:14074   */\n      sub\n        /* \"#utility.yul\":14050:14051   */\n      0x00\n        /* \"#utility.yul\":14039:14048   */\n      dup4\n        /* \"#utility.yul\":14035:14052   */\n      add\n        /* \"#utility.yul\":14028:14075   */\n      mstore\n        /* \"#utility.yul\":14092:14223   */\n      tag_433\n        /* \"#utility.yul\":14218:14222   */\n      dup2\n        /* \"#utility.yul\":14092:14223   */\n      tag_267\n      jump\t// in\n    tag_433:\n        /* \"#utility.yul\":14084:14223   */\n      swap1\n      pop\n        /* \"#utility.yul\":13811:14230   */\n      swap2\n      swap1\n      pop\n      jump\t// out\n\n    auxdata: 0xa2646970667358221220b8aed50adb92013920485df4566a171282335827c07260c4677fdc861694d3ba64736f6c63430008120033\n}\n",
				"bytecode": {
					"linkReferences": {},
					"object": "608060405234801561001057600080fd5b5061002d61002261009560201b60201c565b61009d60201b60201c565b6004600260003373ffffffffffffffffffffffffffffffffffffffff1673ffffffffffffffffffffffffffffffffffffffff16815260200190815260200160002060006101000a81548165ffffffffffff021916908365ffffffffffff160217905550610161565b600033905090565b60008060009054906101000a900473ffffffffffffffffffffffffffffffffffffffff169050816000806101000a81548173ffffffffffffffffffffffffffffffffffffffff021916908373ffffffffffffffffffffffffffffffffffffffff1602179055508173ffffffffffffffffffffffffffffffffffffffff168173ffffffffffffffffffffffffffffffffffffffff167f8be0079c531659141344cd1fd0a4f28419497f9722a3daafe3b4186f6b6457e060405160405180910390a35050565b6116b4806101706000396000f3fe608060405234801561001057600080fd5b50600436106100ea5760003560e01c8063bbe4fd501161008c578063e380ae9611610066578063e380ae961461020f578063e79f0e961461022b578063f2fde38b1461025b578063f35f0f7414610277576100ea565b8063bbe4fd50146101b9578063c76cb0f2146101d7578063dee2bdd4146101f3576100ea565b8063715018a6116100c8578063715018a6146101575780638da5cb5b146101615780639254d7721461017f5780639c3650241461019d576100ea565b806332672302146100ef5780634bbb4a271461011f5780635a9452f71461013b575b600080fd5b61010960048036038101906101049190610e10565b6102a7565b6040516101169190610e4c565b60405180910390f35b61013960048036038101906101349190610e10565b6102d3565b005b61015560048036038101906101509190610f03565b6102f5565b005b61015f6103e2565b005b6101696103f6565b6040516101769190610f52565b60405180910390f35b61018761041f565b6040516101949190610e4c565b60405180910390f35b6101b760048036038101906101b291906110c6565b610487565b005b6101c16105ae565b6040516101ce9190610e4c565b60405180910390f35b6101f160048036038101906101ec91906110c6565b6105cb565b005b61020d60048036038101906102089190610f03565b610709565b005b61022960048036038101906102249190610e10565b6107f6565b005b61024560048036038101906102409190611122565b610800565b604051610252919061115e565b60405180910390f35b61027560048036038101906102709190611122565b61085b565b005b610291600480360381019061028c9190610f03565b6108de565b60405161029e9190611194565b60405180910390f35b60006102b28261094e565b6102c26102bd61041f565b61094e565b6102cc91906111de565b9050919050565b6102f2620151806102e38361094e565b6102ed9190611212565b6107f6565b50565b6102fd6103f6565b73ffffffffffffffffffffffffffffffffffffffff163373ffffffffffffffffffffffffffffffffffffffff16148061033d575061033c3360046108de565b5b61037c576040517f08c379a0000000000000000000000000000000000000000000000000000000008152600401610373906112b1565b60405180910390fd5b80600260008473ffffffffffffffffffffffffffffffffffffffff1673ffffffffffffffffffffffffffffffffffffffff16815260200190815260200160002060006101000a81548165ffffffffffff021916908365ffffffffffff1602179055505050565b6103ea610add565b6103f46000610b5b565b565b60008060009054906101000a900473ffffffffffffffffffffffffffffffffffffffff16905090565b600080600080610443620151806104346105ae565b61043e9190611300565b610c1f565b8093508194508295505050508060648361045d9190611212565b6127108561046b9190611212565b6104759190611331565b61047f9190611331565b935050505090565b61048f6103f6565b73ffffffffffffffffffffffffffffffffffffffff163373ffffffffffffffffffffffffffffffffffffffff1614806104cf57506104ce3360046108de565b5b61050e576040517f08c379a0000000000000000000000000000000000000000000000000000000008152600401610505906112b1565b60405180910390fd5b60005b82518110156105a957816002600085848151811061053257610531611365565b5b602002602001015173ffffffffffffffffffffffffffffffffffffffff1673ffffffffffffffffffffffffffffffffffffffff16815260200190815260200160002060006101000a81548165ffffffffffff021916908365ffffffffffff16021790555080806105a190611394565b915050610511565b505050565b60008060015411156105c45760015490506105c8565b4290505b90565b6105d36103f6565b73ffffffffffffffffffffffffffffffffffffffff163373ffffffffffffffffffffffffffffffffffffffff16148061061357506106123360046108de565b5b610652576040517f08c379a0000000000000000000000000000000000000000000000000000000008152600401610649906112b1565b60405180910390fd5b60005b825181101561070457816002600085848151811061067657610675611365565b5b602002602001015173ffffffffffffffffffffffffffffffffffffffff1673ffffffffffffffffffffffffffffffffffffffff16815260200190815260200160002060008282829054906101000a900465ffffffffffff161792506101000a81548165ffffffffffff021916908365ffffffffffff16021790555080806106fc90611394565b915050610655565b505050565b6107116103f6565b73ffffffffffffffffffffffffffffffffffffffff163373ffffffffffffffffffffffffffffffffffffffff16148061075157506107503360046108de565b5b610790576040517f08c379a0000000000000000000000000000000000000000000000000000000008152600401610787906112b1565b60405180910390fd5b80600260008473ffffffffffffffffffffffffffffffffffffffff1673ffffffffffffffffffffffffffffffffffffffff16815260200190815260200160002060006101000a81548165ffffffffffff021916908365ffffffffffff1602179055505050565b8060018190555050565b6000600260008373ffffffffffffffffffffffffffffffffffffffff1673ffffffffffffffffffffffffffffffffffffffff16815260200190815260200160002060009054906101000a900465ffffffffffff169050919050565b610863610add565b600073ffffffffffffffffffffffffffffffffffffffff168173ffffffffffffffffffffffffffffffffffffffff16036108d2576040517f08c379a00000000000000000000000000000000000000000000000000000000081526004016108c99061144e565b60405180910390fd5b6108db81610b5b565b50565b60008165ffffffffffff1682600260008673ffffffffffffffffffffffffffffffffffffffff1673ffffffffffffffffffffffffffffffffffffffff16815260200190815260200160002060009054906101000a900465ffffffffffff161665ffffffffffff1614905092915050565b600063012cc03082101561096157600080fd5b6000606483610970919061146e565b90506000606480856109829190611300565b61098c919061146e565b905060006127108561099e9190611300565b9050600062253d8c60046064600c600e876109b991906114a9565b6109c391906114ec565b611324866109d19190611556565b6109db9190611556565b6109e591906114ec565b60036109f1919061159a565b6109fb91906114ec565b600c80600c600e88610a0d91906114a9565b610a1791906114ec565b610a21919061159a565b600287610a2e91906114a9565b610a3891906114a9565b61016f610a45919061159a565b610a4f91906114ec565b6004600c600e88610a6091906114a9565b610a6a91906114ec565b6112c087610a789190611556565b610a829190611556565b6105b5610a8f919061159a565b610a9991906114ec565b617d4b88610aa791906114a9565b610ab19190611556565b610abb9190611556565b610ac591906114a9565b610acf91906114a9565b905080945050505050919050565b610ae5610dbe565b73ffffffffffffffffffffffffffffffffffffffff16610b036103f6565b73ffffffffffffffffffffffffffffffffffffffff1614610b59576040517f08c379a0000000000000000000000000000000000000000000000000000000008152600401610b509061165e565b60405180910390fd5b565b60008060009054906101000a900473ffffffffffffffffffffffffffffffffffffffff169050816000806101000a81548173ffffffffffffffffffffffffffffffffffffffff021916908373ffffffffffffffffffffffffffffffffffffffff1602179055508173ffffffffffffffffffffffffffffffffffffffff168173ffffffffffffffffffffffffffffffffffffffff167f8be0079c531659141344cd1fd0a4f28419497f9722a3daafe3b4186f6b6457e060405160405180910390a35050565b600080600080849050600062253d8c62010bd983610c3d9190611556565b610c479190611556565b9050600062023ab1826004610c5c919061159a565b610c6691906114ec565b9050600460038262023ab1610c7b919061159a565b610c859190611556565b610c8f91906114ec565b82610c9a91906114a9565b9150600062164b09600184610caf9190611556565b610fa0610cbc919061159a565b610cc691906114ec565b9050601f6004826105b5610cda919061159a565b610ce491906114ec565b84610cef91906114a9565b610cf99190611556565b9250600061098f846050610d0d919061159a565b610d1791906114ec565b9050600060508261098f610d2b919061159a565b610d3591906114ec565b85610d4091906114a9565b9050600b82610d4f91906114ec565b945084600c610d5e919061159a565b600283610d6b9190611556565b610d7591906114a9565b91508483603186610d8691906114a9565b6064610d92919061159a565b610d9c9190611556565b610da69190611556565b92508298508197508096505050505050509193909250565b600033905090565b6000604051905090565b600080fd5b600080fd5b6000819050919050565b610ded81610dda565b8114610df857600080fd5b50565b600081359050610e0a81610de4565b92915050565b600060208284031215610e2657610e25610dd0565b5b6000610e3484828501610dfb565b91505092915050565b610e4681610dda565b82525050565b6000602082019050610e616000830184610e3d565b92915050565b600073ffffffffffffffffffffffffffffffffffffffff82169050919050565b6000610e9282610e67565b9050919050565b610ea281610e87565b8114610ead57600080fd5b50565b600081359050610ebf81610e99565b92915050565b600065ffffffffffff82169050919050565b610ee081610ec5565b8114610eeb57600080fd5b50565b600081359050610efd81610ed7565b92915050565b60008060408385031215610f1a57610f19610dd0565b5b6000610f2885828601610eb0565b9250506020610f3985828601610eee565b9150509250929050565b610f4c81610e87565b82525050565b6000602082019050610f676000830184610f43565b92915050565b600080fd5b6000601f19601f8301169050919050565b7f4e487b7100000000000000000000000000000000000000000000000000000000600052604160045260246000fd5b610fbb82610f72565b810181811067ffffffffffffffff82111715610fda57610fd9610f83565b5b80604052505050565b6000610fed610dc6565b9050610ff98282610fb2565b919050565b600067ffffffffffffffff82111561101957611018610f83565b5b602082029050602081019050919050565b600080fd5b600061104261103d84610ffe565b610fe3565b905080838252602082019050602084028301858111156110655761106461102a565b5b835b8181101561108e578061107a8882610eb0565b845260208401935050602081019050611067565b5050509392505050565b600082601f8301126110ad576110ac610f6d565b5b81356110bd84826020860161102f565b91505092915050565b600080604083850312156110dd576110dc610dd0565b5b600083013567ffffffffffffffff8111156110fb576110fa610dd5565b5b61110785828601611098565b925050602061111885828601610eee565b9150509250929050565b60006020828403121561113857611137610dd0565b5b600061114684828501610eb0565b91505092915050565b61115881610ec5565b82525050565b6000602082019050611173600083018461114f565b92915050565b60008115159050919050565b61118e81611179565b82525050565b60006020820190506111a96000830184611185565b92915050565b7f4e487b7100000000000000000000000000000000000000000000000000000000600052601160045260246000fd5b60006111e982610dda565b91506111f483610dda565b925082820390508181111561120c5761120b6111af565b5b92915050565b600061121d82610dda565b915061122883610dda565b925082820261123681610dda565b9150828204841483151761124d5761124c6111af565b5b5092915050565b600082825260208201905092915050565b7f557365722069736e27742061206c6973742061646d696e6973747261746f722e600082015250565b600061129b602083611254565b91506112a682611265565b602082019050919050565b600060208201905081810360008301526112ca8161128e565b9050919050565b7f4e487b7100000000000000000000000000000000000000000000000000000000600052601260045260246000fd5b600061130b82610dda565b915061131683610dda565b925082611326576113256112d1565b5b828204905092915050565b600061133c82610dda565b915061134783610dda565b925082820190508082111561135f5761135e6111af565b5b92915050565b7f4e487b7100000000000000000000000000000000000000000000000000000000600052603260045260246000fd5b600061139f82610dda565b91507fffffffffffffffffffffffffffffffffffffffffffffffffffffffffffffffff82036113d1576113d06111af565b5b600182019050919050565b7f4f776e61626c653a206e6577206f776e657220697320746865207a65726f206160008201527f6464726573730000000000000000000000000000000000000000000000000000602082015250565b6000611438602683611254565b9150611443826113dc565b604082019050919050565b600060208201905081810360008301526114678161142b565b9050919050565b600061147982610dda565b915061148483610dda565b925082611494576114936112d1565b5b828206905092915050565b6000819050919050565b60006114b48261149f565b91506114bf8361149f565b92508282039050818112600084121682821360008512151617156114e6576114e56111af565b5b92915050565b60006114f78261149f565b91506115028361149f565b925082611512576115116112d1565b5b600160000383147f80000000000000000000000000000000000000000000000000000000000000008314161561154b5761154a6111af565b5b828205905092915050565b60006115618261149f565b915061156c8361149f565b925082820190508281121560008312168382126000841215161715611594576115936111af565b5b92915050565b60006115a58261149f565b91506115b08361149f565b92508282026115be8161149f565b91507f800000000000000000000000000000000000000000000000000000000000000084146000841216156115f6576115f56111af565b5b828205841483151761160b5761160a6111af565b5b5092915050565b7f4f776e61626c653a2063616c6c6572206973206e6f7420746865206f776e6572600082015250565b6000611648602083611254565b915061165382611612565b602082019050919050565b600060208201905081810360008301526116778161163b565b905091905056fea2646970667358221220b8aed50adb92013920485df4566a171282335827c07260c4677fdc861694d3ba64736f6c63430008120033",
					"opcodes": "PUSH1 0x80 PUSH1 0x40 MSTORE CALLVALUE DUP1 ISZERO PUSH2 0x10 JUMPI PUSH1 0x0 DUP1 REVERT JUMPDEST POP PUSH2 0x2D PUSH2 0x22 PUSH2 0x95 PUSH1 0x20 SHL PUSH1 0x20 SHR JUMP JUMPDEST PUSH2 0x9D PUSH1 0x20 SHL PUSH1 0x20 SHR JUMP JUMPDEST PUSH1 0x4 PUSH1 0x2 PUSH1 0x0 CALLER PUSH20 0xFFFFFFFFFFFFFFFFFFFFFFFFFFFFFFFFFFFFFFFF AND PUSH20 0xFFFFFFFFFFFFFFFFFFFFFFFFFFFFFFFFFFFFFFFF AND DUP2 MSTORE PUSH1 0x20 ADD SWAP1 DUP2 MSTORE PUSH1 0x20 ADD PUSH1 0x0 KECCAK256 PUSH1 0x0 PUSH2 0x100 EXP DUP2 SLOAD DUP2 PUSH6 0xFFFFFFFFFFFF MUL NOT AND SWAP1 DUP4 PUSH6 0xFFFFFFFFFFFF AND MUL OR SWAP1 SSTORE POP PUSH2 0x161 JUMP JUMPDEST PUSH1 0x0 CALLER SWAP1 POP SWAP1 JUMP JUMPDEST PUSH1 0x0 DUP1 PUSH1 0x0 SWAP1 SLOAD SWAP1 PUSH2 0x100 EXP SWAP1 DIV PUSH20 0xFFFFFFFFFFFFFFFFFFFFFFFFFFFFFFFFFFFFFFFF AND SWAP1 POP DUP2 PUSH1 0x0 DUP1 PUSH2 0x100 EXP DUP2 SLOAD DUP2 PUSH20 0xFFFFFFFFFFFFFFFFFFFFFFFFFFFFFFFFFFFFFFFF MUL NOT AND SWAP1 DUP4 PUSH20 0xFFFFFFFFFFFFFFFFFFFFFFFFFFFFFFFFFFFFFFFF AND MUL OR SWAP1 SSTORE POP DUP2 PUSH20 0xFFFFFFFFFFFFFFFFFFFFFFFFFFFFFFFFFFFFFFFF AND DUP2 PUSH20 0xFFFFFFFFFFFFFFFFFFFFFFFFFFFFFFFFFFFFFFFF AND PUSH32 0x8BE0079C531659141344CD1FD0A4F28419497F9722A3DAAFE3B4186F6B6457E0 PUSH1 0x40 MLOAD PUSH1 0x40 MLOAD DUP1 SWAP2 SUB SWAP1 LOG3 POP POP JUMP JUMPDEST PUSH2 0x16B4 DUP1 PUSH2 0x170 PUSH1 0x0 CODECOPY PUSH1 0x0 RETURN INVALID PUSH1 0x80 PUSH1 0x40 MSTORE CALLVALUE DUP1 ISZERO PUSH2 0x10 JUMPI PUSH1 0x0 DUP1 REVERT JUMPDEST POP PUSH1 0x4 CALLDATASIZE LT PUSH2 0xEA JUMPI PUSH1 0x0 CALLDATALOAD PUSH1 0xE0 SHR DUP1 PUSH4 0xBBE4FD50 GT PUSH2 0x8C JUMPI DUP1 PUSH4 0xE380AE96 GT PUSH2 0x66 JUMPI DUP1 PUSH4 0xE380AE96 EQ PUSH2 0x20F JUMPI DUP1 PUSH4 0xE79F0E96 EQ PUSH2 0x22B JUMPI DUP1 PUSH4 0xF2FDE38B EQ PUSH2 0x25B JUMPI DUP1 PUSH4 0xF35F0F74 EQ PUSH2 0x277 JUMPI PUSH2 0xEA JUMP JUMPDEST DUP1 PUSH4 0xBBE4FD50 EQ PUSH2 0x1B9 JUMPI DUP1 PUSH4 0xC76CB0F2 EQ PUSH2 0x1D7 JUMPI DUP1 PUSH4 0xDEE2BDD4 EQ PUSH2 0x1F3 JUMPI PUSH2 0xEA JUMP JUMPDEST DUP1 PUSH4 0x715018A6 GT PUSH2 0xC8 JUMPI DUP1 PUSH4 0x715018A6 EQ PUSH2 0x157 JUMPI DUP1 PUSH4 0x8DA5CB5B EQ PUSH2 0x161 JUMPI DUP1 PUSH4 0x9254D772 EQ PUSH2 0x17F JUMPI DUP1 PUSH4 0x9C365024 EQ PUSH2 0x19D JUMPI PUSH2 0xEA JUMP JUMPDEST DUP1 PUSH4 0x32672302 EQ PUSH2 0xEF JUMPI DUP1 PUSH4 0x4BBB4A27 EQ PUSH2 0x11F JUMPI DUP1 PUSH4 0x5A9452F7 EQ PUSH2 0x13B JUMPI JUMPDEST PUSH1 0x0 DUP1 REVERT JUMPDEST PUSH2 0x109 PUSH1 0x4 DUP1 CALLDATASIZE SUB DUP2 ADD SWAP1 PUSH2 0x104 SWAP2 SWAP1 PUSH2 0xE10 JUMP JUMPDEST PUSH2 0x2A7 JUMP JUMPDEST PUSH1 0x40 MLOAD PUSH2 0x116 SWAP2 SWAP1 PUSH2 0xE4C JUMP JUMPDEST PUSH1 0x40 MLOAD DUP1 SWAP2 SUB SWAP1 RETURN JUMPDEST PUSH2 0x139 PUSH1 0x4 DUP1 CALLDATASIZE SUB DUP2 ADD SWAP1 PUSH2 0x134 SWAP2 SWAP1 PUSH2 0xE10 JUMP JUMPDEST PUSH2 0x2D3 JUMP JUMPDEST STOP JUMPDEST PUSH2 0x155 PUSH1 0x4 DUP1 CALLDATASIZE SUB DUP2 ADD SWAP1 PUSH2 0x150 SWAP2 SWAP1 PUSH2 0xF03 JUMP JUMPDEST PUSH2 0x2F5 JUMP JUMPDEST STOP JUMPDEST PUSH2 0x15F PUSH2 0x3E2 JUMP JUMPDEST STOP JUMPDEST PUSH2 0x169 PUSH2 0x3F6 JUMP JUMPDEST PUSH1 0x40 MLOAD PUSH2 0x176 SWAP2 SWAP1 PUSH2 0xF52 JUMP JUMPDEST PUSH1 0x40 MLOAD DUP1 SWAP2 SUB SWAP1 RETURN JUMPDEST PUSH2 0x187 PUSH2 0x41F JUMP JUMPDEST PUSH1 0x40 MLOAD PUSH2 0x194 SWAP2 SWAP1 PUSH2 0xE4C JUMP JUMPDEST PUSH1 0x40 MLOAD DUP1 SWAP2 SUB SWAP1 RETURN JUMPDEST PUSH2 0x1B7 PUSH1 0x4 DUP1 CALLDATASIZE SUB DUP2 ADD SWAP1 PUSH2 0x1B2 SWAP2 SWAP1 PUSH2 0x10C6 JUMP JUMPDEST PUSH2 0x487 JUMP JUMPDEST STOP JUMPDEST PUSH2 0x1C1 PUSH2 0x5AE JUMP JUMPDEST PUSH1 0x40 MLOAD PUSH2 0x1CE SWAP2 SWAP1 PUSH2 0xE4C JUMP JUMPDEST PUSH1 0x40 MLOAD DUP1 SWAP2 SUB SWAP1 RETURN JUMPDEST PUSH2 0x1F1 PUSH1 0x4 DUP1 CALLDATASIZE SUB DUP2 ADD SWAP1 PUSH2 0x1EC SWAP2 SWAP1 PUSH2 0x10C6 JUMP JUMPDEST PUSH2 0x5CB JUMP JUMPDEST STOP JUMPDEST PUSH2 0x20D PUSH1 0x4 DUP1 CALLDATASIZE SUB DUP2 ADD SWAP1 PUSH2 0x208 SWAP2 SWAP1 PUSH2 0xF03 JUMP JUMPDEST PUSH2 0x709 JUMP JUMPDEST STOP JUMPDEST PUSH2 0x229 PUSH1 0x4 DUP1 CALLDATASIZE SUB DUP2 ADD SWAP1 PUSH2 0x224 SWAP2 SWAP1 PUSH2 0xE10 JUMP JUMPDEST PUSH2 0x7F6 JUMP JUMPDEST STOP JUMPDEST PUSH2 0x245 PUSH1 0x4 DUP1 CALLDATASIZE SUB DUP2 ADD SWAP1 PUSH2 0x240 SWAP2 SWAP1 PUSH2 0x1122 JUMP JUMPDEST PUSH2 0x800 JUMP JUMPDEST PUSH1 0x40 MLOAD PUSH2 0x252 SWAP2 SWAP1 PUSH2 0x115E JUMP JUMPDEST PUSH1 0x40 MLOAD DUP1 SWAP2 SUB SWAP1 RETURN JUMPDEST PUSH2 0x275 PUSH1 0x4 DUP1 CALLDATASIZE SUB DUP2 ADD SWAP1 PUSH2 0x270 SWAP2 SWAP1 PUSH2 0x1122 JUMP JUMPDEST PUSH2 0x85B JUMP JUMPDEST STOP JUMPDEST PUSH2 0x291 PUSH1 0x4 DUP1 CALLDATASIZE SUB DUP2 ADD SWAP1 PUSH2 0x28C SWAP2 SWAP1 PUSH2 0xF03 JUMP JUMPDEST PUSH2 0x8DE JUMP JUMPDEST PUSH1 0x40 MLOAD PUSH2 0x29E SWAP2 SWAP1 PUSH2 0x1194 JUMP JUMPDEST PUSH1 0x40 MLOAD DUP1 SWAP2 SUB SWAP1 RETURN JUMPDEST PUSH1 0x0 PUSH2 0x2B2 DUP3 PUSH2 0x94E JUMP JUMPDEST PUSH2 0x2C2 PUSH2 0x2BD PUSH2 0x41F JUMP JUMPDEST PUSH2 0x94E JUMP JUMPDEST PUSH2 0x2CC SWAP2 SWAP1 PUSH2 0x11DE JUMP JUMPDEST SWAP1 POP SWAP2 SWAP1 POP JUMP JUMPDEST PUSH2 0x2F2 PUSH3 0x15180 PUSH2 0x2E3 DUP4 PUSH2 0x94E JUMP JUMPDEST PUSH2 0x2ED SWAP2 SWAP1 PUSH2 0x1212 JUMP JUMPDEST PUSH2 0x7F6 JUMP JUMPDEST POP JUMP JUMPDEST PUSH2 0x2FD PUSH2 0x3F6 JUMP JUMPDEST PUSH20 0xFFFFFFFFFFFFFFFFFFFFFFFFFFFFFFFFFFFFFFFF AND CALLER PUSH20 0xFFFFFFFFFFFFFFFFFFFFFFFFFFFFFFFFFFFFFFFF AND EQ DUP1 PUSH2 0x33D JUMPI POP PUSH2 0x33C CALLER PUSH1 0x4 PUSH2 0x8DE JUMP JUMPDEST JUMPDEST PUSH2 0x37C JUMPI PUSH1 0x40 MLOAD PUSH32 0x8C379A000000000000000000000000000000000000000000000000000000000 DUP2 MSTORE PUSH1 0x4 ADD PUSH2 0x373 SWAP1 PUSH2 0x12B1 JUMP JUMPDEST PUSH1 0x40 MLOAD DUP1 SWAP2 SUB SWAP1 REVERT JUMPDEST DUP1 PUSH1 0x2 PUSH1 0x0 DUP5 PUSH20 0xFFFFFFFFFFFFFFFFFFFFFFFFFFFFFFFFFFFFFFFF AND PUSH20 0xFFFFFFFFFFFFFFFFFFFFFFFFFFFFFFFFFFFFFFFF AND DUP2 MSTORE PUSH1 0x20 ADD SWAP1 DUP2 MSTORE PUSH1 0x20 ADD PUSH1 0x0 KECCAK256 PUSH1 0x0 PUSH2 0x100 EXP DUP2 SLOAD DUP2 PUSH6 0xFFFFFFFFFFFF MUL NOT AND SWAP1 DUP4 PUSH6 0xFFFFFFFFFFFF AND MUL OR SWAP1 SSTORE POP POP POP JUMP JUMPDEST PUSH2 0x3EA PUSH2 0xADD JUMP JUMPDEST PUSH2 0x3F4 PUSH1 0x0 PUSH2 0xB5B JUMP JUMPDEST JUMP JUMPDEST PUSH1 0x0 DUP1 PUSH1 0x0 SWAP1 SLOAD SWAP1 PUSH2 0x100 EXP SWAP1 DIV PUSH20 0xFFFFFFFFFFFFFFFFFFFFFFFFFFFFFFFFFFFFFFFF AND SWAP1 POP SWAP1 JUMP JUMPDEST PUSH1 0x0 DUP1 PUSH1 0x0 DUP1 PUSH2 0x443 PUSH3 0x15180 PUSH2 0x434 PUSH2 0x5AE JUMP JUMPDEST PUSH2 0x43E SWAP2 SWAP1 PUSH2 0x1300 JUMP JUMPDEST PUSH2 0xC1F JUMP JUMPDEST DUP1 SWAP4 POP DUP2 SWAP5 POP DUP3 SWAP6 POP POP POP POP DUP1 PUSH1 0x64 DUP4 PUSH2 0x45D SWAP2 SWAP1 PUSH2 0x1212 JUMP JUMPDEST PUSH2 0x2710 DUP6 PUSH2 0x46B SWAP2 SWAP1 PUSH2 0x1212 JUMP JUMPDEST PUSH2 0x475 SWAP2 SWAP1 PUSH2 0x1331 JUMP JUMPDEST PUSH2 0x47F SWAP2 SWAP1 PUSH2 0x1331 JUMP JUMPDEST SWAP4 POP POP POP POP SWAP1 JUMP JUMPDEST PUSH2 0x48F PUSH2 0x3F6 JUMP JUMPDEST PUSH20 0xFFFFFFFFFFFFFFFFFFFFFFFFFFFFFFFFFFFFFFFF AND CALLER PUSH20 0xFFFFFFFFFFFFFFFFFFFFFFFFFFFFFFFFFFFFFFFF AND EQ DUP1 PUSH2 0x4CF JUMPI POP PUSH2 0x4CE CALLER PUSH1 0x4 PUSH2 0x8DE JUMP JUMPDEST JUMPDEST PUSH2 0x50E JUMPI PUSH1 0x40 MLOAD PUSH32 0x8C379A000000000000000000000000000000000000000000000000000000000 DUP2 MSTORE PUSH1 0x4 ADD PUSH2 0x505 SWAP1 PUSH2 0x12B1 JUMP JUMPDEST PUSH1 0x40 MLOAD DUP1 SWAP2 SUB SWAP1 REVERT JUMPDEST PUSH1 0x0 JUMPDEST DUP3 MLOAD DUP2 LT ISZERO PUSH2 0x5A9 JUMPI DUP2 PUSH1 0x2 PUSH1 0x0 DUP6 DUP5 DUP2 MLOAD DUP2 LT PUSH2 0x532 JUMPI PUSH2 0x531 PUSH2 0x1365 JUMP JUMPDEST JUMPDEST PUSH1 0x20 MUL PUSH1 0x20 ADD ADD MLOAD PUSH20 0xFFFFFFFFFFFFFFFFFFFFFFFFFFFFFFFFFFFFFFFF AND PUSH20 0xFFFFFFFFFFFFFFFFFFFFFFFFFFFFFFFFFFFFFFFF AND DUP2 MSTORE PUSH1 0x20 ADD SWAP1 DUP2 MSTORE PUSH1 0x20 ADD PUSH1 0x0 KECCAK256 PUSH1 0x0 PUSH2 0x100 EXP DUP2 SLOAD DUP2 PUSH6 0xFFFFFFFFFFFF MUL NOT AND SWAP1 DUP4 PUSH6 0xFFFFFFFFFFFF AND MUL OR SWAP1 SSTORE POP DUP1 DUP1 PUSH2 0x5A1 SWAP1 PUSH2 0x1394 JUMP JUMPDEST SWAP2 POP POP PUSH2 0x511 JUMP JUMPDEST POP POP POP JUMP JUMPDEST PUSH1 0x0 DUP1 PUSH1 0x1 SLOAD GT ISZERO PUSH2 0x5C4 JUMPI PUSH1 0x1 SLOAD SWAP1 POP PUSH2 0x5C8 JUMP JUMPDEST TIMESTAMP SWAP1 POP JUMPDEST SWAP1 JUMP JUMPDEST PUSH2 0x5D3 PUSH2 0x3F6 JUMP JUMPDEST PUSH20 0xFFFFFFFFFFFFFFFFFFFFFFFFFFFFFFFFFFFFFFFF AND CALLER PUSH20 0xFFFFFFFFFFFFFFFFFFFFFFFFFFFFFFFFFFFFFFFF AND EQ DUP1 PUSH2 0x613 JUMPI POP PUSH2 0x612 CALLER PUSH1 0x4 PUSH2 0x8DE JUMP JUMPDEST JUMPDEST PUSH2 0x652 JUMPI PUSH1 0x40 MLOAD PUSH32 0x8C379A000000000000000000000000000000000000000000000000000000000 DUP2 MSTORE PUSH1 0x4 ADD PUSH2 0x649 SWAP1 PUSH2 0x12B1 JUMP JUMPDEST PUSH1 0x40 MLOAD DUP1 SWAP2 SUB SWAP1 REVERT JUMPDEST PUSH1 0x0 JUMPDEST DUP3 MLOAD DUP2 LT ISZERO PUSH2 0x704 JUMPI DUP2 PUSH1 0x2 PUSH1 0x0 DUP6 DUP5 DUP2 MLOAD DUP2 LT PUSH2 0x676 JUMPI PUSH2 0x675 PUSH2 0x1365 JUMP JUMPDEST JUMPDEST PUSH1 0x20 MUL PUSH1 0x20 ADD ADD MLOAD PUSH20 0xFFFFFFFFFFFFFFFFFFFFFFFFFFFFFFFFFFFFFFFF AND PUSH20 0xFFFFFFFFFFFFFFFFFFFFFFFFFFFFFFFFFFFFFFFF AND DUP2 MSTORE PUSH1 0x20 ADD SWAP1 DUP2 MSTORE PUSH1 0x20 ADD PUSH1 0x0 KECCAK256 PUSH1 0x0 DUP3 DUP3 DUP3 SWAP1 SLOAD SWAP1 PUSH2 0x100 EXP SWAP1 DIV PUSH6 0xFFFFFFFFFFFF AND OR SWAP3 POP PUSH2 0x100 EXP DUP2 SLOAD DUP2 PUSH6 0xFFFFFFFFFFFF MUL NOT AND SWAP1 DUP4 PUSH6 0xFFFFFFFFFFFF AND MUL OR SWAP1 SSTORE POP DUP1 DUP1 PUSH2 0x6FC SWAP1 PUSH2 0x1394 JUMP JUMPDEST SWAP2 POP POP PUSH2 0x655 JUMP JUMPDEST POP POP POP JUMP JUMPDEST PUSH2 0x711 PUSH2 0x3F6 JUMP JUMPDEST PUSH20 0xFFFFFFFFFFFFFFFFFFFFFFFFFFFFFFFFFFFFFFFF AND CALLER PUSH20 0xFFFFFFFFFFFFFFFFFFFFFFFFFFFFFFFFFFFFFFFF AND EQ DUP1 PUSH2 0x751 JUMPI POP PUSH2 0x750 CALLER PUSH1 0x4 PUSH2 0x8DE JUMP JUMPDEST JUMPDEST PUSH2 0x790 JUMPI PUSH1 0x40 MLOAD PUSH32 0x8C379A000000000000000000000000000000000000000000000000000000000 DUP2 MSTORE PUSH1 0x4 ADD PUSH2 0x787 SWAP1 PUSH2 0x12B1 JUMP JUMPDEST PUSH1 0x40 MLOAD DUP1 SWAP2 SUB SWAP1 REVERT JUMPDEST DUP1 PUSH1 0x2 PUSH1 0x0 DUP5 PUSH20 0xFFFFFFFFFFFFFFFFFFFFFFFFFFFFFFFFFFFFFFFF AND PUSH20 0xFFFFFFFFFFFFFFFFFFFFFFFFFFFFFFFFFFFFFFFF AND DUP2 MSTORE PUSH1 0x20 ADD SWAP1 DUP2 MSTORE PUSH1 0x20 ADD PUSH1 0x0 KECCAK256 PUSH1 0x0 PUSH2 0x100 EXP DUP2 SLOAD DUP2 PUSH6 0xFFFFFFFFFFFF MUL NOT AND SWAP1 DUP4 PUSH6 0xFFFFFFFFFFFF AND MUL OR SWAP1 SSTORE POP POP POP JUMP JUMPDEST DUP1 PUSH1 0x1 DUP2 SWAP1 SSTORE POP POP JUMP JUMPDEST PUSH1 0x0 PUSH1 0x2 PUSH1 0x0 DUP4 PUSH20 0xFFFFFFFFFFFFFFFFFFFFFFFFFFFFFFFFFFFFFFFF AND PUSH20 0xFFFFFFFFFFFFFFFFFFFFFFFFFFFFFFFFFFFFFFFF AND DUP2 MSTORE PUSH1 0x20 ADD SWAP1 DUP2 MSTORE PUSH1 0x20 ADD PUSH1 0x0 KECCAK256 PUSH1 0x0 SWAP1 SLOAD SWAP1 PUSH2 0x100 EXP SWAP1 DIV PUSH6 0xFFFFFFFFFFFF AND SWAP1 POP SWAP2 SWAP1 POP JUMP JUMPDEST PUSH2 0x863 PUSH2 0xADD JUMP JUMPDEST PUSH1 0x0 PUSH20 0xFFFFFFFFFFFFFFFFFFFFFFFFFFFFFFFFFFFFFFFF AND DUP2 PUSH20 0xFFFFFFFFFFFFFFFFFFFFFFFFFFFFFFFFFFFFFFFF AND SUB PUSH2 0x8D2 JUMPI PUSH1 0x40 MLOAD PUSH32 0x8C379A000000000000000000000000000000000000000000000000000000000 DUP2 MSTORE PUSH1 0x4 ADD PUSH2 0x8C9 SWAP1 PUSH2 0x144E JUMP JUMPDEST PUSH1 0x40 MLOAD DUP1 SWAP2 SUB SWAP1 REVERT JUMPDEST PUSH2 0x8DB DUP2 PUSH2 0xB5B JUMP JUMPDEST POP JUMP JUMPDEST PUSH1 0x0 DUP2 PUSH6 0xFFFFFFFFFFFF AND DUP3 PUSH1 0x2 PUSH1 0x0 DUP7 PUSH20 0xFFFFFFFFFFFFFFFFFFFFFFFFFFFFFFFFFFFFFFFF AND PUSH20 0xFFFFFFFFFFFFFFFFFFFFFFFFFFFFFFFFFFFFFFFF AND DUP2 MSTORE PUSH1 0x20 ADD SWAP1 DUP2 MSTORE PUSH1 0x20 ADD PUSH1 0x0 KECCAK256 PUSH1 0x0 SWAP1 SLOAD SWAP1 PUSH2 0x100 EXP SWAP1 DIV PUSH6 0xFFFFFFFFFFFF AND AND PUSH6 0xFFFFFFFFFFFF AND EQ SWAP1 POP SWAP3 SWAP2 POP POP JUMP JUMPDEST PUSH1 0x0 PUSH4 0x12CC030 DUP3 LT ISZERO PUSH2 0x961 JUMPI PUSH1 0x0 DUP1 REVERT JUMPDEST PUSH1 0x0 PUSH1 0x64 DUP4 PUSH2 0x970 SWAP2 SWAP1 PUSH2 0x146E JUMP JUMPDEST SWAP1 POP PUSH1 0x0 PUSH1 0x64 DUP1 DUP6 PUSH2 0x982 SWAP2 SWAP1 PUSH2 0x1300 JUMP JUMPDEST PUSH2 0x98C SWAP2 SWAP1 PUSH2 0x146E JUMP JUMPDEST SWAP1 POP PUSH1 0x0 PUSH2 0x2710 DUP6 PUSH2 0x99E SWAP2 SWAP1 PUSH2 0x1300 JUMP JUMPDEST SWAP1 POP PUSH1 0x0 PUSH3 0x253D8C PUSH1 0x4 PUSH1 0x64 PUSH1 0xC PUSH1 0xE DUP8 PUSH2 0x9B9 SWAP2 SWAP1 PUSH2 0x14A9 JUMP JUMPDEST PUSH2 0x9C3 SWAP2 SWAP1 PUSH2 0x14EC JUMP JUMPDEST PUSH2 0x1324 DUP7 PUSH2 0x9D1 SWAP2 SWAP1 PUSH2 0x1556 JUMP JUMPDEST PUSH2 0x9DB SWAP2 SWAP1 PUSH2 0x1556 JUMP JUMPDEST PUSH2 0x9E5 SWAP2 SWAP1 PUSH2 0x14EC JUMP JUMPDEST PUSH1 0x3 PUSH2 0x9F1 SWAP2 SWAP1 PUSH2 0x159A JUMP JUMPDEST PUSH2 0x9FB SWAP2 SWAP1 PUSH2 0x14EC JUMP JUMPDEST PUSH1 0xC DUP1 PUSH1 0xC PUSH1 0xE DUP9 PUSH2 0xA0D SWAP2 SWAP1 PUSH2 0x14A9 JUMP JUMPDEST PUSH2 0xA17 SWAP2 SWAP1 PUSH2 0x14EC JUMP JUMPDEST PUSH2 0xA21 SWAP2 SWAP1 PUSH2 0x159A JUMP JUMPDEST PUSH1 0x2 DUP8 PUSH2 0xA2E SWAP2 SWAP1 PUSH2 0x14A9 JUMP JUMPDEST PUSH2 0xA38 SWAP2 SWAP1 PUSH2 0x14A9 JUMP JUMPDEST PUSH2 0x16F PUSH2 0xA45 SWAP2 SWAP1 PUSH2 0x159A JUMP JUMPDEST PUSH2 0xA4F SWAP2 SWAP1 PUSH2 0x14EC JUMP JUMPDEST PUSH1 0x4 PUSH1 0xC PUSH1 0xE DUP9 PUSH2 0xA60 SWAP2 SWAP1 PUSH2 0x14A9 JUMP JUMPDEST PUSH2 0xA6A SWAP2 SWAP1 PUSH2 0x14EC JUMP JUMPDEST PUSH2 0x12C0 DUP8 PUSH2 0xA78 SWAP2 SWAP1 PUSH2 0x1556 JUMP JUMPDEST PUSH2 0xA82 SWAP2 SWAP1 PUSH2 0x1556 JUMP JUMPDEST PUSH2 0x5B5 PUSH2 0xA8F SWAP2 SWAP1 PUSH2 0x159A JUMP JUMPDEST PUSH2 0xA99 SWAP2 SWAP1 PUSH2 0x14EC JUMP JUMPDEST PUSH2 0x7D4B DUP9 PUSH2 0xAA7 SWAP2 SWAP1 PUSH2 0x14A9 JUMP JUMPDEST PUSH2 0xAB1 SWAP2 SWAP1 PUSH2 0x1556 JUMP JUMPDEST PUSH2 0xABB SWAP2 SWAP1 PUSH2 0x1556 JUMP JUMPDEST PUSH2 0xAC5 SWAP2 SWAP1 PUSH2 0x14A9 JUMP JUMPDEST PUSH2 0xACF SWAP2 SWAP1 PUSH2 0x14A9 JUMP JUMPDEST SWAP1 POP DUP1 SWAP5 POP POP POP POP POP SWAP2 SWAP1 POP JUMP JUMPDEST PUSH2 0xAE5 PUSH2 0xDBE JUMP JUMPDEST PUSH20 0xFFFFFFFFFFFFFFFFFFFFFFFFFFFFFFFFFFFFFFFF AND PUSH2 0xB03 PUSH2 0x3F6 JUMP JUMPDEST PUSH20 0xFFFFFFFFFFFFFFFFFFFFFFFFFFFFFFFFFFFFFFFF AND EQ PUSH2 0xB59 JUMPI PUSH1 0x40 MLOAD PUSH32 0x8C379A000000000000000000000000000000000000000000000000000000000 DUP2 MSTORE PUSH1 0x4 ADD PUSH2 0xB50 SWAP1 PUSH2 0x165E JUMP JUMPDEST PUSH1 0x40 MLOAD DUP1 SWAP2 SUB SWAP1 REVERT JUMPDEST JUMP JUMPDEST PUSH1 0x0 DUP1 PUSH1 0x0 SWAP1 SLOAD SWAP1 PUSH2 0x100 EXP SWAP1 DIV PUSH20 0xFFFFFFFFFFFFFFFFFFFFFFFFFFFFFFFFFFFFFFFF AND SWAP1 POP DUP2 PUSH1 0x0 DUP1 PUSH2 0x100 EXP DUP2 SLOAD DUP2 PUSH20 0xFFFFFFFFFFFFFFFFFFFFFFFFFFFFFFFFFFFFFFFF MUL NOT AND SWAP1 DUP4 PUSH20 0xFFFFFFFFFFFFFFFFFFFFFFFFFFFFFFFFFFFFFFFF AND MUL OR SWAP1 SSTORE POP DUP2 PUSH20 0xFFFFFFFFFFFFFFFFFFFFFFFFFFFFFFFFFFFFFFFF AND DUP2 PUSH20 0xFFFFFFFFFFFFFFFFFFFFFFFFFFFFFFFFFFFFFFFF AND PUSH32 0x8BE0079C531659141344CD1FD0A4F28419497F9722A3DAAFE3B4186F6B6457E0 PUSH1 0x40 MLOAD PUSH1 0x40 MLOAD DUP1 SWAP2 SUB SWAP1 LOG3 POP POP JUMP JUMPDEST PUSH1 0x0 DUP1 PUSH1 0x0 DUP1 DUP5 SWAP1 POP PUSH1 0x0 PUSH3 0x253D8C PUSH3 0x10BD9 DUP4 PUSH2 0xC3D SWAP2 SWAP1 PUSH2 0x1556 JUMP JUMPDEST PUSH2 0xC47 SWAP2 SWAP1 PUSH2 0x1556 JUMP JUMPDEST SWAP1 POP PUSH1 0x0 PUSH3 0x23AB1 DUP3 PUSH1 0x4 PUSH2 0xC5C SWAP2 SWAP1 PUSH2 0x159A JUMP JUMPDEST PUSH2 0xC66 SWAP2 SWAP1 PUSH2 0x14EC JUMP JUMPDEST SWAP1 POP PUSH1 0x4 PUSH1 0x3 DUP3 PUSH3 0x23AB1 PUSH2 0xC7B SWAP2 SWAP1 PUSH2 0x159A JUMP JUMPDEST PUSH2 0xC85 SWAP2 SWAP1 PUSH2 0x1556 JUMP JUMPDEST PUSH2 0xC8F SWAP2 SWAP1 PUSH2 0x14EC JUMP JUMPDEST DUP3 PUSH2 0xC9A SWAP2 SWAP1 PUSH2 0x14A9 JUMP JUMPDEST SWAP2 POP PUSH1 0x0 PUSH3 0x164B09 PUSH1 0x1 DUP5 PUSH2 0xCAF SWAP2 SWAP1 PUSH2 0x1556 JUMP JUMPDEST PUSH2 0xFA0 PUSH2 0xCBC SWAP2 SWAP1 PUSH2 0x159A JUMP JUMPDEST PUSH2 0xCC6 SWAP2 SWAP1 PUSH2 0x14EC JUMP JUMPDEST SWAP1 POP PUSH1 0x1F PUSH1 0x4 DUP3 PUSH2 0x5B5 PUSH2 0xCDA SWAP2 SWAP1 PUSH2 0x159A JUMP JUMPDEST PUSH2 0xCE4 SWAP2 SWAP1 PUSH2 0x14EC JUMP JUMPDEST DUP5 PUSH2 0xCEF SWAP2 SWAP1 PUSH2 0x14A9 JUMP JUMPDEST PUSH2 0xCF9 SWAP2 SWAP1 PUSH2 0x1556 JUMP JUMPDEST SWAP3 POP PUSH1 0x0 PUSH2 0x98F DUP5 PUSH1 0x50 PUSH2 0xD0D SWAP2 SWAP1 PUSH2 0x159A JUMP JUMPDEST PUSH2 0xD17 SWAP2 SWAP1 PUSH2 0x14EC JUMP JUMPDEST SWAP1 POP PUSH1 0x0 PUSH1 0x50 DUP3 PUSH2 0x98F PUSH2 0xD2B SWAP2 SWAP1 PUSH2 0x159A JUMP JUMPDEST PUSH2 0xD35 SWAP2 SWAP1 PUSH2 0x14EC JUMP JUMPDEST DUP6 PUSH2 0xD40 SWAP2 SWAP1 PUSH2 0x14A9 JUMP JUMPDEST SWAP1 POP PUSH1 0xB DUP3 PUSH2 0xD4F SWAP2 SWAP1 PUSH2 0x14EC JUMP JUMPDEST SWAP5 POP DUP5 PUSH1 0xC PUSH2 0xD5E SWAP2 SWAP1 PUSH2 0x159A JUMP JUMPDEST PUSH1 0x2 DUP4 PUSH2 0xD6B SWAP2 SWAP1 PUSH2 0x1556 JUMP JUMPDEST PUSH2 0xD75 SWAP2 SWAP1 PUSH2 0x14A9 JUMP JUMPDEST SWAP2 POP DUP5 DUP4 PUSH1 0x31 DUP7 PUSH2 0xD86 SWAP2 SWAP1 PUSH2 0x14A9 JUMP JUMPDEST PUSH1 0x64 PUSH2 0xD92 SWAP2 SWAP1 PUSH2 0x159A JUMP JUMPDEST PUSH2 0xD9C SWAP2 SWAP1 PUSH2 0x1556 JUMP JUMPDEST PUSH2 0xDA6 SWAP2 SWAP1 PUSH2 0x1556 JUMP JUMPDEST SWAP3 POP DUP3 SWAP9 POP DUP2 SWAP8 POP DUP1 SWAP7 POP POP POP POP POP POP POP SWAP2 SWAP4 SWAP1 SWAP3 POP JUMP JUMPDEST PUSH1 0x0 CALLER SWAP1 POP SWAP1 JUMP JUMPDEST PUSH1 0x0 PUSH1 0x40 MLOAD SWAP1 POP SWAP1 JUMP JUMPDEST PUSH1 0x0 DUP1 REVERT JUMPDEST PUSH1 0x0 DUP1 REVERT JUMPDEST PUSH1 0x0 DUP2 SWAP1 POP SWAP2 SWAP1 POP JUMP JUMPDEST PUSH2 0xDED DUP2 PUSH2 0xDDA JUMP JUMPDEST DUP2 EQ PUSH2 0xDF8 JUMPI PUSH1 0x0 DUP1 REVERT JUMPDEST POP JUMP JUMPDEST PUSH1 0x0 DUP2 CALLDATALOAD SWAP1 POP PUSH2 0xE0A DUP2 PUSH2 0xDE4 JUMP JUMPDEST SWAP3 SWAP2 POP POP JUMP JUMPDEST PUSH1 0x0 PUSH1 0x20 DUP3 DUP5 SUB SLT ISZERO PUSH2 0xE26 JUMPI PUSH2 0xE25 PUSH2 0xDD0 JUMP JUMPDEST JUMPDEST PUSH1 0x0 PUSH2 0xE34 DUP5 DUP3 DUP6 ADD PUSH2 0xDFB JUMP JUMPDEST SWAP2 POP POP SWAP3 SWAP2 POP POP JUMP JUMPDEST PUSH2 0xE46 DUP2 PUSH2 0xDDA JUMP JUMPDEST DUP3 MSTORE POP POP JUMP JUMPDEST PUSH1 0x0 PUSH1 0x20 DUP3 ADD SWAP1 POP PUSH2 0xE61 PUSH1 0x0 DUP4 ADD DUP5 PUSH2 0xE3D JUMP JUMPDEST SWAP3 SWAP2 POP POP JUMP JUMPDEST PUSH1 0x0 PUSH20 0xFFFFFFFFFFFFFFFFFFFFFFFFFFFFFFFFFFFFFFFF DUP3 AND SWAP1 POP SWAP2 SWAP1 POP JUMP JUMPDEST PUSH1 0x0 PUSH2 0xE92 DUP3 PUSH2 0xE67 JUMP JUMPDEST SWAP1 POP SWAP2 SWAP1 POP JUMP JUMPDEST PUSH2 0xEA2 DUP2 PUSH2 0xE87 JUMP JUMPDEST DUP2 EQ PUSH2 0xEAD JUMPI PUSH1 0x0 DUP1 REVERT JUMPDEST POP JUMP JUMPDEST PUSH1 0x0 DUP2 CALLDATALOAD SWAP1 POP PUSH2 0xEBF DUP2 PUSH2 0xE99 JUMP JUMPDEST SWAP3 SWAP2 POP POP JUMP JUMPDEST PUSH1 0x0 PUSH6 0xFFFFFFFFFFFF DUP3 AND SWAP1 POP SWAP2 SWAP1 POP JUMP JUMPDEST PUSH2 0xEE0 DUP2 PUSH2 0xEC5 JUMP JUMPDEST DUP2 EQ PUSH2 0xEEB JUMPI PUSH1 0x0 DUP1 REVERT JUMPDEST POP JUMP JUMPDEST PUSH1 0x0 DUP2 CALLDATALOAD SWAP1 POP PUSH2 0xEFD DUP2 PUSH2 0xED7 JUMP JUMPDEST SWAP3 SWAP2 POP POP JUMP JUMPDEST PUSH1 0x0 DUP1 PUSH1 0x40 DUP4 DUP6 SUB SLT ISZERO PUSH2 0xF1A JUMPI PUSH2 0xF19 PUSH2 0xDD0 JUMP JUMPDEST JUMPDEST PUSH1 0x0 PUSH2 0xF28 DUP6 DUP3 DUP7 ADD PUSH2 0xEB0 JUMP JUMPDEST SWAP3 POP POP PUSH1 0x20 PUSH2 0xF39 DUP6 DUP3 DUP7 ADD PUSH2 0xEEE JUMP JUMPDEST SWAP2 POP POP SWAP3 POP SWAP3 SWAP1 POP JUMP JUMPDEST PUSH2 0xF4C DUP2 PUSH2 0xE87 JUMP JUMPDEST DUP3 MSTORE POP POP JUMP JUMPDEST PUSH1 0x0 PUSH1 0x20 DUP3 ADD SWAP1 POP PUSH2 0xF67 PUSH1 0x0 DUP4 ADD DUP5 PUSH2 0xF43 JUMP JUMPDEST SWAP3 SWAP2 POP POP JUMP JUMPDEST PUSH1 0x0 DUP1 REVERT JUMPDEST PUSH1 0x0 PUSH1 0x1F NOT PUSH1 0x1F DUP4 ADD AND SWAP1 POP SWAP2 SWAP1 POP JUMP JUMPDEST PUSH32 0x4E487B7100000000000000000000000000000000000000000000000000000000 PUSH1 0x0 MSTORE PUSH1 0x41 PUSH1 0x4 MSTORE PUSH1 0x24 PUSH1 0x0 REVERT JUMPDEST PUSH2 0xFBB DUP3 PUSH2 0xF72 JUMP JUMPDEST DUP2 ADD DUP2 DUP2 LT PUSH8 0xFFFFFFFFFFFFFFFF DUP3 GT OR ISZERO PUSH2 0xFDA JUMPI PUSH2 0xFD9 PUSH2 0xF83 JUMP JUMPDEST JUMPDEST DUP1 PUSH1 0x40 MSTORE POP POP POP JUMP JUMPDEST PUSH1 0x0 PUSH2 0xFED PUSH2 0xDC6 JUMP JUMPDEST SWAP1 POP PUSH2 0xFF9 DUP3 DUP3 PUSH2 0xFB2 JUMP JUMPDEST SWAP2 SWAP1 POP JUMP JUMPDEST PUSH1 0x0 PUSH8 0xFFFFFFFFFFFFFFFF DUP3 GT ISZERO PUSH2 0x1019 JUMPI PUSH2 0x1018 PUSH2 0xF83 JUMP JUMPDEST JUMPDEST PUSH1 0x20 DUP3 MUL SWAP1 POP PUSH1 0x20 DUP2 ADD SWAP1 POP SWAP2 SWAP1 POP JUMP JUMPDEST PUSH1 0x0 DUP1 REVERT JUMPDEST PUSH1 0x0 PUSH2 0x1042 PUSH2 0x103D DUP5 PUSH2 0xFFE JUMP JUMPDEST PUSH2 0xFE3 JUMP JUMPDEST SWAP1 POP DUP1 DUP4 DUP3 MSTORE PUSH1 0x20 DUP3 ADD SWAP1 POP PUSH1 0x20 DUP5 MUL DUP4 ADD DUP6 DUP2 GT ISZERO PUSH2 0x1065 JUMPI PUSH2 0x1064 PUSH2 0x102A JUMP JUMPDEST JUMPDEST DUP4 JUMPDEST DUP2 DUP2 LT ISZERO PUSH2 0x108E JUMPI DUP1 PUSH2 0x107A DUP9 DUP3 PUSH2 0xEB0 JUMP JUMPDEST DUP5 MSTORE PUSH1 0x20 DUP5 ADD SWAP4 POP POP PUSH1 0x20 DUP2 ADD SWAP1 POP PUSH2 0x1067 JUMP JUMPDEST POP POP POP SWAP4 SWAP3 POP POP POP JUMP JUMPDEST PUSH1 0x0 DUP3 PUSH1 0x1F DUP4 ADD SLT PUSH2 0x10AD JUMPI PUSH2 0x10AC PUSH2 0xF6D JUMP JUMPDEST JUMPDEST DUP2 CALLDATALOAD PUSH2 0x10BD DUP5 DUP3 PUSH1 0x20 DUP7 ADD PUSH2 0x102F JUMP JUMPDEST SWAP2 POP POP SWAP3 SWAP2 POP POP JUMP JUMPDEST PUSH1 0x0 DUP1 PUSH1 0x40 DUP4 DUP6 SUB SLT ISZERO PUSH2 0x10DD JUMPI PUSH2 0x10DC PUSH2 0xDD0 JUMP JUMPDEST JUMPDEST PUSH1 0x0 DUP4 ADD CALLDATALOAD PUSH8 0xFFFFFFFFFFFFFFFF DUP2 GT ISZERO PUSH2 0x10FB JUMPI PUSH2 0x10FA PUSH2 0xDD5 JUMP JUMPDEST JUMPDEST PUSH2 0x1107 DUP6 DUP3 DUP7 ADD PUSH2 0x1098 JUMP JUMPDEST SWAP3 POP POP PUSH1 0x20 PUSH2 0x1118 DUP6 DUP3 DUP7 ADD PUSH2 0xEEE JUMP JUMPDEST SWAP2 POP POP SWAP3 POP SWAP3 SWAP1 POP JUMP JUMPDEST PUSH1 0x0 PUSH1 0x20 DUP3 DUP5 SUB SLT ISZERO PUSH2 0x1138 JUMPI PUSH2 0x1137 PUSH2 0xDD0 JUMP JUMPDEST JUMPDEST PUSH1 0x0 PUSH2 0x1146 DUP5 DUP3 DUP6 ADD PUSH2 0xEB0 JUMP JUMPDEST SWAP2 POP POP SWAP3 SWAP2 POP POP JUMP JUMPDEST PUSH2 0x1158 DUP2 PUSH2 0xEC5 JUMP JUMPDEST DUP3 MSTORE POP POP JUMP JUMPDEST PUSH1 0x0 PUSH1 0x20 DUP3 ADD SWAP1 POP PUSH2 0x1173 PUSH1 0x0 DUP4 ADD DUP5 PUSH2 0x114F JUMP JUMPDEST SWAP3 SWAP2 POP POP JUMP JUMPDEST PUSH1 0x0 DUP2 ISZERO ISZERO SWAP1 POP SWAP2 SWAP1 POP JUMP JUMPDEST PUSH2 0x118E DUP2 PUSH2 0x1179 JUMP JUMPDEST DUP3 MSTORE POP POP JUMP JUMPDEST PUSH1 0x0 PUSH1 0x20 DUP3 ADD SWAP1 POP PUSH2 0x11A9 PUSH1 0x0 DUP4 ADD DUP5 PUSH2 0x1185 JUMP JUMPDEST SWAP3 SWAP2 POP POP JUMP JUMPDEST PUSH32 0x4E487B7100000000000000000000000000000000000000000000000000000000 PUSH1 0x0 MSTORE PUSH1 0x11 PUSH1 0x4 MSTORE PUSH1 0x24 PUSH1 0x0 REVERT JUMPDEST PUSH1 0x0 PUSH2 0x11E9 DUP3 PUSH2 0xDDA JUMP JUMPDEST SWAP2 POP PUSH2 0x11F4 DUP4 PUSH2 0xDDA JUMP JUMPDEST SWAP3 POP DUP3 DUP3 SUB SWAP1 POP DUP2 DUP2 GT ISZERO PUSH2 0x120C JUMPI PUSH2 0x120B PUSH2 0x11AF JUMP JUMPDEST JUMPDEST SWAP3 SWAP2 POP POP JUMP JUMPDEST PUSH1 0x0 PUSH2 0x121D DUP3 PUSH2 0xDDA JUMP JUMPDEST SWAP2 POP PUSH2 0x1228 DUP4 PUSH2 0xDDA JUMP JUMPDEST SWAP3 POP DUP3 DUP3 MUL PUSH2 0x1236 DUP2 PUSH2 0xDDA JUMP JUMPDEST SWAP2 POP DUP3 DUP3 DIV DUP5 EQ DUP4 ISZERO OR PUSH2 0x124D JUMPI PUSH2 0x124C PUSH2 0x11AF JUMP JUMPDEST JUMPDEST POP SWAP3 SWAP2 POP POP JUMP JUMPDEST PUSH1 0x0 DUP3 DUP3 MSTORE PUSH1 0x20 DUP3 ADD SWAP1 POP SWAP3 SWAP2 POP POP JUMP JUMPDEST PUSH32 0x557365722069736E27742061206C6973742061646D696E6973747261746F722E PUSH1 0x0 DUP3 ADD MSTORE POP JUMP JUMPDEST PUSH1 0x0 PUSH2 0x129B PUSH1 0x20 DUP4 PUSH2 0x1254 JUMP JUMPDEST SWAP2 POP PUSH2 0x12A6 DUP3 PUSH2 0x1265 JUMP JUMPDEST PUSH1 0x20 DUP3 ADD SWAP1 POP SWAP2 SWAP1 POP JUMP JUMPDEST PUSH1 0x0 PUSH1 0x20 DUP3 ADD SWAP1 POP DUP2 DUP2 SUB PUSH1 0x0 DUP4 ADD MSTORE PUSH2 0x12CA DUP2 PUSH2 0x128E JUMP JUMPDEST SWAP1 POP SWAP2 SWAP1 POP JUMP JUMPDEST PUSH32 0x4E487B7100000000000000000000000000000000000000000000000000000000 PUSH1 0x0 MSTORE PUSH1 0x12 PUSH1 0x4 MSTORE PUSH1 0x24 PUSH1 0x0 REVERT JUMPDEST PUSH1 0x0 PUSH2 0x130B DUP3 PUSH2 0xDDA JUMP JUMPDEST SWAP2 POP PUSH2 0x1316 DUP4 PUSH2 0xDDA JUMP JUMPDEST SWAP3 POP DUP3 PUSH2 0x1326 JUMPI PUSH2 0x1325 PUSH2 0x12D1 JUMP JUMPDEST JUMPDEST DUP3 DUP3 DIV SWAP1 POP SWAP3 SWAP2 POP POP JUMP JUMPDEST PUSH1 0x0 PUSH2 0x133C DUP3 PUSH2 0xDDA JUMP JUMPDEST SWAP2 POP PUSH2 0x1347 DUP4 PUSH2 0xDDA JUMP JUMPDEST SWAP3 POP DUP3 DUP3 ADD SWAP1 POP DUP1 DUP3 GT ISZERO PUSH2 0x135F JUMPI PUSH2 0x135E PUSH2 0x11AF JUMP JUMPDEST JUMPDEST SWAP3 SWAP2 POP POP JUMP JUMPDEST PUSH32 0x4E487B7100000000000000000000000000000000000000000000000000000000 PUSH1 0x0 MSTORE PUSH1 0x32 PUSH1 0x4 MSTORE PUSH1 0x24 PUSH1 0x0 REVERT JUMPDEST PUSH1 0x0 PUSH2 0x139F DUP3 PUSH2 0xDDA JUMP JUMPDEST SWAP2 POP PUSH32 0xFFFFFFFFFFFFFFFFFFFFFFFFFFFFFFFFFFFFFFFFFFFFFFFFFFFFFFFFFFFFFFFF DUP3 SUB PUSH2 0x13D1 JUMPI PUSH2 0x13D0 PUSH2 0x11AF JUMP JUMPDEST JUMPDEST PUSH1 0x1 DUP3 ADD SWAP1 POP SWAP2 SWAP1 POP JUMP JUMPDEST PUSH32 0x4F776E61626C653A206E6577206F776E657220697320746865207A65726F2061 PUSH1 0x0 DUP3 ADD MSTORE PUSH32 0x6464726573730000000000000000000000000000000000000000000000000000 PUSH1 0x20 DUP3 ADD MSTORE POP JUMP JUMPDEST PUSH1 0x0 PUSH2 0x1438 PUSH1 0x26 DUP4 PUSH2 0x1254 JUMP JUMPDEST SWAP2 POP PUSH2 0x1443 DUP3 PUSH2 0x13DC JUMP JUMPDEST PUSH1 0x40 DUP3 ADD SWAP1 POP SWAP2 SWAP1 POP JUMP JUMPDEST PUSH1 0x0 PUSH1 0x20 DUP3 ADD SWAP1 POP DUP2 DUP2 SUB PUSH1 0x0 DUP4 ADD MSTORE PUSH2 0x1467 DUP2 PUSH2 0x142B JUMP JUMPDEST SWAP1 POP SWAP2 SWAP1 POP JUMP JUMPDEST PUSH1 0x0 PUSH2 0x1479 DUP3 PUSH2 0xDDA JUMP JUMPDEST SWAP2 POP PUSH2 0x1484 DUP4 PUSH2 0xDDA JUMP JUMPDEST SWAP3 POP DUP3 PUSH2 0x1494 JUMPI PUSH2 0x1493 PUSH2 0x12D1 JUMP JUMPDEST JUMPDEST DUP3 DUP3 MOD SWAP1 POP SWAP3 SWAP2 POP POP JUMP JUMPDEST PUSH1 0x0 DUP2 SWAP1 POP SWAP2 SWAP1 POP JUMP JUMPDEST PUSH1 0x0 PUSH2 0x14B4 DUP3 PUSH2 0x149F JUMP JUMPDEST SWAP2 POP PUSH2 0x14BF DUP4 PUSH2 0x149F JUMP JUMPDEST SWAP3 POP DUP3 DUP3 SUB SWAP1 POP DUP2 DUP2 SLT PUSH1 0x0 DUP5 SLT AND DUP3 DUP3 SGT PUSH1 0x0 DUP6 SLT ISZERO AND OR ISZERO PUSH2 0x14E6 JUMPI PUSH2 0x14E5 PUSH2 0x11AF JUMP JUMPDEST JUMPDEST SWAP3 SWAP2 POP POP JUMP JUMPDEST PUSH1 0x0 PUSH2 0x14F7 DUP3 PUSH2 0x149F JUMP JUMPDEST SWAP2 POP PUSH2 0x1502 DUP4 PUSH2 0x149F JUMP JUMPDEST SWAP3 POP DUP3 PUSH2 0x1512 JUMPI PUSH2 0x1511 PUSH2 0x12D1 JUMP JUMPDEST JUMPDEST PUSH1 0x1 PUSH1 0x0 SUB DUP4 EQ PUSH32 0x8000000000000000000000000000000000000000000000000000000000000000 DUP4 EQ AND ISZERO PUSH2 0x154B JUMPI PUSH2 0x154A PUSH2 0x11AF JUMP JUMPDEST JUMPDEST DUP3 DUP3 SDIV SWAP1 POP SWAP3 SWAP2 POP POP JUMP JUMPDEST PUSH1 0x0 PUSH2 0x1561 DUP3 PUSH2 0x149F JUMP JUMPDEST SWAP2 POP PUSH2 0x156C DUP4 PUSH2 0x149F JUMP JUMPDEST SWAP3 POP DUP3 DUP3 ADD SWAP1 POP DUP3 DUP2 SLT ISZERO PUSH1 0x0 DUP4 SLT AND DUP4 DUP3 SLT PUSH1 0x0 DUP5 SLT ISZERO AND OR ISZERO PUSH2 0x1594 JUMPI PUSH2 0x1593 PUSH2 0x11AF JUMP JUMPDEST JUMPDEST SWAP3 SWAP2 POP POP JUMP JUMPDEST PUSH1 0x0 PUSH2 0x15A5 DUP3 PUSH2 0x149F JUMP JUMPDEST SWAP2 POP PUSH2 0x15B0 DUP4 PUSH2 0x149F JUMP JUMPDEST SWAP3 POP DUP3 DUP3 MUL PUSH2 0x15BE DUP2 PUSH2 0x149F JUMP JUMPDEST SWAP2 POP PUSH32 0x8000000000000000000000000000000000000000000000000000000000000000 DUP5 EQ PUSH1 0x0 DUP5 SLT AND ISZERO PUSH2 0x15F6 JUMPI PUSH2 0x15F5 PUSH2 0x11AF JUMP JUMPDEST JUMPDEST DUP3 DUP3 SDIV DUP5 EQ DUP4 ISZERO OR PUSH2 0x160B JUMPI PUSH2 0x160A PUSH2 0x11AF JUMP JUMPDEST JUMPDEST POP SWAP3 SWAP2 POP POP JUMP JUMPDEST PUSH32 0x4F776E61626C653A2063616C6C6572206973206E6F7420746865206F776E6572 PUSH1 0x0 DUP3 ADD MSTORE POP JUMP JUMPDEST PUSH1 0x0 PUSH2 0x1648 PUSH1 0x20 DUP4 PUSH2 0x1254 JUMP JUMPDEST SWAP2 POP PUSH2 0x1653 DUP3 PUSH2 0x1612 JUMP JUMPDEST PUSH1 0x20 DUP3 ADD SWAP1 POP SWAP2 SWAP1 POP JUMP JUMPDEST PUSH1 0x0 PUSH1 0x20 DUP3 ADD SWAP1 POP DUP2 DUP2 SUB PUSH1 0x0 DUP4 ADD MSTORE PUSH2 0x1677 DUP2 PUSH2 0x163B JUMP JUMPDEST SWAP1 POP SWAP2 SWAP1 POP JUMP INVALID LOG2 PUSH5 0x6970667358 0x22 SLT KECCAK256 0xB8 0xAE 0xD5 EXP 0xDB SWAP3 ADD CODECOPY KECCAK256 BASEFEE 0x5D DELEGATECALL JUMP PUSH11 0x171282335827C07260C467 PUSH32 0xDC861694D3BA64736F6C63430008120033000000000000000000000000000000 "
				},
				"gasEstimates": {
					"creation": {
						"codeDepositCost": "1162400",
						"executionCost": "infinite",
						"totalCost": "infinite"
					},
					"external": {
						"getCurrentDate()": "infinite",
						"getDaysFromNow(uint256)": "infinite",
						"getNow()": "4597",
						"getRights(address)": "2927",
						"hasRights(address,uint48)": "3174",
						"owner()": "2567",
						"renounceOwnership()": "30421",
						"setCurrentDate(uint256)": "infinite",
						"setMemberRights(address,uint48)": "29582",
						"setMembersRights(address[],uint48)": "infinite",
						"setNow(uint256)": "22542",
						"transferOwnership(address)": "30810",
						"updateMemberRights(address,uint48)": "29583",
						"updateMembersRights(address[],uint48)": "infinite"
					}
				},
				"methodIdentifiers": {
					"getCurrentDate()": "9254d772",
					"getDaysFromNow(uint256)": "32672302",
					"getNow()": "bbe4fd50",
					"getRights(address)": "e79f0e96",
					"hasRights(address,uint48)": "f35f0f74",
					"owner()": "8da5cb5b",
					"renounceOwnership()": "715018a6",
					"setCurrentDate(uint256)": "4bbb4a27",
					"setMemberRights(address,uint48)": "dee2bdd4",
					"setMembersRights(address[],uint48)": "9c365024",
					"setNow(uint256)": "e380ae96",
					"transferOwnership(address)": "f2fde38b",
					"updateMemberRights(address,uint48)": "5a9452f7",
					"updateMembersRights(address[],uint48)": "c76cb0f2"
				}
			},
			"storageLayout": {
				"storage": [
					{
						"astId": 7,
						"contract": "contracts/EnvironmentConfig.sol:EnvironmentConfig",
						"label": "_owner",
						"offset": 0,
						"slot": "0",
						"type": "t_address"
					},
					{
						"astId": 148,
						"contract": "contracts/EnvironmentConfig.sol:EnvironmentConfig",
						"label": "_timestamp",
						"offset": 0,
						"slot": "1",
						"type": "t_uint256"
					},
					{
						"astId": 638,
						"contract": "contracts/EnvironmentConfig.sol:EnvironmentConfig",
						"label": "_members",
						"offset": 0,
						"slot": "2",
						"type": "t_mapping(t_address,t_uint48)"
					}
				],
				"types": {
					"t_address": {
						"encoding": "inplace",
						"label": "address",
						"numberOfBytes": "20"
					},
					"t_mapping(t_address,t_uint48)": {
						"encoding": "mapping",
						"key": "t_address",
						"label": "mapping(address => uint48)",
						"numberOfBytes": "32",
						"value": "t_uint48"
					},
					"t_uint256": {
						"encoding": "inplace",
						"label": "uint256",
						"numberOfBytes": "32"
					},
					"t_uint48": {
						"encoding": "inplace",
						"label": "uint48",
						"numberOfBytes": "6"
					}
				}
			},
			"userdoc": {
				"kind": "user",
				"methods": {},
				"version": 1
			}
		}
	}
}