{
	"data": {
		"bytecode": {
			"linkReferences": {},
			"object": "608060405234801561001057600080fd5b506108b0806100206000396000f3fe608060405234801561001057600080fd5b50600436106100575760003560e01c8063326723021461005c5780634bbb4a271461008c5780639254d772146100a8578063bbe4fd50146100c6578063e380ae96146100e4575b600080fd5b61007660048036038101906100719190610546565b610100565b6040516100839190610582565b60405180910390f35b6100a660048036038101906100a19190610546565b61012c565b005b6100b061014e565b6040516100bd9190610582565b60405180910390f35b6100ce6101b6565b6040516100db9190610582565b60405180910390f35b6100fe60048036038101906100f99190610546565b6101d3565b005b600061010b826101dd565b61011b61011661014e565b6101dd565b61012591906105cc565b9050919050565b61014b6201518061013c836101dd565b6101469190610600565b6101d3565b50565b600080600080610172620151806101636101b6565b61016d9190610671565b61036c565b8093508194508295505050508060648361018c9190610600565b6127108561019a9190610600565b6101a491906106a2565b6101ae91906106a2565b935050505090565b60008060005411156101cc5760005490506101d0565b4290505b90565b8060008190555050565b600063012cc0308210156101f057600080fd5b60006064836101ff91906106d6565b90506000606480856102119190610671565b61021b91906106d6565b905060006127108561022d9190610671565b9050600062253d8c60046064600c600e876102489190610711565b6102529190610754565b6113248661026091906107be565b61026a91906107be565b6102749190610754565b60036102809190610802565b61028a9190610754565b600c80600c600e8861029c9190610711565b6102a69190610754565b6102b09190610802565b6002876102bd9190610711565b6102c79190610711565b61016f6102d49190610802565b6102de9190610754565b6004600c600e886102ef9190610711565b6102f99190610754565b6112c08761030791906107be565b61031191906107be565b6105b561031e9190610802565b6103289190610754565b617d4b886103369190610711565b61034091906107be565b61034a91906107be565b6103549190610711565b61035e9190610711565b905080945050505050919050565b600080600080849050600062253d8c62010bd98361038a91906107be565b61039491906107be565b9050600062023ab18260046103a99190610802565b6103b39190610754565b9050600460038262023ab16103c89190610802565b6103d291906107be565b6103dc9190610754565b826103e79190610711565b9150600062164b096001846103fc91906107be565b610fa06104099190610802565b6104139190610754565b9050601f6004826105b56104279190610802565b6104319190610754565b8461043c9190610711565b61044691906107be565b9250600061098f84605061045a9190610802565b6104649190610754565b9050600060508261098f6104789190610802565b6104829190610754565b8561048d9190610711565b9050600b8261049c9190610754565b945084600c6104ab9190610802565b6002836104b891906107be565b6104c29190610711565b915084836031866104d39190610711565b60646104df9190610802565b6104e991906107be565b6104f391906107be565b92508298508197508096505050505050509193909250565b600080fd5b6000819050919050565b61052381610510565b811461052e57600080fd5b50565b6000813590506105408161051a565b92915050565b60006020828403121561055c5761055b61050b565b5b600061056a84828501610531565b91505092915050565b61057c81610510565b82525050565b60006020820190506105976000830184610573565b92915050565b7f4e487b7100000000000000000000000000000000000000000000000000000000600052601160045260246000fd5b60006105d782610510565b91506105e283610510565b92508282039050818111156105fa576105f961059d565b5b92915050565b600061060b82610510565b915061061683610510565b925082820261062481610510565b9150828204841483151761063b5761063a61059d565b5b5092915050565b7f4e487b7100000000000000000000000000000000000000000000000000000000600052601260045260246000fd5b600061067c82610510565b915061068783610510565b92508261069757610696610642565b5b828204905092915050565b60006106ad82610510565b91506106b883610510565b92508282019050808211156106d0576106cf61059d565b5b92915050565b60006106e182610510565b91506106ec83610510565b9250826106fc576106fb610642565b5b828206905092915050565b6000819050919050565b600061071c82610707565b915061072783610707565b925082820390508181126000841216828213600085121516171561074e5761074d61059d565b5b92915050565b600061075f82610707565b915061076a83610707565b92508261077a57610779610642565b5b600160000383147f8000000000000000000000000000000000000000000000000000000000000000831416156107b3576107b261059d565b5b828205905092915050565b60006107c982610707565b91506107d483610707565b9250828201905082811215600083121683821260008412151617156107fc576107fb61059d565b5b92915050565b600061080d82610707565b915061081883610707565b925082820261082681610707565b91507f8000000000000000000000000000000000000000000000000000000000000000841460008412161561085e5761085d61059d565b5b82820584148315176108735761087261059d565b5b509291505056fea2646970667358221220e5b8e1b005afe65692059697c89d494469b19c5e22070572a8f76d0ed2137ea464736f6c63430008120033",
			"opcodes": "PUSH1 0x80 PUSH1 0x40 MSTORE CALLVALUE DUP1 ISZERO PUSH2 0x10 JUMPI PUSH1 0x0 DUP1 REVERT JUMPDEST POP PUSH2 0x8B0 DUP1 PUSH2 0x20 PUSH1 0x0 CODECOPY PUSH1 0x0 RETURN INVALID PUSH1 0x80 PUSH1 0x40 MSTORE CALLVALUE DUP1 ISZERO PUSH2 0x10 JUMPI PUSH1 0x0 DUP1 REVERT JUMPDEST POP PUSH1 0x4 CALLDATASIZE LT PUSH2 0x57 JUMPI PUSH1 0x0 CALLDATALOAD PUSH1 0xE0 SHR DUP1 PUSH4 0x32672302 EQ PUSH2 0x5C JUMPI DUP1 PUSH4 0x4BBB4A27 EQ PUSH2 0x8C JUMPI DUP1 PUSH4 0x9254D772 EQ PUSH2 0xA8 JUMPI DUP1 PUSH4 0xBBE4FD50 EQ PUSH2 0xC6 JUMPI DUP1 PUSH4 0xE380AE96 EQ PUSH2 0xE4 JUMPI JUMPDEST PUSH1 0x0 DUP1 REVERT JUMPDEST PUSH2 0x76 PUSH1 0x4 DUP1 CALLDATASIZE SUB DUP2 ADD SWAP1 PUSH2 0x71 SWAP2 SWAP1 PUSH2 0x546 JUMP JUMPDEST PUSH2 0x100 JUMP JUMPDEST PUSH1 0x40 MLOAD PUSH2 0x83 SWAP2 SWAP1 PUSH2 0x582 JUMP JUMPDEST PUSH1 0x40 MLOAD DUP1 SWAP2 SUB SWAP1 RETURN JUMPDEST PUSH2 0xA6 PUSH1 0x4 DUP1 CALLDATASIZE SUB DUP2 ADD SWAP1 PUSH2 0xA1 SWAP2 SWAP1 PUSH2 0x546 JUMP JUMPDEST PUSH2 0x12C JUMP JUMPDEST STOP JUMPDEST PUSH2 0xB0 PUSH2 0x14E JUMP JUMPDEST PUSH1 0x40 MLOAD PUSH2 0xBD SWAP2 SWAP1 PUSH2 0x582 JUMP JUMPDEST PUSH1 0x40 MLOAD DUP1 SWAP2 SUB SWAP1 RETURN JUMPDEST PUSH2 0xCE PUSH2 0x1B6 JUMP JUMPDEST PUSH1 0x40 MLOAD PUSH2 0xDB SWAP2 SWAP1 PUSH2 0x582 JUMP JUMPDEST PUSH1 0x40 MLOAD DUP1 SWAP2 SUB SWAP1 RETURN JUMPDEST PUSH2 0xFE PUSH1 0x4 DUP1 CALLDATASIZE SUB DUP2 ADD SWAP1 PUSH2 0xF9 SWAP2 SWAP1 PUSH2 0x546 JUMP JUMPDEST PUSH2 0x1D3 JUMP JUMPDEST STOP JUMPDEST PUSH1 0x0 PUSH2 0x10B DUP3 PUSH2 0x1DD JUMP JUMPDEST PUSH2 0x11B PUSH2 0x116 PUSH2 0x14E JUMP JUMPDEST PUSH2 0x1DD JUMP JUMPDEST PUSH2 0x125 SWAP2 SWAP1 PUSH2 0x5CC JUMP JUMPDEST SWAP1 POP SWAP2 SWAP1 POP JUMP JUMPDEST PUSH2 0x14B PUSH3 0x15180 PUSH2 0x13C DUP4 PUSH2 0x1DD JUMP JUMPDEST PUSH2 0x146 SWAP2 SWAP1 PUSH2 0x600 JUMP JUMPDEST PUSH2 0x1D3 JUMP JUMPDEST POP JUMP JUMPDEST PUSH1 0x0 DUP1 PUSH1 0x0 DUP1 PUSH2 0x172 PUSH3 0x15180 PUSH2 0x163 PUSH2 0x1B6 JUMP JUMPDEST PUSH2 0x16D SWAP2 SWAP1 PUSH2 0x671 JUMP JUMPDEST PUSH2 0x36C JUMP JUMPDEST DUP1 SWAP4 POP DUP2 SWAP5 POP DUP3 SWAP6 POP POP POP POP DUP1 PUSH1 0x64 DUP4 PUSH2 0x18C SWAP2 SWAP1 PUSH2 0x600 JUMP JUMPDEST PUSH2 0x2710 DUP6 PUSH2 0x19A SWAP2 SWAP1 PUSH2 0x600 JUMP JUMPDEST PUSH2 0x1A4 SWAP2 SWAP1 PUSH2 0x6A2 JUMP JUMPDEST PUSH2 0x1AE SWAP2 SWAP1 PUSH2 0x6A2 JUMP JUMPDEST SWAP4 POP POP POP POP SWAP1 JUMP JUMPDEST PUSH1 0x0 DUP1 PUSH1 0x0 SLOAD GT ISZERO PUSH2 0x1CC JUMPI PUSH1 0x0 SLOAD SWAP1 POP PUSH2 0x1D0 JUMP JUMPDEST TIMESTAMP SWAP1 POP JUMPDEST SWAP1 JUMP JUMPDEST DUP1 PUSH1 0x0 DUP2 SWAP1 SSTORE POP POP JUMP JUMPDEST PUSH1 0x0 PUSH4 0x12CC030 DUP3 LT ISZERO PUSH2 0x1F0 JUMPI PUSH1 0x0 DUP1 REVERT JUMPDEST PUSH1 0x0 PUSH1 0x64 DUP4 PUSH2 0x1FF SWAP2 SWAP1 PUSH2 0x6D6 JUMP JUMPDEST SWAP1 POP PUSH1 0x0 PUSH1 0x64 DUP1 DUP6 PUSH2 0x211 SWAP2 SWAP1 PUSH2 0x671 JUMP JUMPDEST PUSH2 0x21B SWAP2 SWAP1 PUSH2 0x6D6 JUMP JUMPDEST SWAP1 POP PUSH1 0x0 PUSH2 0x2710 DUP6 PUSH2 0x22D SWAP2 SWAP1 PUSH2 0x671 JUMP JUMPDEST SWAP1 POP PUSH1 0x0 PUSH3 0x253D8C PUSH1 0x4 PUSH1 0x64 PUSH1 0xC PUSH1 0xE DUP8 PUSH2 0x248 SWAP2 SWAP1 PUSH2 0x711 JUMP JUMPDEST PUSH2 0x252 SWAP2 SWAP1 PUSH2 0x754 JUMP JUMPDEST PUSH2 0x1324 DUP7 PUSH2 0x260 SWAP2 SWAP1 PUSH2 0x7BE JUMP JUMPDEST PUSH2 0x26A SWAP2 SWAP1 PUSH2 0x7BE JUMP JUMPDEST PUSH2 0x274 SWAP2 SWAP1 PUSH2 0x754 JUMP JUMPDEST PUSH1 0x3 PUSH2 0x280 SWAP2 SWAP1 PUSH2 0x802 JUMP JUMPDEST PUSH2 0x28A SWAP2 SWAP1 PUSH2 0x754 JUMP JUMPDEST PUSH1 0xC DUP1 PUSH1 0xC PUSH1 0xE DUP9 PUSH2 0x29C SWAP2 SWAP1 PUSH2 0x711 JUMP JUMPDEST PUSH2 0x2A6 SWAP2 SWAP1 PUSH2 0x754 JUMP JUMPDEST PUSH2 0x2B0 SWAP2 SWAP1 PUSH2 0x802 JUMP JUMPDEST PUSH1 0x2 DUP8 PUSH2 0x2BD SWAP2 SWAP1 PUSH2 0x711 JUMP JUMPDEST PUSH2 0x2C7 SWAP2 SWAP1 PUSH2 0x711 JUMP JUMPDEST PUSH2 0x16F PUSH2 0x2D4 SWAP2 SWAP1 PUSH2 0x802 JUMP JUMPDEST PUSH2 0x2DE SWAP2 SWAP1 PUSH2 0x754 JUMP JUMPDEST PUSH1 0x4 PUSH1 0xC PUSH1 0xE DUP9 PUSH2 0x2EF SWAP2 SWAP1 PUSH2 0x711 JUMP JUMPDEST PUSH2 0x2F9 SWAP2 SWAP1 PUSH2 0x754 JUMP JUMPDEST PUSH2 0x12C0 DUP8 PUSH2 0x307 SWAP2 SWAP1 PUSH2 0x7BE JUMP JUMPDEST PUSH2 0x311 SWAP2 SWAP1 PUSH2 0x7BE JUMP JUMPDEST PUSH2 0x5B5 PUSH2 0x31E SWAP2 SWAP1 PUSH2 0x802 JUMP JUMPDEST PUSH2 0x328 SWAP2 SWAP1 PUSH2 0x754 JUMP JUMPDEST PUSH2 0x7D4B DUP9 PUSH2 0x336 SWAP2 SWAP1 PUSH2 0x711 JUMP JUMPDEST PUSH2 0x340 SWAP2 SWAP1 PUSH2 0x7BE JUMP JUMPDEST PUSH2 0x34A SWAP2 SWAP1 PUSH2 0x7BE JUMP JUMPDEST PUSH2 0x354 SWAP2 SWAP1 PUSH2 0x711 JUMP JUMPDEST PUSH2 0x35E SWAP2 SWAP1 PUSH2 0x711 JUMP JUMPDEST SWAP1 POP DUP1 SWAP5 POP POP POP POP POP SWAP2 SWAP1 POP JUMP JUMPDEST PUSH1 0x0 DUP1 PUSH1 0x0 DUP1 DUP5 SWAP1 POP PUSH1 0x0 PUSH3 0x253D8C PUSH3 0x10BD9 DUP4 PUSH2 0x38A SWAP2 SWAP1 PUSH2 0x7BE JUMP JUMPDEST PUSH2 0x394 SWAP2 SWAP1 PUSH2 0x7BE JUMP JUMPDEST SWAP1 POP PUSH1 0x0 PUSH3 0x23AB1 DUP3 PUSH1 0x4 PUSH2 0x3A9 SWAP2 SWAP1 PUSH2 0x802 JUMP JUMPDEST PUSH2 0x3B3 SWAP2 SWAP1 PUSH2 0x754 JUMP JUMPDEST SWAP1 POP PUSH1 0x4 PUSH1 0x3 DUP3 PUSH3 0x23AB1 PUSH2 0x3C8 SWAP2 SWAP1 PUSH2 0x802 JUMP JUMPDEST PUSH2 0x3D2 SWAP2 SWAP1 PUSH2 0x7BE JUMP JUMPDEST PUSH2 0x3DC SWAP2 SWAP1 PUSH2 0x754 JUMP JUMPDEST DUP3 PUSH2 0x3E7 SWAP2 SWAP1 PUSH2 0x711 JUMP JUMPDEST SWAP2 POP PUSH1 0x0 PUSH3 0x164B09 PUSH1 0x1 DUP5 PUSH2 0x3FC SWAP2 SWAP1 PUSH2 0x7BE JUMP JUMPDEST PUSH2 0xFA0 PUSH2 0x409 SWAP2 SWAP1 PUSH2 0x802 JUMP JUMPDEST PUSH2 0x413 SWAP2 SWAP1 PUSH2 0x754 JUMP JUMPDEST SWAP1 POP PUSH1 0x1F PUSH1 0x4 DUP3 PUSH2 0x5B5 PUSH2 0x427 SWAP2 SWAP1 PUSH2 0x802 JUMP JUMPDEST PUSH2 0x431 SWAP2 SWAP1 PUSH2 0x754 JUMP JUMPDEST DUP5 PUSH2 0x43C SWAP2 SWAP1 PUSH2 0x711 JUMP JUMPDEST PUSH2 0x446 SWAP2 SWAP1 PUSH2 0x7BE JUMP JUMPDEST SWAP3 POP PUSH1 0x0 PUSH2 0x98F DUP5 PUSH1 0x50 PUSH2 0x45A SWAP2 SWAP1 PUSH2 0x802 JUMP JUMPDEST PUSH2 0x464 SWAP2 SWAP1 PUSH2 0x754 JUMP JUMPDEST SWAP1 POP PUSH1 0x0 PUSH1 0x50 DUP3 PUSH2 0x98F PUSH2 0x478 SWAP2 SWAP1 PUSH2 0x802 JUMP JUMPDEST PUSH2 0x482 SWAP2 SWAP1 PUSH2 0x754 JUMP JUMPDEST DUP6 PUSH2 0x48D SWAP2 SWAP1 PUSH2 0x711 JUMP JUMPDEST SWAP1 POP PUSH1 0xB DUP3 PUSH2 0x49C SWAP2 SWAP1 PUSH2 0x754 JUMP JUMPDEST SWAP5 POP DUP5 PUSH1 0xC PUSH2 0x4AB SWAP2 SWAP1 PUSH2 0x802 JUMP JUMPDEST PUSH1 0x2 DUP4 PUSH2 0x4B8 SWAP2 SWAP1 PUSH2 0x7BE JUMP JUMPDEST PUSH2 0x4C2 SWAP2 SWAP1 PUSH2 0x711 JUMP JUMPDEST SWAP2 POP DUP5 DUP4 PUSH1 0x31 DUP7 PUSH2 0x4D3 SWAP2 SWAP1 PUSH2 0x711 JUMP JUMPDEST PUSH1 0x64 PUSH2 0x4DF SWAP2 SWAP1 PUSH2 0x802 JUMP JUMPDEST PUSH2 0x4E9 SWAP2 SWAP1 PUSH2 0x7BE JUMP JUMPDEST PUSH2 0x4F3 SWAP2 SWAP1 PUSH2 0x7BE JUMP JUMPDEST SWAP3 POP DUP3 SWAP9 POP DUP2 SWAP8 POP DUP1 SWAP7 POP POP POP POP POP POP POP SWAP2 SWAP4 SWAP1 SWAP3 POP JUMP JUMPDEST PUSH1 0x0 DUP1 REVERT JUMPDEST PUSH1 0x0 DUP2 SWAP1 POP SWAP2 SWAP1 POP JUMP JUMPDEST PUSH2 0x523 DUP2 PUSH2 0x510 JUMP JUMPDEST DUP2 EQ PUSH2 0x52E JUMPI PUSH1 0x0 DUP1 REVERT JUMPDEST POP JUMP JUMPDEST PUSH1 0x0 DUP2 CALLDATALOAD SWAP1 POP PUSH2 0x540 DUP2 PUSH2 0x51A JUMP JUMPDEST SWAP3 SWAP2 POP POP JUMP JUMPDEST PUSH1 0x0 PUSH1 0x20 DUP3 DUP5 SUB SLT ISZERO PUSH2 0x55C JUMPI PUSH2 0x55B PUSH2 0x50B JUMP JUMPDEST JUMPDEST PUSH1 0x0 PUSH2 0x56A DUP5 DUP3 DUP6 ADD PUSH2 0x531 JUMP JUMPDEST SWAP2 POP POP SWAP3 SWAP2 POP POP JUMP JUMPDEST PUSH2 0x57C DUP2 PUSH2 0x510 JUMP JUMPDEST DUP3 MSTORE POP POP JUMP JUMPDEST PUSH1 0x0 PUSH1 0x20 DUP3 ADD SWAP1 POP PUSH2 0x597 PUSH1 0x0 DUP4 ADD DUP5 PUSH2 0x573 JUMP JUMPDEST SWAP3 SWAP2 POP POP JUMP JUMPDEST PUSH32 0x4E487B7100000000000000000000000000000000000000000000000000000000 PUSH1 0x0 MSTORE PUSH1 0x11 PUSH1 0x4 MSTORE PUSH1 0x24 PUSH1 0x0 REVERT JUMPDEST PUSH1 0x0 PUSH2 0x5D7 DUP3 PUSH2 0x510 JUMP JUMPDEST SWAP2 POP PUSH2 0x5E2 DUP4 PUSH2 0x510 JUMP JUMPDEST SWAP3 POP DUP3 DUP3 SUB SWAP1 POP DUP2 DUP2 GT ISZERO PUSH2 0x5FA JUMPI PUSH2 0x5F9 PUSH2 0x59D JUMP JUMPDEST JUMPDEST SWAP3 SWAP2 POP POP JUMP JUMPDEST PUSH1 0x0 PUSH2 0x60B DUP3 PUSH2 0x510 JUMP JUMPDEST SWAP2 POP PUSH2 0x616 DUP4 PUSH2 0x510 JUMP JUMPDEST SWAP3 POP DUP3 DUP3 MUL PUSH2 0x624 DUP2 PUSH2 0x510 JUMP JUMPDEST SWAP2 POP DUP3 DUP3 DIV DUP5 EQ DUP4 ISZERO OR PUSH2 0x63B JUMPI PUSH2 0x63A PUSH2 0x59D JUMP JUMPDEST JUMPDEST POP SWAP3 SWAP2 POP POP JUMP JUMPDEST PUSH32 0x4E487B7100000000000000000000000000000000000000000000000000000000 PUSH1 0x0 MSTORE PUSH1 0x12 PUSH1 0x4 MSTORE PUSH1 0x24 PUSH1 0x0 REVERT JUMPDEST PUSH1 0x0 PUSH2 0x67C DUP3 PUSH2 0x510 JUMP JUMPDEST SWAP2 POP PUSH2 0x687 DUP4 PUSH2 0x510 JUMP JUMPDEST SWAP3 POP DUP3 PUSH2 0x697 JUMPI PUSH2 0x696 PUSH2 0x642 JUMP JUMPDEST JUMPDEST DUP3 DUP3 DIV SWAP1 POP SWAP3 SWAP2 POP POP JUMP JUMPDEST PUSH1 0x0 PUSH2 0x6AD DUP3 PUSH2 0x510 JUMP JUMPDEST SWAP2 POP PUSH2 0x6B8 DUP4 PUSH2 0x510 JUMP JUMPDEST SWAP3 POP DUP3 DUP3 ADD SWAP1 POP DUP1 DUP3 GT ISZERO PUSH2 0x6D0 JUMPI PUSH2 0x6CF PUSH2 0x59D JUMP JUMPDEST JUMPDEST SWAP3 SWAP2 POP POP JUMP JUMPDEST PUSH1 0x0 PUSH2 0x6E1 DUP3 PUSH2 0x510 JUMP JUMPDEST SWAP2 POP PUSH2 0x6EC DUP4 PUSH2 0x510 JUMP JUMPDEST SWAP3 POP DUP3 PUSH2 0x6FC JUMPI PUSH2 0x6FB PUSH2 0x642 JUMP JUMPDEST JUMPDEST DUP3 DUP3 MOD SWAP1 POP SWAP3 SWAP2 POP POP JUMP JUMPDEST PUSH1 0x0 DUP2 SWAP1 POP SWAP2 SWAP1 POP JUMP JUMPDEST PUSH1 0x0 PUSH2 0x71C DUP3 PUSH2 0x707 JUMP JUMPDEST SWAP2 POP PUSH2 0x727 DUP4 PUSH2 0x707 JUMP JUMPDEST SWAP3 POP DUP3 DUP3 SUB SWAP1 POP DUP2 DUP2 SLT PUSH1 0x0 DUP5 SLT AND DUP3 DUP3 SGT PUSH1 0x0 DUP6 SLT ISZERO AND OR ISZERO PUSH2 0x74E JUMPI PUSH2 0x74D PUSH2 0x59D JUMP JUMPDEST JUMPDEST SWAP3 SWAP2 POP POP JUMP JUMPDEST PUSH1 0x0 PUSH2 0x75F DUP3 PUSH2 0x707 JUMP JUMPDEST SWAP2 POP PUSH2 0x76A DUP4 PUSH2 0x707 JUMP JUMPDEST SWAP3 POP DUP3 PUSH2 0x77A JUMPI PUSH2 0x779 PUSH2 0x642 JUMP JUMPDEST JUMPDEST PUSH1 0x1 PUSH1 0x0 SUB DUP4 EQ PUSH32 0x8000000000000000000000000000000000000000000000000000000000000000 DUP4 EQ AND ISZERO PUSH2 0x7B3 JUMPI PUSH2 0x7B2 PUSH2 0x59D JUMP JUMPDEST JUMPDEST DUP3 DUP3 SDIV SWAP1 POP SWAP3 SWAP2 POP POP JUMP JUMPDEST PUSH1 0x0 PUSH2 0x7C9 DUP3 PUSH2 0x707 JUMP JUMPDEST SWAP2 POP PUSH2 0x7D4 DUP4 PUSH2 0x707 JUMP JUMPDEST SWAP3 POP DUP3 DUP3 ADD SWAP1 POP DUP3 DUP2 SLT ISZERO PUSH1 0x0 DUP4 SLT AND DUP4 DUP3 SLT PUSH1 0x0 DUP5 SLT ISZERO AND OR ISZERO PUSH2 0x7FC JUMPI PUSH2 0x7FB PUSH2 0x59D JUMP JUMPDEST JUMPDEST SWAP3 SWAP2 POP POP JUMP JUMPDEST PUSH1 0x0 PUSH2 0x80D DUP3 PUSH2 0x707 JUMP JUMPDEST SWAP2 POP PUSH2 0x818 DUP4 PUSH2 0x707 JUMP JUMPDEST SWAP3 POP DUP3 DUP3 MUL PUSH2 0x826 DUP2 PUSH2 0x707 JUMP JUMPDEST SWAP2 POP PUSH32 0x8000000000000000000000000000000000000000000000000000000000000000 DUP5 EQ PUSH1 0x0 DUP5 SLT AND ISZERO PUSH2 0x85E JUMPI PUSH2 0x85D PUSH2 0x59D JUMP JUMPDEST JUMPDEST DUP3 DUP3 SDIV DUP5 EQ DUP4 ISZERO OR PUSH2 0x873 JUMPI PUSH2 0x872 PUSH2 0x59D JUMP JUMPDEST JUMPDEST POP SWAP3 SWAP2 POP POP JUMP INVALID LOG2 PUSH5 0x6970667358 0x22 SLT KECCAK256 0xE5 0xB8 0xE1 0xB0 SDIV 0xAF 0xE6 JUMP SWAP3 SDIV SWAP7 SWAP8 0xC8 SWAP14 0x49 PREVRANDAO PUSH10 0xB19C5E22070572A8F76D 0xE 0xD2 SGT PUSH31 0xA464736F6C6343000812003300000000000000000000000000000000000000 "
		},
		"gasEstimates": {
			"creation": {
				"codeDepositCost": "444800",
				"executionCost": "480",
				"totalCost": "445280"
			},
			"external": {
				"getCurrentDate()": "infinite",
				"getDaysFromNow(uint256)": "infinite",
				"getNow()": "4618",
				"setCurrentDate(uint256)": "infinite",
				"setNow(uint256)": "22586"
			},
			"internal": {
				"_daysFromDate(uint256,uint256,uint256)": "infinite",
				"_daysFromDateConcatenated(uint256)": "infinite",
				"_daysToDate(uint256)": "infinite"
			}
		},
		"methodIdentifiers": {
			"getCurrentDate()": "9254d772",
			"getDaysFromNow(uint256)": "32672302",
			"getNow()": "bbe4fd50",
			"setCurrentDate(uint256)": "4bbb4a27",
			"setNow(uint256)": "e380ae96"
		}
	},
	"abi": [
		{
			"inputs": [],
			"name": "getCurrentDate",
			"outputs": [
				{
					"internalType": "uint256",
					"name": "date",
					"type": "uint256"
				}
			],
			"stateMutability": "view",
			"type": "function"
		},
		{
			"inputs": [
				{
					"internalType": "uint256",
					"name": "date",
					"type": "uint256"
				}
			],
			"name": "getDaysFromNow",
			"outputs": [
				{
					"internalType": "uint256",
					"name": "",
					"type": "uint256"
				}
			],
			"stateMutability": "view",
			"type": "function"
		},
		{
			"inputs": [],
			"name": "getNow",
			"outputs": [
				{
					"internalType": "uint256",
					"name": "",
					"type": "uint256"
				}
			],
			"stateMutability": "view",
			"type": "function"
		},
		{
			"inputs": [
				{
					"internalType": "uint256",
					"name": "date",
					"type": "uint256"
				}
			],
			"name": "setCurrentDate",
			"outputs": [],
			"stateMutability": "nonpayable",
			"type": "function"
		},
		{
			"inputs": [
				{
					"internalType": "uint256",
					"name": "timestamp",
					"type": "uint256"
				}
			],
			"name": "setNow",
			"outputs": [],
			"stateMutability": "nonpayable",
			"type": "function"
		}
	]
}