{
	"data": {
		"bytecode": {
			"linkReferences": {},
			"object": "608060405234801561001057600080fd5b5061002d61002261009560201b60201c565b61009d60201b60201c565b6004600260003373ffffffffffffffffffffffffffffffffffffffff1673ffffffffffffffffffffffffffffffffffffffff16815260200190815260200160002060006101000a81548165ffffffffffff021916908365ffffffffffff160217905550610161565b600033905090565b60008060009054906101000a900473ffffffffffffffffffffffffffffffffffffffff169050816000806101000a81548173ffffffffffffffffffffffffffffffffffffffff021916908373ffffffffffffffffffffffffffffffffffffffff1602179055508173ffffffffffffffffffffffffffffffffffffffff168173ffffffffffffffffffffffffffffffffffffffff167f8be0079c531659141344cd1fd0a4f28419497f9722a3daafe3b4186f6b6457e060405160405180910390a35050565b6116b4806101706000396000f3fe608060405234801561001057600080fd5b50600436106100ea5760003560e01c8063bbe4fd501161008c578063e380ae9611610066578063e380ae961461020f578063e79f0e961461022b578063f2fde38b1461025b578063f35f0f7414610277576100ea565b8063bbe4fd50146101b9578063c76cb0f2146101d7578063dee2bdd4146101f3576100ea565b8063715018a6116100c8578063715018a6146101575780638da5cb5b146101615780639254d7721461017f5780639c3650241461019d576100ea565b806332672302146100ef5780634bbb4a271461011f5780635a9452f71461013b575b600080fd5b61010960048036038101906101049190610e10565b6102a7565b6040516101169190610e4c565b60405180910390f35b61013960048036038101906101349190610e10565b6102d3565b005b61015560048036038101906101509190610f03565b6102f5565b005b61015f6103e2565b005b6101696103f6565b6040516101769190610f52565b60405180910390f35b61018761041f565b6040516101949190610e4c565b60405180910390f35b6101b760048036038101906101b291906110c6565b610487565b005b6101c16105ae565b6040516101ce9190610e4c565b60405180910390f35b6101f160048036038101906101ec91906110c6565b6105cb565b005b61020d60048036038101906102089190610f03565b610709565b005b61022960048036038101906102249190610e10565b6107f6565b005b61024560048036038101906102409190611122565b610800565b604051610252919061115e565b60405180910390f35b61027560048036038101906102709190611122565b61085b565b005b610291600480360381019061028c9190610f03565b6108de565b60405161029e9190611194565b60405180910390f35b60006102b28261094e565b6102c26102bd61041f565b61094e565b6102cc91906111de565b9050919050565b6102f2620151806102e38361094e565b6102ed9190611212565b6107f6565b50565b6102fd6103f6565b73ffffffffffffffffffffffffffffffffffffffff163373ffffffffffffffffffffffffffffffffffffffff16148061033d575061033c3360046108de565b5b61037c576040517f08c379a0000000000000000000000000000000000000000000000000000000008152600401610373906112b1565b60405180910390fd5b80600260008473ffffffffffffffffffffffffffffffffffffffff1673ffffffffffffffffffffffffffffffffffffffff16815260200190815260200160002060006101000a81548165ffffffffffff021916908365ffffffffffff1602179055505050565b6103ea610add565b6103f46000610b5b565b565b60008060009054906101000a900473ffffffffffffffffffffffffffffffffffffffff16905090565b600080600080610443620151806104346105ae565b61043e9190611300565b610c1f565b8093508194508295505050508060648361045d9190611212565b6127108561046b9190611212565b6104759190611331565b61047f9190611331565b935050505090565b61048f6103f6565b73ffffffffffffffffffffffffffffffffffffffff163373ffffffffffffffffffffffffffffffffffffffff1614806104cf57506104ce3360046108de565b5b61050e576040517f08c379a0000000000000000000000000000000000000000000000000000000008152600401610505906112b1565b60405180910390fd5b60005b82518110156105a957816002600085848151811061053257610531611365565b5b602002602001015173ffffffffffffffffffffffffffffffffffffffff1673ffffffffffffffffffffffffffffffffffffffff16815260200190815260200160002060006101000a81548165ffffffffffff021916908365ffffffffffff16021790555080806105a190611394565b915050610511565b505050565b60008060015411156105c45760015490506105c8565b4290505b90565b6105d36103f6565b73ffffffffffffffffffffffffffffffffffffffff163373ffffffffffffffffffffffffffffffffffffffff16148061061357506106123360046108de565b5b610652576040517f08c379a0000000000000000000000000000000000000000000000000000000008152600401610649906112b1565b60405180910390fd5b60005b825181101561070457816002600085848151811061067657610675611365565b5b602002602001015173ffffffffffffffffffffffffffffffffffffffff1673ffffffffffffffffffffffffffffffffffffffff16815260200190815260200160002060008282829054906101000a900465ffffffffffff161792506101000a81548165ffffffffffff021916908365ffffffffffff16021790555080806106fc90611394565b915050610655565b505050565b6107116103f6565b73ffffffffffffffffffffffffffffffffffffffff163373ffffffffffffffffffffffffffffffffffffffff16148061075157506107503360046108de565b5b610790576040517f08c379a0000000000000000000000000000000000000000000000000000000008152600401610787906112b1565b60405180910390fd5b80600260008473ffffffffffffffffffffffffffffffffffffffff1673ffffffffffffffffffffffffffffffffffffffff16815260200190815260200160002060006101000a81548165ffffffffffff021916908365ffffffffffff1602179055505050565b8060018190555050565b6000600260008373ffffffffffffffffffffffffffffffffffffffff1673ffffffffffffffffffffffffffffffffffffffff16815260200190815260200160002060009054906101000a900465ffffffffffff169050919050565b610863610add565b600073ffffffffffffffffffffffffffffffffffffffff168173ffffffffffffffffffffffffffffffffffffffff16036108d2576040517f08c379a00000000000000000000000000000000000000000000000000000000081526004016108c99061144e565b60405180910390fd5b6108db81610b5b565b50565b60008165ffffffffffff1682600260008673ffffffffffffffffffffffffffffffffffffffff1673ffffffffffffffffffffffffffffffffffffffff16815260200190815260200160002060009054906101000a900465ffffffffffff161665ffffffffffff1614905092915050565b600063012cc03082101561096157600080fd5b6000606483610970919061146e565b90506000606480856109829190611300565b61098c919061146e565b905060006127108561099e9190611300565b9050600062253d8c60046064600c600e876109b991906114a9565b6109c391906114ec565b611324866109d19190611556565b6109db9190611556565b6109e591906114ec565b60036109f1919061159a565b6109fb91906114ec565b600c80600c600e88610a0d91906114a9565b610a1791906114ec565b610a21919061159a565b600287610a2e91906114a9565b610a3891906114a9565b61016f610a45919061159a565b610a4f91906114ec565b6004600c600e88610a6091906114a9565b610a6a91906114ec565b6112c087610a789190611556565b610a829190611556565b6105b5610a8f919061159a565b610a9991906114ec565b617d4b88610aa791906114a9565b610ab19190611556565b610abb9190611556565b610ac591906114a9565b610acf91906114a9565b905080945050505050919050565b610ae5610dbe565b73ffffffffffffffffffffffffffffffffffffffff16610b036103f6565b73ffffffffffffffffffffffffffffffffffffffff1614610b59576040517f08c379a0000000000000000000000000000000000000000000000000000000008152600401610b509061165e565b60405180910390fd5b565b60008060009054906101000a900473ffffffffffffffffffffffffffffffffffffffff169050816000806101000a81548173ffffffffffffffffffffffffffffffffffffffff021916908373ffffffffffffffffffffffffffffffffffffffff1602179055508173ffffffffffffffffffffffffffffffffffffffff168173ffffffffffffffffffffffffffffffffffffffff167f8be0079c531659141344cd1fd0a4f28419497f9722a3daafe3b4186f6b6457e060405160405180910390a35050565b600080600080849050600062253d8c62010bd983610c3d9190611556565b610c479190611556565b9050600062023ab1826004610c5c919061159a565b610c6691906114ec565b9050600460038262023ab1610c7b919061159a565b610c859190611556565b610c8f91906114ec565b82610c9a91906114a9565b9150600062164b09600184610caf9190611556565b610fa0610cbc919061159a565b610cc691906114ec565b9050601f6004826105b5610cda919061159a565b610ce491906114ec565b84610cef91906114a9565b610cf99190611556565b9250600061098f846050610d0d919061159a565b610d1791906114ec565b9050600060508261098f610d2b919061159a565b610d3591906114ec565b85610d4091906114a9565b9050600b82610d4f91906114ec565b945084600c610d5e919061159a565b600283610d6b9190611556565b610d7591906114a9565b91508483603186610d8691906114a9565b6064610d92919061159a565b610d9c9190611556565b610da69190611556565b92508298508197508096505050505050509193909250565b600033905090565b6000604051905090565b600080fd5b600080fd5b6000819050919050565b610ded81610dda565b8114610df857600080fd5b50565b600081359050610e0a81610de4565b92915050565b600060208284031215610e2657610e25610dd0565b5b6000610e3484828501610dfb565b91505092915050565b610e4681610dda565b82525050565b6000602082019050610e616000830184610e3d565b92915050565b600073ffffffffffffffffffffffffffffffffffffffff82169050919050565b6000610e9282610e67565b9050919050565b610ea281610e87565b8114610ead57600080fd5b50565b600081359050610ebf81610e99565b92915050565b600065ffffffffffff82169050919050565b610ee081610ec5565b8114610eeb57600080fd5b50565b600081359050610efd81610ed7565b92915050565b60008060408385031215610f1a57610f19610dd0565b5b6000610f2885828601610eb0565b9250506020610f3985828601610eee565b9150509250929050565b610f4c81610e87565b82525050565b6000602082019050610f676000830184610f43565b92915050565b600080fd5b6000601f19601f8301169050919050565b7f4e487b7100000000000000000000000000000000000000000000000000000000600052604160045260246000fd5b610fbb82610f72565b810181811067ffffffffffffffff82111715610fda57610fd9610f83565b5b80604052505050565b6000610fed610dc6565b9050610ff98282610fb2565b919050565b600067ffffffffffffffff82111561101957611018610f83565b5b602082029050602081019050919050565b600080fd5b600061104261103d84610ffe565b610fe3565b905080838252602082019050602084028301858111156110655761106461102a565b5b835b8181101561108e578061107a8882610eb0565b845260208401935050602081019050611067565b5050509392505050565b600082601f8301126110ad576110ac610f6d565b5b81356110bd84826020860161102f565b91505092915050565b600080604083850312156110dd576110dc610dd0565b5b600083013567ffffffffffffffff8111156110fb576110fa610dd5565b5b61110785828601611098565b925050602061111885828601610eee565b9150509250929050565b60006020828403121561113857611137610dd0565b5b600061114684828501610eb0565b91505092915050565b61115881610ec5565b82525050565b6000602082019050611173600083018461114f565b92915050565b60008115159050919050565b61118e81611179565b82525050565b60006020820190506111a96000830184611185565b92915050565b7f4e487b7100000000000000000000000000000000000000000000000000000000600052601160045260246000fd5b60006111e982610dda565b91506111f483610dda565b925082820390508181111561120c5761120b6111af565b5b92915050565b600061121d82610dda565b915061122883610dda565b925082820261123681610dda565b9150828204841483151761124d5761124c6111af565b5b5092915050565b600082825260208201905092915050565b7f557365722069736e27742061206c6973742061646d696e6973747261746f722e600082015250565b600061129b602083611254565b91506112a682611265565b602082019050919050565b600060208201905081810360008301526112ca8161128e565b9050919050565b7f4e487b7100000000000000000000000000000000000000000000000000000000600052601260045260246000fd5b600061130b82610dda565b915061131683610dda565b925082611326576113256112d1565b5b828204905092915050565b600061133c82610dda565b915061134783610dda565b925082820190508082111561135f5761135e6111af565b5b92915050565b7f4e487b7100000000000000000000000000000000000000000000000000000000600052603260045260246000fd5b600061139f82610dda565b91507fffffffffffffffffffffffffffffffffffffffffffffffffffffffffffffffff82036113d1576113d06111af565b5b600182019050919050565b7f4f776e61626c653a206e6577206f776e657220697320746865207a65726f206160008201527f6464726573730000000000000000000000000000000000000000000000000000602082015250565b6000611438602683611254565b9150611443826113dc565b604082019050919050565b600060208201905081810360008301526114678161142b565b9050919050565b600061147982610dda565b915061148483610dda565b925082611494576114936112d1565b5b828206905092915050565b6000819050919050565b60006114b48261149f565b91506114bf8361149f565b92508282039050818112600084121682821360008512151617156114e6576114e56111af565b5b92915050565b60006114f78261149f565b91506115028361149f565b925082611512576115116112d1565b5b600160000383147f80000000000000000000000000000000000000000000000000000000000000008314161561154b5761154a6111af565b5b828205905092915050565b60006115618261149f565b915061156c8361149f565b925082820190508281121560008312168382126000841215161715611594576115936111af565b5b92915050565b60006115a58261149f565b91506115b08361149f565b92508282026115be8161149f565b91507f800000000000000000000000000000000000000000000000000000000000000084146000841216156115f6576115f56111af565b5b828205841483151761160b5761160a6111af565b5b5092915050565b7f4f776e61626c653a2063616c6c6572206973206e6f7420746865206f776e6572600082015250565b6000611648602083611254565b915061165382611612565b602082019050919050565b600060208201905081810360008301526116778161163b565b905091905056fea2646970667358221220b8aed50adb92013920485df4566a171282335827c07260c4677fdc861694d3ba64736f6c63430008120033",
			"opcodes": "PUSH1 0x80 PUSH1 0x40 MSTORE CALLVALUE DUP1 ISZERO PUSH2 0x10 JUMPI PUSH1 0x0 DUP1 REVERT JUMPDEST POP PUSH2 0x2D PUSH2 0x22 PUSH2 0x95 PUSH1 0x20 SHL PUSH1 0x20 SHR JUMP JUMPDEST PUSH2 0x9D PUSH1 0x20 SHL PUSH1 0x20 SHR JUMP JUMPDEST PUSH1 0x4 PUSH1 0x2 PUSH1 0x0 CALLER PUSH20 0xFFFFFFFFFFFFFFFFFFFFFFFFFFFFFFFFFFFFFFFF AND PUSH20 0xFFFFFFFFFFFFFFFFFFFFFFFFFFFFFFFFFFFFFFFF AND DUP2 MSTORE PUSH1 0x20 ADD SWAP1 DUP2 MSTORE PUSH1 0x20 ADD PUSH1 0x0 KECCAK256 PUSH1 0x0 PUSH2 0x100 EXP DUP2 SLOAD DUP2 PUSH6 0xFFFFFFFFFFFF MUL NOT AND SWAP1 DUP4 PUSH6 0xFFFFFFFFFFFF AND MUL OR SWAP1 SSTORE POP PUSH2 0x161 JUMP JUMPDEST PUSH1 0x0 CALLER SWAP1 POP SWAP1 JUMP JUMPDEST PUSH1 0x0 DUP1 PUSH1 0x0 SWAP1 SLOAD SWAP1 PUSH2 0x100 EXP SWAP1 DIV PUSH20 0xFFFFFFFFFFFFFFFFFFFFFFFFFFFFFFFFFFFFFFFF AND SWAP1 POP DUP2 PUSH1 0x0 DUP1 PUSH2 0x100 EXP DUP2 SLOAD DUP2 PUSH20 0xFFFFFFFFFFFFFFFFFFFFFFFFFFFFFFFFFFFFFFFF MUL NOT AND SWAP1 DUP4 PUSH20 0xFFFFFFFFFFFFFFFFFFFFFFFFFFFFFFFFFFFFFFFF AND MUL OR SWAP1 SSTORE POP DUP2 PUSH20 0xFFFFFFFFFFFFFFFFFFFFFFFFFFFFFFFFFFFFFFFF AND DUP2 PUSH20 0xFFFFFFFFFFFFFFFFFFFFFFFFFFFFFFFFFFFFFFFF AND PUSH32 0x8BE0079C531659141344CD1FD0A4F28419497F9722A3DAAFE3B4186F6B6457E0 PUSH1 0x40 MLOAD PUSH1 0x40 MLOAD DUP1 SWAP2 SUB SWAP1 LOG3 POP POP JUMP JUMPDEST PUSH2 0x16B4 DUP1 PUSH2 0x170 PUSH1 0x0 CODECOPY PUSH1 0x0 RETURN INVALID PUSH1 0x80 PUSH1 0x40 MSTORE CALLVALUE DUP1 ISZERO PUSH2 0x10 JUMPI PUSH1 0x0 DUP1 REVERT JUMPDEST POP PUSH1 0x4 CALLDATASIZE LT PUSH2 0xEA JUMPI PUSH1 0x0 CALLDATALOAD PUSH1 0xE0 SHR DUP1 PUSH4 0xBBE4FD50 GT PUSH2 0x8C JUMPI DUP1 PUSH4 0xE380AE96 GT PUSH2 0x66 JUMPI DUP1 PUSH4 0xE380AE96 EQ PUSH2 0x20F JUMPI DUP1 PUSH4 0xE79F0E96 EQ PUSH2 0x22B JUMPI DUP1 PUSH4 0xF2FDE38B EQ PUSH2 0x25B JUMPI DUP1 PUSH4 0xF35F0F74 EQ PUSH2 0x277 JUMPI PUSH2 0xEA JUMP JUMPDEST DUP1 PUSH4 0xBBE4FD50 EQ PUSH2 0x1B9 JUMPI DUP1 PUSH4 0xC76CB0F2 EQ PUSH2 0x1D7 JUMPI DUP1 PUSH4 0xDEE2BDD4 EQ PUSH2 0x1F3 JUMPI PUSH2 0xEA JUMP JUMPDEST DUP1 PUSH4 0x715018A6 GT PUSH2 0xC8 JUMPI DUP1 PUSH4 0x715018A6 EQ PUSH2 0x157 JUMPI DUP1 PUSH4 0x8DA5CB5B EQ PUSH2 0x161 JUMPI DUP1 PUSH4 0x9254D772 EQ PUSH2 0x17F JUMPI DUP1 PUSH4 0x9C365024 EQ PUSH2 0x19D JUMPI PUSH2 0xEA JUMP JUMPDEST DUP1 PUSH4 0x32672302 EQ PUSH2 0xEF JUMPI DUP1 PUSH4 0x4BBB4A27 EQ PUSH2 0x11F JUMPI DUP1 PUSH4 0x5A9452F7 EQ PUSH2 0x13B JUMPI JUMPDEST PUSH1 0x0 DUP1 REVERT JUMPDEST PUSH2 0x109 PUSH1 0x4 DUP1 CALLDATASIZE SUB DUP2 ADD SWAP1 PUSH2 0x104 SWAP2 SWAP1 PUSH2 0xE10 JUMP JUMPDEST PUSH2 0x2A7 JUMP JUMPDEST PUSH1 0x40 MLOAD PUSH2 0x116 SWAP2 SWAP1 PUSH2 0xE4C JUMP JUMPDEST PUSH1 0x40 MLOAD DUP1 SWAP2 SUB SWAP1 RETURN JUMPDEST PUSH2 0x139 PUSH1 0x4 DUP1 CALLDATASIZE SUB DUP2 ADD SWAP1 PUSH2 0x134 SWAP2 SWAP1 PUSH2 0xE10 JUMP JUMPDEST PUSH2 0x2D3 JUMP JUMPDEST STOP JUMPDEST PUSH2 0x155 PUSH1 0x4 DUP1 CALLDATASIZE SUB DUP2 ADD SWAP1 PUSH2 0x150 SWAP2 SWAP1 PUSH2 0xF03 JUMP JUMPDEST PUSH2 0x2F5 JUMP JUMPDEST STOP JUMPDEST PUSH2 0x15F PUSH2 0x3E2 JUMP JUMPDEST STOP JUMPDEST PUSH2 0x169 PUSH2 0x3F6 JUMP JUMPDEST PUSH1 0x40 MLOAD PUSH2 0x176 SWAP2 SWAP1 PUSH2 0xF52 JUMP JUMPDEST PUSH1 0x40 MLOAD DUP1 SWAP2 SUB SWAP1 RETURN JUMPDEST PUSH2 0x187 PUSH2 0x41F JUMP JUMPDEST PUSH1 0x40 MLOAD PUSH2 0x194 SWAP2 SWAP1 PUSH2 0xE4C JUMP JUMPDEST PUSH1 0x40 MLOAD DUP1 SWAP2 SUB SWAP1 RETURN JUMPDEST PUSH2 0x1B7 PUSH1 0x4 DUP1 CALLDATASIZE SUB DUP2 ADD SWAP1 PUSH2 0x1B2 SWAP2 SWAP1 PUSH2 0x10C6 JUMP JUMPDEST PUSH2 0x487 JUMP JUMPDEST STOP JUMPDEST PUSH2 0x1C1 PUSH2 0x5AE JUMP JUMPDEST PUSH1 0x40 MLOAD PUSH2 0x1CE SWAP2 SWAP1 PUSH2 0xE4C JUMP JUMPDEST PUSH1 0x40 MLOAD DUP1 SWAP2 SUB SWAP1 RETURN JUMPDEST PUSH2 0x1F1 PUSH1 0x4 DUP1 CALLDATASIZE SUB DUP2 ADD SWAP1 PUSH2 0x1EC SWAP2 SWAP1 PUSH2 0x10C6 JUMP JUMPDEST PUSH2 0x5CB JUMP JUMPDEST STOP JUMPDEST PUSH2 0x20D PUSH1 0x4 DUP1 CALLDATASIZE SUB DUP2 ADD SWAP1 PUSH2 0x208 SWAP2 SWAP1 PUSH2 0xF03 JUMP JUMPDEST PUSH2 0x709 JUMP JUMPDEST STOP JUMPDEST PUSH2 0x229 PUSH1 0x4 DUP1 CALLDATASIZE SUB DUP2 ADD SWAP1 PUSH2 0x224 SWAP2 SWAP1 PUSH2 0xE10 JUMP JUMPDEST PUSH2 0x7F6 JUMP JUMPDEST STOP JUMPDEST PUSH2 0x245 PUSH1 0x4 DUP1 CALLDATASIZE SUB DUP2 ADD SWAP1 PUSH2 0x240 SWAP2 SWAP1 PUSH2 0x1122 JUMP JUMPDEST PUSH2 0x800 JUMP JUMPDEST PUSH1 0x40 MLOAD PUSH2 0x252 SWAP2 SWAP1 PUSH2 0x115E JUMP JUMPDEST PUSH1 0x40 MLOAD DUP1 SWAP2 SUB SWAP1 RETURN JUMPDEST PUSH2 0x275 PUSH1 0x4 DUP1 CALLDATASIZE SUB DUP2 ADD SWAP1 PUSH2 0x270 SWAP2 SWAP1 PUSH2 0x1122 JUMP JUMPDEST PUSH2 0x85B JUMP JUMPDEST STOP JUMPDEST PUSH2 0x291 PUSH1 0x4 DUP1 CALLDATASIZE SUB DUP2 ADD SWAP1 PUSH2 0x28C SWAP2 SWAP1 PUSH2 0xF03 JUMP JUMPDEST PUSH2 0x8DE JUMP JUMPDEST PUSH1 0x40 MLOAD PUSH2 0x29E SWAP2 SWAP1 PUSH2 0x1194 JUMP JUMPDEST PUSH1 0x40 MLOAD DUP1 SWAP2 SUB SWAP1 RETURN JUMPDEST PUSH1 0x0 PUSH2 0x2B2 DUP3 PUSH2 0x94E JUMP JUMPDEST PUSH2 0x2C2 PUSH2 0x2BD PUSH2 0x41F JUMP JUMPDEST PUSH2 0x94E JUMP JUMPDEST PUSH2 0x2CC SWAP2 SWAP1 PUSH2 0x11DE JUMP JUMPDEST SWAP1 POP SWAP2 SWAP1 POP JUMP JUMPDEST PUSH2 0x2F2 PUSH3 0x15180 PUSH2 0x2E3 DUP4 PUSH2 0x94E JUMP JUMPDEST PUSH2 0x2ED SWAP2 SWAP1 PUSH2 0x1212 JUMP JUMPDEST PUSH2 0x7F6 JUMP JUMPDEST POP JUMP JUMPDEST PUSH2 0x2FD PUSH2 0x3F6 JUMP JUMPDEST PUSH20 0xFFFFFFFFFFFFFFFFFFFFFFFFFFFFFFFFFFFFFFFF AND CALLER PUSH20 0xFFFFFFFFFFFFFFFFFFFFFFFFFFFFFFFFFFFFFFFF AND EQ DUP1 PUSH2 0x33D JUMPI POP PUSH2 0x33C CALLER PUSH1 0x4 PUSH2 0x8DE JUMP JUMPDEST JUMPDEST PUSH2 0x37C JUMPI PUSH1 0x40 MLOAD PUSH32 0x8C379A000000000000000000000000000000000000000000000000000000000 DUP2 MSTORE PUSH1 0x4 ADD PUSH2 0x373 SWAP1 PUSH2 0x12B1 JUMP JUMPDEST PUSH1 0x40 MLOAD DUP1 SWAP2 SUB SWAP1 REVERT JUMPDEST DUP1 PUSH1 0x2 PUSH1 0x0 DUP5 PUSH20 0xFFFFFFFFFFFFFFFFFFFFFFFFFFFFFFFFFFFFFFFF AND PUSH20 0xFFFFFFFFFFFFFFFFFFFFFFFFFFFFFFFFFFFFFFFF AND DUP2 MSTORE PUSH1 0x20 ADD SWAP1 DUP2 MSTORE PUSH1 0x20 ADD PUSH1 0x0 KECCAK256 PUSH1 0x0 PUSH2 0x100 EXP DUP2 SLOAD DUP2 PUSH6 0xFFFFFFFFFFFF MUL NOT AND SWAP1 DUP4 PUSH6 0xFFFFFFFFFFFF AND MUL OR SWAP1 SSTORE POP POP POP JUMP JUMPDEST PUSH2 0x3EA PUSH2 0xADD JUMP JUMPDEST PUSH2 0x3F4 PUSH1 0x0 PUSH2 0xB5B JUMP JUMPDEST JUMP JUMPDEST PUSH1 0x0 DUP1 PUSH1 0x0 SWAP1 SLOAD SWAP1 PUSH2 0x100 EXP SWAP1 DIV PUSH20 0xFFFFFFFFFFFFFFFFFFFFFFFFFFFFFFFFFFFFFFFF AND SWAP1 POP SWAP1 JUMP JUMPDEST PUSH1 0x0 DUP1 PUSH1 0x0 DUP1 PUSH2 0x443 PUSH3 0x15180 PUSH2 0x434 PUSH2 0x5AE JUMP JUMPDEST PUSH2 0x43E SWAP2 SWAP1 PUSH2 0x1300 JUMP JUMPDEST PUSH2 0xC1F JUMP JUMPDEST DUP1 SWAP4 POP DUP2 SWAP5 POP DUP3 SWAP6 POP POP POP POP DUP1 PUSH1 0x64 DUP4 PUSH2 0x45D SWAP2 SWAP1 PUSH2 0x1212 JUMP JUMPDEST PUSH2 0x2710 DUP6 PUSH2 0x46B SWAP2 SWAP1 PUSH2 0x1212 JUMP JUMPDEST PUSH2 0x475 SWAP2 SWAP1 PUSH2 0x1331 JUMP JUMPDEST PUSH2 0x47F SWAP2 SWAP1 PUSH2 0x1331 JUMP JUMPDEST SWAP4 POP POP POP POP SWAP1 JUMP JUMPDEST PUSH2 0x48F PUSH2 0x3F6 JUMP JUMPDEST PUSH20 0xFFFFFFFFFFFFFFFFFFFFFFFFFFFFFFFFFFFFFFFF AND CALLER PUSH20 0xFFFFFFFFFFFFFFFFFFFFFFFFFFFFFFFFFFFFFFFF AND EQ DUP1 PUSH2 0x4CF JUMPI POP PUSH2 0x4CE CALLER PUSH1 0x4 PUSH2 0x8DE JUMP JUMPDEST JUMPDEST PUSH2 0x50E JUMPI PUSH1 0x40 MLOAD PUSH32 0x8C379A000000000000000000000000000000000000000000000000000000000 DUP2 MSTORE PUSH1 0x4 ADD PUSH2 0x505 SWAP1 PUSH2 0x12B1 JUMP JUMPDEST PUSH1 0x40 MLOAD DUP1 SWAP2 SUB SWAP1 REVERT JUMPDEST PUSH1 0x0 JUMPDEST DUP3 MLOAD DUP2 LT ISZERO PUSH2 0x5A9 JUMPI DUP2 PUSH1 0x2 PUSH1 0x0 DUP6 DUP5 DUP2 MLOAD DUP2 LT PUSH2 0x532 JUMPI PUSH2 0x531 PUSH2 0x1365 JUMP JUMPDEST JUMPDEST PUSH1 0x20 MUL PUSH1 0x20 ADD ADD MLOAD PUSH20 0xFFFFFFFFFFFFFFFFFFFFFFFFFFFFFFFFFFFFFFFF AND PUSH20 0xFFFFFFFFFFFFFFFFFFFFFFFFFFFFFFFFFFFFFFFF AND DUP2 MSTORE PUSH1 0x20 ADD SWAP1 DUP2 MSTORE PUSH1 0x20 ADD PUSH1 0x0 KECCAK256 PUSH1 0x0 PUSH2 0x100 EXP DUP2 SLOAD DUP2 PUSH6 0xFFFFFFFFFFFF MUL NOT AND SWAP1 DUP4 PUSH6 0xFFFFFFFFFFFF AND MUL OR SWAP1 SSTORE POP DUP1 DUP1 PUSH2 0x5A1 SWAP1 PUSH2 0x1394 JUMP JUMPDEST SWAP2 POP POP PUSH2 0x511 JUMP JUMPDEST POP POP POP JUMP JUMPDEST PUSH1 0x0 DUP1 PUSH1 0x1 SLOAD GT ISZERO PUSH2 0x5C4 JUMPI PUSH1 0x1 SLOAD SWAP1 POP PUSH2 0x5C8 JUMP JUMPDEST TIMESTAMP SWAP1 POP JUMPDEST SWAP1 JUMP JUMPDEST PUSH2 0x5D3 PUSH2 0x3F6 JUMP JUMPDEST PUSH20 0xFFFFFFFFFFFFFFFFFFFFFFFFFFFFFFFFFFFFFFFF AND CALLER PUSH20 0xFFFFFFFFFFFFFFFFFFFFFFFFFFFFFFFFFFFFFFFF AND EQ DUP1 PUSH2 0x613 JUMPI POP PUSH2 0x612 CALLER PUSH1 0x4 PUSH2 0x8DE JUMP JUMPDEST JUMPDEST PUSH2 0x652 JUMPI PUSH1 0x40 MLOAD PUSH32 0x8C379A000000000000000000000000000000000000000000000000000000000 DUP2 MSTORE PUSH1 0x4 ADD PUSH2 0x649 SWAP1 PUSH2 0x12B1 JUMP JUMPDEST PUSH1 0x40 MLOAD DUP1 SWAP2 SUB SWAP1 REVERT JUMPDEST PUSH1 0x0 JUMPDEST DUP3 MLOAD DUP2 LT ISZERO PUSH2 0x704 JUMPI DUP2 PUSH1 0x2 PUSH1 0x0 DUP6 DUP5 DUP2 MLOAD DUP2 LT PUSH2 0x676 JUMPI PUSH2 0x675 PUSH2 0x1365 JUMP JUMPDEST JUMPDEST PUSH1 0x20 MUL PUSH1 0x20 ADD ADD MLOAD PUSH20 0xFFFFFFFFFFFFFFFFFFFFFFFFFFFFFFFFFFFFFFFF AND PUSH20 0xFFFFFFFFFFFFFFFFFFFFFFFFFFFFFFFFFFFFFFFF AND DUP2 MSTORE PUSH1 0x20 ADD SWAP1 DUP2 MSTORE PUSH1 0x20 ADD PUSH1 0x0 KECCAK256 PUSH1 0x0 DUP3 DUP3 DUP3 SWAP1 SLOAD SWAP1 PUSH2 0x100 EXP SWAP1 DIV PUSH6 0xFFFFFFFFFFFF AND OR SWAP3 POP PUSH2 0x100 EXP DUP2 SLOAD DUP2 PUSH6 0xFFFFFFFFFFFF MUL NOT AND SWAP1 DUP4 PUSH6 0xFFFFFFFFFFFF AND MUL OR SWAP1 SSTORE POP DUP1 DUP1 PUSH2 0x6FC SWAP1 PUSH2 0x1394 JUMP JUMPDEST SWAP2 POP POP PUSH2 0x655 JUMP JUMPDEST POP POP POP JUMP JUMPDEST PUSH2 0x711 PUSH2 0x3F6 JUMP JUMPDEST PUSH20 0xFFFFFFFFFFFFFFFFFFFFFFFFFFFFFFFFFFFFFFFF AND CALLER PUSH20 0xFFFFFFFFFFFFFFFFFFFFFFFFFFFFFFFFFFFFFFFF AND EQ DUP1 PUSH2 0x751 JUMPI POP PUSH2 0x750 CALLER PUSH1 0x4 PUSH2 0x8DE JUMP JUMPDEST JUMPDEST PUSH2 0x790 JUMPI PUSH1 0x40 MLOAD PUSH32 0x8C379A000000000000000000000000000000000000000000000000000000000 DUP2 MSTORE PUSH1 0x4 ADD PUSH2 0x787 SWAP1 PUSH2 0x12B1 JUMP JUMPDEST PUSH1 0x40 MLOAD DUP1 SWAP2 SUB SWAP1 REVERT JUMPDEST DUP1 PUSH1 0x2 PUSH1 0x0 DUP5 PUSH20 0xFFFFFFFFFFFFFFFFFFFFFFFFFFFFFFFFFFFFFFFF AND PUSH20 0xFFFFFFFFFFFFFFFFFFFFFFFFFFFFFFFFFFFFFFFF AND DUP2 MSTORE PUSH1 0x20 ADD SWAP1 DUP2 MSTORE PUSH1 0x20 ADD PUSH1 0x0 KECCAK256 PUSH1 0x0 PUSH2 0x100 EXP DUP2 SLOAD DUP2 PUSH6 0xFFFFFFFFFFFF MUL NOT AND SWAP1 DUP4 PUSH6 0xFFFFFFFFFFFF AND MUL OR SWAP1 SSTORE POP POP POP JUMP JUMPDEST DUP1 PUSH1 0x1 DUP2 SWAP1 SSTORE POP POP JUMP JUMPDEST PUSH1 0x0 PUSH1 0x2 PUSH1 0x0 DUP4 PUSH20 0xFFFFFFFFFFFFFFFFFFFFFFFFFFFFFFFFFFFFFFFF AND PUSH20 0xFFFFFFFFFFFFFFFFFFFFFFFFFFFFFFFFFFFFFFFF AND DUP2 MSTORE PUSH1 0x20 ADD SWAP1 DUP2 MSTORE PUSH1 0x20 ADD PUSH1 0x0 KECCAK256 PUSH1 0x0 SWAP1 SLOAD SWAP1 PUSH2 0x100 EXP SWAP1 DIV PUSH6 0xFFFFFFFFFFFF AND SWAP1 POP SWAP2 SWAP1 POP JUMP JUMPDEST PUSH2 0x863 PUSH2 0xADD JUMP JUMPDEST PUSH1 0x0 PUSH20 0xFFFFFFFFFFFFFFFFFFFFFFFFFFFFFFFFFFFFFFFF AND DUP2 PUSH20 0xFFFFFFFFFFFFFFFFFFFFFFFFFFFFFFFFFFFFFFFF AND SUB PUSH2 0x8D2 JUMPI PUSH1 0x40 MLOAD PUSH32 0x8C379A000000000000000000000000000000000000000000000000000000000 DUP2 MSTORE PUSH1 0x4 ADD PUSH2 0x8C9 SWAP1 PUSH2 0x144E JUMP JUMPDEST PUSH1 0x40 MLOAD DUP1 SWAP2 SUB SWAP1 REVERT JUMPDEST PUSH2 0x8DB DUP2 PUSH2 0xB5B JUMP JUMPDEST POP JUMP JUMPDEST PUSH1 0x0 DUP2 PUSH6 0xFFFFFFFFFFFF AND DUP3 PUSH1 0x2 PUSH1 0x0 DUP7 PUSH20 0xFFFFFFFFFFFFFFFFFFFFFFFFFFFFFFFFFFFFFFFF AND PUSH20 0xFFFFFFFFFFFFFFFFFFFFFFFFFFFFFFFFFFFFFFFF AND DUP2 MSTORE PUSH1 0x20 ADD SWAP1 DUP2 MSTORE PUSH1 0x20 ADD PUSH1 0x0 KECCAK256 PUSH1 0x0 SWAP1 SLOAD SWAP1 PUSH2 0x100 EXP SWAP1 DIV PUSH6 0xFFFFFFFFFFFF AND AND PUSH6 0xFFFFFFFFFFFF AND EQ SWAP1 POP SWAP3 SWAP2 POP POP JUMP JUMPDEST PUSH1 0x0 PUSH4 0x12CC030 DUP3 LT ISZERO PUSH2 0x961 JUMPI PUSH1 0x0 DUP1 REVERT JUMPDEST PUSH1 0x0 PUSH1 0x64 DUP4 PUSH2 0x970 SWAP2 SWAP1 PUSH2 0x146E JUMP JUMPDEST SWAP1 POP PUSH1 0x0 PUSH1 0x64 DUP1 DUP6 PUSH2 0x982 SWAP2 SWAP1 PUSH2 0x1300 JUMP JUMPDEST PUSH2 0x98C SWAP2 SWAP1 PUSH2 0x146E JUMP JUMPDEST SWAP1 POP PUSH1 0x0 PUSH2 0x2710 DUP6 PUSH2 0x99E SWAP2 SWAP1 PUSH2 0x1300 JUMP JUMPDEST SWAP1 POP PUSH1 0x0 PUSH3 0x253D8C PUSH1 0x4 PUSH1 0x64 PUSH1 0xC PUSH1 0xE DUP8 PUSH2 0x9B9 SWAP2 SWAP1 PUSH2 0x14A9 JUMP JUMPDEST PUSH2 0x9C3 SWAP2 SWAP1 PUSH2 0x14EC JUMP JUMPDEST PUSH2 0x1324 DUP7 PUSH2 0x9D1 SWAP2 SWAP1 PUSH2 0x1556 JUMP JUMPDEST PUSH2 0x9DB SWAP2 SWAP1 PUSH2 0x1556 JUMP JUMPDEST PUSH2 0x9E5 SWAP2 SWAP1 PUSH2 0x14EC JUMP JUMPDEST PUSH1 0x3 PUSH2 0x9F1 SWAP2 SWAP1 PUSH2 0x159A JUMP JUMPDEST PUSH2 0x9FB SWAP2 SWAP1 PUSH2 0x14EC JUMP JUMPDEST PUSH1 0xC DUP1 PUSH1 0xC PUSH1 0xE DUP9 PUSH2 0xA0D SWAP2 SWAP1 PUSH2 0x14A9 JUMP JUMPDEST PUSH2 0xA17 SWAP2 SWAP1 PUSH2 0x14EC JUMP JUMPDEST PUSH2 0xA21 SWAP2 SWAP1 PUSH2 0x159A JUMP JUMPDEST PUSH1 0x2 DUP8 PUSH2 0xA2E SWAP2 SWAP1 PUSH2 0x14A9 JUMP JUMPDEST PUSH2 0xA38 SWAP2 SWAP1 PUSH2 0x14A9 JUMP JUMPDEST PUSH2 0x16F PUSH2 0xA45 SWAP2 SWAP1 PUSH2 0x159A JUMP JUMPDEST PUSH2 0xA4F SWAP2 SWAP1 PUSH2 0x14EC JUMP JUMPDEST PUSH1 0x4 PUSH1 0xC PUSH1 0xE DUP9 PUSH2 0xA60 SWAP2 SWAP1 PUSH2 0x14A9 JUMP JUMPDEST PUSH2 0xA6A SWAP2 SWAP1 PUSH2 0x14EC JUMP JUMPDEST PUSH2 0x12C0 DUP8 PUSH2 0xA78 SWAP2 SWAP1 PUSH2 0x1556 JUMP JUMPDEST PUSH2 0xA82 SWAP2 SWAP1 PUSH2 0x1556 JUMP JUMPDEST PUSH2 0x5B5 PUSH2 0xA8F SWAP2 SWAP1 PUSH2 0x159A JUMP JUMPDEST PUSH2 0xA99 SWAP2 SWAP1 PUSH2 0x14EC JUMP JUMPDEST PUSH2 0x7D4B DUP9 PUSH2 0xAA7 SWAP2 SWAP1 PUSH2 0x14A9 JUMP JUMPDEST PUSH2 0xAB1 SWAP2 SWAP1 PUSH2 0x1556 JUMP JUMPDEST PUSH2 0xABB SWAP2 SWAP1 PUSH2 0x1556 JUMP JUMPDEST PUSH2 0xAC5 SWAP2 SWAP1 PUSH2 0x14A9 JUMP JUMPDEST PUSH2 0xACF SWAP2 SWAP1 PUSH2 0x14A9 JUMP JUMPDEST SWAP1 POP DUP1 SWAP5 POP POP POP POP POP SWAP2 SWAP1 POP JUMP JUMPDEST PUSH2 0xAE5 PUSH2 0xDBE JUMP JUMPDEST PUSH20 0xFFFFFFFFFFFFFFFFFFFFFFFFFFFFFFFFFFFFFFFF AND PUSH2 0xB03 PUSH2 0x3F6 JUMP JUMPDEST PUSH20 0xFFFFFFFFFFFFFFFFFFFFFFFFFFFFFFFFFFFFFFFF AND EQ PUSH2 0xB59 JUMPI PUSH1 0x40 MLOAD PUSH32 0x8C379A000000000000000000000000000000000000000000000000000000000 DUP2 MSTORE PUSH1 0x4 ADD PUSH2 0xB50 SWAP1 PUSH2 0x165E JUMP JUMPDEST PUSH1 0x40 MLOAD DUP1 SWAP2 SUB SWAP1 REVERT JUMPDEST JUMP JUMPDEST PUSH1 0x0 DUP1 PUSH1 0x0 SWAP1 SLOAD SWAP1 PUSH2 0x100 EXP SWAP1 DIV PUSH20 0xFFFFFFFFFFFFFFFFFFFFFFFFFFFFFFFFFFFFFFFF AND SWAP1 POP DUP2 PUSH1 0x0 DUP1 PUSH2 0x100 EXP DUP2 SLOAD DUP2 PUSH20 0xFFFFFFFFFFFFFFFFFFFFFFFFFFFFFFFFFFFFFFFF MUL NOT AND SWAP1 DUP4 PUSH20 0xFFFFFFFFFFFFFFFFFFFFFFFFFFFFFFFFFFFFFFFF AND MUL OR SWAP1 SSTORE POP DUP2 PUSH20 0xFFFFFFFFFFFFFFFFFFFFFFFFFFFFFFFFFFFFFFFF AND DUP2 PUSH20 0xFFFFFFFFFFFFFFFFFFFFFFFFFFFFFFFFFFFFFFFF AND PUSH32 0x8BE0079C531659141344CD1FD0A4F28419497F9722A3DAAFE3B4186F6B6457E0 PUSH1 0x40 MLOAD PUSH1 0x40 MLOAD DUP1 SWAP2 SUB SWAP1 LOG3 POP POP JUMP JUMPDEST PUSH1 0x0 DUP1 PUSH1 0x0 DUP1 DUP5 SWAP1 POP PUSH1 0x0 PUSH3 0x253D8C PUSH3 0x10BD9 DUP4 PUSH2 0xC3D SWAP2 SWAP1 PUSH2 0x1556 JUMP JUMPDEST PUSH2 0xC47 SWAP2 SWAP1 PUSH2 0x1556 JUMP JUMPDEST SWAP1 POP PUSH1 0x0 PUSH3 0x23AB1 DUP3 PUSH1 0x4 PUSH2 0xC5C SWAP2 SWAP1 PUSH2 0x159A JUMP JUMPDEST PUSH2 0xC66 SWAP2 SWAP1 PUSH2 0x14EC JUMP JUMPDEST SWAP1 POP PUSH1 0x4 PUSH1 0x3 DUP3 PUSH3 0x23AB1 PUSH2 0xC7B SWAP2 SWAP1 PUSH2 0x159A JUMP JUMPDEST PUSH2 0xC85 SWAP2 SWAP1 PUSH2 0x1556 JUMP JUMPDEST PUSH2 0xC8F SWAP2 SWAP1 PUSH2 0x14EC JUMP JUMPDEST DUP3 PUSH2 0xC9A SWAP2 SWAP1 PUSH2 0x14A9 JUMP JUMPDEST SWAP2 POP PUSH1 0x0 PUSH3 0x164B09 PUSH1 0x1 DUP5 PUSH2 0xCAF SWAP2 SWAP1 PUSH2 0x1556 JUMP JUMPDEST PUSH2 0xFA0 PUSH2 0xCBC SWAP2 SWAP1 PUSH2 0x159A JUMP JUMPDEST PUSH2 0xCC6 SWAP2 SWAP1 PUSH2 0x14EC JUMP JUMPDEST SWAP1 POP PUSH1 0x1F PUSH1 0x4 DUP3 PUSH2 0x5B5 PUSH2 0xCDA SWAP2 SWAP1 PUSH2 0x159A JUMP JUMPDEST PUSH2 0xCE4 SWAP2 SWAP1 PUSH2 0x14EC JUMP JUMPDEST DUP5 PUSH2 0xCEF SWAP2 SWAP1 PUSH2 0x14A9 JUMP JUMPDEST PUSH2 0xCF9 SWAP2 SWAP1 PUSH2 0x1556 JUMP JUMPDEST SWAP3 POP PUSH1 0x0 PUSH2 0x98F DUP5 PUSH1 0x50 PUSH2 0xD0D SWAP2 SWAP1 PUSH2 0x159A JUMP JUMPDEST PUSH2 0xD17 SWAP2 SWAP1 PUSH2 0x14EC JUMP JUMPDEST SWAP1 POP PUSH1 0x0 PUSH1 0x50 DUP3 PUSH2 0x98F PUSH2 0xD2B SWAP2 SWAP1 PUSH2 0x159A JUMP JUMPDEST PUSH2 0xD35 SWAP2 SWAP1 PUSH2 0x14EC JUMP JUMPDEST DUP6 PUSH2 0xD40 SWAP2 SWAP1 PUSH2 0x14A9 JUMP JUMPDEST SWAP1 POP PUSH1 0xB DUP3 PUSH2 0xD4F SWAP2 SWAP1 PUSH2 0x14EC JUMP JUMPDEST SWAP5 POP DUP5 PUSH1 0xC PUSH2 0xD5E SWAP2 SWAP1 PUSH2 0x159A JUMP JUMPDEST PUSH1 0x2 DUP4 PUSH2 0xD6B SWAP2 SWAP1 PUSH2 0x1556 JUMP JUMPDEST PUSH2 0xD75 SWAP2 SWAP1 PUSH2 0x14A9 JUMP JUMPDEST SWAP2 POP DUP5 DUP4 PUSH1 0x31 DUP7 PUSH2 0xD86 SWAP2 SWAP1 PUSH2 0x14A9 JUMP JUMPDEST PUSH1 0x64 PUSH2 0xD92 SWAP2 SWAP1 PUSH2 0x159A JUMP JUMPDEST PUSH2 0xD9C SWAP2 SWAP1 PUSH2 0x1556 JUMP JUMPDEST PUSH2 0xDA6 SWAP2 SWAP1 PUSH2 0x1556 JUMP JUMPDEST SWAP3 POP DUP3 SWAP9 POP DUP2 SWAP8 POP DUP1 SWAP7 POP POP POP POP POP POP POP SWAP2 SWAP4 SWAP1 SWAP3 POP JUMP JUMPDEST PUSH1 0x0 CALLER SWAP1 POP SWAP1 JUMP JUMPDEST PUSH1 0x0 PUSH1 0x40 MLOAD SWAP1 POP SWAP1 JUMP JUMPDEST PUSH1 0x0 DUP1 REVERT JUMPDEST PUSH1 0x0 DUP1 REVERT JUMPDEST PUSH1 0x0 DUP2 SWAP1 POP SWAP2 SWAP1 POP JUMP JUMPDEST PUSH2 0xDED DUP2 PUSH2 0xDDA JUMP JUMPDEST DUP2 EQ PUSH2 0xDF8 JUMPI PUSH1 0x0 DUP1 REVERT JUMPDEST POP JUMP JUMPDEST PUSH1 0x0 DUP2 CALLDATALOAD SWAP1 POP PUSH2 0xE0A DUP2 PUSH2 0xDE4 JUMP JUMPDEST SWAP3 SWAP2 POP POP JUMP JUMPDEST PUSH1 0x0 PUSH1 0x20 DUP3 DUP5 SUB SLT ISZERO PUSH2 0xE26 JUMPI PUSH2 0xE25 PUSH2 0xDD0 JUMP JUMPDEST JUMPDEST PUSH1 0x0 PUSH2 0xE34 DUP5 DUP3 DUP6 ADD PUSH2 0xDFB JUMP JUMPDEST SWAP2 POP POP SWAP3 SWAP2 POP POP JUMP JUMPDEST PUSH2 0xE46 DUP2 PUSH2 0xDDA JUMP JUMPDEST DUP3 MSTORE POP POP JUMP JUMPDEST PUSH1 0x0 PUSH1 0x20 DUP3 ADD SWAP1 POP PUSH2 0xE61 PUSH1 0x0 DUP4 ADD DUP5 PUSH2 0xE3D JUMP JUMPDEST SWAP3 SWAP2 POP POP JUMP JUMPDEST PUSH1 0x0 PUSH20 0xFFFFFFFFFFFFFFFFFFFFFFFFFFFFFFFFFFFFFFFF DUP3 AND SWAP1 POP SWAP2 SWAP1 POP JUMP JUMPDEST PUSH1 0x0 PUSH2 0xE92 DUP3 PUSH2 0xE67 JUMP JUMPDEST SWAP1 POP SWAP2 SWAP1 POP JUMP JUMPDEST PUSH2 0xEA2 DUP2 PUSH2 0xE87 JUMP JUMPDEST DUP2 EQ PUSH2 0xEAD JUMPI PUSH1 0x0 DUP1 REVERT JUMPDEST POP JUMP JUMPDEST PUSH1 0x0 DUP2 CALLDATALOAD SWAP1 POP PUSH2 0xEBF DUP2 PUSH2 0xE99 JUMP JUMPDEST SWAP3 SWAP2 POP POP JUMP JUMPDEST PUSH1 0x0 PUSH6 0xFFFFFFFFFFFF DUP3 AND SWAP1 POP SWAP2 SWAP1 POP JUMP JUMPDEST PUSH2 0xEE0 DUP2 PUSH2 0xEC5 JUMP JUMPDEST DUP2 EQ PUSH2 0xEEB JUMPI PUSH1 0x0 DUP1 REVERT JUMPDEST POP JUMP JUMPDEST PUSH1 0x0 DUP2 CALLDATALOAD SWAP1 POP PUSH2 0xEFD DUP2 PUSH2 0xED7 JUMP JUMPDEST SWAP3 SWAP2 POP POP JUMP JUMPDEST PUSH1 0x0 DUP1 PUSH1 0x40 DUP4 DUP6 SUB SLT ISZERO PUSH2 0xF1A JUMPI PUSH2 0xF19 PUSH2 0xDD0 JUMP JUMPDEST JUMPDEST PUSH1 0x0 PUSH2 0xF28 DUP6 DUP3 DUP7 ADD PUSH2 0xEB0 JUMP JUMPDEST SWAP3 POP POP PUSH1 0x20 PUSH2 0xF39 DUP6 DUP3 DUP7 ADD PUSH2 0xEEE JUMP JUMPDEST SWAP2 POP POP SWAP3 POP SWAP3 SWAP1 POP JUMP JUMPDEST PUSH2 0xF4C DUP2 PUSH2 0xE87 JUMP JUMPDEST DUP3 MSTORE POP POP JUMP JUMPDEST PUSH1 0x0 PUSH1 0x20 DUP3 ADD SWAP1 POP PUSH2 0xF67 PUSH1 0x0 DUP4 ADD DUP5 PUSH2 0xF43 JUMP JUMPDEST SWAP3 SWAP2 POP POP JUMP JUMPDEST PUSH1 0x0 DUP1 REVERT JUMPDEST PUSH1 0x0 PUSH1 0x1F NOT PUSH1 0x1F DUP4 ADD AND SWAP1 POP SWAP2 SWAP1 POP JUMP JUMPDEST PUSH32 0x4E487B7100000000000000000000000000000000000000000000000000000000 PUSH1 0x0 MSTORE PUSH1 0x41 PUSH1 0x4 MSTORE PUSH1 0x24 PUSH1 0x0 REVERT JUMPDEST PUSH2 0xFBB DUP3 PUSH2 0xF72 JUMP JUMPDEST DUP2 ADD DUP2 DUP2 LT PUSH8 0xFFFFFFFFFFFFFFFF DUP3 GT OR ISZERO PUSH2 0xFDA JUMPI PUSH2 0xFD9 PUSH2 0xF83 JUMP JUMPDEST JUMPDEST DUP1 PUSH1 0x40 MSTORE POP POP POP JUMP JUMPDEST PUSH1 0x0 PUSH2 0xFED PUSH2 0xDC6 JUMP JUMPDEST SWAP1 POP PUSH2 0xFF9 DUP3 DUP3 PUSH2 0xFB2 JUMP JUMPDEST SWAP2 SWAP1 POP JUMP JUMPDEST PUSH1 0x0 PUSH8 0xFFFFFFFFFFFFFFFF DUP3 GT ISZERO PUSH2 0x1019 JUMPI PUSH2 0x1018 PUSH2 0xF83 JUMP JUMPDEST JUMPDEST PUSH1 0x20 DUP3 MUL SWAP1 POP PUSH1 0x20 DUP2 ADD SWAP1 POP SWAP2 SWAP1 POP JUMP JUMPDEST PUSH1 0x0 DUP1 REVERT JUMPDEST PUSH1 0x0 PUSH2 0x1042 PUSH2 0x103D DUP5 PUSH2 0xFFE JUMP JUMPDEST PUSH2 0xFE3 JUMP JUMPDEST SWAP1 POP DUP1 DUP4 DUP3 MSTORE PUSH1 0x20 DUP3 ADD SWAP1 POP PUSH1 0x20 DUP5 MUL DUP4 ADD DUP6 DUP2 GT ISZERO PUSH2 0x1065 JUMPI PUSH2 0x1064 PUSH2 0x102A JUMP JUMPDEST JUMPDEST DUP4 JUMPDEST DUP2 DUP2 LT ISZERO PUSH2 0x108E JUMPI DUP1 PUSH2 0x107A DUP9 DUP3 PUSH2 0xEB0 JUMP JUMPDEST DUP5 MSTORE PUSH1 0x20 DUP5 ADD SWAP4 POP POP PUSH1 0x20 DUP2 ADD SWAP1 POP PUSH2 0x1067 JUMP JUMPDEST POP POP POP SWAP4 SWAP3 POP POP POP JUMP JUMPDEST PUSH1 0x0 DUP3 PUSH1 0x1F DUP4 ADD SLT PUSH2 0x10AD JUMPI PUSH2 0x10AC PUSH2 0xF6D JUMP JUMPDEST JUMPDEST DUP2 CALLDATALOAD PUSH2 0x10BD DUP5 DUP3 PUSH1 0x20 DUP7 ADD PUSH2 0x102F JUMP JUMPDEST SWAP2 POP POP SWAP3 SWAP2 POP POP JUMP JUMPDEST PUSH1 0x0 DUP1 PUSH1 0x40 DUP4 DUP6 SUB SLT ISZERO PUSH2 0x10DD JUMPI PUSH2 0x10DC PUSH2 0xDD0 JUMP JUMPDEST JUMPDEST PUSH1 0x0 DUP4 ADD CALLDATALOAD PUSH8 0xFFFFFFFFFFFFFFFF DUP2 GT ISZERO PUSH2 0x10FB JUMPI PUSH2 0x10FA PUSH2 0xDD5 JUMP JUMPDEST JUMPDEST PUSH2 0x1107 DUP6 DUP3 DUP7 ADD PUSH2 0x1098 JUMP JUMPDEST SWAP3 POP POP PUSH1 0x20 PUSH2 0x1118 DUP6 DUP3 DUP7 ADD PUSH2 0xEEE JUMP JUMPDEST SWAP2 POP POP SWAP3 POP SWAP3 SWAP1 POP JUMP JUMPDEST PUSH1 0x0 PUSH1 0x20 DUP3 DUP5 SUB SLT ISZERO PUSH2 0x1138 JUMPI PUSH2 0x1137 PUSH2 0xDD0 JUMP JUMPDEST JUMPDEST PUSH1 0x0 PUSH2 0x1146 DUP5 DUP3 DUP6 ADD PUSH2 0xEB0 JUMP JUMPDEST SWAP2 POP POP SWAP3 SWAP2 POP POP JUMP JUMPDEST PUSH2 0x1158 DUP2 PUSH2 0xEC5 JUMP JUMPDEST DUP3 MSTORE POP POP JUMP JUMPDEST PUSH1 0x0 PUSH1 0x20 DUP3 ADD SWAP1 POP PUSH2 0x1173 PUSH1 0x0 DUP4 ADD DUP5 PUSH2 0x114F JUMP JUMPDEST SWAP3 SWAP2 POP POP JUMP JUMPDEST PUSH1 0x0 DUP2 ISZERO ISZERO SWAP1 POP SWAP2 SWAP1 POP JUMP JUMPDEST PUSH2 0x118E DUP2 PUSH2 0x1179 JUMP JUMPDEST DUP3 MSTORE POP POP JUMP JUMPDEST PUSH1 0x0 PUSH1 0x20 DUP3 ADD SWAP1 POP PUSH2 0x11A9 PUSH1 0x0 DUP4 ADD DUP5 PUSH2 0x1185 JUMP JUMPDEST SWAP3 SWAP2 POP POP JUMP JUMPDEST PUSH32 0x4E487B7100000000000000000000000000000000000000000000000000000000 PUSH1 0x0 MSTORE PUSH1 0x11 PUSH1 0x4 MSTORE PUSH1 0x24 PUSH1 0x0 REVERT JUMPDEST PUSH1 0x0 PUSH2 0x11E9 DUP3 PUSH2 0xDDA JUMP JUMPDEST SWAP2 POP PUSH2 0x11F4 DUP4 PUSH2 0xDDA JUMP JUMPDEST SWAP3 POP DUP3 DUP3 SUB SWAP1 POP DUP2 DUP2 GT ISZERO PUSH2 0x120C JUMPI PUSH2 0x120B PUSH2 0x11AF JUMP JUMPDEST JUMPDEST SWAP3 SWAP2 POP POP JUMP JUMPDEST PUSH1 0x0 PUSH2 0x121D DUP3 PUSH2 0xDDA JUMP JUMPDEST SWAP2 POP PUSH2 0x1228 DUP4 PUSH2 0xDDA JUMP JUMPDEST SWAP3 POP DUP3 DUP3 MUL PUSH2 0x1236 DUP2 PUSH2 0xDDA JUMP JUMPDEST SWAP2 POP DUP3 DUP3 DIV DUP5 EQ DUP4 ISZERO OR PUSH2 0x124D JUMPI PUSH2 0x124C PUSH2 0x11AF JUMP JUMPDEST JUMPDEST POP SWAP3 SWAP2 POP POP JUMP JUMPDEST PUSH1 0x0 DUP3 DUP3 MSTORE PUSH1 0x20 DUP3 ADD SWAP1 POP SWAP3 SWAP2 POP POP JUMP JUMPDEST PUSH32 0x557365722069736E27742061206C6973742061646D696E6973747261746F722E PUSH1 0x0 DUP3 ADD MSTORE POP JUMP JUMPDEST PUSH1 0x0 PUSH2 0x129B PUSH1 0x20 DUP4 PUSH2 0x1254 JUMP JUMPDEST SWAP2 POP PUSH2 0x12A6 DUP3 PUSH2 0x1265 JUMP JUMPDEST PUSH1 0x20 DUP3 ADD SWAP1 POP SWAP2 SWAP1 POP JUMP JUMPDEST PUSH1 0x0 PUSH1 0x20 DUP3 ADD SWAP1 POP DUP2 DUP2 SUB PUSH1 0x0 DUP4 ADD MSTORE PUSH2 0x12CA DUP2 PUSH2 0x128E JUMP JUMPDEST SWAP1 POP SWAP2 SWAP1 POP JUMP JUMPDEST PUSH32 0x4E487B7100000000000000000000000000000000000000000000000000000000 PUSH1 0x0 MSTORE PUSH1 0x12 PUSH1 0x4 MSTORE PUSH1 0x24 PUSH1 0x0 REVERT JUMPDEST PUSH1 0x0 PUSH2 0x130B DUP3 PUSH2 0xDDA JUMP JUMPDEST SWAP2 POP PUSH2 0x1316 DUP4 PUSH2 0xDDA JUMP JUMPDEST SWAP3 POP DUP3 PUSH2 0x1326 JUMPI PUSH2 0x1325 PUSH2 0x12D1 JUMP JUMPDEST JUMPDEST DUP3 DUP3 DIV SWAP1 POP SWAP3 SWAP2 POP POP JUMP JUMPDEST PUSH1 0x0 PUSH2 0x133C DUP3 PUSH2 0xDDA JUMP JUMPDEST SWAP2 POP PUSH2 0x1347 DUP4 PUSH2 0xDDA JUMP JUMPDEST SWAP3 POP DUP3 DUP3 ADD SWAP1 POP DUP1 DUP3 GT ISZERO PUSH2 0x135F JUMPI PUSH2 0x135E PUSH2 0x11AF JUMP JUMPDEST JUMPDEST SWAP3 SWAP2 POP POP JUMP JUMPDEST PUSH32 0x4E487B7100000000000000000000000000000000000000000000000000000000 PUSH1 0x0 MSTORE PUSH1 0x32 PUSH1 0x4 MSTORE PUSH1 0x24 PUSH1 0x0 REVERT JUMPDEST PUSH1 0x0 PUSH2 0x139F DUP3 PUSH2 0xDDA JUMP JUMPDEST SWAP2 POP PUSH32 0xFFFFFFFFFFFFFFFFFFFFFFFFFFFFFFFFFFFFFFFFFFFFFFFFFFFFFFFFFFFFFFFF DUP3 SUB PUSH2 0x13D1 JUMPI PUSH2 0x13D0 PUSH2 0x11AF JUMP JUMPDEST JUMPDEST PUSH1 0x1 DUP3 ADD SWAP1 POP SWAP2 SWAP1 POP JUMP JUMPDEST PUSH32 0x4F776E61626C653A206E6577206F776E657220697320746865207A65726F2061 PUSH1 0x0 DUP3 ADD MSTORE PUSH32 0x6464726573730000000000000000000000000000000000000000000000000000 PUSH1 0x20 DUP3 ADD MSTORE POP JUMP JUMPDEST PUSH1 0x0 PUSH2 0x1438 PUSH1 0x26 DUP4 PUSH2 0x1254 JUMP JUMPDEST SWAP2 POP PUSH2 0x1443 DUP3 PUSH2 0x13DC JUMP JUMPDEST PUSH1 0x40 DUP3 ADD SWAP1 POP SWAP2 SWAP1 POP JUMP JUMPDEST PUSH1 0x0 PUSH1 0x20 DUP3 ADD SWAP1 POP DUP2 DUP2 SUB PUSH1 0x0 DUP4 ADD MSTORE PUSH2 0x1467 DUP2 PUSH2 0x142B JUMP JUMPDEST SWAP1 POP SWAP2 SWAP1 POP JUMP JUMPDEST PUSH1 0x0 PUSH2 0x1479 DUP3 PUSH2 0xDDA JUMP JUMPDEST SWAP2 POP PUSH2 0x1484 DUP4 PUSH2 0xDDA JUMP JUMPDEST SWAP3 POP DUP3 PUSH2 0x1494 JUMPI PUSH2 0x1493 PUSH2 0x12D1 JUMP JUMPDEST JUMPDEST DUP3 DUP3 MOD SWAP1 POP SWAP3 SWAP2 POP POP JUMP JUMPDEST PUSH1 0x0 DUP2 SWAP1 POP SWAP2 SWAP1 POP JUMP JUMPDEST PUSH1 0x0 PUSH2 0x14B4 DUP3 PUSH2 0x149F JUMP JUMPDEST SWAP2 POP PUSH2 0x14BF DUP4 PUSH2 0x149F JUMP JUMPDEST SWAP3 POP DUP3 DUP3 SUB SWAP1 POP DUP2 DUP2 SLT PUSH1 0x0 DUP5 SLT AND DUP3 DUP3 SGT PUSH1 0x0 DUP6 SLT ISZERO AND OR ISZERO PUSH2 0x14E6 JUMPI PUSH2 0x14E5 PUSH2 0x11AF JUMP JUMPDEST JUMPDEST SWAP3 SWAP2 POP POP JUMP JUMPDEST PUSH1 0x0 PUSH2 0x14F7 DUP3 PUSH2 0x149F JUMP JUMPDEST SWAP2 POP PUSH2 0x1502 DUP4 PUSH2 0x149F JUMP JUMPDEST SWAP3 POP DUP3 PUSH2 0x1512 JUMPI PUSH2 0x1511 PUSH2 0x12D1 JUMP JUMPDEST JUMPDEST PUSH1 0x1 PUSH1 0x0 SUB DUP4 EQ PUSH32 0x8000000000000000000000000000000000000000000000000000000000000000 DUP4 EQ AND ISZERO PUSH2 0x154B JUMPI PUSH2 0x154A PUSH2 0x11AF JUMP JUMPDEST JUMPDEST DUP3 DUP3 SDIV SWAP1 POP SWAP3 SWAP2 POP POP JUMP JUMPDEST PUSH1 0x0 PUSH2 0x1561 DUP3 PUSH2 0x149F JUMP JUMPDEST SWAP2 POP PUSH2 0x156C DUP4 PUSH2 0x149F JUMP JUMPDEST SWAP3 POP DUP3 DUP3 ADD SWAP1 POP DUP3 DUP2 SLT ISZERO PUSH1 0x0 DUP4 SLT AND DUP4 DUP3 SLT PUSH1 0x0 DUP5 SLT ISZERO AND OR ISZERO PUSH2 0x1594 JUMPI PUSH2 0x1593 PUSH2 0x11AF JUMP JUMPDEST JUMPDEST SWAP3 SWAP2 POP POP JUMP JUMPDEST PUSH1 0x0 PUSH2 0x15A5 DUP3 PUSH2 0x149F JUMP JUMPDEST SWAP2 POP PUSH2 0x15B0 DUP4 PUSH2 0x149F JUMP JUMPDEST SWAP3 POP DUP3 DUP3 MUL PUSH2 0x15BE DUP2 PUSH2 0x149F JUMP JUMPDEST SWAP2 POP PUSH32 0x8000000000000000000000000000000000000000000000000000000000000000 DUP5 EQ PUSH1 0x0 DUP5 SLT AND ISZERO PUSH2 0x15F6 JUMPI PUSH2 0x15F5 PUSH2 0x11AF JUMP JUMPDEST JUMPDEST DUP3 DUP3 SDIV DUP5 EQ DUP4 ISZERO OR PUSH2 0x160B JUMPI PUSH2 0x160A PUSH2 0x11AF JUMP JUMPDEST JUMPDEST POP SWAP3 SWAP2 POP POP JUMP JUMPDEST PUSH32 0x4F776E61626C653A2063616C6C6572206973206E6F7420746865206F776E6572 PUSH1 0x0 DUP3 ADD MSTORE POP JUMP JUMPDEST PUSH1 0x0 PUSH2 0x1648 PUSH1 0x20 DUP4 PUSH2 0x1254 JUMP JUMPDEST SWAP2 POP PUSH2 0x1653 DUP3 PUSH2 0x1612 JUMP JUMPDEST PUSH1 0x20 DUP3 ADD SWAP1 POP SWAP2 SWAP1 POP JUMP JUMPDEST PUSH1 0x0 PUSH1 0x20 DUP3 ADD SWAP1 POP DUP2 DUP2 SUB PUSH1 0x0 DUP4 ADD MSTORE PUSH2 0x1677 DUP2 PUSH2 0x163B JUMP JUMPDEST SWAP1 POP SWAP2 SWAP1 POP JUMP INVALID LOG2 PUSH5 0x6970667358 0x22 SLT KECCAK256 0xB8 0xAE 0xD5 EXP 0xDB SWAP3 ADD CODECOPY KECCAK256 BASEFEE 0x5D DELEGATECALL JUMP PUSH11 0x171282335827C07260C467 PUSH32 0xDC861694D3BA64736F6C63430008120033000000000000000000000000000000 "
		},
		"gasEstimates": {
			"creation": {
				"codeDepositCost": "1162400",
				"executionCost": "infinite",
				"totalCost": "infinite"
			},
			"external": {
				"getCurrentDate()": "infinite",
				"getDaysFromNow(uint256)": "infinite",
				"getNow()": "4597",
				"getRights(address)": "2927",
				"hasRights(address,uint48)": "3174",
				"owner()": "2567",
				"renounceOwnership()": "30421",
				"setCurrentDate(uint256)": "infinite",
				"setMemberRights(address,uint48)": "29582",
				"setMembersRights(address[],uint48)": "infinite",
				"setNow(uint256)": "22542",
				"transferOwnership(address)": "30810",
				"updateMemberRights(address,uint48)": "29583",
				"updateMembersRights(address[],uint48)": "infinite"
			}
		},
		"methodIdentifiers": {
			"getCurrentDate()": "9254d772",
			"getDaysFromNow(uint256)": "32672302",
			"getNow()": "bbe4fd50",
			"getRights(address)": "e79f0e96",
			"hasRights(address,uint48)": "f35f0f74",
			"owner()": "8da5cb5b",
			"renounceOwnership()": "715018a6",
			"setCurrentDate(uint256)": "4bbb4a27",
			"setMemberRights(address,uint48)": "dee2bdd4",
			"setMembersRights(address[],uint48)": "9c365024",
			"setNow(uint256)": "e380ae96",
			"transferOwnership(address)": "f2fde38b",
			"updateMemberRights(address,uint48)": "5a9452f7",
			"updateMembersRights(address[],uint48)": "c76cb0f2"
		}
	},
	"abi": [
		{
			"inputs": [],
			"stateMutability": "nonpayable",
			"type": "constructor"
		},
		{
			"anonymous": false,
			"inputs": [
				{
					"indexed": true,
					"internalType": "address",
					"name": "previousOwner",
					"type": "address"
				},
				{
					"indexed": true,
					"internalType": "address",
					"name": "newOwner",
					"type": "address"
				}
			],
			"name": "OwnershipTransferred",
			"type": "event"
		},
		{
			"inputs": [],
			"name": "getCurrentDate",
			"outputs": [
				{
					"internalType": "uint256",
					"name": "date",
					"type": "uint256"
				}
			],
			"stateMutability": "view",
			"type": "function"
		},
		{
			"inputs": [
				{
					"internalType": "uint256",
					"name": "date",
					"type": "uint256"
				}
			],
			"name": "getDaysFromNow",
			"outputs": [
				{
					"internalType": "uint256",
					"name": "",
					"type": "uint256"
				}
			],
			"stateMutability": "view",
			"type": "function"
		},
		{
			"inputs": [],
			"name": "getNow",
			"outputs": [
				{
					"internalType": "uint256",
					"name": "",
					"type": "uint256"
				}
			],
			"stateMutability": "view",
			"type": "function"
		},
		{
			"inputs": [
				{
					"internalType": "address",
					"name": "usr",
					"type": "address"
				}
			],
			"name": "getRights",
			"outputs": [
				{
					"internalType": "uint48",
					"name": "",
					"type": "uint48"
				}
			],
			"stateMutability": "view",
			"type": "function"
		},
		{
			"inputs": [
				{
					"internalType": "address",
					"name": "usr",
					"type": "address"
				},
				{
					"internalType": "uint48",
					"name": "role",
					"type": "uint48"
				}
			],
			"name": "hasRights",
			"outputs": [
				{
					"internalType": "bool",
					"name": "",
					"type": "bool"
				}
			],
			"stateMutability": "view",
			"type": "function"
		},
		{
			"inputs": [],
			"name": "owner",
			"outputs": [
				{
					"internalType": "address",
					"name": "",
					"type": "address"
				}
			],
			"stateMutability": "view",
			"type": "function"
		},
		{
			"inputs": [],
			"name": "renounceOwnership",
			"outputs": [],
			"stateMutability": "nonpayable",
			"type": "function"
		},
		{
			"inputs": [
				{
					"internalType": "uint256",
					"name": "date",
					"type": "uint256"
				}
			],
			"name": "setCurrentDate",
			"outputs": [],
			"stateMutability": "nonpayable",
			"type": "function"
		},
		{
			"inputs": [
				{
					"internalType": "address",
					"name": "usr",
					"type": "address"
				},
				{
					"internalType": "uint48",
					"name": "role",
					"type": "uint48"
				}
			],
			"name": "setMemberRights",
			"outputs": [],
			"stateMutability": "nonpayable",
			"type": "function"
		},
		{
			"inputs": [
				{
					"internalType": "address[]",
					"name": "usr",
					"type": "address[]"
				},
				{
					"internalType": "uint48",
					"name": "role",
					"type": "uint48"
				}
			],
			"name": "setMembersRights",
			"outputs": [],
			"stateMutability": "nonpayable",
			"type": "function"
		},
		{
			"inputs": [
				{
					"internalType": "uint256",
					"name": "timestamp",
					"type": "uint256"
				}
			],
			"name": "setNow",
			"outputs": [],
			"stateMutability": "nonpayable",
			"type": "function"
		},
		{
			"inputs": [
				{
					"internalType": "address",
					"name": "newOwner",
					"type": "address"
				}
			],
			"name": "transferOwnership",
			"outputs": [],
			"stateMutability": "nonpayable",
			"type": "function"
		},
		{
			"inputs": [
				{
					"internalType": "address",
					"name": "usr",
					"type": "address"
				},
				{
					"internalType": "uint48",
					"name": "role",
					"type": "uint48"
				}
			],
			"name": "updateMemberRights",
			"outputs": [],
			"stateMutability": "nonpayable",
			"type": "function"
		},
		{
			"inputs": [
				{
					"internalType": "address[]",
					"name": "usr",
					"type": "address[]"
				},
				{
					"internalType": "uint48",
					"name": "role",
					"type": "uint48"
				}
			],
			"name": "updateMembersRights",
			"outputs": [],
			"stateMutability": "nonpayable",
			"type": "function"
		}
	]
}