{
	"data": {
		"bytecode": {
			"linkReferences": {},
			"object": "60806040523480156200001157600080fd5b5060405162003734380380620037348339818101604052810190620000379190620002cf565b60008060006101000a81548160ff02191690831515021790555062000071620000656200019860201b60201c565b620001a060201b60201c565b81600160006101000a81548173ffffffffffffffffffffffffffffffffffffffff021916908373ffffffffffffffffffffffffffffffffffffffff16021790555080600260006101000a81548173ffffffffffffffffffffffffffffffffffffffff021916908373ffffffffffffffffffffffffffffffffffffffff160217905550620f42406007819055506127106008819055506064600a81905550600160098190555060026003819055506040518060600160405280602581526020016200370f602591396004908162000148919062000590565b506040518060400160405280600581526020017f65424f4e44000000000000000000000000000000000000000000000000000000815250600590816200018f919062000590565b50505062000677565b600033905090565b60008060019054906101000a900473ffffffffffffffffffffffffffffffffffffffff16905081600060016101000a81548173ffffffffffffffffffffffffffffffffffffffff021916908373ffffffffffffffffffffffffffffffffffffffff1602179055508173ffffffffffffffffffffffffffffffffffffffff168173ffffffffffffffffffffffffffffffffffffffff167f8be0079c531659141344cd1fd0a4f28419497f9722a3daafe3b4186f6b6457e060405160405180910390a35050565b600080fd5b600073ffffffffffffffffffffffffffffffffffffffff82169050919050565b600062000297826200026a565b9050919050565b620002a9816200028a565b8114620002b557600080fd5b50565b600081519050620002c9816200029e565b92915050565b60008060408385031215620002e957620002e862000265565b5b6000620002f985828601620002b8565b92505060206200030c85828601620002b8565b9150509250929050565b600081519050919050565b7f4e487b7100000000000000000000000000000000000000000000000000000000600052604160045260246000fd5b7f4e487b7100000000000000000000000000000000000000000000000000000000600052602260045260246000fd5b600060028204905060018216806200039857607f821691505b602082108103620003ae57620003ad62000350565b5b50919050565b60008190508160005260206000209050919050565b60006020601f8301049050919050565b600082821b905092915050565b600060088302620004187fffffffffffffffffffffffffffffffffffffffffffffffffffffffffffffffff82620003d9565b620004248683620003d9565b95508019841693508086168417925050509392505050565b6000819050919050565b6000819050919050565b6000620004716200046b62000465846200043c565b62000446565b6200043c565b9050919050565b6000819050919050565b6200048d8362000450565b620004a56200049c8262000478565b848454620003e6565b825550505050565b600090565b620004bc620004ad565b620004c981848462000482565b505050565b5b81811015620004f157620004e5600082620004b2565b600181019050620004cf565b5050565b601f82111562000540576200050a81620003b4565b6200051584620003c9565b8101602085101562000525578190505b6200053d6200053485620003c9565b830182620004ce565b50505b505050565b600082821c905092915050565b6000620005656000198460080262000545565b1980831691505092915050565b600062000580838362000552565b9150826002028217905092915050565b6200059b8262000316565b67ffffffffffffffff811115620005b757620005b662000321565b5b620005c382546200037f565b620005d0828285620004f5565b600060209050601f831160018114620006085760008415620005f3578287015190505b620005ff858262000572565b8655506200066f565b601f1984166200061886620003b4565b60005b8281101562000642578489015182556001820191506020850194506020810190506200061b565b868310156200066257848901516200065e601f89168262000552565b8355505b6001600288020188555050505b505050505050565b61308880620006876000396000f3fe608060405234801561001057600080fd5b50600436106101005760003560e01c806370a082311161009757806395d89b411161006657806395d89b411461023f578063cc872b661461025d578063e21e95bd14610279578063f2fde38b1461029557610100565b806370a08231146101dd578063715018a61461020d5780638456cb59146102175780638da5cb5b1461022157610100565b8063313ce567116100d3578063313ce5671461018d5780633f4ba83a146101ab57806355c01345146101b55780635c975abb146101bf57610100565b806301247f611461010557806306fdde031461013557806318160ddd146101535780631993d54b14610171575b600080fd5b61011f600480360381019061011a9190612011565b6102b1565b60405161012c9190612135565b60405180910390f35b61013d6103d2565b60405161014a91906121e7565b60405180910390f35b61015b610464565b6040516101689190612218565b60405180910390f35b61018b60048036038101906101869190612011565b61046e565b005b6101956104ba565b6040516101a2919061224f565b60405180910390f35b6101b36104bf565b005b6101bd6104d1565b005b6101c76108b8565b6040516101d49190612285565b60405180910390f35b6101f760048036038101906101f29190612011565b6108ce565b6040516102049190612218565b60405180910390f35b610215610a19565b005b61021f610a2d565b005b610229610a3f565b60405161023691906122af565b60405180910390f35b610247610a68565b60405161025491906121e7565b60405180910390f35b610277600480360381019061027291906122f6565b610afa565b005b610293600480360381019061028e9190612323565b61126c565b005b6102af60048036038101906102aa9190612011565b6118f8565b005b6060600073ffffffffffffffffffffffffffffffffffffffff168273ffffffffffffffffffffffffffffffffffffffff1603610322576040517f08c379a0000000000000000000000000000000000000000000000000000000008152600401610319906123d5565b60405180910390fd5b600c60008373ffffffffffffffffffffffffffffffffffffffff1673ffffffffffffffffffffffffffffffffffffffff168152602001908152602001600020805480602002602001604051908101604052809291908181526020016000905b828210156103c757838290600052602060002090600202016040518060400160405290816000820154815260200160018201548152505081526020019060010190610381565b505050509050919050565b6060600480546103e190612424565b80601f016020809104026020016040519081016040528092919081815260200182805461040d90612424565b801561045a5780601f1061042f5761010080835404028352916020019161045a565b820191906000526020600020905b81548152906001019060200180831161043d57829003601f168201915b5050505050905090565b6000600654905090565b61047661197b565b80600160006101000a81548173ffffffffffffffffffffffffffffffffffffffff021916908373ffffffffffffffffffffffffffffffffffffffff16021790555050565b600090565b6104c761197b565b6104cf6119f9565b565b6104d961197b565b60008073ffffffffffffffffffffffffffffffffffffffff16600160009054906101000a900473ffffffffffffffffffffffffffffffffffffffff1673ffffffffffffffffffffffffffffffffffffffff16141590508080156105d75750600160009054906101000a900473ffffffffffffffffffffffffffffffffffffffff1673ffffffffffffffffffffffffffffffffffffffff1663f35f0f743360026040518363ffffffff1660e01b8152600401610595929190612476565b602060405180830381865afa1580156105b2573d6000803e3d6000fd5b505050506040513d601f19601f820116820180604052508101906105d691906124cb565b5b610616576040517f08c379a000000000000000000000000000000000000000000000000000000000815260040161060d90612544565b60405180910390fd5b600a54610621610464565b61062b9190612593565b600260009054906101000a900473ffffffffffffffffffffffffffffffffffffffff1673ffffffffffffffffffffffffffffffffffffffff166370a08231610671610a3f565b6040518263ffffffff1660e01b815260040161068d91906122af565b602060405180830381865afa1580156106aa573d6000803e3d6000fd5b505050506040513d601f19601f820116820180604052508101906106ce91906125ea565b10156106d957600080fd5b60005b600b805490508110156108b45760005b600c60003373ffffffffffffffffffffffffffffffffffffffff1673ffffffffffffffffffffffffffffffffffffffff168152602001908152602001600020805490508110156108a057600260009054906101000a900473ffffffffffffffffffffffffffffffffffffffff1673ffffffffffffffffffffffffffffffffffffffff166323b872dd61077c610a3f565b600b85815481106107905761078f612617565b5b9060005260206000200160009054906101000a900473ffffffffffffffffffffffffffffffffffffffff16600a54600c60003373ffffffffffffffffffffffffffffffffffffffff1673ffffffffffffffffffffffffffffffffffffffff168152602001908152602001600020868154811061080f5761080e612617565b5b90600052602060002090600202016001015461082b9190612593565b6040518463ffffffff1660e01b815260040161084993929190612646565b6020604051808303816000875af1158015610868573d6000803e3d6000fd5b505050506040513d601f19601f8201168201806040525081019061088c91906124cb565b5080806108989061267d565b9150506106ec565b5080806108ac9061267d565b9150506106dc565b5050565b60008060009054906101000a900460ff16905090565b60008073ffffffffffffffffffffffffffffffffffffffff168273ffffffffffffffffffffffffffffffffffffffff160361093e576040517f08c379a000000000000000000000000000000000000000000000000000000000815260040161093590612737565b60405180910390fd5b6000805b600c60003373ffffffffffffffffffffffffffffffffffffffff1673ffffffffffffffffffffffffffffffffffffffff16815260200190815260200160002080549050811015610a0f57600c60003373ffffffffffffffffffffffffffffffffffffffff1673ffffffffffffffffffffffffffffffffffffffff16815260200190815260200160002081815481106109dd576109dc612617565b5b906000526020600020906002020160010154826109fa9190612757565b91508080610a079061267d565b915050610942565b5080915050919050565b610a2161197b565b610a2b6000611a5b565b565b610a3561197b565b610a3d611b20565b565b60008060019054906101000a900473ffffffffffffffffffffffffffffffffffffffff16905090565b606060058054610a7790612424565b80601f0160208091040260200160405190810160405280929190818152602001828054610aa390612424565b8015610af05780601f10610ac557610100808354040283529160200191610af0565b820191906000526020600020905b815481529060010190602001808311610ad357829003601f168201915b5050505050905090565b8060008111610b3e576040517f08c379a0000000000000000000000000000000000000000000000000000000008152600401610b35906127fd565b60405180910390fd5b60008073ffffffffffffffffffffffffffffffffffffffff16600160009054906101000a900473ffffffffffffffffffffffffffffffffffffffff1673ffffffffffffffffffffffffffffffffffffffff1614159050808015610c3c5750600160009054906101000a900473ffffffffffffffffffffffffffffffffffffffff1673ffffffffffffffffffffffffffffffffffffffff1663f35f0f743360026040518363ffffffff1660e01b8152600401610bfa929190612476565b602060405180830381865afa158015610c17573d6000803e3d6000fd5b505050506040513d601f19601f82011682018060405250810190610c3b91906124cb565b5b610c7b576040517f08c379a0000000000000000000000000000000000000000000000000000000008152600401610c729061288f565b60405180910390fd5b60075483610c87610464565b610c919190612757565b1115610cd2576040517f08c379a0000000000000000000000000000000000000000000000000000000008152600401610cc990612921565b60405180910390fd5b60085483610ce09190612593565b600260009054906101000a900473ffffffffffffffffffffffffffffffffffffffff1673ffffffffffffffffffffffffffffffffffffffff166370a08231336040518263ffffffff1660e01b8152600401610d3b91906122af565b602060405180830381865afa158015610d58573d6000803e3d6000fd5b505050506040513d601f19601f82011682018060405250810190610d7c91906125ea565b1015610dbd576040517f08c379a0000000000000000000000000000000000000000000000000000000008152600401610db4906129b3565b60405180910390fd5b60085483610dcb9190612593565b600260009054906101000a900473ffffffffffffffffffffffffffffffffffffffff1673ffffffffffffffffffffffffffffffffffffffff1663dd62ed3e33306040518363ffffffff1660e01b8152600401610e289291906129d3565b602060405180830381865afa158015610e45573d6000803e3d6000fd5b505050506040513d601f19601f82011682018060405250810190610e6991906125ea565b1015610eaa576040517f08c379a0000000000000000000000000000000000000000000000000000000008152600401610ea190612a6e565b60405180910390fd5b6000610eb542611b82565b90506000600c60003373ffffffffffffffffffffffffffffffffffffffff1673ffffffffffffffffffffffffffffffffffffffff1681526020019081526020016000208054905090506000810361100157600b339080600181540180825580915050600190039060005260206000200160009091909190916101000a81548173ffffffffffffffffffffffffffffffffffffffff021916908373ffffffffffffffffffffffffffffffffffffffff160217905550600c60003373ffffffffffffffffffffffffffffffffffffffff1673ffffffffffffffffffffffffffffffffffffffff168152602001908152602001600020604051806040016040528084815260200187815250908060018154018082558091505060019003906000526020600020906002020160009091909190915060008201518160000155602082015181600101555050611195565b81600c60003373ffffffffffffffffffffffffffffffffffffffff1673ffffffffffffffffffffffffffffffffffffffff16815260200190815260200160002060018361104e9190612a8e565b8154811061105f5761105e612617565b5b906000526020600020906002020160000154036111005784600c60003373ffffffffffffffffffffffffffffffffffffffff1673ffffffffffffffffffffffffffffffffffffffff1681526020019081526020016000206001836110c39190612a8e565b815481106110d4576110d3612617565b5b906000526020600020906002020160010160008282546110f49190612757565b92505081905550611194565b600c60003373ffffffffffffffffffffffffffffffffffffffff1673ffffffffffffffffffffffffffffffffffffffff1681526020019081526020016000206040518060400160405280848152602001878152509080600181540180825580915050600190039060005260206000209060020201600090919091909150600082015181600001556020820151816001015550505b5b84600660008282546111a79190612757565b92505081905550600260009054906101000a900473ffffffffffffffffffffffffffffffffffffffff1673ffffffffffffffffffffffffffffffffffffffff166323b872dd336111f5610a3f565b600854896112039190612593565b6040518463ffffffff1660e01b815260040161122193929190612646565b6020604051808303816000875af1158015611240573d6000803e3d6000fd5b505050506040513d601f19601f8201168201806040525081019061126491906124cb565b505050505050565b80600081116112b0576040517f08c379a00000000000000000000000000000000000000000000000000000000081526004016112a7906127fd565b60405180910390fd5b60008073ffffffffffffffffffffffffffffffffffffffff16600160009054906101000a900473ffffffffffffffffffffffffffffffffffffffff1673ffffffffffffffffffffffffffffffffffffffff1614159050600061131142611b82565b9050600061131e86611be5565b61132783611be5565b6113319190612a8e565b90508280156113db5750600160009054906101000a900473ffffffffffffffffffffffffffffffffffffffff1673ffffffffffffffffffffffffffffffffffffffff1663f35f0f743360026040518363ffffffff1660e01b8152600401611399929190612476565b602060405180830381865afa1580156113b6573d6000803e3d6000fd5b505050506040513d601f19601f820116820180604052508101906113da91906124cb565b5b61141a576040517f08c379a000000000000000000000000000000000000000000000000000000000815260040161141190612544565b60405180910390fd5b84611423610464565b1015611464576040517f08c379a000000000000000000000000000000000000000000000000000000000815260040161145b90612b34565b60405180910390fd5b600854856114729190612593565b600260009054906101000a900473ffffffffffffffffffffffffffffffffffffffff1673ffffffffffffffffffffffffffffffffffffffff166370a082316114b8610a3f565b6040518263ffffffff1660e01b81526004016114d491906122af565b602060405180830381865afa1580156114f1573d6000803e3d6000fd5b505050506040513d601f19601f8201168201806040525081019061151591906125ea565b101561152057600080fd5b6008548561152e9190612593565b600260009054906101000a900473ffffffffffffffffffffffffffffffffffffffff1673ffffffffffffffffffffffffffffffffffffffff1663dd62ed3e611574610a3f565b306040518363ffffffff1660e01b81526004016115929291906129d3565b602060405180830381865afa1580156115af573d6000803e3d6000fd5b505050506040513d601f19601f820116820180604052508101906115d391906125ea565b1015611614576040517f08c379a000000000000000000000000000000000000000000000000000000000815260040161160b90612ba0565b60405180910390fd5b858211611656576040517f08c379a000000000000000000000000000000000000000000000000000000000815260040161164d90612c58565b60405180910390fd5b60005b600c60003373ffffffffffffffffffffffffffffffffffffffff1673ffffffffffffffffffffffffffffffffffffffff168152602001908152602001600020805490508110156118ef5786600c60003373ffffffffffffffffffffffffffffffffffffffff1673ffffffffffffffffffffffffffffffffffffffff16815260200190815260200160002082815481106116f5576116f4612617565b5b906000526020600020906002020160000154036118dc5785600c60003373ffffffffffffffffffffffffffffffffffffffff1673ffffffffffffffffffffffffffffffffffffffff168152602001908152602001600020828154811061175e5761175d612617565b5b906000526020600020906002020160010154106118db5785600c60003373ffffffffffffffffffffffffffffffffffffffff1673ffffffffffffffffffffffffffffffffffffffff16815260200190815260200160002082815481106117c7576117c6612617565b5b906000526020600020906002020160010160008282546117e79190612a8e565b9250508190555085600660008282546118009190612a8e565b92505081905550600260009054906101000a900473ffffffffffffffffffffffffffffffffffffffff1673ffffffffffffffffffffffffffffffffffffffff166323b872dd61184d610a3f565b338560095461185c9190612593565b6008546118699190612757565b8a6118749190612593565b6040518463ffffffff1660e01b815260040161189293929190612646565b6020604051808303816000875af11580156118b1573d6000803e3d6000fd5b505050506040513d601f19601f820116820180604052508101906118d591906124cb565b506118ef565b5b80806118e79061267d565b915050611659565b50505050505050565b61190061197b565b600073ffffffffffffffffffffffffffffffffffffffff168173ffffffffffffffffffffffffffffffffffffffff160361196f576040517f08c379a000000000000000000000000000000000000000000000000000000000815260040161196690612cea565b60405180910390fd5b61197881611a5b565b50565b611983611d74565b73ffffffffffffffffffffffffffffffffffffffff166119a1610a3f565b73ffffffffffffffffffffffffffffffffffffffff16146119f7576040517f08c379a00000000000000000000000000000000000000000000000000000000081526004016119ee90612d56565b60405180910390fd5b565b611a01611d7c565b60008060006101000a81548160ff0219169083151502179055507f5db9ee0a495bf2e6ff9c91a7834c1ba4fdd244a5e8aa4e537bd38aeae4b073aa611a44611d74565b604051611a5191906122af565b60405180910390a1565b60008060019054906101000a900473ffffffffffffffffffffffffffffffffffffffff16905081600060016101000a81548173ffffffffffffffffffffffffffffffffffffffff021916908373ffffffffffffffffffffffffffffffffffffffff1602179055508173ffffffffffffffffffffffffffffffffffffffff168173ffffffffffffffffffffffffffffffffffffffff167f8be0079c531659141344cd1fd0a4f28419497f9722a3daafe3b4186f6b6457e060405160405180910390a35050565b611b28611dc5565b60016000806101000a81548160ff0219169083151502179055507f62e78cea01bee320cd4e420270b5ea74000d11b0c9f74754ebdbfc544b05a258611b6b611d74565b604051611b7891906122af565b60405180910390a1565b600080600080611b9f6201518086611b9a9190612da5565b611e0f565b80935081945082955050505080606483611bb99190612593565b61271085611bc79190612593565b611bd19190612757565b611bdb9190612757565b9350505050919050565b600063012cc030821015611bf857600080fd5b6000606483611c079190612dd6565b9050600060648085611c199190612da5565b611c239190612dd6565b9050600061271085611c359190612da5565b9050600062253d8c60046064600c600e87611c509190612e11565b611c5a9190612e54565b61132486611c689190612ebe565b611c729190612ebe565b611c7c9190612e54565b6003611c889190612f02565b611c929190612e54565b600c80600c600e88611ca49190612e11565b611cae9190612e54565b611cb89190612f02565b600287611cc59190612e11565b611ccf9190612e11565b61016f611cdc9190612f02565b611ce69190612e54565b6004600c600e88611cf79190612e11565b611d019190612e54565b6112c087611d0f9190612ebe565b611d199190612ebe565b6105b5611d269190612f02565b611d309190612e54565b617d4b88611d3e9190612e11565b611d489190612ebe565b611d529190612ebe565b611d5c9190612e11565b611d669190612e11565b905080945050505050919050565b600033905090565b611d846108b8565b611dc3576040517f08c379a0000000000000000000000000000000000000000000000000000000008152600401611dba90612fc6565b60405180910390fd5b565b611dcd6108b8565b15611e0d576040517f08c379a0000000000000000000000000000000000000000000000000000000008152600401611e0490613032565b60405180910390fd5b565b600080600080849050600062253d8c62010bd983611e2d9190612ebe565b611e379190612ebe565b9050600062023ab1826004611e4c9190612f02565b611e569190612e54565b9050600460038262023ab1611e6b9190612f02565b611e759190612ebe565b611e7f9190612e54565b82611e8a9190612e11565b9150600062164b09600184611e9f9190612ebe565b610fa0611eac9190612f02565b611eb69190612e54565b9050601f6004826105b5611eca9190612f02565b611ed49190612e54565b84611edf9190612e11565b611ee99190612ebe565b9250600061098f846050611efd9190612f02565b611f079190612e54565b9050600060508261098f611f1b9190612f02565b611f259190612e54565b85611f309190612e11565b9050600b82611f3f9190612e54565b945084600c611f4e9190612f02565b600283611f5b9190612ebe565b611f659190612e11565b91508483603186611f769190612e11565b6064611f829190612f02565b611f8c9190612ebe565b611f969190612ebe565b92508298508197508096505050505050509193909250565b600080fd5b600073ffffffffffffffffffffffffffffffffffffffff82169050919050565b6000611fde82611fb3565b9050919050565b611fee81611fd3565b8114611ff957600080fd5b50565b60008135905061200b81611fe5565b92915050565b60006020828403121561202757612026611fae565b5b600061203584828501611ffc565b91505092915050565b600081519050919050565b600082825260208201905092915050565b6000819050602082019050919050565b6000819050919050565b61207d8161206a565b82525050565b6040820160008201516120996000850182612074565b5060208201516120ac6020850182612074565b50505050565b60006120be8383612083565b60408301905092915050565b6000602082019050919050565b60006120e28261203e565b6120ec8185612049565b93506120f78361205a565b8060005b8381101561212857815161210f88826120b2565b975061211a836120ca565b9250506001810190506120fb565b5085935050505092915050565b6000602082019050818103600083015261214f81846120d7565b905092915050565b600081519050919050565b600082825260208201905092915050565b60005b83811015612191578082015181840152602081019050612176565b60008484015250505050565b6000601f19601f8301169050919050565b60006121b982612157565b6121c38185612162565b93506121d3818560208601612173565b6121dc8161219d565b840191505092915050565b6000602082019050818103600083015261220181846121ae565b905092915050565b6122128161206a565b82525050565b600060208201905061222d6000830184612209565b92915050565b600060ff82169050919050565b61224981612233565b82525050565b60006020820190506122646000830184612240565b92915050565b60008115159050919050565b61227f8161226a565b82525050565b600060208201905061229a6000830184612276565b92915050565b6122a981611fd3565b82525050565b60006020820190506122c460008301846122a0565b92915050565b6122d38161206a565b81146122de57600080fd5b50565b6000813590506122f0816122ca565b92915050565b60006020828403121561230c5761230b611fae565b5b600061231a848285016122e1565b91505092915050565b6000806040838503121561233a57612339611fae565b5b6000612348858286016122e1565b9250506020612359858286016122e1565b9150509250929050565b7f4c697374696e6720626f6e64732066726f6d20207a65726f206164647265737360008201527f2e00000000000000000000000000000000000000000000000000000000000000602082015250565b60006123bf602183612162565b91506123ca82612363565b604082019050919050565b600060208201905081810360008301526123ee816123b2565b9050919050565b7f4e487b7100000000000000000000000000000000000000000000000000000000600052602260045260246000fd5b6000600282049050600182168061243c57607f821691505b60208210810361244f5761244e6123f5565b5b50919050565b600065ffffffffffff82169050919050565b61247081612455565b82525050565b600060408201905061248b60008301856122a0565b6124986020830184612467565b9392505050565b6124a88161226a565b81146124b357600080fd5b50565b6000815190506124c58161249f565b92915050565b6000602082840312156124e1576124e0611fae565b5b60006124ef848285016124b6565b91505092915050565b7f4e6f74206120686f6c6465720000000000000000000000000000000000000000600082015250565b600061252e600c83612162565b9150612539826124f8565b602082019050919050565b6000602082019050818103600083015261255d81612521565b9050919050565b7f4e487b7100000000000000000000000000000000000000000000000000000000600052601160045260246000fd5b600061259e8261206a565b91506125a98361206a565b92508282026125b78161206a565b915082820484148315176125ce576125cd612564565b5b5092915050565b6000815190506125e4816122ca565b92915050565b600060208284031215612600576125ff611fae565b5b600061260e848285016125d5565b91505092915050565b7f4e487b7100000000000000000000000000000000000000000000000000000000600052603260045260246000fd5b600060608201905061265b60008301866122a0565b61266860208301856122a0565b6126756040830184612209565b949350505050565b60006126888261206a565b91507fffffffffffffffffffffffffffffffffffffffffffffffffffffffffffffffff82036126ba576126b9612564565b5b600182019050919050565b7f436865636b696e672062616c616e6365206f66207a65726f206163636f756e7460008201527f2e00000000000000000000000000000000000000000000000000000000000000602082015250565b6000612721602183612162565b915061272c826126c5565b604082019050919050565b6000602082019050818103600083015261275081612714565b9050919050565b60006127628261206a565b915061276d8361206a565b925082820190508082111561278557612784612564565b5b92915050565b7f546865206e756d626572206f6620626f6e64732073686f756c6420626520677260008201527f6561746572207468616e20302e00000000000000000000000000000000000000602082015250565b60006127e7602d83612162565b91506127f28261278b565b604082019050919050565b60006020820190508181036000830152612816816127da565b9050919050565b7f5468652062757965722069736e277420646566696e656420617320616e20617060008201527f70726f76656420617373657420686f6c6465722e000000000000000000000000602082015250565b6000612879603483612162565b91506128848261281d565b604082019050919050565b600060208201905081810360008301526128a88161286c565b9050919050565b7f54686520746f74616c206e756d626572206f6620626f6e64732065786365656460008201527f732074686520656e7469726520737570706c792076616c75652e000000000000602082015250565b600061290b603a83612162565b9150612916826128af565b604082019050919050565b6000602082019050818103600083015261293a816128fe565b9050919050565b7f54686520627579657220646f65736e2774206861766520656e6f756768206d6f60008201527f6e657920696e207468656972206163636f756e742e0000000000000000000000602082015250565b600061299d603583612162565b91506129a882612941565b604082019050919050565b600060208201905081810360008301526129cc81612990565b9050919050565b60006040820190506129e860008301856122a0565b6129f560208301846122a0565b9392505050565b7f546865206163636f756e7420616c6c6f77616e636520666f722074686520747260008201527f6164652069732073657420746f6f206c6f772e00000000000000000000000000602082015250565b6000612a58603383612162565b9150612a63826129fc565b604082019050919050565b60006020820190508181036000830152612a8781612a4b565b9050919050565b6000612a998261206a565b9150612aa48361206a565b9250828203905081811115612abc57612abb612564565b5b92915050565b7f54686520616d6f757420657863656564732074686520746f74616c207375707060008201527f6c6179206f662074686520617373657400000000000000000000000000000000602082015250565b6000612b1e603083612162565b9150612b2982612ac2565b604082019050919050565b60006020820190508181036000830152612b4d81612b11565b9050919050565b7f416c6c6f77616e636520746f6f206c6f77000000000000000000000000000000600082015250565b6000612b8a601183612162565b9150612b9582612b54565b602082019050919050565b60006020820190508181036000830152612bb981612b7d565b9050919050565b7f54686520626f6e64206d61792062652072656465656d6564206174206c65617360008201527f74206f6e6520646179206166746572207468652064617465206f66207075726360208201527f686173652e000000000000000000000000000000000000000000000000000000604082015250565b6000612c42604583612162565b9150612c4d82612bc0565b606082019050919050565b60006020820190508181036000830152612c7181612c35565b9050919050565b7f4f776e61626c653a206e6577206f776e657220697320746865207a65726f206160008201527f6464726573730000000000000000000000000000000000000000000000000000602082015250565b6000612cd4602683612162565b9150612cdf82612c78565b604082019050919050565b60006020820190508181036000830152612d0381612cc7565b9050919050565b7f4f776e61626c653a2063616c6c6572206973206e6f7420746865206f776e6572600082015250565b6000612d40602083612162565b9150612d4b82612d0a565b602082019050919050565b60006020820190508181036000830152612d6f81612d33565b9050919050565b7f4e487b7100000000000000000000000000000000000000000000000000000000600052601260045260246000fd5b6000612db08261206a565b9150612dbb8361206a565b925082612dcb57612dca612d76565b5b828204905092915050565b6000612de18261206a565b9150612dec8361206a565b925082612dfc57612dfb612d76565b5b828206905092915050565b6000819050919050565b6000612e1c82612e07565b9150612e2783612e07565b9250828203905081811260008412168282136000851215161715612e4e57612e4d612564565b5b92915050565b6000612e5f82612e07565b9150612e6a83612e07565b925082612e7a57612e79612d76565b5b600160000383147f800000000000000000000000000000000000000000000000000000000000000083141615612eb357612eb2612564565b5b828205905092915050565b6000612ec982612e07565b9150612ed483612e07565b925082820190508281121560008312168382126000841215161715612efc57612efb612564565b5b92915050565b6000612f0d82612e07565b9150612f1883612e07565b9250828202612f2681612e07565b91507f80000000000000000000000000000000000000000000000000000000000000008414600084121615612f5e57612f5d612564565b5b8282058414831517612f7357612f72612564565b5b5092915050565b7f5061757361626c653a206e6f7420706175736564000000000000000000000000600082015250565b6000612fb0601483612162565b9150612fbb82612f7a565b602082019050919050565b60006020820190508181036000830152612fdf81612fa3565b9050919050565b7f5061757361626c653a2070617573656400000000000000000000000000000000600082015250565b600061301c601083612162565b915061302782612fe6565b602082019050919050565b6000602082019050818103600083015261304b8161300f565b905091905056fea2646970667358221220d3faee8744836e74c76482b25eb262405a36694723926094b46506ca5667d2eb64736f6c63430008120033466972737420506f6c69736820426f6e64206261736564206f6e20626c6f636b636861696e",
			"opcodes": "PUSH1 0x80 PUSH1 0x40 MSTORE CALLVALUE DUP1 ISZERO PUSH3 0x11 JUMPI PUSH1 0x0 DUP1 REVERT JUMPDEST POP PUSH1 0x40 MLOAD PUSH3 0x3734 CODESIZE SUB DUP1 PUSH3 0x3734 DUP4 CODECOPY DUP2 DUP2 ADD PUSH1 0x40 MSTORE DUP2 ADD SWAP1 PUSH3 0x37 SWAP2 SWAP1 PUSH3 0x2CF JUMP JUMPDEST PUSH1 0x0 DUP1 PUSH1 0x0 PUSH2 0x100 EXP DUP2 SLOAD DUP2 PUSH1 0xFF MUL NOT AND SWAP1 DUP4 ISZERO ISZERO MUL OR SWAP1 SSTORE POP PUSH3 0x71 PUSH3 0x65 PUSH3 0x198 PUSH1 0x20 SHL PUSH1 0x20 SHR JUMP JUMPDEST PUSH3 0x1A0 PUSH1 0x20 SHL PUSH1 0x20 SHR JUMP JUMPDEST DUP2 PUSH1 0x1 PUSH1 0x0 PUSH2 0x100 EXP DUP2 SLOAD DUP2 PUSH20 0xFFFFFFFFFFFFFFFFFFFFFFFFFFFFFFFFFFFFFFFF MUL NOT AND SWAP1 DUP4 PUSH20 0xFFFFFFFFFFFFFFFFFFFFFFFFFFFFFFFFFFFFFFFF AND MUL OR SWAP1 SSTORE POP DUP1 PUSH1 0x2 PUSH1 0x0 PUSH2 0x100 EXP DUP2 SLOAD DUP2 PUSH20 0xFFFFFFFFFFFFFFFFFFFFFFFFFFFFFFFFFFFFFFFF MUL NOT AND SWAP1 DUP4 PUSH20 0xFFFFFFFFFFFFFFFFFFFFFFFFFFFFFFFFFFFFFFFF AND MUL OR SWAP1 SSTORE POP PUSH3 0xF4240 PUSH1 0x7 DUP2 SWAP1 SSTORE POP PUSH2 0x2710 PUSH1 0x8 DUP2 SWAP1 SSTORE POP PUSH1 0x64 PUSH1 0xA DUP2 SWAP1 SSTORE POP PUSH1 0x1 PUSH1 0x9 DUP2 SWAP1 SSTORE POP PUSH1 0x2 PUSH1 0x3 DUP2 SWAP1 SSTORE POP PUSH1 0x40 MLOAD DUP1 PUSH1 0x60 ADD PUSH1 0x40 MSTORE DUP1 PUSH1 0x25 DUP2 MSTORE PUSH1 0x20 ADD PUSH3 0x370F PUSH1 0x25 SWAP2 CODECOPY PUSH1 0x4 SWAP1 DUP2 PUSH3 0x148 SWAP2 SWAP1 PUSH3 0x590 JUMP JUMPDEST POP PUSH1 0x40 MLOAD DUP1 PUSH1 0x40 ADD PUSH1 0x40 MSTORE DUP1 PUSH1 0x5 DUP2 MSTORE PUSH1 0x20 ADD PUSH32 0x65424F4E44000000000000000000000000000000000000000000000000000000 DUP2 MSTORE POP PUSH1 0x5 SWAP1 DUP2 PUSH3 0x18F SWAP2 SWAP1 PUSH3 0x590 JUMP JUMPDEST POP POP POP PUSH3 0x677 JUMP JUMPDEST PUSH1 0x0 CALLER SWAP1 POP SWAP1 JUMP JUMPDEST PUSH1 0x0 DUP1 PUSH1 0x1 SWAP1 SLOAD SWAP1 PUSH2 0x100 EXP SWAP1 DIV PUSH20 0xFFFFFFFFFFFFFFFFFFFFFFFFFFFFFFFFFFFFFFFF AND SWAP1 POP DUP2 PUSH1 0x0 PUSH1 0x1 PUSH2 0x100 EXP DUP2 SLOAD DUP2 PUSH20 0xFFFFFFFFFFFFFFFFFFFFFFFFFFFFFFFFFFFFFFFF MUL NOT AND SWAP1 DUP4 PUSH20 0xFFFFFFFFFFFFFFFFFFFFFFFFFFFFFFFFFFFFFFFF AND MUL OR SWAP1 SSTORE POP DUP2 PUSH20 0xFFFFFFFFFFFFFFFFFFFFFFFFFFFFFFFFFFFFFFFF AND DUP2 PUSH20 0xFFFFFFFFFFFFFFFFFFFFFFFFFFFFFFFFFFFFFFFF AND PUSH32 0x8BE0079C531659141344CD1FD0A4F28419497F9722A3DAAFE3B4186F6B6457E0 PUSH1 0x40 MLOAD PUSH1 0x40 MLOAD DUP1 SWAP2 SUB SWAP1 LOG3 POP POP JUMP JUMPDEST PUSH1 0x0 DUP1 REVERT JUMPDEST PUSH1 0x0 PUSH20 0xFFFFFFFFFFFFFFFFFFFFFFFFFFFFFFFFFFFFFFFF DUP3 AND SWAP1 POP SWAP2 SWAP1 POP JUMP JUMPDEST PUSH1 0x0 PUSH3 0x297 DUP3 PUSH3 0x26A JUMP JUMPDEST SWAP1 POP SWAP2 SWAP1 POP JUMP JUMPDEST PUSH3 0x2A9 DUP2 PUSH3 0x28A JUMP JUMPDEST DUP2 EQ PUSH3 0x2B5 JUMPI PUSH1 0x0 DUP1 REVERT JUMPDEST POP JUMP JUMPDEST PUSH1 0x0 DUP2 MLOAD SWAP1 POP PUSH3 0x2C9 DUP2 PUSH3 0x29E JUMP JUMPDEST SWAP3 SWAP2 POP POP JUMP JUMPDEST PUSH1 0x0 DUP1 PUSH1 0x40 DUP4 DUP6 SUB SLT ISZERO PUSH3 0x2E9 JUMPI PUSH3 0x2E8 PUSH3 0x265 JUMP JUMPDEST JUMPDEST PUSH1 0x0 PUSH3 0x2F9 DUP6 DUP3 DUP7 ADD PUSH3 0x2B8 JUMP JUMPDEST SWAP3 POP POP PUSH1 0x20 PUSH3 0x30C DUP6 DUP3 DUP7 ADD PUSH3 0x2B8 JUMP JUMPDEST SWAP2 POP POP SWAP3 POP SWAP3 SWAP1 POP JUMP JUMPDEST PUSH1 0x0 DUP2 MLOAD SWAP1 POP SWAP2 SWAP1 POP JUMP JUMPDEST PUSH32 0x4E487B7100000000000000000000000000000000000000000000000000000000 PUSH1 0x0 MSTORE PUSH1 0x41 PUSH1 0x4 MSTORE PUSH1 0x24 PUSH1 0x0 REVERT JUMPDEST PUSH32 0x4E487B7100000000000000000000000000000000000000000000000000000000 PUSH1 0x0 MSTORE PUSH1 0x22 PUSH1 0x4 MSTORE PUSH1 0x24 PUSH1 0x0 REVERT JUMPDEST PUSH1 0x0 PUSH1 0x2 DUP3 DIV SWAP1 POP PUSH1 0x1 DUP3 AND DUP1 PUSH3 0x398 JUMPI PUSH1 0x7F DUP3 AND SWAP2 POP JUMPDEST PUSH1 0x20 DUP3 LT DUP2 SUB PUSH3 0x3AE JUMPI PUSH3 0x3AD PUSH3 0x350 JUMP JUMPDEST JUMPDEST POP SWAP2 SWAP1 POP JUMP JUMPDEST PUSH1 0x0 DUP2 SWAP1 POP DUP2 PUSH1 0x0 MSTORE PUSH1 0x20 PUSH1 0x0 KECCAK256 SWAP1 POP SWAP2 SWAP1 POP JUMP JUMPDEST PUSH1 0x0 PUSH1 0x20 PUSH1 0x1F DUP4 ADD DIV SWAP1 POP SWAP2 SWAP1 POP JUMP JUMPDEST PUSH1 0x0 DUP3 DUP3 SHL SWAP1 POP SWAP3 SWAP2 POP POP JUMP JUMPDEST PUSH1 0x0 PUSH1 0x8 DUP4 MUL PUSH3 0x418 PUSH32 0xFFFFFFFFFFFFFFFFFFFFFFFFFFFFFFFFFFFFFFFFFFFFFFFFFFFFFFFFFFFFFFFF DUP3 PUSH3 0x3D9 JUMP JUMPDEST PUSH3 0x424 DUP7 DUP4 PUSH3 0x3D9 JUMP JUMPDEST SWAP6 POP DUP1 NOT DUP5 AND SWAP4 POP DUP1 DUP7 AND DUP5 OR SWAP3 POP POP POP SWAP4 SWAP3 POP POP POP JUMP JUMPDEST PUSH1 0x0 DUP2 SWAP1 POP SWAP2 SWAP1 POP JUMP JUMPDEST PUSH1 0x0 DUP2 SWAP1 POP SWAP2 SWAP1 POP JUMP JUMPDEST PUSH1 0x0 PUSH3 0x471 PUSH3 0x46B PUSH3 0x465 DUP5 PUSH3 0x43C JUMP JUMPDEST PUSH3 0x446 JUMP JUMPDEST PUSH3 0x43C JUMP JUMPDEST SWAP1 POP SWAP2 SWAP1 POP JUMP JUMPDEST PUSH1 0x0 DUP2 SWAP1 POP SWAP2 SWAP1 POP JUMP JUMPDEST PUSH3 0x48D DUP4 PUSH3 0x450 JUMP JUMPDEST PUSH3 0x4A5 PUSH3 0x49C DUP3 PUSH3 0x478 JUMP JUMPDEST DUP5 DUP5 SLOAD PUSH3 0x3E6 JUMP JUMPDEST DUP3 SSTORE POP POP POP POP JUMP JUMPDEST PUSH1 0x0 SWAP1 JUMP JUMPDEST PUSH3 0x4BC PUSH3 0x4AD JUMP JUMPDEST PUSH3 0x4C9 DUP2 DUP5 DUP5 PUSH3 0x482 JUMP JUMPDEST POP POP POP JUMP JUMPDEST JUMPDEST DUP2 DUP2 LT ISZERO PUSH3 0x4F1 JUMPI PUSH3 0x4E5 PUSH1 0x0 DUP3 PUSH3 0x4B2 JUMP JUMPDEST PUSH1 0x1 DUP2 ADD SWAP1 POP PUSH3 0x4CF JUMP JUMPDEST POP POP JUMP JUMPDEST PUSH1 0x1F DUP3 GT ISZERO PUSH3 0x540 JUMPI PUSH3 0x50A DUP2 PUSH3 0x3B4 JUMP JUMPDEST PUSH3 0x515 DUP5 PUSH3 0x3C9 JUMP JUMPDEST DUP2 ADD PUSH1 0x20 DUP6 LT ISZERO PUSH3 0x525 JUMPI DUP2 SWAP1 POP JUMPDEST PUSH3 0x53D PUSH3 0x534 DUP6 PUSH3 0x3C9 JUMP JUMPDEST DUP4 ADD DUP3 PUSH3 0x4CE JUMP JUMPDEST POP POP JUMPDEST POP POP POP JUMP JUMPDEST PUSH1 0x0 DUP3 DUP3 SHR SWAP1 POP SWAP3 SWAP2 POP POP JUMP JUMPDEST PUSH1 0x0 PUSH3 0x565 PUSH1 0x0 NOT DUP5 PUSH1 0x8 MUL PUSH3 0x545 JUMP JUMPDEST NOT DUP1 DUP4 AND SWAP2 POP POP SWAP3 SWAP2 POP POP JUMP JUMPDEST PUSH1 0x0 PUSH3 0x580 DUP4 DUP4 PUSH3 0x552 JUMP JUMPDEST SWAP2 POP DUP3 PUSH1 0x2 MUL DUP3 OR SWAP1 POP SWAP3 SWAP2 POP POP JUMP JUMPDEST PUSH3 0x59B DUP3 PUSH3 0x316 JUMP JUMPDEST PUSH8 0xFFFFFFFFFFFFFFFF DUP2 GT ISZERO PUSH3 0x5B7 JUMPI PUSH3 0x5B6 PUSH3 0x321 JUMP JUMPDEST JUMPDEST PUSH3 0x5C3 DUP3 SLOAD PUSH3 0x37F JUMP JUMPDEST PUSH3 0x5D0 DUP3 DUP3 DUP6 PUSH3 0x4F5 JUMP JUMPDEST PUSH1 0x0 PUSH1 0x20 SWAP1 POP PUSH1 0x1F DUP4 GT PUSH1 0x1 DUP2 EQ PUSH3 0x608 JUMPI PUSH1 0x0 DUP5 ISZERO PUSH3 0x5F3 JUMPI DUP3 DUP8 ADD MLOAD SWAP1 POP JUMPDEST PUSH3 0x5FF DUP6 DUP3 PUSH3 0x572 JUMP JUMPDEST DUP7 SSTORE POP PUSH3 0x66F JUMP JUMPDEST PUSH1 0x1F NOT DUP5 AND PUSH3 0x618 DUP7 PUSH3 0x3B4 JUMP JUMPDEST PUSH1 0x0 JUMPDEST DUP3 DUP2 LT ISZERO PUSH3 0x642 JUMPI DUP5 DUP10 ADD MLOAD DUP3 SSTORE PUSH1 0x1 DUP3 ADD SWAP2 POP PUSH1 0x20 DUP6 ADD SWAP5 POP PUSH1 0x20 DUP2 ADD SWAP1 POP PUSH3 0x61B JUMP JUMPDEST DUP7 DUP4 LT ISZERO PUSH3 0x662 JUMPI DUP5 DUP10 ADD MLOAD PUSH3 0x65E PUSH1 0x1F DUP10 AND DUP3 PUSH3 0x552 JUMP JUMPDEST DUP4 SSTORE POP JUMPDEST PUSH1 0x1 PUSH1 0x2 DUP9 MUL ADD DUP9 SSTORE POP POP POP JUMPDEST POP POP POP POP POP POP JUMP JUMPDEST PUSH2 0x3088 DUP1 PUSH3 0x687 PUSH1 0x0 CODECOPY PUSH1 0x0 RETURN INVALID PUSH1 0x80 PUSH1 0x40 MSTORE CALLVALUE DUP1 ISZERO PUSH2 0x10 JUMPI PUSH1 0x0 DUP1 REVERT JUMPDEST POP PUSH1 0x4 CALLDATASIZE LT PUSH2 0x100 JUMPI PUSH1 0x0 CALLDATALOAD PUSH1 0xE0 SHR DUP1 PUSH4 0x70A08231 GT PUSH2 0x97 JUMPI DUP1 PUSH4 0x95D89B41 GT PUSH2 0x66 JUMPI DUP1 PUSH4 0x95D89B41 EQ PUSH2 0x23F JUMPI DUP1 PUSH4 0xCC872B66 EQ PUSH2 0x25D JUMPI DUP1 PUSH4 0xE21E95BD EQ PUSH2 0x279 JUMPI DUP1 PUSH4 0xF2FDE38B EQ PUSH2 0x295 JUMPI PUSH2 0x100 JUMP JUMPDEST DUP1 PUSH4 0x70A08231 EQ PUSH2 0x1DD JUMPI DUP1 PUSH4 0x715018A6 EQ PUSH2 0x20D JUMPI DUP1 PUSH4 0x8456CB59 EQ PUSH2 0x217 JUMPI DUP1 PUSH4 0x8DA5CB5B EQ PUSH2 0x221 JUMPI PUSH2 0x100 JUMP JUMPDEST DUP1 PUSH4 0x313CE567 GT PUSH2 0xD3 JUMPI DUP1 PUSH4 0x313CE567 EQ PUSH2 0x18D JUMPI DUP1 PUSH4 0x3F4BA83A EQ PUSH2 0x1AB JUMPI DUP1 PUSH4 0x55C01345 EQ PUSH2 0x1B5 JUMPI DUP1 PUSH4 0x5C975ABB EQ PUSH2 0x1BF JUMPI PUSH2 0x100 JUMP JUMPDEST DUP1 PUSH4 0x1247F61 EQ PUSH2 0x105 JUMPI DUP1 PUSH4 0x6FDDE03 EQ PUSH2 0x135 JUMPI DUP1 PUSH4 0x18160DDD EQ PUSH2 0x153 JUMPI DUP1 PUSH4 0x1993D54B EQ PUSH2 0x171 JUMPI JUMPDEST PUSH1 0x0 DUP1 REVERT JUMPDEST PUSH2 0x11F PUSH1 0x4 DUP1 CALLDATASIZE SUB DUP2 ADD SWAP1 PUSH2 0x11A SWAP2 SWAP1 PUSH2 0x2011 JUMP JUMPDEST PUSH2 0x2B1 JUMP JUMPDEST PUSH1 0x40 MLOAD PUSH2 0x12C SWAP2 SWAP1 PUSH2 0x2135 JUMP JUMPDEST PUSH1 0x40 MLOAD DUP1 SWAP2 SUB SWAP1 RETURN JUMPDEST PUSH2 0x13D PUSH2 0x3D2 JUMP JUMPDEST PUSH1 0x40 MLOAD PUSH2 0x14A SWAP2 SWAP1 PUSH2 0x21E7 JUMP JUMPDEST PUSH1 0x40 MLOAD DUP1 SWAP2 SUB SWAP1 RETURN JUMPDEST PUSH2 0x15B PUSH2 0x464 JUMP JUMPDEST PUSH1 0x40 MLOAD PUSH2 0x168 SWAP2 SWAP1 PUSH2 0x2218 JUMP JUMPDEST PUSH1 0x40 MLOAD DUP1 SWAP2 SUB SWAP1 RETURN JUMPDEST PUSH2 0x18B PUSH1 0x4 DUP1 CALLDATASIZE SUB DUP2 ADD SWAP1 PUSH2 0x186 SWAP2 SWAP1 PUSH2 0x2011 JUMP JUMPDEST PUSH2 0x46E JUMP JUMPDEST STOP JUMPDEST PUSH2 0x195 PUSH2 0x4BA JUMP JUMPDEST PUSH1 0x40 MLOAD PUSH2 0x1A2 SWAP2 SWAP1 PUSH2 0x224F JUMP JUMPDEST PUSH1 0x40 MLOAD DUP1 SWAP2 SUB SWAP1 RETURN JUMPDEST PUSH2 0x1B3 PUSH2 0x4BF JUMP JUMPDEST STOP JUMPDEST PUSH2 0x1BD PUSH2 0x4D1 JUMP JUMPDEST STOP JUMPDEST PUSH2 0x1C7 PUSH2 0x8B8 JUMP JUMPDEST PUSH1 0x40 MLOAD PUSH2 0x1D4 SWAP2 SWAP1 PUSH2 0x2285 JUMP JUMPDEST PUSH1 0x40 MLOAD DUP1 SWAP2 SUB SWAP1 RETURN JUMPDEST PUSH2 0x1F7 PUSH1 0x4 DUP1 CALLDATASIZE SUB DUP2 ADD SWAP1 PUSH2 0x1F2 SWAP2 SWAP1 PUSH2 0x2011 JUMP JUMPDEST PUSH2 0x8CE JUMP JUMPDEST PUSH1 0x40 MLOAD PUSH2 0x204 SWAP2 SWAP1 PUSH2 0x2218 JUMP JUMPDEST PUSH1 0x40 MLOAD DUP1 SWAP2 SUB SWAP1 RETURN JUMPDEST PUSH2 0x215 PUSH2 0xA19 JUMP JUMPDEST STOP JUMPDEST PUSH2 0x21F PUSH2 0xA2D JUMP JUMPDEST STOP JUMPDEST PUSH2 0x229 PUSH2 0xA3F JUMP JUMPDEST PUSH1 0x40 MLOAD PUSH2 0x236 SWAP2 SWAP1 PUSH2 0x22AF JUMP JUMPDEST PUSH1 0x40 MLOAD DUP1 SWAP2 SUB SWAP1 RETURN JUMPDEST PUSH2 0x247 PUSH2 0xA68 JUMP JUMPDEST PUSH1 0x40 MLOAD PUSH2 0x254 SWAP2 SWAP1 PUSH2 0x21E7 JUMP JUMPDEST PUSH1 0x40 MLOAD DUP1 SWAP2 SUB SWAP1 RETURN JUMPDEST PUSH2 0x277 PUSH1 0x4 DUP1 CALLDATASIZE SUB DUP2 ADD SWAP1 PUSH2 0x272 SWAP2 SWAP1 PUSH2 0x22F6 JUMP JUMPDEST PUSH2 0xAFA JUMP JUMPDEST STOP JUMPDEST PUSH2 0x293 PUSH1 0x4 DUP1 CALLDATASIZE SUB DUP2 ADD SWAP1 PUSH2 0x28E SWAP2 SWAP1 PUSH2 0x2323 JUMP JUMPDEST PUSH2 0x126C JUMP JUMPDEST STOP JUMPDEST PUSH2 0x2AF PUSH1 0x4 DUP1 CALLDATASIZE SUB DUP2 ADD SWAP1 PUSH2 0x2AA SWAP2 SWAP1 PUSH2 0x2011 JUMP JUMPDEST PUSH2 0x18F8 JUMP JUMPDEST STOP JUMPDEST PUSH1 0x60 PUSH1 0x0 PUSH20 0xFFFFFFFFFFFFFFFFFFFFFFFFFFFFFFFFFFFFFFFF AND DUP3 PUSH20 0xFFFFFFFFFFFFFFFFFFFFFFFFFFFFFFFFFFFFFFFF AND SUB PUSH2 0x322 JUMPI PUSH1 0x40 MLOAD PUSH32 0x8C379A000000000000000000000000000000000000000000000000000000000 DUP2 MSTORE PUSH1 0x4 ADD PUSH2 0x319 SWAP1 PUSH2 0x23D5 JUMP JUMPDEST PUSH1 0x40 MLOAD DUP1 SWAP2 SUB SWAP1 REVERT JUMPDEST PUSH1 0xC PUSH1 0x0 DUP4 PUSH20 0xFFFFFFFFFFFFFFFFFFFFFFFFFFFFFFFFFFFFFFFF AND PUSH20 0xFFFFFFFFFFFFFFFFFFFFFFFFFFFFFFFFFFFFFFFF AND DUP2 MSTORE PUSH1 0x20 ADD SWAP1 DUP2 MSTORE PUSH1 0x20 ADD PUSH1 0x0 KECCAK256 DUP1 SLOAD DUP1 PUSH1 0x20 MUL PUSH1 0x20 ADD PUSH1 0x40 MLOAD SWAP1 DUP2 ADD PUSH1 0x40 MSTORE DUP1 SWAP3 SWAP2 SWAP1 DUP2 DUP2 MSTORE PUSH1 0x20 ADD PUSH1 0x0 SWAP1 JUMPDEST DUP3 DUP3 LT ISZERO PUSH2 0x3C7 JUMPI DUP4 DUP3 SWAP1 PUSH1 0x0 MSTORE PUSH1 0x20 PUSH1 0x0 KECCAK256 SWAP1 PUSH1 0x2 MUL ADD PUSH1 0x40 MLOAD DUP1 PUSH1 0x40 ADD PUSH1 0x40 MSTORE SWAP1 DUP2 PUSH1 0x0 DUP3 ADD SLOAD DUP2 MSTORE PUSH1 0x20 ADD PUSH1 0x1 DUP3 ADD SLOAD DUP2 MSTORE POP POP DUP2 MSTORE PUSH1 0x20 ADD SWAP1 PUSH1 0x1 ADD SWAP1 PUSH2 0x381 JUMP JUMPDEST POP POP POP POP SWAP1 POP SWAP2 SWAP1 POP JUMP JUMPDEST PUSH1 0x60 PUSH1 0x4 DUP1 SLOAD PUSH2 0x3E1 SWAP1 PUSH2 0x2424 JUMP JUMPDEST DUP1 PUSH1 0x1F ADD PUSH1 0x20 DUP1 SWAP2 DIV MUL PUSH1 0x20 ADD PUSH1 0x40 MLOAD SWAP1 DUP2 ADD PUSH1 0x40 MSTORE DUP1 SWAP3 SWAP2 SWAP1 DUP2 DUP2 MSTORE PUSH1 0x20 ADD DUP3 DUP1 SLOAD PUSH2 0x40D SWAP1 PUSH2 0x2424 JUMP JUMPDEST DUP1 ISZERO PUSH2 0x45A JUMPI DUP1 PUSH1 0x1F LT PUSH2 0x42F JUMPI PUSH2 0x100 DUP1 DUP4 SLOAD DIV MUL DUP4 MSTORE SWAP2 PUSH1 0x20 ADD SWAP2 PUSH2 0x45A JUMP JUMPDEST DUP3 ADD SWAP2 SWAP1 PUSH1 0x0 MSTORE PUSH1 0x20 PUSH1 0x0 KECCAK256 SWAP1 JUMPDEST DUP2 SLOAD DUP2 MSTORE SWAP1 PUSH1 0x1 ADD SWAP1 PUSH1 0x20 ADD DUP1 DUP4 GT PUSH2 0x43D JUMPI DUP3 SWAP1 SUB PUSH1 0x1F AND DUP3 ADD SWAP2 JUMPDEST POP POP POP POP POP SWAP1 POP SWAP1 JUMP JUMPDEST PUSH1 0x0 PUSH1 0x6 SLOAD SWAP1 POP SWAP1 JUMP JUMPDEST PUSH2 0x476 PUSH2 0x197B JUMP JUMPDEST DUP1 PUSH1 0x1 PUSH1 0x0 PUSH2 0x100 EXP DUP2 SLOAD DUP2 PUSH20 0xFFFFFFFFFFFFFFFFFFFFFFFFFFFFFFFFFFFFFFFF MUL NOT AND SWAP1 DUP4 PUSH20 0xFFFFFFFFFFFFFFFFFFFFFFFFFFFFFFFFFFFFFFFF AND MUL OR SWAP1 SSTORE POP POP JUMP JUMPDEST PUSH1 0x0 SWAP1 JUMP JUMPDEST PUSH2 0x4C7 PUSH2 0x197B JUMP JUMPDEST PUSH2 0x4CF PUSH2 0x19F9 JUMP JUMPDEST JUMP JUMPDEST PUSH2 0x4D9 PUSH2 0x197B JUMP JUMPDEST PUSH1 0x0 DUP1 PUSH20 0xFFFFFFFFFFFFFFFFFFFFFFFFFFFFFFFFFFFFFFFF AND PUSH1 0x1 PUSH1 0x0 SWAP1 SLOAD SWAP1 PUSH2 0x100 EXP SWAP1 DIV PUSH20 0xFFFFFFFFFFFFFFFFFFFFFFFFFFFFFFFFFFFFFFFF AND PUSH20 0xFFFFFFFFFFFFFFFFFFFFFFFFFFFFFFFFFFFFFFFF AND EQ ISZERO SWAP1 POP DUP1 DUP1 ISZERO PUSH2 0x5D7 JUMPI POP PUSH1 0x1 PUSH1 0x0 SWAP1 SLOAD SWAP1 PUSH2 0x100 EXP SWAP1 DIV PUSH20 0xFFFFFFFFFFFFFFFFFFFFFFFFFFFFFFFFFFFFFFFF AND PUSH20 0xFFFFFFFFFFFFFFFFFFFFFFFFFFFFFFFFFFFFFFFF AND PUSH4 0xF35F0F74 CALLER PUSH1 0x2 PUSH1 0x40 MLOAD DUP4 PUSH4 0xFFFFFFFF AND PUSH1 0xE0 SHL DUP2 MSTORE PUSH1 0x4 ADD PUSH2 0x595 SWAP3 SWAP2 SWAP1 PUSH2 0x2476 JUMP JUMPDEST PUSH1 0x20 PUSH1 0x40 MLOAD DUP1 DUP4 SUB DUP2 DUP7 GAS STATICCALL ISZERO DUP1 ISZERO PUSH2 0x5B2 JUMPI RETURNDATASIZE PUSH1 0x0 DUP1 RETURNDATACOPY RETURNDATASIZE PUSH1 0x0 REVERT JUMPDEST POP POP POP POP PUSH1 0x40 MLOAD RETURNDATASIZE PUSH1 0x1F NOT PUSH1 0x1F DUP3 ADD AND DUP3 ADD DUP1 PUSH1 0x40 MSTORE POP DUP2 ADD SWAP1 PUSH2 0x5D6 SWAP2 SWAP1 PUSH2 0x24CB JUMP JUMPDEST JUMPDEST PUSH2 0x616 JUMPI PUSH1 0x40 MLOAD PUSH32 0x8C379A000000000000000000000000000000000000000000000000000000000 DUP2 MSTORE PUSH1 0x4 ADD PUSH2 0x60D SWAP1 PUSH2 0x2544 JUMP JUMPDEST PUSH1 0x40 MLOAD DUP1 SWAP2 SUB SWAP1 REVERT JUMPDEST PUSH1 0xA SLOAD PUSH2 0x621 PUSH2 0x464 JUMP JUMPDEST PUSH2 0x62B SWAP2 SWAP1 PUSH2 0x2593 JUMP JUMPDEST PUSH1 0x2 PUSH1 0x0 SWAP1 SLOAD SWAP1 PUSH2 0x100 EXP SWAP1 DIV PUSH20 0xFFFFFFFFFFFFFFFFFFFFFFFFFFFFFFFFFFFFFFFF AND PUSH20 0xFFFFFFFFFFFFFFFFFFFFFFFFFFFFFFFFFFFFFFFF AND PUSH4 0x70A08231 PUSH2 0x671 PUSH2 0xA3F JUMP JUMPDEST PUSH1 0x40 MLOAD DUP3 PUSH4 0xFFFFFFFF AND PUSH1 0xE0 SHL DUP2 MSTORE PUSH1 0x4 ADD PUSH2 0x68D SWAP2 SWAP1 PUSH2 0x22AF JUMP JUMPDEST PUSH1 0x20 PUSH1 0x40 MLOAD DUP1 DUP4 SUB DUP2 DUP7 GAS STATICCALL ISZERO DUP1 ISZERO PUSH2 0x6AA JUMPI RETURNDATASIZE PUSH1 0x0 DUP1 RETURNDATACOPY RETURNDATASIZE PUSH1 0x0 REVERT JUMPDEST POP POP POP POP PUSH1 0x40 MLOAD RETURNDATASIZE PUSH1 0x1F NOT PUSH1 0x1F DUP3 ADD AND DUP3 ADD DUP1 PUSH1 0x40 MSTORE POP DUP2 ADD SWAP1 PUSH2 0x6CE SWAP2 SWAP1 PUSH2 0x25EA JUMP JUMPDEST LT ISZERO PUSH2 0x6D9 JUMPI PUSH1 0x0 DUP1 REVERT JUMPDEST PUSH1 0x0 JUMPDEST PUSH1 0xB DUP1 SLOAD SWAP1 POP DUP2 LT ISZERO PUSH2 0x8B4 JUMPI PUSH1 0x0 JUMPDEST PUSH1 0xC PUSH1 0x0 CALLER PUSH20 0xFFFFFFFFFFFFFFFFFFFFFFFFFFFFFFFFFFFFFFFF AND PUSH20 0xFFFFFFFFFFFFFFFFFFFFFFFFFFFFFFFFFFFFFFFF AND DUP2 MSTORE PUSH1 0x20 ADD SWAP1 DUP2 MSTORE PUSH1 0x20 ADD PUSH1 0x0 KECCAK256 DUP1 SLOAD SWAP1 POP DUP2 LT ISZERO PUSH2 0x8A0 JUMPI PUSH1 0x2 PUSH1 0x0 SWAP1 SLOAD SWAP1 PUSH2 0x100 EXP SWAP1 DIV PUSH20 0xFFFFFFFFFFFFFFFFFFFFFFFFFFFFFFFFFFFFFFFF AND PUSH20 0xFFFFFFFFFFFFFFFFFFFFFFFFFFFFFFFFFFFFFFFF AND PUSH4 0x23B872DD PUSH2 0x77C PUSH2 0xA3F JUMP JUMPDEST PUSH1 0xB DUP6 DUP2 SLOAD DUP2 LT PUSH2 0x790 JUMPI PUSH2 0x78F PUSH2 0x2617 JUMP JUMPDEST JUMPDEST SWAP1 PUSH1 0x0 MSTORE PUSH1 0x20 PUSH1 0x0 KECCAK256 ADD PUSH1 0x0 SWAP1 SLOAD SWAP1 PUSH2 0x100 EXP SWAP1 DIV PUSH20 0xFFFFFFFFFFFFFFFFFFFFFFFFFFFFFFFFFFFFFFFF AND PUSH1 0xA SLOAD PUSH1 0xC PUSH1 0x0 CALLER PUSH20 0xFFFFFFFFFFFFFFFFFFFFFFFFFFFFFFFFFFFFFFFF AND PUSH20 0xFFFFFFFFFFFFFFFFFFFFFFFFFFFFFFFFFFFFFFFF AND DUP2 MSTORE PUSH1 0x20 ADD SWAP1 DUP2 MSTORE PUSH1 0x20 ADD PUSH1 0x0 KECCAK256 DUP7 DUP2 SLOAD DUP2 LT PUSH2 0x80F JUMPI PUSH2 0x80E PUSH2 0x2617 JUMP JUMPDEST JUMPDEST SWAP1 PUSH1 0x0 MSTORE PUSH1 0x20 PUSH1 0x0 KECCAK256 SWAP1 PUSH1 0x2 MUL ADD PUSH1 0x1 ADD SLOAD PUSH2 0x82B SWAP2 SWAP1 PUSH2 0x2593 JUMP JUMPDEST PUSH1 0x40 MLOAD DUP5 PUSH4 0xFFFFFFFF AND PUSH1 0xE0 SHL DUP2 MSTORE PUSH1 0x4 ADD PUSH2 0x849 SWAP4 SWAP3 SWAP2 SWAP1 PUSH2 0x2646 JUMP JUMPDEST PUSH1 0x20 PUSH1 0x40 MLOAD DUP1 DUP4 SUB DUP2 PUSH1 0x0 DUP8 GAS CALL ISZERO DUP1 ISZERO PUSH2 0x868 JUMPI RETURNDATASIZE PUSH1 0x0 DUP1 RETURNDATACOPY RETURNDATASIZE PUSH1 0x0 REVERT JUMPDEST POP POP POP POP PUSH1 0x40 MLOAD RETURNDATASIZE PUSH1 0x1F NOT PUSH1 0x1F DUP3 ADD AND DUP3 ADD DUP1 PUSH1 0x40 MSTORE POP DUP2 ADD SWAP1 PUSH2 0x88C SWAP2 SWAP1 PUSH2 0x24CB JUMP JUMPDEST POP DUP1 DUP1 PUSH2 0x898 SWAP1 PUSH2 0x267D JUMP JUMPDEST SWAP2 POP POP PUSH2 0x6EC JUMP JUMPDEST POP DUP1 DUP1 PUSH2 0x8AC SWAP1 PUSH2 0x267D JUMP JUMPDEST SWAP2 POP POP PUSH2 0x6DC JUMP JUMPDEST POP POP JUMP JUMPDEST PUSH1 0x0 DUP1 PUSH1 0x0 SWAP1 SLOAD SWAP1 PUSH2 0x100 EXP SWAP1 DIV PUSH1 0xFF AND SWAP1 POP SWAP1 JUMP JUMPDEST PUSH1 0x0 DUP1 PUSH20 0xFFFFFFFFFFFFFFFFFFFFFFFFFFFFFFFFFFFFFFFF AND DUP3 PUSH20 0xFFFFFFFFFFFFFFFFFFFFFFFFFFFFFFFFFFFFFFFF AND SUB PUSH2 0x93E JUMPI PUSH1 0x40 MLOAD PUSH32 0x8C379A000000000000000000000000000000000000000000000000000000000 DUP2 MSTORE PUSH1 0x4 ADD PUSH2 0x935 SWAP1 PUSH2 0x2737 JUMP JUMPDEST PUSH1 0x40 MLOAD DUP1 SWAP2 SUB SWAP1 REVERT JUMPDEST PUSH1 0x0 DUP1 JUMPDEST PUSH1 0xC PUSH1 0x0 CALLER PUSH20 0xFFFFFFFFFFFFFFFFFFFFFFFFFFFFFFFFFFFFFFFF AND PUSH20 0xFFFFFFFFFFFFFFFFFFFFFFFFFFFFFFFFFFFFFFFF AND DUP2 MSTORE PUSH1 0x20 ADD SWAP1 DUP2 MSTORE PUSH1 0x20 ADD PUSH1 0x0 KECCAK256 DUP1 SLOAD SWAP1 POP DUP2 LT ISZERO PUSH2 0xA0F JUMPI PUSH1 0xC PUSH1 0x0 CALLER PUSH20 0xFFFFFFFFFFFFFFFFFFFFFFFFFFFFFFFFFFFFFFFF AND PUSH20 0xFFFFFFFFFFFFFFFFFFFFFFFFFFFFFFFFFFFFFFFF AND DUP2 MSTORE PUSH1 0x20 ADD SWAP1 DUP2 MSTORE PUSH1 0x20 ADD PUSH1 0x0 KECCAK256 DUP2 DUP2 SLOAD DUP2 LT PUSH2 0x9DD JUMPI PUSH2 0x9DC PUSH2 0x2617 JUMP JUMPDEST JUMPDEST SWAP1 PUSH1 0x0 MSTORE PUSH1 0x20 PUSH1 0x0 KECCAK256 SWAP1 PUSH1 0x2 MUL ADD PUSH1 0x1 ADD SLOAD DUP3 PUSH2 0x9FA SWAP2 SWAP1 PUSH2 0x2757 JUMP JUMPDEST SWAP2 POP DUP1 DUP1 PUSH2 0xA07 SWAP1 PUSH2 0x267D JUMP JUMPDEST SWAP2 POP POP PUSH2 0x942 JUMP JUMPDEST POP DUP1 SWAP2 POP POP SWAP2 SWAP1 POP JUMP JUMPDEST PUSH2 0xA21 PUSH2 0x197B JUMP JUMPDEST PUSH2 0xA2B PUSH1 0x0 PUSH2 0x1A5B JUMP JUMPDEST JUMP JUMPDEST PUSH2 0xA35 PUSH2 0x197B JUMP JUMPDEST PUSH2 0xA3D PUSH2 0x1B20 JUMP JUMPDEST JUMP JUMPDEST PUSH1 0x0 DUP1 PUSH1 0x1 SWAP1 SLOAD SWAP1 PUSH2 0x100 EXP SWAP1 DIV PUSH20 0xFFFFFFFFFFFFFFFFFFFFFFFFFFFFFFFFFFFFFFFF AND SWAP1 POP SWAP1 JUMP JUMPDEST PUSH1 0x60 PUSH1 0x5 DUP1 SLOAD PUSH2 0xA77 SWAP1 PUSH2 0x2424 JUMP JUMPDEST DUP1 PUSH1 0x1F ADD PUSH1 0x20 DUP1 SWAP2 DIV MUL PUSH1 0x20 ADD PUSH1 0x40 MLOAD SWAP1 DUP2 ADD PUSH1 0x40 MSTORE DUP1 SWAP3 SWAP2 SWAP1 DUP2 DUP2 MSTORE PUSH1 0x20 ADD DUP3 DUP1 SLOAD PUSH2 0xAA3 SWAP1 PUSH2 0x2424 JUMP JUMPDEST DUP1 ISZERO PUSH2 0xAF0 JUMPI DUP1 PUSH1 0x1F LT PUSH2 0xAC5 JUMPI PUSH2 0x100 DUP1 DUP4 SLOAD DIV MUL DUP4 MSTORE SWAP2 PUSH1 0x20 ADD SWAP2 PUSH2 0xAF0 JUMP JUMPDEST DUP3 ADD SWAP2 SWAP1 PUSH1 0x0 MSTORE PUSH1 0x20 PUSH1 0x0 KECCAK256 SWAP1 JUMPDEST DUP2 SLOAD DUP2 MSTORE SWAP1 PUSH1 0x1 ADD SWAP1 PUSH1 0x20 ADD DUP1 DUP4 GT PUSH2 0xAD3 JUMPI DUP3 SWAP1 SUB PUSH1 0x1F AND DUP3 ADD SWAP2 JUMPDEST POP POP POP POP POP SWAP1 POP SWAP1 JUMP JUMPDEST DUP1 PUSH1 0x0 DUP2 GT PUSH2 0xB3E JUMPI PUSH1 0x40 MLOAD PUSH32 0x8C379A000000000000000000000000000000000000000000000000000000000 DUP2 MSTORE PUSH1 0x4 ADD PUSH2 0xB35 SWAP1 PUSH2 0x27FD JUMP JUMPDEST PUSH1 0x40 MLOAD DUP1 SWAP2 SUB SWAP1 REVERT JUMPDEST PUSH1 0x0 DUP1 PUSH20 0xFFFFFFFFFFFFFFFFFFFFFFFFFFFFFFFFFFFFFFFF AND PUSH1 0x1 PUSH1 0x0 SWAP1 SLOAD SWAP1 PUSH2 0x100 EXP SWAP1 DIV PUSH20 0xFFFFFFFFFFFFFFFFFFFFFFFFFFFFFFFFFFFFFFFF AND PUSH20 0xFFFFFFFFFFFFFFFFFFFFFFFFFFFFFFFFFFFFFFFF AND EQ ISZERO SWAP1 POP DUP1 DUP1 ISZERO PUSH2 0xC3C JUMPI POP PUSH1 0x1 PUSH1 0x0 SWAP1 SLOAD SWAP1 PUSH2 0x100 EXP SWAP1 DIV PUSH20 0xFFFFFFFFFFFFFFFFFFFFFFFFFFFFFFFFFFFFFFFF AND PUSH20 0xFFFFFFFFFFFFFFFFFFFFFFFFFFFFFFFFFFFFFFFF AND PUSH4 0xF35F0F74 CALLER PUSH1 0x2 PUSH1 0x40 MLOAD DUP4 PUSH4 0xFFFFFFFF AND PUSH1 0xE0 SHL DUP2 MSTORE PUSH1 0x4 ADD PUSH2 0xBFA SWAP3 SWAP2 SWAP1 PUSH2 0x2476 JUMP JUMPDEST PUSH1 0x20 PUSH1 0x40 MLOAD DUP1 DUP4 SUB DUP2 DUP7 GAS STATICCALL ISZERO DUP1 ISZERO PUSH2 0xC17 JUMPI RETURNDATASIZE PUSH1 0x0 DUP1 RETURNDATACOPY RETURNDATASIZE PUSH1 0x0 REVERT JUMPDEST POP POP POP POP PUSH1 0x40 MLOAD RETURNDATASIZE PUSH1 0x1F NOT PUSH1 0x1F DUP3 ADD AND DUP3 ADD DUP1 PUSH1 0x40 MSTORE POP DUP2 ADD SWAP1 PUSH2 0xC3B SWAP2 SWAP1 PUSH2 0x24CB JUMP JUMPDEST JUMPDEST PUSH2 0xC7B JUMPI PUSH1 0x40 MLOAD PUSH32 0x8C379A000000000000000000000000000000000000000000000000000000000 DUP2 MSTORE PUSH1 0x4 ADD PUSH2 0xC72 SWAP1 PUSH2 0x288F JUMP JUMPDEST PUSH1 0x40 MLOAD DUP1 SWAP2 SUB SWAP1 REVERT JUMPDEST PUSH1 0x7 SLOAD DUP4 PUSH2 0xC87 PUSH2 0x464 JUMP JUMPDEST PUSH2 0xC91 SWAP2 SWAP1 PUSH2 0x2757 JUMP JUMPDEST GT ISZERO PUSH2 0xCD2 JUMPI PUSH1 0x40 MLOAD PUSH32 0x8C379A000000000000000000000000000000000000000000000000000000000 DUP2 MSTORE PUSH1 0x4 ADD PUSH2 0xCC9 SWAP1 PUSH2 0x2921 JUMP JUMPDEST PUSH1 0x40 MLOAD DUP1 SWAP2 SUB SWAP1 REVERT JUMPDEST PUSH1 0x8 SLOAD DUP4 PUSH2 0xCE0 SWAP2 SWAP1 PUSH2 0x2593 JUMP JUMPDEST PUSH1 0x2 PUSH1 0x0 SWAP1 SLOAD SWAP1 PUSH2 0x100 EXP SWAP1 DIV PUSH20 0xFFFFFFFFFFFFFFFFFFFFFFFFFFFFFFFFFFFFFFFF AND PUSH20 0xFFFFFFFFFFFFFFFFFFFFFFFFFFFFFFFFFFFFFFFF AND PUSH4 0x70A08231 CALLER PUSH1 0x40 MLOAD DUP3 PUSH4 0xFFFFFFFF AND PUSH1 0xE0 SHL DUP2 MSTORE PUSH1 0x4 ADD PUSH2 0xD3B SWAP2 SWAP1 PUSH2 0x22AF JUMP JUMPDEST PUSH1 0x20 PUSH1 0x40 MLOAD DUP1 DUP4 SUB DUP2 DUP7 GAS STATICCALL ISZERO DUP1 ISZERO PUSH2 0xD58 JUMPI RETURNDATASIZE PUSH1 0x0 DUP1 RETURNDATACOPY RETURNDATASIZE PUSH1 0x0 REVERT JUMPDEST POP POP POP POP PUSH1 0x40 MLOAD RETURNDATASIZE PUSH1 0x1F NOT PUSH1 0x1F DUP3 ADD AND DUP3 ADD DUP1 PUSH1 0x40 MSTORE POP DUP2 ADD SWAP1 PUSH2 0xD7C SWAP2 SWAP1 PUSH2 0x25EA JUMP JUMPDEST LT ISZERO PUSH2 0xDBD JUMPI PUSH1 0x40 MLOAD PUSH32 0x8C379A000000000000000000000000000000000000000000000000000000000 DUP2 MSTORE PUSH1 0x4 ADD PUSH2 0xDB4 SWAP1 PUSH2 0x29B3 JUMP JUMPDEST PUSH1 0x40 MLOAD DUP1 SWAP2 SUB SWAP1 REVERT JUMPDEST PUSH1 0x8 SLOAD DUP4 PUSH2 0xDCB SWAP2 SWAP1 PUSH2 0x2593 JUMP JUMPDEST PUSH1 0x2 PUSH1 0x0 SWAP1 SLOAD SWAP1 PUSH2 0x100 EXP SWAP1 DIV PUSH20 0xFFFFFFFFFFFFFFFFFFFFFFFFFFFFFFFFFFFFFFFF AND PUSH20 0xFFFFFFFFFFFFFFFFFFFFFFFFFFFFFFFFFFFFFFFF AND PUSH4 0xDD62ED3E CALLER ADDRESS PUSH1 0x40 MLOAD DUP4 PUSH4 0xFFFFFFFF AND PUSH1 0xE0 SHL DUP2 MSTORE PUSH1 0x4 ADD PUSH2 0xE28 SWAP3 SWAP2 SWAP1 PUSH2 0x29D3 JUMP JUMPDEST PUSH1 0x20 PUSH1 0x40 MLOAD DUP1 DUP4 SUB DUP2 DUP7 GAS STATICCALL ISZERO DUP1 ISZERO PUSH2 0xE45 JUMPI RETURNDATASIZE PUSH1 0x0 DUP1 RETURNDATACOPY RETURNDATASIZE PUSH1 0x0 REVERT JUMPDEST POP POP POP POP PUSH1 0x40 MLOAD RETURNDATASIZE PUSH1 0x1F NOT PUSH1 0x1F DUP3 ADD AND DUP3 ADD DUP1 PUSH1 0x40 MSTORE POP DUP2 ADD SWAP1 PUSH2 0xE69 SWAP2 SWAP1 PUSH2 0x25EA JUMP JUMPDEST LT ISZERO PUSH2 0xEAA JUMPI PUSH1 0x40 MLOAD PUSH32 0x8C379A000000000000000000000000000000000000000000000000000000000 DUP2 MSTORE PUSH1 0x4 ADD PUSH2 0xEA1 SWAP1 PUSH2 0x2A6E JUMP JUMPDEST PUSH1 0x40 MLOAD DUP1 SWAP2 SUB SWAP1 REVERT JUMPDEST PUSH1 0x0 PUSH2 0xEB5 TIMESTAMP PUSH2 0x1B82 JUMP JUMPDEST SWAP1 POP PUSH1 0x0 PUSH1 0xC PUSH1 0x0 CALLER PUSH20 0xFFFFFFFFFFFFFFFFFFFFFFFFFFFFFFFFFFFFFFFF AND PUSH20 0xFFFFFFFFFFFFFFFFFFFFFFFFFFFFFFFFFFFFFFFF AND DUP2 MSTORE PUSH1 0x20 ADD SWAP1 DUP2 MSTORE PUSH1 0x20 ADD PUSH1 0x0 KECCAK256 DUP1 SLOAD SWAP1 POP SWAP1 POP PUSH1 0x0 DUP2 SUB PUSH2 0x1001 JUMPI PUSH1 0xB CALLER SWAP1 DUP1 PUSH1 0x1 DUP2 SLOAD ADD DUP1 DUP3 SSTORE DUP1 SWAP2 POP POP PUSH1 0x1 SWAP1 SUB SWAP1 PUSH1 0x0 MSTORE PUSH1 0x20 PUSH1 0x0 KECCAK256 ADD PUSH1 0x0 SWAP1 SWAP2 SWAP1 SWAP2 SWAP1 SWAP2 PUSH2 0x100 EXP DUP2 SLOAD DUP2 PUSH20 0xFFFFFFFFFFFFFFFFFFFFFFFFFFFFFFFFFFFFFFFF MUL NOT AND SWAP1 DUP4 PUSH20 0xFFFFFFFFFFFFFFFFFFFFFFFFFFFFFFFFFFFFFFFF AND MUL OR SWAP1 SSTORE POP PUSH1 0xC PUSH1 0x0 CALLER PUSH20 0xFFFFFFFFFFFFFFFFFFFFFFFFFFFFFFFFFFFFFFFF AND PUSH20 0xFFFFFFFFFFFFFFFFFFFFFFFFFFFFFFFFFFFFFFFF AND DUP2 MSTORE PUSH1 0x20 ADD SWAP1 DUP2 MSTORE PUSH1 0x20 ADD PUSH1 0x0 KECCAK256 PUSH1 0x40 MLOAD DUP1 PUSH1 0x40 ADD PUSH1 0x40 MSTORE DUP1 DUP5 DUP2 MSTORE PUSH1 0x20 ADD DUP8 DUP2 MSTORE POP SWAP1 DUP1 PUSH1 0x1 DUP2 SLOAD ADD DUP1 DUP3 SSTORE DUP1 SWAP2 POP POP PUSH1 0x1 SWAP1 SUB SWAP1 PUSH1 0x0 MSTORE PUSH1 0x20 PUSH1 0x0 KECCAK256 SWAP1 PUSH1 0x2 MUL ADD PUSH1 0x0 SWAP1 SWAP2 SWAP1 SWAP2 SWAP1 SWAP2 POP PUSH1 0x0 DUP3 ADD MLOAD DUP2 PUSH1 0x0 ADD SSTORE PUSH1 0x20 DUP3 ADD MLOAD DUP2 PUSH1 0x1 ADD SSTORE POP POP PUSH2 0x1195 JUMP JUMPDEST DUP2 PUSH1 0xC PUSH1 0x0 CALLER PUSH20 0xFFFFFFFFFFFFFFFFFFFFFFFFFFFFFFFFFFFFFFFF AND PUSH20 0xFFFFFFFFFFFFFFFFFFFFFFFFFFFFFFFFFFFFFFFF AND DUP2 MSTORE PUSH1 0x20 ADD SWAP1 DUP2 MSTORE PUSH1 0x20 ADD PUSH1 0x0 KECCAK256 PUSH1 0x1 DUP4 PUSH2 0x104E SWAP2 SWAP1 PUSH2 0x2A8E JUMP JUMPDEST DUP2 SLOAD DUP2 LT PUSH2 0x105F JUMPI PUSH2 0x105E PUSH2 0x2617 JUMP JUMPDEST JUMPDEST SWAP1 PUSH1 0x0 MSTORE PUSH1 0x20 PUSH1 0x0 KECCAK256 SWAP1 PUSH1 0x2 MUL ADD PUSH1 0x0 ADD SLOAD SUB PUSH2 0x1100 JUMPI DUP5 PUSH1 0xC PUSH1 0x0 CALLER PUSH20 0xFFFFFFFFFFFFFFFFFFFFFFFFFFFFFFFFFFFFFFFF AND PUSH20 0xFFFFFFFFFFFFFFFFFFFFFFFFFFFFFFFFFFFFFFFF AND DUP2 MSTORE PUSH1 0x20 ADD SWAP1 DUP2 MSTORE PUSH1 0x20 ADD PUSH1 0x0 KECCAK256 PUSH1 0x1 DUP4 PUSH2 0x10C3 SWAP2 SWAP1 PUSH2 0x2A8E JUMP JUMPDEST DUP2 SLOAD DUP2 LT PUSH2 0x10D4 JUMPI PUSH2 0x10D3 PUSH2 0x2617 JUMP JUMPDEST JUMPDEST SWAP1 PUSH1 0x0 MSTORE PUSH1 0x20 PUSH1 0x0 KECCAK256 SWAP1 PUSH1 0x2 MUL ADD PUSH1 0x1 ADD PUSH1 0x0 DUP3 DUP3 SLOAD PUSH2 0x10F4 SWAP2 SWAP1 PUSH2 0x2757 JUMP JUMPDEST SWAP3 POP POP DUP2 SWAP1 SSTORE POP PUSH2 0x1194 JUMP JUMPDEST PUSH1 0xC PUSH1 0x0 CALLER PUSH20 0xFFFFFFFFFFFFFFFFFFFFFFFFFFFFFFFFFFFFFFFF AND PUSH20 0xFFFFFFFFFFFFFFFFFFFFFFFFFFFFFFFFFFFFFFFF AND DUP2 MSTORE PUSH1 0x20 ADD SWAP1 DUP2 MSTORE PUSH1 0x20 ADD PUSH1 0x0 KECCAK256 PUSH1 0x40 MLOAD DUP1 PUSH1 0x40 ADD PUSH1 0x40 MSTORE DUP1 DUP5 DUP2 MSTORE PUSH1 0x20 ADD DUP8 DUP2 MSTORE POP SWAP1 DUP1 PUSH1 0x1 DUP2 SLOAD ADD DUP1 DUP3 SSTORE DUP1 SWAP2 POP POP PUSH1 0x1 SWAP1 SUB SWAP1 PUSH1 0x0 MSTORE PUSH1 0x20 PUSH1 0x0 KECCAK256 SWAP1 PUSH1 0x2 MUL ADD PUSH1 0x0 SWAP1 SWAP2 SWAP1 SWAP2 SWAP1 SWAP2 POP PUSH1 0x0 DUP3 ADD MLOAD DUP2 PUSH1 0x0 ADD SSTORE PUSH1 0x20 DUP3 ADD MLOAD DUP2 PUSH1 0x1 ADD SSTORE POP POP JUMPDEST JUMPDEST DUP5 PUSH1 0x6 PUSH1 0x0 DUP3 DUP3 SLOAD PUSH2 0x11A7 SWAP2 SWAP1 PUSH2 0x2757 JUMP JUMPDEST SWAP3 POP POP DUP2 SWAP1 SSTORE POP PUSH1 0x2 PUSH1 0x0 SWAP1 SLOAD SWAP1 PUSH2 0x100 EXP SWAP1 DIV PUSH20 0xFFFFFFFFFFFFFFFFFFFFFFFFFFFFFFFFFFFFFFFF AND PUSH20 0xFFFFFFFFFFFFFFFFFFFFFFFFFFFFFFFFFFFFFFFF AND PUSH4 0x23B872DD CALLER PUSH2 0x11F5 PUSH2 0xA3F JUMP JUMPDEST PUSH1 0x8 SLOAD DUP10 PUSH2 0x1203 SWAP2 SWAP1 PUSH2 0x2593 JUMP JUMPDEST PUSH1 0x40 MLOAD DUP5 PUSH4 0xFFFFFFFF AND PUSH1 0xE0 SHL DUP2 MSTORE PUSH1 0x4 ADD PUSH2 0x1221 SWAP4 SWAP3 SWAP2 SWAP1 PUSH2 0x2646 JUMP JUMPDEST PUSH1 0x20 PUSH1 0x40 MLOAD DUP1 DUP4 SUB DUP2 PUSH1 0x0 DUP8 GAS CALL ISZERO DUP1 ISZERO PUSH2 0x1240 JUMPI RETURNDATASIZE PUSH1 0x0 DUP1 RETURNDATACOPY RETURNDATASIZE PUSH1 0x0 REVERT JUMPDEST POP POP POP POP PUSH1 0x40 MLOAD RETURNDATASIZE PUSH1 0x1F NOT PUSH1 0x1F DUP3 ADD AND DUP3 ADD DUP1 PUSH1 0x40 MSTORE POP DUP2 ADD SWAP1 PUSH2 0x1264 SWAP2 SWAP1 PUSH2 0x24CB JUMP JUMPDEST POP POP POP POP POP POP JUMP JUMPDEST DUP1 PUSH1 0x0 DUP2 GT PUSH2 0x12B0 JUMPI PUSH1 0x40 MLOAD PUSH32 0x8C379A000000000000000000000000000000000000000000000000000000000 DUP2 MSTORE PUSH1 0x4 ADD PUSH2 0x12A7 SWAP1 PUSH2 0x27FD JUMP JUMPDEST PUSH1 0x40 MLOAD DUP1 SWAP2 SUB SWAP1 REVERT JUMPDEST PUSH1 0x0 DUP1 PUSH20 0xFFFFFFFFFFFFFFFFFFFFFFFFFFFFFFFFFFFFFFFF AND PUSH1 0x1 PUSH1 0x0 SWAP1 SLOAD SWAP1 PUSH2 0x100 EXP SWAP1 DIV PUSH20 0xFFFFFFFFFFFFFFFFFFFFFFFFFFFFFFFFFFFFFFFF AND PUSH20 0xFFFFFFFFFFFFFFFFFFFFFFFFFFFFFFFFFFFFFFFF AND EQ ISZERO SWAP1 POP PUSH1 0x0 PUSH2 0x1311 TIMESTAMP PUSH2 0x1B82 JUMP JUMPDEST SWAP1 POP PUSH1 0x0 PUSH2 0x131E DUP7 PUSH2 0x1BE5 JUMP JUMPDEST PUSH2 0x1327 DUP4 PUSH2 0x1BE5 JUMP JUMPDEST PUSH2 0x1331 SWAP2 SWAP1 PUSH2 0x2A8E JUMP JUMPDEST SWAP1 POP DUP3 DUP1 ISZERO PUSH2 0x13DB JUMPI POP PUSH1 0x1 PUSH1 0x0 SWAP1 SLOAD SWAP1 PUSH2 0x100 EXP SWAP1 DIV PUSH20 0xFFFFFFFFFFFFFFFFFFFFFFFFFFFFFFFFFFFFFFFF AND PUSH20 0xFFFFFFFFFFFFFFFFFFFFFFFFFFFFFFFFFFFFFFFF AND PUSH4 0xF35F0F74 CALLER PUSH1 0x2 PUSH1 0x40 MLOAD DUP4 PUSH4 0xFFFFFFFF AND PUSH1 0xE0 SHL DUP2 MSTORE PUSH1 0x4 ADD PUSH2 0x1399 SWAP3 SWAP2 SWAP1 PUSH2 0x2476 JUMP JUMPDEST PUSH1 0x20 PUSH1 0x40 MLOAD DUP1 DUP4 SUB DUP2 DUP7 GAS STATICCALL ISZERO DUP1 ISZERO PUSH2 0x13B6 JUMPI RETURNDATASIZE PUSH1 0x0 DUP1 RETURNDATACOPY RETURNDATASIZE PUSH1 0x0 REVERT JUMPDEST POP POP POP POP PUSH1 0x40 MLOAD RETURNDATASIZE PUSH1 0x1F NOT PUSH1 0x1F DUP3 ADD AND DUP3 ADD DUP1 PUSH1 0x40 MSTORE POP DUP2 ADD SWAP1 PUSH2 0x13DA SWAP2 SWAP1 PUSH2 0x24CB JUMP JUMPDEST JUMPDEST PUSH2 0x141A JUMPI PUSH1 0x40 MLOAD PUSH32 0x8C379A000000000000000000000000000000000000000000000000000000000 DUP2 MSTORE PUSH1 0x4 ADD PUSH2 0x1411 SWAP1 PUSH2 0x2544 JUMP JUMPDEST PUSH1 0x40 MLOAD DUP1 SWAP2 SUB SWAP1 REVERT JUMPDEST DUP5 PUSH2 0x1423 PUSH2 0x464 JUMP JUMPDEST LT ISZERO PUSH2 0x1464 JUMPI PUSH1 0x40 MLOAD PUSH32 0x8C379A000000000000000000000000000000000000000000000000000000000 DUP2 MSTORE PUSH1 0x4 ADD PUSH2 0x145B SWAP1 PUSH2 0x2B34 JUMP JUMPDEST PUSH1 0x40 MLOAD DUP1 SWAP2 SUB SWAP1 REVERT JUMPDEST PUSH1 0x8 SLOAD DUP6 PUSH2 0x1472 SWAP2 SWAP1 PUSH2 0x2593 JUMP JUMPDEST PUSH1 0x2 PUSH1 0x0 SWAP1 SLOAD SWAP1 PUSH2 0x100 EXP SWAP1 DIV PUSH20 0xFFFFFFFFFFFFFFFFFFFFFFFFFFFFFFFFFFFFFFFF AND PUSH20 0xFFFFFFFFFFFFFFFFFFFFFFFFFFFFFFFFFFFFFFFF AND PUSH4 0x70A08231 PUSH2 0x14B8 PUSH2 0xA3F JUMP JUMPDEST PUSH1 0x40 MLOAD DUP3 PUSH4 0xFFFFFFFF AND PUSH1 0xE0 SHL DUP2 MSTORE PUSH1 0x4 ADD PUSH2 0x14D4 SWAP2 SWAP1 PUSH2 0x22AF JUMP JUMPDEST PUSH1 0x20 PUSH1 0x40 MLOAD DUP1 DUP4 SUB DUP2 DUP7 GAS STATICCALL ISZERO DUP1 ISZERO PUSH2 0x14F1 JUMPI RETURNDATASIZE PUSH1 0x0 DUP1 RETURNDATACOPY RETURNDATASIZE PUSH1 0x0 REVERT JUMPDEST POP POP POP POP PUSH1 0x40 MLOAD RETURNDATASIZE PUSH1 0x1F NOT PUSH1 0x1F DUP3 ADD AND DUP3 ADD DUP1 PUSH1 0x40 MSTORE POP DUP2 ADD SWAP1 PUSH2 0x1515 SWAP2 SWAP1 PUSH2 0x25EA JUMP JUMPDEST LT ISZERO PUSH2 0x1520 JUMPI PUSH1 0x0 DUP1 REVERT JUMPDEST PUSH1 0x8 SLOAD DUP6 PUSH2 0x152E SWAP2 SWAP1 PUSH2 0x2593 JUMP JUMPDEST PUSH1 0x2 PUSH1 0x0 SWAP1 SLOAD SWAP1 PUSH2 0x100 EXP SWAP1 DIV PUSH20 0xFFFFFFFFFFFFFFFFFFFFFFFFFFFFFFFFFFFFFFFF AND PUSH20 0xFFFFFFFFFFFFFFFFFFFFFFFFFFFFFFFFFFFFFFFF AND PUSH4 0xDD62ED3E PUSH2 0x1574 PUSH2 0xA3F JUMP JUMPDEST ADDRESS PUSH1 0x40 MLOAD DUP4 PUSH4 0xFFFFFFFF AND PUSH1 0xE0 SHL DUP2 MSTORE PUSH1 0x4 ADD PUSH2 0x1592 SWAP3 SWAP2 SWAP1 PUSH2 0x29D3 JUMP JUMPDEST PUSH1 0x20 PUSH1 0x40 MLOAD DUP1 DUP4 SUB DUP2 DUP7 GAS STATICCALL ISZERO DUP1 ISZERO PUSH2 0x15AF JUMPI RETURNDATASIZE PUSH1 0x0 DUP1 RETURNDATACOPY RETURNDATASIZE PUSH1 0x0 REVERT JUMPDEST POP POP POP POP PUSH1 0x40 MLOAD RETURNDATASIZE PUSH1 0x1F NOT PUSH1 0x1F DUP3 ADD AND DUP3 ADD DUP1 PUSH1 0x40 MSTORE POP DUP2 ADD SWAP1 PUSH2 0x15D3 SWAP2 SWAP1 PUSH2 0x25EA JUMP JUMPDEST LT ISZERO PUSH2 0x1614 JUMPI PUSH1 0x40 MLOAD PUSH32 0x8C379A000000000000000000000000000000000000000000000000000000000 DUP2 MSTORE PUSH1 0x4 ADD PUSH2 0x160B SWAP1 PUSH2 0x2BA0 JUMP JUMPDEST PUSH1 0x40 MLOAD DUP1 SWAP2 SUB SWAP1 REVERT JUMPDEST DUP6 DUP3 GT PUSH2 0x1656 JUMPI PUSH1 0x40 MLOAD PUSH32 0x8C379A000000000000000000000000000000000000000000000000000000000 DUP2 MSTORE PUSH1 0x4 ADD PUSH2 0x164D SWAP1 PUSH2 0x2C58 JUMP JUMPDEST PUSH1 0x40 MLOAD DUP1 SWAP2 SUB SWAP1 REVERT JUMPDEST PUSH1 0x0 JUMPDEST PUSH1 0xC PUSH1 0x0 CALLER PUSH20 0xFFFFFFFFFFFFFFFFFFFFFFFFFFFFFFFFFFFFFFFF AND PUSH20 0xFFFFFFFFFFFFFFFFFFFFFFFFFFFFFFFFFFFFFFFF AND DUP2 MSTORE PUSH1 0x20 ADD SWAP1 DUP2 MSTORE PUSH1 0x20 ADD PUSH1 0x0 KECCAK256 DUP1 SLOAD SWAP1 POP DUP2 LT ISZERO PUSH2 0x18EF JUMPI DUP7 PUSH1 0xC PUSH1 0x0 CALLER PUSH20 0xFFFFFFFFFFFFFFFFFFFFFFFFFFFFFFFFFFFFFFFF AND PUSH20 0xFFFFFFFFFFFFFFFFFFFFFFFFFFFFFFFFFFFFFFFF AND DUP2 MSTORE PUSH1 0x20 ADD SWAP1 DUP2 MSTORE PUSH1 0x20 ADD PUSH1 0x0 KECCAK256 DUP3 DUP2 SLOAD DUP2 LT PUSH2 0x16F5 JUMPI PUSH2 0x16F4 PUSH2 0x2617 JUMP JUMPDEST JUMPDEST SWAP1 PUSH1 0x0 MSTORE PUSH1 0x20 PUSH1 0x0 KECCAK256 SWAP1 PUSH1 0x2 MUL ADD PUSH1 0x0 ADD SLOAD SUB PUSH2 0x18DC JUMPI DUP6 PUSH1 0xC PUSH1 0x0 CALLER PUSH20 0xFFFFFFFFFFFFFFFFFFFFFFFFFFFFFFFFFFFFFFFF AND PUSH20 0xFFFFFFFFFFFFFFFFFFFFFFFFFFFFFFFFFFFFFFFF AND DUP2 MSTORE PUSH1 0x20 ADD SWAP1 DUP2 MSTORE PUSH1 0x20 ADD PUSH1 0x0 KECCAK256 DUP3 DUP2 SLOAD DUP2 LT PUSH2 0x175E JUMPI PUSH2 0x175D PUSH2 0x2617 JUMP JUMPDEST JUMPDEST SWAP1 PUSH1 0x0 MSTORE PUSH1 0x20 PUSH1 0x0 KECCAK256 SWAP1 PUSH1 0x2 MUL ADD PUSH1 0x1 ADD SLOAD LT PUSH2 0x18DB JUMPI DUP6 PUSH1 0xC PUSH1 0x0 CALLER PUSH20 0xFFFFFFFFFFFFFFFFFFFFFFFFFFFFFFFFFFFFFFFF AND PUSH20 0xFFFFFFFFFFFFFFFFFFFFFFFFFFFFFFFFFFFFFFFF AND DUP2 MSTORE PUSH1 0x20 ADD SWAP1 DUP2 MSTORE PUSH1 0x20 ADD PUSH1 0x0 KECCAK256 DUP3 DUP2 SLOAD DUP2 LT PUSH2 0x17C7 JUMPI PUSH2 0x17C6 PUSH2 0x2617 JUMP JUMPDEST JUMPDEST SWAP1 PUSH1 0x0 MSTORE PUSH1 0x20 PUSH1 0x0 KECCAK256 SWAP1 PUSH1 0x2 MUL ADD PUSH1 0x1 ADD PUSH1 0x0 DUP3 DUP3 SLOAD PUSH2 0x17E7 SWAP2 SWAP1 PUSH2 0x2A8E JUMP JUMPDEST SWAP3 POP POP DUP2 SWAP1 SSTORE POP DUP6 PUSH1 0x6 PUSH1 0x0 DUP3 DUP3 SLOAD PUSH2 0x1800 SWAP2 SWAP1 PUSH2 0x2A8E JUMP JUMPDEST SWAP3 POP POP DUP2 SWAP1 SSTORE POP PUSH1 0x2 PUSH1 0x0 SWAP1 SLOAD SWAP1 PUSH2 0x100 EXP SWAP1 DIV PUSH20 0xFFFFFFFFFFFFFFFFFFFFFFFFFFFFFFFFFFFFFFFF AND PUSH20 0xFFFFFFFFFFFFFFFFFFFFFFFFFFFFFFFFFFFFFFFF AND PUSH4 0x23B872DD PUSH2 0x184D PUSH2 0xA3F JUMP JUMPDEST CALLER DUP6 PUSH1 0x9 SLOAD PUSH2 0x185C SWAP2 SWAP1 PUSH2 0x2593 JUMP JUMPDEST PUSH1 0x8 SLOAD PUSH2 0x1869 SWAP2 SWAP1 PUSH2 0x2757 JUMP JUMPDEST DUP11 PUSH2 0x1874 SWAP2 SWAP1 PUSH2 0x2593 JUMP JUMPDEST PUSH1 0x40 MLOAD DUP5 PUSH4 0xFFFFFFFF AND PUSH1 0xE0 SHL DUP2 MSTORE PUSH1 0x4 ADD PUSH2 0x1892 SWAP4 SWAP3 SWAP2 SWAP1 PUSH2 0x2646 JUMP JUMPDEST PUSH1 0x20 PUSH1 0x40 MLOAD DUP1 DUP4 SUB DUP2 PUSH1 0x0 DUP8 GAS CALL ISZERO DUP1 ISZERO PUSH2 0x18B1 JUMPI RETURNDATASIZE PUSH1 0x0 DUP1 RETURNDATACOPY RETURNDATASIZE PUSH1 0x0 REVERT JUMPDEST POP POP POP POP PUSH1 0x40 MLOAD RETURNDATASIZE PUSH1 0x1F NOT PUSH1 0x1F DUP3 ADD AND DUP3 ADD DUP1 PUSH1 0x40 MSTORE POP DUP2 ADD SWAP1 PUSH2 0x18D5 SWAP2 SWAP1 PUSH2 0x24CB JUMP JUMPDEST POP PUSH2 0x18EF JUMP JUMPDEST JUMPDEST DUP1 DUP1 PUSH2 0x18E7 SWAP1 PUSH2 0x267D JUMP JUMPDEST SWAP2 POP POP PUSH2 0x1659 JUMP JUMPDEST POP POP POP POP POP POP POP JUMP JUMPDEST PUSH2 0x1900 PUSH2 0x197B JUMP JUMPDEST PUSH1 0x0 PUSH20 0xFFFFFFFFFFFFFFFFFFFFFFFFFFFFFFFFFFFFFFFF AND DUP2 PUSH20 0xFFFFFFFFFFFFFFFFFFFFFFFFFFFFFFFFFFFFFFFF AND SUB PUSH2 0x196F JUMPI PUSH1 0x40 MLOAD PUSH32 0x8C379A000000000000000000000000000000000000000000000000000000000 DUP2 MSTORE PUSH1 0x4 ADD PUSH2 0x1966 SWAP1 PUSH2 0x2CEA JUMP JUMPDEST PUSH1 0x40 MLOAD DUP1 SWAP2 SUB SWAP1 REVERT JUMPDEST PUSH2 0x1978 DUP2 PUSH2 0x1A5B JUMP JUMPDEST POP JUMP JUMPDEST PUSH2 0x1983 PUSH2 0x1D74 JUMP JUMPDEST PUSH20 0xFFFFFFFFFFFFFFFFFFFFFFFFFFFFFFFFFFFFFFFF AND PUSH2 0x19A1 PUSH2 0xA3F JUMP JUMPDEST PUSH20 0xFFFFFFFFFFFFFFFFFFFFFFFFFFFFFFFFFFFFFFFF AND EQ PUSH2 0x19F7 JUMPI PUSH1 0x40 MLOAD PUSH32 0x8C379A000000000000000000000000000000000000000000000000000000000 DUP2 MSTORE PUSH1 0x4 ADD PUSH2 0x19EE SWAP1 PUSH2 0x2D56 JUMP JUMPDEST PUSH1 0x40 MLOAD DUP1 SWAP2 SUB SWAP1 REVERT JUMPDEST JUMP JUMPDEST PUSH2 0x1A01 PUSH2 0x1D7C JUMP JUMPDEST PUSH1 0x0 DUP1 PUSH1 0x0 PUSH2 0x100 EXP DUP2 SLOAD DUP2 PUSH1 0xFF MUL NOT AND SWAP1 DUP4 ISZERO ISZERO MUL OR SWAP1 SSTORE POP PUSH32 0x5DB9EE0A495BF2E6FF9C91A7834C1BA4FDD244A5E8AA4E537BD38AEAE4B073AA PUSH2 0x1A44 PUSH2 0x1D74 JUMP JUMPDEST PUSH1 0x40 MLOAD PUSH2 0x1A51 SWAP2 SWAP1 PUSH2 0x22AF JUMP JUMPDEST PUSH1 0x40 MLOAD DUP1 SWAP2 SUB SWAP1 LOG1 JUMP JUMPDEST PUSH1 0x0 DUP1 PUSH1 0x1 SWAP1 SLOAD SWAP1 PUSH2 0x100 EXP SWAP1 DIV PUSH20 0xFFFFFFFFFFFFFFFFFFFFFFFFFFFFFFFFFFFFFFFF AND SWAP1 POP DUP2 PUSH1 0x0 PUSH1 0x1 PUSH2 0x100 EXP DUP2 SLOAD DUP2 PUSH20 0xFFFFFFFFFFFFFFFFFFFFFFFFFFFFFFFFFFFFFFFF MUL NOT AND SWAP1 DUP4 PUSH20 0xFFFFFFFFFFFFFFFFFFFFFFFFFFFFFFFFFFFFFFFF AND MUL OR SWAP1 SSTORE POP DUP2 PUSH20 0xFFFFFFFFFFFFFFFFFFFFFFFFFFFFFFFFFFFFFFFF AND DUP2 PUSH20 0xFFFFFFFFFFFFFFFFFFFFFFFFFFFFFFFFFFFFFFFF AND PUSH32 0x8BE0079C531659141344CD1FD0A4F28419497F9722A3DAAFE3B4186F6B6457E0 PUSH1 0x40 MLOAD PUSH1 0x40 MLOAD DUP1 SWAP2 SUB SWAP1 LOG3 POP POP JUMP JUMPDEST PUSH2 0x1B28 PUSH2 0x1DC5 JUMP JUMPDEST PUSH1 0x1 PUSH1 0x0 DUP1 PUSH2 0x100 EXP DUP2 SLOAD DUP2 PUSH1 0xFF MUL NOT AND SWAP1 DUP4 ISZERO ISZERO MUL OR SWAP1 SSTORE POP PUSH32 0x62E78CEA01BEE320CD4E420270B5EA74000D11B0C9F74754EBDBFC544B05A258 PUSH2 0x1B6B PUSH2 0x1D74 JUMP JUMPDEST PUSH1 0x40 MLOAD PUSH2 0x1B78 SWAP2 SWAP1 PUSH2 0x22AF JUMP JUMPDEST PUSH1 0x40 MLOAD DUP1 SWAP2 SUB SWAP1 LOG1 JUMP JUMPDEST PUSH1 0x0 DUP1 PUSH1 0x0 DUP1 PUSH2 0x1B9F PUSH3 0x15180 DUP7 PUSH2 0x1B9A SWAP2 SWAP1 PUSH2 0x2DA5 JUMP JUMPDEST PUSH2 0x1E0F JUMP JUMPDEST DUP1 SWAP4 POP DUP2 SWAP5 POP DUP3 SWAP6 POP POP POP POP DUP1 PUSH1 0x64 DUP4 PUSH2 0x1BB9 SWAP2 SWAP1 PUSH2 0x2593 JUMP JUMPDEST PUSH2 0x2710 DUP6 PUSH2 0x1BC7 SWAP2 SWAP1 PUSH2 0x2593 JUMP JUMPDEST PUSH2 0x1BD1 SWAP2 SWAP1 PUSH2 0x2757 JUMP JUMPDEST PUSH2 0x1BDB SWAP2 SWAP1 PUSH2 0x2757 JUMP JUMPDEST SWAP4 POP POP POP POP SWAP2 SWAP1 POP JUMP JUMPDEST PUSH1 0x0 PUSH4 0x12CC030 DUP3 LT ISZERO PUSH2 0x1BF8 JUMPI PUSH1 0x0 DUP1 REVERT JUMPDEST PUSH1 0x0 PUSH1 0x64 DUP4 PUSH2 0x1C07 SWAP2 SWAP1 PUSH2 0x2DD6 JUMP JUMPDEST SWAP1 POP PUSH1 0x0 PUSH1 0x64 DUP1 DUP6 PUSH2 0x1C19 SWAP2 SWAP1 PUSH2 0x2DA5 JUMP JUMPDEST PUSH2 0x1C23 SWAP2 SWAP1 PUSH2 0x2DD6 JUMP JUMPDEST SWAP1 POP PUSH1 0x0 PUSH2 0x2710 DUP6 PUSH2 0x1C35 SWAP2 SWAP1 PUSH2 0x2DA5 JUMP JUMPDEST SWAP1 POP PUSH1 0x0 PUSH3 0x253D8C PUSH1 0x4 PUSH1 0x64 PUSH1 0xC PUSH1 0xE DUP8 PUSH2 0x1C50 SWAP2 SWAP1 PUSH2 0x2E11 JUMP JUMPDEST PUSH2 0x1C5A SWAP2 SWAP1 PUSH2 0x2E54 JUMP JUMPDEST PUSH2 0x1324 DUP7 PUSH2 0x1C68 SWAP2 SWAP1 PUSH2 0x2EBE JUMP JUMPDEST PUSH2 0x1C72 SWAP2 SWAP1 PUSH2 0x2EBE JUMP JUMPDEST PUSH2 0x1C7C SWAP2 SWAP1 PUSH2 0x2E54 JUMP JUMPDEST PUSH1 0x3 PUSH2 0x1C88 SWAP2 SWAP1 PUSH2 0x2F02 JUMP JUMPDEST PUSH2 0x1C92 SWAP2 SWAP1 PUSH2 0x2E54 JUMP JUMPDEST PUSH1 0xC DUP1 PUSH1 0xC PUSH1 0xE DUP9 PUSH2 0x1CA4 SWAP2 SWAP1 PUSH2 0x2E11 JUMP JUMPDEST PUSH2 0x1CAE SWAP2 SWAP1 PUSH2 0x2E54 JUMP JUMPDEST PUSH2 0x1CB8 SWAP2 SWAP1 PUSH2 0x2F02 JUMP JUMPDEST PUSH1 0x2 DUP8 PUSH2 0x1CC5 SWAP2 SWAP1 PUSH2 0x2E11 JUMP JUMPDEST PUSH2 0x1CCF SWAP2 SWAP1 PUSH2 0x2E11 JUMP JUMPDEST PUSH2 0x16F PUSH2 0x1CDC SWAP2 SWAP1 PUSH2 0x2F02 JUMP JUMPDEST PUSH2 0x1CE6 SWAP2 SWAP1 PUSH2 0x2E54 JUMP JUMPDEST PUSH1 0x4 PUSH1 0xC PUSH1 0xE DUP9 PUSH2 0x1CF7 SWAP2 SWAP1 PUSH2 0x2E11 JUMP JUMPDEST PUSH2 0x1D01 SWAP2 SWAP1 PUSH2 0x2E54 JUMP JUMPDEST PUSH2 0x12C0 DUP8 PUSH2 0x1D0F SWAP2 SWAP1 PUSH2 0x2EBE JUMP JUMPDEST PUSH2 0x1D19 SWAP2 SWAP1 PUSH2 0x2EBE JUMP JUMPDEST PUSH2 0x5B5 PUSH2 0x1D26 SWAP2 SWAP1 PUSH2 0x2F02 JUMP JUMPDEST PUSH2 0x1D30 SWAP2 SWAP1 PUSH2 0x2E54 JUMP JUMPDEST PUSH2 0x7D4B DUP9 PUSH2 0x1D3E SWAP2 SWAP1 PUSH2 0x2E11 JUMP JUMPDEST PUSH2 0x1D48 SWAP2 SWAP1 PUSH2 0x2EBE JUMP JUMPDEST PUSH2 0x1D52 SWAP2 SWAP1 PUSH2 0x2EBE JUMP JUMPDEST PUSH2 0x1D5C SWAP2 SWAP1 PUSH2 0x2E11 JUMP JUMPDEST PUSH2 0x1D66 SWAP2 SWAP1 PUSH2 0x2E11 JUMP JUMPDEST SWAP1 POP DUP1 SWAP5 POP POP POP POP POP SWAP2 SWAP1 POP JUMP JUMPDEST PUSH1 0x0 CALLER SWAP1 POP SWAP1 JUMP JUMPDEST PUSH2 0x1D84 PUSH2 0x8B8 JUMP JUMPDEST PUSH2 0x1DC3 JUMPI PUSH1 0x40 MLOAD PUSH32 0x8C379A000000000000000000000000000000000000000000000000000000000 DUP2 MSTORE PUSH1 0x4 ADD PUSH2 0x1DBA SWAP1 PUSH2 0x2FC6 JUMP JUMPDEST PUSH1 0x40 MLOAD DUP1 SWAP2 SUB SWAP1 REVERT JUMPDEST JUMP JUMPDEST PUSH2 0x1DCD PUSH2 0x8B8 JUMP JUMPDEST ISZERO PUSH2 0x1E0D JUMPI PUSH1 0x40 MLOAD PUSH32 0x8C379A000000000000000000000000000000000000000000000000000000000 DUP2 MSTORE PUSH1 0x4 ADD PUSH2 0x1E04 SWAP1 PUSH2 0x3032 JUMP JUMPDEST PUSH1 0x40 MLOAD DUP1 SWAP2 SUB SWAP1 REVERT JUMPDEST JUMP JUMPDEST PUSH1 0x0 DUP1 PUSH1 0x0 DUP1 DUP5 SWAP1 POP PUSH1 0x0 PUSH3 0x253D8C PUSH3 0x10BD9 DUP4 PUSH2 0x1E2D SWAP2 SWAP1 PUSH2 0x2EBE JUMP JUMPDEST PUSH2 0x1E37 SWAP2 SWAP1 PUSH2 0x2EBE JUMP JUMPDEST SWAP1 POP PUSH1 0x0 PUSH3 0x23AB1 DUP3 PUSH1 0x4 PUSH2 0x1E4C SWAP2 SWAP1 PUSH2 0x2F02 JUMP JUMPDEST PUSH2 0x1E56 SWAP2 SWAP1 PUSH2 0x2E54 JUMP JUMPDEST SWAP1 POP PUSH1 0x4 PUSH1 0x3 DUP3 PUSH3 0x23AB1 PUSH2 0x1E6B SWAP2 SWAP1 PUSH2 0x2F02 JUMP JUMPDEST PUSH2 0x1E75 SWAP2 SWAP1 PUSH2 0x2EBE JUMP JUMPDEST PUSH2 0x1E7F SWAP2 SWAP1 PUSH2 0x2E54 JUMP JUMPDEST DUP3 PUSH2 0x1E8A SWAP2 SWAP1 PUSH2 0x2E11 JUMP JUMPDEST SWAP2 POP PUSH1 0x0 PUSH3 0x164B09 PUSH1 0x1 DUP5 PUSH2 0x1E9F SWAP2 SWAP1 PUSH2 0x2EBE JUMP JUMPDEST PUSH2 0xFA0 PUSH2 0x1EAC SWAP2 SWAP1 PUSH2 0x2F02 JUMP JUMPDEST PUSH2 0x1EB6 SWAP2 SWAP1 PUSH2 0x2E54 JUMP JUMPDEST SWAP1 POP PUSH1 0x1F PUSH1 0x4 DUP3 PUSH2 0x5B5 PUSH2 0x1ECA SWAP2 SWAP1 PUSH2 0x2F02 JUMP JUMPDEST PUSH2 0x1ED4 SWAP2 SWAP1 PUSH2 0x2E54 JUMP JUMPDEST DUP5 PUSH2 0x1EDF SWAP2 SWAP1 PUSH2 0x2E11 JUMP JUMPDEST PUSH2 0x1EE9 SWAP2 SWAP1 PUSH2 0x2EBE JUMP JUMPDEST SWAP3 POP PUSH1 0x0 PUSH2 0x98F DUP5 PUSH1 0x50 PUSH2 0x1EFD SWAP2 SWAP1 PUSH2 0x2F02 JUMP JUMPDEST PUSH2 0x1F07 SWAP2 SWAP1 PUSH2 0x2E54 JUMP JUMPDEST SWAP1 POP PUSH1 0x0 PUSH1 0x50 DUP3 PUSH2 0x98F PUSH2 0x1F1B SWAP2 SWAP1 PUSH2 0x2F02 JUMP JUMPDEST PUSH2 0x1F25 SWAP2 SWAP1 PUSH2 0x2E54 JUMP JUMPDEST DUP6 PUSH2 0x1F30 SWAP2 SWAP1 PUSH2 0x2E11 JUMP JUMPDEST SWAP1 POP PUSH1 0xB DUP3 PUSH2 0x1F3F SWAP2 SWAP1 PUSH2 0x2E54 JUMP JUMPDEST SWAP5 POP DUP5 PUSH1 0xC PUSH2 0x1F4E SWAP2 SWAP1 PUSH2 0x2F02 JUMP JUMPDEST PUSH1 0x2 DUP4 PUSH2 0x1F5B SWAP2 SWAP1 PUSH2 0x2EBE JUMP JUMPDEST PUSH2 0x1F65 SWAP2 SWAP1 PUSH2 0x2E11 JUMP JUMPDEST SWAP2 POP DUP5 DUP4 PUSH1 0x31 DUP7 PUSH2 0x1F76 SWAP2 SWAP1 PUSH2 0x2E11 JUMP JUMPDEST PUSH1 0x64 PUSH2 0x1F82 SWAP2 SWAP1 PUSH2 0x2F02 JUMP JUMPDEST PUSH2 0x1F8C SWAP2 SWAP1 PUSH2 0x2EBE JUMP JUMPDEST PUSH2 0x1F96 SWAP2 SWAP1 PUSH2 0x2EBE JUMP JUMPDEST SWAP3 POP DUP3 SWAP9 POP DUP2 SWAP8 POP DUP1 SWAP7 POP POP POP POP POP POP POP SWAP2 SWAP4 SWAP1 SWAP3 POP JUMP JUMPDEST PUSH1 0x0 DUP1 REVERT JUMPDEST PUSH1 0x0 PUSH20 0xFFFFFFFFFFFFFFFFFFFFFFFFFFFFFFFFFFFFFFFF DUP3 AND SWAP1 POP SWAP2 SWAP1 POP JUMP JUMPDEST PUSH1 0x0 PUSH2 0x1FDE DUP3 PUSH2 0x1FB3 JUMP JUMPDEST SWAP1 POP SWAP2 SWAP1 POP JUMP JUMPDEST PUSH2 0x1FEE DUP2 PUSH2 0x1FD3 JUMP JUMPDEST DUP2 EQ PUSH2 0x1FF9 JUMPI PUSH1 0x0 DUP1 REVERT JUMPDEST POP JUMP JUMPDEST PUSH1 0x0 DUP2 CALLDATALOAD SWAP1 POP PUSH2 0x200B DUP2 PUSH2 0x1FE5 JUMP JUMPDEST SWAP3 SWAP2 POP POP JUMP JUMPDEST PUSH1 0x0 PUSH1 0x20 DUP3 DUP5 SUB SLT ISZERO PUSH2 0x2027 JUMPI PUSH2 0x2026 PUSH2 0x1FAE JUMP JUMPDEST JUMPDEST PUSH1 0x0 PUSH2 0x2035 DUP5 DUP3 DUP6 ADD PUSH2 0x1FFC JUMP JUMPDEST SWAP2 POP POP SWAP3 SWAP2 POP POP JUMP JUMPDEST PUSH1 0x0 DUP2 MLOAD SWAP1 POP SWAP2 SWAP1 POP JUMP JUMPDEST PUSH1 0x0 DUP3 DUP3 MSTORE PUSH1 0x20 DUP3 ADD SWAP1 POP SWAP3 SWAP2 POP POP JUMP JUMPDEST PUSH1 0x0 DUP2 SWAP1 POP PUSH1 0x20 DUP3 ADD SWAP1 POP SWAP2 SWAP1 POP JUMP JUMPDEST PUSH1 0x0 DUP2 SWAP1 POP SWAP2 SWAP1 POP JUMP JUMPDEST PUSH2 0x207D DUP2 PUSH2 0x206A JUMP JUMPDEST DUP3 MSTORE POP POP JUMP JUMPDEST PUSH1 0x40 DUP3 ADD PUSH1 0x0 DUP3 ADD MLOAD PUSH2 0x2099 PUSH1 0x0 DUP6 ADD DUP3 PUSH2 0x2074 JUMP JUMPDEST POP PUSH1 0x20 DUP3 ADD MLOAD PUSH2 0x20AC PUSH1 0x20 DUP6 ADD DUP3 PUSH2 0x2074 JUMP JUMPDEST POP POP POP POP JUMP JUMPDEST PUSH1 0x0 PUSH2 0x20BE DUP4 DUP4 PUSH2 0x2083 JUMP JUMPDEST PUSH1 0x40 DUP4 ADD SWAP1 POP SWAP3 SWAP2 POP POP JUMP JUMPDEST PUSH1 0x0 PUSH1 0x20 DUP3 ADD SWAP1 POP SWAP2 SWAP1 POP JUMP JUMPDEST PUSH1 0x0 PUSH2 0x20E2 DUP3 PUSH2 0x203E JUMP JUMPDEST PUSH2 0x20EC DUP2 DUP6 PUSH2 0x2049 JUMP JUMPDEST SWAP4 POP PUSH2 0x20F7 DUP4 PUSH2 0x205A JUMP JUMPDEST DUP1 PUSH1 0x0 JUMPDEST DUP4 DUP2 LT ISZERO PUSH2 0x2128 JUMPI DUP2 MLOAD PUSH2 0x210F DUP9 DUP3 PUSH2 0x20B2 JUMP JUMPDEST SWAP8 POP PUSH2 0x211A DUP4 PUSH2 0x20CA JUMP JUMPDEST SWAP3 POP POP PUSH1 0x1 DUP2 ADD SWAP1 POP PUSH2 0x20FB JUMP JUMPDEST POP DUP6 SWAP4 POP POP POP POP SWAP3 SWAP2 POP POP JUMP JUMPDEST PUSH1 0x0 PUSH1 0x20 DUP3 ADD SWAP1 POP DUP2 DUP2 SUB PUSH1 0x0 DUP4 ADD MSTORE PUSH2 0x214F DUP2 DUP5 PUSH2 0x20D7 JUMP JUMPDEST SWAP1 POP SWAP3 SWAP2 POP POP JUMP JUMPDEST PUSH1 0x0 DUP2 MLOAD SWAP1 POP SWAP2 SWAP1 POP JUMP JUMPDEST PUSH1 0x0 DUP3 DUP3 MSTORE PUSH1 0x20 DUP3 ADD SWAP1 POP SWAP3 SWAP2 POP POP JUMP JUMPDEST PUSH1 0x0 JUMPDEST DUP4 DUP2 LT ISZERO PUSH2 0x2191 JUMPI DUP1 DUP3 ADD MLOAD DUP2 DUP5 ADD MSTORE PUSH1 0x20 DUP2 ADD SWAP1 POP PUSH2 0x2176 JUMP JUMPDEST PUSH1 0x0 DUP5 DUP5 ADD MSTORE POP POP POP POP JUMP JUMPDEST PUSH1 0x0 PUSH1 0x1F NOT PUSH1 0x1F DUP4 ADD AND SWAP1 POP SWAP2 SWAP1 POP JUMP JUMPDEST PUSH1 0x0 PUSH2 0x21B9 DUP3 PUSH2 0x2157 JUMP JUMPDEST PUSH2 0x21C3 DUP2 DUP6 PUSH2 0x2162 JUMP JUMPDEST SWAP4 POP PUSH2 0x21D3 DUP2 DUP6 PUSH1 0x20 DUP7 ADD PUSH2 0x2173 JUMP JUMPDEST PUSH2 0x21DC DUP2 PUSH2 0x219D JUMP JUMPDEST DUP5 ADD SWAP2 POP POP SWAP3 SWAP2 POP POP JUMP JUMPDEST PUSH1 0x0 PUSH1 0x20 DUP3 ADD SWAP1 POP DUP2 DUP2 SUB PUSH1 0x0 DUP4 ADD MSTORE PUSH2 0x2201 DUP2 DUP5 PUSH2 0x21AE JUMP JUMPDEST SWAP1 POP SWAP3 SWAP2 POP POP JUMP JUMPDEST PUSH2 0x2212 DUP2 PUSH2 0x206A JUMP JUMPDEST DUP3 MSTORE POP POP JUMP JUMPDEST PUSH1 0x0 PUSH1 0x20 DUP3 ADD SWAP1 POP PUSH2 0x222D PUSH1 0x0 DUP4 ADD DUP5 PUSH2 0x2209 JUMP JUMPDEST SWAP3 SWAP2 POP POP JUMP JUMPDEST PUSH1 0x0 PUSH1 0xFF DUP3 AND SWAP1 POP SWAP2 SWAP1 POP JUMP JUMPDEST PUSH2 0x2249 DUP2 PUSH2 0x2233 JUMP JUMPDEST DUP3 MSTORE POP POP JUMP JUMPDEST PUSH1 0x0 PUSH1 0x20 DUP3 ADD SWAP1 POP PUSH2 0x2264 PUSH1 0x0 DUP4 ADD DUP5 PUSH2 0x2240 JUMP JUMPDEST SWAP3 SWAP2 POP POP JUMP JUMPDEST PUSH1 0x0 DUP2 ISZERO ISZERO SWAP1 POP SWAP2 SWAP1 POP JUMP JUMPDEST PUSH2 0x227F DUP2 PUSH2 0x226A JUMP JUMPDEST DUP3 MSTORE POP POP JUMP JUMPDEST PUSH1 0x0 PUSH1 0x20 DUP3 ADD SWAP1 POP PUSH2 0x229A PUSH1 0x0 DUP4 ADD DUP5 PUSH2 0x2276 JUMP JUMPDEST SWAP3 SWAP2 POP POP JUMP JUMPDEST PUSH2 0x22A9 DUP2 PUSH2 0x1FD3 JUMP JUMPDEST DUP3 MSTORE POP POP JUMP JUMPDEST PUSH1 0x0 PUSH1 0x20 DUP3 ADD SWAP1 POP PUSH2 0x22C4 PUSH1 0x0 DUP4 ADD DUP5 PUSH2 0x22A0 JUMP JUMPDEST SWAP3 SWAP2 POP POP JUMP JUMPDEST PUSH2 0x22D3 DUP2 PUSH2 0x206A JUMP JUMPDEST DUP2 EQ PUSH2 0x22DE JUMPI PUSH1 0x0 DUP1 REVERT JUMPDEST POP JUMP JUMPDEST PUSH1 0x0 DUP2 CALLDATALOAD SWAP1 POP PUSH2 0x22F0 DUP2 PUSH2 0x22CA JUMP JUMPDEST SWAP3 SWAP2 POP POP JUMP JUMPDEST PUSH1 0x0 PUSH1 0x20 DUP3 DUP5 SUB SLT ISZERO PUSH2 0x230C JUMPI PUSH2 0x230B PUSH2 0x1FAE JUMP JUMPDEST JUMPDEST PUSH1 0x0 PUSH2 0x231A DUP5 DUP3 DUP6 ADD PUSH2 0x22E1 JUMP JUMPDEST SWAP2 POP POP SWAP3 SWAP2 POP POP JUMP JUMPDEST PUSH1 0x0 DUP1 PUSH1 0x40 DUP4 DUP6 SUB SLT ISZERO PUSH2 0x233A JUMPI PUSH2 0x2339 PUSH2 0x1FAE JUMP JUMPDEST JUMPDEST PUSH1 0x0 PUSH2 0x2348 DUP6 DUP3 DUP7 ADD PUSH2 0x22E1 JUMP JUMPDEST SWAP3 POP POP PUSH1 0x20 PUSH2 0x2359 DUP6 DUP3 DUP7 ADD PUSH2 0x22E1 JUMP JUMPDEST SWAP2 POP POP SWAP3 POP SWAP3 SWAP1 POP JUMP JUMPDEST PUSH32 0x4C697374696E6720626F6E64732066726F6D20207A65726F2061646472657373 PUSH1 0x0 DUP3 ADD MSTORE PUSH32 0x2E00000000000000000000000000000000000000000000000000000000000000 PUSH1 0x20 DUP3 ADD MSTORE POP JUMP JUMPDEST PUSH1 0x0 PUSH2 0x23BF PUSH1 0x21 DUP4 PUSH2 0x2162 JUMP JUMPDEST SWAP2 POP PUSH2 0x23CA DUP3 PUSH2 0x2363 JUMP JUMPDEST PUSH1 0x40 DUP3 ADD SWAP1 POP SWAP2 SWAP1 POP JUMP JUMPDEST PUSH1 0x0 PUSH1 0x20 DUP3 ADD SWAP1 POP DUP2 DUP2 SUB PUSH1 0x0 DUP4 ADD MSTORE PUSH2 0x23EE DUP2 PUSH2 0x23B2 JUMP JUMPDEST SWAP1 POP SWAP2 SWAP1 POP JUMP JUMPDEST PUSH32 0x4E487B7100000000000000000000000000000000000000000000000000000000 PUSH1 0x0 MSTORE PUSH1 0x22 PUSH1 0x4 MSTORE PUSH1 0x24 PUSH1 0x0 REVERT JUMPDEST PUSH1 0x0 PUSH1 0x2 DUP3 DIV SWAP1 POP PUSH1 0x1 DUP3 AND DUP1 PUSH2 0x243C JUMPI PUSH1 0x7F DUP3 AND SWAP2 POP JUMPDEST PUSH1 0x20 DUP3 LT DUP2 SUB PUSH2 0x244F JUMPI PUSH2 0x244E PUSH2 0x23F5 JUMP JUMPDEST JUMPDEST POP SWAP2 SWAP1 POP JUMP JUMPDEST PUSH1 0x0 PUSH6 0xFFFFFFFFFFFF DUP3 AND SWAP1 POP SWAP2 SWAP1 POP JUMP JUMPDEST PUSH2 0x2470 DUP2 PUSH2 0x2455 JUMP JUMPDEST DUP3 MSTORE POP POP JUMP JUMPDEST PUSH1 0x0 PUSH1 0x40 DUP3 ADD SWAP1 POP PUSH2 0x248B PUSH1 0x0 DUP4 ADD DUP6 PUSH2 0x22A0 JUMP JUMPDEST PUSH2 0x2498 PUSH1 0x20 DUP4 ADD DUP5 PUSH2 0x2467 JUMP JUMPDEST SWAP4 SWAP3 POP POP POP JUMP JUMPDEST PUSH2 0x24A8 DUP2 PUSH2 0x226A JUMP JUMPDEST DUP2 EQ PUSH2 0x24B3 JUMPI PUSH1 0x0 DUP1 REVERT JUMPDEST POP JUMP JUMPDEST PUSH1 0x0 DUP2 MLOAD SWAP1 POP PUSH2 0x24C5 DUP2 PUSH2 0x249F JUMP JUMPDEST SWAP3 SWAP2 POP POP JUMP JUMPDEST PUSH1 0x0 PUSH1 0x20 DUP3 DUP5 SUB SLT ISZERO PUSH2 0x24E1 JUMPI PUSH2 0x24E0 PUSH2 0x1FAE JUMP JUMPDEST JUMPDEST PUSH1 0x0 PUSH2 0x24EF DUP5 DUP3 DUP6 ADD PUSH2 0x24B6 JUMP JUMPDEST SWAP2 POP POP SWAP3 SWAP2 POP POP JUMP JUMPDEST PUSH32 0x4E6F74206120686F6C6465720000000000000000000000000000000000000000 PUSH1 0x0 DUP3 ADD MSTORE POP JUMP JUMPDEST PUSH1 0x0 PUSH2 0x252E PUSH1 0xC DUP4 PUSH2 0x2162 JUMP JUMPDEST SWAP2 POP PUSH2 0x2539 DUP3 PUSH2 0x24F8 JUMP JUMPDEST PUSH1 0x20 DUP3 ADD SWAP1 POP SWAP2 SWAP1 POP JUMP JUMPDEST PUSH1 0x0 PUSH1 0x20 DUP3 ADD SWAP1 POP DUP2 DUP2 SUB PUSH1 0x0 DUP4 ADD MSTORE PUSH2 0x255D DUP2 PUSH2 0x2521 JUMP JUMPDEST SWAP1 POP SWAP2 SWAP1 POP JUMP JUMPDEST PUSH32 0x4E487B7100000000000000000000000000000000000000000000000000000000 PUSH1 0x0 MSTORE PUSH1 0x11 PUSH1 0x4 MSTORE PUSH1 0x24 PUSH1 0x0 REVERT JUMPDEST PUSH1 0x0 PUSH2 0x259E DUP3 PUSH2 0x206A JUMP JUMPDEST SWAP2 POP PUSH2 0x25A9 DUP4 PUSH2 0x206A JUMP JUMPDEST SWAP3 POP DUP3 DUP3 MUL PUSH2 0x25B7 DUP2 PUSH2 0x206A JUMP JUMPDEST SWAP2 POP DUP3 DUP3 DIV DUP5 EQ DUP4 ISZERO OR PUSH2 0x25CE JUMPI PUSH2 0x25CD PUSH2 0x2564 JUMP JUMPDEST JUMPDEST POP SWAP3 SWAP2 POP POP JUMP JUMPDEST PUSH1 0x0 DUP2 MLOAD SWAP1 POP PUSH2 0x25E4 DUP2 PUSH2 0x22CA JUMP JUMPDEST SWAP3 SWAP2 POP POP JUMP JUMPDEST PUSH1 0x0 PUSH1 0x20 DUP3 DUP5 SUB SLT ISZERO PUSH2 0x2600 JUMPI PUSH2 0x25FF PUSH2 0x1FAE JUMP JUMPDEST JUMPDEST PUSH1 0x0 PUSH2 0x260E DUP5 DUP3 DUP6 ADD PUSH2 0x25D5 JUMP JUMPDEST SWAP2 POP POP SWAP3 SWAP2 POP POP JUMP JUMPDEST PUSH32 0x4E487B7100000000000000000000000000000000000000000000000000000000 PUSH1 0x0 MSTORE PUSH1 0x32 PUSH1 0x4 MSTORE PUSH1 0x24 PUSH1 0x0 REVERT JUMPDEST PUSH1 0x0 PUSH1 0x60 DUP3 ADD SWAP1 POP PUSH2 0x265B PUSH1 0x0 DUP4 ADD DUP7 PUSH2 0x22A0 JUMP JUMPDEST PUSH2 0x2668 PUSH1 0x20 DUP4 ADD DUP6 PUSH2 0x22A0 JUMP JUMPDEST PUSH2 0x2675 PUSH1 0x40 DUP4 ADD DUP5 PUSH2 0x2209 JUMP JUMPDEST SWAP5 SWAP4 POP POP POP POP JUMP JUMPDEST PUSH1 0x0 PUSH2 0x2688 DUP3 PUSH2 0x206A JUMP JUMPDEST SWAP2 POP PUSH32 0xFFFFFFFFFFFFFFFFFFFFFFFFFFFFFFFFFFFFFFFFFFFFFFFFFFFFFFFFFFFFFFFF DUP3 SUB PUSH2 0x26BA JUMPI PUSH2 0x26B9 PUSH2 0x2564 JUMP JUMPDEST JUMPDEST PUSH1 0x1 DUP3 ADD SWAP1 POP SWAP2 SWAP1 POP JUMP JUMPDEST PUSH32 0x436865636B696E672062616C616E6365206F66207A65726F206163636F756E74 PUSH1 0x0 DUP3 ADD MSTORE PUSH32 0x2E00000000000000000000000000000000000000000000000000000000000000 PUSH1 0x20 DUP3 ADD MSTORE POP JUMP JUMPDEST PUSH1 0x0 PUSH2 0x2721 PUSH1 0x21 DUP4 PUSH2 0x2162 JUMP JUMPDEST SWAP2 POP PUSH2 0x272C DUP3 PUSH2 0x26C5 JUMP JUMPDEST PUSH1 0x40 DUP3 ADD SWAP1 POP SWAP2 SWAP1 POP JUMP JUMPDEST PUSH1 0x0 PUSH1 0x20 DUP3 ADD SWAP1 POP DUP2 DUP2 SUB PUSH1 0x0 DUP4 ADD MSTORE PUSH2 0x2750 DUP2 PUSH2 0x2714 JUMP JUMPDEST SWAP1 POP SWAP2 SWAP1 POP JUMP JUMPDEST PUSH1 0x0 PUSH2 0x2762 DUP3 PUSH2 0x206A JUMP JUMPDEST SWAP2 POP PUSH2 0x276D DUP4 PUSH2 0x206A JUMP JUMPDEST SWAP3 POP DUP3 DUP3 ADD SWAP1 POP DUP1 DUP3 GT ISZERO PUSH2 0x2785 JUMPI PUSH2 0x2784 PUSH2 0x2564 JUMP JUMPDEST JUMPDEST SWAP3 SWAP2 POP POP JUMP JUMPDEST PUSH32 0x546865206E756D626572206F6620626F6E64732073686F756C64206265206772 PUSH1 0x0 DUP3 ADD MSTORE PUSH32 0x6561746572207468616E20302E00000000000000000000000000000000000000 PUSH1 0x20 DUP3 ADD MSTORE POP JUMP JUMPDEST PUSH1 0x0 PUSH2 0x27E7 PUSH1 0x2D DUP4 PUSH2 0x2162 JUMP JUMPDEST SWAP2 POP PUSH2 0x27F2 DUP3 PUSH2 0x278B JUMP JUMPDEST PUSH1 0x40 DUP3 ADD SWAP1 POP SWAP2 SWAP1 POP JUMP JUMPDEST PUSH1 0x0 PUSH1 0x20 DUP3 ADD SWAP1 POP DUP2 DUP2 SUB PUSH1 0x0 DUP4 ADD MSTORE PUSH2 0x2816 DUP2 PUSH2 0x27DA JUMP JUMPDEST SWAP1 POP SWAP2 SWAP1 POP JUMP JUMPDEST PUSH32 0x5468652062757965722069736E277420646566696E656420617320616E206170 PUSH1 0x0 DUP3 ADD MSTORE PUSH32 0x70726F76656420617373657420686F6C6465722E000000000000000000000000 PUSH1 0x20 DUP3 ADD MSTORE POP JUMP JUMPDEST PUSH1 0x0 PUSH2 0x2879 PUSH1 0x34 DUP4 PUSH2 0x2162 JUMP JUMPDEST SWAP2 POP PUSH2 0x2884 DUP3 PUSH2 0x281D JUMP JUMPDEST PUSH1 0x40 DUP3 ADD SWAP1 POP SWAP2 SWAP1 POP JUMP JUMPDEST PUSH1 0x0 PUSH1 0x20 DUP3 ADD SWAP1 POP DUP2 DUP2 SUB PUSH1 0x0 DUP4 ADD MSTORE PUSH2 0x28A8 DUP2 PUSH2 0x286C JUMP JUMPDEST SWAP1 POP SWAP2 SWAP1 POP JUMP JUMPDEST PUSH32 0x54686520746F74616C206E756D626572206F6620626F6E647320657863656564 PUSH1 0x0 DUP3 ADD MSTORE PUSH32 0x732074686520656E7469726520737570706C792076616C75652E000000000000 PUSH1 0x20 DUP3 ADD MSTORE POP JUMP JUMPDEST PUSH1 0x0 PUSH2 0x290B PUSH1 0x3A DUP4 PUSH2 0x2162 JUMP JUMPDEST SWAP2 POP PUSH2 0x2916 DUP3 PUSH2 0x28AF JUMP JUMPDEST PUSH1 0x40 DUP3 ADD SWAP1 POP SWAP2 SWAP1 POP JUMP JUMPDEST PUSH1 0x0 PUSH1 0x20 DUP3 ADD SWAP1 POP DUP2 DUP2 SUB PUSH1 0x0 DUP4 ADD MSTORE PUSH2 0x293A DUP2 PUSH2 0x28FE JUMP JUMPDEST SWAP1 POP SWAP2 SWAP1 POP JUMP JUMPDEST PUSH32 0x54686520627579657220646F65736E2774206861766520656E6F756768206D6F PUSH1 0x0 DUP3 ADD MSTORE PUSH32 0x6E657920696E207468656972206163636F756E742E0000000000000000000000 PUSH1 0x20 DUP3 ADD MSTORE POP JUMP JUMPDEST PUSH1 0x0 PUSH2 0x299D PUSH1 0x35 DUP4 PUSH2 0x2162 JUMP JUMPDEST SWAP2 POP PUSH2 0x29A8 DUP3 PUSH2 0x2941 JUMP JUMPDEST PUSH1 0x40 DUP3 ADD SWAP1 POP SWAP2 SWAP1 POP JUMP JUMPDEST PUSH1 0x0 PUSH1 0x20 DUP3 ADD SWAP1 POP DUP2 DUP2 SUB PUSH1 0x0 DUP4 ADD MSTORE PUSH2 0x29CC DUP2 PUSH2 0x2990 JUMP JUMPDEST SWAP1 POP SWAP2 SWAP1 POP JUMP JUMPDEST PUSH1 0x0 PUSH1 0x40 DUP3 ADD SWAP1 POP PUSH2 0x29E8 PUSH1 0x0 DUP4 ADD DUP6 PUSH2 0x22A0 JUMP JUMPDEST PUSH2 0x29F5 PUSH1 0x20 DUP4 ADD DUP5 PUSH2 0x22A0 JUMP JUMPDEST SWAP4 SWAP3 POP POP POP JUMP JUMPDEST PUSH32 0x546865206163636F756E7420616C6C6F77616E636520666F7220746865207472 PUSH1 0x0 DUP3 ADD MSTORE PUSH32 0x6164652069732073657420746F6F206C6F772E00000000000000000000000000 PUSH1 0x20 DUP3 ADD MSTORE POP JUMP JUMPDEST PUSH1 0x0 PUSH2 0x2A58 PUSH1 0x33 DUP4 PUSH2 0x2162 JUMP JUMPDEST SWAP2 POP PUSH2 0x2A63 DUP3 PUSH2 0x29FC JUMP JUMPDEST PUSH1 0x40 DUP3 ADD SWAP1 POP SWAP2 SWAP1 POP JUMP JUMPDEST PUSH1 0x0 PUSH1 0x20 DUP3 ADD SWAP1 POP DUP2 DUP2 SUB PUSH1 0x0 DUP4 ADD MSTORE PUSH2 0x2A87 DUP2 PUSH2 0x2A4B JUMP JUMPDEST SWAP1 POP SWAP2 SWAP1 POP JUMP JUMPDEST PUSH1 0x0 PUSH2 0x2A99 DUP3 PUSH2 0x206A JUMP JUMPDEST SWAP2 POP PUSH2 0x2AA4 DUP4 PUSH2 0x206A JUMP JUMPDEST SWAP3 POP DUP3 DUP3 SUB SWAP1 POP DUP2 DUP2 GT ISZERO PUSH2 0x2ABC JUMPI PUSH2 0x2ABB PUSH2 0x2564 JUMP JUMPDEST JUMPDEST SWAP3 SWAP2 POP POP JUMP JUMPDEST PUSH32 0x54686520616D6F757420657863656564732074686520746F74616C2073757070 PUSH1 0x0 DUP3 ADD MSTORE PUSH32 0x6C6179206F662074686520617373657400000000000000000000000000000000 PUSH1 0x20 DUP3 ADD MSTORE POP JUMP JUMPDEST PUSH1 0x0 PUSH2 0x2B1E PUSH1 0x30 DUP4 PUSH2 0x2162 JUMP JUMPDEST SWAP2 POP PUSH2 0x2B29 DUP3 PUSH2 0x2AC2 JUMP JUMPDEST PUSH1 0x40 DUP3 ADD SWAP1 POP SWAP2 SWAP1 POP JUMP JUMPDEST PUSH1 0x0 PUSH1 0x20 DUP3 ADD SWAP1 POP DUP2 DUP2 SUB PUSH1 0x0 DUP4 ADD MSTORE PUSH2 0x2B4D DUP2 PUSH2 0x2B11 JUMP JUMPDEST SWAP1 POP SWAP2 SWAP1 POP JUMP JUMPDEST PUSH32 0x416C6C6F77616E636520746F6F206C6F77000000000000000000000000000000 PUSH1 0x0 DUP3 ADD MSTORE POP JUMP JUMPDEST PUSH1 0x0 PUSH2 0x2B8A PUSH1 0x11 DUP4 PUSH2 0x2162 JUMP JUMPDEST SWAP2 POP PUSH2 0x2B95 DUP3 PUSH2 0x2B54 JUMP JUMPDEST PUSH1 0x20 DUP3 ADD SWAP1 POP SWAP2 SWAP1 POP JUMP JUMPDEST PUSH1 0x0 PUSH1 0x20 DUP3 ADD SWAP1 POP DUP2 DUP2 SUB PUSH1 0x0 DUP4 ADD MSTORE PUSH2 0x2BB9 DUP2 PUSH2 0x2B7D JUMP JUMPDEST SWAP1 POP SWAP2 SWAP1 POP JUMP JUMPDEST PUSH32 0x54686520626F6E64206D61792062652072656465656D6564206174206C656173 PUSH1 0x0 DUP3 ADD MSTORE PUSH32 0x74206F6E6520646179206166746572207468652064617465206F662070757263 PUSH1 0x20 DUP3 ADD MSTORE PUSH32 0x686173652E000000000000000000000000000000000000000000000000000000 PUSH1 0x40 DUP3 ADD MSTORE POP JUMP JUMPDEST PUSH1 0x0 PUSH2 0x2C42 PUSH1 0x45 DUP4 PUSH2 0x2162 JUMP JUMPDEST SWAP2 POP PUSH2 0x2C4D DUP3 PUSH2 0x2BC0 JUMP JUMPDEST PUSH1 0x60 DUP3 ADD SWAP1 POP SWAP2 SWAP1 POP JUMP JUMPDEST PUSH1 0x0 PUSH1 0x20 DUP3 ADD SWAP1 POP DUP2 DUP2 SUB PUSH1 0x0 DUP4 ADD MSTORE PUSH2 0x2C71 DUP2 PUSH2 0x2C35 JUMP JUMPDEST SWAP1 POP SWAP2 SWAP1 POP JUMP JUMPDEST PUSH32 0x4F776E61626C653A206E6577206F776E657220697320746865207A65726F2061 PUSH1 0x0 DUP3 ADD MSTORE PUSH32 0x6464726573730000000000000000000000000000000000000000000000000000 PUSH1 0x20 DUP3 ADD MSTORE POP JUMP JUMPDEST PUSH1 0x0 PUSH2 0x2CD4 PUSH1 0x26 DUP4 PUSH2 0x2162 JUMP JUMPDEST SWAP2 POP PUSH2 0x2CDF DUP3 PUSH2 0x2C78 JUMP JUMPDEST PUSH1 0x40 DUP3 ADD SWAP1 POP SWAP2 SWAP1 POP JUMP JUMPDEST PUSH1 0x0 PUSH1 0x20 DUP3 ADD SWAP1 POP DUP2 DUP2 SUB PUSH1 0x0 DUP4 ADD MSTORE PUSH2 0x2D03 DUP2 PUSH2 0x2CC7 JUMP JUMPDEST SWAP1 POP SWAP2 SWAP1 POP JUMP JUMPDEST PUSH32 0x4F776E61626C653A2063616C6C6572206973206E6F7420746865206F776E6572 PUSH1 0x0 DUP3 ADD MSTORE POP JUMP JUMPDEST PUSH1 0x0 PUSH2 0x2D40 PUSH1 0x20 DUP4 PUSH2 0x2162 JUMP JUMPDEST SWAP2 POP PUSH2 0x2D4B DUP3 PUSH2 0x2D0A JUMP JUMPDEST PUSH1 0x20 DUP3 ADD SWAP1 POP SWAP2 SWAP1 POP JUMP JUMPDEST PUSH1 0x0 PUSH1 0x20 DUP3 ADD SWAP1 POP DUP2 DUP2 SUB PUSH1 0x0 DUP4 ADD MSTORE PUSH2 0x2D6F DUP2 PUSH2 0x2D33 JUMP JUMPDEST SWAP1 POP SWAP2 SWAP1 POP JUMP JUMPDEST PUSH32 0x4E487B7100000000000000000000000000000000000000000000000000000000 PUSH1 0x0 MSTORE PUSH1 0x12 PUSH1 0x4 MSTORE PUSH1 0x24 PUSH1 0x0 REVERT JUMPDEST PUSH1 0x0 PUSH2 0x2DB0 DUP3 PUSH2 0x206A JUMP JUMPDEST SWAP2 POP PUSH2 0x2DBB DUP4 PUSH2 0x206A JUMP JUMPDEST SWAP3 POP DUP3 PUSH2 0x2DCB JUMPI PUSH2 0x2DCA PUSH2 0x2D76 JUMP JUMPDEST JUMPDEST DUP3 DUP3 DIV SWAP1 POP SWAP3 SWAP2 POP POP JUMP JUMPDEST PUSH1 0x0 PUSH2 0x2DE1 DUP3 PUSH2 0x206A JUMP JUMPDEST SWAP2 POP PUSH2 0x2DEC DUP4 PUSH2 0x206A JUMP JUMPDEST SWAP3 POP DUP3 PUSH2 0x2DFC JUMPI PUSH2 0x2DFB PUSH2 0x2D76 JUMP JUMPDEST JUMPDEST DUP3 DUP3 MOD SWAP1 POP SWAP3 SWAP2 POP POP JUMP JUMPDEST PUSH1 0x0 DUP2 SWAP1 POP SWAP2 SWAP1 POP JUMP JUMPDEST PUSH1 0x0 PUSH2 0x2E1C DUP3 PUSH2 0x2E07 JUMP JUMPDEST SWAP2 POP PUSH2 0x2E27 DUP4 PUSH2 0x2E07 JUMP JUMPDEST SWAP3 POP DUP3 DUP3 SUB SWAP1 POP DUP2 DUP2 SLT PUSH1 0x0 DUP5 SLT AND DUP3 DUP3 SGT PUSH1 0x0 DUP6 SLT ISZERO AND OR ISZERO PUSH2 0x2E4E JUMPI PUSH2 0x2E4D PUSH2 0x2564 JUMP JUMPDEST JUMPDEST SWAP3 SWAP2 POP POP JUMP JUMPDEST PUSH1 0x0 PUSH2 0x2E5F DUP3 PUSH2 0x2E07 JUMP JUMPDEST SWAP2 POP PUSH2 0x2E6A DUP4 PUSH2 0x2E07 JUMP JUMPDEST SWAP3 POP DUP3 PUSH2 0x2E7A JUMPI PUSH2 0x2E79 PUSH2 0x2D76 JUMP JUMPDEST JUMPDEST PUSH1 0x1 PUSH1 0x0 SUB DUP4 EQ PUSH32 0x8000000000000000000000000000000000000000000000000000000000000000 DUP4 EQ AND ISZERO PUSH2 0x2EB3 JUMPI PUSH2 0x2EB2 PUSH2 0x2564 JUMP JUMPDEST JUMPDEST DUP3 DUP3 SDIV SWAP1 POP SWAP3 SWAP2 POP POP JUMP JUMPDEST PUSH1 0x0 PUSH2 0x2EC9 DUP3 PUSH2 0x2E07 JUMP JUMPDEST SWAP2 POP PUSH2 0x2ED4 DUP4 PUSH2 0x2E07 JUMP JUMPDEST SWAP3 POP DUP3 DUP3 ADD SWAP1 POP DUP3 DUP2 SLT ISZERO PUSH1 0x0 DUP4 SLT AND DUP4 DUP3 SLT PUSH1 0x0 DUP5 SLT ISZERO AND OR ISZERO PUSH2 0x2EFC JUMPI PUSH2 0x2EFB PUSH2 0x2564 JUMP JUMPDEST JUMPDEST SWAP3 SWAP2 POP POP JUMP JUMPDEST PUSH1 0x0 PUSH2 0x2F0D DUP3 PUSH2 0x2E07 JUMP JUMPDEST SWAP2 POP PUSH2 0x2F18 DUP4 PUSH2 0x2E07 JUMP JUMPDEST SWAP3 POP DUP3 DUP3 MUL PUSH2 0x2F26 DUP2 PUSH2 0x2E07 JUMP JUMPDEST SWAP2 POP PUSH32 0x8000000000000000000000000000000000000000000000000000000000000000 DUP5 EQ PUSH1 0x0 DUP5 SLT AND ISZERO PUSH2 0x2F5E JUMPI PUSH2 0x2F5D PUSH2 0x2564 JUMP JUMPDEST JUMPDEST DUP3 DUP3 SDIV DUP5 EQ DUP4 ISZERO OR PUSH2 0x2F73 JUMPI PUSH2 0x2F72 PUSH2 0x2564 JUMP JUMPDEST JUMPDEST POP SWAP3 SWAP2 POP POP JUMP JUMPDEST PUSH32 0x5061757361626C653A206E6F7420706175736564000000000000000000000000 PUSH1 0x0 DUP3 ADD MSTORE POP JUMP JUMPDEST PUSH1 0x0 PUSH2 0x2FB0 PUSH1 0x14 DUP4 PUSH2 0x2162 JUMP JUMPDEST SWAP2 POP PUSH2 0x2FBB DUP3 PUSH2 0x2F7A JUMP JUMPDEST PUSH1 0x20 DUP3 ADD SWAP1 POP SWAP2 SWAP1 POP JUMP JUMPDEST PUSH1 0x0 PUSH1 0x20 DUP3 ADD SWAP1 POP DUP2 DUP2 SUB PUSH1 0x0 DUP4 ADD MSTORE PUSH2 0x2FDF DUP2 PUSH2 0x2FA3 JUMP JUMPDEST SWAP1 POP SWAP2 SWAP1 POP JUMP JUMPDEST PUSH32 0x5061757361626C653A2070617573656400000000000000000000000000000000 PUSH1 0x0 DUP3 ADD MSTORE POP JUMP JUMPDEST PUSH1 0x0 PUSH2 0x301C PUSH1 0x10 DUP4 PUSH2 0x2162 JUMP JUMPDEST SWAP2 POP PUSH2 0x3027 DUP3 PUSH2 0x2FE6 JUMP JUMPDEST PUSH1 0x20 DUP3 ADD SWAP1 POP SWAP2 SWAP1 POP JUMP JUMPDEST PUSH1 0x0 PUSH1 0x20 DUP3 ADD SWAP1 POP DUP2 DUP2 SUB PUSH1 0x0 DUP4 ADD MSTORE PUSH2 0x304B DUP2 PUSH2 0x300F JUMP JUMPDEST SWAP1 POP SWAP2 SWAP1 POP JUMP INVALID LOG2 PUSH5 0x6970667358 0x22 SLT KECCAK256 0xD3 STATICCALL 0xEE DUP8 PREVRANDAO DUP4 PUSH15 0x74C76482B25EB262405A3669472392 PUSH1 0x94 0xB4 PUSH6 0x6CA5667D2EB PUSH5 0x736F6C6343 STOP ADDMOD SLT STOP CALLER CHAINID PUSH10 0x72737420506F6C697368 KECCAK256 TIMESTAMP PUSH16 0x6E64206261736564206F6E20626C6F63 PUSH12 0x636861696E00000000000000 "
		},
		"gasEstimates": {
			"creation": {
				"codeDepositCost": "2484800",
				"executionCost": "infinite",
				"totalCost": "infinite"
			},
			"external": {
				"balanceOf(address)": "infinite",
				"coupon()": "infinite",
				"decimals()": "358",
				"getAllByBuyer(address)": "infinite",
				"issue(uint256)": "infinite",
				"name()": "infinite",
				"owner()": "2661",
				"pause()": "infinite",
				"paused()": "2568",
				"redem(uint256,uint256)": "infinite",
				"renounceOwnership()": "30593",
				"setMembershipRights(address)": "27126",
				"symbol()": "infinite",
				"totalSupply()": "2505",
				"transferOwnership(address)": "30982",
				"unpause()": "infinite"
			},
			"internal": {
				"_daysFromDate(uint256,uint256,uint256)": "infinite",
				"_daysFromDateConcatenated(uint256)": "infinite",
				"_daysToDate(uint256)": "infinite",
				"timestampToDate(uint256)": "infinite"
			}
		},
		"methodIdentifiers": {
			"balanceOf(address)": "70a08231",
			"coupon()": "55c01345",
			"decimals()": "313ce567",
			"getAllByBuyer(address)": "01247f61",
			"issue(uint256)": "cc872b66",
			"name()": "06fdde03",
			"owner()": "8da5cb5b",
			"pause()": "8456cb59",
			"paused()": "5c975abb",
			"redem(uint256,uint256)": "e21e95bd",
			"renounceOwnership()": "715018a6",
			"setMembershipRights(address)": "1993d54b",
			"symbol()": "95d89b41",
			"totalSupply()": "18160ddd",
			"transferOwnership(address)": "f2fde38b",
			"unpause()": "3f4ba83a"
		}
	},
	"abi": [
		{
			"inputs": [
				{
					"internalType": "address",
					"name": "rights",
					"type": "address"
				},
				{
					"internalType": "address",
					"name": "money",
					"type": "address"
				}
			],
			"stateMutability": "nonpayable",
			"type": "constructor"
		},
		{
			"anonymous": false,
			"inputs": [
				{
					"indexed": true,
					"internalType": "address",
					"name": "previousOwner",
					"type": "address"
				},
				{
					"indexed": true,
					"internalType": "address",
					"name": "newOwner",
					"type": "address"
				}
			],
			"name": "OwnershipTransferred",
			"type": "event"
		},
		{
			"anonymous": false,
			"inputs": [
				{
					"indexed": false,
					"internalType": "address",
					"name": "account",
					"type": "address"
				}
			],
			"name": "Paused",
			"type": "event"
		},
		{
			"anonymous": false,
			"inputs": [
				{
					"indexed": false,
					"internalType": "address",
					"name": "account",
					"type": "address"
				}
			],
			"name": "Unpaused",
			"type": "event"
		},
		{
			"inputs": [
				{
					"internalType": "address",
					"name": "account",
					"type": "address"
				}
			],
			"name": "balanceOf",
			"outputs": [
				{
					"internalType": "uint256",
					"name": "",
					"type": "uint256"
				}
			],
			"stateMutability": "view",
			"type": "function"
		},
		{
			"inputs": [],
			"name": "coupon",
			"outputs": [],
			"stateMutability": "nonpayable",
			"type": "function"
		},
		{
			"inputs": [],
			"name": "decimals",
			"outputs": [
				{
					"internalType": "uint8",
					"name": "",
					"type": "uint8"
				}
			],
			"stateMutability": "view",
			"type": "function"
		},
		{
			"inputs": [
				{
					"internalType": "address",
					"name": "buyer",
					"type": "address"
				}
			],
			"name": "getAllByBuyer",
			"outputs": [
				{
					"components": [
						{
							"internalType": "uint256",
							"name": "date",
							"type": "uint256"
						},
						{
							"internalType": "uint256",
							"name": "balance",
							"type": "uint256"
						}
					],
					"internalType": "struct MyBond.BondsByDate[]",
					"name": "",
					"type": "tuple[]"
				}
			],
			"stateMutability": "view",
			"type": "function"
		},
		{
			"inputs": [
				{
					"internalType": "uint256",
					"name": "amount",
					"type": "uint256"
				}
			],
			"name": "issue",
			"outputs": [],
			"stateMutability": "nonpayable",
			"type": "function"
		},
		{
			"inputs": [],
			"name": "name",
			"outputs": [
				{
					"internalType": "string",
					"name": "",
					"type": "string"
				}
			],
			"stateMutability": "view",
			"type": "function"
		},
		{
			"inputs": [],
			"name": "owner",
			"outputs": [
				{
					"internalType": "address",
					"name": "",
					"type": "address"
				}
			],
			"stateMutability": "view",
			"type": "function"
		},
		{
			"inputs": [],
			"name": "pause",
			"outputs": [],
			"stateMutability": "nonpayable",
			"type": "function"
		},
		{
			"inputs": [],
			"name": "paused",
			"outputs": [
				{
					"internalType": "bool",
					"name": "",
					"type": "bool"
				}
			],
			"stateMutability": "view",
			"type": "function"
		},
		{
			"inputs": [
				{
					"internalType": "uint256",
					"name": "buyDate",
					"type": "uint256"
				},
				{
					"internalType": "uint256",
					"name": "amount",
					"type": "uint256"
				}
			],
			"name": "redem",
			"outputs": [],
			"stateMutability": "nonpayable",
			"type": "function"
		},
		{
			"inputs": [],
			"name": "renounceOwnership",
			"outputs": [],
			"stateMutability": "nonpayable",
			"type": "function"
		},
		{
			"inputs": [
				{
					"internalType": "address",
					"name": "rights",
					"type": "address"
				}
			],
			"name": "setMembershipRights",
			"outputs": [],
			"stateMutability": "nonpayable",
			"type": "function"
		},
		{
			"inputs": [],
			"name": "symbol",
			"outputs": [
				{
					"internalType": "string",
					"name": "",
					"type": "string"
				}
			],
			"stateMutability": "view",
			"type": "function"
		},
		{
			"inputs": [],
			"name": "totalSupply",
			"outputs": [
				{
					"internalType": "uint256",
					"name": "",
					"type": "uint256"
				}
			],
			"stateMutability": "view",
			"type": "function"
		},
		{
			"inputs": [
				{
					"internalType": "address",
					"name": "newOwner",
					"type": "address"
				}
			],
			"name": "transferOwnership",
			"outputs": [],
			"stateMutability": "nonpayable",
			"type": "function"
		},
		{
			"inputs": [],
			"name": "unpause",
			"outputs": [],
			"stateMutability": "nonpayable",
			"type": "function"
		}
	]
}