{
	"data": {
		"bytecode": {
			"linkReferences": {},
			"object": "60806040523480156200001157600080fd5b5060008060006101000a81548160ff0219169083151502179055506200004c62000040620000b360201b60201c565b620000bb60201b60201c565b620f42406007819055506127106008819055506064600a8190555060016009819055506000600360146101000a81548160ff0219169083151502179055506000600360156101000a81548160ff021916908315150217905550600060118190555062000180565b600033905090565b60008060019054906101000a900473ffffffffffffffffffffffffffffffffffffffff16905081600060016101000a81548173ffffffffffffffffffffffffffffffffffffffff021916908373ffffffffffffffffffffffffffffffffffffffff1602179055508173ffffffffffffffffffffffffffffffffffffffff168173ffffffffffffffffffffffffffffffffffffffff167f8be0079c531659141344cd1fd0a4f28419497f9722a3daafe3b4186f6b6457e060405160405180910390a35050565b615de980620001906000396000f3fe608060405234801561001057600080fd5b50600436106101a95760003560e01c80635c975abb116100f9578063a9059cbb11610097578063e21e95bd11610071578063e21e95bd14610482578063eb4aa8301461049e578063f2fde38b146104ce578063fe99049a146104ea576101a9565b8063a9059cbb14610406578063cc872b6614610436578063dd62ed3e14610452576101a9565b80638456cb59116100d35780638456cb59146103a45780638da5cb5b146103ae57806395d89b41146103cc5780639e2c8adb146103ea576101a9565b80635c975abb1461034c57806370a082311461036a578063715018a61461039a576101a9565b80631cd26ac511610166578063313ce56711610140578063313ce567146102fe5780633f4ba83a1461031c57806355c013451461032657806356e3422314610330576101a9565b80631cd26ac5146102825780632391abd31461029e57806323b872dd146102ce576101a9565b806301247f61146101ae57806306fdde03146101de578063095ea7b3146101fc5780631717e8f41461022c57806318160ddd146102485780631993d54b14610266575b600080fd5b6101c860048036038101906101c39190613ed2565b61051a565b6040516101d59190614009565b60405180910390f35b6101e661063c565b6040516101f391906140bb565b60405180910390f35b61021660048036038101906102119190614109565b6106ce565b6040516102239190614164565b60405180910390f35b610246600480360381019061024191906142b4565b610702565b005b610250610764565b60405161025d919061433b565b60405180910390f35b610280600480360381019061027b9190613ed2565b61076e565b005b61029c60048036038101906102979190613ed2565b6107ba565b005b6102b860048036038101906102b39190614109565b6109c7565b6040516102c59190614164565b60405180910390f35b6102e860048036038101906102e39190614356565b610de5565b6040516102f59190614164565b60405180910390f35b610306610e19565b60405161031391906143c5565b60405180910390f35b610324610e1e565b005b61032e610e30565b005b61034a60048036038101906103459190613ed2565b6112c3565b005b610354611485565b6040516103619190614164565b60405180910390f35b610384600480360381019061037f9190613ed2565b61149b565b604051610391919061433b565b60405180910390f35b6103a26114e4565b005b6103ac6114f8565b005b6103b661150a565b6040516103c391906143ef565b60405180910390f35b6103d4611534565b6040516103e191906140bb565b60405180910390f35b61040460048036038101906103ff919061440a565b6115c6565b005b610420600480360381019061041b9190614109565b611818565b60405161042d9190614164565b60405180910390f35b610450600480360381019061044b919061445d565b61184c565b005b61046c6004803603810190610467919061448a565b611ce9565b604051610479919061433b565b60405180910390f35b61049c600480360381019061049791906144ca565b611d70565b005b6104b860048036038101906104b3919061450a565b612487565b6040516104c5919061433b565b60405180910390f35b6104e860048036038101906104e39190613ed2565b6127c7565b005b61050460048036038101906104ff9190614571565b61284a565b6040516105119190614164565b60405180910390f35b6060600073ffffffffffffffffffffffffffffffffffffffff168273ffffffffffffffffffffffffffffffffffffffff1603610582576040517fd92e233d00000000000000000000000000000000000000000000000000000000815260040160405180910390fd5b600c60008373ffffffffffffffffffffffffffffffffffffffff1673ffffffffffffffffffffffffffffffffffffffff168152602001908152602001600020805480602002602001604051908101604052809291908181526020016000905b8282101561063157838290600052602060002090600302016040518060600160405290816000820154815260200160018201548152602001600282015481525050815260200190600101906105e1565b505050509050919050565b60606001805461064b90614607565b80601f016020809104026020016040519081016040528092919081815260200182805461067790614607565b80156106c45780601f10610699576101008083540402835291602001916106c4565b820191906000526020600020905b8154815290600101906020018083116106a757829003601f168201915b5050505050905090565b60006040517fd9b9141900000000000000000000000000000000000000000000000000000000815260040160405180910390fd5b620f42406007819055506127106008819055506064600a819055506001600981905550816001908161073491906147e4565b50806002908161074491906147e4565b506001600360156101000a81548160ff0219169083151502179055505050565b6000601154905090565b610776612cc8565b80600460006101000a81548173ffffffffffffffffffffffffffffffffffffffff021916908373ffffffffffffffffffffffffffffffffffffffff16021790555050565b60011515600360149054906101000a900460ff1680156107e65750600360159054906101000a900460ff165b151514610828576040517f08c379a000000000000000000000000000000000000000000000000000000000815260040161081f90614902565b60405180910390fd5b600073ffffffffffffffffffffffffffffffffffffffff168173ffffffffffffffffffffffffffffffffffffffff160361088e576040517fd92e233d00000000000000000000000000000000000000000000000000000000815260040160405180910390fd5b600460009054906101000a900473ffffffffffffffffffffffffffffffffffffffff1673ffffffffffffffffffffffffffffffffffffffff1663f35f0f748260806040518363ffffffff1660e01b81526004016108ec929190614943565b602060405180830381865afa158015610909573d6000803e3d6000fd5b505050506040513d601f19601f8201168201806040525081019061092d9190614998565b61096c576040517f08c379a000000000000000000000000000000000000000000000000000000000815260040161096390614a11565b60405180910390fd5b6001600e60008373ffffffffffffffffffffffffffffffffffffffff1673ffffffffffffffffffffffffffffffffffffffff16815260200190815260200160002060006101000a81548160ff02191690831515021790555050565b600060011515600e60008573ffffffffffffffffffffffffffffffffffffffff1673ffffffffffffffffffffffffffffffffffffffff16815260200190815260200160002060009054906101000a900460ff16151514610a5c576040517f08c379a0000000000000000000000000000000000000000000000000000000008152600401610a5390614a7d565b60405180910390fd5b60008373ffffffffffffffffffffffffffffffffffffffff1663ef706adf846040518263ffffffff1660e01b8152600401610a97919061433b565b60c0604051808303816000875af1158015610ab6573d6000803e3d6000fd5b505050506040513d601f19601f82011682018060405250810190610ada9190614b95565b90506000600d60003373ffffffffffffffffffffffffffffffffffffffff1673ffffffffffffffffffffffffffffffffffffffff16815260200190815260200160002060008360600151815260200190815260200160002054905060008103610b78576040517f08c379a0000000000000000000000000000000000000000000000000000000008152600401610b6f90614c0e565b60405180910390fd5b6000600c60003373ffffffffffffffffffffffffffffffffffffffff1673ffffffffffffffffffffffffffffffffffffffff168152602001908152602001600020600183610bc69190614c5d565b81548110610bd757610bd6614c91565b5b906000526020600020906003020160405180606001604052908160008201548152602001600182015481526020016002820154815250509050826040015181604001511015610c5b576040517f08c379a0000000000000000000000000000000000000000000000000000000008152600401610c5290614d0c565b60405180910390fd5b826020015173ffffffffffffffffffffffffffffffffffffffff163073ffffffffffffffffffffffffffffffffffffffff1614610ccd576040517f08c379a0000000000000000000000000000000000000000000000000000000008152600401610cc490614d9e565b60405180910390fd5b826000015173ffffffffffffffffffffffffffffffffffffffff163373ffffffffffffffffffffffffffffffffffffffff1614610d3f576040517f08c379a0000000000000000000000000000000000000000000000000000000008152600401610d3690614e30565b60405180910390fd5b8260400151600c60003373ffffffffffffffffffffffffffffffffffffffff1673ffffffffffffffffffffffffffffffffffffffff168152602001908152602001600020600184610d909190614c5d565b81548110610da157610da0614c91565b5b90600052602060002090600302016002016000828254610dc19190614c5d565b92505081905550610dd733878560400151612d46565b506001935050505092915050565b60006040517fd9b9141900000000000000000000000000000000000000000000000000000000815260040160405180910390fd5b600090565b610e26612cc8565b610e2e612db1565b565b610e38612cc8565b60011515600360149054906101000a900460ff168015610e645750600360159054906101000a900460ff165b151514610ea6576040517f08c379a0000000000000000000000000000000000000000000000000000000008152600401610e9d90614902565b60405180910390fd5b600460009054906101000a900473ffffffffffffffffffffffffffffffffffffffff1673ffffffffffffffffffffffffffffffffffffffff1663f35f0f743360026040518363ffffffff1660e01b8152600401610f04929190614943565b602060405180830381865afa158015610f21573d6000803e3d6000fd5b505050506040513d601f19601f82011682018060405250810190610f459190614998565b610f84576040517f08c379a0000000000000000000000000000000000000000000000000000000008152600401610f7b90614e9c565b60405180910390fd5b600a54610f8f610764565b610f999190614ebc565b600560009054906101000a900473ffffffffffffffffffffffffffffffffffffffff1673ffffffffffffffffffffffffffffffffffffffff166370a08231610fdf61150a565b6040518263ffffffff1660e01b8152600401610ffb91906143ef565b602060405180830381865afa158015611018573d6000803e3d6000fd5b505050506040513d601f19601f8201168201806040525081019061103c9190614efe565b101561104757600080fd5b600080600090505b600b805490508110156112bf576000915060005b600c6000600b848154811061107b5761107a614c91565b5b9060005260206000200160009054906101000a900473ffffffffffffffffffffffffffffffffffffffff1673ffffffffffffffffffffffffffffffffffffffff1673ffffffffffffffffffffffffffffffffffffffff168152602001908152602001600020805490508110156111ac57600c6000600b848154811061110357611102614c91565b5b9060005260206000200160009054906101000a900473ffffffffffffffffffffffffffffffffffffffff1673ffffffffffffffffffffffffffffffffffffffff1673ffffffffffffffffffffffffffffffffffffffff168152602001908152602001600020818154811061117a57611179614c91565b5b906000526020600020906003020160010154836111979190614f2b565b925080806111a490614f5f565b915050611063565b5060008211156112ac57600560009054906101000a900473ffffffffffffffffffffffffffffffffffffffff1673ffffffffffffffffffffffffffffffffffffffff166323b872dd6111fc61150a565b600b84815481106112105761120f614c91565b5b9060005260206000200160009054906101000a900473ffffffffffffffffffffffffffffffffffffffff16600a54866112499190614ebc565b6040518463ffffffff1660e01b815260040161126793929190614fa7565b6020604051808303816000875af1158015611286573d6000803e3d6000fd5b505050506040513d601f19601f820116820180604052508101906112aa9190614998565b505b80806112b790614f5f565b91505061104f565b5050565b60011515600360149054906101000a900460ff1680156112ef5750600360159054906101000a900460ff165b151514611331576040517f08c379a000000000000000000000000000000000000000000000000000000000815260040161132890614902565b60405180910390fd5b600073ffffffffffffffffffffffffffffffffffffffff168173ffffffffffffffffffffffffffffffffffffffff1603611397576040517fd92e233d00000000000000000000000000000000000000000000000000000000815260040160405180910390fd5b60011515600e60008373ffffffffffffffffffffffffffffffffffffffff1673ffffffffffffffffffffffffffffffffffffffff16815260200190815260200160002060009054906101000a900460ff1615151461142a576040517f08c379a00000000000000000000000000000000000000000000000000000000081526004016114219061502a565b60405180910390fd5b6000600e60008373ffffffffffffffffffffffffffffffffffffffff1673ffffffffffffffffffffffffffffffffffffffff16815260200190815260200160002060006101000a81548160ff02191690831515021790555050565b60008060009054906101000a900460ff16905090565b6000600f60008373ffffffffffffffffffffffffffffffffffffffff1673ffffffffffffffffffffffffffffffffffffffff168152602001908152602001600020549050919050565b6114ec612cc8565b6114f66000612e13565b565b611500612cc8565b611508612ed8565b565b6000600360009054906101000a900473ffffffffffffffffffffffffffffffffffffffff16905090565b60606002805461154390614607565b80601f016020809104026020016040519081016040528092919081815260200182805461156f90614607565b80156115bc5780601f10611591576101008083540402835291602001916115bc565b820191906000526020600020905b81548152906001019060200180831161159f57829003601f168201915b5050505050905090565b600073ffffffffffffffffffffffffffffffffffffffff168373ffffffffffffffffffffffffffffffffffffffff16148061162d5750600073ffffffffffffffffffffffffffffffffffffffff168273ffffffffffffffffffffffffffffffffffffffff16145b806116645750600073ffffffffffffffffffffffffffffffffffffffff168173ffffffffffffffffffffffffffffffffffffffff16145b1561169b576040517fd92e233d00000000000000000000000000000000000000000000000000000000815260040160405180910390fd5b82600460006101000a81548173ffffffffffffffffffffffffffffffffffffffff021916908373ffffffffffffffffffffffffffffffffffffffff16021790555081600560006101000a81548173ffffffffffffffffffffffffffffffffffffffff021916908373ffffffffffffffffffffffffffffffffffffffff160217905550600560009054906101000a900473ffffffffffffffffffffffffffffffffffffffff1673ffffffffffffffffffffffffffffffffffffffff1663313ce5676040518163ffffffff1660e01b8152600401602060405180830381865afa15801561178a573d6000803e3d6000fd5b505050506040513d601f19601f820116820180604052508101906117ae9190615076565b60ff1660068190555080600360006101000a81548173ffffffffffffffffffffffffffffffffffffffff021916908373ffffffffffffffffffffffffffffffffffffffff1602179055506001600360146101000a81548160ff021916908315150217905550505050565b60006040517fd9b9141900000000000000000000000000000000000000000000000000000000815260040160405180910390fd5b8060008111611890576040517f08c379a000000000000000000000000000000000000000000000000000000000815260040161188790615115565b60405180910390fd5b60011515600360149054906101000a900460ff1680156118bc5750600360159054906101000a900460ff165b1515146118fe576040517f08c379a00000000000000000000000000000000000000000000000000000000081526004016118f590614902565b60405180910390fd5b600460009054906101000a900473ffffffffffffffffffffffffffffffffffffffff1673ffffffffffffffffffffffffffffffffffffffff1663f35f0f743360026040518363ffffffff1660e01b815260040161195c929190614943565b602060405180830381865afa158015611979573d6000803e3d6000fd5b505050506040513d601f19601f8201168201806040525081019061199d9190614998565b6119dc576040517f08c379a00000000000000000000000000000000000000000000000000000000081526004016119d3906151a7565b60405180910390fd5b600754826119e8610764565b6119f29190614f2b565b1115611a33576040517f08c379a0000000000000000000000000000000000000000000000000000000008152600401611a2a90615239565b60405180910390fd5b60085482611a419190614ebc565b600560009054906101000a900473ffffffffffffffffffffffffffffffffffffffff1673ffffffffffffffffffffffffffffffffffffffff166370a08231336040518263ffffffff1660e01b8152600401611a9c91906143ef565b602060405180830381865afa158015611ab9573d6000803e3d6000fd5b505050506040513d601f19601f82011682018060405250810190611add9190614efe565b1015611b1e576040517f08c379a0000000000000000000000000000000000000000000000000000000008152600401611b15906152cb565b60405180910390fd5b60085482611b2c9190614ebc565b600560009054906101000a900473ffffffffffffffffffffffffffffffffffffffff1673ffffffffffffffffffffffffffffffffffffffff1663dd62ed3e33306040518363ffffffff1660e01b8152600401611b899291906152eb565b602060405180830381865afa158015611ba6573d6000803e3d6000fd5b505050506040513d601f19601f82011682018060405250810190611bca9190614efe565b1015611c0b576040517f08c379a0000000000000000000000000000000000000000000000000000000008152600401611c0290615386565b60405180910390fd5b6000611c1642612f3a565b9050611c23338285612f9d565b611c2d33846133fe565b600560009054906101000a900473ffffffffffffffffffffffffffffffffffffffff1673ffffffffffffffffffffffffffffffffffffffff166323b872dd33611c7461150a565b60085487611c829190614ebc565b6040518463ffffffff1660e01b8152600401611ca093929190614fa7565b6020604051808303816000875af1158015611cbf573d6000803e3d6000fd5b505050506040513d601f19601f82011682018060405250810190611ce39190614998565b50505050565b6000601060008473ffffffffffffffffffffffffffffffffffffffff1673ffffffffffffffffffffffffffffffffffffffff16815260200190815260200160002060008373ffffffffffffffffffffffffffffffffffffffff1673ffffffffffffffffffffffffffffffffffffffff16815260200190815260200160002054905092915050565b8060008111611db4576040517f08c379a0000000000000000000000000000000000000000000000000000000008152600401611dab90615115565b60405180910390fd5b60011515600360149054906101000a900460ff168015611de05750600360159054906101000a900460ff165b151514611e22576040517f08c379a0000000000000000000000000000000000000000000000000000000008152600401611e1990614902565b60405180910390fd5b6000611e2d42612f3a565b90506000611e3a856134ce565b611e43836134ce565b611e4d9190614c5d565b9050600460009054906101000a900473ffffffffffffffffffffffffffffffffffffffff1673ffffffffffffffffffffffffffffffffffffffff1663f35f0f743360026040518363ffffffff1660e01b8152600401611ead929190614943565b602060405180830381865afa158015611eca573d6000803e3d6000fd5b505050506040513d601f19601f82011682018060405250810190611eee9190614998565b611f2d576040517f08c379a0000000000000000000000000000000000000000000000000000000008152600401611f2490614e9c565b60405180910390fd5b83611f36610764565b1015611f77576040517f08c379a0000000000000000000000000000000000000000000000000000000008152600401611f6e90615418565b60405180910390fd5b60085484611f859190614ebc565b600560009054906101000a900473ffffffffffffffffffffffffffffffffffffffff1673ffffffffffffffffffffffffffffffffffffffff166370a08231611fcb61150a565b6040518263ffffffff1660e01b8152600401611fe791906143ef565b602060405180830381865afa158015612004573d6000803e3d6000fd5b505050506040513d601f19601f820116820180604052508101906120289190614efe565b101561203357600080fd5b600854846120419190614ebc565b600560009054906101000a900473ffffffffffffffffffffffffffffffffffffffff1673ffffffffffffffffffffffffffffffffffffffff1663dd62ed3e61208761150a565b306040518363ffffffff1660e01b81526004016120a59291906152eb565b602060405180830381865afa1580156120c2573d6000803e3d6000fd5b505050506040513d601f19601f820116820180604052508101906120e69190614efe565b1015612127576040517f08c379a000000000000000000000000000000000000000000000000000000000815260040161211e90615484565b60405180910390fd5b6000600d60003373ffffffffffffffffffffffffffffffffffffffff1673ffffffffffffffffffffffffffffffffffffffff168152602001908152602001600020600087815260200190815260200160002054036121ba576040517f08c379a00000000000000000000000000000000000000000000000000000000081526004016121b1906154f0565b60405180910390fd5b60006001600d60003373ffffffffffffffffffffffffffffffffffffffff1673ffffffffffffffffffffffffffffffffffffffff1681526020019081526020016000206000888152602001908152602001600020546122199190614c5d565b905084600c60003373ffffffffffffffffffffffffffffffffffffffff1673ffffffffffffffffffffffffffffffffffffffff168152602001908152602001600020828154811061226d5761226c614c91565b5b906000526020600020906003020160020154600c60003373ffffffffffffffffffffffffffffffffffffffff1673ffffffffffffffffffffffffffffffffffffffff16815260200190815260200160002083815481106122d0576122cf614c91565b5b9060005260206000209060030201600101546122ec9190614c5d565b101561232d576040517f08c379a00000000000000000000000000000000000000000000000000000000081526004016123249061555c565b60405180910390fd5b84600c60003373ffffffffffffffffffffffffffffffffffffffff1673ffffffffffffffffffffffffffffffffffffffff168152602001908152602001600020828154811061237f5761237e614c91565b5b9060005260206000209060030201600101600082825461239f9190614c5d565b92505081905550600560009054906101000a900473ffffffffffffffffffffffffffffffffffffffff1673ffffffffffffffffffffffffffffffffffffffff166323b872dd6123ec61150a565b33856009546123fb9190614ebc565b6008546124089190614f2b565b896124139190614ebc565b6040518463ffffffff1660e01b815260040161243193929190614fa7565b6020604051808303816000875af1158015612450573d6000803e3d6000fd5b505050506040513d601f19601f820116820180604052508101906124749190614998565b5061247f338661365d565b505050505050565b600060011515600e60008773ffffffffffffffffffffffffffffffffffffffff1673ffffffffffffffffffffffffffffffffffffffff16815260200190815260200160002060009054906101000a900460ff1615151461251c576040517f08c379a000000000000000000000000000000000000000000000000000000000815260040161251390614a7d565b60405180910390fd5b6000600d60003373ffffffffffffffffffffffffffffffffffffffff1673ffffffffffffffffffffffffffffffffffffffff1681526020019081526020016000206000868152602001908152602001600020549050600081036125b4576040517f08c379a00000000000000000000000000000000000000000000000000000000081526004016125ab90614c0e565b60405180910390fd5b6000600c60003373ffffffffffffffffffffffffffffffffffffffff1673ffffffffffffffffffffffffffffffffffffffff1681526020019081526020016000206001836126029190614c5d565b8154811061261357612612614c91565b5b90600052602060002090600302016040518060600160405290816000820154815260200160018201548152602001600282015481525050905084816040015182602001516126619190614c5d565b10156126a2576040517f08c379a0000000000000000000000000000000000000000000000000000000008152600401612699906155c8565b60405180910390fd5b84600c60003373ffffffffffffffffffffffffffffffffffffffff1673ffffffffffffffffffffffffffffffffffffffff1681526020019081526020016000206001846126ef9190614c5d565b81548110612700576126ff614c91565b5b906000526020600020906003020160020160008282546127209190614f2b565b925050819055506127323388876137a5565b5060008773ffffffffffffffffffffffffffffffffffffffff166343cafc0e338989896040518563ffffffff1660e01b815260040161277494939291906155e8565b6020604051808303816000875af1158015612793573d6000803e3d6000fd5b505050506040513d601f19601f820116820180604052508101906127b79190614efe565b9050809350505050949350505050565b6127cf612cc8565b600073ffffffffffffffffffffffffffffffffffffffff168173ffffffffffffffffffffffffffffffffffffffff160361283e576040517f08c379a00000000000000000000000000000000000000000000000000000000081526004016128359061569f565b60405180910390fd5b61284781612e13565b50565b600081612855610764565b1015612896576040517f08c379a000000000000000000000000000000000000000000000000000000000815260040161288d9061570b565b60405180910390fd5b600073ffffffffffffffffffffffffffffffffffffffff168573ffffffffffffffffffffffffffffffffffffffff1614806128fd5750600073ffffffffffffffffffffffffffffffffffffffff168473ffffffffffffffffffffffffffffffffffffffff16145b15612934576040517fd92e233d00000000000000000000000000000000000000000000000000000000815260040160405180910390fd5b600460009054906101000a900473ffffffffffffffffffffffffffffffffffffffff1673ffffffffffffffffffffffffffffffffffffffff1663f35f0f743360806040518363ffffffff1660e01b8152600401612992929190614943565b602060405180830381865afa1580156129af573d6000803e3d6000fd5b505050506040513d601f19601f820116820180604052508101906129d39190614998565b612a12576040517f08c379a0000000000000000000000000000000000000000000000000000000008152600401612a099061579d565b60405180910390fd5b600460009054906101000a900473ffffffffffffffffffffffffffffffffffffffff1673ffffffffffffffffffffffffffffffffffffffff1663f35f0f748560026040518363ffffffff1660e01b8152600401612a70929190614943565b602060405180830381865afa158015612a8d573d6000803e3d6000fd5b505050506040513d601f19601f82011682018060405250810190612ab19190614998565b612af0576040517f08c379a0000000000000000000000000000000000000000000000000000000008152600401612ae790614e9c565b60405180910390fd5b81612afb8633611ce9565b1015612b3c576040517f08c379a0000000000000000000000000000000000000000000000000000000008152600401612b3390615809565b60405180910390fd5b81612b468661149b565b1015612b87576040517f08c379a0000000000000000000000000000000000000000000000000000000008152600401612b7e9061589b565b60405180910390fd5b612b9485848460016137d1565b81600f60008773ffffffffffffffffffffffffffffffffffffffff1673ffffffffffffffffffffffffffffffffffffffff1681526020019081526020016000206000828254612be39190614c5d565b92505081905550612bf5853384612d46565b50612c01848484612f9d565b81600f60008673ffffffffffffffffffffffffffffffffffffffff1673ffffffffffffffffffffffffffffffffffffffff1681526020019081526020016000206000828254612c509190614f2b565b925050819055508373ffffffffffffffffffffffffffffffffffffffff168573ffffffffffffffffffffffffffffffffffffffff167fddf252ad1be2c89b69c2b068fc378daa952ba7f163c4a11628f55a4df523b3ef84604051612cb4919061433b565b60405180910390a360019050949350505050565b612cd0613b02565b73ffffffffffffffffffffffffffffffffffffffff16612cee61150a565b73ffffffffffffffffffffffffffffffffffffffff1614612d44576040517f08c379a0000000000000000000000000000000000000000000000000000000008152600401612d3b90615907565b60405180910390fd5b565b600080612d538585611ce9565b905082811015612d98576040517f08c379a0000000000000000000000000000000000000000000000000000000008152600401612d8f90615973565b60405180910390fd5b612da58585858403613b0a565b60019150509392505050565b612db9613c2e565b60008060006101000a81548160ff0219169083151502179055507f5db9ee0a495bf2e6ff9c91a7834c1ba4fdd244a5e8aa4e537bd38aeae4b073aa612dfc613b02565b604051612e0991906143ef565b60405180910390a1565b60008060019054906101000a900473ffffffffffffffffffffffffffffffffffffffff16905081600060016101000a81548173ffffffffffffffffffffffffffffffffffffffff021916908373ffffffffffffffffffffffffffffffffffffffff1602179055508173ffffffffffffffffffffffffffffffffffffffff168173ffffffffffffffffffffffffffffffffffffffff167f8be0079c531659141344cd1fd0a4f28419497f9722a3daafe3b4186f6b6457e060405160405180910390a35050565b612ee0613c77565b60016000806101000a81548160ff0219169083151502179055507f62e78cea01bee320cd4e420270b5ea74000d11b0c9f74754ebdbfc544b05a258612f23613b02565b604051612f3091906143ef565b60405180910390a1565b600080600080612f576201518086612f5291906159c2565b613cc1565b80935081945082955050505080606483612f719190614ebc565b61271085612f7f9190614ebc565b612f899190614f2b565b612f939190614f2b565b9350505050919050565b6000600c60008573ffffffffffffffffffffffffffffffffffffffff1673ffffffffffffffffffffffffffffffffffffffff168152602001908152602001600020805490500361318a57600b839080600181540180825580915050600190039060005260206000200160009091909190916101000a81548173ffffffffffffffffffffffffffffffffffffffff021916908373ffffffffffffffffffffffffffffffffffffffff160217905550600c60008473ffffffffffffffffffffffffffffffffffffffff1673ffffffffffffffffffffffffffffffffffffffff1681526020019081526020016000206040518060600160405280848152602001838152602001600081525090806001815401808255809150506001900390600052602060002090600302016000909190919091506000820151816000015560208201518160010155604082015181600201555050600c60008473ffffffffffffffffffffffffffffffffffffffff1673ffffffffffffffffffffffffffffffffffffffff16815260200190815260200160002080549050600d60008573ffffffffffffffffffffffffffffffffffffffff1673ffffffffffffffffffffffffffffffffffffffff1681526020019081526020016000206000848152602001908152602001600020819055506133f9565b6000600d60008573ffffffffffffffffffffffffffffffffffffffff1673ffffffffffffffffffffffffffffffffffffffff1681526020019081526020016000206000848152602001908152602001600020540361332257600c60008473ffffffffffffffffffffffffffffffffffffffff1673ffffffffffffffffffffffffffffffffffffffff1681526020019081526020016000206040518060600160405280848152602001838152602001600081525090806001815401808255809150506001900390600052602060002090600302016000909190919091506000820151816000015560208201518160010155604082015181600201555050600c60008473ffffffffffffffffffffffffffffffffffffffff1673ffffffffffffffffffffffffffffffffffffffff16815260200190815260200160002080549050600d60008573ffffffffffffffffffffffffffffffffffffffff1673ffffffffffffffffffffffffffffffffffffffff1681526020019081526020016000206000848152602001908152602001600020819055506133f8565b80600c60008573ffffffffffffffffffffffffffffffffffffffff1673ffffffffffffffffffffffffffffffffffffffff1681526020019081526020016000206001600d60008773ffffffffffffffffffffffffffffffffffffffff1673ffffffffffffffffffffffffffffffffffffffff1681526020019081526020016000206000868152602001908152602001600020546133bf9190614c5d565b815481106133d0576133cf614c91565b5b906000526020600020906003020160010160008282546133f09190614f2b565b925050819055505b5b505050565b600073ffffffffffffffffffffffffffffffffffffffff168273ffffffffffffffffffffffffffffffffffffffff1603613464576040517fd92e233d00000000000000000000000000000000000000000000000000000000815260040160405180910390fd5b80601160008282546134769190614f2b565b9250508190555080600f60008473ffffffffffffffffffffffffffffffffffffffff1673ffffffffffffffffffffffffffffffffffffffff168152602001908152602001600020600082825401925050819055505050565b600063012cc0308210156134e157600080fd5b60006064836134f091906159f3565b905060006064808561350291906159c2565b61350c91906159f3565b905060006127108561351e91906159c2565b9050600062253d8c60046064600c600e876135399190615a2e565b6135439190615a71565b611324866135519190615adb565b61355b9190615adb565b6135659190615a71565b60036135719190615b1f565b61357b9190615a71565b600c80600c600e8861358d9190615a2e565b6135979190615a71565b6135a19190615b1f565b6002876135ae9190615a2e565b6135b89190615a2e565b61016f6135c59190615b1f565b6135cf9190615a71565b6004600c600e886135e09190615a2e565b6135ea9190615a71565b6112c0876135f89190615adb565b6136029190615adb565b6105b561360f9190615b1f565b6136199190615a71565b617d4b886136279190615a2e565b6136319190615adb565b61363b9190615adb565b6136459190615a2e565b61364f9190615a2e565b905080945050505050919050565b600073ffffffffffffffffffffffffffffffffffffffff168273ffffffffffffffffffffffffffffffffffffffff16036136c3576040517fd92e233d00000000000000000000000000000000000000000000000000000000815260040160405180910390fd5b6000600f60008473ffffffffffffffffffffffffffffffffffffffff1673ffffffffffffffffffffffffffffffffffffffff1681526020019081526020016000205490508181101561374a576040517f08c379a000000000000000000000000000000000000000000000000000000000815260040161374190615be3565b60405180910390fd5b818103600f60008573ffffffffffffffffffffffffffffffffffffffff1673ffffffffffffffffffffffffffffffffffffffff1681526020019081526020016000208190555081601160008282540392505081905550505050565b60006137c68484846137b78888611ce9565b6137c19190614f2b565b613b0a565b600190509392505050565b6000600d60008673ffffffffffffffffffffffffffffffffffffffff1673ffffffffffffffffffffffffffffffffffffffff168152602001908152602001600020600085815260200190815260200160002054905060008103613869576040517f08c379a000000000000000000000000000000000000000000000000000000000815260040161386090614c0e565b60405180910390fd5b6000600c60008773ffffffffffffffffffffffffffffffffffffffff1673ffffffffffffffffffffffffffffffffffffffff1681526020019081526020016000206001836138b79190614c5d565b815481106138c8576138c7614c91565b5b9060005260206000209060030201604051806060016040529081600082015481526020016001820154815260200160028201548152505090508381602001511015613948576040517f08c379a000000000000000000000000000000000000000000000000000000000815260040161393f9061555c565b60405180910390fd5b826139a85783816040015182602001516139629190614c5d565b10156139a3576040517f08c379a000000000000000000000000000000000000000000000000000000000815260040161399a90615c4f565b60405180910390fd5b613a75565b83816040015110156139ef576040517f08c379a00000000000000000000000000000000000000000000000000000000081526004016139e690615cbb565b60405180910390fd5b83600c60008873ffffffffffffffffffffffffffffffffffffffff1673ffffffffffffffffffffffffffffffffffffffff168152602001908152602001600020600184613a3c9190614c5d565b81548110613a4d57613a4c614c91565b5b90600052602060002090600302016002016000828254613a6d9190614c5d565b925050819055505b83600c60008873ffffffffffffffffffffffffffffffffffffffff1673ffffffffffffffffffffffffffffffffffffffff168152602001908152602001600020600184613ac29190614c5d565b81548110613ad357613ad2614c91565b5b90600052602060002090600302016001016000828254613af39190614c5d565b92505081905550505050505050565b600033905090565b600073ffffffffffffffffffffffffffffffffffffffff168373ffffffffffffffffffffffffffffffffffffffff161480613b715750600073ffffffffffffffffffffffffffffffffffffffff168273ffffffffffffffffffffffffffffffffffffffff16145b15613ba8576040517fd92e233d00000000000000000000000000000000000000000000000000000000815260040160405180910390fd5b80601060008573ffffffffffffffffffffffffffffffffffffffff1673ffffffffffffffffffffffffffffffffffffffff16815260200190815260200160002060008473ffffffffffffffffffffffffffffffffffffffff1673ffffffffffffffffffffffffffffffffffffffff16815260200190815260200160002081905550505050565b613c36611485565b613c75576040517f08c379a0000000000000000000000000000000000000000000000000000000008152600401613c6c90615d27565b60405180910390fd5b565b613c7f611485565b15613cbf576040517f08c379a0000000000000000000000000000000000000000000000000000000008152600401613cb690615d93565b60405180910390fd5b565b600080600080849050600062253d8c62010bd983613cdf9190615adb565b613ce99190615adb565b9050600062023ab1826004613cfe9190615b1f565b613d089190615a71565b9050600460038262023ab1613d1d9190615b1f565b613d279190615adb565b613d319190615a71565b82613d3c9190615a2e565b9150600062164b09600184613d519190615adb565b610fa0613d5e9190615b1f565b613d689190615a71565b9050601f6004826105b5613d7c9190615b1f565b613d869190615a71565b84613d919190615a2e565b613d9b9190615adb565b9250600061098f846050613daf9190615b1f565b613db99190615a71565b9050600060508261098f613dcd9190615b1f565b613dd79190615a71565b85613de29190615a2e565b9050600b82613df19190615a71565b945084600c613e009190615b1f565b600283613e0d9190615adb565b613e179190615a2e565b91508483603186613e289190615a2e565b6064613e349190615b1f565b613e3e9190615adb565b613e489190615adb565b92508298508197508096505050505050509193909250565b6000604051905090565b600080fd5b600080fd5b600073ffffffffffffffffffffffffffffffffffffffff82169050919050565b6000613e9f82613e74565b9050919050565b613eaf81613e94565b8114613eba57600080fd5b50565b600081359050613ecc81613ea6565b92915050565b600060208284031215613ee857613ee7613e6a565b5b6000613ef684828501613ebd565b91505092915050565b600081519050919050565b600082825260208201905092915050565b6000819050602082019050919050565b6000819050919050565b613f3e81613f2b565b82525050565b606082016000820151613f5a6000850182613f35565b506020820151613f6d6020850182613f35565b506040820151613f806040850182613f35565b50505050565b6000613f928383613f44565b60608301905092915050565b6000602082019050919050565b6000613fb682613eff565b613fc08185613f0a565b9350613fcb83613f1b565b8060005b83811015613ffc578151613fe38882613f86565b9750613fee83613f9e565b925050600181019050613fcf565b5085935050505092915050565b600060208201905081810360008301526140238184613fab565b905092915050565b600081519050919050565b600082825260208201905092915050565b60005b8381101561406557808201518184015260208101905061404a565b60008484015250505050565b6000601f19601f8301169050919050565b600061408d8261402b565b6140978185614036565b93506140a7818560208601614047565b6140b081614071565b840191505092915050565b600060208201905081810360008301526140d58184614082565b905092915050565b6140e681613f2b565b81146140f157600080fd5b50565b600081359050614103816140dd565b92915050565b600080604083850312156141205761411f613e6a565b5b600061412e85828601613ebd565b925050602061413f858286016140f4565b9150509250929050565b60008115159050919050565b61415e81614149565b82525050565b60006020820190506141796000830184614155565b92915050565b600080fd5b600080fd5b7f4e487b7100000000000000000000000000000000000000000000000000000000600052604160045260246000fd5b6141c182614071565b810181811067ffffffffffffffff821117156141e0576141df614189565b5b80604052505050565b60006141f3613e60565b90506141ff82826141b8565b919050565b600067ffffffffffffffff82111561421f5761421e614189565b5b61422882614071565b9050602081019050919050565b82818337600083830152505050565b600061425761425284614204565b6141e9565b90508281526020810184848401111561427357614272614184565b5b61427e848285614235565b509392505050565b600082601f83011261429b5761429a61417f565b5b81356142ab848260208601614244565b91505092915050565b600080604083850312156142cb576142ca613e6a565b5b600083013567ffffffffffffffff8111156142e9576142e8613e6f565b5b6142f585828601614286565b925050602083013567ffffffffffffffff81111561431657614315613e6f565b5b61432285828601614286565b9150509250929050565b61433581613f2b565b82525050565b6000602082019050614350600083018461432c565b92915050565b60008060006060848603121561436f5761436e613e6a565b5b600061437d86828701613ebd565b935050602061438e86828701613ebd565b925050604061439f868287016140f4565b9150509250925092565b600060ff82169050919050565b6143bf816143a9565b82525050565b60006020820190506143da60008301846143b6565b92915050565b6143e981613e94565b82525050565b600060208201905061440460008301846143e0565b92915050565b60008060006060848603121561442357614422613e6a565b5b600061443186828701613ebd565b935050602061444286828701613ebd565b925050604061445386828701613ebd565b9150509250925092565b60006020828403121561447357614472613e6a565b5b6000614481848285016140f4565b91505092915050565b600080604083850312156144a1576144a0613e6a565b5b60006144af85828601613ebd565b92505060206144c085828601613ebd565b9150509250929050565b600080604083850312156144e1576144e0613e6a565b5b60006144ef858286016140f4565b9250506020614500858286016140f4565b9150509250929050565b6000806000806080858703121561452457614523613e6a565b5b600061453287828801613ebd565b9450506020614543878288016140f4565b9350506040614554878288016140f4565b9250506060614565878288016140f4565b91505092959194509250565b6000806000806080858703121561458b5761458a613e6a565b5b600061459987828801613ebd565b94505060206145aa87828801613ebd565b93505060406145bb878288016140f4565b92505060606145cc878288016140f4565b91505092959194509250565b7f4e487b7100000000000000000000000000000000000000000000000000000000600052602260045260246000fd5b6000600282049050600182168061461f57607f821691505b602082108103614632576146316145d8565b5b50919050565b60008190508160005260206000209050919050565b60006020601f8301049050919050565b600082821b905092915050565b60006008830261469a7fffffffffffffffffffffffffffffffffffffffffffffffffffffffffffffffff8261465d565b6146a4868361465d565b95508019841693508086168417925050509392505050565b6000819050919050565b60006146e16146dc6146d784613f2b565b6146bc565b613f2b565b9050919050565b6000819050919050565b6146fb836146c6565b61470f614707826146e8565b84845461466a565b825550505050565b600090565b614724614717565b61472f8184846146f2565b505050565b5b818110156147535761474860008261471c565b600181019050614735565b5050565b601f8211156147985761476981614638565b6147728461464d565b81016020851015614781578190505b61479561478d8561464d565b830182614734565b50505b505050565b600082821c905092915050565b60006147bb6000198460080261479d565b1980831691505092915050565b60006147d483836147aa565b9150826002028217905092915050565b6147ed8261402b565b67ffffffffffffffff81111561480657614805614189565b5b6148108254614607565b61481b828285614757565b600060209050601f83116001811461484e576000841561483c578287015190505b61484685826147c8565b8655506148ae565b601f19841661485c86614638565b60005b828110156148845784890151825560018201915060208501945060208101905061485f565b868310156148a1578489015161489d601f8916826147aa565b8355505b6001600288020188555050505b505050505050565b7f546f6b656e207761736e27742066756c6c7920696e697469616c697a65642e00600082015250565b60006148ec601f83614036565b91506148f7826148b6565b602082019050919050565b6000602082019050818103600083015261491b816148df565b9050919050565b600065ffffffffffff82169050919050565b61493d81614922565b82525050565b600060408201905061495860008301856143e0565b6149656020830184614934565b9392505050565b61497581614149565b811461498057600080fd5b50565b6000815190506149928161496c565b92915050565b6000602082840312156149ae576149ad613e6a565b5b60006149bc84828501614983565b91505092915050565b7f506c6174666f726d206e6f7420617070726f7665642e00000000000000000000600082015250565b60006149fb601683614036565b9150614a06826149c5565b602082019050919050565b60006020820190508181036000830152614a2a816149ee565b9050919050565b7f506c6174666f726d2069736e277420726567697374657265642e000000000000600082015250565b6000614a67601a83614036565b9150614a7282614a31565b602082019050919050565b60006020820190508181036000830152614a9681614a5a565b9050919050565b600080fd5b6000614aad82613e74565b9050919050565b614abd81614aa2565b8114614ac857600080fd5b50565b600081519050614ada81614ab4565b92915050565b600081519050614aef816140dd565b92915050565b600060c08284031215614b0b57614b0a614a9d565b5b614b1560c06141e9565b90506000614b2584828501614acb565b6000830152506020614b3984828501614acb565b6020830152506040614b4d84828501614ae0565b6040830152506060614b6184828501614ae0565b6060830152506080614b7584828501614ae0565b60808301525060a0614b8984828501614983565b60a08301525092915050565b600060c08284031215614bab57614baa613e6a565b5b6000614bb984828501614af5565b91505092915050565b7f4e6f207375636820626f6e647300000000000000000000000000000000000000600082015250565b6000614bf8600d83614036565b9150614c0382614bc2565b602082019050919050565b60006020820190508181036000830152614c2781614beb565b9050919050565b7f4e487b7100000000000000000000000000000000000000000000000000000000600052601160045260246000fd5b6000614c6882613f2b565b9150614c7383613f2b565b9250828203905081811115614c8b57614c8a614c2e565b5b92915050565b7f4e487b7100000000000000000000000000000000000000000000000000000000600052603260045260246000fd5b7f536f6d657468696e6720766572792057726f6e67000000000000000000000000600082015250565b6000614cf6601483614036565b9150614d0182614cc0565b602082019050919050565b60006020820190508181036000830152614d2581614ce9565b9050919050565b7f536f6d657468696e6720766572792057726f6e67202d2077726f6e6720626f6e60008201527f6400000000000000000000000000000000000000000000000000000000000000602082015250565b6000614d88602183614036565b9150614d9382614d2c565b604082019050919050565b60006020820190508181036000830152614db781614d7b565b9050919050565b7f536f6d657468696e6720766572792057726f6e67202d20736f6d656f6e65656c60008201527f736573206f666665720000000000000000000000000000000000000000000000602082015250565b6000614e1a602983614036565b9150614e2582614dbe565b604082019050919050565b60006020820190508181036000830152614e4981614e0d565b9050919050565b7f4e6f74206120686f6c6465720000000000000000000000000000000000000000600082015250565b6000614e86600c83614036565b9150614e9182614e50565b602082019050919050565b60006020820190508181036000830152614eb581614e79565b9050919050565b6000614ec782613f2b565b9150614ed283613f2b565b9250828202614ee081613f2b565b91508282048414831517614ef757614ef6614c2e565b5b5092915050565b600060208284031215614f1457614f13613e6a565b5b6000614f2284828501614ae0565b91505092915050565b6000614f3682613f2b565b9150614f4183613f2b565b9250828201905080821115614f5957614f58614c2e565b5b92915050565b6000614f6a82613f2b565b91507fffffffffffffffffffffffffffffffffffffffffffffffffffffffffffffffff8203614f9c57614f9b614c2e565b5b600182019050919050565b6000606082019050614fbc60008301866143e0565b614fc960208301856143e0565b614fd6604083018461432c565b949350505050565b7f506c6174666f726d206e6f7420726567697374657265642e0000000000000000600082015250565b6000615014601883614036565b915061501f82614fde565b602082019050919050565b6000602082019050818103600083015261504381615007565b9050919050565b615053816143a9565b811461505e57600080fd5b50565b6000815190506150708161504a565b92915050565b60006020828403121561508c5761508b613e6a565b5b600061509a84828501615061565b91505092915050565b7f546865206e756d626572206f6620626f6e64732073686f756c6420626520677260008201527f6561746572207468616e20302e00000000000000000000000000000000000000602082015250565b60006150ff602d83614036565b915061510a826150a3565b604082019050919050565b6000602082019050818103600083015261512e816150f2565b9050919050565b7f5468652062757965722069736e277420646566696e656420617320616e20617060008201527f70726f76656420617373657420686f6c6465722e000000000000000000000000602082015250565b6000615191603483614036565b915061519c82615135565b604082019050919050565b600060208201905081810360008301526151c081615184565b9050919050565b7f54686520746f74616c206e756d626572206f6620626f6e64732065786365656460008201527f732074686520656e7469726520737570706c792076616c75652e000000000000602082015250565b6000615223603a83614036565b915061522e826151c7565b604082019050919050565b6000602082019050818103600083015261525281615216565b9050919050565b7f54686520627579657220646f65736e2774206861766520656e6f756768206d6f60008201527f6e657920696e207468656972206163636f756e742e0000000000000000000000602082015250565b60006152b5603583614036565b91506152c082615259565b604082019050919050565b600060208201905081810360008301526152e4816152a8565b9050919050565b600060408201905061530060008301856143e0565b61530d60208301846143e0565b9392505050565b7f546865206163636f756e7420616c6c6f77616e636520666f722074686520747260008201527f6164652069732073657420746f6f206c6f772e00000000000000000000000000602082015250565b6000615370603383614036565b915061537b82615314565b604082019050919050565b6000602082019050818103600083015261539f81615363565b9050919050565b7f54686520616d6f757420657863656564732074686520746f74616c207375707060008201527f6c6179206f662074686520617373657400000000000000000000000000000000602082015250565b6000615402603083614036565b915061540d826153a6565b604082019050919050565b60006020820190508181036000830152615431816153f5565b9050919050565b7f416c6c6f77616e636520746f6f206c6f77000000000000000000000000000000600082015250565b600061546e601183614036565b915061547982615438565b602082019050919050565b6000602082019050818103600083015261549d81615461565b9050919050565b7f4e6f20626f6e6473207769746820746865206461746500000000000000000000600082015250565b60006154da601683614036565b91506154e5826154a4565b602082019050919050565b60006020820190508181036000830152615509816154cd565b9050919050565b7f4e6f7420656e6f75676820626f6e647300000000000000000000000000000000600082015250565b6000615546601083614036565b915061555182615510565b602082019050919050565b6000602082019050818103600083015261557581615539565b9050919050565b7f4e6f7420656e6f75676820737061726520626f6e647300000000000000000000600082015250565b60006155b2601683614036565b91506155bd8261557c565b602082019050919050565b600060208201905081810360008301526155e1816155a5565b9050919050565b60006080820190506155fd60008301876143e0565b61560a602083018661432c565b615617604083018561432c565b615624606083018461432c565b95945050505050565b7f4f776e61626c653a206e6577206f776e657220697320746865207a65726f206160008201527f6464726573730000000000000000000000000000000000000000000000000000602082015250565b6000615689602683614036565b91506156948261562d565b604082019050919050565b600060208201905081810360008301526156b88161567c565b9050919050565b7f416d6f7574206578636565647320746f74616c20737570706c61790000000000600082015250565b60006156f5601b83614036565b9150615700826156bf565b602082019050919050565b60006020820190508181036000830152615724816156e8565b9050919050565b7f5468652073656e6465722069736e277420646566696e656420617320616e206160008201527f7070726f766564206f66666572696e6720706c6174666f726d2e000000000000602082015250565b6000615787603a83614036565b91506157928261572b565b604082019050919050565b600060208201905081810360008301526157b68161577a565b9050919050565b7f4e6f7420656e6f75676820616c6c6f77616e6365000000000000000000000000600082015250565b60006157f3601483614036565b91506157fe826157bd565b602082019050919050565b60006020820190508181036000830152615822816157e6565b9050919050565b7f54686520616d6f757420657863656564732074686520746f74616c207375707060008201527f6c61790000000000000000000000000000000000000000000000000000000000602082015250565b6000615885602383614036565b915061589082615829565b604082019050919050565b600060208201905081810360008301526158b481615878565b9050919050565b7f4f776e61626c653a2063616c6c6572206973206e6f7420746865206f776e6572600082015250565b60006158f1602083614036565b91506158fc826158bb565b602082019050919050565b60006020820190508181036000830152615920816158e4565b9050919050565b7f44656372656173656420616c6c6f77616e63652062656c6f7720300000000000600082015250565b600061595d601b83614036565b915061596882615927565b602082019050919050565b6000602082019050818103600083015261598c81615950565b9050919050565b7f4e487b7100000000000000000000000000000000000000000000000000000000600052601260045260246000fd5b60006159cd82613f2b565b91506159d883613f2b565b9250826159e8576159e7615993565b5b828204905092915050565b60006159fe82613f2b565b9150615a0983613f2b565b925082615a1957615a18615993565b5b828206905092915050565b6000819050919050565b6000615a3982615a24565b9150615a4483615a24565b9250828203905081811260008412168282136000851215161715615a6b57615a6a614c2e565b5b92915050565b6000615a7c82615a24565b9150615a8783615a24565b925082615a9757615a96615993565b5b600160000383147f800000000000000000000000000000000000000000000000000000000000000083141615615ad057615acf614c2e565b5b828205905092915050565b6000615ae682615a24565b9150615af183615a24565b925082820190508281121560008312168382126000841215161715615b1957615b18614c2e565b5b92915050565b6000615b2a82615a24565b9150615b3583615a24565b9250828202615b4381615a24565b91507f80000000000000000000000000000000000000000000000000000000000000008414600084121615615b7b57615b7a614c2e565b5b8282058414831517615b9057615b8f614c2e565b5b5092915050565b7f4275726e20616d6f756e7420657863656564732062616c616e63650000000000600082015250565b6000615bcd601b83614036565b9150615bd882615b97565b602082019050919050565b60006020820190508181036000830152615bfc81615bc0565b9050919050565b7f4e6f7420656e6f75676820626f6e647320617661696c69626c65000000000000600082015250565b6000615c39601a83614036565b9150615c4482615c03565b602082019050919050565b60006020820190508181036000830152615c6881615c2c565b9050919050565b7f4e6f7420656e6f75676820626c6f636b656420626f6e64730000000000000000600082015250565b6000615ca5601883614036565b9150615cb082615c6f565b602082019050919050565b60006020820190508181036000830152615cd481615c98565b9050919050565b7f5061757361626c653a206e6f7420706175736564000000000000000000000000600082015250565b6000615d11601483614036565b9150615d1c82615cdb565b602082019050919050565b60006020820190508181036000830152615d4081615d04565b9050919050565b7f5061757361626c653a2070617573656400000000000000000000000000000000600082015250565b6000615d7d601083614036565b9150615d8882615d47565b602082019050919050565b60006020820190508181036000830152615dac81615d70565b905091905056fea26469706673582212202ebdf9d55eafaff970c6c5bf636961ad9030ea15d72594e04cbf583fff2783da64736f6c63430008120033",
			"opcodes": "PUSH1 0x80 PUSH1 0x40 MSTORE CALLVALUE DUP1 ISZERO PUSH3 0x11 JUMPI PUSH1 0x0 DUP1 REVERT JUMPDEST POP PUSH1 0x0 DUP1 PUSH1 0x0 PUSH2 0x100 EXP DUP2 SLOAD DUP2 PUSH1 0xFF MUL NOT AND SWAP1 DUP4 ISZERO ISZERO MUL OR SWAP1 SSTORE POP PUSH3 0x4C PUSH3 0x40 PUSH3 0xB3 PUSH1 0x20 SHL PUSH1 0x20 SHR JUMP JUMPDEST PUSH3 0xBB PUSH1 0x20 SHL PUSH1 0x20 SHR JUMP JUMPDEST PUSH3 0xF4240 PUSH1 0x7 DUP2 SWAP1 SSTORE POP PUSH2 0x2710 PUSH1 0x8 DUP2 SWAP1 SSTORE POP PUSH1 0x64 PUSH1 0xA DUP2 SWAP1 SSTORE POP PUSH1 0x1 PUSH1 0x9 DUP2 SWAP1 SSTORE POP PUSH1 0x0 PUSH1 0x3 PUSH1 0x14 PUSH2 0x100 EXP DUP2 SLOAD DUP2 PUSH1 0xFF MUL NOT AND SWAP1 DUP4 ISZERO ISZERO MUL OR SWAP1 SSTORE POP PUSH1 0x0 PUSH1 0x3 PUSH1 0x15 PUSH2 0x100 EXP DUP2 SLOAD DUP2 PUSH1 0xFF MUL NOT AND SWAP1 DUP4 ISZERO ISZERO MUL OR SWAP1 SSTORE POP PUSH1 0x0 PUSH1 0x11 DUP2 SWAP1 SSTORE POP PUSH3 0x180 JUMP JUMPDEST PUSH1 0x0 CALLER SWAP1 POP SWAP1 JUMP JUMPDEST PUSH1 0x0 DUP1 PUSH1 0x1 SWAP1 SLOAD SWAP1 PUSH2 0x100 EXP SWAP1 DIV PUSH20 0xFFFFFFFFFFFFFFFFFFFFFFFFFFFFFFFFFFFFFFFF AND SWAP1 POP DUP2 PUSH1 0x0 PUSH1 0x1 PUSH2 0x100 EXP DUP2 SLOAD DUP2 PUSH20 0xFFFFFFFFFFFFFFFFFFFFFFFFFFFFFFFFFFFFFFFF MUL NOT AND SWAP1 DUP4 PUSH20 0xFFFFFFFFFFFFFFFFFFFFFFFFFFFFFFFFFFFFFFFF AND MUL OR SWAP1 SSTORE POP DUP2 PUSH20 0xFFFFFFFFFFFFFFFFFFFFFFFFFFFFFFFFFFFFFFFF AND DUP2 PUSH20 0xFFFFFFFFFFFFFFFFFFFFFFFFFFFFFFFFFFFFFFFF AND PUSH32 0x8BE0079C531659141344CD1FD0A4F28419497F9722A3DAAFE3B4186F6B6457E0 PUSH1 0x40 MLOAD PUSH1 0x40 MLOAD DUP1 SWAP2 SUB SWAP1 LOG3 POP POP JUMP JUMPDEST PUSH2 0x5DE9 DUP1 PUSH3 0x190 PUSH1 0x0 CODECOPY PUSH1 0x0 RETURN INVALID PUSH1 0x80 PUSH1 0x40 MSTORE CALLVALUE DUP1 ISZERO PUSH2 0x10 JUMPI PUSH1 0x0 DUP1 REVERT JUMPDEST POP PUSH1 0x4 CALLDATASIZE LT PUSH2 0x1A9 JUMPI PUSH1 0x0 CALLDATALOAD PUSH1 0xE0 SHR DUP1 PUSH4 0x5C975ABB GT PUSH2 0xF9 JUMPI DUP1 PUSH4 0xA9059CBB GT PUSH2 0x97 JUMPI DUP1 PUSH4 0xE21E95BD GT PUSH2 0x71 JUMPI DUP1 PUSH4 0xE21E95BD EQ PUSH2 0x482 JUMPI DUP1 PUSH4 0xEB4AA830 EQ PUSH2 0x49E JUMPI DUP1 PUSH4 0xF2FDE38B EQ PUSH2 0x4CE JUMPI DUP1 PUSH4 0xFE99049A EQ PUSH2 0x4EA JUMPI PUSH2 0x1A9 JUMP JUMPDEST DUP1 PUSH4 0xA9059CBB EQ PUSH2 0x406 JUMPI DUP1 PUSH4 0xCC872B66 EQ PUSH2 0x436 JUMPI DUP1 PUSH4 0xDD62ED3E EQ PUSH2 0x452 JUMPI PUSH2 0x1A9 JUMP JUMPDEST DUP1 PUSH4 0x8456CB59 GT PUSH2 0xD3 JUMPI DUP1 PUSH4 0x8456CB59 EQ PUSH2 0x3A4 JUMPI DUP1 PUSH4 0x8DA5CB5B EQ PUSH2 0x3AE JUMPI DUP1 PUSH4 0x95D89B41 EQ PUSH2 0x3CC JUMPI DUP1 PUSH4 0x9E2C8ADB EQ PUSH2 0x3EA JUMPI PUSH2 0x1A9 JUMP JUMPDEST DUP1 PUSH4 0x5C975ABB EQ PUSH2 0x34C JUMPI DUP1 PUSH4 0x70A08231 EQ PUSH2 0x36A JUMPI DUP1 PUSH4 0x715018A6 EQ PUSH2 0x39A JUMPI PUSH2 0x1A9 JUMP JUMPDEST DUP1 PUSH4 0x1CD26AC5 GT PUSH2 0x166 JUMPI DUP1 PUSH4 0x313CE567 GT PUSH2 0x140 JUMPI DUP1 PUSH4 0x313CE567 EQ PUSH2 0x2FE JUMPI DUP1 PUSH4 0x3F4BA83A EQ PUSH2 0x31C JUMPI DUP1 PUSH4 0x55C01345 EQ PUSH2 0x326 JUMPI DUP1 PUSH4 0x56E34223 EQ PUSH2 0x330 JUMPI PUSH2 0x1A9 JUMP JUMPDEST DUP1 PUSH4 0x1CD26AC5 EQ PUSH2 0x282 JUMPI DUP1 PUSH4 0x2391ABD3 EQ PUSH2 0x29E JUMPI DUP1 PUSH4 0x23B872DD EQ PUSH2 0x2CE JUMPI PUSH2 0x1A9 JUMP JUMPDEST DUP1 PUSH4 0x1247F61 EQ PUSH2 0x1AE JUMPI DUP1 PUSH4 0x6FDDE03 EQ PUSH2 0x1DE JUMPI DUP1 PUSH4 0x95EA7B3 EQ PUSH2 0x1FC JUMPI DUP1 PUSH4 0x1717E8F4 EQ PUSH2 0x22C JUMPI DUP1 PUSH4 0x18160DDD EQ PUSH2 0x248 JUMPI DUP1 PUSH4 0x1993D54B EQ PUSH2 0x266 JUMPI JUMPDEST PUSH1 0x0 DUP1 REVERT JUMPDEST PUSH2 0x1C8 PUSH1 0x4 DUP1 CALLDATASIZE SUB DUP2 ADD SWAP1 PUSH2 0x1C3 SWAP2 SWAP1 PUSH2 0x3ED2 JUMP JUMPDEST PUSH2 0x51A JUMP JUMPDEST PUSH1 0x40 MLOAD PUSH2 0x1D5 SWAP2 SWAP1 PUSH2 0x4009 JUMP JUMPDEST PUSH1 0x40 MLOAD DUP1 SWAP2 SUB SWAP1 RETURN JUMPDEST PUSH2 0x1E6 PUSH2 0x63C JUMP JUMPDEST PUSH1 0x40 MLOAD PUSH2 0x1F3 SWAP2 SWAP1 PUSH2 0x40BB JUMP JUMPDEST PUSH1 0x40 MLOAD DUP1 SWAP2 SUB SWAP1 RETURN JUMPDEST PUSH2 0x216 PUSH1 0x4 DUP1 CALLDATASIZE SUB DUP2 ADD SWAP1 PUSH2 0x211 SWAP2 SWAP1 PUSH2 0x4109 JUMP JUMPDEST PUSH2 0x6CE JUMP JUMPDEST PUSH1 0x40 MLOAD PUSH2 0x223 SWAP2 SWAP1 PUSH2 0x4164 JUMP JUMPDEST PUSH1 0x40 MLOAD DUP1 SWAP2 SUB SWAP1 RETURN JUMPDEST PUSH2 0x246 PUSH1 0x4 DUP1 CALLDATASIZE SUB DUP2 ADD SWAP1 PUSH2 0x241 SWAP2 SWAP1 PUSH2 0x42B4 JUMP JUMPDEST PUSH2 0x702 JUMP JUMPDEST STOP JUMPDEST PUSH2 0x250 PUSH2 0x764 JUMP JUMPDEST PUSH1 0x40 MLOAD PUSH2 0x25D SWAP2 SWAP1 PUSH2 0x433B JUMP JUMPDEST PUSH1 0x40 MLOAD DUP1 SWAP2 SUB SWAP1 RETURN JUMPDEST PUSH2 0x280 PUSH1 0x4 DUP1 CALLDATASIZE SUB DUP2 ADD SWAP1 PUSH2 0x27B SWAP2 SWAP1 PUSH2 0x3ED2 JUMP JUMPDEST PUSH2 0x76E JUMP JUMPDEST STOP JUMPDEST PUSH2 0x29C PUSH1 0x4 DUP1 CALLDATASIZE SUB DUP2 ADD SWAP1 PUSH2 0x297 SWAP2 SWAP1 PUSH2 0x3ED2 JUMP JUMPDEST PUSH2 0x7BA JUMP JUMPDEST STOP JUMPDEST PUSH2 0x2B8 PUSH1 0x4 DUP1 CALLDATASIZE SUB DUP2 ADD SWAP1 PUSH2 0x2B3 SWAP2 SWAP1 PUSH2 0x4109 JUMP JUMPDEST PUSH2 0x9C7 JUMP JUMPDEST PUSH1 0x40 MLOAD PUSH2 0x2C5 SWAP2 SWAP1 PUSH2 0x4164 JUMP JUMPDEST PUSH1 0x40 MLOAD DUP1 SWAP2 SUB SWAP1 RETURN JUMPDEST PUSH2 0x2E8 PUSH1 0x4 DUP1 CALLDATASIZE SUB DUP2 ADD SWAP1 PUSH2 0x2E3 SWAP2 SWAP1 PUSH2 0x4356 JUMP JUMPDEST PUSH2 0xDE5 JUMP JUMPDEST PUSH1 0x40 MLOAD PUSH2 0x2F5 SWAP2 SWAP1 PUSH2 0x4164 JUMP JUMPDEST PUSH1 0x40 MLOAD DUP1 SWAP2 SUB SWAP1 RETURN JUMPDEST PUSH2 0x306 PUSH2 0xE19 JUMP JUMPDEST PUSH1 0x40 MLOAD PUSH2 0x313 SWAP2 SWAP1 PUSH2 0x43C5 JUMP JUMPDEST PUSH1 0x40 MLOAD DUP1 SWAP2 SUB SWAP1 RETURN JUMPDEST PUSH2 0x324 PUSH2 0xE1E JUMP JUMPDEST STOP JUMPDEST PUSH2 0x32E PUSH2 0xE30 JUMP JUMPDEST STOP JUMPDEST PUSH2 0x34A PUSH1 0x4 DUP1 CALLDATASIZE SUB DUP2 ADD SWAP1 PUSH2 0x345 SWAP2 SWAP1 PUSH2 0x3ED2 JUMP JUMPDEST PUSH2 0x12C3 JUMP JUMPDEST STOP JUMPDEST PUSH2 0x354 PUSH2 0x1485 JUMP JUMPDEST PUSH1 0x40 MLOAD PUSH2 0x361 SWAP2 SWAP1 PUSH2 0x4164 JUMP JUMPDEST PUSH1 0x40 MLOAD DUP1 SWAP2 SUB SWAP1 RETURN JUMPDEST PUSH2 0x384 PUSH1 0x4 DUP1 CALLDATASIZE SUB DUP2 ADD SWAP1 PUSH2 0x37F SWAP2 SWAP1 PUSH2 0x3ED2 JUMP JUMPDEST PUSH2 0x149B JUMP JUMPDEST PUSH1 0x40 MLOAD PUSH2 0x391 SWAP2 SWAP1 PUSH2 0x433B JUMP JUMPDEST PUSH1 0x40 MLOAD DUP1 SWAP2 SUB SWAP1 RETURN JUMPDEST PUSH2 0x3A2 PUSH2 0x14E4 JUMP JUMPDEST STOP JUMPDEST PUSH2 0x3AC PUSH2 0x14F8 JUMP JUMPDEST STOP JUMPDEST PUSH2 0x3B6 PUSH2 0x150A JUMP JUMPDEST PUSH1 0x40 MLOAD PUSH2 0x3C3 SWAP2 SWAP1 PUSH2 0x43EF JUMP JUMPDEST PUSH1 0x40 MLOAD DUP1 SWAP2 SUB SWAP1 RETURN JUMPDEST PUSH2 0x3D4 PUSH2 0x1534 JUMP JUMPDEST PUSH1 0x40 MLOAD PUSH2 0x3E1 SWAP2 SWAP1 PUSH2 0x40BB JUMP JUMPDEST PUSH1 0x40 MLOAD DUP1 SWAP2 SUB SWAP1 RETURN JUMPDEST PUSH2 0x404 PUSH1 0x4 DUP1 CALLDATASIZE SUB DUP2 ADD SWAP1 PUSH2 0x3FF SWAP2 SWAP1 PUSH2 0x440A JUMP JUMPDEST PUSH2 0x15C6 JUMP JUMPDEST STOP JUMPDEST PUSH2 0x420 PUSH1 0x4 DUP1 CALLDATASIZE SUB DUP2 ADD SWAP1 PUSH2 0x41B SWAP2 SWAP1 PUSH2 0x4109 JUMP JUMPDEST PUSH2 0x1818 JUMP JUMPDEST PUSH1 0x40 MLOAD PUSH2 0x42D SWAP2 SWAP1 PUSH2 0x4164 JUMP JUMPDEST PUSH1 0x40 MLOAD DUP1 SWAP2 SUB SWAP1 RETURN JUMPDEST PUSH2 0x450 PUSH1 0x4 DUP1 CALLDATASIZE SUB DUP2 ADD SWAP1 PUSH2 0x44B SWAP2 SWAP1 PUSH2 0x445D JUMP JUMPDEST PUSH2 0x184C JUMP JUMPDEST STOP JUMPDEST PUSH2 0x46C PUSH1 0x4 DUP1 CALLDATASIZE SUB DUP2 ADD SWAP1 PUSH2 0x467 SWAP2 SWAP1 PUSH2 0x448A JUMP JUMPDEST PUSH2 0x1CE9 JUMP JUMPDEST PUSH1 0x40 MLOAD PUSH2 0x479 SWAP2 SWAP1 PUSH2 0x433B JUMP JUMPDEST PUSH1 0x40 MLOAD DUP1 SWAP2 SUB SWAP1 RETURN JUMPDEST PUSH2 0x49C PUSH1 0x4 DUP1 CALLDATASIZE SUB DUP2 ADD SWAP1 PUSH2 0x497 SWAP2 SWAP1 PUSH2 0x44CA JUMP JUMPDEST PUSH2 0x1D70 JUMP JUMPDEST STOP JUMPDEST PUSH2 0x4B8 PUSH1 0x4 DUP1 CALLDATASIZE SUB DUP2 ADD SWAP1 PUSH2 0x4B3 SWAP2 SWAP1 PUSH2 0x450A JUMP JUMPDEST PUSH2 0x2487 JUMP JUMPDEST PUSH1 0x40 MLOAD PUSH2 0x4C5 SWAP2 SWAP1 PUSH2 0x433B JUMP JUMPDEST PUSH1 0x40 MLOAD DUP1 SWAP2 SUB SWAP1 RETURN JUMPDEST PUSH2 0x4E8 PUSH1 0x4 DUP1 CALLDATASIZE SUB DUP2 ADD SWAP1 PUSH2 0x4E3 SWAP2 SWAP1 PUSH2 0x3ED2 JUMP JUMPDEST PUSH2 0x27C7 JUMP JUMPDEST STOP JUMPDEST PUSH2 0x504 PUSH1 0x4 DUP1 CALLDATASIZE SUB DUP2 ADD SWAP1 PUSH2 0x4FF SWAP2 SWAP1 PUSH2 0x4571 JUMP JUMPDEST PUSH2 0x284A JUMP JUMPDEST PUSH1 0x40 MLOAD PUSH2 0x511 SWAP2 SWAP1 PUSH2 0x4164 JUMP JUMPDEST PUSH1 0x40 MLOAD DUP1 SWAP2 SUB SWAP1 RETURN JUMPDEST PUSH1 0x60 PUSH1 0x0 PUSH20 0xFFFFFFFFFFFFFFFFFFFFFFFFFFFFFFFFFFFFFFFF AND DUP3 PUSH20 0xFFFFFFFFFFFFFFFFFFFFFFFFFFFFFFFFFFFFFFFF AND SUB PUSH2 0x582 JUMPI PUSH1 0x40 MLOAD PUSH32 0xD92E233D00000000000000000000000000000000000000000000000000000000 DUP2 MSTORE PUSH1 0x4 ADD PUSH1 0x40 MLOAD DUP1 SWAP2 SUB SWAP1 REVERT JUMPDEST PUSH1 0xC PUSH1 0x0 DUP4 PUSH20 0xFFFFFFFFFFFFFFFFFFFFFFFFFFFFFFFFFFFFFFFF AND PUSH20 0xFFFFFFFFFFFFFFFFFFFFFFFFFFFFFFFFFFFFFFFF AND DUP2 MSTORE PUSH1 0x20 ADD SWAP1 DUP2 MSTORE PUSH1 0x20 ADD PUSH1 0x0 KECCAK256 DUP1 SLOAD DUP1 PUSH1 0x20 MUL PUSH1 0x20 ADD PUSH1 0x40 MLOAD SWAP1 DUP2 ADD PUSH1 0x40 MSTORE DUP1 SWAP3 SWAP2 SWAP1 DUP2 DUP2 MSTORE PUSH1 0x20 ADD PUSH1 0x0 SWAP1 JUMPDEST DUP3 DUP3 LT ISZERO PUSH2 0x631 JUMPI DUP4 DUP3 SWAP1 PUSH1 0x0 MSTORE PUSH1 0x20 PUSH1 0x0 KECCAK256 SWAP1 PUSH1 0x3 MUL ADD PUSH1 0x40 MLOAD DUP1 PUSH1 0x60 ADD PUSH1 0x40 MSTORE SWAP1 DUP2 PUSH1 0x0 DUP3 ADD SLOAD DUP2 MSTORE PUSH1 0x20 ADD PUSH1 0x1 DUP3 ADD SLOAD DUP2 MSTORE PUSH1 0x20 ADD PUSH1 0x2 DUP3 ADD SLOAD DUP2 MSTORE POP POP DUP2 MSTORE PUSH1 0x20 ADD SWAP1 PUSH1 0x1 ADD SWAP1 PUSH2 0x5E1 JUMP JUMPDEST POP POP POP POP SWAP1 POP SWAP2 SWAP1 POP JUMP JUMPDEST PUSH1 0x60 PUSH1 0x1 DUP1 SLOAD PUSH2 0x64B SWAP1 PUSH2 0x4607 JUMP JUMPDEST DUP1 PUSH1 0x1F ADD PUSH1 0x20 DUP1 SWAP2 DIV MUL PUSH1 0x20 ADD PUSH1 0x40 MLOAD SWAP1 DUP2 ADD PUSH1 0x40 MSTORE DUP1 SWAP3 SWAP2 SWAP1 DUP2 DUP2 MSTORE PUSH1 0x20 ADD DUP3 DUP1 SLOAD PUSH2 0x677 SWAP1 PUSH2 0x4607 JUMP JUMPDEST DUP1 ISZERO PUSH2 0x6C4 JUMPI DUP1 PUSH1 0x1F LT PUSH2 0x699 JUMPI PUSH2 0x100 DUP1 DUP4 SLOAD DIV MUL DUP4 MSTORE SWAP2 PUSH1 0x20 ADD SWAP2 PUSH2 0x6C4 JUMP JUMPDEST DUP3 ADD SWAP2 SWAP1 PUSH1 0x0 MSTORE PUSH1 0x20 PUSH1 0x0 KECCAK256 SWAP1 JUMPDEST DUP2 SLOAD DUP2 MSTORE SWAP1 PUSH1 0x1 ADD SWAP1 PUSH1 0x20 ADD DUP1 DUP4 GT PUSH2 0x6A7 JUMPI DUP3 SWAP1 SUB PUSH1 0x1F AND DUP3 ADD SWAP2 JUMPDEST POP POP POP POP POP SWAP1 POP SWAP1 JUMP JUMPDEST PUSH1 0x0 PUSH1 0x40 MLOAD PUSH32 0xD9B9141900000000000000000000000000000000000000000000000000000000 DUP2 MSTORE PUSH1 0x4 ADD PUSH1 0x40 MLOAD DUP1 SWAP2 SUB SWAP1 REVERT JUMPDEST PUSH3 0xF4240 PUSH1 0x7 DUP2 SWAP1 SSTORE POP PUSH2 0x2710 PUSH1 0x8 DUP2 SWAP1 SSTORE POP PUSH1 0x64 PUSH1 0xA DUP2 SWAP1 SSTORE POP PUSH1 0x1 PUSH1 0x9 DUP2 SWAP1 SSTORE POP DUP2 PUSH1 0x1 SWAP1 DUP2 PUSH2 0x734 SWAP2 SWAP1 PUSH2 0x47E4 JUMP JUMPDEST POP DUP1 PUSH1 0x2 SWAP1 DUP2 PUSH2 0x744 SWAP2 SWAP1 PUSH2 0x47E4 JUMP JUMPDEST POP PUSH1 0x1 PUSH1 0x3 PUSH1 0x15 PUSH2 0x100 EXP DUP2 SLOAD DUP2 PUSH1 0xFF MUL NOT AND SWAP1 DUP4 ISZERO ISZERO MUL OR SWAP1 SSTORE POP POP POP JUMP JUMPDEST PUSH1 0x0 PUSH1 0x11 SLOAD SWAP1 POP SWAP1 JUMP JUMPDEST PUSH2 0x776 PUSH2 0x2CC8 JUMP JUMPDEST DUP1 PUSH1 0x4 PUSH1 0x0 PUSH2 0x100 EXP DUP2 SLOAD DUP2 PUSH20 0xFFFFFFFFFFFFFFFFFFFFFFFFFFFFFFFFFFFFFFFF MUL NOT AND SWAP1 DUP4 PUSH20 0xFFFFFFFFFFFFFFFFFFFFFFFFFFFFFFFFFFFFFFFF AND MUL OR SWAP1 SSTORE POP POP JUMP JUMPDEST PUSH1 0x1 ISZERO ISZERO PUSH1 0x3 PUSH1 0x14 SWAP1 SLOAD SWAP1 PUSH2 0x100 EXP SWAP1 DIV PUSH1 0xFF AND DUP1 ISZERO PUSH2 0x7E6 JUMPI POP PUSH1 0x3 PUSH1 0x15 SWAP1 SLOAD SWAP1 PUSH2 0x100 EXP SWAP1 DIV PUSH1 0xFF AND JUMPDEST ISZERO ISZERO EQ PUSH2 0x828 JUMPI PUSH1 0x40 MLOAD PUSH32 0x8C379A000000000000000000000000000000000000000000000000000000000 DUP2 MSTORE PUSH1 0x4 ADD PUSH2 0x81F SWAP1 PUSH2 0x4902 JUMP JUMPDEST PUSH1 0x40 MLOAD DUP1 SWAP2 SUB SWAP1 REVERT JUMPDEST PUSH1 0x0 PUSH20 0xFFFFFFFFFFFFFFFFFFFFFFFFFFFFFFFFFFFFFFFF AND DUP2 PUSH20 0xFFFFFFFFFFFFFFFFFFFFFFFFFFFFFFFFFFFFFFFF AND SUB PUSH2 0x88E JUMPI PUSH1 0x40 MLOAD PUSH32 0xD92E233D00000000000000000000000000000000000000000000000000000000 DUP2 MSTORE PUSH1 0x4 ADD PUSH1 0x40 MLOAD DUP1 SWAP2 SUB SWAP1 REVERT JUMPDEST PUSH1 0x4 PUSH1 0x0 SWAP1 SLOAD SWAP1 PUSH2 0x100 EXP SWAP1 DIV PUSH20 0xFFFFFFFFFFFFFFFFFFFFFFFFFFFFFFFFFFFFFFFF AND PUSH20 0xFFFFFFFFFFFFFFFFFFFFFFFFFFFFFFFFFFFFFFFF AND PUSH4 0xF35F0F74 DUP3 PUSH1 0x80 PUSH1 0x40 MLOAD DUP4 PUSH4 0xFFFFFFFF AND PUSH1 0xE0 SHL DUP2 MSTORE PUSH1 0x4 ADD PUSH2 0x8EC SWAP3 SWAP2 SWAP1 PUSH2 0x4943 JUMP JUMPDEST PUSH1 0x20 PUSH1 0x40 MLOAD DUP1 DUP4 SUB DUP2 DUP7 GAS STATICCALL ISZERO DUP1 ISZERO PUSH2 0x909 JUMPI RETURNDATASIZE PUSH1 0x0 DUP1 RETURNDATACOPY RETURNDATASIZE PUSH1 0x0 REVERT JUMPDEST POP POP POP POP PUSH1 0x40 MLOAD RETURNDATASIZE PUSH1 0x1F NOT PUSH1 0x1F DUP3 ADD AND DUP3 ADD DUP1 PUSH1 0x40 MSTORE POP DUP2 ADD SWAP1 PUSH2 0x92D SWAP2 SWAP1 PUSH2 0x4998 JUMP JUMPDEST PUSH2 0x96C JUMPI PUSH1 0x40 MLOAD PUSH32 0x8C379A000000000000000000000000000000000000000000000000000000000 DUP2 MSTORE PUSH1 0x4 ADD PUSH2 0x963 SWAP1 PUSH2 0x4A11 JUMP JUMPDEST PUSH1 0x40 MLOAD DUP1 SWAP2 SUB SWAP1 REVERT JUMPDEST PUSH1 0x1 PUSH1 0xE PUSH1 0x0 DUP4 PUSH20 0xFFFFFFFFFFFFFFFFFFFFFFFFFFFFFFFFFFFFFFFF AND PUSH20 0xFFFFFFFFFFFFFFFFFFFFFFFFFFFFFFFFFFFFFFFF AND DUP2 MSTORE PUSH1 0x20 ADD SWAP1 DUP2 MSTORE PUSH1 0x20 ADD PUSH1 0x0 KECCAK256 PUSH1 0x0 PUSH2 0x100 EXP DUP2 SLOAD DUP2 PUSH1 0xFF MUL NOT AND SWAP1 DUP4 ISZERO ISZERO MUL OR SWAP1 SSTORE POP POP JUMP JUMPDEST PUSH1 0x0 PUSH1 0x1 ISZERO ISZERO PUSH1 0xE PUSH1 0x0 DUP6 PUSH20 0xFFFFFFFFFFFFFFFFFFFFFFFFFFFFFFFFFFFFFFFF AND PUSH20 0xFFFFFFFFFFFFFFFFFFFFFFFFFFFFFFFFFFFFFFFF AND DUP2 MSTORE PUSH1 0x20 ADD SWAP1 DUP2 MSTORE PUSH1 0x20 ADD PUSH1 0x0 KECCAK256 PUSH1 0x0 SWAP1 SLOAD SWAP1 PUSH2 0x100 EXP SWAP1 DIV PUSH1 0xFF AND ISZERO ISZERO EQ PUSH2 0xA5C JUMPI PUSH1 0x40 MLOAD PUSH32 0x8C379A000000000000000000000000000000000000000000000000000000000 DUP2 MSTORE PUSH1 0x4 ADD PUSH2 0xA53 SWAP1 PUSH2 0x4A7D JUMP JUMPDEST PUSH1 0x40 MLOAD DUP1 SWAP2 SUB SWAP1 REVERT JUMPDEST PUSH1 0x0 DUP4 PUSH20 0xFFFFFFFFFFFFFFFFFFFFFFFFFFFFFFFFFFFFFFFF AND PUSH4 0xEF706ADF DUP5 PUSH1 0x40 MLOAD DUP3 PUSH4 0xFFFFFFFF AND PUSH1 0xE0 SHL DUP2 MSTORE PUSH1 0x4 ADD PUSH2 0xA97 SWAP2 SWAP1 PUSH2 0x433B JUMP JUMPDEST PUSH1 0xC0 PUSH1 0x40 MLOAD DUP1 DUP4 SUB DUP2 PUSH1 0x0 DUP8 GAS CALL ISZERO DUP1 ISZERO PUSH2 0xAB6 JUMPI RETURNDATASIZE PUSH1 0x0 DUP1 RETURNDATACOPY RETURNDATASIZE PUSH1 0x0 REVERT JUMPDEST POP POP POP POP PUSH1 0x40 MLOAD RETURNDATASIZE PUSH1 0x1F NOT PUSH1 0x1F DUP3 ADD AND DUP3 ADD DUP1 PUSH1 0x40 MSTORE POP DUP2 ADD SWAP1 PUSH2 0xADA SWAP2 SWAP1 PUSH2 0x4B95 JUMP JUMPDEST SWAP1 POP PUSH1 0x0 PUSH1 0xD PUSH1 0x0 CALLER PUSH20 0xFFFFFFFFFFFFFFFFFFFFFFFFFFFFFFFFFFFFFFFF AND PUSH20 0xFFFFFFFFFFFFFFFFFFFFFFFFFFFFFFFFFFFFFFFF AND DUP2 MSTORE PUSH1 0x20 ADD SWAP1 DUP2 MSTORE PUSH1 0x20 ADD PUSH1 0x0 KECCAK256 PUSH1 0x0 DUP4 PUSH1 0x60 ADD MLOAD DUP2 MSTORE PUSH1 0x20 ADD SWAP1 DUP2 MSTORE PUSH1 0x20 ADD PUSH1 0x0 KECCAK256 SLOAD SWAP1 POP PUSH1 0x0 DUP2 SUB PUSH2 0xB78 JUMPI PUSH1 0x40 MLOAD PUSH32 0x8C379A000000000000000000000000000000000000000000000000000000000 DUP2 MSTORE PUSH1 0x4 ADD PUSH2 0xB6F SWAP1 PUSH2 0x4C0E JUMP JUMPDEST PUSH1 0x40 MLOAD DUP1 SWAP2 SUB SWAP1 REVERT JUMPDEST PUSH1 0x0 PUSH1 0xC PUSH1 0x0 CALLER PUSH20 0xFFFFFFFFFFFFFFFFFFFFFFFFFFFFFFFFFFFFFFFF AND PUSH20 0xFFFFFFFFFFFFFFFFFFFFFFFFFFFFFFFFFFFFFFFF AND DUP2 MSTORE PUSH1 0x20 ADD SWAP1 DUP2 MSTORE PUSH1 0x20 ADD PUSH1 0x0 KECCAK256 PUSH1 0x1 DUP4 PUSH2 0xBC6 SWAP2 SWAP1 PUSH2 0x4C5D JUMP JUMPDEST DUP2 SLOAD DUP2 LT PUSH2 0xBD7 JUMPI PUSH2 0xBD6 PUSH2 0x4C91 JUMP JUMPDEST JUMPDEST SWAP1 PUSH1 0x0 MSTORE PUSH1 0x20 PUSH1 0x0 KECCAK256 SWAP1 PUSH1 0x3 MUL ADD PUSH1 0x40 MLOAD DUP1 PUSH1 0x60 ADD PUSH1 0x40 MSTORE SWAP1 DUP2 PUSH1 0x0 DUP3 ADD SLOAD DUP2 MSTORE PUSH1 0x20 ADD PUSH1 0x1 DUP3 ADD SLOAD DUP2 MSTORE PUSH1 0x20 ADD PUSH1 0x2 DUP3 ADD SLOAD DUP2 MSTORE POP POP SWAP1 POP DUP3 PUSH1 0x40 ADD MLOAD DUP2 PUSH1 0x40 ADD MLOAD LT ISZERO PUSH2 0xC5B JUMPI PUSH1 0x40 MLOAD PUSH32 0x8C379A000000000000000000000000000000000000000000000000000000000 DUP2 MSTORE PUSH1 0x4 ADD PUSH2 0xC52 SWAP1 PUSH2 0x4D0C JUMP JUMPDEST PUSH1 0x40 MLOAD DUP1 SWAP2 SUB SWAP1 REVERT JUMPDEST DUP3 PUSH1 0x20 ADD MLOAD PUSH20 0xFFFFFFFFFFFFFFFFFFFFFFFFFFFFFFFFFFFFFFFF AND ADDRESS PUSH20 0xFFFFFFFFFFFFFFFFFFFFFFFFFFFFFFFFFFFFFFFF AND EQ PUSH2 0xCCD JUMPI PUSH1 0x40 MLOAD PUSH32 0x8C379A000000000000000000000000000000000000000000000000000000000 DUP2 MSTORE PUSH1 0x4 ADD PUSH2 0xCC4 SWAP1 PUSH2 0x4D9E JUMP JUMPDEST PUSH1 0x40 MLOAD DUP1 SWAP2 SUB SWAP1 REVERT JUMPDEST DUP3 PUSH1 0x0 ADD MLOAD PUSH20 0xFFFFFFFFFFFFFFFFFFFFFFFFFFFFFFFFFFFFFFFF AND CALLER PUSH20 0xFFFFFFFFFFFFFFFFFFFFFFFFFFFFFFFFFFFFFFFF AND EQ PUSH2 0xD3F JUMPI PUSH1 0x40 MLOAD PUSH32 0x8C379A000000000000000000000000000000000000000000000000000000000 DUP2 MSTORE PUSH1 0x4 ADD PUSH2 0xD36 SWAP1 PUSH2 0x4E30 JUMP JUMPDEST PUSH1 0x40 MLOAD DUP1 SWAP2 SUB SWAP1 REVERT JUMPDEST DUP3 PUSH1 0x40 ADD MLOAD PUSH1 0xC PUSH1 0x0 CALLER PUSH20 0xFFFFFFFFFFFFFFFFFFFFFFFFFFFFFFFFFFFFFFFF AND PUSH20 0xFFFFFFFFFFFFFFFFFFFFFFFFFFFFFFFFFFFFFFFF AND DUP2 MSTORE PUSH1 0x20 ADD SWAP1 DUP2 MSTORE PUSH1 0x20 ADD PUSH1 0x0 KECCAK256 PUSH1 0x1 DUP5 PUSH2 0xD90 SWAP2 SWAP1 PUSH2 0x4C5D JUMP JUMPDEST DUP2 SLOAD DUP2 LT PUSH2 0xDA1 JUMPI PUSH2 0xDA0 PUSH2 0x4C91 JUMP JUMPDEST JUMPDEST SWAP1 PUSH1 0x0 MSTORE PUSH1 0x20 PUSH1 0x0 KECCAK256 SWAP1 PUSH1 0x3 MUL ADD PUSH1 0x2 ADD PUSH1 0x0 DUP3 DUP3 SLOAD PUSH2 0xDC1 SWAP2 SWAP1 PUSH2 0x4C5D JUMP JUMPDEST SWAP3 POP POP DUP2 SWAP1 SSTORE POP PUSH2 0xDD7 CALLER DUP8 DUP6 PUSH1 0x40 ADD MLOAD PUSH2 0x2D46 JUMP JUMPDEST POP PUSH1 0x1 SWAP4 POP POP POP POP SWAP3 SWAP2 POP POP JUMP JUMPDEST PUSH1 0x0 PUSH1 0x40 MLOAD PUSH32 0xD9B9141900000000000000000000000000000000000000000000000000000000 DUP2 MSTORE PUSH1 0x4 ADD PUSH1 0x40 MLOAD DUP1 SWAP2 SUB SWAP1 REVERT JUMPDEST PUSH1 0x0 SWAP1 JUMP JUMPDEST PUSH2 0xE26 PUSH2 0x2CC8 JUMP JUMPDEST PUSH2 0xE2E PUSH2 0x2DB1 JUMP JUMPDEST JUMP JUMPDEST PUSH2 0xE38 PUSH2 0x2CC8 JUMP JUMPDEST PUSH1 0x1 ISZERO ISZERO PUSH1 0x3 PUSH1 0x14 SWAP1 SLOAD SWAP1 PUSH2 0x100 EXP SWAP1 DIV PUSH1 0xFF AND DUP1 ISZERO PUSH2 0xE64 JUMPI POP PUSH1 0x3 PUSH1 0x15 SWAP1 SLOAD SWAP1 PUSH2 0x100 EXP SWAP1 DIV PUSH1 0xFF AND JUMPDEST ISZERO ISZERO EQ PUSH2 0xEA6 JUMPI PUSH1 0x40 MLOAD PUSH32 0x8C379A000000000000000000000000000000000000000000000000000000000 DUP2 MSTORE PUSH1 0x4 ADD PUSH2 0xE9D SWAP1 PUSH2 0x4902 JUMP JUMPDEST PUSH1 0x40 MLOAD DUP1 SWAP2 SUB SWAP1 REVERT JUMPDEST PUSH1 0x4 PUSH1 0x0 SWAP1 SLOAD SWAP1 PUSH2 0x100 EXP SWAP1 DIV PUSH20 0xFFFFFFFFFFFFFFFFFFFFFFFFFFFFFFFFFFFFFFFF AND PUSH20 0xFFFFFFFFFFFFFFFFFFFFFFFFFFFFFFFFFFFFFFFF AND PUSH4 0xF35F0F74 CALLER PUSH1 0x2 PUSH1 0x40 MLOAD DUP4 PUSH4 0xFFFFFFFF AND PUSH1 0xE0 SHL DUP2 MSTORE PUSH1 0x4 ADD PUSH2 0xF04 SWAP3 SWAP2 SWAP1 PUSH2 0x4943 JUMP JUMPDEST PUSH1 0x20 PUSH1 0x40 MLOAD DUP1 DUP4 SUB DUP2 DUP7 GAS STATICCALL ISZERO DUP1 ISZERO PUSH2 0xF21 JUMPI RETURNDATASIZE PUSH1 0x0 DUP1 RETURNDATACOPY RETURNDATASIZE PUSH1 0x0 REVERT JUMPDEST POP POP POP POP PUSH1 0x40 MLOAD RETURNDATASIZE PUSH1 0x1F NOT PUSH1 0x1F DUP3 ADD AND DUP3 ADD DUP1 PUSH1 0x40 MSTORE POP DUP2 ADD SWAP1 PUSH2 0xF45 SWAP2 SWAP1 PUSH2 0x4998 JUMP JUMPDEST PUSH2 0xF84 JUMPI PUSH1 0x40 MLOAD PUSH32 0x8C379A000000000000000000000000000000000000000000000000000000000 DUP2 MSTORE PUSH1 0x4 ADD PUSH2 0xF7B SWAP1 PUSH2 0x4E9C JUMP JUMPDEST PUSH1 0x40 MLOAD DUP1 SWAP2 SUB SWAP1 REVERT JUMPDEST PUSH1 0xA SLOAD PUSH2 0xF8F PUSH2 0x764 JUMP JUMPDEST PUSH2 0xF99 SWAP2 SWAP1 PUSH2 0x4EBC JUMP JUMPDEST PUSH1 0x5 PUSH1 0x0 SWAP1 SLOAD SWAP1 PUSH2 0x100 EXP SWAP1 DIV PUSH20 0xFFFFFFFFFFFFFFFFFFFFFFFFFFFFFFFFFFFFFFFF AND PUSH20 0xFFFFFFFFFFFFFFFFFFFFFFFFFFFFFFFFFFFFFFFF AND PUSH4 0x70A08231 PUSH2 0xFDF PUSH2 0x150A JUMP JUMPDEST PUSH1 0x40 MLOAD DUP3 PUSH4 0xFFFFFFFF AND PUSH1 0xE0 SHL DUP2 MSTORE PUSH1 0x4 ADD PUSH2 0xFFB SWAP2 SWAP1 PUSH2 0x43EF JUMP JUMPDEST PUSH1 0x20 PUSH1 0x40 MLOAD DUP1 DUP4 SUB DUP2 DUP7 GAS STATICCALL ISZERO DUP1 ISZERO PUSH2 0x1018 JUMPI RETURNDATASIZE PUSH1 0x0 DUP1 RETURNDATACOPY RETURNDATASIZE PUSH1 0x0 REVERT JUMPDEST POP POP POP POP PUSH1 0x40 MLOAD RETURNDATASIZE PUSH1 0x1F NOT PUSH1 0x1F DUP3 ADD AND DUP3 ADD DUP1 PUSH1 0x40 MSTORE POP DUP2 ADD SWAP1 PUSH2 0x103C SWAP2 SWAP1 PUSH2 0x4EFE JUMP JUMPDEST LT ISZERO PUSH2 0x1047 JUMPI PUSH1 0x0 DUP1 REVERT JUMPDEST PUSH1 0x0 DUP1 PUSH1 0x0 SWAP1 POP JUMPDEST PUSH1 0xB DUP1 SLOAD SWAP1 POP DUP2 LT ISZERO PUSH2 0x12BF JUMPI PUSH1 0x0 SWAP2 POP PUSH1 0x0 JUMPDEST PUSH1 0xC PUSH1 0x0 PUSH1 0xB DUP5 DUP2 SLOAD DUP2 LT PUSH2 0x107B JUMPI PUSH2 0x107A PUSH2 0x4C91 JUMP JUMPDEST JUMPDEST SWAP1 PUSH1 0x0 MSTORE PUSH1 0x20 PUSH1 0x0 KECCAK256 ADD PUSH1 0x0 SWAP1 SLOAD SWAP1 PUSH2 0x100 EXP SWAP1 DIV PUSH20 0xFFFFFFFFFFFFFFFFFFFFFFFFFFFFFFFFFFFFFFFF AND PUSH20 0xFFFFFFFFFFFFFFFFFFFFFFFFFFFFFFFFFFFFFFFF AND PUSH20 0xFFFFFFFFFFFFFFFFFFFFFFFFFFFFFFFFFFFFFFFF AND DUP2 MSTORE PUSH1 0x20 ADD SWAP1 DUP2 MSTORE PUSH1 0x20 ADD PUSH1 0x0 KECCAK256 DUP1 SLOAD SWAP1 POP DUP2 LT ISZERO PUSH2 0x11AC JUMPI PUSH1 0xC PUSH1 0x0 PUSH1 0xB DUP5 DUP2 SLOAD DUP2 LT PUSH2 0x1103 JUMPI PUSH2 0x1102 PUSH2 0x4C91 JUMP JUMPDEST JUMPDEST SWAP1 PUSH1 0x0 MSTORE PUSH1 0x20 PUSH1 0x0 KECCAK256 ADD PUSH1 0x0 SWAP1 SLOAD SWAP1 PUSH2 0x100 EXP SWAP1 DIV PUSH20 0xFFFFFFFFFFFFFFFFFFFFFFFFFFFFFFFFFFFFFFFF AND PUSH20 0xFFFFFFFFFFFFFFFFFFFFFFFFFFFFFFFFFFFFFFFF AND PUSH20 0xFFFFFFFFFFFFFFFFFFFFFFFFFFFFFFFFFFFFFFFF AND DUP2 MSTORE PUSH1 0x20 ADD SWAP1 DUP2 MSTORE PUSH1 0x20 ADD PUSH1 0x0 KECCAK256 DUP2 DUP2 SLOAD DUP2 LT PUSH2 0x117A JUMPI PUSH2 0x1179 PUSH2 0x4C91 JUMP JUMPDEST JUMPDEST SWAP1 PUSH1 0x0 MSTORE PUSH1 0x20 PUSH1 0x0 KECCAK256 SWAP1 PUSH1 0x3 MUL ADD PUSH1 0x1 ADD SLOAD DUP4 PUSH2 0x1197 SWAP2 SWAP1 PUSH2 0x4F2B JUMP JUMPDEST SWAP3 POP DUP1 DUP1 PUSH2 0x11A4 SWAP1 PUSH2 0x4F5F JUMP JUMPDEST SWAP2 POP POP PUSH2 0x1063 JUMP JUMPDEST POP PUSH1 0x0 DUP3 GT ISZERO PUSH2 0x12AC JUMPI PUSH1 0x5 PUSH1 0x0 SWAP1 SLOAD SWAP1 PUSH2 0x100 EXP SWAP1 DIV PUSH20 0xFFFFFFFFFFFFFFFFFFFFFFFFFFFFFFFFFFFFFFFF AND PUSH20 0xFFFFFFFFFFFFFFFFFFFFFFFFFFFFFFFFFFFFFFFF AND PUSH4 0x23B872DD PUSH2 0x11FC PUSH2 0x150A JUMP JUMPDEST PUSH1 0xB DUP5 DUP2 SLOAD DUP2 LT PUSH2 0x1210 JUMPI PUSH2 0x120F PUSH2 0x4C91 JUMP JUMPDEST JUMPDEST SWAP1 PUSH1 0x0 MSTORE PUSH1 0x20 PUSH1 0x0 KECCAK256 ADD PUSH1 0x0 SWAP1 SLOAD SWAP1 PUSH2 0x100 EXP SWAP1 DIV PUSH20 0xFFFFFFFFFFFFFFFFFFFFFFFFFFFFFFFFFFFFFFFF AND PUSH1 0xA SLOAD DUP7 PUSH2 0x1249 SWAP2 SWAP1 PUSH2 0x4EBC JUMP JUMPDEST PUSH1 0x40 MLOAD DUP5 PUSH4 0xFFFFFFFF AND PUSH1 0xE0 SHL DUP2 MSTORE PUSH1 0x4 ADD PUSH2 0x1267 SWAP4 SWAP3 SWAP2 SWAP1 PUSH2 0x4FA7 JUMP JUMPDEST PUSH1 0x20 PUSH1 0x40 MLOAD DUP1 DUP4 SUB DUP2 PUSH1 0x0 DUP8 GAS CALL ISZERO DUP1 ISZERO PUSH2 0x1286 JUMPI RETURNDATASIZE PUSH1 0x0 DUP1 RETURNDATACOPY RETURNDATASIZE PUSH1 0x0 REVERT JUMPDEST POP POP POP POP PUSH1 0x40 MLOAD RETURNDATASIZE PUSH1 0x1F NOT PUSH1 0x1F DUP3 ADD AND DUP3 ADD DUP1 PUSH1 0x40 MSTORE POP DUP2 ADD SWAP1 PUSH2 0x12AA SWAP2 SWAP1 PUSH2 0x4998 JUMP JUMPDEST POP JUMPDEST DUP1 DUP1 PUSH2 0x12B7 SWAP1 PUSH2 0x4F5F JUMP JUMPDEST SWAP2 POP POP PUSH2 0x104F JUMP JUMPDEST POP POP JUMP JUMPDEST PUSH1 0x1 ISZERO ISZERO PUSH1 0x3 PUSH1 0x14 SWAP1 SLOAD SWAP1 PUSH2 0x100 EXP SWAP1 DIV PUSH1 0xFF AND DUP1 ISZERO PUSH2 0x12EF JUMPI POP PUSH1 0x3 PUSH1 0x15 SWAP1 SLOAD SWAP1 PUSH2 0x100 EXP SWAP1 DIV PUSH1 0xFF AND JUMPDEST ISZERO ISZERO EQ PUSH2 0x1331 JUMPI PUSH1 0x40 MLOAD PUSH32 0x8C379A000000000000000000000000000000000000000000000000000000000 DUP2 MSTORE PUSH1 0x4 ADD PUSH2 0x1328 SWAP1 PUSH2 0x4902 JUMP JUMPDEST PUSH1 0x40 MLOAD DUP1 SWAP2 SUB SWAP1 REVERT JUMPDEST PUSH1 0x0 PUSH20 0xFFFFFFFFFFFFFFFFFFFFFFFFFFFFFFFFFFFFFFFF AND DUP2 PUSH20 0xFFFFFFFFFFFFFFFFFFFFFFFFFFFFFFFFFFFFFFFF AND SUB PUSH2 0x1397 JUMPI PUSH1 0x40 MLOAD PUSH32 0xD92E233D00000000000000000000000000000000000000000000000000000000 DUP2 MSTORE PUSH1 0x4 ADD PUSH1 0x40 MLOAD DUP1 SWAP2 SUB SWAP1 REVERT JUMPDEST PUSH1 0x1 ISZERO ISZERO PUSH1 0xE PUSH1 0x0 DUP4 PUSH20 0xFFFFFFFFFFFFFFFFFFFFFFFFFFFFFFFFFFFFFFFF AND PUSH20 0xFFFFFFFFFFFFFFFFFFFFFFFFFFFFFFFFFFFFFFFF AND DUP2 MSTORE PUSH1 0x20 ADD SWAP1 DUP2 MSTORE PUSH1 0x20 ADD PUSH1 0x0 KECCAK256 PUSH1 0x0 SWAP1 SLOAD SWAP1 PUSH2 0x100 EXP SWAP1 DIV PUSH1 0xFF AND ISZERO ISZERO EQ PUSH2 0x142A JUMPI PUSH1 0x40 MLOAD PUSH32 0x8C379A000000000000000000000000000000000000000000000000000000000 DUP2 MSTORE PUSH1 0x4 ADD PUSH2 0x1421 SWAP1 PUSH2 0x502A JUMP JUMPDEST PUSH1 0x40 MLOAD DUP1 SWAP2 SUB SWAP1 REVERT JUMPDEST PUSH1 0x0 PUSH1 0xE PUSH1 0x0 DUP4 PUSH20 0xFFFFFFFFFFFFFFFFFFFFFFFFFFFFFFFFFFFFFFFF AND PUSH20 0xFFFFFFFFFFFFFFFFFFFFFFFFFFFFFFFFFFFFFFFF AND DUP2 MSTORE PUSH1 0x20 ADD SWAP1 DUP2 MSTORE PUSH1 0x20 ADD PUSH1 0x0 KECCAK256 PUSH1 0x0 PUSH2 0x100 EXP DUP2 SLOAD DUP2 PUSH1 0xFF MUL NOT AND SWAP1 DUP4 ISZERO ISZERO MUL OR SWAP1 SSTORE POP POP JUMP JUMPDEST PUSH1 0x0 DUP1 PUSH1 0x0 SWAP1 SLOAD SWAP1 PUSH2 0x100 EXP SWAP1 DIV PUSH1 0xFF AND SWAP1 POP SWAP1 JUMP JUMPDEST PUSH1 0x0 PUSH1 0xF PUSH1 0x0 DUP4 PUSH20 0xFFFFFFFFFFFFFFFFFFFFFFFFFFFFFFFFFFFFFFFF AND PUSH20 0xFFFFFFFFFFFFFFFFFFFFFFFFFFFFFFFFFFFFFFFF AND DUP2 MSTORE PUSH1 0x20 ADD SWAP1 DUP2 MSTORE PUSH1 0x20 ADD PUSH1 0x0 KECCAK256 SLOAD SWAP1 POP SWAP2 SWAP1 POP JUMP JUMPDEST PUSH2 0x14EC PUSH2 0x2CC8 JUMP JUMPDEST PUSH2 0x14F6 PUSH1 0x0 PUSH2 0x2E13 JUMP JUMPDEST JUMP JUMPDEST PUSH2 0x1500 PUSH2 0x2CC8 JUMP JUMPDEST PUSH2 0x1508 PUSH2 0x2ED8 JUMP JUMPDEST JUMP JUMPDEST PUSH1 0x0 PUSH1 0x3 PUSH1 0x0 SWAP1 SLOAD SWAP1 PUSH2 0x100 EXP SWAP1 DIV PUSH20 0xFFFFFFFFFFFFFFFFFFFFFFFFFFFFFFFFFFFFFFFF AND SWAP1 POP SWAP1 JUMP JUMPDEST PUSH1 0x60 PUSH1 0x2 DUP1 SLOAD PUSH2 0x1543 SWAP1 PUSH2 0x4607 JUMP JUMPDEST DUP1 PUSH1 0x1F ADD PUSH1 0x20 DUP1 SWAP2 DIV MUL PUSH1 0x20 ADD PUSH1 0x40 MLOAD SWAP1 DUP2 ADD PUSH1 0x40 MSTORE DUP1 SWAP3 SWAP2 SWAP1 DUP2 DUP2 MSTORE PUSH1 0x20 ADD DUP3 DUP1 SLOAD PUSH2 0x156F SWAP1 PUSH2 0x4607 JUMP JUMPDEST DUP1 ISZERO PUSH2 0x15BC JUMPI DUP1 PUSH1 0x1F LT PUSH2 0x1591 JUMPI PUSH2 0x100 DUP1 DUP4 SLOAD DIV MUL DUP4 MSTORE SWAP2 PUSH1 0x20 ADD SWAP2 PUSH2 0x15BC JUMP JUMPDEST DUP3 ADD SWAP2 SWAP1 PUSH1 0x0 MSTORE PUSH1 0x20 PUSH1 0x0 KECCAK256 SWAP1 JUMPDEST DUP2 SLOAD DUP2 MSTORE SWAP1 PUSH1 0x1 ADD SWAP1 PUSH1 0x20 ADD DUP1 DUP4 GT PUSH2 0x159F JUMPI DUP3 SWAP1 SUB PUSH1 0x1F AND DUP3 ADD SWAP2 JUMPDEST POP POP POP POP POP SWAP1 POP SWAP1 JUMP JUMPDEST PUSH1 0x0 PUSH20 0xFFFFFFFFFFFFFFFFFFFFFFFFFFFFFFFFFFFFFFFF AND DUP4 PUSH20 0xFFFFFFFFFFFFFFFFFFFFFFFFFFFFFFFFFFFFFFFF AND EQ DUP1 PUSH2 0x162D JUMPI POP PUSH1 0x0 PUSH20 0xFFFFFFFFFFFFFFFFFFFFFFFFFFFFFFFFFFFFFFFF AND DUP3 PUSH20 0xFFFFFFFFFFFFFFFFFFFFFFFFFFFFFFFFFFFFFFFF AND EQ JUMPDEST DUP1 PUSH2 0x1664 JUMPI POP PUSH1 0x0 PUSH20 0xFFFFFFFFFFFFFFFFFFFFFFFFFFFFFFFFFFFFFFFF AND DUP2 PUSH20 0xFFFFFFFFFFFFFFFFFFFFFFFFFFFFFFFFFFFFFFFF AND EQ JUMPDEST ISZERO PUSH2 0x169B JUMPI PUSH1 0x40 MLOAD PUSH32 0xD92E233D00000000000000000000000000000000000000000000000000000000 DUP2 MSTORE PUSH1 0x4 ADD PUSH1 0x40 MLOAD DUP1 SWAP2 SUB SWAP1 REVERT JUMPDEST DUP3 PUSH1 0x4 PUSH1 0x0 PUSH2 0x100 EXP DUP2 SLOAD DUP2 PUSH20 0xFFFFFFFFFFFFFFFFFFFFFFFFFFFFFFFFFFFFFFFF MUL NOT AND SWAP1 DUP4 PUSH20 0xFFFFFFFFFFFFFFFFFFFFFFFFFFFFFFFFFFFFFFFF AND MUL OR SWAP1 SSTORE POP DUP2 PUSH1 0x5 PUSH1 0x0 PUSH2 0x100 EXP DUP2 SLOAD DUP2 PUSH20 0xFFFFFFFFFFFFFFFFFFFFFFFFFFFFFFFFFFFFFFFF MUL NOT AND SWAP1 DUP4 PUSH20 0xFFFFFFFFFFFFFFFFFFFFFFFFFFFFFFFFFFFFFFFF AND MUL OR SWAP1 SSTORE POP PUSH1 0x5 PUSH1 0x0 SWAP1 SLOAD SWAP1 PUSH2 0x100 EXP SWAP1 DIV PUSH20 0xFFFFFFFFFFFFFFFFFFFFFFFFFFFFFFFFFFFFFFFF AND PUSH20 0xFFFFFFFFFFFFFFFFFFFFFFFFFFFFFFFFFFFFFFFF AND PUSH4 0x313CE567 PUSH1 0x40 MLOAD DUP2 PUSH4 0xFFFFFFFF AND PUSH1 0xE0 SHL DUP2 MSTORE PUSH1 0x4 ADD PUSH1 0x20 PUSH1 0x40 MLOAD DUP1 DUP4 SUB DUP2 DUP7 GAS STATICCALL ISZERO DUP1 ISZERO PUSH2 0x178A JUMPI RETURNDATASIZE PUSH1 0x0 DUP1 RETURNDATACOPY RETURNDATASIZE PUSH1 0x0 REVERT JUMPDEST POP POP POP POP PUSH1 0x40 MLOAD RETURNDATASIZE PUSH1 0x1F NOT PUSH1 0x1F DUP3 ADD AND DUP3 ADD DUP1 PUSH1 0x40 MSTORE POP DUP2 ADD SWAP1 PUSH2 0x17AE SWAP2 SWAP1 PUSH2 0x5076 JUMP JUMPDEST PUSH1 0xFF AND PUSH1 0x6 DUP2 SWAP1 SSTORE POP DUP1 PUSH1 0x3 PUSH1 0x0 PUSH2 0x100 EXP DUP2 SLOAD DUP2 PUSH20 0xFFFFFFFFFFFFFFFFFFFFFFFFFFFFFFFFFFFFFFFF MUL NOT AND SWAP1 DUP4 PUSH20 0xFFFFFFFFFFFFFFFFFFFFFFFFFFFFFFFFFFFFFFFF AND MUL OR SWAP1 SSTORE POP PUSH1 0x1 PUSH1 0x3 PUSH1 0x14 PUSH2 0x100 EXP DUP2 SLOAD DUP2 PUSH1 0xFF MUL NOT AND SWAP1 DUP4 ISZERO ISZERO MUL OR SWAP1 SSTORE POP POP POP POP JUMP JUMPDEST PUSH1 0x0 PUSH1 0x40 MLOAD PUSH32 0xD9B9141900000000000000000000000000000000000000000000000000000000 DUP2 MSTORE PUSH1 0x4 ADD PUSH1 0x40 MLOAD DUP1 SWAP2 SUB SWAP1 REVERT JUMPDEST DUP1 PUSH1 0x0 DUP2 GT PUSH2 0x1890 JUMPI PUSH1 0x40 MLOAD PUSH32 0x8C379A000000000000000000000000000000000000000000000000000000000 DUP2 MSTORE PUSH1 0x4 ADD PUSH2 0x1887 SWAP1 PUSH2 0x5115 JUMP JUMPDEST PUSH1 0x40 MLOAD DUP1 SWAP2 SUB SWAP1 REVERT JUMPDEST PUSH1 0x1 ISZERO ISZERO PUSH1 0x3 PUSH1 0x14 SWAP1 SLOAD SWAP1 PUSH2 0x100 EXP SWAP1 DIV PUSH1 0xFF AND DUP1 ISZERO PUSH2 0x18BC JUMPI POP PUSH1 0x3 PUSH1 0x15 SWAP1 SLOAD SWAP1 PUSH2 0x100 EXP SWAP1 DIV PUSH1 0xFF AND JUMPDEST ISZERO ISZERO EQ PUSH2 0x18FE JUMPI PUSH1 0x40 MLOAD PUSH32 0x8C379A000000000000000000000000000000000000000000000000000000000 DUP2 MSTORE PUSH1 0x4 ADD PUSH2 0x18F5 SWAP1 PUSH2 0x4902 JUMP JUMPDEST PUSH1 0x40 MLOAD DUP1 SWAP2 SUB SWAP1 REVERT JUMPDEST PUSH1 0x4 PUSH1 0x0 SWAP1 SLOAD SWAP1 PUSH2 0x100 EXP SWAP1 DIV PUSH20 0xFFFFFFFFFFFFFFFFFFFFFFFFFFFFFFFFFFFFFFFF AND PUSH20 0xFFFFFFFFFFFFFFFFFFFFFFFFFFFFFFFFFFFFFFFF AND PUSH4 0xF35F0F74 CALLER PUSH1 0x2 PUSH1 0x40 MLOAD DUP4 PUSH4 0xFFFFFFFF AND PUSH1 0xE0 SHL DUP2 MSTORE PUSH1 0x4 ADD PUSH2 0x195C SWAP3 SWAP2 SWAP1 PUSH2 0x4943 JUMP JUMPDEST PUSH1 0x20 PUSH1 0x40 MLOAD DUP1 DUP4 SUB DUP2 DUP7 GAS STATICCALL ISZERO DUP1 ISZERO PUSH2 0x1979 JUMPI RETURNDATASIZE PUSH1 0x0 DUP1 RETURNDATACOPY RETURNDATASIZE PUSH1 0x0 REVERT JUMPDEST POP POP POP POP PUSH1 0x40 MLOAD RETURNDATASIZE PUSH1 0x1F NOT PUSH1 0x1F DUP3 ADD AND DUP3 ADD DUP1 PUSH1 0x40 MSTORE POP DUP2 ADD SWAP1 PUSH2 0x199D SWAP2 SWAP1 PUSH2 0x4998 JUMP JUMPDEST PUSH2 0x19DC JUMPI PUSH1 0x40 MLOAD PUSH32 0x8C379A000000000000000000000000000000000000000000000000000000000 DUP2 MSTORE PUSH1 0x4 ADD PUSH2 0x19D3 SWAP1 PUSH2 0x51A7 JUMP JUMPDEST PUSH1 0x40 MLOAD DUP1 SWAP2 SUB SWAP1 REVERT JUMPDEST PUSH1 0x7 SLOAD DUP3 PUSH2 0x19E8 PUSH2 0x764 JUMP JUMPDEST PUSH2 0x19F2 SWAP2 SWAP1 PUSH2 0x4F2B JUMP JUMPDEST GT ISZERO PUSH2 0x1A33 JUMPI PUSH1 0x40 MLOAD PUSH32 0x8C379A000000000000000000000000000000000000000000000000000000000 DUP2 MSTORE PUSH1 0x4 ADD PUSH2 0x1A2A SWAP1 PUSH2 0x5239 JUMP JUMPDEST PUSH1 0x40 MLOAD DUP1 SWAP2 SUB SWAP1 REVERT JUMPDEST PUSH1 0x8 SLOAD DUP3 PUSH2 0x1A41 SWAP2 SWAP1 PUSH2 0x4EBC JUMP JUMPDEST PUSH1 0x5 PUSH1 0x0 SWAP1 SLOAD SWAP1 PUSH2 0x100 EXP SWAP1 DIV PUSH20 0xFFFFFFFFFFFFFFFFFFFFFFFFFFFFFFFFFFFFFFFF AND PUSH20 0xFFFFFFFFFFFFFFFFFFFFFFFFFFFFFFFFFFFFFFFF AND PUSH4 0x70A08231 CALLER PUSH1 0x40 MLOAD DUP3 PUSH4 0xFFFFFFFF AND PUSH1 0xE0 SHL DUP2 MSTORE PUSH1 0x4 ADD PUSH2 0x1A9C SWAP2 SWAP1 PUSH2 0x43EF JUMP JUMPDEST PUSH1 0x20 PUSH1 0x40 MLOAD DUP1 DUP4 SUB DUP2 DUP7 GAS STATICCALL ISZERO DUP1 ISZERO PUSH2 0x1AB9 JUMPI RETURNDATASIZE PUSH1 0x0 DUP1 RETURNDATACOPY RETURNDATASIZE PUSH1 0x0 REVERT JUMPDEST POP POP POP POP PUSH1 0x40 MLOAD RETURNDATASIZE PUSH1 0x1F NOT PUSH1 0x1F DUP3 ADD AND DUP3 ADD DUP1 PUSH1 0x40 MSTORE POP DUP2 ADD SWAP1 PUSH2 0x1ADD SWAP2 SWAP1 PUSH2 0x4EFE JUMP JUMPDEST LT ISZERO PUSH2 0x1B1E JUMPI PUSH1 0x40 MLOAD PUSH32 0x8C379A000000000000000000000000000000000000000000000000000000000 DUP2 MSTORE PUSH1 0x4 ADD PUSH2 0x1B15 SWAP1 PUSH2 0x52CB JUMP JUMPDEST PUSH1 0x40 MLOAD DUP1 SWAP2 SUB SWAP1 REVERT JUMPDEST PUSH1 0x8 SLOAD DUP3 PUSH2 0x1B2C SWAP2 SWAP1 PUSH2 0x4EBC JUMP JUMPDEST PUSH1 0x5 PUSH1 0x0 SWAP1 SLOAD SWAP1 PUSH2 0x100 EXP SWAP1 DIV PUSH20 0xFFFFFFFFFFFFFFFFFFFFFFFFFFFFFFFFFFFFFFFF AND PUSH20 0xFFFFFFFFFFFFFFFFFFFFFFFFFFFFFFFFFFFFFFFF AND PUSH4 0xDD62ED3E CALLER ADDRESS PUSH1 0x40 MLOAD DUP4 PUSH4 0xFFFFFFFF AND PUSH1 0xE0 SHL DUP2 MSTORE PUSH1 0x4 ADD PUSH2 0x1B89 SWAP3 SWAP2 SWAP1 PUSH2 0x52EB JUMP JUMPDEST PUSH1 0x20 PUSH1 0x40 MLOAD DUP1 DUP4 SUB DUP2 DUP7 GAS STATICCALL ISZERO DUP1 ISZERO PUSH2 0x1BA6 JUMPI RETURNDATASIZE PUSH1 0x0 DUP1 RETURNDATACOPY RETURNDATASIZE PUSH1 0x0 REVERT JUMPDEST POP POP POP POP PUSH1 0x40 MLOAD RETURNDATASIZE PUSH1 0x1F NOT PUSH1 0x1F DUP3 ADD AND DUP3 ADD DUP1 PUSH1 0x40 MSTORE POP DUP2 ADD SWAP1 PUSH2 0x1BCA SWAP2 SWAP1 PUSH2 0x4EFE JUMP JUMPDEST LT ISZERO PUSH2 0x1C0B JUMPI PUSH1 0x40 MLOAD PUSH32 0x8C379A000000000000000000000000000000000000000000000000000000000 DUP2 MSTORE PUSH1 0x4 ADD PUSH2 0x1C02 SWAP1 PUSH2 0x5386 JUMP JUMPDEST PUSH1 0x40 MLOAD DUP1 SWAP2 SUB SWAP1 REVERT JUMPDEST PUSH1 0x0 PUSH2 0x1C16 TIMESTAMP PUSH2 0x2F3A JUMP JUMPDEST SWAP1 POP PUSH2 0x1C23 CALLER DUP3 DUP6 PUSH2 0x2F9D JUMP JUMPDEST PUSH2 0x1C2D CALLER DUP5 PUSH2 0x33FE JUMP JUMPDEST PUSH1 0x5 PUSH1 0x0 SWAP1 SLOAD SWAP1 PUSH2 0x100 EXP SWAP1 DIV PUSH20 0xFFFFFFFFFFFFFFFFFFFFFFFFFFFFFFFFFFFFFFFF AND PUSH20 0xFFFFFFFFFFFFFFFFFFFFFFFFFFFFFFFFFFFFFFFF AND PUSH4 0x23B872DD CALLER PUSH2 0x1C74 PUSH2 0x150A JUMP JUMPDEST PUSH1 0x8 SLOAD DUP8 PUSH2 0x1C82 SWAP2 SWAP1 PUSH2 0x4EBC JUMP JUMPDEST PUSH1 0x40 MLOAD DUP5 PUSH4 0xFFFFFFFF AND PUSH1 0xE0 SHL DUP2 MSTORE PUSH1 0x4 ADD PUSH2 0x1CA0 SWAP4 SWAP3 SWAP2 SWAP1 PUSH2 0x4FA7 JUMP JUMPDEST PUSH1 0x20 PUSH1 0x40 MLOAD DUP1 DUP4 SUB DUP2 PUSH1 0x0 DUP8 GAS CALL ISZERO DUP1 ISZERO PUSH2 0x1CBF JUMPI RETURNDATASIZE PUSH1 0x0 DUP1 RETURNDATACOPY RETURNDATASIZE PUSH1 0x0 REVERT JUMPDEST POP POP POP POP PUSH1 0x40 MLOAD RETURNDATASIZE PUSH1 0x1F NOT PUSH1 0x1F DUP3 ADD AND DUP3 ADD DUP1 PUSH1 0x40 MSTORE POP DUP2 ADD SWAP1 PUSH2 0x1CE3 SWAP2 SWAP1 PUSH2 0x4998 JUMP JUMPDEST POP POP POP POP JUMP JUMPDEST PUSH1 0x0 PUSH1 0x10 PUSH1 0x0 DUP5 PUSH20 0xFFFFFFFFFFFFFFFFFFFFFFFFFFFFFFFFFFFFFFFF AND PUSH20 0xFFFFFFFFFFFFFFFFFFFFFFFFFFFFFFFFFFFFFFFF AND DUP2 MSTORE PUSH1 0x20 ADD SWAP1 DUP2 MSTORE PUSH1 0x20 ADD PUSH1 0x0 KECCAK256 PUSH1 0x0 DUP4 PUSH20 0xFFFFFFFFFFFFFFFFFFFFFFFFFFFFFFFFFFFFFFFF AND PUSH20 0xFFFFFFFFFFFFFFFFFFFFFFFFFFFFFFFFFFFFFFFF AND DUP2 MSTORE PUSH1 0x20 ADD SWAP1 DUP2 MSTORE PUSH1 0x20 ADD PUSH1 0x0 KECCAK256 SLOAD SWAP1 POP SWAP3 SWAP2 POP POP JUMP JUMPDEST DUP1 PUSH1 0x0 DUP2 GT PUSH2 0x1DB4 JUMPI PUSH1 0x40 MLOAD PUSH32 0x8C379A000000000000000000000000000000000000000000000000000000000 DUP2 MSTORE PUSH1 0x4 ADD PUSH2 0x1DAB SWAP1 PUSH2 0x5115 JUMP JUMPDEST PUSH1 0x40 MLOAD DUP1 SWAP2 SUB SWAP1 REVERT JUMPDEST PUSH1 0x1 ISZERO ISZERO PUSH1 0x3 PUSH1 0x14 SWAP1 SLOAD SWAP1 PUSH2 0x100 EXP SWAP1 DIV PUSH1 0xFF AND DUP1 ISZERO PUSH2 0x1DE0 JUMPI POP PUSH1 0x3 PUSH1 0x15 SWAP1 SLOAD SWAP1 PUSH2 0x100 EXP SWAP1 DIV PUSH1 0xFF AND JUMPDEST ISZERO ISZERO EQ PUSH2 0x1E22 JUMPI PUSH1 0x40 MLOAD PUSH32 0x8C379A000000000000000000000000000000000000000000000000000000000 DUP2 MSTORE PUSH1 0x4 ADD PUSH2 0x1E19 SWAP1 PUSH2 0x4902 JUMP JUMPDEST PUSH1 0x40 MLOAD DUP1 SWAP2 SUB SWAP1 REVERT JUMPDEST PUSH1 0x0 PUSH2 0x1E2D TIMESTAMP PUSH2 0x2F3A JUMP JUMPDEST SWAP1 POP PUSH1 0x0 PUSH2 0x1E3A DUP6 PUSH2 0x34CE JUMP JUMPDEST PUSH2 0x1E43 DUP4 PUSH2 0x34CE JUMP JUMPDEST PUSH2 0x1E4D SWAP2 SWAP1 PUSH2 0x4C5D JUMP JUMPDEST SWAP1 POP PUSH1 0x4 PUSH1 0x0 SWAP1 SLOAD SWAP1 PUSH2 0x100 EXP SWAP1 DIV PUSH20 0xFFFFFFFFFFFFFFFFFFFFFFFFFFFFFFFFFFFFFFFF AND PUSH20 0xFFFFFFFFFFFFFFFFFFFFFFFFFFFFFFFFFFFFFFFF AND PUSH4 0xF35F0F74 CALLER PUSH1 0x2 PUSH1 0x40 MLOAD DUP4 PUSH4 0xFFFFFFFF AND PUSH1 0xE0 SHL DUP2 MSTORE PUSH1 0x4 ADD PUSH2 0x1EAD SWAP3 SWAP2 SWAP1 PUSH2 0x4943 JUMP JUMPDEST PUSH1 0x20 PUSH1 0x40 MLOAD DUP1 DUP4 SUB DUP2 DUP7 GAS STATICCALL ISZERO DUP1 ISZERO PUSH2 0x1ECA JUMPI RETURNDATASIZE PUSH1 0x0 DUP1 RETURNDATACOPY RETURNDATASIZE PUSH1 0x0 REVERT JUMPDEST POP POP POP POP PUSH1 0x40 MLOAD RETURNDATASIZE PUSH1 0x1F NOT PUSH1 0x1F DUP3 ADD AND DUP3 ADD DUP1 PUSH1 0x40 MSTORE POP DUP2 ADD SWAP1 PUSH2 0x1EEE SWAP2 SWAP1 PUSH2 0x4998 JUMP JUMPDEST PUSH2 0x1F2D JUMPI PUSH1 0x40 MLOAD PUSH32 0x8C379A000000000000000000000000000000000000000000000000000000000 DUP2 MSTORE PUSH1 0x4 ADD PUSH2 0x1F24 SWAP1 PUSH2 0x4E9C JUMP JUMPDEST PUSH1 0x40 MLOAD DUP1 SWAP2 SUB SWAP1 REVERT JUMPDEST DUP4 PUSH2 0x1F36 PUSH2 0x764 JUMP JUMPDEST LT ISZERO PUSH2 0x1F77 JUMPI PUSH1 0x40 MLOAD PUSH32 0x8C379A000000000000000000000000000000000000000000000000000000000 DUP2 MSTORE PUSH1 0x4 ADD PUSH2 0x1F6E SWAP1 PUSH2 0x5418 JUMP JUMPDEST PUSH1 0x40 MLOAD DUP1 SWAP2 SUB SWAP1 REVERT JUMPDEST PUSH1 0x8 SLOAD DUP5 PUSH2 0x1F85 SWAP2 SWAP1 PUSH2 0x4EBC JUMP JUMPDEST PUSH1 0x5 PUSH1 0x0 SWAP1 SLOAD SWAP1 PUSH2 0x100 EXP SWAP1 DIV PUSH20 0xFFFFFFFFFFFFFFFFFFFFFFFFFFFFFFFFFFFFFFFF AND PUSH20 0xFFFFFFFFFFFFFFFFFFFFFFFFFFFFFFFFFFFFFFFF AND PUSH4 0x70A08231 PUSH2 0x1FCB PUSH2 0x150A JUMP JUMPDEST PUSH1 0x40 MLOAD DUP3 PUSH4 0xFFFFFFFF AND PUSH1 0xE0 SHL DUP2 MSTORE PUSH1 0x4 ADD PUSH2 0x1FE7 SWAP2 SWAP1 PUSH2 0x43EF JUMP JUMPDEST PUSH1 0x20 PUSH1 0x40 MLOAD DUP1 DUP4 SUB DUP2 DUP7 GAS STATICCALL ISZERO DUP1 ISZERO PUSH2 0x2004 JUMPI RETURNDATASIZE PUSH1 0x0 DUP1 RETURNDATACOPY RETURNDATASIZE PUSH1 0x0 REVERT JUMPDEST POP POP POP POP PUSH1 0x40 MLOAD RETURNDATASIZE PUSH1 0x1F NOT PUSH1 0x1F DUP3 ADD AND DUP3 ADD DUP1 PUSH1 0x40 MSTORE POP DUP2 ADD SWAP1 PUSH2 0x2028 SWAP2 SWAP1 PUSH2 0x4EFE JUMP JUMPDEST LT ISZERO PUSH2 0x2033 JUMPI PUSH1 0x0 DUP1 REVERT JUMPDEST PUSH1 0x8 SLOAD DUP5 PUSH2 0x2041 SWAP2 SWAP1 PUSH2 0x4EBC JUMP JUMPDEST PUSH1 0x5 PUSH1 0x0 SWAP1 SLOAD SWAP1 PUSH2 0x100 EXP SWAP1 DIV PUSH20 0xFFFFFFFFFFFFFFFFFFFFFFFFFFFFFFFFFFFFFFFF AND PUSH20 0xFFFFFFFFFFFFFFFFFFFFFFFFFFFFFFFFFFFFFFFF AND PUSH4 0xDD62ED3E PUSH2 0x2087 PUSH2 0x150A JUMP JUMPDEST ADDRESS PUSH1 0x40 MLOAD DUP4 PUSH4 0xFFFFFFFF AND PUSH1 0xE0 SHL DUP2 MSTORE PUSH1 0x4 ADD PUSH2 0x20A5 SWAP3 SWAP2 SWAP1 PUSH2 0x52EB JUMP JUMPDEST PUSH1 0x20 PUSH1 0x40 MLOAD DUP1 DUP4 SUB DUP2 DUP7 GAS STATICCALL ISZERO DUP1 ISZERO PUSH2 0x20C2 JUMPI RETURNDATASIZE PUSH1 0x0 DUP1 RETURNDATACOPY RETURNDATASIZE PUSH1 0x0 REVERT JUMPDEST POP POP POP POP PUSH1 0x40 MLOAD RETURNDATASIZE PUSH1 0x1F NOT PUSH1 0x1F DUP3 ADD AND DUP3 ADD DUP1 PUSH1 0x40 MSTORE POP DUP2 ADD SWAP1 PUSH2 0x20E6 SWAP2 SWAP1 PUSH2 0x4EFE JUMP JUMPDEST LT ISZERO PUSH2 0x2127 JUMPI PUSH1 0x40 MLOAD PUSH32 0x8C379A000000000000000000000000000000000000000000000000000000000 DUP2 MSTORE PUSH1 0x4 ADD PUSH2 0x211E SWAP1 PUSH2 0x5484 JUMP JUMPDEST PUSH1 0x40 MLOAD DUP1 SWAP2 SUB SWAP1 REVERT JUMPDEST PUSH1 0x0 PUSH1 0xD PUSH1 0x0 CALLER PUSH20 0xFFFFFFFFFFFFFFFFFFFFFFFFFFFFFFFFFFFFFFFF AND PUSH20 0xFFFFFFFFFFFFFFFFFFFFFFFFFFFFFFFFFFFFFFFF AND DUP2 MSTORE PUSH1 0x20 ADD SWAP1 DUP2 MSTORE PUSH1 0x20 ADD PUSH1 0x0 KECCAK256 PUSH1 0x0 DUP8 DUP2 MSTORE PUSH1 0x20 ADD SWAP1 DUP2 MSTORE PUSH1 0x20 ADD PUSH1 0x0 KECCAK256 SLOAD SUB PUSH2 0x21BA JUMPI PUSH1 0x40 MLOAD PUSH32 0x8C379A000000000000000000000000000000000000000000000000000000000 DUP2 MSTORE PUSH1 0x4 ADD PUSH2 0x21B1 SWAP1 PUSH2 0x54F0 JUMP JUMPDEST PUSH1 0x40 MLOAD DUP1 SWAP2 SUB SWAP1 REVERT JUMPDEST PUSH1 0x0 PUSH1 0x1 PUSH1 0xD PUSH1 0x0 CALLER PUSH20 0xFFFFFFFFFFFFFFFFFFFFFFFFFFFFFFFFFFFFFFFF AND PUSH20 0xFFFFFFFFFFFFFFFFFFFFFFFFFFFFFFFFFFFFFFFF AND DUP2 MSTORE PUSH1 0x20 ADD SWAP1 DUP2 MSTORE PUSH1 0x20 ADD PUSH1 0x0 KECCAK256 PUSH1 0x0 DUP9 DUP2 MSTORE PUSH1 0x20 ADD SWAP1 DUP2 MSTORE PUSH1 0x20 ADD PUSH1 0x0 KECCAK256 SLOAD PUSH2 0x2219 SWAP2 SWAP1 PUSH2 0x4C5D JUMP JUMPDEST SWAP1 POP DUP5 PUSH1 0xC PUSH1 0x0 CALLER PUSH20 0xFFFFFFFFFFFFFFFFFFFFFFFFFFFFFFFFFFFFFFFF AND PUSH20 0xFFFFFFFFFFFFFFFFFFFFFFFFFFFFFFFFFFFFFFFF AND DUP2 MSTORE PUSH1 0x20 ADD SWAP1 DUP2 MSTORE PUSH1 0x20 ADD PUSH1 0x0 KECCAK256 DUP3 DUP2 SLOAD DUP2 LT PUSH2 0x226D JUMPI PUSH2 0x226C PUSH2 0x4C91 JUMP JUMPDEST JUMPDEST SWAP1 PUSH1 0x0 MSTORE PUSH1 0x20 PUSH1 0x0 KECCAK256 SWAP1 PUSH1 0x3 MUL ADD PUSH1 0x2 ADD SLOAD PUSH1 0xC PUSH1 0x0 CALLER PUSH20 0xFFFFFFFFFFFFFFFFFFFFFFFFFFFFFFFFFFFFFFFF AND PUSH20 0xFFFFFFFFFFFFFFFFFFFFFFFFFFFFFFFFFFFFFFFF AND DUP2 MSTORE PUSH1 0x20 ADD SWAP1 DUP2 MSTORE PUSH1 0x20 ADD PUSH1 0x0 KECCAK256 DUP4 DUP2 SLOAD DUP2 LT PUSH2 0x22D0 JUMPI PUSH2 0x22CF PUSH2 0x4C91 JUMP JUMPDEST JUMPDEST SWAP1 PUSH1 0x0 MSTORE PUSH1 0x20 PUSH1 0x0 KECCAK256 SWAP1 PUSH1 0x3 MUL ADD PUSH1 0x1 ADD SLOAD PUSH2 0x22EC SWAP2 SWAP1 PUSH2 0x4C5D JUMP JUMPDEST LT ISZERO PUSH2 0x232D JUMPI PUSH1 0x40 MLOAD PUSH32 0x8C379A000000000000000000000000000000000000000000000000000000000 DUP2 MSTORE PUSH1 0x4 ADD PUSH2 0x2324 SWAP1 PUSH2 0x555C JUMP JUMPDEST PUSH1 0x40 MLOAD DUP1 SWAP2 SUB SWAP1 REVERT JUMPDEST DUP5 PUSH1 0xC PUSH1 0x0 CALLER PUSH20 0xFFFFFFFFFFFFFFFFFFFFFFFFFFFFFFFFFFFFFFFF AND PUSH20 0xFFFFFFFFFFFFFFFFFFFFFFFFFFFFFFFFFFFFFFFF AND DUP2 MSTORE PUSH1 0x20 ADD SWAP1 DUP2 MSTORE PUSH1 0x20 ADD PUSH1 0x0 KECCAK256 DUP3 DUP2 SLOAD DUP2 LT PUSH2 0x237F JUMPI PUSH2 0x237E PUSH2 0x4C91 JUMP JUMPDEST JUMPDEST SWAP1 PUSH1 0x0 MSTORE PUSH1 0x20 PUSH1 0x0 KECCAK256 SWAP1 PUSH1 0x3 MUL ADD PUSH1 0x1 ADD PUSH1 0x0 DUP3 DUP3 SLOAD PUSH2 0x239F SWAP2 SWAP1 PUSH2 0x4C5D JUMP JUMPDEST SWAP3 POP POP DUP2 SWAP1 SSTORE POP PUSH1 0x5 PUSH1 0x0 SWAP1 SLOAD SWAP1 PUSH2 0x100 EXP SWAP1 DIV PUSH20 0xFFFFFFFFFFFFFFFFFFFFFFFFFFFFFFFFFFFFFFFF AND PUSH20 0xFFFFFFFFFFFFFFFFFFFFFFFFFFFFFFFFFFFFFFFF AND PUSH4 0x23B872DD PUSH2 0x23EC PUSH2 0x150A JUMP JUMPDEST CALLER DUP6 PUSH1 0x9 SLOAD PUSH2 0x23FB SWAP2 SWAP1 PUSH2 0x4EBC JUMP JUMPDEST PUSH1 0x8 SLOAD PUSH2 0x2408 SWAP2 SWAP1 PUSH2 0x4F2B JUMP JUMPDEST DUP10 PUSH2 0x2413 SWAP2 SWAP1 PUSH2 0x4EBC JUMP JUMPDEST PUSH1 0x40 MLOAD DUP5 PUSH4 0xFFFFFFFF AND PUSH1 0xE0 SHL DUP2 MSTORE PUSH1 0x4 ADD PUSH2 0x2431 SWAP4 SWAP3 SWAP2 SWAP1 PUSH2 0x4FA7 JUMP JUMPDEST PUSH1 0x20 PUSH1 0x40 MLOAD DUP1 DUP4 SUB DUP2 PUSH1 0x0 DUP8 GAS CALL ISZERO DUP1 ISZERO PUSH2 0x2450 JUMPI RETURNDATASIZE PUSH1 0x0 DUP1 RETURNDATACOPY RETURNDATASIZE PUSH1 0x0 REVERT JUMPDEST POP POP POP POP PUSH1 0x40 MLOAD RETURNDATASIZE PUSH1 0x1F NOT PUSH1 0x1F DUP3 ADD AND DUP3 ADD DUP1 PUSH1 0x40 MSTORE POP DUP2 ADD SWAP1 PUSH2 0x2474 SWAP2 SWAP1 PUSH2 0x4998 JUMP JUMPDEST POP PUSH2 0x247F CALLER DUP7 PUSH2 0x365D JUMP JUMPDEST POP POP POP POP POP POP JUMP JUMPDEST PUSH1 0x0 PUSH1 0x1 ISZERO ISZERO PUSH1 0xE PUSH1 0x0 DUP8 PUSH20 0xFFFFFFFFFFFFFFFFFFFFFFFFFFFFFFFFFFFFFFFF AND PUSH20 0xFFFFFFFFFFFFFFFFFFFFFFFFFFFFFFFFFFFFFFFF AND DUP2 MSTORE PUSH1 0x20 ADD SWAP1 DUP2 MSTORE PUSH1 0x20 ADD PUSH1 0x0 KECCAK256 PUSH1 0x0 SWAP1 SLOAD SWAP1 PUSH2 0x100 EXP SWAP1 DIV PUSH1 0xFF AND ISZERO ISZERO EQ PUSH2 0x251C JUMPI PUSH1 0x40 MLOAD PUSH32 0x8C379A000000000000000000000000000000000000000000000000000000000 DUP2 MSTORE PUSH1 0x4 ADD PUSH2 0x2513 SWAP1 PUSH2 0x4A7D JUMP JUMPDEST PUSH1 0x40 MLOAD DUP1 SWAP2 SUB SWAP1 REVERT JUMPDEST PUSH1 0x0 PUSH1 0xD PUSH1 0x0 CALLER PUSH20 0xFFFFFFFFFFFFFFFFFFFFFFFFFFFFFFFFFFFFFFFF AND PUSH20 0xFFFFFFFFFFFFFFFFFFFFFFFFFFFFFFFFFFFFFFFF AND DUP2 MSTORE PUSH1 0x20 ADD SWAP1 DUP2 MSTORE PUSH1 0x20 ADD PUSH1 0x0 KECCAK256 PUSH1 0x0 DUP7 DUP2 MSTORE PUSH1 0x20 ADD SWAP1 DUP2 MSTORE PUSH1 0x20 ADD PUSH1 0x0 KECCAK256 SLOAD SWAP1 POP PUSH1 0x0 DUP2 SUB PUSH2 0x25B4 JUMPI PUSH1 0x40 MLOAD PUSH32 0x8C379A000000000000000000000000000000000000000000000000000000000 DUP2 MSTORE PUSH1 0x4 ADD PUSH2 0x25AB SWAP1 PUSH2 0x4C0E JUMP JUMPDEST PUSH1 0x40 MLOAD DUP1 SWAP2 SUB SWAP1 REVERT JUMPDEST PUSH1 0x0 PUSH1 0xC PUSH1 0x0 CALLER PUSH20 0xFFFFFFFFFFFFFFFFFFFFFFFFFFFFFFFFFFFFFFFF AND PUSH20 0xFFFFFFFFFFFFFFFFFFFFFFFFFFFFFFFFFFFFFFFF AND DUP2 MSTORE PUSH1 0x20 ADD SWAP1 DUP2 MSTORE PUSH1 0x20 ADD PUSH1 0x0 KECCAK256 PUSH1 0x1 DUP4 PUSH2 0x2602 SWAP2 SWAP1 PUSH2 0x4C5D JUMP JUMPDEST DUP2 SLOAD DUP2 LT PUSH2 0x2613 JUMPI PUSH2 0x2612 PUSH2 0x4C91 JUMP JUMPDEST JUMPDEST SWAP1 PUSH1 0x0 MSTORE PUSH1 0x20 PUSH1 0x0 KECCAK256 SWAP1 PUSH1 0x3 MUL ADD PUSH1 0x40 MLOAD DUP1 PUSH1 0x60 ADD PUSH1 0x40 MSTORE SWAP1 DUP2 PUSH1 0x0 DUP3 ADD SLOAD DUP2 MSTORE PUSH1 0x20 ADD PUSH1 0x1 DUP3 ADD SLOAD DUP2 MSTORE PUSH1 0x20 ADD PUSH1 0x2 DUP3 ADD SLOAD DUP2 MSTORE POP POP SWAP1 POP DUP5 DUP2 PUSH1 0x40 ADD MLOAD DUP3 PUSH1 0x20 ADD MLOAD PUSH2 0x2661 SWAP2 SWAP1 PUSH2 0x4C5D JUMP JUMPDEST LT ISZERO PUSH2 0x26A2 JUMPI PUSH1 0x40 MLOAD PUSH32 0x8C379A000000000000000000000000000000000000000000000000000000000 DUP2 MSTORE PUSH1 0x4 ADD PUSH2 0x2699 SWAP1 PUSH2 0x55C8 JUMP JUMPDEST PUSH1 0x40 MLOAD DUP1 SWAP2 SUB SWAP1 REVERT JUMPDEST DUP5 PUSH1 0xC PUSH1 0x0 CALLER PUSH20 0xFFFFFFFFFFFFFFFFFFFFFFFFFFFFFFFFFFFFFFFF AND PUSH20 0xFFFFFFFFFFFFFFFFFFFFFFFFFFFFFFFFFFFFFFFF AND DUP2 MSTORE PUSH1 0x20 ADD SWAP1 DUP2 MSTORE PUSH1 0x20 ADD PUSH1 0x0 KECCAK256 PUSH1 0x1 DUP5 PUSH2 0x26EF SWAP2 SWAP1 PUSH2 0x4C5D JUMP JUMPDEST DUP2 SLOAD DUP2 LT PUSH2 0x2700 JUMPI PUSH2 0x26FF PUSH2 0x4C91 JUMP JUMPDEST JUMPDEST SWAP1 PUSH1 0x0 MSTORE PUSH1 0x20 PUSH1 0x0 KECCAK256 SWAP1 PUSH1 0x3 MUL ADD PUSH1 0x2 ADD PUSH1 0x0 DUP3 DUP3 SLOAD PUSH2 0x2720 SWAP2 SWAP1 PUSH2 0x4F2B JUMP JUMPDEST SWAP3 POP POP DUP2 SWAP1 SSTORE POP PUSH2 0x2732 CALLER DUP9 DUP8 PUSH2 0x37A5 JUMP JUMPDEST POP PUSH1 0x0 DUP8 PUSH20 0xFFFFFFFFFFFFFFFFFFFFFFFFFFFFFFFFFFFFFFFF AND PUSH4 0x43CAFC0E CALLER DUP10 DUP10 DUP10 PUSH1 0x40 MLOAD DUP6 PUSH4 0xFFFFFFFF AND PUSH1 0xE0 SHL DUP2 MSTORE PUSH1 0x4 ADD PUSH2 0x2774 SWAP5 SWAP4 SWAP3 SWAP2 SWAP1 PUSH2 0x55E8 JUMP JUMPDEST PUSH1 0x20 PUSH1 0x40 MLOAD DUP1 DUP4 SUB DUP2 PUSH1 0x0 DUP8 GAS CALL ISZERO DUP1 ISZERO PUSH2 0x2793 JUMPI RETURNDATASIZE PUSH1 0x0 DUP1 RETURNDATACOPY RETURNDATASIZE PUSH1 0x0 REVERT JUMPDEST POP POP POP POP PUSH1 0x40 MLOAD RETURNDATASIZE PUSH1 0x1F NOT PUSH1 0x1F DUP3 ADD AND DUP3 ADD DUP1 PUSH1 0x40 MSTORE POP DUP2 ADD SWAP1 PUSH2 0x27B7 SWAP2 SWAP1 PUSH2 0x4EFE JUMP JUMPDEST SWAP1 POP DUP1 SWAP4 POP POP POP POP SWAP5 SWAP4 POP POP POP POP JUMP JUMPDEST PUSH2 0x27CF PUSH2 0x2CC8 JUMP JUMPDEST PUSH1 0x0 PUSH20 0xFFFFFFFFFFFFFFFFFFFFFFFFFFFFFFFFFFFFFFFF AND DUP2 PUSH20 0xFFFFFFFFFFFFFFFFFFFFFFFFFFFFFFFFFFFFFFFF AND SUB PUSH2 0x283E JUMPI PUSH1 0x40 MLOAD PUSH32 0x8C379A000000000000000000000000000000000000000000000000000000000 DUP2 MSTORE PUSH1 0x4 ADD PUSH2 0x2835 SWAP1 PUSH2 0x569F JUMP JUMPDEST PUSH1 0x40 MLOAD DUP1 SWAP2 SUB SWAP1 REVERT JUMPDEST PUSH2 0x2847 DUP2 PUSH2 0x2E13 JUMP JUMPDEST POP JUMP JUMPDEST PUSH1 0x0 DUP2 PUSH2 0x2855 PUSH2 0x764 JUMP JUMPDEST LT ISZERO PUSH2 0x2896 JUMPI PUSH1 0x40 MLOAD PUSH32 0x8C379A000000000000000000000000000000000000000000000000000000000 DUP2 MSTORE PUSH1 0x4 ADD PUSH2 0x288D SWAP1 PUSH2 0x570B JUMP JUMPDEST PUSH1 0x40 MLOAD DUP1 SWAP2 SUB SWAP1 REVERT JUMPDEST PUSH1 0x0 PUSH20 0xFFFFFFFFFFFFFFFFFFFFFFFFFFFFFFFFFFFFFFFF AND DUP6 PUSH20 0xFFFFFFFFFFFFFFFFFFFFFFFFFFFFFFFFFFFFFFFF AND EQ DUP1 PUSH2 0x28FD JUMPI POP PUSH1 0x0 PUSH20 0xFFFFFFFFFFFFFFFFFFFFFFFFFFFFFFFFFFFFFFFF AND DUP5 PUSH20 0xFFFFFFFFFFFFFFFFFFFFFFFFFFFFFFFFFFFFFFFF AND EQ JUMPDEST ISZERO PUSH2 0x2934 JUMPI PUSH1 0x40 MLOAD PUSH32 0xD92E233D00000000000000000000000000000000000000000000000000000000 DUP2 MSTORE PUSH1 0x4 ADD PUSH1 0x40 MLOAD DUP1 SWAP2 SUB SWAP1 REVERT JUMPDEST PUSH1 0x4 PUSH1 0x0 SWAP1 SLOAD SWAP1 PUSH2 0x100 EXP SWAP1 DIV PUSH20 0xFFFFFFFFFFFFFFFFFFFFFFFFFFFFFFFFFFFFFFFF AND PUSH20 0xFFFFFFFFFFFFFFFFFFFFFFFFFFFFFFFFFFFFFFFF AND PUSH4 0xF35F0F74 CALLER PUSH1 0x80 PUSH1 0x40 MLOAD DUP4 PUSH4 0xFFFFFFFF AND PUSH1 0xE0 SHL DUP2 MSTORE PUSH1 0x4 ADD PUSH2 0x2992 SWAP3 SWAP2 SWAP1 PUSH2 0x4943 JUMP JUMPDEST PUSH1 0x20 PUSH1 0x40 MLOAD DUP1 DUP4 SUB DUP2 DUP7 GAS STATICCALL ISZERO DUP1 ISZERO PUSH2 0x29AF JUMPI RETURNDATASIZE PUSH1 0x0 DUP1 RETURNDATACOPY RETURNDATASIZE PUSH1 0x0 REVERT JUMPDEST POP POP POP POP PUSH1 0x40 MLOAD RETURNDATASIZE PUSH1 0x1F NOT PUSH1 0x1F DUP3 ADD AND DUP3 ADD DUP1 PUSH1 0x40 MSTORE POP DUP2 ADD SWAP1 PUSH2 0x29D3 SWAP2 SWAP1 PUSH2 0x4998 JUMP JUMPDEST PUSH2 0x2A12 JUMPI PUSH1 0x40 MLOAD PUSH32 0x8C379A000000000000000000000000000000000000000000000000000000000 DUP2 MSTORE PUSH1 0x4 ADD PUSH2 0x2A09 SWAP1 PUSH2 0x579D JUMP JUMPDEST PUSH1 0x40 MLOAD DUP1 SWAP2 SUB SWAP1 REVERT JUMPDEST PUSH1 0x4 PUSH1 0x0 SWAP1 SLOAD SWAP1 PUSH2 0x100 EXP SWAP1 DIV PUSH20 0xFFFFFFFFFFFFFFFFFFFFFFFFFFFFFFFFFFFFFFFF AND PUSH20 0xFFFFFFFFFFFFFFFFFFFFFFFFFFFFFFFFFFFFFFFF AND PUSH4 0xF35F0F74 DUP6 PUSH1 0x2 PUSH1 0x40 MLOAD DUP4 PUSH4 0xFFFFFFFF AND PUSH1 0xE0 SHL DUP2 MSTORE PUSH1 0x4 ADD PUSH2 0x2A70 SWAP3 SWAP2 SWAP1 PUSH2 0x4943 JUMP JUMPDEST PUSH1 0x20 PUSH1 0x40 MLOAD DUP1 DUP4 SUB DUP2 DUP7 GAS STATICCALL ISZERO DUP1 ISZERO PUSH2 0x2A8D JUMPI RETURNDATASIZE PUSH1 0x0 DUP1 RETURNDATACOPY RETURNDATASIZE PUSH1 0x0 REVERT JUMPDEST POP POP POP POP PUSH1 0x40 MLOAD RETURNDATASIZE PUSH1 0x1F NOT PUSH1 0x1F DUP3 ADD AND DUP3 ADD DUP1 PUSH1 0x40 MSTORE POP DUP2 ADD SWAP1 PUSH2 0x2AB1 SWAP2 SWAP1 PUSH2 0x4998 JUMP JUMPDEST PUSH2 0x2AF0 JUMPI PUSH1 0x40 MLOAD PUSH32 0x8C379A000000000000000000000000000000000000000000000000000000000 DUP2 MSTORE PUSH1 0x4 ADD PUSH2 0x2AE7 SWAP1 PUSH2 0x4E9C JUMP JUMPDEST PUSH1 0x40 MLOAD DUP1 SWAP2 SUB SWAP1 REVERT JUMPDEST DUP2 PUSH2 0x2AFB DUP7 CALLER PUSH2 0x1CE9 JUMP JUMPDEST LT ISZERO PUSH2 0x2B3C JUMPI PUSH1 0x40 MLOAD PUSH32 0x8C379A000000000000000000000000000000000000000000000000000000000 DUP2 MSTORE PUSH1 0x4 ADD PUSH2 0x2B33 SWAP1 PUSH2 0x5809 JUMP JUMPDEST PUSH1 0x40 MLOAD DUP1 SWAP2 SUB SWAP1 REVERT JUMPDEST DUP2 PUSH2 0x2B46 DUP7 PUSH2 0x149B JUMP JUMPDEST LT ISZERO PUSH2 0x2B87 JUMPI PUSH1 0x40 MLOAD PUSH32 0x8C379A000000000000000000000000000000000000000000000000000000000 DUP2 MSTORE PUSH1 0x4 ADD PUSH2 0x2B7E SWAP1 PUSH2 0x589B JUMP JUMPDEST PUSH1 0x40 MLOAD DUP1 SWAP2 SUB SWAP1 REVERT JUMPDEST PUSH2 0x2B94 DUP6 DUP5 DUP5 PUSH1 0x1 PUSH2 0x37D1 JUMP JUMPDEST DUP2 PUSH1 0xF PUSH1 0x0 DUP8 PUSH20 0xFFFFFFFFFFFFFFFFFFFFFFFFFFFFFFFFFFFFFFFF AND PUSH20 0xFFFFFFFFFFFFFFFFFFFFFFFFFFFFFFFFFFFFFFFF AND DUP2 MSTORE PUSH1 0x20 ADD SWAP1 DUP2 MSTORE PUSH1 0x20 ADD PUSH1 0x0 KECCAK256 PUSH1 0x0 DUP3 DUP3 SLOAD PUSH2 0x2BE3 SWAP2 SWAP1 PUSH2 0x4C5D JUMP JUMPDEST SWAP3 POP POP DUP2 SWAP1 SSTORE POP PUSH2 0x2BF5 DUP6 CALLER DUP5 PUSH2 0x2D46 JUMP JUMPDEST POP PUSH2 0x2C01 DUP5 DUP5 DUP5 PUSH2 0x2F9D JUMP JUMPDEST DUP2 PUSH1 0xF PUSH1 0x0 DUP7 PUSH20 0xFFFFFFFFFFFFFFFFFFFFFFFFFFFFFFFFFFFFFFFF AND PUSH20 0xFFFFFFFFFFFFFFFFFFFFFFFFFFFFFFFFFFFFFFFF AND DUP2 MSTORE PUSH1 0x20 ADD SWAP1 DUP2 MSTORE PUSH1 0x20 ADD PUSH1 0x0 KECCAK256 PUSH1 0x0 DUP3 DUP3 SLOAD PUSH2 0x2C50 SWAP2 SWAP1 PUSH2 0x4F2B JUMP JUMPDEST SWAP3 POP POP DUP2 SWAP1 SSTORE POP DUP4 PUSH20 0xFFFFFFFFFFFFFFFFFFFFFFFFFFFFFFFFFFFFFFFF AND DUP6 PUSH20 0xFFFFFFFFFFFFFFFFFFFFFFFFFFFFFFFFFFFFFFFF AND PUSH32 0xDDF252AD1BE2C89B69C2B068FC378DAA952BA7F163C4A11628F55A4DF523B3EF DUP5 PUSH1 0x40 MLOAD PUSH2 0x2CB4 SWAP2 SWAP1 PUSH2 0x433B JUMP JUMPDEST PUSH1 0x40 MLOAD DUP1 SWAP2 SUB SWAP1 LOG3 PUSH1 0x1 SWAP1 POP SWAP5 SWAP4 POP POP POP POP JUMP JUMPDEST PUSH2 0x2CD0 PUSH2 0x3B02 JUMP JUMPDEST PUSH20 0xFFFFFFFFFFFFFFFFFFFFFFFFFFFFFFFFFFFFFFFF AND PUSH2 0x2CEE PUSH2 0x150A JUMP JUMPDEST PUSH20 0xFFFFFFFFFFFFFFFFFFFFFFFFFFFFFFFFFFFFFFFF AND EQ PUSH2 0x2D44 JUMPI PUSH1 0x40 MLOAD PUSH32 0x8C379A000000000000000000000000000000000000000000000000000000000 DUP2 MSTORE PUSH1 0x4 ADD PUSH2 0x2D3B SWAP1 PUSH2 0x5907 JUMP JUMPDEST PUSH1 0x40 MLOAD DUP1 SWAP2 SUB SWAP1 REVERT JUMPDEST JUMP JUMPDEST PUSH1 0x0 DUP1 PUSH2 0x2D53 DUP6 DUP6 PUSH2 0x1CE9 JUMP JUMPDEST SWAP1 POP DUP3 DUP2 LT ISZERO PUSH2 0x2D98 JUMPI PUSH1 0x40 MLOAD PUSH32 0x8C379A000000000000000000000000000000000000000000000000000000000 DUP2 MSTORE PUSH1 0x4 ADD PUSH2 0x2D8F SWAP1 PUSH2 0x5973 JUMP JUMPDEST PUSH1 0x40 MLOAD DUP1 SWAP2 SUB SWAP1 REVERT JUMPDEST PUSH2 0x2DA5 DUP6 DUP6 DUP6 DUP5 SUB PUSH2 0x3B0A JUMP JUMPDEST PUSH1 0x1 SWAP2 POP POP SWAP4 SWAP3 POP POP POP JUMP JUMPDEST PUSH2 0x2DB9 PUSH2 0x3C2E JUMP JUMPDEST PUSH1 0x0 DUP1 PUSH1 0x0 PUSH2 0x100 EXP DUP2 SLOAD DUP2 PUSH1 0xFF MUL NOT AND SWAP1 DUP4 ISZERO ISZERO MUL OR SWAP1 SSTORE POP PUSH32 0x5DB9EE0A495BF2E6FF9C91A7834C1BA4FDD244A5E8AA4E537BD38AEAE4B073AA PUSH2 0x2DFC PUSH2 0x3B02 JUMP JUMPDEST PUSH1 0x40 MLOAD PUSH2 0x2E09 SWAP2 SWAP1 PUSH2 0x43EF JUMP JUMPDEST PUSH1 0x40 MLOAD DUP1 SWAP2 SUB SWAP1 LOG1 JUMP JUMPDEST PUSH1 0x0 DUP1 PUSH1 0x1 SWAP1 SLOAD SWAP1 PUSH2 0x100 EXP SWAP1 DIV PUSH20 0xFFFFFFFFFFFFFFFFFFFFFFFFFFFFFFFFFFFFFFFF AND SWAP1 POP DUP2 PUSH1 0x0 PUSH1 0x1 PUSH2 0x100 EXP DUP2 SLOAD DUP2 PUSH20 0xFFFFFFFFFFFFFFFFFFFFFFFFFFFFFFFFFFFFFFFF MUL NOT AND SWAP1 DUP4 PUSH20 0xFFFFFFFFFFFFFFFFFFFFFFFFFFFFFFFFFFFFFFFF AND MUL OR SWAP1 SSTORE POP DUP2 PUSH20 0xFFFFFFFFFFFFFFFFFFFFFFFFFFFFFFFFFFFFFFFF AND DUP2 PUSH20 0xFFFFFFFFFFFFFFFFFFFFFFFFFFFFFFFFFFFFFFFF AND PUSH32 0x8BE0079C531659141344CD1FD0A4F28419497F9722A3DAAFE3B4186F6B6457E0 PUSH1 0x40 MLOAD PUSH1 0x40 MLOAD DUP1 SWAP2 SUB SWAP1 LOG3 POP POP JUMP JUMPDEST PUSH2 0x2EE0 PUSH2 0x3C77 JUMP JUMPDEST PUSH1 0x1 PUSH1 0x0 DUP1 PUSH2 0x100 EXP DUP2 SLOAD DUP2 PUSH1 0xFF MUL NOT AND SWAP1 DUP4 ISZERO ISZERO MUL OR SWAP1 SSTORE POP PUSH32 0x62E78CEA01BEE320CD4E420270B5EA74000D11B0C9F74754EBDBFC544B05A258 PUSH2 0x2F23 PUSH2 0x3B02 JUMP JUMPDEST PUSH1 0x40 MLOAD PUSH2 0x2F30 SWAP2 SWAP1 PUSH2 0x43EF JUMP JUMPDEST PUSH1 0x40 MLOAD DUP1 SWAP2 SUB SWAP1 LOG1 JUMP JUMPDEST PUSH1 0x0 DUP1 PUSH1 0x0 DUP1 PUSH2 0x2F57 PUSH3 0x15180 DUP7 PUSH2 0x2F52 SWAP2 SWAP1 PUSH2 0x59C2 JUMP JUMPDEST PUSH2 0x3CC1 JUMP JUMPDEST DUP1 SWAP4 POP DUP2 SWAP5 POP DUP3 SWAP6 POP POP POP POP DUP1 PUSH1 0x64 DUP4 PUSH2 0x2F71 SWAP2 SWAP1 PUSH2 0x4EBC JUMP JUMPDEST PUSH2 0x2710 DUP6 PUSH2 0x2F7F SWAP2 SWAP1 PUSH2 0x4EBC JUMP JUMPDEST PUSH2 0x2F89 SWAP2 SWAP1 PUSH2 0x4F2B JUMP JUMPDEST PUSH2 0x2F93 SWAP2 SWAP1 PUSH2 0x4F2B JUMP JUMPDEST SWAP4 POP POP POP POP SWAP2 SWAP1 POP JUMP JUMPDEST PUSH1 0x0 PUSH1 0xC PUSH1 0x0 DUP6 PUSH20 0xFFFFFFFFFFFFFFFFFFFFFFFFFFFFFFFFFFFFFFFF AND PUSH20 0xFFFFFFFFFFFFFFFFFFFFFFFFFFFFFFFFFFFFFFFF AND DUP2 MSTORE PUSH1 0x20 ADD SWAP1 DUP2 MSTORE PUSH1 0x20 ADD PUSH1 0x0 KECCAK256 DUP1 SLOAD SWAP1 POP SUB PUSH2 0x318A JUMPI PUSH1 0xB DUP4 SWAP1 DUP1 PUSH1 0x1 DUP2 SLOAD ADD DUP1 DUP3 SSTORE DUP1 SWAP2 POP POP PUSH1 0x1 SWAP1 SUB SWAP1 PUSH1 0x0 MSTORE PUSH1 0x20 PUSH1 0x0 KECCAK256 ADD PUSH1 0x0 SWAP1 SWAP2 SWAP1 SWAP2 SWAP1 SWAP2 PUSH2 0x100 EXP DUP2 SLOAD DUP2 PUSH20 0xFFFFFFFFFFFFFFFFFFFFFFFFFFFFFFFFFFFFFFFF MUL NOT AND SWAP1 DUP4 PUSH20 0xFFFFFFFFFFFFFFFFFFFFFFFFFFFFFFFFFFFFFFFF AND MUL OR SWAP1 SSTORE POP PUSH1 0xC PUSH1 0x0 DUP5 PUSH20 0xFFFFFFFFFFFFFFFFFFFFFFFFFFFFFFFFFFFFFFFF AND PUSH20 0xFFFFFFFFFFFFFFFFFFFFFFFFFFFFFFFFFFFFFFFF AND DUP2 MSTORE PUSH1 0x20 ADD SWAP1 DUP2 MSTORE PUSH1 0x20 ADD PUSH1 0x0 KECCAK256 PUSH1 0x40 MLOAD DUP1 PUSH1 0x60 ADD PUSH1 0x40 MSTORE DUP1 DUP5 DUP2 MSTORE PUSH1 0x20 ADD DUP4 DUP2 MSTORE PUSH1 0x20 ADD PUSH1 0x0 DUP2 MSTORE POP SWAP1 DUP1 PUSH1 0x1 DUP2 SLOAD ADD DUP1 DUP3 SSTORE DUP1 SWAP2 POP POP PUSH1 0x1 SWAP1 SUB SWAP1 PUSH1 0x0 MSTORE PUSH1 0x20 PUSH1 0x0 KECCAK256 SWAP1 PUSH1 0x3 MUL ADD PUSH1 0x0 SWAP1 SWAP2 SWAP1 SWAP2 SWAP1 SWAP2 POP PUSH1 0x0 DUP3 ADD MLOAD DUP2 PUSH1 0x0 ADD SSTORE PUSH1 0x20 DUP3 ADD MLOAD DUP2 PUSH1 0x1 ADD SSTORE PUSH1 0x40 DUP3 ADD MLOAD DUP2 PUSH1 0x2 ADD SSTORE POP POP PUSH1 0xC PUSH1 0x0 DUP5 PUSH20 0xFFFFFFFFFFFFFFFFFFFFFFFFFFFFFFFFFFFFFFFF AND PUSH20 0xFFFFFFFFFFFFFFFFFFFFFFFFFFFFFFFFFFFFFFFF AND DUP2 MSTORE PUSH1 0x20 ADD SWAP1 DUP2 MSTORE PUSH1 0x20 ADD PUSH1 0x0 KECCAK256 DUP1 SLOAD SWAP1 POP PUSH1 0xD PUSH1 0x0 DUP6 PUSH20 0xFFFFFFFFFFFFFFFFFFFFFFFFFFFFFFFFFFFFFFFF AND PUSH20 0xFFFFFFFFFFFFFFFFFFFFFFFFFFFFFFFFFFFFFFFF AND DUP2 MSTORE PUSH1 0x20 ADD SWAP1 DUP2 MSTORE PUSH1 0x20 ADD PUSH1 0x0 KECCAK256 PUSH1 0x0 DUP5 DUP2 MSTORE PUSH1 0x20 ADD SWAP1 DUP2 MSTORE PUSH1 0x20 ADD PUSH1 0x0 KECCAK256 DUP2 SWAP1 SSTORE POP PUSH2 0x33F9 JUMP JUMPDEST PUSH1 0x0 PUSH1 0xD PUSH1 0x0 DUP6 PUSH20 0xFFFFFFFFFFFFFFFFFFFFFFFFFFFFFFFFFFFFFFFF AND PUSH20 0xFFFFFFFFFFFFFFFFFFFFFFFFFFFFFFFFFFFFFFFF AND DUP2 MSTORE PUSH1 0x20 ADD SWAP1 DUP2 MSTORE PUSH1 0x20 ADD PUSH1 0x0 KECCAK256 PUSH1 0x0 DUP5 DUP2 MSTORE PUSH1 0x20 ADD SWAP1 DUP2 MSTORE PUSH1 0x20 ADD PUSH1 0x0 KECCAK256 SLOAD SUB PUSH2 0x3322 JUMPI PUSH1 0xC PUSH1 0x0 DUP5 PUSH20 0xFFFFFFFFFFFFFFFFFFFFFFFFFFFFFFFFFFFFFFFF AND PUSH20 0xFFFFFFFFFFFFFFFFFFFFFFFFFFFFFFFFFFFFFFFF AND DUP2 MSTORE PUSH1 0x20 ADD SWAP1 DUP2 MSTORE PUSH1 0x20 ADD PUSH1 0x0 KECCAK256 PUSH1 0x40 MLOAD DUP1 PUSH1 0x60 ADD PUSH1 0x40 MSTORE DUP1 DUP5 DUP2 MSTORE PUSH1 0x20 ADD DUP4 DUP2 MSTORE PUSH1 0x20 ADD PUSH1 0x0 DUP2 MSTORE POP SWAP1 DUP1 PUSH1 0x1 DUP2 SLOAD ADD DUP1 DUP3 SSTORE DUP1 SWAP2 POP POP PUSH1 0x1 SWAP1 SUB SWAP1 PUSH1 0x0 MSTORE PUSH1 0x20 PUSH1 0x0 KECCAK256 SWAP1 PUSH1 0x3 MUL ADD PUSH1 0x0 SWAP1 SWAP2 SWAP1 SWAP2 SWAP1 SWAP2 POP PUSH1 0x0 DUP3 ADD MLOAD DUP2 PUSH1 0x0 ADD SSTORE PUSH1 0x20 DUP3 ADD MLOAD DUP2 PUSH1 0x1 ADD SSTORE PUSH1 0x40 DUP3 ADD MLOAD DUP2 PUSH1 0x2 ADD SSTORE POP POP PUSH1 0xC PUSH1 0x0 DUP5 PUSH20 0xFFFFFFFFFFFFFFFFFFFFFFFFFFFFFFFFFFFFFFFF AND PUSH20 0xFFFFFFFFFFFFFFFFFFFFFFFFFFFFFFFFFFFFFFFF AND DUP2 MSTORE PUSH1 0x20 ADD SWAP1 DUP2 MSTORE PUSH1 0x20 ADD PUSH1 0x0 KECCAK256 DUP1 SLOAD SWAP1 POP PUSH1 0xD PUSH1 0x0 DUP6 PUSH20 0xFFFFFFFFFFFFFFFFFFFFFFFFFFFFFFFFFFFFFFFF AND PUSH20 0xFFFFFFFFFFFFFFFFFFFFFFFFFFFFFFFFFFFFFFFF AND DUP2 MSTORE PUSH1 0x20 ADD SWAP1 DUP2 MSTORE PUSH1 0x20 ADD PUSH1 0x0 KECCAK256 PUSH1 0x0 DUP5 DUP2 MSTORE PUSH1 0x20 ADD SWAP1 DUP2 MSTORE PUSH1 0x20 ADD PUSH1 0x0 KECCAK256 DUP2 SWAP1 SSTORE POP PUSH2 0x33F8 JUMP JUMPDEST DUP1 PUSH1 0xC PUSH1 0x0 DUP6 PUSH20 0xFFFFFFFFFFFFFFFFFFFFFFFFFFFFFFFFFFFFFFFF AND PUSH20 0xFFFFFFFFFFFFFFFFFFFFFFFFFFFFFFFFFFFFFFFF AND DUP2 MSTORE PUSH1 0x20 ADD SWAP1 DUP2 MSTORE PUSH1 0x20 ADD PUSH1 0x0 KECCAK256 PUSH1 0x1 PUSH1 0xD PUSH1 0x0 DUP8 PUSH20 0xFFFFFFFFFFFFFFFFFFFFFFFFFFFFFFFFFFFFFFFF AND PUSH20 0xFFFFFFFFFFFFFFFFFFFFFFFFFFFFFFFFFFFFFFFF AND DUP2 MSTORE PUSH1 0x20 ADD SWAP1 DUP2 MSTORE PUSH1 0x20 ADD PUSH1 0x0 KECCAK256 PUSH1 0x0 DUP7 DUP2 MSTORE PUSH1 0x20 ADD SWAP1 DUP2 MSTORE PUSH1 0x20 ADD PUSH1 0x0 KECCAK256 SLOAD PUSH2 0x33BF SWAP2 SWAP1 PUSH2 0x4C5D JUMP JUMPDEST DUP2 SLOAD DUP2 LT PUSH2 0x33D0 JUMPI PUSH2 0x33CF PUSH2 0x4C91 JUMP JUMPDEST JUMPDEST SWAP1 PUSH1 0x0 MSTORE PUSH1 0x20 PUSH1 0x0 KECCAK256 SWAP1 PUSH1 0x3 MUL ADD PUSH1 0x1 ADD PUSH1 0x0 DUP3 DUP3 SLOAD PUSH2 0x33F0 SWAP2 SWAP1 PUSH2 0x4F2B JUMP JUMPDEST SWAP3 POP POP DUP2 SWAP1 SSTORE POP JUMPDEST JUMPDEST POP POP POP JUMP JUMPDEST PUSH1 0x0 PUSH20 0xFFFFFFFFFFFFFFFFFFFFFFFFFFFFFFFFFFFFFFFF AND DUP3 PUSH20 0xFFFFFFFFFFFFFFFFFFFFFFFFFFFFFFFFFFFFFFFF AND SUB PUSH2 0x3464 JUMPI PUSH1 0x40 MLOAD PUSH32 0xD92E233D00000000000000000000000000000000000000000000000000000000 DUP2 MSTORE PUSH1 0x4 ADD PUSH1 0x40 MLOAD DUP1 SWAP2 SUB SWAP1 REVERT JUMPDEST DUP1 PUSH1 0x11 PUSH1 0x0 DUP3 DUP3 SLOAD PUSH2 0x3476 SWAP2 SWAP1 PUSH2 0x4F2B JUMP JUMPDEST SWAP3 POP POP DUP2 SWAP1 SSTORE POP DUP1 PUSH1 0xF PUSH1 0x0 DUP5 PUSH20 0xFFFFFFFFFFFFFFFFFFFFFFFFFFFFFFFFFFFFFFFF AND PUSH20 0xFFFFFFFFFFFFFFFFFFFFFFFFFFFFFFFFFFFFFFFF AND DUP2 MSTORE PUSH1 0x20 ADD SWAP1 DUP2 MSTORE PUSH1 0x20 ADD PUSH1 0x0 KECCAK256 PUSH1 0x0 DUP3 DUP3 SLOAD ADD SWAP3 POP POP DUP2 SWAP1 SSTORE POP POP POP JUMP JUMPDEST PUSH1 0x0 PUSH4 0x12CC030 DUP3 LT ISZERO PUSH2 0x34E1 JUMPI PUSH1 0x0 DUP1 REVERT JUMPDEST PUSH1 0x0 PUSH1 0x64 DUP4 PUSH2 0x34F0 SWAP2 SWAP1 PUSH2 0x59F3 JUMP JUMPDEST SWAP1 POP PUSH1 0x0 PUSH1 0x64 DUP1 DUP6 PUSH2 0x3502 SWAP2 SWAP1 PUSH2 0x59C2 JUMP JUMPDEST PUSH2 0x350C SWAP2 SWAP1 PUSH2 0x59F3 JUMP JUMPDEST SWAP1 POP PUSH1 0x0 PUSH2 0x2710 DUP6 PUSH2 0x351E SWAP2 SWAP1 PUSH2 0x59C2 JUMP JUMPDEST SWAP1 POP PUSH1 0x0 PUSH3 0x253D8C PUSH1 0x4 PUSH1 0x64 PUSH1 0xC PUSH1 0xE DUP8 PUSH2 0x3539 SWAP2 SWAP1 PUSH2 0x5A2E JUMP JUMPDEST PUSH2 0x3543 SWAP2 SWAP1 PUSH2 0x5A71 JUMP JUMPDEST PUSH2 0x1324 DUP7 PUSH2 0x3551 SWAP2 SWAP1 PUSH2 0x5ADB JUMP JUMPDEST PUSH2 0x355B SWAP2 SWAP1 PUSH2 0x5ADB JUMP JUMPDEST PUSH2 0x3565 SWAP2 SWAP1 PUSH2 0x5A71 JUMP JUMPDEST PUSH1 0x3 PUSH2 0x3571 SWAP2 SWAP1 PUSH2 0x5B1F JUMP JUMPDEST PUSH2 0x357B SWAP2 SWAP1 PUSH2 0x5A71 JUMP JUMPDEST PUSH1 0xC DUP1 PUSH1 0xC PUSH1 0xE DUP9 PUSH2 0x358D SWAP2 SWAP1 PUSH2 0x5A2E JUMP JUMPDEST PUSH2 0x3597 SWAP2 SWAP1 PUSH2 0x5A71 JUMP JUMPDEST PUSH2 0x35A1 SWAP2 SWAP1 PUSH2 0x5B1F JUMP JUMPDEST PUSH1 0x2 DUP8 PUSH2 0x35AE SWAP2 SWAP1 PUSH2 0x5A2E JUMP JUMPDEST PUSH2 0x35B8 SWAP2 SWAP1 PUSH2 0x5A2E JUMP JUMPDEST PUSH2 0x16F PUSH2 0x35C5 SWAP2 SWAP1 PUSH2 0x5B1F JUMP JUMPDEST PUSH2 0x35CF SWAP2 SWAP1 PUSH2 0x5A71 JUMP JUMPDEST PUSH1 0x4 PUSH1 0xC PUSH1 0xE DUP9 PUSH2 0x35E0 SWAP2 SWAP1 PUSH2 0x5A2E JUMP JUMPDEST PUSH2 0x35EA SWAP2 SWAP1 PUSH2 0x5A71 JUMP JUMPDEST PUSH2 0x12C0 DUP8 PUSH2 0x35F8 SWAP2 SWAP1 PUSH2 0x5ADB JUMP JUMPDEST PUSH2 0x3602 SWAP2 SWAP1 PUSH2 0x5ADB JUMP JUMPDEST PUSH2 0x5B5 PUSH2 0x360F SWAP2 SWAP1 PUSH2 0x5B1F JUMP JUMPDEST PUSH2 0x3619 SWAP2 SWAP1 PUSH2 0x5A71 JUMP JUMPDEST PUSH2 0x7D4B DUP9 PUSH2 0x3627 SWAP2 SWAP1 PUSH2 0x5A2E JUMP JUMPDEST PUSH2 0x3631 SWAP2 SWAP1 PUSH2 0x5ADB JUMP JUMPDEST PUSH2 0x363B SWAP2 SWAP1 PUSH2 0x5ADB JUMP JUMPDEST PUSH2 0x3645 SWAP2 SWAP1 PUSH2 0x5A2E JUMP JUMPDEST PUSH2 0x364F SWAP2 SWAP1 PUSH2 0x5A2E JUMP JUMPDEST SWAP1 POP DUP1 SWAP5 POP POP POP POP POP SWAP2 SWAP1 POP JUMP JUMPDEST PUSH1 0x0 PUSH20 0xFFFFFFFFFFFFFFFFFFFFFFFFFFFFFFFFFFFFFFFF AND DUP3 PUSH20 0xFFFFFFFFFFFFFFFFFFFFFFFFFFFFFFFFFFFFFFFF AND SUB PUSH2 0x36C3 JUMPI PUSH1 0x40 MLOAD PUSH32 0xD92E233D00000000000000000000000000000000000000000000000000000000 DUP2 MSTORE PUSH1 0x4 ADD PUSH1 0x40 MLOAD DUP1 SWAP2 SUB SWAP1 REVERT JUMPDEST PUSH1 0x0 PUSH1 0xF PUSH1 0x0 DUP5 PUSH20 0xFFFFFFFFFFFFFFFFFFFFFFFFFFFFFFFFFFFFFFFF AND PUSH20 0xFFFFFFFFFFFFFFFFFFFFFFFFFFFFFFFFFFFFFFFF AND DUP2 MSTORE PUSH1 0x20 ADD SWAP1 DUP2 MSTORE PUSH1 0x20 ADD PUSH1 0x0 KECCAK256 SLOAD SWAP1 POP DUP2 DUP2 LT ISZERO PUSH2 0x374A JUMPI PUSH1 0x40 MLOAD PUSH32 0x8C379A000000000000000000000000000000000000000000000000000000000 DUP2 MSTORE PUSH1 0x4 ADD PUSH2 0x3741 SWAP1 PUSH2 0x5BE3 JUMP JUMPDEST PUSH1 0x40 MLOAD DUP1 SWAP2 SUB SWAP1 REVERT JUMPDEST DUP2 DUP2 SUB PUSH1 0xF PUSH1 0x0 DUP6 PUSH20 0xFFFFFFFFFFFFFFFFFFFFFFFFFFFFFFFFFFFFFFFF AND PUSH20 0xFFFFFFFFFFFFFFFFFFFFFFFFFFFFFFFFFFFFFFFF AND DUP2 MSTORE PUSH1 0x20 ADD SWAP1 DUP2 MSTORE PUSH1 0x20 ADD PUSH1 0x0 KECCAK256 DUP2 SWAP1 SSTORE POP DUP2 PUSH1 0x11 PUSH1 0x0 DUP3 DUP3 SLOAD SUB SWAP3 POP POP DUP2 SWAP1 SSTORE POP POP POP POP JUMP JUMPDEST PUSH1 0x0 PUSH2 0x37C6 DUP5 DUP5 DUP5 PUSH2 0x37B7 DUP9 DUP9 PUSH2 0x1CE9 JUMP JUMPDEST PUSH2 0x37C1 SWAP2 SWAP1 PUSH2 0x4F2B JUMP JUMPDEST PUSH2 0x3B0A JUMP JUMPDEST PUSH1 0x1 SWAP1 POP SWAP4 SWAP3 POP POP POP JUMP JUMPDEST PUSH1 0x0 PUSH1 0xD PUSH1 0x0 DUP7 PUSH20 0xFFFFFFFFFFFFFFFFFFFFFFFFFFFFFFFFFFFFFFFF AND PUSH20 0xFFFFFFFFFFFFFFFFFFFFFFFFFFFFFFFFFFFFFFFF AND DUP2 MSTORE PUSH1 0x20 ADD SWAP1 DUP2 MSTORE PUSH1 0x20 ADD PUSH1 0x0 KECCAK256 PUSH1 0x0 DUP6 DUP2 MSTORE PUSH1 0x20 ADD SWAP1 DUP2 MSTORE PUSH1 0x20 ADD PUSH1 0x0 KECCAK256 SLOAD SWAP1 POP PUSH1 0x0 DUP2 SUB PUSH2 0x3869 JUMPI PUSH1 0x40 MLOAD PUSH32 0x8C379A000000000000000000000000000000000000000000000000000000000 DUP2 MSTORE PUSH1 0x4 ADD PUSH2 0x3860 SWAP1 PUSH2 0x4C0E JUMP JUMPDEST PUSH1 0x40 MLOAD DUP1 SWAP2 SUB SWAP1 REVERT JUMPDEST PUSH1 0x0 PUSH1 0xC PUSH1 0x0 DUP8 PUSH20 0xFFFFFFFFFFFFFFFFFFFFFFFFFFFFFFFFFFFFFFFF AND PUSH20 0xFFFFFFFFFFFFFFFFFFFFFFFFFFFFFFFFFFFFFFFF AND DUP2 MSTORE PUSH1 0x20 ADD SWAP1 DUP2 MSTORE PUSH1 0x20 ADD PUSH1 0x0 KECCAK256 PUSH1 0x1 DUP4 PUSH2 0x38B7 SWAP2 SWAP1 PUSH2 0x4C5D JUMP JUMPDEST DUP2 SLOAD DUP2 LT PUSH2 0x38C8 JUMPI PUSH2 0x38C7 PUSH2 0x4C91 JUMP JUMPDEST JUMPDEST SWAP1 PUSH1 0x0 MSTORE PUSH1 0x20 PUSH1 0x0 KECCAK256 SWAP1 PUSH1 0x3 MUL ADD PUSH1 0x40 MLOAD DUP1 PUSH1 0x60 ADD PUSH1 0x40 MSTORE SWAP1 DUP2 PUSH1 0x0 DUP3 ADD SLOAD DUP2 MSTORE PUSH1 0x20 ADD PUSH1 0x1 DUP3 ADD SLOAD DUP2 MSTORE PUSH1 0x20 ADD PUSH1 0x2 DUP3 ADD SLOAD DUP2 MSTORE POP POP SWAP1 POP DUP4 DUP2 PUSH1 0x20 ADD MLOAD LT ISZERO PUSH2 0x3948 JUMPI PUSH1 0x40 MLOAD PUSH32 0x8C379A000000000000000000000000000000000000000000000000000000000 DUP2 MSTORE PUSH1 0x4 ADD PUSH2 0x393F SWAP1 PUSH2 0x555C JUMP JUMPDEST PUSH1 0x40 MLOAD DUP1 SWAP2 SUB SWAP1 REVERT JUMPDEST DUP3 PUSH2 0x39A8 JUMPI DUP4 DUP2 PUSH1 0x40 ADD MLOAD DUP3 PUSH1 0x20 ADD MLOAD PUSH2 0x3962 SWAP2 SWAP1 PUSH2 0x4C5D JUMP JUMPDEST LT ISZERO PUSH2 0x39A3 JUMPI PUSH1 0x40 MLOAD PUSH32 0x8C379A000000000000000000000000000000000000000000000000000000000 DUP2 MSTORE PUSH1 0x4 ADD PUSH2 0x399A SWAP1 PUSH2 0x5C4F JUMP JUMPDEST PUSH1 0x40 MLOAD DUP1 SWAP2 SUB SWAP1 REVERT JUMPDEST PUSH2 0x3A75 JUMP JUMPDEST DUP4 DUP2 PUSH1 0x40 ADD MLOAD LT ISZERO PUSH2 0x39EF JUMPI PUSH1 0x40 MLOAD PUSH32 0x8C379A000000000000000000000000000000000000000000000000000000000 DUP2 MSTORE PUSH1 0x4 ADD PUSH2 0x39E6 SWAP1 PUSH2 0x5CBB JUMP JUMPDEST PUSH1 0x40 MLOAD DUP1 SWAP2 SUB SWAP1 REVERT JUMPDEST DUP4 PUSH1 0xC PUSH1 0x0 DUP9 PUSH20 0xFFFFFFFFFFFFFFFFFFFFFFFFFFFFFFFFFFFFFFFF AND PUSH20 0xFFFFFFFFFFFFFFFFFFFFFFFFFFFFFFFFFFFFFFFF AND DUP2 MSTORE PUSH1 0x20 ADD SWAP1 DUP2 MSTORE PUSH1 0x20 ADD PUSH1 0x0 KECCAK256 PUSH1 0x1 DUP5 PUSH2 0x3A3C SWAP2 SWAP1 PUSH2 0x4C5D JUMP JUMPDEST DUP2 SLOAD DUP2 LT PUSH2 0x3A4D JUMPI PUSH2 0x3A4C PUSH2 0x4C91 JUMP JUMPDEST JUMPDEST SWAP1 PUSH1 0x0 MSTORE PUSH1 0x20 PUSH1 0x0 KECCAK256 SWAP1 PUSH1 0x3 MUL ADD PUSH1 0x2 ADD PUSH1 0x0 DUP3 DUP3 SLOAD PUSH2 0x3A6D SWAP2 SWAP1 PUSH2 0x4C5D JUMP JUMPDEST SWAP3 POP POP DUP2 SWAP1 SSTORE POP JUMPDEST DUP4 PUSH1 0xC PUSH1 0x0 DUP9 PUSH20 0xFFFFFFFFFFFFFFFFFFFFFFFFFFFFFFFFFFFFFFFF AND PUSH20 0xFFFFFFFFFFFFFFFFFFFFFFFFFFFFFFFFFFFFFFFF AND DUP2 MSTORE PUSH1 0x20 ADD SWAP1 DUP2 MSTORE PUSH1 0x20 ADD PUSH1 0x0 KECCAK256 PUSH1 0x1 DUP5 PUSH2 0x3AC2 SWAP2 SWAP1 PUSH2 0x4C5D JUMP JUMPDEST DUP2 SLOAD DUP2 LT PUSH2 0x3AD3 JUMPI PUSH2 0x3AD2 PUSH2 0x4C91 JUMP JUMPDEST JUMPDEST SWAP1 PUSH1 0x0 MSTORE PUSH1 0x20 PUSH1 0x0 KECCAK256 SWAP1 PUSH1 0x3 MUL ADD PUSH1 0x1 ADD PUSH1 0x0 DUP3 DUP3 SLOAD PUSH2 0x3AF3 SWAP2 SWAP1 PUSH2 0x4C5D JUMP JUMPDEST SWAP3 POP POP DUP2 SWAP1 SSTORE POP POP POP POP POP POP POP JUMP JUMPDEST PUSH1 0x0 CALLER SWAP1 POP SWAP1 JUMP JUMPDEST PUSH1 0x0 PUSH20 0xFFFFFFFFFFFFFFFFFFFFFFFFFFFFFFFFFFFFFFFF AND DUP4 PUSH20 0xFFFFFFFFFFFFFFFFFFFFFFFFFFFFFFFFFFFFFFFF AND EQ DUP1 PUSH2 0x3B71 JUMPI POP PUSH1 0x0 PUSH20 0xFFFFFFFFFFFFFFFFFFFFFFFFFFFFFFFFFFFFFFFF AND DUP3 PUSH20 0xFFFFFFFFFFFFFFFFFFFFFFFFFFFFFFFFFFFFFFFF AND EQ JUMPDEST ISZERO PUSH2 0x3BA8 JUMPI PUSH1 0x40 MLOAD PUSH32 0xD92E233D00000000000000000000000000000000000000000000000000000000 DUP2 MSTORE PUSH1 0x4 ADD PUSH1 0x40 MLOAD DUP1 SWAP2 SUB SWAP1 REVERT JUMPDEST DUP1 PUSH1 0x10 PUSH1 0x0 DUP6 PUSH20 0xFFFFFFFFFFFFFFFFFFFFFFFFFFFFFFFFFFFFFFFF AND PUSH20 0xFFFFFFFFFFFFFFFFFFFFFFFFFFFFFFFFFFFFFFFF AND DUP2 MSTORE PUSH1 0x20 ADD SWAP1 DUP2 MSTORE PUSH1 0x20 ADD PUSH1 0x0 KECCAK256 PUSH1 0x0 DUP5 PUSH20 0xFFFFFFFFFFFFFFFFFFFFFFFFFFFFFFFFFFFFFFFF AND PUSH20 0xFFFFFFFFFFFFFFFFFFFFFFFFFFFFFFFFFFFFFFFF AND DUP2 MSTORE PUSH1 0x20 ADD SWAP1 DUP2 MSTORE PUSH1 0x20 ADD PUSH1 0x0 KECCAK256 DUP2 SWAP1 SSTORE POP POP POP POP JUMP JUMPDEST PUSH2 0x3C36 PUSH2 0x1485 JUMP JUMPDEST PUSH2 0x3C75 JUMPI PUSH1 0x40 MLOAD PUSH32 0x8C379A000000000000000000000000000000000000000000000000000000000 DUP2 MSTORE PUSH1 0x4 ADD PUSH2 0x3C6C SWAP1 PUSH2 0x5D27 JUMP JUMPDEST PUSH1 0x40 MLOAD DUP1 SWAP2 SUB SWAP1 REVERT JUMPDEST JUMP JUMPDEST PUSH2 0x3C7F PUSH2 0x1485 JUMP JUMPDEST ISZERO PUSH2 0x3CBF JUMPI PUSH1 0x40 MLOAD PUSH32 0x8C379A000000000000000000000000000000000000000000000000000000000 DUP2 MSTORE PUSH1 0x4 ADD PUSH2 0x3CB6 SWAP1 PUSH2 0x5D93 JUMP JUMPDEST PUSH1 0x40 MLOAD DUP1 SWAP2 SUB SWAP1 REVERT JUMPDEST JUMP JUMPDEST PUSH1 0x0 DUP1 PUSH1 0x0 DUP1 DUP5 SWAP1 POP PUSH1 0x0 PUSH3 0x253D8C PUSH3 0x10BD9 DUP4 PUSH2 0x3CDF SWAP2 SWAP1 PUSH2 0x5ADB JUMP JUMPDEST PUSH2 0x3CE9 SWAP2 SWAP1 PUSH2 0x5ADB JUMP JUMPDEST SWAP1 POP PUSH1 0x0 PUSH3 0x23AB1 DUP3 PUSH1 0x4 PUSH2 0x3CFE SWAP2 SWAP1 PUSH2 0x5B1F JUMP JUMPDEST PUSH2 0x3D08 SWAP2 SWAP1 PUSH2 0x5A71 JUMP JUMPDEST SWAP1 POP PUSH1 0x4 PUSH1 0x3 DUP3 PUSH3 0x23AB1 PUSH2 0x3D1D SWAP2 SWAP1 PUSH2 0x5B1F JUMP JUMPDEST PUSH2 0x3D27 SWAP2 SWAP1 PUSH2 0x5ADB JUMP JUMPDEST PUSH2 0x3D31 SWAP2 SWAP1 PUSH2 0x5A71 JUMP JUMPDEST DUP3 PUSH2 0x3D3C SWAP2 SWAP1 PUSH2 0x5A2E JUMP JUMPDEST SWAP2 POP PUSH1 0x0 PUSH3 0x164B09 PUSH1 0x1 DUP5 PUSH2 0x3D51 SWAP2 SWAP1 PUSH2 0x5ADB JUMP JUMPDEST PUSH2 0xFA0 PUSH2 0x3D5E SWAP2 SWAP1 PUSH2 0x5B1F JUMP JUMPDEST PUSH2 0x3D68 SWAP2 SWAP1 PUSH2 0x5A71 JUMP JUMPDEST SWAP1 POP PUSH1 0x1F PUSH1 0x4 DUP3 PUSH2 0x5B5 PUSH2 0x3D7C SWAP2 SWAP1 PUSH2 0x5B1F JUMP JUMPDEST PUSH2 0x3D86 SWAP2 SWAP1 PUSH2 0x5A71 JUMP JUMPDEST DUP5 PUSH2 0x3D91 SWAP2 SWAP1 PUSH2 0x5A2E JUMP JUMPDEST PUSH2 0x3D9B SWAP2 SWAP1 PUSH2 0x5ADB JUMP JUMPDEST SWAP3 POP PUSH1 0x0 PUSH2 0x98F DUP5 PUSH1 0x50 PUSH2 0x3DAF SWAP2 SWAP1 PUSH2 0x5B1F JUMP JUMPDEST PUSH2 0x3DB9 SWAP2 SWAP1 PUSH2 0x5A71 JUMP JUMPDEST SWAP1 POP PUSH1 0x0 PUSH1 0x50 DUP3 PUSH2 0x98F PUSH2 0x3DCD SWAP2 SWAP1 PUSH2 0x5B1F JUMP JUMPDEST PUSH2 0x3DD7 SWAP2 SWAP1 PUSH2 0x5A71 JUMP JUMPDEST DUP6 PUSH2 0x3DE2 SWAP2 SWAP1 PUSH2 0x5A2E JUMP JUMPDEST SWAP1 POP PUSH1 0xB DUP3 PUSH2 0x3DF1 SWAP2 SWAP1 PUSH2 0x5A71 JUMP JUMPDEST SWAP5 POP DUP5 PUSH1 0xC PUSH2 0x3E00 SWAP2 SWAP1 PUSH2 0x5B1F JUMP JUMPDEST PUSH1 0x2 DUP4 PUSH2 0x3E0D SWAP2 SWAP1 PUSH2 0x5ADB JUMP JUMPDEST PUSH2 0x3E17 SWAP2 SWAP1 PUSH2 0x5A2E JUMP JUMPDEST SWAP2 POP DUP5 DUP4 PUSH1 0x31 DUP7 PUSH2 0x3E28 SWAP2 SWAP1 PUSH2 0x5A2E JUMP JUMPDEST PUSH1 0x64 PUSH2 0x3E34 SWAP2 SWAP1 PUSH2 0x5B1F JUMP JUMPDEST PUSH2 0x3E3E SWAP2 SWAP1 PUSH2 0x5ADB JUMP JUMPDEST PUSH2 0x3E48 SWAP2 SWAP1 PUSH2 0x5ADB JUMP JUMPDEST SWAP3 POP DUP3 SWAP9 POP DUP2 SWAP8 POP DUP1 SWAP7 POP POP POP POP POP POP POP SWAP2 SWAP4 SWAP1 SWAP3 POP JUMP JUMPDEST PUSH1 0x0 PUSH1 0x40 MLOAD SWAP1 POP SWAP1 JUMP JUMPDEST PUSH1 0x0 DUP1 REVERT JUMPDEST PUSH1 0x0 DUP1 REVERT JUMPDEST PUSH1 0x0 PUSH20 0xFFFFFFFFFFFFFFFFFFFFFFFFFFFFFFFFFFFFFFFF DUP3 AND SWAP1 POP SWAP2 SWAP1 POP JUMP JUMPDEST PUSH1 0x0 PUSH2 0x3E9F DUP3 PUSH2 0x3E74 JUMP JUMPDEST SWAP1 POP SWAP2 SWAP1 POP JUMP JUMPDEST PUSH2 0x3EAF DUP2 PUSH2 0x3E94 JUMP JUMPDEST DUP2 EQ PUSH2 0x3EBA JUMPI PUSH1 0x0 DUP1 REVERT JUMPDEST POP JUMP JUMPDEST PUSH1 0x0 DUP2 CALLDATALOAD SWAP1 POP PUSH2 0x3ECC DUP2 PUSH2 0x3EA6 JUMP JUMPDEST SWAP3 SWAP2 POP POP JUMP JUMPDEST PUSH1 0x0 PUSH1 0x20 DUP3 DUP5 SUB SLT ISZERO PUSH2 0x3EE8 JUMPI PUSH2 0x3EE7 PUSH2 0x3E6A JUMP JUMPDEST JUMPDEST PUSH1 0x0 PUSH2 0x3EF6 DUP5 DUP3 DUP6 ADD PUSH2 0x3EBD JUMP JUMPDEST SWAP2 POP POP SWAP3 SWAP2 POP POP JUMP JUMPDEST PUSH1 0x0 DUP2 MLOAD SWAP1 POP SWAP2 SWAP1 POP JUMP JUMPDEST PUSH1 0x0 DUP3 DUP3 MSTORE PUSH1 0x20 DUP3 ADD SWAP1 POP SWAP3 SWAP2 POP POP JUMP JUMPDEST PUSH1 0x0 DUP2 SWAP1 POP PUSH1 0x20 DUP3 ADD SWAP1 POP SWAP2 SWAP1 POP JUMP JUMPDEST PUSH1 0x0 DUP2 SWAP1 POP SWAP2 SWAP1 POP JUMP JUMPDEST PUSH2 0x3F3E DUP2 PUSH2 0x3F2B JUMP JUMPDEST DUP3 MSTORE POP POP JUMP JUMPDEST PUSH1 0x60 DUP3 ADD PUSH1 0x0 DUP3 ADD MLOAD PUSH2 0x3F5A PUSH1 0x0 DUP6 ADD DUP3 PUSH2 0x3F35 JUMP JUMPDEST POP PUSH1 0x20 DUP3 ADD MLOAD PUSH2 0x3F6D PUSH1 0x20 DUP6 ADD DUP3 PUSH2 0x3F35 JUMP JUMPDEST POP PUSH1 0x40 DUP3 ADD MLOAD PUSH2 0x3F80 PUSH1 0x40 DUP6 ADD DUP3 PUSH2 0x3F35 JUMP JUMPDEST POP POP POP POP JUMP JUMPDEST PUSH1 0x0 PUSH2 0x3F92 DUP4 DUP4 PUSH2 0x3F44 JUMP JUMPDEST PUSH1 0x60 DUP4 ADD SWAP1 POP SWAP3 SWAP2 POP POP JUMP JUMPDEST PUSH1 0x0 PUSH1 0x20 DUP3 ADD SWAP1 POP SWAP2 SWAP1 POP JUMP JUMPDEST PUSH1 0x0 PUSH2 0x3FB6 DUP3 PUSH2 0x3EFF JUMP JUMPDEST PUSH2 0x3FC0 DUP2 DUP6 PUSH2 0x3F0A JUMP JUMPDEST SWAP4 POP PUSH2 0x3FCB DUP4 PUSH2 0x3F1B JUMP JUMPDEST DUP1 PUSH1 0x0 JUMPDEST DUP4 DUP2 LT ISZERO PUSH2 0x3FFC JUMPI DUP2 MLOAD PUSH2 0x3FE3 DUP9 DUP3 PUSH2 0x3F86 JUMP JUMPDEST SWAP8 POP PUSH2 0x3FEE DUP4 PUSH2 0x3F9E JUMP JUMPDEST SWAP3 POP POP PUSH1 0x1 DUP2 ADD SWAP1 POP PUSH2 0x3FCF JUMP JUMPDEST POP DUP6 SWAP4 POP POP POP POP SWAP3 SWAP2 POP POP JUMP JUMPDEST PUSH1 0x0 PUSH1 0x20 DUP3 ADD SWAP1 POP DUP2 DUP2 SUB PUSH1 0x0 DUP4 ADD MSTORE PUSH2 0x4023 DUP2 DUP5 PUSH2 0x3FAB JUMP JUMPDEST SWAP1 POP SWAP3 SWAP2 POP POP JUMP JUMPDEST PUSH1 0x0 DUP2 MLOAD SWAP1 POP SWAP2 SWAP1 POP JUMP JUMPDEST PUSH1 0x0 DUP3 DUP3 MSTORE PUSH1 0x20 DUP3 ADD SWAP1 POP SWAP3 SWAP2 POP POP JUMP JUMPDEST PUSH1 0x0 JUMPDEST DUP4 DUP2 LT ISZERO PUSH2 0x4065 JUMPI DUP1 DUP3 ADD MLOAD DUP2 DUP5 ADD MSTORE PUSH1 0x20 DUP2 ADD SWAP1 POP PUSH2 0x404A JUMP JUMPDEST PUSH1 0x0 DUP5 DUP5 ADD MSTORE POP POP POP POP JUMP JUMPDEST PUSH1 0x0 PUSH1 0x1F NOT PUSH1 0x1F DUP4 ADD AND SWAP1 POP SWAP2 SWAP1 POP JUMP JUMPDEST PUSH1 0x0 PUSH2 0x408D DUP3 PUSH2 0x402B JUMP JUMPDEST PUSH2 0x4097 DUP2 DUP6 PUSH2 0x4036 JUMP JUMPDEST SWAP4 POP PUSH2 0x40A7 DUP2 DUP6 PUSH1 0x20 DUP7 ADD PUSH2 0x4047 JUMP JUMPDEST PUSH2 0x40B0 DUP2 PUSH2 0x4071 JUMP JUMPDEST DUP5 ADD SWAP2 POP POP SWAP3 SWAP2 POP POP JUMP JUMPDEST PUSH1 0x0 PUSH1 0x20 DUP3 ADD SWAP1 POP DUP2 DUP2 SUB PUSH1 0x0 DUP4 ADD MSTORE PUSH2 0x40D5 DUP2 DUP5 PUSH2 0x4082 JUMP JUMPDEST SWAP1 POP SWAP3 SWAP2 POP POP JUMP JUMPDEST PUSH2 0x40E6 DUP2 PUSH2 0x3F2B JUMP JUMPDEST DUP2 EQ PUSH2 0x40F1 JUMPI PUSH1 0x0 DUP1 REVERT JUMPDEST POP JUMP JUMPDEST PUSH1 0x0 DUP2 CALLDATALOAD SWAP1 POP PUSH2 0x4103 DUP2 PUSH2 0x40DD JUMP JUMPDEST SWAP3 SWAP2 POP POP JUMP JUMPDEST PUSH1 0x0 DUP1 PUSH1 0x40 DUP4 DUP6 SUB SLT ISZERO PUSH2 0x4120 JUMPI PUSH2 0x411F PUSH2 0x3E6A JUMP JUMPDEST JUMPDEST PUSH1 0x0 PUSH2 0x412E DUP6 DUP3 DUP7 ADD PUSH2 0x3EBD JUMP JUMPDEST SWAP3 POP POP PUSH1 0x20 PUSH2 0x413F DUP6 DUP3 DUP7 ADD PUSH2 0x40F4 JUMP JUMPDEST SWAP2 POP POP SWAP3 POP SWAP3 SWAP1 POP JUMP JUMPDEST PUSH1 0x0 DUP2 ISZERO ISZERO SWAP1 POP SWAP2 SWAP1 POP JUMP JUMPDEST PUSH2 0x415E DUP2 PUSH2 0x4149 JUMP JUMPDEST DUP3 MSTORE POP POP JUMP JUMPDEST PUSH1 0x0 PUSH1 0x20 DUP3 ADD SWAP1 POP PUSH2 0x4179 PUSH1 0x0 DUP4 ADD DUP5 PUSH2 0x4155 JUMP JUMPDEST SWAP3 SWAP2 POP POP JUMP JUMPDEST PUSH1 0x0 DUP1 REVERT JUMPDEST PUSH1 0x0 DUP1 REVERT JUMPDEST PUSH32 0x4E487B7100000000000000000000000000000000000000000000000000000000 PUSH1 0x0 MSTORE PUSH1 0x41 PUSH1 0x4 MSTORE PUSH1 0x24 PUSH1 0x0 REVERT JUMPDEST PUSH2 0x41C1 DUP3 PUSH2 0x4071 JUMP JUMPDEST DUP2 ADD DUP2 DUP2 LT PUSH8 0xFFFFFFFFFFFFFFFF DUP3 GT OR ISZERO PUSH2 0x41E0 JUMPI PUSH2 0x41DF PUSH2 0x4189 JUMP JUMPDEST JUMPDEST DUP1 PUSH1 0x40 MSTORE POP POP POP JUMP JUMPDEST PUSH1 0x0 PUSH2 0x41F3 PUSH2 0x3E60 JUMP JUMPDEST SWAP1 POP PUSH2 0x41FF DUP3 DUP3 PUSH2 0x41B8 JUMP JUMPDEST SWAP2 SWAP1 POP JUMP JUMPDEST PUSH1 0x0 PUSH8 0xFFFFFFFFFFFFFFFF DUP3 GT ISZERO PUSH2 0x421F JUMPI PUSH2 0x421E PUSH2 0x4189 JUMP JUMPDEST JUMPDEST PUSH2 0x4228 DUP3 PUSH2 0x4071 JUMP JUMPDEST SWAP1 POP PUSH1 0x20 DUP2 ADD SWAP1 POP SWAP2 SWAP1 POP JUMP JUMPDEST DUP3 DUP2 DUP4 CALLDATACOPY PUSH1 0x0 DUP4 DUP4 ADD MSTORE POP POP POP JUMP JUMPDEST PUSH1 0x0 PUSH2 0x4257 PUSH2 0x4252 DUP5 PUSH2 0x4204 JUMP JUMPDEST PUSH2 0x41E9 JUMP JUMPDEST SWAP1 POP DUP3 DUP2 MSTORE PUSH1 0x20 DUP2 ADD DUP5 DUP5 DUP5 ADD GT ISZERO PUSH2 0x4273 JUMPI PUSH2 0x4272 PUSH2 0x4184 JUMP JUMPDEST JUMPDEST PUSH2 0x427E DUP5 DUP3 DUP6 PUSH2 0x4235 JUMP JUMPDEST POP SWAP4 SWAP3 POP POP POP JUMP JUMPDEST PUSH1 0x0 DUP3 PUSH1 0x1F DUP4 ADD SLT PUSH2 0x429B JUMPI PUSH2 0x429A PUSH2 0x417F JUMP JUMPDEST JUMPDEST DUP2 CALLDATALOAD PUSH2 0x42AB DUP5 DUP3 PUSH1 0x20 DUP7 ADD PUSH2 0x4244 JUMP JUMPDEST SWAP2 POP POP SWAP3 SWAP2 POP POP JUMP JUMPDEST PUSH1 0x0 DUP1 PUSH1 0x40 DUP4 DUP6 SUB SLT ISZERO PUSH2 0x42CB JUMPI PUSH2 0x42CA PUSH2 0x3E6A JUMP JUMPDEST JUMPDEST PUSH1 0x0 DUP4 ADD CALLDATALOAD PUSH8 0xFFFFFFFFFFFFFFFF DUP2 GT ISZERO PUSH2 0x42E9 JUMPI PUSH2 0x42E8 PUSH2 0x3E6F JUMP JUMPDEST JUMPDEST PUSH2 0x42F5 DUP6 DUP3 DUP7 ADD PUSH2 0x4286 JUMP JUMPDEST SWAP3 POP POP PUSH1 0x20 DUP4 ADD CALLDATALOAD PUSH8 0xFFFFFFFFFFFFFFFF DUP2 GT ISZERO PUSH2 0x4316 JUMPI PUSH2 0x4315 PUSH2 0x3E6F JUMP JUMPDEST JUMPDEST PUSH2 0x4322 DUP6 DUP3 DUP7 ADD PUSH2 0x4286 JUMP JUMPDEST SWAP2 POP POP SWAP3 POP SWAP3 SWAP1 POP JUMP JUMPDEST PUSH2 0x4335 DUP2 PUSH2 0x3F2B JUMP JUMPDEST DUP3 MSTORE POP POP JUMP JUMPDEST PUSH1 0x0 PUSH1 0x20 DUP3 ADD SWAP1 POP PUSH2 0x4350 PUSH1 0x0 DUP4 ADD DUP5 PUSH2 0x432C JUMP JUMPDEST SWAP3 SWAP2 POP POP JUMP JUMPDEST PUSH1 0x0 DUP1 PUSH1 0x0 PUSH1 0x60 DUP5 DUP7 SUB SLT ISZERO PUSH2 0x436F JUMPI PUSH2 0x436E PUSH2 0x3E6A JUMP JUMPDEST JUMPDEST PUSH1 0x0 PUSH2 0x437D DUP7 DUP3 DUP8 ADD PUSH2 0x3EBD JUMP JUMPDEST SWAP4 POP POP PUSH1 0x20 PUSH2 0x438E DUP7 DUP3 DUP8 ADD PUSH2 0x3EBD JUMP JUMPDEST SWAP3 POP POP PUSH1 0x40 PUSH2 0x439F DUP7 DUP3 DUP8 ADD PUSH2 0x40F4 JUMP JUMPDEST SWAP2 POP POP SWAP3 POP SWAP3 POP SWAP3 JUMP JUMPDEST PUSH1 0x0 PUSH1 0xFF DUP3 AND SWAP1 POP SWAP2 SWAP1 POP JUMP JUMPDEST PUSH2 0x43BF DUP2 PUSH2 0x43A9 JUMP JUMPDEST DUP3 MSTORE POP POP JUMP JUMPDEST PUSH1 0x0 PUSH1 0x20 DUP3 ADD SWAP1 POP PUSH2 0x43DA PUSH1 0x0 DUP4 ADD DUP5 PUSH2 0x43B6 JUMP JUMPDEST SWAP3 SWAP2 POP POP JUMP JUMPDEST PUSH2 0x43E9 DUP2 PUSH2 0x3E94 JUMP JUMPDEST DUP3 MSTORE POP POP JUMP JUMPDEST PUSH1 0x0 PUSH1 0x20 DUP3 ADD SWAP1 POP PUSH2 0x4404 PUSH1 0x0 DUP4 ADD DUP5 PUSH2 0x43E0 JUMP JUMPDEST SWAP3 SWAP2 POP POP JUMP JUMPDEST PUSH1 0x0 DUP1 PUSH1 0x0 PUSH1 0x60 DUP5 DUP7 SUB SLT ISZERO PUSH2 0x4423 JUMPI PUSH2 0x4422 PUSH2 0x3E6A JUMP JUMPDEST JUMPDEST PUSH1 0x0 PUSH2 0x4431 DUP7 DUP3 DUP8 ADD PUSH2 0x3EBD JUMP JUMPDEST SWAP4 POP POP PUSH1 0x20 PUSH2 0x4442 DUP7 DUP3 DUP8 ADD PUSH2 0x3EBD JUMP JUMPDEST SWAP3 POP POP PUSH1 0x40 PUSH2 0x4453 DUP7 DUP3 DUP8 ADD PUSH2 0x3EBD JUMP JUMPDEST SWAP2 POP POP SWAP3 POP SWAP3 POP SWAP3 JUMP JUMPDEST PUSH1 0x0 PUSH1 0x20 DUP3 DUP5 SUB SLT ISZERO PUSH2 0x4473 JUMPI PUSH2 0x4472 PUSH2 0x3E6A JUMP JUMPDEST JUMPDEST PUSH1 0x0 PUSH2 0x4481 DUP5 DUP3 DUP6 ADD PUSH2 0x40F4 JUMP JUMPDEST SWAP2 POP POP SWAP3 SWAP2 POP POP JUMP JUMPDEST PUSH1 0x0 DUP1 PUSH1 0x40 DUP4 DUP6 SUB SLT ISZERO PUSH2 0x44A1 JUMPI PUSH2 0x44A0 PUSH2 0x3E6A JUMP JUMPDEST JUMPDEST PUSH1 0x0 PUSH2 0x44AF DUP6 DUP3 DUP7 ADD PUSH2 0x3EBD JUMP JUMPDEST SWAP3 POP POP PUSH1 0x20 PUSH2 0x44C0 DUP6 DUP3 DUP7 ADD PUSH2 0x3EBD JUMP JUMPDEST SWAP2 POP POP SWAP3 POP SWAP3 SWAP1 POP JUMP JUMPDEST PUSH1 0x0 DUP1 PUSH1 0x40 DUP4 DUP6 SUB SLT ISZERO PUSH2 0x44E1 JUMPI PUSH2 0x44E0 PUSH2 0x3E6A JUMP JUMPDEST JUMPDEST PUSH1 0x0 PUSH2 0x44EF DUP6 DUP3 DUP7 ADD PUSH2 0x40F4 JUMP JUMPDEST SWAP3 POP POP PUSH1 0x20 PUSH2 0x4500 DUP6 DUP3 DUP7 ADD PUSH2 0x40F4 JUMP JUMPDEST SWAP2 POP POP SWAP3 POP SWAP3 SWAP1 POP JUMP JUMPDEST PUSH1 0x0 DUP1 PUSH1 0x0 DUP1 PUSH1 0x80 DUP6 DUP8 SUB SLT ISZERO PUSH2 0x4524 JUMPI PUSH2 0x4523 PUSH2 0x3E6A JUMP JUMPDEST JUMPDEST PUSH1 0x0 PUSH2 0x4532 DUP8 DUP3 DUP9 ADD PUSH2 0x3EBD JUMP JUMPDEST SWAP5 POP POP PUSH1 0x20 PUSH2 0x4543 DUP8 DUP3 DUP9 ADD PUSH2 0x40F4 JUMP JUMPDEST SWAP4 POP POP PUSH1 0x40 PUSH2 0x4554 DUP8 DUP3 DUP9 ADD PUSH2 0x40F4 JUMP JUMPDEST SWAP3 POP POP PUSH1 0x60 PUSH2 0x4565 DUP8 DUP3 DUP9 ADD PUSH2 0x40F4 JUMP JUMPDEST SWAP2 POP POP SWAP3 SWAP6 SWAP2 SWAP5 POP SWAP3 POP JUMP JUMPDEST PUSH1 0x0 DUP1 PUSH1 0x0 DUP1 PUSH1 0x80 DUP6 DUP8 SUB SLT ISZERO PUSH2 0x458B JUMPI PUSH2 0x458A PUSH2 0x3E6A JUMP JUMPDEST JUMPDEST PUSH1 0x0 PUSH2 0x4599 DUP8 DUP3 DUP9 ADD PUSH2 0x3EBD JUMP JUMPDEST SWAP5 POP POP PUSH1 0x20 PUSH2 0x45AA DUP8 DUP3 DUP9 ADD PUSH2 0x3EBD JUMP JUMPDEST SWAP4 POP POP PUSH1 0x40 PUSH2 0x45BB DUP8 DUP3 DUP9 ADD PUSH2 0x40F4 JUMP JUMPDEST SWAP3 POP POP PUSH1 0x60 PUSH2 0x45CC DUP8 DUP3 DUP9 ADD PUSH2 0x40F4 JUMP JUMPDEST SWAP2 POP POP SWAP3 SWAP6 SWAP2 SWAP5 POP SWAP3 POP JUMP JUMPDEST PUSH32 0x4E487B7100000000000000000000000000000000000000000000000000000000 PUSH1 0x0 MSTORE PUSH1 0x22 PUSH1 0x4 MSTORE PUSH1 0x24 PUSH1 0x0 REVERT JUMPDEST PUSH1 0x0 PUSH1 0x2 DUP3 DIV SWAP1 POP PUSH1 0x1 DUP3 AND DUP1 PUSH2 0x461F JUMPI PUSH1 0x7F DUP3 AND SWAP2 POP JUMPDEST PUSH1 0x20 DUP3 LT DUP2 SUB PUSH2 0x4632 JUMPI PUSH2 0x4631 PUSH2 0x45D8 JUMP JUMPDEST JUMPDEST POP SWAP2 SWAP1 POP JUMP JUMPDEST PUSH1 0x0 DUP2 SWAP1 POP DUP2 PUSH1 0x0 MSTORE PUSH1 0x20 PUSH1 0x0 KECCAK256 SWAP1 POP SWAP2 SWAP1 POP JUMP JUMPDEST PUSH1 0x0 PUSH1 0x20 PUSH1 0x1F DUP4 ADD DIV SWAP1 POP SWAP2 SWAP1 POP JUMP JUMPDEST PUSH1 0x0 DUP3 DUP3 SHL SWAP1 POP SWAP3 SWAP2 POP POP JUMP JUMPDEST PUSH1 0x0 PUSH1 0x8 DUP4 MUL PUSH2 0x469A PUSH32 0xFFFFFFFFFFFFFFFFFFFFFFFFFFFFFFFFFFFFFFFFFFFFFFFFFFFFFFFFFFFFFFFF DUP3 PUSH2 0x465D JUMP JUMPDEST PUSH2 0x46A4 DUP7 DUP4 PUSH2 0x465D JUMP JUMPDEST SWAP6 POP DUP1 NOT DUP5 AND SWAP4 POP DUP1 DUP7 AND DUP5 OR SWAP3 POP POP POP SWAP4 SWAP3 POP POP POP JUMP JUMPDEST PUSH1 0x0 DUP2 SWAP1 POP SWAP2 SWAP1 POP JUMP JUMPDEST PUSH1 0x0 PUSH2 0x46E1 PUSH2 0x46DC PUSH2 0x46D7 DUP5 PUSH2 0x3F2B JUMP JUMPDEST PUSH2 0x46BC JUMP JUMPDEST PUSH2 0x3F2B JUMP JUMPDEST SWAP1 POP SWAP2 SWAP1 POP JUMP JUMPDEST PUSH1 0x0 DUP2 SWAP1 POP SWAP2 SWAP1 POP JUMP JUMPDEST PUSH2 0x46FB DUP4 PUSH2 0x46C6 JUMP JUMPDEST PUSH2 0x470F PUSH2 0x4707 DUP3 PUSH2 0x46E8 JUMP JUMPDEST DUP5 DUP5 SLOAD PUSH2 0x466A JUMP JUMPDEST DUP3 SSTORE POP POP POP POP JUMP JUMPDEST PUSH1 0x0 SWAP1 JUMP JUMPDEST PUSH2 0x4724 PUSH2 0x4717 JUMP JUMPDEST PUSH2 0x472F DUP2 DUP5 DUP5 PUSH2 0x46F2 JUMP JUMPDEST POP POP POP JUMP JUMPDEST JUMPDEST DUP2 DUP2 LT ISZERO PUSH2 0x4753 JUMPI PUSH2 0x4748 PUSH1 0x0 DUP3 PUSH2 0x471C JUMP JUMPDEST PUSH1 0x1 DUP2 ADD SWAP1 POP PUSH2 0x4735 JUMP JUMPDEST POP POP JUMP JUMPDEST PUSH1 0x1F DUP3 GT ISZERO PUSH2 0x4798 JUMPI PUSH2 0x4769 DUP2 PUSH2 0x4638 JUMP JUMPDEST PUSH2 0x4772 DUP5 PUSH2 0x464D JUMP JUMPDEST DUP2 ADD PUSH1 0x20 DUP6 LT ISZERO PUSH2 0x4781 JUMPI DUP2 SWAP1 POP JUMPDEST PUSH2 0x4795 PUSH2 0x478D DUP6 PUSH2 0x464D JUMP JUMPDEST DUP4 ADD DUP3 PUSH2 0x4734 JUMP JUMPDEST POP POP JUMPDEST POP POP POP JUMP JUMPDEST PUSH1 0x0 DUP3 DUP3 SHR SWAP1 POP SWAP3 SWAP2 POP POP JUMP JUMPDEST PUSH1 0x0 PUSH2 0x47BB PUSH1 0x0 NOT DUP5 PUSH1 0x8 MUL PUSH2 0x479D JUMP JUMPDEST NOT DUP1 DUP4 AND SWAP2 POP POP SWAP3 SWAP2 POP POP JUMP JUMPDEST PUSH1 0x0 PUSH2 0x47D4 DUP4 DUP4 PUSH2 0x47AA JUMP JUMPDEST SWAP2 POP DUP3 PUSH1 0x2 MUL DUP3 OR SWAP1 POP SWAP3 SWAP2 POP POP JUMP JUMPDEST PUSH2 0x47ED DUP3 PUSH2 0x402B JUMP JUMPDEST PUSH8 0xFFFFFFFFFFFFFFFF DUP2 GT ISZERO PUSH2 0x4806 JUMPI PUSH2 0x4805 PUSH2 0x4189 JUMP JUMPDEST JUMPDEST PUSH2 0x4810 DUP3 SLOAD PUSH2 0x4607 JUMP JUMPDEST PUSH2 0x481B DUP3 DUP3 DUP6 PUSH2 0x4757 JUMP JUMPDEST PUSH1 0x0 PUSH1 0x20 SWAP1 POP PUSH1 0x1F DUP4 GT PUSH1 0x1 DUP2 EQ PUSH2 0x484E JUMPI PUSH1 0x0 DUP5 ISZERO PUSH2 0x483C JUMPI DUP3 DUP8 ADD MLOAD SWAP1 POP JUMPDEST PUSH2 0x4846 DUP6 DUP3 PUSH2 0x47C8 JUMP JUMPDEST DUP7 SSTORE POP PUSH2 0x48AE JUMP JUMPDEST PUSH1 0x1F NOT DUP5 AND PUSH2 0x485C DUP7 PUSH2 0x4638 JUMP JUMPDEST PUSH1 0x0 JUMPDEST DUP3 DUP2 LT ISZERO PUSH2 0x4884 JUMPI DUP5 DUP10 ADD MLOAD DUP3 SSTORE PUSH1 0x1 DUP3 ADD SWAP2 POP PUSH1 0x20 DUP6 ADD SWAP5 POP PUSH1 0x20 DUP2 ADD SWAP1 POP PUSH2 0x485F JUMP JUMPDEST DUP7 DUP4 LT ISZERO PUSH2 0x48A1 JUMPI DUP5 DUP10 ADD MLOAD PUSH2 0x489D PUSH1 0x1F DUP10 AND DUP3 PUSH2 0x47AA JUMP JUMPDEST DUP4 SSTORE POP JUMPDEST PUSH1 0x1 PUSH1 0x2 DUP9 MUL ADD DUP9 SSTORE POP POP POP JUMPDEST POP POP POP POP POP POP JUMP JUMPDEST PUSH32 0x546F6B656E207761736E27742066756C6C7920696E697469616C697A65642E00 PUSH1 0x0 DUP3 ADD MSTORE POP JUMP JUMPDEST PUSH1 0x0 PUSH2 0x48EC PUSH1 0x1F DUP4 PUSH2 0x4036 JUMP JUMPDEST SWAP2 POP PUSH2 0x48F7 DUP3 PUSH2 0x48B6 JUMP JUMPDEST PUSH1 0x20 DUP3 ADD SWAP1 POP SWAP2 SWAP1 POP JUMP JUMPDEST PUSH1 0x0 PUSH1 0x20 DUP3 ADD SWAP1 POP DUP2 DUP2 SUB PUSH1 0x0 DUP4 ADD MSTORE PUSH2 0x491B DUP2 PUSH2 0x48DF JUMP JUMPDEST SWAP1 POP SWAP2 SWAP1 POP JUMP JUMPDEST PUSH1 0x0 PUSH6 0xFFFFFFFFFFFF DUP3 AND SWAP1 POP SWAP2 SWAP1 POP JUMP JUMPDEST PUSH2 0x493D DUP2 PUSH2 0x4922 JUMP JUMPDEST DUP3 MSTORE POP POP JUMP JUMPDEST PUSH1 0x0 PUSH1 0x40 DUP3 ADD SWAP1 POP PUSH2 0x4958 PUSH1 0x0 DUP4 ADD DUP6 PUSH2 0x43E0 JUMP JUMPDEST PUSH2 0x4965 PUSH1 0x20 DUP4 ADD DUP5 PUSH2 0x4934 JUMP JUMPDEST SWAP4 SWAP3 POP POP POP JUMP JUMPDEST PUSH2 0x4975 DUP2 PUSH2 0x4149 JUMP JUMPDEST DUP2 EQ PUSH2 0x4980 JUMPI PUSH1 0x0 DUP1 REVERT JUMPDEST POP JUMP JUMPDEST PUSH1 0x0 DUP2 MLOAD SWAP1 POP PUSH2 0x4992 DUP2 PUSH2 0x496C JUMP JUMPDEST SWAP3 SWAP2 POP POP JUMP JUMPDEST PUSH1 0x0 PUSH1 0x20 DUP3 DUP5 SUB SLT ISZERO PUSH2 0x49AE JUMPI PUSH2 0x49AD PUSH2 0x3E6A JUMP JUMPDEST JUMPDEST PUSH1 0x0 PUSH2 0x49BC DUP5 DUP3 DUP6 ADD PUSH2 0x4983 JUMP JUMPDEST SWAP2 POP POP SWAP3 SWAP2 POP POP JUMP JUMPDEST PUSH32 0x506C6174666F726D206E6F7420617070726F7665642E00000000000000000000 PUSH1 0x0 DUP3 ADD MSTORE POP JUMP JUMPDEST PUSH1 0x0 PUSH2 0x49FB PUSH1 0x16 DUP4 PUSH2 0x4036 JUMP JUMPDEST SWAP2 POP PUSH2 0x4A06 DUP3 PUSH2 0x49C5 JUMP JUMPDEST PUSH1 0x20 DUP3 ADD SWAP1 POP SWAP2 SWAP1 POP JUMP JUMPDEST PUSH1 0x0 PUSH1 0x20 DUP3 ADD SWAP1 POP DUP2 DUP2 SUB PUSH1 0x0 DUP4 ADD MSTORE PUSH2 0x4A2A DUP2 PUSH2 0x49EE JUMP JUMPDEST SWAP1 POP SWAP2 SWAP1 POP JUMP JUMPDEST PUSH32 0x506C6174666F726D2069736E277420726567697374657265642E000000000000 PUSH1 0x0 DUP3 ADD MSTORE POP JUMP JUMPDEST PUSH1 0x0 PUSH2 0x4A67 PUSH1 0x1A DUP4 PUSH2 0x4036 JUMP JUMPDEST SWAP2 POP PUSH2 0x4A72 DUP3 PUSH2 0x4A31 JUMP JUMPDEST PUSH1 0x20 DUP3 ADD SWAP1 POP SWAP2 SWAP1 POP JUMP JUMPDEST PUSH1 0x0 PUSH1 0x20 DUP3 ADD SWAP1 POP DUP2 DUP2 SUB PUSH1 0x0 DUP4 ADD MSTORE PUSH2 0x4A96 DUP2 PUSH2 0x4A5A JUMP JUMPDEST SWAP1 POP SWAP2 SWAP1 POP JUMP JUMPDEST PUSH1 0x0 DUP1 REVERT JUMPDEST PUSH1 0x0 PUSH2 0x4AAD DUP3 PUSH2 0x3E74 JUMP JUMPDEST SWAP1 POP SWAP2 SWAP1 POP JUMP JUMPDEST PUSH2 0x4ABD DUP2 PUSH2 0x4AA2 JUMP JUMPDEST DUP2 EQ PUSH2 0x4AC8 JUMPI PUSH1 0x0 DUP1 REVERT JUMPDEST POP JUMP JUMPDEST PUSH1 0x0 DUP2 MLOAD SWAP1 POP PUSH2 0x4ADA DUP2 PUSH2 0x4AB4 JUMP JUMPDEST SWAP3 SWAP2 POP POP JUMP JUMPDEST PUSH1 0x0 DUP2 MLOAD SWAP1 POP PUSH2 0x4AEF DUP2 PUSH2 0x40DD JUMP JUMPDEST SWAP3 SWAP2 POP POP JUMP JUMPDEST PUSH1 0x0 PUSH1 0xC0 DUP3 DUP5 SUB SLT ISZERO PUSH2 0x4B0B JUMPI PUSH2 0x4B0A PUSH2 0x4A9D JUMP JUMPDEST JUMPDEST PUSH2 0x4B15 PUSH1 0xC0 PUSH2 0x41E9 JUMP JUMPDEST SWAP1 POP PUSH1 0x0 PUSH2 0x4B25 DUP5 DUP3 DUP6 ADD PUSH2 0x4ACB JUMP JUMPDEST PUSH1 0x0 DUP4 ADD MSTORE POP PUSH1 0x20 PUSH2 0x4B39 DUP5 DUP3 DUP6 ADD PUSH2 0x4ACB JUMP JUMPDEST PUSH1 0x20 DUP4 ADD MSTORE POP PUSH1 0x40 PUSH2 0x4B4D DUP5 DUP3 DUP6 ADD PUSH2 0x4AE0 JUMP JUMPDEST PUSH1 0x40 DUP4 ADD MSTORE POP PUSH1 0x60 PUSH2 0x4B61 DUP5 DUP3 DUP6 ADD PUSH2 0x4AE0 JUMP JUMPDEST PUSH1 0x60 DUP4 ADD MSTORE POP PUSH1 0x80 PUSH2 0x4B75 DUP5 DUP3 DUP6 ADD PUSH2 0x4AE0 JUMP JUMPDEST PUSH1 0x80 DUP4 ADD MSTORE POP PUSH1 0xA0 PUSH2 0x4B89 DUP5 DUP3 DUP6 ADD PUSH2 0x4983 JUMP JUMPDEST PUSH1 0xA0 DUP4 ADD MSTORE POP SWAP3 SWAP2 POP POP JUMP JUMPDEST PUSH1 0x0 PUSH1 0xC0 DUP3 DUP5 SUB SLT ISZERO PUSH2 0x4BAB JUMPI PUSH2 0x4BAA PUSH2 0x3E6A JUMP JUMPDEST JUMPDEST PUSH1 0x0 PUSH2 0x4BB9 DUP5 DUP3 DUP6 ADD PUSH2 0x4AF5 JUMP JUMPDEST SWAP2 POP POP SWAP3 SWAP2 POP POP JUMP JUMPDEST PUSH32 0x4E6F207375636820626F6E647300000000000000000000000000000000000000 PUSH1 0x0 DUP3 ADD MSTORE POP JUMP JUMPDEST PUSH1 0x0 PUSH2 0x4BF8 PUSH1 0xD DUP4 PUSH2 0x4036 JUMP JUMPDEST SWAP2 POP PUSH2 0x4C03 DUP3 PUSH2 0x4BC2 JUMP JUMPDEST PUSH1 0x20 DUP3 ADD SWAP1 POP SWAP2 SWAP1 POP JUMP JUMPDEST PUSH1 0x0 PUSH1 0x20 DUP3 ADD SWAP1 POP DUP2 DUP2 SUB PUSH1 0x0 DUP4 ADD MSTORE PUSH2 0x4C27 DUP2 PUSH2 0x4BEB JUMP JUMPDEST SWAP1 POP SWAP2 SWAP1 POP JUMP JUMPDEST PUSH32 0x4E487B7100000000000000000000000000000000000000000000000000000000 PUSH1 0x0 MSTORE PUSH1 0x11 PUSH1 0x4 MSTORE PUSH1 0x24 PUSH1 0x0 REVERT JUMPDEST PUSH1 0x0 PUSH2 0x4C68 DUP3 PUSH2 0x3F2B JUMP JUMPDEST SWAP2 POP PUSH2 0x4C73 DUP4 PUSH2 0x3F2B JUMP JUMPDEST SWAP3 POP DUP3 DUP3 SUB SWAP1 POP DUP2 DUP2 GT ISZERO PUSH2 0x4C8B JUMPI PUSH2 0x4C8A PUSH2 0x4C2E JUMP JUMPDEST JUMPDEST SWAP3 SWAP2 POP POP JUMP JUMPDEST PUSH32 0x4E487B7100000000000000000000000000000000000000000000000000000000 PUSH1 0x0 MSTORE PUSH1 0x32 PUSH1 0x4 MSTORE PUSH1 0x24 PUSH1 0x0 REVERT JUMPDEST PUSH32 0x536F6D657468696E6720766572792057726F6E67000000000000000000000000 PUSH1 0x0 DUP3 ADD MSTORE POP JUMP JUMPDEST PUSH1 0x0 PUSH2 0x4CF6 PUSH1 0x14 DUP4 PUSH2 0x4036 JUMP JUMPDEST SWAP2 POP PUSH2 0x4D01 DUP3 PUSH2 0x4CC0 JUMP JUMPDEST PUSH1 0x20 DUP3 ADD SWAP1 POP SWAP2 SWAP1 POP JUMP JUMPDEST PUSH1 0x0 PUSH1 0x20 DUP3 ADD SWAP1 POP DUP2 DUP2 SUB PUSH1 0x0 DUP4 ADD MSTORE PUSH2 0x4D25 DUP2 PUSH2 0x4CE9 JUMP JUMPDEST SWAP1 POP SWAP2 SWAP1 POP JUMP JUMPDEST PUSH32 0x536F6D657468696E6720766572792057726F6E67202D2077726F6E6720626F6E PUSH1 0x0 DUP3 ADD MSTORE PUSH32 0x6400000000000000000000000000000000000000000000000000000000000000 PUSH1 0x20 DUP3 ADD MSTORE POP JUMP JUMPDEST PUSH1 0x0 PUSH2 0x4D88 PUSH1 0x21 DUP4 PUSH2 0x4036 JUMP JUMPDEST SWAP2 POP PUSH2 0x4D93 DUP3 PUSH2 0x4D2C JUMP JUMPDEST PUSH1 0x40 DUP3 ADD SWAP1 POP SWAP2 SWAP1 POP JUMP JUMPDEST PUSH1 0x0 PUSH1 0x20 DUP3 ADD SWAP1 POP DUP2 DUP2 SUB PUSH1 0x0 DUP4 ADD MSTORE PUSH2 0x4DB7 DUP2 PUSH2 0x4D7B JUMP JUMPDEST SWAP1 POP SWAP2 SWAP1 POP JUMP JUMPDEST PUSH32 0x536F6D657468696E6720766572792057726F6E67202D20736F6D656F6E65656C PUSH1 0x0 DUP3 ADD MSTORE PUSH32 0x736573206F666665720000000000000000000000000000000000000000000000 PUSH1 0x20 DUP3 ADD MSTORE POP JUMP JUMPDEST PUSH1 0x0 PUSH2 0x4E1A PUSH1 0x29 DUP4 PUSH2 0x4036 JUMP JUMPDEST SWAP2 POP PUSH2 0x4E25 DUP3 PUSH2 0x4DBE JUMP JUMPDEST PUSH1 0x40 DUP3 ADD SWAP1 POP SWAP2 SWAP1 POP JUMP JUMPDEST PUSH1 0x0 PUSH1 0x20 DUP3 ADD SWAP1 POP DUP2 DUP2 SUB PUSH1 0x0 DUP4 ADD MSTORE PUSH2 0x4E49 DUP2 PUSH2 0x4E0D JUMP JUMPDEST SWAP1 POP SWAP2 SWAP1 POP JUMP JUMPDEST PUSH32 0x4E6F74206120686F6C6465720000000000000000000000000000000000000000 PUSH1 0x0 DUP3 ADD MSTORE POP JUMP JUMPDEST PUSH1 0x0 PUSH2 0x4E86 PUSH1 0xC DUP4 PUSH2 0x4036 JUMP JUMPDEST SWAP2 POP PUSH2 0x4E91 DUP3 PUSH2 0x4E50 JUMP JUMPDEST PUSH1 0x20 DUP3 ADD SWAP1 POP SWAP2 SWAP1 POP JUMP JUMPDEST PUSH1 0x0 PUSH1 0x20 DUP3 ADD SWAP1 POP DUP2 DUP2 SUB PUSH1 0x0 DUP4 ADD MSTORE PUSH2 0x4EB5 DUP2 PUSH2 0x4E79 JUMP JUMPDEST SWAP1 POP SWAP2 SWAP1 POP JUMP JUMPDEST PUSH1 0x0 PUSH2 0x4EC7 DUP3 PUSH2 0x3F2B JUMP JUMPDEST SWAP2 POP PUSH2 0x4ED2 DUP4 PUSH2 0x3F2B JUMP JUMPDEST SWAP3 POP DUP3 DUP3 MUL PUSH2 0x4EE0 DUP2 PUSH2 0x3F2B JUMP JUMPDEST SWAP2 POP DUP3 DUP3 DIV DUP5 EQ DUP4 ISZERO OR PUSH2 0x4EF7 JUMPI PUSH2 0x4EF6 PUSH2 0x4C2E JUMP JUMPDEST JUMPDEST POP SWAP3 SWAP2 POP POP JUMP JUMPDEST PUSH1 0x0 PUSH1 0x20 DUP3 DUP5 SUB SLT ISZERO PUSH2 0x4F14 JUMPI PUSH2 0x4F13 PUSH2 0x3E6A JUMP JUMPDEST JUMPDEST PUSH1 0x0 PUSH2 0x4F22 DUP5 DUP3 DUP6 ADD PUSH2 0x4AE0 JUMP JUMPDEST SWAP2 POP POP SWAP3 SWAP2 POP POP JUMP JUMPDEST PUSH1 0x0 PUSH2 0x4F36 DUP3 PUSH2 0x3F2B JUMP JUMPDEST SWAP2 POP PUSH2 0x4F41 DUP4 PUSH2 0x3F2B JUMP JUMPDEST SWAP3 POP DUP3 DUP3 ADD SWAP1 POP DUP1 DUP3 GT ISZERO PUSH2 0x4F59 JUMPI PUSH2 0x4F58 PUSH2 0x4C2E JUMP JUMPDEST JUMPDEST SWAP3 SWAP2 POP POP JUMP JUMPDEST PUSH1 0x0 PUSH2 0x4F6A DUP3 PUSH2 0x3F2B JUMP JUMPDEST SWAP2 POP PUSH32 0xFFFFFFFFFFFFFFFFFFFFFFFFFFFFFFFFFFFFFFFFFFFFFFFFFFFFFFFFFFFFFFFF DUP3 SUB PUSH2 0x4F9C JUMPI PUSH2 0x4F9B PUSH2 0x4C2E JUMP JUMPDEST JUMPDEST PUSH1 0x1 DUP3 ADD SWAP1 POP SWAP2 SWAP1 POP JUMP JUMPDEST PUSH1 0x0 PUSH1 0x60 DUP3 ADD SWAP1 POP PUSH2 0x4FBC PUSH1 0x0 DUP4 ADD DUP7 PUSH2 0x43E0 JUMP JUMPDEST PUSH2 0x4FC9 PUSH1 0x20 DUP4 ADD DUP6 PUSH2 0x43E0 JUMP JUMPDEST PUSH2 0x4FD6 PUSH1 0x40 DUP4 ADD DUP5 PUSH2 0x432C JUMP JUMPDEST SWAP5 SWAP4 POP POP POP POP JUMP JUMPDEST PUSH32 0x506C6174666F726D206E6F7420726567697374657265642E0000000000000000 PUSH1 0x0 DUP3 ADD MSTORE POP JUMP JUMPDEST PUSH1 0x0 PUSH2 0x5014 PUSH1 0x18 DUP4 PUSH2 0x4036 JUMP JUMPDEST SWAP2 POP PUSH2 0x501F DUP3 PUSH2 0x4FDE JUMP JUMPDEST PUSH1 0x20 DUP3 ADD SWAP1 POP SWAP2 SWAP1 POP JUMP JUMPDEST PUSH1 0x0 PUSH1 0x20 DUP3 ADD SWAP1 POP DUP2 DUP2 SUB PUSH1 0x0 DUP4 ADD MSTORE PUSH2 0x5043 DUP2 PUSH2 0x5007 JUMP JUMPDEST SWAP1 POP SWAP2 SWAP1 POP JUMP JUMPDEST PUSH2 0x5053 DUP2 PUSH2 0x43A9 JUMP JUMPDEST DUP2 EQ PUSH2 0x505E JUMPI PUSH1 0x0 DUP1 REVERT JUMPDEST POP JUMP JUMPDEST PUSH1 0x0 DUP2 MLOAD SWAP1 POP PUSH2 0x5070 DUP2 PUSH2 0x504A JUMP JUMPDEST SWAP3 SWAP2 POP POP JUMP JUMPDEST PUSH1 0x0 PUSH1 0x20 DUP3 DUP5 SUB SLT ISZERO PUSH2 0x508C JUMPI PUSH2 0x508B PUSH2 0x3E6A JUMP JUMPDEST JUMPDEST PUSH1 0x0 PUSH2 0x509A DUP5 DUP3 DUP6 ADD PUSH2 0x5061 JUMP JUMPDEST SWAP2 POP POP SWAP3 SWAP2 POP POP JUMP JUMPDEST PUSH32 0x546865206E756D626572206F6620626F6E64732073686F756C64206265206772 PUSH1 0x0 DUP3 ADD MSTORE PUSH32 0x6561746572207468616E20302E00000000000000000000000000000000000000 PUSH1 0x20 DUP3 ADD MSTORE POP JUMP JUMPDEST PUSH1 0x0 PUSH2 0x50FF PUSH1 0x2D DUP4 PUSH2 0x4036 JUMP JUMPDEST SWAP2 POP PUSH2 0x510A DUP3 PUSH2 0x50A3 JUMP JUMPDEST PUSH1 0x40 DUP3 ADD SWAP1 POP SWAP2 SWAP1 POP JUMP JUMPDEST PUSH1 0x0 PUSH1 0x20 DUP3 ADD SWAP1 POP DUP2 DUP2 SUB PUSH1 0x0 DUP4 ADD MSTORE PUSH2 0x512E DUP2 PUSH2 0x50F2 JUMP JUMPDEST SWAP1 POP SWAP2 SWAP1 POP JUMP JUMPDEST PUSH32 0x5468652062757965722069736E277420646566696E656420617320616E206170 PUSH1 0x0 DUP3 ADD MSTORE PUSH32 0x70726F76656420617373657420686F6C6465722E000000000000000000000000 PUSH1 0x20 DUP3 ADD MSTORE POP JUMP JUMPDEST PUSH1 0x0 PUSH2 0x5191 PUSH1 0x34 DUP4 PUSH2 0x4036 JUMP JUMPDEST SWAP2 POP PUSH2 0x519C DUP3 PUSH2 0x5135 JUMP JUMPDEST PUSH1 0x40 DUP3 ADD SWAP1 POP SWAP2 SWAP1 POP JUMP JUMPDEST PUSH1 0x0 PUSH1 0x20 DUP3 ADD SWAP1 POP DUP2 DUP2 SUB PUSH1 0x0 DUP4 ADD MSTORE PUSH2 0x51C0 DUP2 PUSH2 0x5184 JUMP JUMPDEST SWAP1 POP SWAP2 SWAP1 POP JUMP JUMPDEST PUSH32 0x54686520746F74616C206E756D626572206F6620626F6E647320657863656564 PUSH1 0x0 DUP3 ADD MSTORE PUSH32 0x732074686520656E7469726520737570706C792076616C75652E000000000000 PUSH1 0x20 DUP3 ADD MSTORE POP JUMP JUMPDEST PUSH1 0x0 PUSH2 0x5223 PUSH1 0x3A DUP4 PUSH2 0x4036 JUMP JUMPDEST SWAP2 POP PUSH2 0x522E DUP3 PUSH2 0x51C7 JUMP JUMPDEST PUSH1 0x40 DUP3 ADD SWAP1 POP SWAP2 SWAP1 POP JUMP JUMPDEST PUSH1 0x0 PUSH1 0x20 DUP3 ADD SWAP1 POP DUP2 DUP2 SUB PUSH1 0x0 DUP4 ADD MSTORE PUSH2 0x5252 DUP2 PUSH2 0x5216 JUMP JUMPDEST SWAP1 POP SWAP2 SWAP1 POP JUMP JUMPDEST PUSH32 0x54686520627579657220646F65736E2774206861766520656E6F756768206D6F PUSH1 0x0 DUP3 ADD MSTORE PUSH32 0x6E657920696E207468656972206163636F756E742E0000000000000000000000 PUSH1 0x20 DUP3 ADD MSTORE POP JUMP JUMPDEST PUSH1 0x0 PUSH2 0x52B5 PUSH1 0x35 DUP4 PUSH2 0x4036 JUMP JUMPDEST SWAP2 POP PUSH2 0x52C0 DUP3 PUSH2 0x5259 JUMP JUMPDEST PUSH1 0x40 DUP3 ADD SWAP1 POP SWAP2 SWAP1 POP JUMP JUMPDEST PUSH1 0x0 PUSH1 0x20 DUP3 ADD SWAP1 POP DUP2 DUP2 SUB PUSH1 0x0 DUP4 ADD MSTORE PUSH2 0x52E4 DUP2 PUSH2 0x52A8 JUMP JUMPDEST SWAP1 POP SWAP2 SWAP1 POP JUMP JUMPDEST PUSH1 0x0 PUSH1 0x40 DUP3 ADD SWAP1 POP PUSH2 0x5300 PUSH1 0x0 DUP4 ADD DUP6 PUSH2 0x43E0 JUMP JUMPDEST PUSH2 0x530D PUSH1 0x20 DUP4 ADD DUP5 PUSH2 0x43E0 JUMP JUMPDEST SWAP4 SWAP3 POP POP POP JUMP JUMPDEST PUSH32 0x546865206163636F756E7420616C6C6F77616E636520666F7220746865207472 PUSH1 0x0 DUP3 ADD MSTORE PUSH32 0x6164652069732073657420746F6F206C6F772E00000000000000000000000000 PUSH1 0x20 DUP3 ADD MSTORE POP JUMP JUMPDEST PUSH1 0x0 PUSH2 0x5370 PUSH1 0x33 DUP4 PUSH2 0x4036 JUMP JUMPDEST SWAP2 POP PUSH2 0x537B DUP3 PUSH2 0x5314 JUMP JUMPDEST PUSH1 0x40 DUP3 ADD SWAP1 POP SWAP2 SWAP1 POP JUMP JUMPDEST PUSH1 0x0 PUSH1 0x20 DUP3 ADD SWAP1 POP DUP2 DUP2 SUB PUSH1 0x0 DUP4 ADD MSTORE PUSH2 0x539F DUP2 PUSH2 0x5363 JUMP JUMPDEST SWAP1 POP SWAP2 SWAP1 POP JUMP JUMPDEST PUSH32 0x54686520616D6F757420657863656564732074686520746F74616C2073757070 PUSH1 0x0 DUP3 ADD MSTORE PUSH32 0x6C6179206F662074686520617373657400000000000000000000000000000000 PUSH1 0x20 DUP3 ADD MSTORE POP JUMP JUMPDEST PUSH1 0x0 PUSH2 0x5402 PUSH1 0x30 DUP4 PUSH2 0x4036 JUMP JUMPDEST SWAP2 POP PUSH2 0x540D DUP3 PUSH2 0x53A6 JUMP JUMPDEST PUSH1 0x40 DUP3 ADD SWAP1 POP SWAP2 SWAP1 POP JUMP JUMPDEST PUSH1 0x0 PUSH1 0x20 DUP3 ADD SWAP1 POP DUP2 DUP2 SUB PUSH1 0x0 DUP4 ADD MSTORE PUSH2 0x5431 DUP2 PUSH2 0x53F5 JUMP JUMPDEST SWAP1 POP SWAP2 SWAP1 POP JUMP JUMPDEST PUSH32 0x416C6C6F77616E636520746F6F206C6F77000000000000000000000000000000 PUSH1 0x0 DUP3 ADD MSTORE POP JUMP JUMPDEST PUSH1 0x0 PUSH2 0x546E PUSH1 0x11 DUP4 PUSH2 0x4036 JUMP JUMPDEST SWAP2 POP PUSH2 0x5479 DUP3 PUSH2 0x5438 JUMP JUMPDEST PUSH1 0x20 DUP3 ADD SWAP1 POP SWAP2 SWAP1 POP JUMP JUMPDEST PUSH1 0x0 PUSH1 0x20 DUP3 ADD SWAP1 POP DUP2 DUP2 SUB PUSH1 0x0 DUP4 ADD MSTORE PUSH2 0x549D DUP2 PUSH2 0x5461 JUMP JUMPDEST SWAP1 POP SWAP2 SWAP1 POP JUMP JUMPDEST PUSH32 0x4E6F20626F6E6473207769746820746865206461746500000000000000000000 PUSH1 0x0 DUP3 ADD MSTORE POP JUMP JUMPDEST PUSH1 0x0 PUSH2 0x54DA PUSH1 0x16 DUP4 PUSH2 0x4036 JUMP JUMPDEST SWAP2 POP PUSH2 0x54E5 DUP3 PUSH2 0x54A4 JUMP JUMPDEST PUSH1 0x20 DUP3 ADD SWAP1 POP SWAP2 SWAP1 POP JUMP JUMPDEST PUSH1 0x0 PUSH1 0x20 DUP3 ADD SWAP1 POP DUP2 DUP2 SUB PUSH1 0x0 DUP4 ADD MSTORE PUSH2 0x5509 DUP2 PUSH2 0x54CD JUMP JUMPDEST SWAP1 POP SWAP2 SWAP1 POP JUMP JUMPDEST PUSH32 0x4E6F7420656E6F75676820626F6E647300000000000000000000000000000000 PUSH1 0x0 DUP3 ADD MSTORE POP JUMP JUMPDEST PUSH1 0x0 PUSH2 0x5546 PUSH1 0x10 DUP4 PUSH2 0x4036 JUMP JUMPDEST SWAP2 POP PUSH2 0x5551 DUP3 PUSH2 0x5510 JUMP JUMPDEST PUSH1 0x20 DUP3 ADD SWAP1 POP SWAP2 SWAP1 POP JUMP JUMPDEST PUSH1 0x0 PUSH1 0x20 DUP3 ADD SWAP1 POP DUP2 DUP2 SUB PUSH1 0x0 DUP4 ADD MSTORE PUSH2 0x5575 DUP2 PUSH2 0x5539 JUMP JUMPDEST SWAP1 POP SWAP2 SWAP1 POP JUMP JUMPDEST PUSH32 0x4E6F7420656E6F75676820737061726520626F6E647300000000000000000000 PUSH1 0x0 DUP3 ADD MSTORE POP JUMP JUMPDEST PUSH1 0x0 PUSH2 0x55B2 PUSH1 0x16 DUP4 PUSH2 0x4036 JUMP JUMPDEST SWAP2 POP PUSH2 0x55BD DUP3 PUSH2 0x557C JUMP JUMPDEST PUSH1 0x20 DUP3 ADD SWAP1 POP SWAP2 SWAP1 POP JUMP JUMPDEST PUSH1 0x0 PUSH1 0x20 DUP3 ADD SWAP1 POP DUP2 DUP2 SUB PUSH1 0x0 DUP4 ADD MSTORE PUSH2 0x55E1 DUP2 PUSH2 0x55A5 JUMP JUMPDEST SWAP1 POP SWAP2 SWAP1 POP JUMP JUMPDEST PUSH1 0x0 PUSH1 0x80 DUP3 ADD SWAP1 POP PUSH2 0x55FD PUSH1 0x0 DUP4 ADD DUP8 PUSH2 0x43E0 JUMP JUMPDEST PUSH2 0x560A PUSH1 0x20 DUP4 ADD DUP7 PUSH2 0x432C JUMP JUMPDEST PUSH2 0x5617 PUSH1 0x40 DUP4 ADD DUP6 PUSH2 0x432C JUMP JUMPDEST PUSH2 0x5624 PUSH1 0x60 DUP4 ADD DUP5 PUSH2 0x432C JUMP JUMPDEST SWAP6 SWAP5 POP POP POP POP POP JUMP JUMPDEST PUSH32 0x4F776E61626C653A206E6577206F776E657220697320746865207A65726F2061 PUSH1 0x0 DUP3 ADD MSTORE PUSH32 0x6464726573730000000000000000000000000000000000000000000000000000 PUSH1 0x20 DUP3 ADD MSTORE POP JUMP JUMPDEST PUSH1 0x0 PUSH2 0x5689 PUSH1 0x26 DUP4 PUSH2 0x4036 JUMP JUMPDEST SWAP2 POP PUSH2 0x5694 DUP3 PUSH2 0x562D JUMP JUMPDEST PUSH1 0x40 DUP3 ADD SWAP1 POP SWAP2 SWAP1 POP JUMP JUMPDEST PUSH1 0x0 PUSH1 0x20 DUP3 ADD SWAP1 POP DUP2 DUP2 SUB PUSH1 0x0 DUP4 ADD MSTORE PUSH2 0x56B8 DUP2 PUSH2 0x567C JUMP JUMPDEST SWAP1 POP SWAP2 SWAP1 POP JUMP JUMPDEST PUSH32 0x416D6F7574206578636565647320746F74616C20737570706C61790000000000 PUSH1 0x0 DUP3 ADD MSTORE POP JUMP JUMPDEST PUSH1 0x0 PUSH2 0x56F5 PUSH1 0x1B DUP4 PUSH2 0x4036 JUMP JUMPDEST SWAP2 POP PUSH2 0x5700 DUP3 PUSH2 0x56BF JUMP JUMPDEST PUSH1 0x20 DUP3 ADD SWAP1 POP SWAP2 SWAP1 POP JUMP JUMPDEST PUSH1 0x0 PUSH1 0x20 DUP3 ADD SWAP1 POP DUP2 DUP2 SUB PUSH1 0x0 DUP4 ADD MSTORE PUSH2 0x5724 DUP2 PUSH2 0x56E8 JUMP JUMPDEST SWAP1 POP SWAP2 SWAP1 POP JUMP JUMPDEST PUSH32 0x5468652073656E6465722069736E277420646566696E656420617320616E2061 PUSH1 0x0 DUP3 ADD MSTORE PUSH32 0x7070726F766564206F66666572696E6720706C6174666F726D2E000000000000 PUSH1 0x20 DUP3 ADD MSTORE POP JUMP JUMPDEST PUSH1 0x0 PUSH2 0x5787 PUSH1 0x3A DUP4 PUSH2 0x4036 JUMP JUMPDEST SWAP2 POP PUSH2 0x5792 DUP3 PUSH2 0x572B JUMP JUMPDEST PUSH1 0x40 DUP3 ADD SWAP1 POP SWAP2 SWAP1 POP JUMP JUMPDEST PUSH1 0x0 PUSH1 0x20 DUP3 ADD SWAP1 POP DUP2 DUP2 SUB PUSH1 0x0 DUP4 ADD MSTORE PUSH2 0x57B6 DUP2 PUSH2 0x577A JUMP JUMPDEST SWAP1 POP SWAP2 SWAP1 POP JUMP JUMPDEST PUSH32 0x4E6F7420656E6F75676820616C6C6F77616E6365000000000000000000000000 PUSH1 0x0 DUP3 ADD MSTORE POP JUMP JUMPDEST PUSH1 0x0 PUSH2 0x57F3 PUSH1 0x14 DUP4 PUSH2 0x4036 JUMP JUMPDEST SWAP2 POP PUSH2 0x57FE DUP3 PUSH2 0x57BD JUMP JUMPDEST PUSH1 0x20 DUP3 ADD SWAP1 POP SWAP2 SWAP1 POP JUMP JUMPDEST PUSH1 0x0 PUSH1 0x20 DUP3 ADD SWAP1 POP DUP2 DUP2 SUB PUSH1 0x0 DUP4 ADD MSTORE PUSH2 0x5822 DUP2 PUSH2 0x57E6 JUMP JUMPDEST SWAP1 POP SWAP2 SWAP1 POP JUMP JUMPDEST PUSH32 0x54686520616D6F757420657863656564732074686520746F74616C2073757070 PUSH1 0x0 DUP3 ADD MSTORE PUSH32 0x6C61790000000000000000000000000000000000000000000000000000000000 PUSH1 0x20 DUP3 ADD MSTORE POP JUMP JUMPDEST PUSH1 0x0 PUSH2 0x5885 PUSH1 0x23 DUP4 PUSH2 0x4036 JUMP JUMPDEST SWAP2 POP PUSH2 0x5890 DUP3 PUSH2 0x5829 JUMP JUMPDEST PUSH1 0x40 DUP3 ADD SWAP1 POP SWAP2 SWAP1 POP JUMP JUMPDEST PUSH1 0x0 PUSH1 0x20 DUP3 ADD SWAP1 POP DUP2 DUP2 SUB PUSH1 0x0 DUP4 ADD MSTORE PUSH2 0x58B4 DUP2 PUSH2 0x5878 JUMP JUMPDEST SWAP1 POP SWAP2 SWAP1 POP JUMP JUMPDEST PUSH32 0x4F776E61626C653A2063616C6C6572206973206E6F7420746865206F776E6572 PUSH1 0x0 DUP3 ADD MSTORE POP JUMP JUMPDEST PUSH1 0x0 PUSH2 0x58F1 PUSH1 0x20 DUP4 PUSH2 0x4036 JUMP JUMPDEST SWAP2 POP PUSH2 0x58FC DUP3 PUSH2 0x58BB JUMP JUMPDEST PUSH1 0x20 DUP3 ADD SWAP1 POP SWAP2 SWAP1 POP JUMP JUMPDEST PUSH1 0x0 PUSH1 0x20 DUP3 ADD SWAP1 POP DUP2 DUP2 SUB PUSH1 0x0 DUP4 ADD MSTORE PUSH2 0x5920 DUP2 PUSH2 0x58E4 JUMP JUMPDEST SWAP1 POP SWAP2 SWAP1 POP JUMP JUMPDEST PUSH32 0x44656372656173656420616C6C6F77616E63652062656C6F7720300000000000 PUSH1 0x0 DUP3 ADD MSTORE POP JUMP JUMPDEST PUSH1 0x0 PUSH2 0x595D PUSH1 0x1B DUP4 PUSH2 0x4036 JUMP JUMPDEST SWAP2 POP PUSH2 0x5968 DUP3 PUSH2 0x5927 JUMP JUMPDEST PUSH1 0x20 DUP3 ADD SWAP1 POP SWAP2 SWAP1 POP JUMP JUMPDEST PUSH1 0x0 PUSH1 0x20 DUP3 ADD SWAP1 POP DUP2 DUP2 SUB PUSH1 0x0 DUP4 ADD MSTORE PUSH2 0x598C DUP2 PUSH2 0x5950 JUMP JUMPDEST SWAP1 POP SWAP2 SWAP1 POP JUMP JUMPDEST PUSH32 0x4E487B7100000000000000000000000000000000000000000000000000000000 PUSH1 0x0 MSTORE PUSH1 0x12 PUSH1 0x4 MSTORE PUSH1 0x24 PUSH1 0x0 REVERT JUMPDEST PUSH1 0x0 PUSH2 0x59CD DUP3 PUSH2 0x3F2B JUMP JUMPDEST SWAP2 POP PUSH2 0x59D8 DUP4 PUSH2 0x3F2B JUMP JUMPDEST SWAP3 POP DUP3 PUSH2 0x59E8 JUMPI PUSH2 0x59E7 PUSH2 0x5993 JUMP JUMPDEST JUMPDEST DUP3 DUP3 DIV SWAP1 POP SWAP3 SWAP2 POP POP JUMP JUMPDEST PUSH1 0x0 PUSH2 0x59FE DUP3 PUSH2 0x3F2B JUMP JUMPDEST SWAP2 POP PUSH2 0x5A09 DUP4 PUSH2 0x3F2B JUMP JUMPDEST SWAP3 POP DUP3 PUSH2 0x5A19 JUMPI PUSH2 0x5A18 PUSH2 0x5993 JUMP JUMPDEST JUMPDEST DUP3 DUP3 MOD SWAP1 POP SWAP3 SWAP2 POP POP JUMP JUMPDEST PUSH1 0x0 DUP2 SWAP1 POP SWAP2 SWAP1 POP JUMP JUMPDEST PUSH1 0x0 PUSH2 0x5A39 DUP3 PUSH2 0x5A24 JUMP JUMPDEST SWAP2 POP PUSH2 0x5A44 DUP4 PUSH2 0x5A24 JUMP JUMPDEST SWAP3 POP DUP3 DUP3 SUB SWAP1 POP DUP2 DUP2 SLT PUSH1 0x0 DUP5 SLT AND DUP3 DUP3 SGT PUSH1 0x0 DUP6 SLT ISZERO AND OR ISZERO PUSH2 0x5A6B JUMPI PUSH2 0x5A6A PUSH2 0x4C2E JUMP JUMPDEST JUMPDEST SWAP3 SWAP2 POP POP JUMP JUMPDEST PUSH1 0x0 PUSH2 0x5A7C DUP3 PUSH2 0x5A24 JUMP JUMPDEST SWAP2 POP PUSH2 0x5A87 DUP4 PUSH2 0x5A24 JUMP JUMPDEST SWAP3 POP DUP3 PUSH2 0x5A97 JUMPI PUSH2 0x5A96 PUSH2 0x5993 JUMP JUMPDEST JUMPDEST PUSH1 0x1 PUSH1 0x0 SUB DUP4 EQ PUSH32 0x8000000000000000000000000000000000000000000000000000000000000000 DUP4 EQ AND ISZERO PUSH2 0x5AD0 JUMPI PUSH2 0x5ACF PUSH2 0x4C2E JUMP JUMPDEST JUMPDEST DUP3 DUP3 SDIV SWAP1 POP SWAP3 SWAP2 POP POP JUMP JUMPDEST PUSH1 0x0 PUSH2 0x5AE6 DUP3 PUSH2 0x5A24 JUMP JUMPDEST SWAP2 POP PUSH2 0x5AF1 DUP4 PUSH2 0x5A24 JUMP JUMPDEST SWAP3 POP DUP3 DUP3 ADD SWAP1 POP DUP3 DUP2 SLT ISZERO PUSH1 0x0 DUP4 SLT AND DUP4 DUP3 SLT PUSH1 0x0 DUP5 SLT ISZERO AND OR ISZERO PUSH2 0x5B19 JUMPI PUSH2 0x5B18 PUSH2 0x4C2E JUMP JUMPDEST JUMPDEST SWAP3 SWAP2 POP POP JUMP JUMPDEST PUSH1 0x0 PUSH2 0x5B2A DUP3 PUSH2 0x5A24 JUMP JUMPDEST SWAP2 POP PUSH2 0x5B35 DUP4 PUSH2 0x5A24 JUMP JUMPDEST SWAP3 POP DUP3 DUP3 MUL PUSH2 0x5B43 DUP2 PUSH2 0x5A24 JUMP JUMPDEST SWAP2 POP PUSH32 0x8000000000000000000000000000000000000000000000000000000000000000 DUP5 EQ PUSH1 0x0 DUP5 SLT AND ISZERO PUSH2 0x5B7B JUMPI PUSH2 0x5B7A PUSH2 0x4C2E JUMP JUMPDEST JUMPDEST DUP3 DUP3 SDIV DUP5 EQ DUP4 ISZERO OR PUSH2 0x5B90 JUMPI PUSH2 0x5B8F PUSH2 0x4C2E JUMP JUMPDEST JUMPDEST POP SWAP3 SWAP2 POP POP JUMP JUMPDEST PUSH32 0x4275726E20616D6F756E7420657863656564732062616C616E63650000000000 PUSH1 0x0 DUP3 ADD MSTORE POP JUMP JUMPDEST PUSH1 0x0 PUSH2 0x5BCD PUSH1 0x1B DUP4 PUSH2 0x4036 JUMP JUMPDEST SWAP2 POP PUSH2 0x5BD8 DUP3 PUSH2 0x5B97 JUMP JUMPDEST PUSH1 0x20 DUP3 ADD SWAP1 POP SWAP2 SWAP1 POP JUMP JUMPDEST PUSH1 0x0 PUSH1 0x20 DUP3 ADD SWAP1 POP DUP2 DUP2 SUB PUSH1 0x0 DUP4 ADD MSTORE PUSH2 0x5BFC DUP2 PUSH2 0x5BC0 JUMP JUMPDEST SWAP1 POP SWAP2 SWAP1 POP JUMP JUMPDEST PUSH32 0x4E6F7420656E6F75676820626F6E647320617661696C69626C65000000000000 PUSH1 0x0 DUP3 ADD MSTORE POP JUMP JUMPDEST PUSH1 0x0 PUSH2 0x5C39 PUSH1 0x1A DUP4 PUSH2 0x4036 JUMP JUMPDEST SWAP2 POP PUSH2 0x5C44 DUP3 PUSH2 0x5C03 JUMP JUMPDEST PUSH1 0x20 DUP3 ADD SWAP1 POP SWAP2 SWAP1 POP JUMP JUMPDEST PUSH1 0x0 PUSH1 0x20 DUP3 ADD SWAP1 POP DUP2 DUP2 SUB PUSH1 0x0 DUP4 ADD MSTORE PUSH2 0x5C68 DUP2 PUSH2 0x5C2C JUMP JUMPDEST SWAP1 POP SWAP2 SWAP1 POP JUMP JUMPDEST PUSH32 0x4E6F7420656E6F75676820626C6F636B656420626F6E64730000000000000000 PUSH1 0x0 DUP3 ADD MSTORE POP JUMP JUMPDEST PUSH1 0x0 PUSH2 0x5CA5 PUSH1 0x18 DUP4 PUSH2 0x4036 JUMP JUMPDEST SWAP2 POP PUSH2 0x5CB0 DUP3 PUSH2 0x5C6F JUMP JUMPDEST PUSH1 0x20 DUP3 ADD SWAP1 POP SWAP2 SWAP1 POP JUMP JUMPDEST PUSH1 0x0 PUSH1 0x20 DUP3 ADD SWAP1 POP DUP2 DUP2 SUB PUSH1 0x0 DUP4 ADD MSTORE PUSH2 0x5CD4 DUP2 PUSH2 0x5C98 JUMP JUMPDEST SWAP1 POP SWAP2 SWAP1 POP JUMP JUMPDEST PUSH32 0x5061757361626C653A206E6F7420706175736564000000000000000000000000 PUSH1 0x0 DUP3 ADD MSTORE POP JUMP JUMPDEST PUSH1 0x0 PUSH2 0x5D11 PUSH1 0x14 DUP4 PUSH2 0x4036 JUMP JUMPDEST SWAP2 POP PUSH2 0x5D1C DUP3 PUSH2 0x5CDB JUMP JUMPDEST PUSH1 0x20 DUP3 ADD SWAP1 POP SWAP2 SWAP1 POP JUMP JUMPDEST PUSH1 0x0 PUSH1 0x20 DUP3 ADD SWAP1 POP DUP2 DUP2 SUB PUSH1 0x0 DUP4 ADD MSTORE PUSH2 0x5D40 DUP2 PUSH2 0x5D04 JUMP JUMPDEST SWAP1 POP SWAP2 SWAP1 POP JUMP JUMPDEST PUSH32 0x5061757361626C653A2070617573656400000000000000000000000000000000 PUSH1 0x0 DUP3 ADD MSTORE POP JUMP JUMPDEST PUSH1 0x0 PUSH2 0x5D7D PUSH1 0x10 DUP4 PUSH2 0x4036 JUMP JUMPDEST SWAP2 POP PUSH2 0x5D88 DUP3 PUSH2 0x5D47 JUMP JUMPDEST PUSH1 0x20 DUP3 ADD SWAP1 POP SWAP2 SWAP1 POP JUMP JUMPDEST PUSH1 0x0 PUSH1 0x20 DUP3 ADD SWAP1 POP DUP2 DUP2 SUB PUSH1 0x0 DUP4 ADD MSTORE PUSH2 0x5DAC DUP2 PUSH2 0x5D70 JUMP JUMPDEST SWAP1 POP SWAP2 SWAP1 POP JUMP INVALID LOG2 PUSH5 0x6970667358 0x22 SLT KECCAK256 0x2E 0xBD 0xF9 0xD5 0x5E 0xAF 0xAF 0xF9 PUSH17 0xC6C5BF636961AD9030EA15D72594E04CBF PC EXTCODEHASH SELFDESTRUCT 0x27 DUP4 0xDA PUSH5 0x736F6C6343 STOP ADDMOD SLT STOP CALLER "
		},
		"gasEstimates": {
			"creation": {
				"codeDepositCost": "4808200",
				"executionCost": "infinite",
				"totalCost": "infinite"
			},
			"external": {
				"addPatform(address)": "infinite",
				"allowance(address,address)": "infinite",
				"approve(address,uint256)": "731",
				"balanceOf(address)": "2909",
				"canceleOffer1(address,uint256)": "infinite",
				"coupon()": "infinite",
				"decimals()": "380",
				"getAllByBuyer(address)": "infinite",
				"initEnv(address,address,address)": "infinite",
				"initId(string,string)": "infinite",
				"issue(uint256)": "infinite",
				"makeOffer(address,uint256,uint256,uint256)": "infinite",
				"name()": "infinite",
				"owner()": "2589",
				"pause()": "infinite",
				"paused()": "2525",
				"redem(uint256,uint256)": "infinite",
				"removePatform(address)": "31651",
				"renounceOwnership()": "30588",
				"setMembershipRights(address)": "27120",
				"symbol()": "infinite",
				"totalSupply()": "2549",
				"transfer(address,uint256)": "708",
				"transferFrom(address,address,uint256)": "infinite",
				"transferFrom(address,address,uint256,uint256)": "infinite",
				"transferOwnership(address)": "30932",
				"unpause()": "infinite"
			}
		},
		"methodIdentifiers": {
			"addPatform(address)": "1cd26ac5",
			"allowance(address,address)": "dd62ed3e",
			"approve(address,uint256)": "095ea7b3",
			"balanceOf(address)": "70a08231",
			"canceleOffer1(address,uint256)": "2391abd3",
			"coupon()": "55c01345",
			"decimals()": "313ce567",
			"getAllByBuyer(address)": "01247f61",
			"initEnv(address,address,address)": "9e2c8adb",
			"initId(string,string)": "1717e8f4",
			"issue(uint256)": "cc872b66",
			"makeOffer(address,uint256,uint256,uint256)": "eb4aa830",
			"name()": "06fdde03",
			"owner()": "8da5cb5b",
			"pause()": "8456cb59",
			"paused()": "5c975abb",
			"redem(uint256,uint256)": "e21e95bd",
			"removePatform(address)": "56e34223",
			"renounceOwnership()": "715018a6",
			"setMembershipRights(address)": "1993d54b",
			"symbol()": "95d89b41",
			"totalSupply()": "18160ddd",
			"transfer(address,uint256)": "a9059cbb",
			"transferFrom(address,address,uint256)": "23b872dd",
			"transferFrom(address,address,uint256,uint256)": "fe99049a",
			"transferOwnership(address)": "f2fde38b",
			"unpause()": "3f4ba83a"
		}
	},
	"abi": [
		{
			"inputs": [],
			"stateMutability": "nonpayable",
			"type": "constructor"
		},
		{
			"inputs": [],
			"name": "NotAvailable",
			"type": "error"
		},
		{
			"inputs": [],
			"name": "ZeroAddress",
			"type": "error"
		},
		{
			"anonymous": false,
			"inputs": [
				{
					"indexed": true,
					"internalType": "address",
					"name": "owner",
					"type": "address"
				},
				{
					"indexed": true,
					"internalType": "address",
					"name": "spender",
					"type": "address"
				},
				{
					"indexed": false,
					"internalType": "uint256",
					"name": "value",
					"type": "uint256"
				}
			],
			"name": "Approval",
			"type": "event"
		},
		{
			"anonymous": false,
			"inputs": [
				{
					"indexed": true,
					"internalType": "address",
					"name": "previousOwner",
					"type": "address"
				},
				{
					"indexed": true,
					"internalType": "address",
					"name": "newOwner",
					"type": "address"
				}
			],
			"name": "OwnershipTransferred",
			"type": "event"
		},
		{
			"anonymous": false,
			"inputs": [
				{
					"indexed": false,
					"internalType": "address",
					"name": "account",
					"type": "address"
				}
			],
			"name": "Paused",
			"type": "event"
		},
		{
			"anonymous": false,
			"inputs": [
				{
					"indexed": true,
					"internalType": "address",
					"name": "from",
					"type": "address"
				},
				{
					"indexed": true,
					"internalType": "address",
					"name": "to",
					"type": "address"
				},
				{
					"indexed": false,
					"internalType": "uint256",
					"name": "value",
					"type": "uint256"
				}
			],
			"name": "Transfer",
			"type": "event"
		},
		{
			"anonymous": false,
			"inputs": [
				{
					"indexed": false,
					"internalType": "address",
					"name": "account",
					"type": "address"
				}
			],
			"name": "Unpaused",
			"type": "event"
		},
		{
			"inputs": [
				{
					"internalType": "address",
					"name": "platform",
					"type": "address"
				}
			],
			"name": "addPatform",
			"outputs": [],
			"stateMutability": "nonpayable",
			"type": "function"
		},
		{
			"inputs": [
				{
					"internalType": "address",
					"name": "bondOwner",
					"type": "address"
				},
				{
					"internalType": "address",
					"name": "platform",
					"type": "address"
				}
			],
			"name": "allowance",
			"outputs": [
				{
					"internalType": "uint256",
					"name": "",
					"type": "uint256"
				}
			],
			"stateMutability": "view",
			"type": "function"
		},
		{
			"inputs": [
				{
					"internalType": "address",
					"name": "",
					"type": "address"
				},
				{
					"internalType": "uint256",
					"name": "",
					"type": "uint256"
				}
			],
			"name": "approve",
			"outputs": [
				{
					"internalType": "bool",
					"name": "",
					"type": "bool"
				}
			],
			"stateMutability": "nonpayable",
			"type": "function"
		},
		{
			"inputs": [
				{
					"internalType": "address",
					"name": "account",
					"type": "address"
				}
			],
			"name": "balanceOf",
			"outputs": [
				{
					"internalType": "uint256",
					"name": "",
					"type": "uint256"
				}
			],
			"stateMutability": "view",
			"type": "function"
		},
		{
			"inputs": [
				{
					"internalType": "address",
					"name": "table",
					"type": "address"
				},
				{
					"internalType": "uint256",
					"name": "offer",
					"type": "uint256"
				}
			],
			"name": "canceleOffer1",
			"outputs": [
				{
					"internalType": "bool",
					"name": "",
					"type": "bool"
				}
			],
			"stateMutability": "nonpayable",
			"type": "function"
		},
		{
			"inputs": [],
			"name": "coupon",
			"outputs": [],
			"stateMutability": "nonpayable",
			"type": "function"
		},
		{
			"inputs": [],
			"name": "decimals",
			"outputs": [
				{
					"internalType": "uint8",
					"name": "",
					"type": "uint8"
				}
			],
			"stateMutability": "view",
			"type": "function"
		},
		{
			"inputs": [
				{
					"internalType": "address",
					"name": "buyer",
					"type": "address"
				}
			],
			"name": "getAllByBuyer",
			"outputs": [
				{
					"components": [
						{
							"internalType": "uint256",
							"name": "date",
							"type": "uint256"
						},
						{
							"internalType": "uint256",
							"name": "balance",
							"type": "uint256"
						},
						{
							"internalType": "uint256",
							"name": "blocked",
							"type": "uint256"
						}
					],
					"internalType": "struct BaseBondToken.BondsByDate[]",
					"name": "",
					"type": "tuple[]"
				}
			],
			"stateMutability": "view",
			"type": "function"
		},
		{
			"inputs": [
				{
					"internalType": "address",
					"name": "rights",
					"type": "address"
				},
				{
					"internalType": "address",
					"name": "money",
					"type": "address"
				},
				{
					"internalType": "address",
					"name": "owner_",
					"type": "address"
				}
			],
			"name": "initEnv",
			"outputs": [],
			"stateMutability": "nonpayable",
			"type": "function"
		},
		{
			"inputs": [
				{
					"internalType": "string",
					"name": "bondName",
					"type": "string"
				},
				{
					"internalType": "string",
					"name": "bondSymbol",
					"type": "string"
				}
			],
			"name": "initId",
			"outputs": [],
			"stateMutability": "nonpayable",
			"type": "function"
		},
		{
			"inputs": [
				{
					"internalType": "uint256",
					"name": "amount",
					"type": "uint256"
				}
			],
			"name": "issue",
			"outputs": [],
			"stateMutability": "nonpayable",
			"type": "function"
		},
		{
			"inputs": [
				{
					"internalType": "address",
					"name": "table",
					"type": "address"
				},
				{
					"internalType": "uint256",
					"name": "buyDate",
					"type": "uint256"
				},
				{
					"internalType": "uint256",
					"name": "amount",
					"type": "uint256"
				},
				{
					"internalType": "uint256",
					"name": "reqPrice",
					"type": "uint256"
				}
			],
			"name": "makeOffer",
			"outputs": [
				{
					"internalType": "uint256",
					"name": "",
					"type": "uint256"
				}
			],
			"stateMutability": "nonpayable",
			"type": "function"
		},
		{
			"inputs": [],
			"name": "name",
			"outputs": [
				{
					"internalType": "string",
					"name": "",
					"type": "string"
				}
			],
			"stateMutability": "view",
			"type": "function"
		},
		{
			"inputs": [],
			"name": "owner",
			"outputs": [
				{
					"internalType": "address",
					"name": "",
					"type": "address"
				}
			],
			"stateMutability": "view",
			"type": "function"
		},
		{
			"inputs": [],
			"name": "pause",
			"outputs": [],
			"stateMutability": "nonpayable",
			"type": "function"
		},
		{
			"inputs": [],
			"name": "paused",
			"outputs": [
				{
					"internalType": "bool",
					"name": "",
					"type": "bool"
				}
			],
			"stateMutability": "view",
			"type": "function"
		},
		{
			"inputs": [
				{
					"internalType": "uint256",
					"name": "buyDate",
					"type": "uint256"
				},
				{
					"internalType": "uint256",
					"name": "amount",
					"type": "uint256"
				}
			],
			"name": "redem",
			"outputs": [],
			"stateMutability": "nonpayable",
			"type": "function"
		},
		{
			"inputs": [
				{
					"internalType": "address",
					"name": "platform",
					"type": "address"
				}
			],
			"name": "removePatform",
			"outputs": [],
			"stateMutability": "nonpayable",
			"type": "function"
		},
		{
			"inputs": [],
			"name": "renounceOwnership",
			"outputs": [],
			"stateMutability": "nonpayable",
			"type": "function"
		},
		{
			"inputs": [
				{
					"internalType": "address",
					"name": "rights",
					"type": "address"
				}
			],
			"name": "setMembershipRights",
			"outputs": [],
			"stateMutability": "nonpayable",
			"type": "function"
		},
		{
			"inputs": [],
			"name": "symbol",
			"outputs": [
				{
					"internalType": "string",
					"name": "",
					"type": "string"
				}
			],
			"stateMutability": "view",
			"type": "function"
		},
		{
			"inputs": [],
			"name": "totalSupply",
			"outputs": [
				{
					"internalType": "uint256",
					"name": "",
					"type": "uint256"
				}
			],
			"stateMutability": "view",
			"type": "function"
		},
		{
			"inputs": [
				{
					"internalType": "address",
					"name": "",
					"type": "address"
				},
				{
					"internalType": "uint256",
					"name": "",
					"type": "uint256"
				}
			],
			"name": "transfer",
			"outputs": [
				{
					"internalType": "bool",
					"name": "",
					"type": "bool"
				}
			],
			"stateMutability": "nonpayable",
			"type": "function"
		},
		{
			"inputs": [
				{
					"internalType": "address",
					"name": "",
					"type": "address"
				},
				{
					"internalType": "address",
					"name": "",
					"type": "address"
				},
				{
					"internalType": "uint256",
					"name": "",
					"type": "uint256"
				}
			],
			"name": "transferFrom",
			"outputs": [
				{
					"internalType": "bool",
					"name": "",
					"type": "bool"
				}
			],
			"stateMutability": "nonpayable",
			"type": "function"
		},
		{
			"inputs": [
				{
					"internalType": "address",
					"name": "from",
					"type": "address"
				},
				{
					"internalType": "address",
					"name": "to",
					"type": "address"
				},
				{
					"internalType": "uint256",
					"name": "date",
					"type": "uint256"
				},
				{
					"internalType": "uint256",
					"name": "amount",
					"type": "uint256"
				}
			],
			"name": "transferFrom",
			"outputs": [
				{
					"internalType": "bool",
					"name": "",
					"type": "bool"
				}
			],
			"stateMutability": "nonpayable",
			"type": "function"
		},
		{
			"inputs": [
				{
					"internalType": "address",
					"name": "newOwner",
					"type": "address"
				}
			],
			"name": "transferOwnership",
			"outputs": [],
			"stateMutability": "nonpayable",
			"type": "function"
		},
		{
			"inputs": [],
			"name": "unpause",
			"outputs": [],
			"stateMutability": "nonpayable",
			"type": "function"
		}
	]
}